{
  "contractName": "ReslabEtsit",
  "abi": [
    {
      "inputs": [],
      "stateMutability": "nonpayable",
      "type": "constructor"
    },
    {
      "inputs": [
        {
          "internalType": "uint256",
          "name": "",
          "type": "uint256"
        },
        {
          "internalType": "uint256",
          "name": "",
          "type": "uint256"
        },
        {
          "internalType": "uint256",
          "name": "",
          "type": "uint256"
        }
      ],
      "name": "arrayPuestosDelLab",
      "outputs": [
        {
          "internalType": "string",
          "name": "nombre",
          "type": "string"
        },
        {
          "internalType": "uint256",
          "name": "indexlab",
          "type": "uint256"
        }
      ],
      "stateMutability": "view",
      "type": "function",
      "constant": true
    },
    {
      "inputs": [
        {
          "internalType": "uint256",
          "name": "",
          "type": "uint256"
        }
      ],
      "name": "asignaturasRegistradas",
      "outputs": [
        {
          "internalType": "string",
          "name": "nombre",
          "type": "string"
        },
        {
          "internalType": "uint256",
          "name": "indexLab",
          "type": "uint256"
        },
        {
          "internalType": "string",
          "name": "info",
          "type": "string"
        }
      ],
      "stateMutability": "view",
      "type": "function",
      "constant": true
    },
    {
      "inputs": [
        {
          "internalType": "uint256",
          "name": "",
          "type": "uint256"
        }
      ],
      "name": "asignaturasRegistradasdir",
      "outputs": [
        {
          "internalType": "address",
          "name": "",
          "type": "address"
        }
      ],
      "stateMutability": "view",
      "type": "function",
      "constant": true
    },
    {
      "inputs": [
        {
          "internalType": "uint256",
          "name": "",
          "type": "uint256"
        }
      ],
      "name": "creditosemanal",
      "outputs": [
        {
          "internalType": "address",
          "name": "",
          "type": "address"
        }
      ],
      "stateMutability": "view",
      "type": "function",
      "constant": true
    },
    {
      "inputs": [
        {
          "internalType": "address",
          "name": "",
          "type": "address"
        }
      ],
      "name": "datosAlumno",
      "outputs": [
        {
          "internalType": "string",
          "name": "nombre",
          "type": "string"
        },
        {
          "internalType": "string",
          "name": "email",
          "type": "string"
        }
      ],
      "stateMutability": "view",
      "type": "function",
      "constant": true
    },
    {
      "inputs": [
        {
          "internalType": "address",
          "name": "",
          "type": "address"
        }
      ],
      "name": "datosPersona",
      "outputs": [
        {
          "internalType": "address",
          "name": "dir",
          "type": "address"
        }
      ],
      "stateMutability": "view",
      "type": "function",
      "constant": true
    },
    {
      "inputs": [
        {
          "internalType": "address",
          "name": "",
          "type": "address"
        }
      ],
      "name": "datosProfesor",
      "outputs": [
        {
          "internalType": "string",
          "name": "nombreP",
          "type": "string"
        },
        {
          "internalType": "string",
          "name": "emailP",
          "type": "string"
        },
        {
          "internalType": "string",
          "name": "asignaturaP",
          "type": "string"
        },
        {
          "internalType": "string",
          "name": "departamentoP",
          "type": "string"
        }
      ],
      "stateMutability": "view",
      "type": "function",
      "constant": true
    },
    {
      "inputs": [
        {
          "internalType": "uint256",
          "name": "",
          "type": "uint256"
        },
        {
          "internalType": "uint256",
          "name": "",
          "type": "uint256"
        }
      ],
      "name": "datosReserva",
      "outputs": [
        {
          "internalType": "address",
          "name": "dirAlumno",
          "type": "address"
        },
        {
          "internalType": "bool",
          "name": "estaReservado",
          "type": "bool"
        }
      ],
      "stateMutability": "view",
      "type": "function",
      "constant": true
    },
    {
      "inputs": [
        {
          "internalType": "uint256",
          "name": "",
          "type": "uint256"
        },
        {
          "internalType": "uint256",
          "name": "",
          "type": "uint256"
        },
        {
          "internalType": "uint256",
          "name": "",
          "type": "uint256"
        },
        {
          "internalType": "uint256",
          "name": "",
          "type": "uint256"
        }
      ],
      "name": "datosReservaPorLabPuestoFechaTurno",
      "outputs": [
        {
          "internalType": "address",
          "name": "dirAlumno",
          "type": "address"
        },
        {
          "internalType": "bool",
          "name": "estaReservado",
          "type": "bool"
        }
      ],
      "stateMutability": "view",
      "type": "function",
      "constant": true
    },
    {
      "inputs": [
        {
          "internalType": "uint256",
          "name": "",
          "type": "uint256"
        },
        {
          "internalType": "uint256",
          "name": "",
          "type": "uint256"
        },
        {
          "internalType": "uint256",
          "name": "",
          "type": "uint256"
        }
      ],
      "name": "datosReservaPorLabPuestoTurno",
      "outputs": [
        {
          "internalType": "address",
          "name": "dirAlumno",
          "type": "address"
        },
        {
          "internalType": "bool",
          "name": "estaReservado",
          "type": "bool"
        }
      ],
      "stateMutability": "view",
      "type": "function",
      "constant": true
    },
    {
      "inputs": [
        {
          "internalType": "uint256",
          "name": "",
          "type": "uint256"
        }
      ],
      "name": "indiceLabPorAsignatura",
      "outputs": [
        {
          "internalType": "uint256",
          "name": "",
          "type": "uint256"
        }
      ],
      "stateMutability": "view",
      "type": "function",
      "constant": true
    },
    {
      "inputs": [
        {
          "internalType": "uint256",
          "name": "",
          "type": "uint256"
        }
      ],
      "name": "laboratoriosRegistrados",
      "outputs": [
        {
          "internalType": "uint256",
          "name": "laboratorioindex",
          "type": "uint256"
        },
        {
          "internalType": "string",
          "name": "nombreL",
          "type": "string"
        },
        {
          "internalType": "string",
          "name": "asignaura",
          "type": "string"
        },
        {
          "internalType": "string",
          "name": "info",
          "type": "string"
        }
      ],
      "stateMutability": "view",
      "type": "function",
      "constant": true
    },
    {
      "inputs": [
        {
          "internalType": "uint256",
          "name": "",
          "type": "uint256"
        }
      ],
      "name": "matriculas",
      "outputs": [
        {
          "internalType": "address",
          "name": "",
          "type": "address"
        }
      ],
      "stateMutability": "view",
      "type": "function",
      "constant": true
    },
    {
      "inputs": [],
      "name": "owner",
      "outputs": [
        {
          "internalType": "address",
          "name": "",
          "type": "address"
        }
      ],
      "stateMutability": "view",
      "type": "function",
      "constant": true
    },
    {
      "inputs": [
        {
          "internalType": "string",
          "name": "",
          "type": "string"
        },
        {
          "internalType": "string",
          "name": "",
          "type": "string"
        },
        {
          "internalType": "uint256",
          "name": "",
          "type": "uint256"
        },
        {
          "internalType": "uint256",
          "name": "",
          "type": "uint256"
        }
      ],
      "name": "personas",
      "outputs": [
        {
          "internalType": "address",
          "name": "",
          "type": "address"
        }
      ],
      "stateMutability": "view",
      "type": "function",
      "constant": true
    },
    {
      "inputs": [
        {
          "internalType": "string",
          "name": "",
          "type": "string"
        },
        {
          "internalType": "string",
          "name": "",
          "type": "string"
        },
        {
          "internalType": "uint256",
          "name": "",
          "type": "uint256"
        }
      ],
      "name": "personasTotales",
      "outputs": [
        {
          "internalType": "address",
          "name": "",
          "type": "address"
        }
      ],
      "stateMutability": "view",
      "type": "function",
      "constant": true
    },
    {
      "inputs": [
        {
          "internalType": "uint256",
          "name": "",
          "type": "uint256"
        }
      ],
      "name": "profesRegistrados",
      "outputs": [
        {
          "internalType": "address",
          "name": "",
          "type": "address"
        }
      ],
      "stateMutability": "view",
      "type": "function",
      "constant": true
    },
    {
      "inputs": [],
      "name": "profesorP",
      "outputs": [
        {
          "internalType": "address",
          "name": "",
          "type": "address"
        }
      ],
      "stateMutability": "view",
      "type": "function",
      "constant": true
    },
    {
      "inputs": [
        {
          "internalType": "uint256",
          "name": "",
          "type": "uint256"
        },
        {
          "internalType": "uint256",
          "name": "",
          "type": "uint256"
        }
      ],
      "name": "puestos",
      "outputs": [
        {
          "internalType": "uint256",
          "name": "",
          "type": "uint256"
        }
      ],
      "stateMutability": "view",
      "type": "function",
      "constant": true
    },
    {
      "inputs": [
        {
          "internalType": "string",
          "name": "",
          "type": "string"
        },
        {
          "internalType": "uint256",
          "name": "",
          "type": "uint256"
        },
        {
          "internalType": "uint256",
          "name": "",
          "type": "uint256"
        },
        {
          "internalType": "uint256",
          "name": "",
          "type": "uint256"
        }
      ],
      "name": "puestosBuscados",
      "outputs": [
        {
          "internalType": "uint256",
          "name": "",
          "type": "uint256"
        }
      ],
      "stateMutability": "view",
      "type": "function",
      "constant": true
    },
    {
      "inputs": [
        {
          "internalType": "uint256",
          "name": "",
          "type": "uint256"
        },
        {
          "internalType": "uint256",
          "name": "",
          "type": "uint256"
        }
      ],
      "name": "puestosDelLaboratorio",
      "outputs": [
        {
          "internalType": "uint256",
          "name": "",
          "type": "uint256"
        }
      ],
      "stateMutability": "view",
      "type": "function",
      "constant": true
    },
    {
      "inputs": [
        {
          "internalType": "uint256",
          "name": "",
          "type": "uint256"
        },
        {
          "internalType": "uint256",
          "name": "",
          "type": "uint256"
        },
        {
          "internalType": "uint256",
          "name": "",
          "type": "uint256"
        }
      ],
      "name": "puestosDelLaboratorioFecha",
      "outputs": [
        {
          "internalType": "uint256",
          "name": "",
          "type": "uint256"
        }
      ],
      "stateMutability": "view",
      "type": "function",
      "constant": true
    },
    {
      "inputs": [
        {
          "internalType": "uint256",
          "name": "",
          "type": "uint256"
        }
      ],
      "name": "puestosRegistrados",
      "outputs": [
        {
          "internalType": "string",
          "name": "nombre",
          "type": "string"
        },
        {
          "internalType": "uint256",
          "name": "indexlab",
          "type": "uint256"
        }
      ],
      "stateMutability": "view",
      "type": "function",
      "constant": true
    },
    {
      "inputs": [
        {
          "internalType": "string",
          "name": "",
          "type": "string"
        },
        {
          "internalType": "uint256",
          "name": "",
          "type": "uint256"
        }
      ],
      "name": "puestosTotales",
      "outputs": [
        {
          "internalType": "string",
          "name": "",
          "type": "string"
        }
      ],
      "stateMutability": "view",
      "type": "function",
      "constant": true
    },
    {
      "inputs": [
        {
          "internalType": "uint256",
          "name": "",
          "type": "uint256"
        }
      ],
      "name": "registradosP",
      "outputs": [
        {
          "internalType": "address",
          "name": "",
          "type": "address"
        }
      ],
      "stateMutability": "view",
      "type": "function",
      "constant": true
    },
    {
      "inputs": [
        {
          "internalType": "address",
          "name": "",
          "type": "address"
        }
      ],
      "name": "reservasAlumno",
      "outputs": [
        {
          "internalType": "string",
          "name": "lab",
          "type": "string"
        },
        {
          "internalType": "uint256",
          "name": "fecha",
          "type": "uint256"
        },
        {
          "internalType": "uint256",
          "name": "estado",
          "type": "uint256"
        }
      ],
      "stateMutability": "view",
      "type": "function",
      "constant": true
    },
    {
      "inputs": [
        {
          "internalType": "uint256",
          "name": "",
          "type": "uint256"
        },
        {
          "internalType": "uint256",
          "name": "",
          "type": "uint256"
        },
        {
          "internalType": "uint256",
          "name": "",
          "type": "uint256"
        }
      ],
      "name": "turnosPorPuesto",
      "outputs": [
        {
          "internalType": "uint256",
          "name": "",
          "type": "uint256"
        }
      ],
      "stateMutability": "view",
      "type": "function",
      "constant": true
    },
    {
      "inputs": [
        {
          "internalType": "uint256",
          "name": "",
          "type": "uint256"
        }
      ],
      "name": "turnosRegistrados",
      "outputs": [
        {
          "internalType": "string",
          "name": "nombre",
          "type": "string"
        },
        {
          "internalType": "uint256",
          "name": "fecha",
          "type": "uint256"
        }
      ],
      "stateMutability": "view",
      "type": "function",
      "constant": true
    },
    {
      "stateMutability": "payable",
      "type": "receive",
      "payable": true
    },
    {
      "inputs": [
        {
          "internalType": "uint256",
          "name": "_indexlab",
          "type": "uint256"
        }
      ],
      "name": "puestosDelLaboratorioLength",
      "outputs": [
        {
          "internalType": "uint256",
          "name": "",
          "type": "uint256"
        }
      ],
      "stateMutability": "view",
      "type": "function",
      "constant": true
    },
    {
      "inputs": [],
      "name": "turnosLength",
      "outputs": [
        {
          "internalType": "uint256",
          "name": "",
          "type": "uint256"
        }
      ],
      "stateMutability": "view",
      "type": "function",
      "constant": true
    },
    {
      "inputs": [
        {
          "internalType": "uint256",
          "name": "_laboratorioindex",
          "type": "uint256"
        }
      ],
      "name": "puestosLaboratorioLength",
      "outputs": [
        {
          "internalType": "uint256",
          "name": "",
          "type": "uint256"
        }
      ],
      "stateMutability": "view",
      "type": "function",
      "constant": true
    },
    {
      "inputs": [],
      "name": "laboratoriosLength",
      "outputs": [
        {
          "internalType": "uint256",
          "name": "",
          "type": "uint256"
        }
      ],
      "stateMutability": "view",
      "type": "function",
      "constant": true
    },
    {
      "inputs": [
        {
          "internalType": "string",
          "name": "_nombre",
          "type": "string"
        },
        {
          "internalType": "string",
          "name": "_fecha",
          "type": "string"
        }
      ],
      "name": "personasLength",
      "outputs": [
        {
          "internalType": "uint256",
          "name": "",
          "type": "uint256"
        }
      ],
      "stateMutability": "view",
      "type": "function",
      "constant": true
    },
    {
      "inputs": [
        {
          "internalType": "string",
          "name": "_nombre",
          "type": "string"
        }
      ],
      "name": "puestosLength2",
      "outputs": [
        {
          "internalType": "uint256",
          "name": "",
          "type": "uint256"
        }
      ],
      "stateMutability": "view",
      "type": "function",
      "constant": true
    },
    {
      "inputs": [
        {
          "internalType": "string",
          "name": "_nombre",
          "type": "string"
        },
        {
          "internalType": "string",
          "name": "_fecha",
          "type": "string"
        },
        {
          "internalType": "uint256",
          "name": "_indice",
          "type": "uint256"
        }
      ],
      "name": "dirPersonas",
      "outputs": [
        {
          "internalType": "address",
          "name": "",
          "type": "address"
        }
      ],
      "stateMutability": "view",
      "type": "function",
      "constant": true
    },
    {
      "inputs": [
        {
          "internalType": "address",
          "name": "persona",
          "type": "address"
        }
      ],
      "name": "obtenerDatosPersona",
      "outputs": [
        {
          "internalType": "address",
          "name": "",
          "type": "address"
        }
      ],
      "stateMutability": "view",
      "type": "function",
      "constant": true
    },
    {
      "inputs": [
        {
          "internalType": "uint256",
          "name": "_laboratorioindex",
          "type": "uint256"
        }
      ],
      "name": "puestosdeLaboratorio",
      "outputs": [
        {
          "internalType": "uint256",
          "name": "",
          "type": "uint256"
        }
      ],
      "stateMutability": "view",
      "type": "function",
      "constant": true
    },
    {
      "inputs": [
        {
          "internalType": "string",
          "name": "_fecha",
          "type": "string"
        },
        {
          "internalType": "uint256",
          "name": "_entradaTurno",
          "type": "uint256"
        },
        {
          "internalType": "uint256",
          "name": "_laboratorioindex",
          "type": "uint256"
        }
      ],
      "name": "BuscaPuestoLab",
      "outputs": [
        {
          "internalType": "uint256",
          "name": "",
          "type": "uint256"
        }
      ],
      "stateMutability": "view",
      "type": "function",
      "constant": true
    },
    {
      "inputs": [
        {
          "internalType": "uint256",
          "name": "_puestoId",
          "type": "uint256"
        },
        {
          "internalType": "uint256",
          "name": "_fecha",
          "type": "uint256"
        },
        {
          "internalType": "uint256",
          "name": "_turno",
          "type": "uint256"
        }
      ],
      "name": "guardarReserva",
      "outputs": [],
      "stateMutability": "nonpayable",
      "type": "function"
    },
    {
      "inputs": [
        {
          "internalType": "uint256",
          "name": "_puestoId",
          "type": "uint256"
        },
        {
          "internalType": "uint256",
          "name": "_fecha",
          "type": "uint256"
        },
        {
          "internalType": "uint256",
          "name": "_turno",
          "type": "uint256"
        }
      ],
      "name": "quitarReserva",
      "outputs": [],
      "stateMutability": "nonpayable",
      "type": "function"
    },
    {
      "inputs": [
        {
          "internalType": "uint256",
          "name": "_laboratorioindex",
          "type": "uint256"
        },
        {
          "internalType": "string",
          "name": "_nombreL",
          "type": "string"
        },
        {
          "internalType": "string",
          "name": "_asignaura",
          "type": "string"
        },
        {
          "internalType": "string",
          "name": "_Info",
          "type": "string"
        }
      ],
      "name": "creaLaboratorio",
      "outputs": [
        {
          "internalType": "uint256",
          "name": "",
          "type": "uint256"
        }
      ],
      "stateMutability": "nonpayable",
      "type": "function"
    },
    {
      "inputs": [
        {
          "internalType": "string",
          "name": "_nombreAsig",
          "type": "string"
        },
        {
          "internalType": "uint256",
          "name": "_indexLab",
          "type": "uint256"
        },
        {
          "internalType": "string",
          "name": "_Info",
          "type": "string"
        }
      ],
      "name": "creaAsignatura",
      "outputs": [
        {
          "internalType": "uint256",
          "name": "",
          "type": "uint256"
        }
      ],
      "stateMutability": "nonpayable",
      "type": "function"
    },
    {
      "inputs": [
        {
          "internalType": "string",
          "name": "_NombreP",
          "type": "string"
        },
        {
          "internalType": "uint256",
          "name": "_indexlab",
          "type": "uint256"
        }
      ],
      "name": "creaPuesto",
      "outputs": [
        {
          "internalType": "uint256",
          "name": "",
          "type": "uint256"
        }
      ],
      "stateMutability": "nonpayable",
      "type": "function"
    },
    {
      "inputs": [
        {
          "internalType": "string",
          "name": "_nombre",
          "type": "string"
        },
        {
          "internalType": "uint256",
          "name": "_fecha",
          "type": "uint256"
        }
      ],
      "name": "creaTurno",
      "outputs": [
        {
          "internalType": "uint256",
          "name": "",
          "type": "uint256"
        }
      ],
      "stateMutability": "nonpayable",
      "type": "function"
    },
    {
      "inputs": [],
      "name": "matriculasLength",
      "outputs": [
        {
          "internalType": "uint256",
          "name": "",
          "type": "uint256"
        }
      ],
      "stateMutability": "view",
      "type": "function",
      "constant": true
    },
    {
      "inputs": [],
      "name": "profesRegistradosLength",
      "outputs": [
        {
          "internalType": "uint256",
          "name": "",
          "type": "uint256"
        }
      ],
      "stateMutability": "view",
      "type": "function",
      "constant": true
    },
    {
      "inputs": [],
      "name": "asignaturasRegistradasLength",
      "outputs": [
        {
          "internalType": "uint256",
          "name": "",
          "type": "uint256"
        }
      ],
      "stateMutability": "view",
      "type": "function",
      "constant": true
    },
    {
      "inputs": [
        {
          "internalType": "string",
          "name": "_nombre",
          "type": "string"
        },
        {
          "internalType": "string",
          "name": "_email",
          "type": "string"
        }
      ],
      "name": "automatricula",
      "outputs": [],
      "stateMutability": "nonpayable",
      "type": "function"
    },
    {
      "inputs": [],
      "name": "autoregistroP",
      "outputs": [],
      "stateMutability": "nonpayable",
      "type": "function"
    },
    {
      "inputs": [
        {
          "internalType": "string",
          "name": "_nombreP",
          "type": "string"
        },
        {
          "internalType": "string",
          "name": "_emailP",
          "type": "string"
        },
        {
          "internalType": "string",
          "name": "_asignaturaP",
          "type": "string"
        },
        {
          "internalType": "string",
          "name": "_departamentoP",
          "type": "string"
        }
      ],
      "name": "autoRegistro",
      "outputs": [],
      "stateMutability": "nonpayable",
      "type": "function"
    },
    {
      "inputs": [],
      "name": "quienSoy",
      "outputs": [
        {
          "internalType": "string",
          "name": "_nombre",
          "type": "string"
        },
        {
          "internalType": "string",
          "name": "_email",
          "type": "string"
        }
      ],
      "stateMutability": "view",
      "type": "function",
      "constant": true
    },
    {
      "inputs": [
        {
          "internalType": "address",
          "name": "persona",
          "type": "address"
        }
      ],
      "name": "estaRegistradoP",
      "outputs": [
        {
          "internalType": "bool",
          "name": "",
          "type": "bool"
        }
      ],
      "stateMutability": "view",
      "type": "function",
      "constant": true
    }
  ],
  "bytecode": "0x608060405234801561001057600080fd5b50336000806101000a81548173ffffffffffffffffffffffffffffffffffffffff021916908373ffffffffffffffffffffffffffffffffffffffff16021790555061487b806100606000396000f3fe6080604052600436106103035760003560e01c8063810e8c8011610190578063bcfe45d3116100dc578063cdea020911610095578063ede343cf1161006f578063ede343cf14610dd8578063ee0e7c4f14610e01578063f0f066ef14610e3e578063f874785914610e7b57610343565b8063cdea020914610d21578063d2a2f7de14610d5e578063d5a3e75a14610d9b57610343565b8063bcfe45d314610bc1578063be4a935b14610bfe578063c2c639b614610c29578063c791813914610c67578063c88da89e14610ca4578063cbf2328814610ce357610343565b80639e1d8f4b11610149578063b013bd2411610123578063b013bd2414610ada578063b0b1273114610b17578063b4b4a51f14610b56578063b5daf62c14610b8157610343565b80639e1d8f4b14610a49578063a9b2aeac14610a74578063aaadcd1f14610ab157610343565b8063810e8c80146108ec57806387972906146109295780638b69735b146109675780638da5cb5b146109a45780638ee4003b146109cf5780638fa425e714610a0c57610343565b8063537668831161024f5780636ad8a0fb1161020857806370d714f2116101e257806370d714f21461081c57806379b51b6a146108475780637e09be7a146108725780637fa4574d146108af57610343565b80636ad8a0fb146107775780636bf8aad6146107b55780636d9af3d1146107f357610343565b8063537668831461063d5780635fdf483f1461066957806361d4c6ad146106a6578063641945bf146106cf57806366668f3c1461070f5780636916662b1461074c57610343565b80632535f784116102bc578063320d077311610296578063320d07731461056f578063365d92e2146105865780633bd20561146105c357806344141cb91461060057610343565b80632535f784146104b7578063296d91db146104f4578063317dc2861461053157610343565b806307025942146103485780630c06bc02146103855780630c312661146103c257806312f89eac146103ff578063151b3f521461043c578063223ca7a21461047a57610343565b36610343576040517f08c379a000000000000000000000000000000000000000000000000000000000815260040161033a9061457d565b60405180910390fd5b600080fd5b34801561035457600080fd5b5061036f600480360381019061036a9190613725565b610eb8565b60405161037c91906142f1565b60405180910390f35b34801561039157600080fd5b506103ac60048036038101906103a79190613b0a565b610ef6565b6040516103b9919061467d565b60405180910390f35b3480156103ce57600080fd5b506103e960048036038101906103e49190613725565b610f57565b6040516103f691906142f1565b60405180910390f35b34801561040b57600080fd5b50610426600480360381019061042191906139d0565b610fda565b6040516104339190614350565b60405180910390f35b34801561044857600080fd5b50610463600480360381019061045e9190613c59565b6110b9565b60405161047192919061430c565b60405180910390f35b34801561048657600080fd5b506104a1600480360381019061049c9190613b85565b611117565b6040516104ae91906142f1565b60405180910390f35b3480156104c357600080fd5b506104de60048036038101906104d99190613c95565b611156565b6040516104eb919061467d565b60405180910390f35b34801561050057600080fd5b5061051b60048036038101906105169190613bae565b611194565b604051610528919061467d565b60405180910390f35b34801561053d57600080fd5b5061055860048036038101906105539190613c95565b611332565b60405161056692919061440a565b60405180910390f35b34801561057b57600080fd5b50610584611418565b005b34801561059257600080fd5b506105ad60048036038101906105a89190613b85565b6115e4565b6040516105ba91906142f1565b60405180910390f35b3480156105cf57600080fd5b506105ea60048036038101906105e59190613b85565b611623565b6040516105f7919061467d565b60405180910390f35b34801561060c57600080fd5b5061062760048036038101906106229190613b85565b611643565b604051610634919061467d565b60405180910390f35b34801561064957600080fd5b5061065261165b565b604051610660929190614372565b60405180910390f35b34801561067557600080fd5b50610690600480360381019061068b91906138be565b611851565b60405161069d91906142f1565b60405180910390f35b3480156106b257600080fd5b506106cd60048036038101906106c8919061378f565b6118d8565b005b3480156106db57600080fd5b506106f660048036038101906106f19190613725565b611a70565b60405161070694939291906143a9565b60405180910390f35b34801561071b57600080fd5b506107366004803603810190610731919061378f565b611d00565b604051610743919061467d565b60405180910390f35b34801561075857600080fd5b50610761611d5b565b60405161076e919061467d565b60405180910390f35b34801561078357600080fd5b5061079e60048036038101906107999190613b85565b611d68565b6040516107ac92919061440a565b60405180910390f35b3480156107c157600080fd5b506107dc60048036038101906107d79190613725565b611e34565b6040516107ea929190614372565b60405180910390f35b3480156107ff57600080fd5b5061081a60048036038101906108159190613c95565b611f88565b005b34801561082857600080fd5b506108316120d6565b60405161083e919061467d565b60405180910390f35b34801561085357600080fd5b5061085c6120e3565b604051610869919061467d565b60405180910390f35b34801561087e57600080fd5b5061089960048036038101906108949190613725565b6120f0565b6040516108a69190614335565b60405180910390f35b3480156108bb57600080fd5b506108d660048036038101906108d191906139d0565b612191565b6040516108e3919061467d565b60405180910390f35b3480156108f857600080fd5b50610913600480360381019061090e9190613a24565b6122e7565b604051610920919061467d565b60405180910390f35b34801561093557600080fd5b50610950600480360381019061094b9190613c95565b612461565b60405161095e92919061430c565b60405180910390f35b34801561097357600080fd5b5061098e60048036038101906109899190613b85565b6124cc565b60405161099b919061467d565b60405180910390f35b3480156109b057600080fd5b506109b96124ec565b6040516109c691906142f1565b60405180910390f35b3480156109db57600080fd5b506109f660048036038101906109f1919061374e565b612510565b604051610a03919061467d565b60405180910390f35b348015610a1857600080fd5b50610a336004803603810190610a2e9190613c95565b61254e565b604051610a40919061467d565b60405180910390f35b348015610a5557600080fd5b50610a5e61258b565b604051610a6b919061467d565b60405180910390f35b348015610a8057600080fd5b50610a9b6004803603810190610a969190613aa3565b612598565b604051610aa8919061467d565b60405180910390f35b348015610abd57600080fd5b50610ad86004803603810190610ad39190613c95565b6125e7565b005b348015610ae657600080fd5b50610b016004803603810190610afc9190613c59565b612718565b604051610b0e919061467d565b60405180910390f35b348015610b2357600080fd5b50610b3e6004803603810190610b399190613725565b612749565b604051610b4d9392919061447f565b60405180910390f35b348015610b6257600080fd5b50610b6b61280b565b604051610b78919061467d565b60405180910390f35b348015610b8d57600080fd5b50610ba86004803603810190610ba39190613b85565b612818565b604051610bb89493929190614698565b60405180910390f35b348015610bcd57600080fd5b50610be86004803603810190610be391906139d0565b612a20565b604051610bf5919061467d565b60405180910390f35b348015610c0a57600080fd5b50610c13612bb6565b604051610c2091906142f1565b60405180910390f35b348015610c3557600080fd5b50610c506004803603810190610c4b9190613ce4565b612bdc565b604051610c5e92919061430c565b60405180910390f35b348015610c7357600080fd5b50610c8e6004803603810190610c899190613b85565b612c54565b604051610c9b91906142f1565b60405180910390f35b348015610cb057600080fd5b50610ccb6004803603810190610cc69190613b85565b612c93565b604051610cda9392919061443a565b60405180910390f35b348015610cef57600080fd5b50610d0a6004803603810190610d059190613b85565b612dfd565b604051610d1892919061440a565b60405180910390f35b348015610d2d57600080fd5b50610d486004803603810190610d439190613c59565b612ec9565b604051610d55919061467d565b60405180910390f35b348015610d6a57600080fd5b50610d856004803603810190610d809190613b85565b612efa565b604051610d9291906142f1565b60405180910390f35b348015610da757600080fd5b50610dc26004803603810190610dbd919061393d565b612f39565b604051610dcf91906142f1565b60405180910390f35b348015610de457600080fd5b50610dff6004803603810190610dfa91906137fb565b612fcd565b005b348015610e0d57600080fd5b50610e286004803603810190610e239190613b85565b6131ad565b604051610e3591906142f1565b60405180910390f35b348015610e4a57600080fd5b50610e656004803603810190610e609190613b85565b6131ec565b604051610e72919061467d565b60405180910390f35b348015610e8757600080fd5b50610ea26004803603810190610e9d91906138be565b61320c565b604051610eaf91906142f1565b60405180910390f35b60026020528060005260406000206000915090508060000160009054906101000a900473ffffffffffffffffffffffffffffffffffffffff16905081565b6017848051602081018201805184825260208301602085012081835280955050505050506020528260005260406000206020528160005260406000208181548110610f4057600080fd5b906000526020600020016000935093505050505481565b6000610f62826132db565b610f6f5760009050610fd5565b600260008373ffffffffffffffffffffffffffffffffffffffff1673ffffffffffffffffffffffffffffffffffffffff16815260200190815260200160002060000160009054906101000a900473ffffffffffffffffffffffffffffffffffffffff1690505b919050565b601582805160208101820180518482526020830160208501208183528095505050505050818154811061100c57600080fd5b90600052602060002001600091509150508054600181600116156101000203166002900480601f0160208091040260200160405190810160405280929190818152602001828054600181600116156101000203166002900480156110b15780601f10611086576101008083540402835291602001916110b1565b820191906000526020600020905b81548152906001019060200180831161109457829003601f168201915b505050505081565b6018602052816000526040600020602052806000526040600020600091509150508060000160009054906101000a900473ffffffffffffffffffffffffffffffffffffffff16908060000160149054906101000a900460ff16905082565b600a818154811061112757600080fd5b906000526020600020016000915054906101000a900473ffffffffffffffffffffffffffffffffffffffff1681565b601c602052826000526040600020602052816000526040600020818154811061117e57600080fd5b9060005260206000200160009250925050505481565b60008060009054906101000a900473ffffffffffffffffffffffffffffffffffffffff1673ffffffffffffffffffffffffffffffffffffffff163373ffffffffffffffffffffffffffffffffffffffff1614611225576040517f08c379a000000000000000000000000000000000000000000000000000000000815260040161121c9061465d565b60405180910390fd5b606084905060008151141561126f576040517f08c379a0000000000000000000000000000000000000000000000000000000008152600401611266906145bd565b60405180910390fd5b600e60405180608001604052808881526020018781526020018681526020018581525090806001815401808255809150506001900390600052602060002090600402016000909190919091506000820151816000015560208201518160010190805190602001906112e19291906135ba565b5060408201518160020190805190602001906112fe9291906135ba565b50606082015181600301908051906020019061131b9291906135ba565b5050506001600e8054905003915050949350505050565b601e602052826000526040600020602052816000526040600020818154811061135a57600080fd5b90600052602060002090600202016000925092505050806000018054600181600116156101000203166002900480601f0160208091040260200160405190810160405280929190818152602001828054600181600116156101000203166002900480156114085780601f106113dd57610100808354040283529160200191611408565b820191906000526020600020905b8154815290600101906020018083116113eb57829003601f168201915b5050505050908060010154905082565b611421336120f0565b15611461576040517f08c379a0000000000000000000000000000000000000000000000000000000008152600401611458906145fd565b60405180910390fd5b600073ffffffffffffffffffffffffffffffffffffffff163373ffffffffffffffffffffffffffffffffffffffff1614156114d1576040517f08c379a00000000000000000000000000000000000000000000000000000000081526004016114c8906144bd565b60405180910390fd5b60405180602001604052803373ffffffffffffffffffffffffffffffffffffffff16815250600260003373ffffffffffffffffffffffffffffffffffffffff1673ffffffffffffffffffffffffffffffffffffffff16815260200190815260200160002060008201518160000160006101000a81548173ffffffffffffffffffffffffffffffffffffffff021916908373ffffffffffffffffffffffffffffffffffffffff160217905550905050600a339080600181540180825580915050600190039060005260206000200160009091909190916101000a81548173ffffffffffffffffffffffffffffffffffffffff021916908373ffffffffffffffffffffffffffffffffffffffff160217905550565b600b81815481106115f457600080fd5b906000526020600020016000915054906101000a900473ffffffffffffffffffffffffffffffffffffffff1681565b600060166000838152602001908152602001600020805490509050919050565b601d6020528060005260406000206000915090505481565b606080611667336133d0565b6116a6576040517f08c379a000000000000000000000000000000000000000000000000000000000815260040161169d9061451d565b60405180910390fd5b6116ae613648565b600360003373ffffffffffffffffffffffffffffffffffffffff1673ffffffffffffffffffffffffffffffffffffffff168152602001908152602001600020604051806040016040529081600082018054600181600116156101000203166002900480601f0160208091040260200160405190810160405280929190818152602001828054600181600116156101000203166002900480156117915780601f1061176657610100808354040283529160200191611791565b820191906000526020600020905b81548152906001019060200180831161177457829003601f168201915b50505050508152602001600182018054600181600116156101000203166002900480601f0160208091040260200160405190810160405280929190818152602001828054600181600116156101000203166002900480156118335780601f1061180857610100808354040283529160200191611833565b820191906000526020600020905b81548152906001019060200180831161181657829003601f168201915b50505050508152505090508060000151925080602001519150509091565b6014838051602081018201805184825260208301602085012081835280955050505050508280516020810182018051848252602083016020850120818352809550505050505081815481106118a557600080fd5b90600052602060002001600092509250509054906101000a900473ffffffffffffffffffffffffffffffffffffffff1681565b6118e1336133d0565b15611921576040517f08c379a0000000000000000000000000000000000000000000000000000000008152600401611918906144dd565b60405180910390fd5b606082905060008151141561196b576040517f08c379a0000000000000000000000000000000000000000000000000000000008152600401611962906144fd565b60405180910390fd5b611973613648565b604051806040016040528085815260200184815250905080600360003373ffffffffffffffffffffffffffffffffffffffff1673ffffffffffffffffffffffffffffffffffffffff16815260200190815260200160002060008201518160000190805190602001906119e69291906135ba565b506020820151816001019080519060200190611a039291906135ba565b509050506008339080600181540180825580915050600190039060005260206000200160009091909190916101000a81548173ffffffffffffffffffffffffffffffffffffffff021916908373ffffffffffffffffffffffffffffffffffffffff16021790555050505050565b6004602052806000526040600020600091509050806000018054600181600116156101000203166002900480601f016020809104026020016040519081016040528092919081815260200182805460018160011615610100020316600290048015611b1c5780601f10611af157610100808354040283529160200191611b1c565b820191906000526020600020905b815481529060010190602001808311611aff57829003601f168201915b505050505090806001018054600181600116156101000203166002900480601f016020809104026020016040519081016040528092919081815260200182805460018160011615610100020316600290048015611bba5780601f10611b8f57610100808354040283529160200191611bba565b820191906000526020600020905b815481529060010190602001808311611b9d57829003601f168201915b505050505090806002018054600181600116156101000203166002900480601f016020809104026020016040519081016040528092919081815260200182805460018160011615610100020316600290048015611c585780601f10611c2d57610100808354040283529160200191611c58565b820191906000526020600020905b815481529060010190602001808311611c3b57829003601f168201915b505050505090806003018054600181600116156101000203166002900480601f016020809104026020016040519081016040528092919081815260200182805460018160011615610100020316600290048015611cf65780601f10611ccb57610100808354040283529160200191611cf6565b820191906000526020600020905b815481529060010190602001808311611cd957829003601f168201915b5050505050905084565b600080601483604051611d1391906142da565b908152602001604051809103902084604051611d2f91906142da565b90815260200160405180910390208054905090506000811415611d5157600190505b8091505092915050565b6000601080549050905090565b60108181548110611d7857600080fd5b9060005260206000209060020201600091509050806000018054600181600116156101000203166002900480601f016020809104026020016040519081016040528092919081815260200182805460018160011615610100020316600290048015611e245780601f10611df957610100808354040283529160200191611e24565b820191906000526020600020905b815481529060010190602001808311611e0757829003601f168201915b5050505050908060010154905082565b6003602052806000526040600020600091509050806000018054600181600116156101000203166002900480601f016020809104026020016040519081016040528092919081815260200182805460018160011615610100020316600290048015611ee05780601f10611eb557610100808354040283529160200191611ee0565b820191906000526020600020905b815481529060010190602001808311611ec357829003601f168201915b505050505090806001018054600181600116156101000203166002900480601f016020809104026020016040519081016040528092919081815260200182805460018160011615610100020316600290048015611f7e5780601f10611f5357610100808354040283529160200191611f7e565b820191906000526020600020905b815481529060010190602001808311611f6157829003601f168201915b5050505050905082565b611f91336133d0565b15611fd1576040517f08c379a0000000000000000000000000000000000000000000000000000000008152600401611fc8906144dd565b60405180910390fd5b60188110612014576040517f08c379a000000000000000000000000000000000000000000000000000000000815260040161200b9061461d565b60405180910390fd5b61201d336134c5565b1561205d576040517f08c379a0000000000000000000000000000000000000000000000000000000008152600401612054906145dd565b60405180910390fd5b33601f60008581526020019081526020016000206000848152602001908152602001600020600083815260200190815260200160002060006101000a81548173ffffffffffffffffffffffffffffffffffffffff021916908373ffffffffffffffffffffffffffffffffffffffff160217905550505050565b6000600d80549050905090565b6000600980549050905090565b600080600260008473ffffffffffffffffffffffffffffffffffffffff1673ffffffffffffffffffffffffffffffffffffffff16815260200190815260200160002060000160009054906101000a900473ffffffffffffffffffffffffffffffffffffffff169050600073ffffffffffffffffffffffffffffffffffffffff168173ffffffffffffffffffffffffffffffffffffffff161415915050919050565b60008060009054906101000a900473ffffffffffffffffffffffffffffffffffffffff1673ffffffffffffffffffffffffffffffffffffffff163373ffffffffffffffffffffffffffffffffffffffff1614612222576040517f08c379a00000000000000000000000000000000000000000000000000000000081526004016122199061465d565b60405180910390fd5b606083905060008151141561226c576040517f08c379a00000000000000000000000000000000000000000000000000000000081526004016122639061463d565b60405180910390fd5b6010604051806040016040528086815260200185815250908060018154018082558091505060019003906000526020600020906002020160009091909190915060008201518160000190805190602001906122c89291906135ba565b5060208201518160010155505060016010805490500391505092915050565b60008060009054906101000a900473ffffffffffffffffffffffffffffffffffffffff1673ffffffffffffffffffffffffffffffffffffffff163373ffffffffffffffffffffffffffffffffffffffff1614612378576040517f08c379a000000000000000000000000000000000000000000000000000000000815260040161236f9061465d565b60405180910390fd5b60608490506000815114156123c2576040517f08c379a00000000000000000000000000000000000000000000000000000000081526004016123b99061453d565b60405180910390fd5b600d604051806060016040528087815260200186815260200185815250908060018154018082558091505060019003906000526020600020906003020160009091909190915060008201518160000190805190602001906124249291906135ba565b5060208201518160010155604082015181600201908051906020019061244b9291906135ba565b5050506001600d80549050039150509392505050565b601a60205282600052604060002060205281600052604060002060205280600052604060002060009250925050508060000160009054906101000a900473ffffffffffffffffffffffffffffffffffffffff16908060000160149054906101000a900460ff16905082565b6000601b6000838152602001908152602001600020805490509050919050565b60008054906101000a900473ffffffffffffffffffffffffffffffffffffffff1681565b60008060158360405161252391906142da565b9081526020016040518091039020805490509050600081141561254557600190505b80915050919050565b60208052826000526040600020602052816000526040600020818154811061257557600080fd5b9060005260206000200160009250925050505481565b6000600880549050905090565b60006017846040516125aa91906142da565b9081526020016040518091039020600084815260200190815260200160002060008381526020019081526020016000208054905090509392505050565b6125f0336133d0565b15612630576040517f08c379a0000000000000000000000000000000000000000000000000000000008152600401612627906144dd565b60405180910390fd5b60188110612673576040517f08c379a000000000000000000000000000000000000000000000000000000000815260040161266a9061461d565b60405180910390fd5b61267c336134c5565b6126bb576040517f08c379a00000000000000000000000000000000000000000000000000000000081526004016126b29061455d565b60405180910390fd5b601f60008481526020019081526020016000206000838152602001908152602001600020600082815260200190815260200160002060006101000a81549073ffffffffffffffffffffffffffffffffffffffff0219169055505050565b601b602052816000526040600020818154811061273457600080fd5b90600052602060002001600091509150505481565b6011602052806000526040600020600091509050806000018054600181600116156101000203166002900480601f0160208091040260200160405190810160405280929190818152602001828054600181600116156101000203166002900480156127f55780601f106127ca576101008083540402835291602001916127f5565b820191906000526020600020905b8154815290600101906020018083116127d857829003601f168201915b5050505050908060010154908060020154905083565b6000600e80549050905090565b600e818154811061282857600080fd5b9060005260206000209060040201600091509050806000015490806001018054600181600116156101000203166002900480601f0160208091040260200160405190810160405280929190818152602001828054600181600116156101000203166002900480156128da5780601f106128af576101008083540402835291602001916128da565b820191906000526020600020905b8154815290600101906020018083116128bd57829003601f168201915b505050505090806002018054600181600116156101000203166002900480601f0160208091040260200160405190810160405280929190818152602001828054600181600116156101000203166002900480156129785780601f1061294d57610100808354040283529160200191612978565b820191906000526020600020905b81548152906001019060200180831161295b57829003601f168201915b505050505090806003018054600181600116156101000203166002900480601f016020809104026020016040519081016040528092919081815260200182805460018160011615610100020316600290048015612a165780601f106129eb57610100808354040283529160200191612a16565b820191906000526020600020905b8154815290600101906020018083116129f957829003601f168201915b5050505050905084565b60008060009054906101000a900473ffffffffffffffffffffffffffffffffffffffff1673ffffffffffffffffffffffffffffffffffffffff163373ffffffffffffffffffffffffffffffffffffffff1614612ab1576040517f08c379a0000000000000000000000000000000000000000000000000000000008152600401612aa89061465d565b60405180910390fd5b6060839050600081511415612afb576040517f08c379a0000000000000000000000000000000000000000000000000000000008152600401612af2906145bd565b60405180910390fd5b600f60405180604001604052808681526020018581525090806001815401808255809150506001900390600052602060002090600202016000909190919091506000820151816000019080519060200190612b579291906135ba565b5060208201518160010155505060006001600f80549050039050601b6000858152602001908152602001600020819080600181540180825580915050600190039060005260206000200160009091909190915055809250505092915050565b600160009054906101000a900473ffffffffffffffffffffffffffffffffffffffff1681565b60196020528360005260406000206020528260005260406000206020528160005260406000206020528060005260406000206000935093505050508060000160009054906101000a900473ffffffffffffffffffffffffffffffffffffffff16908060000160149054906101000a900460ff16905082565b60088181548110612c6457600080fd5b906000526020600020016000915054906101000a900473ffffffffffffffffffffffffffffffffffffffff1681565b600d8181548110612ca357600080fd5b9060005260206000209060030201600091509050806000018054600181600116156101000203166002900480601f016020809104026020016040519081016040528092919081815260200182805460018160011615610100020316600290048015612d4f5780601f10612d2457610100808354040283529160200191612d4f565b820191906000526020600020905b815481529060010190602001808311612d3257829003601f168201915b505050505090806001015490806002018054600181600116156101000203166002900480601f016020809104026020016040519081016040528092919081815260200182805460018160011615610100020316600290048015612df35780601f10612dc857610100808354040283529160200191612df3565b820191906000526020600020905b815481529060010190602001808311612dd657829003601f168201915b5050505050905083565b600f8181548110612e0d57600080fd5b9060005260206000209060020201600091509050806000018054600181600116156101000203166002900480601f016020809104026020016040519081016040528092919081815260200182805460018160011615610100020316600290048015612eb95780601f10612e8e57610100808354040283529160200191612eb9565b820191906000526020600020905b815481529060010190602001808311612e9c57829003601f168201915b5050505050908060010154905082565b60166020528160005260406000208181548110612ee557600080fd5b90600052602060002001600091509150505481565b600c8181548110612f0a57600080fd5b906000526020600020016000915054906101000a900473ffffffffffffffffffffffffffffffffffffffff1681565b601384805160208101820180518482526020830160208501208183528095505050505050838051602081018201805184825260208301602085012081835280955050505050506020528160005260406000208181548110612f9957600080fd5b9060005260206000200160009350935050509054906101000a900473ffffffffffffffffffffffffffffffffffffffff1681565b612fd6336132db565b15613016576040517f08c379a000000000000000000000000000000000000000000000000000000000815260040161300d9061459d565b60405180910390fd5b6060849050600081511415613060576040517f08c379a0000000000000000000000000000000000000000000000000000000008152600401613057906144fd565b60405180910390fd5b613068613662565b604051806080016040528087815260200186815260200185815260200184815250905080600460003373ffffffffffffffffffffffffffffffffffffffff1673ffffffffffffffffffffffffffffffffffffffff16815260200190815260200160002060008201518160000190805190602001906130e79291906135ba565b5060208201518160010190805190602001906131049291906135ba565b5060408201518160020190805190602001906131219291906135ba565b50606082015181600301908051906020019061313e9291906135ba565b509050506009339080600181540180825580915050600190039060005260206000200160009091909190916101000a81548173ffffffffffffffffffffffffffffffffffffffff021916908373ffffffffffffffffffffffffffffffffffffffff160217905550505050505050565b600981815481106131bd57600080fd5b906000526020600020016000915054906101000a900473ffffffffffffffffffffffffffffffffffffffff1681565b600060166000838152602001908152602001600020805490509050919050565b60008060148460405161321f91906142da565b90815260200160405180910390208560405161323b91906142da565b90815260200160405180910390208054905011156132d057600060148460405161326591906142da565b90815260200160405180910390208560405161328191906142da565b9081526020016040518091039020838154811061329a57fe5b9060005260206000200160009054906101000a900473ffffffffffffffffffffffffffffffffffffffff169050809150506132d4565b3390505b9392505050565b60006060600460008473ffffffffffffffffffffffffffffffffffffffff1673ffffffffffffffffffffffffffffffffffffffff1681526020019081526020016000206000018054600181600116156101000203166002900480601f0160208091040260200160405190810160405280929190818152602001828054600181600116156101000203166002900480156133b55780601f1061338a576101008083540402835291602001916133b5565b820191906000526020600020905b81548152906001019060200180831161339857829003601f168201915b50505050509050606081905060008151141592505050919050565b60006060600360008473ffffffffffffffffffffffffffffffffffffffff1673ffffffffffffffffffffffffffffffffffffffff1681526020019081526020016000206000018054600181600116156101000203166002900480601f0160208091040260200160405190810160405280929190818152602001828054600181600116156101000203166002900480156134aa5780601f1061347f576101008083540402835291602001916134aa565b820191906000526020600020905b81548152906001019060200180831161348d57829003601f168201915b50505050509050606081905060008151141592505050919050565b60006060600760008473ffffffffffffffffffffffffffffffffffffffff1673ffffffffffffffffffffffffffffffffffffffff1681526020019081526020016000206000018054600181600116156101000203166002900480601f01602080910402602001604051908101604052809291908181526020018280546001816001161561010002031660029004801561359f5780601f106135745761010080835404028352916020019161359f565b820191906000526020600020905b81548152906001019060200180831161358257829003601f168201915b50505050509050606081905060008151141592505050919050565b828054600181600116156101000203166002900490600052602060002090601f0160209004810192826135f05760008555613637565b82601f1061360957805160ff1916838001178555613637565b82800160010185558215613637579182015b8281111561363657825182559160200191906001019061361b565b5b509050613644919061368a565b5090565b604051806040016040528060608152602001606081525090565b6040518060800160405280606081526020016060815260200160608152602001606081525090565b5b808211156136a357600081600090555060010161368b565b5090565b6000813590506136b681614817565b92915050565b600082601f8301126136cd57600080fd5b81356136e06136db82614723565b6146f2565b915080825260208301602083018583830111156136fc57600080fd5b6137078382846147c2565b50505092915050565b60008135905061371f8161482e565b92915050565b60006020828403121561373757600080fd5b6000613745848285016136a7565b91505092915050565b60006020828403121561376057600080fd5b600082013567ffffffffffffffff81111561377a57600080fd5b613786848285016136bc565b91505092915050565b600080604083850312156137a257600080fd5b600083013567ffffffffffffffff8111156137bc57600080fd5b6137c8858286016136bc565b925050602083013567ffffffffffffffff8111156137e557600080fd5b6137f1858286016136bc565b9150509250929050565b6000806000806080858703121561381157600080fd5b600085013567ffffffffffffffff81111561382b57600080fd5b613837878288016136bc565b945050602085013567ffffffffffffffff81111561385457600080fd5b613860878288016136bc565b935050604085013567ffffffffffffffff81111561387d57600080fd5b613889878288016136bc565b925050606085013567ffffffffffffffff8111156138a657600080fd5b6138b2878288016136bc565b91505092959194509250565b6000806000606084860312156138d357600080fd5b600084013567ffffffffffffffff8111156138ed57600080fd5b6138f9868287016136bc565b935050602084013567ffffffffffffffff81111561391657600080fd5b613922868287016136bc565b925050604061393386828701613710565b9150509250925092565b6000806000806080858703121561395357600080fd5b600085013567ffffffffffffffff81111561396d57600080fd5b613979878288016136bc565b945050602085013567ffffffffffffffff81111561399657600080fd5b6139a2878288016136bc565b93505060406139b387828801613710565b92505060606139c487828801613710565b91505092959194509250565b600080604083850312156139e357600080fd5b600083013567ffffffffffffffff8111156139fd57600080fd5b613a09858286016136bc565b9250506020613a1a85828601613710565b9150509250929050565b600080600060608486031215613a3957600080fd5b600084013567ffffffffffffffff811115613a5357600080fd5b613a5f868287016136bc565b9350506020613a7086828701613710565b925050604084013567ffffffffffffffff811115613a8d57600080fd5b613a99868287016136bc565b9150509250925092565b600080600060608486031215613ab857600080fd5b600084013567ffffffffffffffff811115613ad257600080fd5b613ade868287016136bc565b9350506020613aef86828701613710565b9250506040613b0086828701613710565b9150509250925092565b60008060008060808587031215613b2057600080fd5b600085013567ffffffffffffffff811115613b3a57600080fd5b613b46878288016136bc565b9450506020613b5787828801613710565b9350506040613b6887828801613710565b9250506060613b7987828801613710565b91505092959194509250565b600060208284031215613b9757600080fd5b6000613ba584828501613710565b91505092915050565b60008060008060808587031215613bc457600080fd5b6000613bd287828801613710565b945050602085013567ffffffffffffffff811115613bef57600080fd5b613bfb878288016136bc565b935050604085013567ffffffffffffffff811115613c1857600080fd5b613c24878288016136bc565b925050606085013567ffffffffffffffff811115613c4157600080fd5b613c4d878288016136bc565b91505092959194509250565b60008060408385031215613c6c57600080fd5b6000613c7a85828601613710565b9250506020613c8b85828601613710565b9150509250929050565b600080600060608486031215613caa57600080fd5b6000613cb886828701613710565b9350506020613cc986828701613710565b9250506040613cda86828701613710565b9150509250925092565b60008060008060808587031215613cfa57600080fd5b6000613d0887828801613710565b9450506020613d1987828801613710565b9350506040613d2a87828801613710565b9250506060613d3b87828801613710565b91505092959194509250565b613d508161477a565b82525050565b613d5f8161478c565b82525050565b6000613d7082614753565b613d7a818561475e565b9350613d8a8185602086016147d1565b613d9381614806565b840191505092915050565b6000613da982614753565b613db3818561476f565b9350613dc38185602086016147d1565b80840191505092915050565b6000613ddc601f8361475e565b91507f456c2061646472657373206e6f20707565646520657374617220766163696f006000830152602082019050919050565b6000613e1c60288361475e565b91507f536f6c6f207065726d697469646f206120616c756d6e6f73206e6f206d61747260008301527f6963756c61646f730000000000000000000000000000000000000000000000006020830152604082019050919050565b6000613e82601c8361475e565b91507f456c206e6f6d627265206e6f2070756564652073657220766163696f000000006000830152602082019050919050565b6000613ec260258361475e565b91507f536f6c6f207065726d697469646f206120616c756d6e6f73206d61747269637560008301527f6c61646f730000000000000000000000000000000000000000000000000000006020830152604082019050919050565b6000613f2860278361475e565b91507f456c206e6f6d627265206465206c612061736967206e6f20707565646520736560008301527f7220766163696f000000000000000000000000000000000000000000000000006020830152604082019050919050565b6000613f8e602d8361475e565b91507f536f6c6f207065726d697469646f2061207475726e6f7320717565202065737460008301527f656e2072657365727661646f73000000000000000000000000000000000000006020830152604082019050919050565b6000613ff460258361475e565b91507f4e6f207365207065726d697465206c6120726563657063696f6e20646520646960008301527f6e65726f2e0000000000000000000000000000000000000000000000000000006020830152604082019050919050565b600061405a60268361475e565b91507f536f6c6f207065726d697469646f20612070726f666573206e6f20726567697360008301527f747261646f7300000000000000000000000000000000000000000000000000006020830152604082019050919050565b60006140c060248361475e565b91507f456c206e6f6d6272652064656c206c6162206e6f20707565646520736572207660008301527f6163696f000000000000000000000000000000000000000000000000000000006020830152604082019050919050565b6000614126602f8361475e565b91507f536f6c6f207065726d697469646f2061207475726e6f7320717565206e6f206560008301527f7374656e2072657365727661646f7300000000000000000000000000000000006020830152604082019050919050565b600061418c60288361475e565b91507f536f6c6f207065726d697469646f206120706572736f6e6173206e6f2072656760008301527f6973747261646f730000000000000000000000000000000000000000000000006020830152604082019050919050565b60006141f2600e8361475e565b91507f5475726e6f20696e76616c69646f0000000000000000000000000000000000006000830152602082019050919050565b6000614232602a8361475e565b91507f456c206e6f6d627265206465206c61207475726e6f206e6f207075656465206560008301527f7374617220766163696f000000000000000000000000000000000000000000006020830152604082019050919050565b600061429860178361475e565b91507f536f6c6f207065726d697469646f20616c206f776e65720000000000000000006000830152602082019050919050565b6142d4816147b8565b82525050565b60006142e68284613d9e565b915081905092915050565b60006020820190506143066000830184613d47565b92915050565b60006040820190506143216000830185613d47565b61432e6020830184613d56565b9392505050565b600060208201905061434a6000830184613d56565b92915050565b6000602082019050818103600083015261436a8184613d65565b905092915050565b6000604082019050818103600083015261438c8185613d65565b905081810360208301526143a08184613d65565b90509392505050565b600060808201905081810360008301526143c38187613d65565b905081810360208301526143d78186613d65565b905081810360408301526143eb8185613d65565b905081810360608301526143ff8184613d65565b905095945050505050565b600060408201905081810360008301526144248185613d65565b905061443360208301846142cb565b9392505050565b600060608201905081810360008301526144548186613d65565b905061446360208301856142cb565b81810360408301526144758184613d65565b9050949350505050565b600060608201905081810360008301526144998186613d65565b90506144a860208301856142cb565b6144b560408301846142cb565b949350505050565b600060208201905081810360008301526144d681613dcf565b9050919050565b600060208201905081810360008301526144f681613e0f565b9050919050565b6000602082019050818103600083015261451681613e75565b9050919050565b6000602082019050818103600083015261453681613eb5565b9050919050565b6000602082019050818103600083015261455681613f1b565b9050919050565b6000602082019050818103600083015261457681613f81565b9050919050565b6000602082019050818103600083015261459681613fe7565b9050919050565b600060208201905081810360008301526145b68161404d565b9050919050565b600060208201905081810360008301526145d6816140b3565b9050919050565b600060208201905081810360008301526145f681614119565b9050919050565b600060208201905081810360008301526146168161417f565b9050919050565b60006020820190508181036000830152614636816141e5565b9050919050565b6000602082019050818103600083015261465681614225565b9050919050565b600060208201905081810360008301526146768161428b565b9050919050565b600060208201905061469260008301846142cb565b92915050565b60006080820190506146ad60008301876142cb565b81810360208301526146bf8186613d65565b905081810360408301526146d38185613d65565b905081810360608301526146e78184613d65565b905095945050505050565b6000604051905081810181811067ffffffffffffffff8211171561471957614718614804565b5b8060405250919050565b600067ffffffffffffffff82111561473e5761473d614804565b5b601f19601f8301169050602081019050919050565b600081519050919050565b600082825260208201905092915050565b600081905092915050565b600061478582614798565b9050919050565b60008115159050919050565b600073ffffffffffffffffffffffffffffffffffffffff82169050919050565b6000819050919050565b82818337600083830152505050565b60005b838110156147ef5780820151818401526020810190506147d4565b838111156147fe576000848401525b50505050565bfe5b6000601f19601f8301169050919050565b6148208161477a565b811461482b57600080fd5b50565b614837816147b8565b811461484257600080fd5b5056fea2646970667358221220977361ad2f3619d8bcfb9697589fe01f6fd1765354b5d30fa011751d36a925c164736f6c63430007040033",
  "immutableReferences": {},
  "source": "pragma solidity ^0.7.4;\r\npragma experimental ABIEncoderV2;//enabled when passing an array of string(struct) as a function paramete\r\n\r\n\r\n/*\r\n*falta : \r\n*crear lo de las asignaturas con los laborarios y puestos a los que perteneces y las caracteristicas que desepean cada puesto \r\n*crear las reservas , se va a reservar por semana un puesto de un determinado laboratorio \r\n*/\r\n\r\n\r\ncontract ReslabEtsit {\r\n    \r\n   \r\n    /**\r\n     * address del profesor que ha desplegado el contrato.\r\n     * El contrato lo despliega el profesor.\r\n     */\r\n    address public owner;\r\n    address public profesorP;\r\n     \r\n    \r\n    /// Nombre de la asignatura\r\n    //string public nombre;\r\n    \r\n   \r\n    \r\n    /**\r\n     * Datos de un puesto\r\n     */\r\n     \r\n     \r\n     \r\n    enum TipoSO {windows, macos , linux}\r\n    \r\n    enum TipoConexionesRed { cable, inalambrico} // array de strings \r\n\r\n    \r\n    \r\n   \r\n   // enum Horario { turnom ,turnot}//poenr horas y turnos en enum???? array de horas \r\n    \r\n    struct DatosPuesto {\r\n\r\n\r\n    \r\n\tstring nombre;\r\n\t\r\n\tuint indexlab;\r\n\r\n       \r\n    }\r\n    \r\n    \r\n    struct DatosTurno{\r\n        string nombre;\r\n        uint fecha;\r\n      \r\n    }\r\n    \r\n    \r\n   \r\n   \r\n   \r\n    /**\r\n    * datos de todos los labs con sus parametro en la pantalla de inicio\r\n    * DUDA -> QUIERO PONERARRAY DE STRING DE ASIGNATURA!!\r\n    **/\r\n    struct DatosLaboratorio {\r\n        uint laboratorioindex;\r\n        \r\n        string nombreL;\r\n        string asignaura;\r\n        string info;\r\n        \r\n        //string[] asignaturaL;\r\n       \r\n    }\r\n\r\n\r\n\r\n\r\n    \r\n    \r\n    /**\r\n    * datos del alumno que se registra \r\n    **/\r\n   // datos persona \r\n    struct DatosPersona {\r\n\taddress dir;\r\n    }\r\n\r\n    /// Datos de un alumno.\r\n    struct DatosAlumno {\r\n        string nombre;\r\n        string email;\r\n        \r\n    }\r\n    \r\n    /**\r\n     * Datos profe que se registra \r\n     * */\r\n     \r\n    \r\n    struct DatosProfesor{\r\n        string nombreP;\r\n        string emailP;\r\n        string asignaturaP;\r\n        string departamentoP;\r\n    }\r\n    \r\n    \r\n\r\n\r\n\r\n\r\n\r\n    \r\n    struct DatosAsignatura{\r\n        string nombre;\r\n       // Laboratorio[] laboratorio;\r\n        uint indexLab;\r\n        string info;\r\n        //credito semanal\r\n        //Matriculas matriculados;\r\n    }\r\n    \r\n    \r\n    \r\n    \r\n    /**\r\n     * \r\n\r\n     si esta reservado por un alumno\r\n     * */\r\n     \r\n     struct DatosReserva{\r\n         address dirAlumno;\r\n         bool estaReservado;  \r\n     }\r\n     \r\n     /**\r\n      * Datos de mireserva //FALTA PUESTO\r\n      * */\r\n      \r\n      struct ReservaAlumno{\r\n          string lab;\r\n          uint fecha;\r\n          uint estado;\r\n          //string puesto;\r\n\r\n      }\r\n      \r\n      // acceder a los datos de una persona dada su direccion\r\n    mapping (address => DatosPersona) public datosPersona;\r\n    \r\n    /// Acceder a los datos de un alumno dada su direccion.\r\n    mapping (address => DatosAlumno) public datosAlumno;\r\n    \r\n      /// Acceder a los datos de un profe dada su direccion.\r\n    mapping (address => DatosProfesor) public datosProfesor;\r\n    \r\n    mapping (address => DatosAsignatura)  datosAsignatura;\r\n    \r\n    \r\n    mapping (address => DatosLaboratorio)  datosLaboratorio;\r\n\r\n    mapping (address => DatosTurno)  datosTurno;\r\n\r\n    //mapping(uint => Laboratorio) public labPuestos; //acceder a los puestos del lab dada la info del lab\r\n  \r\n   // mapping (address => DatosPuesto)  datosPuesto;\r\n    \r\n    // Array con las direcciones de los alumnos matriculados.\r\n    address[] public matriculas;\r\n    \r\n    \r\n    //array con las direcciones de los profes registrados \r\n    address[] public profesRegistrados;\r\n    \r\n        // Array con las direcciones de las personas registradas.\r\n    address[] public registradosP;\r\n\r\n    \r\n    //Array credito semanal \r\n    address [] public creditosemanal;\r\n    \r\n   //array con las direcciones de las asignaturas registradas \r\n   address[] public asignaturasRegistradasdir;\r\n\r\n    DatosAsignatura[] public asignaturasRegistradas;\r\n    \r\n    \r\n    // labs en la escuela\r\n    DatosLaboratorio[] public laboratoriosRegistrados;\r\n    //reservas de la escuela\r\n\r\n    // puestos en la escuela\r\n    DatosPuesto[] public puestosRegistrados;\r\n    \r\n \r\n\r\n    // array turnos de los puestos\r\n\r\n    DatosTurno[] public turnosRegistrados;\r\n        \r\n   \r\n\r\n     //reserva para un usuario \r\n  \r\n    mapping (address => ReservaAlumno) public reservasAlumno;\r\n    \r\n    \r\n    //turno de la escuela\r\n\r\n    //mapping (string => mapping (string  => uint[] )) public turnos;\r\n    \r\n    // Mapping para evitar duplicados de turnos devuelve un bool\r\n    //dado un puesto y una fecha  y un (turno) te devuelve un booleano \r\n    mapping (uint => mapping  ( uint => mapping ( uint => bool )))  turnos_existentes;\r\n    \r\n    /// Devuelve las direcciones de las personas que han asistido a algun lab en alguna de las fechas y en algun turno.\r\n    mapping (string => mapping (string => mapping (uint => address[] ))) public personas;\r\n   \r\n    /// Devuelve las Direcciones de las personas que han asistido a algun lab y en alguna de las fechas.\r\n    mapping (string => mapping (string => address[] )) public personasTotales;\r\n\r\n    // devuelve los puestos totales qu tienes los labs???????????????como lo hago  lo que quiero es haya los puestos totales que tiene cada laboratorio??????\r\n\r\n    mapping(string => string[]) public puestosTotales;\r\n    \r\n\r\n\r\n\r\n\r\n    //IMPORTANTEEEEEEEEEEEE!\r\n    // devuelve array con los indices de los puestos y la clave es un array de enteros laboratorio \r\n    mapping (uint=> uint[]) public puestos;\r\n\r\n\r\n\r\n    //dado la fecha, entrada turno y el el indice de laboratorio quiero que devuelva un array con el numero de puestos\r\n    mapping (string => mapping (uint => mapping (uint => uint[]))) public puestosBuscados;\r\n\r\n    \r\n    //dado el numero lab, fecha (numero de milisegundos) , dado turno ( todos los turnos que hay en un puesto en un dia), te devuelva la reserva\r\n  //  mapping( uint =>mapping (uint=> mapping (uint=> DatosReserva ))) public puestosReservados;\r\n\r\n\r\n    \r\n    //dado el numero puesto, turno (numero de milisegundos) ,  te devuelva la reserva\r\n   mapping( uint =>mapping (uint=> DatosReserva )) public datosReserva;\r\n\r\n\r\n   //\r\n    //dado el numero lab, de un puesto, fecha (numero de milisegundos) ,  y turno te devuelva la reserva\r\n\r\n     mapping( uint =>mapping (uint=> mapping (uint=> mapping (uint=> DatosReserva )))) public datosReservaPorLabPuestoFechaTurno;\r\n\r\n     //dado el numero lab, de un puesto,  y turno te devuelva la reserva\r\n\r\n     mapping( uint =>mapping (uint=>  mapping (uint=> DatosReserva ))) public datosReservaPorLabPuestoTurno;\r\n\r\n\r\n     \r\n\r\n\r\n\r\n    //te devuelve array de puestos reservados tal lab y tal fecha \r\n    //mapping( uint =>mapping (uint=> DatosPuesto[] )) public puestosReservadosLab;\r\n\r\n    //dado el indice de laboratorio un array de los indices de los puestos que estan en ese laboratorio \r\n    mapping(uint=> uint[]) public puestosDelLaboratorio;\r\n\r\n\r\n    //dado el indice de laboratorio y la fecha te devuelva los indices de los puestos que estan en ese laboratorio \r\n    mapping(uint=> mapping( uint => uint[])) public puestosDelLaboratorioFecha;\r\n\r\n\r\n    //dado el indice de una asignatura te devuelve el indice de un lab \r\n    mapping(uint => uint) public indiceLabPorAsignatura;\r\n\r\n    //dado una fecha y un lab cree una rray de puestos \r\n\r\n    mapping(uint=> mapping( uint => DatosPuesto[])) public arrayPuestosDelLab;\r\n\r\n\r\n    //dado el index de un puesto registrado \r\n    //dada la fecha ( string en formaro YYYYYMMD??????\r\n    // dado la hora del turno (de 0 a 23) \r\n    //devuelve el address del alumnos que ha reservado el turno\r\n    mapping(uint => mapping(uint => mapping (uint=> address))) reservasDelAlumno;\r\n\r\n\r\n       /// Dado el index de un puesto y una fecha te devuelve los turnos de un lab .\r\n    mapping (uint => mapping (uint  => uint[] )) public turnosPorPuesto;\r\n\r\n    \r\n    \r\n    \r\n    \r\n    /*\r\n     * Constructor.\r\n     * \r\n     * @param _nombre Nombre de la asignatura.\r\n     * //habria qu eponer nombre puesto /lab /alumno etc \r\n    \r\n     */\r\n    /*constructor(string memory _nombre) {\r\n        \r\n        bytes memory bn = bytes(_nombre);\r\n        require(bn.length != 0, \"El nombre de la asignatura no puede ser vacio\");\r\n       \r\n       \r\n      \r\n        owner = msg.sender;\r\n        nombre = _nombre;\r\n        \r\n        \r\n     \r\n        \r\n    }*/\r\n    \r\n    constructor()  {\r\n        owner = msg.sender;\r\n    } //?????????????????????????????????\r\n\r\n    \r\n    \r\n    \r\n    \r\n    \r\n/**\r\n     * Te devuelve el numero de puestos registrados\r\n     *\r\n     * @return El numero de puestos creadas.\r\n     */\r\n    /*function puestosLength() public view returns(uint) {\r\n        return puestosReservadosLab.length;\r\n    }\r\n    \r\n*/\r\n\r\n    // te devuelve la longitud de los puestos que hay en un laboratorio \r\n\r\n    function puestosDelLaboratorioLength(uint _indexlab) public view returns(uint) {\r\n        return puestosDelLaboratorio[_indexlab].length;\r\n\r\n\r\n    }\r\n\r\n\r\n\r\n  /**\r\n     * Te devuelve el numero de turnos\r\n     *\r\n     * @return El numero de turnos creadas.\r\n     */\r\n\r\n    function turnosLength() public view returns(uint) {\r\n        return turnosRegistrados.length;\r\n    }\r\n    \r\n\r\n    //devuelve la longitud del array de los puestos de un laboratorio \r\n    function puestosLaboratorioLength(uint _laboratorioindex) public view returns(uint) {\r\n        return puestos[_laboratorioindex].length;\r\n    }\r\n    \r\n    \r\n     /**\r\n     * El numero de labs  registrados\r\n     *\r\n     * @return El numero de labs creadas.\r\n     */\r\n    function laboratoriosLength() public view returns(uint) {\r\n        return laboratoriosRegistrados.length;\r\n    }\r\n    \r\n    \r\n    \r\n\r\n\r\n    /**\r\n     * Permite obtener la longitud del array de personasTotales.\r\n     * \r\n     */\r\n    function personasLength(string memory _nombre, string memory _fecha) public view returns(uint) {\r\n\r\n        uint longitud = personasTotales[_fecha][_nombre].length;\r\n\r\n        if(longitud == 0){\r\n        longitud = 1;\r\n\t    }\r\n\r\n  \t    return longitud;\r\n\r\n    }\r\n\r\n\r\n\r\n      /**\r\n     * Permite obtener la longitud del array de puestosTotale del lab\r\n     * \r\n     */\r\n    function puestosLength2(string memory _nombre) public view returns(uint) {\r\n\r\n        uint longitud2 = puestosTotales[_nombre].length;\r\n\r\n        if(longitud2 == 0){\r\n        longitud2 = 1;\r\n\t    }\r\n\r\n  \t    return longitud2;\r\n\r\n    }\r\n\r\n\r\n\r\n    /**\r\n     * Permite obtener un address del array de personas.\r\n     * \r\n     */\r\n    function dirPersonas(string memory _nombre, string memory _fecha, uint _indice) public view returns(address) {\r\n\r\n        if(personasTotales[_fecha][_nombre].length > 0){\r\n\r\n        address _dirUno = personasTotales[_fecha][_nombre][_indice];\r\n        return _dirUno;\r\n\r\n        }else{\r\n        return msg.sender;\r\n\t    }\t\t\t\r\n\t\r\n    }\r\n    \r\n    /**\r\n     * Obtiene los datos de una persona registrada.\r\n     * \r\n     * @param persona La direccion de una persona.\r\n     * \r\n     * @return los datos de una persona registrada.\r\n     */\r\n    function obtenerDatosPersona(address persona)  public view returns(address) {\r\n\t\r\n        \r\n        if(!estaRegistrado(persona)){\r\n        return address(0);\r\n        } else{\t\r\n        return datosPersona[persona].dir;\r\n\t}\r\n\t\r\n        \r\n        \r\n    } \r\n\r\n\r\n    //puestos que hay en un lab. Coger el array que te da el mapping de puestos y devolver su .length\r\n\r\n    function puestosdeLaboratorio(uint _laboratorioindex) public view returns(uint) {\r\n\r\n        return puestos[_laboratorioindex].length;\r\n    }\r\n    \r\n\r\n\r\n     // puestos que hay en un lab segun la fecha, la entrada \r\n    function BuscaPuestoLab( string  memory _fecha, uint _entradaTurno,uint _laboratorioindex) public view returns(uint) {\r\n\r\n        return puestosBuscados[_fecha][_entradaTurno][_laboratorioindex].length;\r\n    }\r\n\r\n\r\n\r\n\r\n \r\n\r\n\r\n\r\n    /** Un alumno crea una reserva \r\n    */\r\n\r\n    \r\n    \r\n    \r\n\r\n        function guardarReserva(uint  _puestoId, uint  _fecha,  uint _turno)  public {\r\n        \r\n\t\r\n       \r\n\r\n            require(!estaMatriculado(msg.sender),\"Solo permitido a alumnos no matriculados\");\r\n            require(_turno<24, \"Turno invalido\");\r\n            require(!estaReservado(msg.sender),\"Solo permitido a turnos que no esten reservados\");\r\n\r\n\r\n\r\n            reservasDelAlumno[_puestoId][_fecha][_turno]= msg.sender;\r\n\r\n\r\n        }\r\n\r\n        \r\n\r\n       \r\n\r\n\r\n\r\n\r\n        \r\n    /** Un alumno quita su reserva - ( solo profe , owner y el propio alumnos \r\n    */\r\n    \r\n\r\n\r\n\r\n       function quitarReserva(uint  _puestoId, uint  _fecha,  uint _turno) public {\r\n        \r\n\t\r\n       \r\n\r\n            require(!estaMatriculado(msg.sender),\"Solo permitido a alumnos no matriculados\");\r\n            require(_turno<24, \"Turno invalido\");\r\n            require(estaReservado(msg.sender),\"Solo permitido a turnos que  esten reservados\");\r\n\r\n            delete reservasDelAlumno[_puestoId][_fecha][_turno];\r\n\r\n        }\r\n     \r\n  \r\n    \r\n\r\n\r\n\r\n\r\n\r\n\r\n\r\n\r\n\r\n\r\n\r\n\r\n\r\n    \r\n    \r\n\r\n    \r\n    \r\n    \r\n    \r\n        \r\n     //te crea un laboratorio \r\n\r\n    function creaLaboratorio( uint  _laboratorioindex,string memory _nombreL,string memory _asignaura,string memory _Info) soloOwner public returns (uint) {\r\n        \r\n        bytes memory bn = bytes(_nombreL);\r\n        require(bn.length != 0, \"El nombre del lab no puede ser vacio\");\r\n        \r\n        laboratoriosRegistrados.push(DatosLaboratorio(_laboratorioindex,_nombreL,_asignaura,_Info));\r\n        return laboratoriosRegistrados.length - 1;\r\n    }\r\n    \r\n     // te rea una asignatura \r\n\r\n    function creaAsignatura( string memory _nombreAsig, uint _indexLab,string memory _Info)  soloOwner public returns (uint) {\r\n        \r\n        bytes memory bn = bytes(_nombreAsig);\r\n        require(bn.length != 0, \"El nombre de la asig no puede ser vacio\");\r\n        \r\n       asignaturasRegistradas.push(DatosAsignatura(_nombreAsig,_indexLab,_Info));\r\n        return asignaturasRegistradas.length - 1;\r\n    }\r\n    \r\n    \r\n    \r\n    \r\n    //te crea un puesto \r\n\r\n    function creaPuesto(string memory _NombreP,uint  _indexlab) soloOwner public returns (uint) {\r\n        \r\n        bytes memory bn = bytes(_NombreP);\r\n        require(bn.length != 0, \"El nombre del lab no puede ser vacio\");\r\n        \r\n        puestosRegistrados.push(DatosPuesto(_NombreP,_indexlab));\r\n        uint id = puestosRegistrados.length -1;\r\n\r\n        puestosDelLaboratorio[_indexlab].push(id);\r\n\r\n        return id;\r\n    \r\n    }   \r\n\r\n\r\n    //te crea un turno de laboratorio \r\n\r\n    function creaTurno(string memory _nombre, uint _fecha) soloOwner public returns (uint) {\r\n    \r\n    bytes memory bn = bytes(_nombre);\r\n    require(bn.length != 0, \"El nombre de la turno no puede estar vacio\");\r\n    \r\n    turnosRegistrados.push(DatosTurno(_nombre, _fecha));\r\n    return turnosRegistrados.length - 1;\r\n} \r\n    \r\n \r\n     /**\r\n     * El numero de alumnos matriculados.\r\n     *\r\n     * @return El numero de alumnos matriculados.\r\n     */\r\n    function matriculasLength() public view returns(uint) {\r\n        return matriculas.length;\r\n    }\r\n    \r\n    \r\n    \r\n      /**\r\n     * El numero de profes registrados.\r\n     *\r\n     * .\r\n     */\r\n    function profesRegistradosLength() public view returns(uint) {\r\n        return profesRegistrados.length;\r\n    }\r\n    \r\n    \r\n       /**\r\n     * El numero de asignaturas registrados.\r\n     *\r\n     * .\r\n     */\r\n    function asignaturasRegistradasLength() public view returns(uint) {\r\n        return asignaturasRegistradas.length;\r\n    }\r\n    \r\n    \r\n    \r\n    \r\n    \r\n      /**\r\n     * numero de credito semanal \r\n     *\r\n     * @return El numero de credito semanal \r\n     * \r\n     */\r\n     /*function creditosemanalLength() public view returns(uint) {\r\n        return creditosemanal.length;\r\n    }???????????????????????????*/\r\n     \r\n    \r\n    \r\n    \r\n    \r\n    /**\r\n     * Los alumnos pueden automatricularse con el metodo automatricula.\r\n     * \r\n     * Impedir que se pueda meter un nombre vacio.\r\n     *\r\n     * @param _nombre El nombre del alumno. \r\n     * @param _email  El email del alumno.\r\n     */\r\n    function automatricula(string memory _nombre, string memory _email) noMatriculados public {\r\n        //revert(\"siempre falla\");\r\n        bytes memory b = bytes(_nombre);\r\n        require(b.length != 0, \"El nombre no puede ser vacio\");\r\n        \r\n        DatosAlumno memory datos = DatosAlumno(_nombre, _email);\r\n        \r\n        datosAlumno[msg.sender] = datos;\r\n        \r\n        matriculas.push(msg.sender);\r\n        \r\n    }\r\n    \r\n    \r\n    function autoregistroP() noRegistradosP public {\r\n    \r\n        require(msg.sender!=address(0), \"El address no puede estar vacio\");\r\n        \r\n        datosPersona[msg.sender] = DatosPersona(msg.sender);\r\n        \r\n        registradosP.push(msg.sender);\r\n    \r\n    }\r\n    \r\n    \r\n  \r\n    function autoRegistro(string memory _nombreP, string memory _emailP,string memory _asignaturaP,string memory _departamentoP ) noRegistrados public {\r\n        \r\n        bytes memory b = bytes(_nombreP);\r\n        require(b.length != 0, \"El nombre no puede ser vacio\");\r\n        \r\n        DatosProfesor memory datosP = DatosProfesor(_nombreP, _emailP,_asignaturaP,_departamentoP);\r\n        \r\n        datosProfesor[msg.sender] = datosP;\r\n        \r\n       profesRegistrados.push(msg.sender);\r\n        \r\n    }\r\n    \r\n\r\n\r\n\r\n    \r\n    \r\n    \r\n    \r\n    \r\n    \r\n    \r\n    \r\n    \r\n    \r\n    /**\r\n     * Permite a un alumno obtener sus propios datos.\r\n     * \r\n     * @return _nombre El nombre del alumno que invoca el metodo.\r\n     * @return _email  El email del alumno que invoca el metodo.\r\n     */\r\n    function quienSoy() soloMatriculados public view returns (string memory _nombre, string memory _email) {\r\n        DatosAlumno memory datos = datosAlumno[msg.sender];\r\n        _nombre = datos.nombre;\r\n        _email = datos.email;\r\n    }\r\n    \r\n\r\n    /**\r\n     * Permite a un profe obtener sus propios datos.\r\n     * \r\n     * \r\n    \r\n    function quienSoyP() soloRegistrados public view returns (string memory _nombreP, string memory _emailP,string memory _asignaturaP,string memory _departamentoP) {\r\n        DatosProfesor memory datosP = datosProfesor[msg.sender];\r\n        _nombreP = datosP.nombreP;\r\n        _emailP = datosP.emailP;\r\n        _departamentoP = datosP.departamentoP;\r\n        _asignaturaP = datosP.asignaturaP;\r\n    }\r\n    \r\n    \r\n    \r\n\r\n    \r\n    \r\n    /**\r\n     * Consulta si una direccion pertenece a un alumno matriculado.\r\n     * \r\n     * @param alumno La direccion de un alumno.\r\n     * \r\n     * @return true si es una alumno matriculado.\r\n     */\r\n    function estaMatriculado(address alumno) private view returns (bool) {\r\n      \r\n        string memory _nombre = datosAlumno[alumno].nombre;\r\n        \r\n        bytes memory b = bytes(_nombre);\r\n        \r\n        return b.length != 0;\r\n    } \r\n\r\n       /**\r\n     * Consulta si un turno pertenece a un alumno matriculado.\r\n     * \r\n     * @param alumno La direccion de un alumno.\r\n     * \r\n     * @return true si es una alumno matriculado.\r\n     */\r\n\r\n\r\n       function estaReservado(address alumno) private view returns (bool) {\r\n      \r\n        string memory _nombre = datosTurno[alumno].nombre;\r\n        \r\n        bytes memory b = bytes(_nombre);\r\n        \r\n        return b.length != 0;\r\n    }\r\n    \r\n\r\n\r\n     /**\r\n     * Consulta si una direccion pertenece a un profe registrado.\r\n     * \r\n     * \r\n     */\r\n    \r\n       function estaRegistrado(address profesor) private view returns (bool) {\r\n      \r\n        string memory _nombreP = datosProfesor[profesor].nombreP;\r\n        \r\n        bytes memory b = bytes(_nombreP);\r\n        \r\n        return b.length != 0;\r\n    }\r\n\r\n\r\n    \r\n    function estaRegistradoP(address persona) public view returns (bool) {\r\n\r\n\taddress _dir = datosPersona[persona].dir;\r\n        return _dir!=address(0);\r\n    } \r\n    \r\n    \r\n\r\n   \r\n\r\n\r\n\r\n\r\n           /**\r\n     * Modificador para que una funcion solo la pueda ejecutar el profesor.\r\n     * \r\n     *\r\n     */\r\n\r\n    modifier soloOwner() {\r\n        \r\n        require(msg.sender == owner, \"Solo permitido al owner\");\r\n        _;\r\n    }\r\n    \r\n    \r\n    /**\r\n     * Modificador para que una funcion solo la pueda ejecutar el profesor.\r\n     * \r\n     *\r\n     */\r\n    modifier soloProfesor() {\r\n        \r\n        require(msg.sender == profesorP, \"Solo permitido al profesor\");\r\n        _;\r\n    }\r\n    \r\n    \r\n    /**\r\n     * Modificador para que una funcion solo la pueda ejecutar un alumno matriculado.\r\n     */\r\n    modifier soloMatriculados() {\r\n        \r\n        require(estaMatriculado(msg.sender), \"Solo permitido a alumnos matriculados\");\r\n        _;\r\n    }\r\n    \r\n    \r\n      modifier soloRegistrados() {\r\n        \r\n        require(estaRegistrado(msg.sender), \"Solo permitido a profes registrados\");\r\n        _;\r\n    }\r\n    \r\n    \r\n \r\n    /**\r\n     * Modificador para que una funcion solo la pueda ejecutar un alumno no matriculado aun.\r\n     */\r\n    modifier noMatriculados() {\r\n        \r\n        require(!estaMatriculado(msg.sender), \"Solo permitido a alumnos no matriculados\");\r\n        _;\r\n    }\r\n    \r\n    \r\n    \r\n      modifier noRegistrados() {\r\n        \r\n        require(!estaRegistrado(msg.sender), \"Solo permitido a profes no registrados\");\r\n        _;\r\n    }\r\n    \r\n        \r\n      modifier noRegistradosP() {\r\n        \r\n        require(!estaRegistradoP(msg.sender), \"Solo permitido a personas no registrados\");\r\n        _;\r\n    }\r\n    \r\n    \r\n       receive() external payable {\r\n        revert(\"No se permite la recepcion de dinero.\");\r\n    }\r\n}\r\n",
  "sourcePath": "C:\\Users\\Paula Huertas\\reslabetsit\\contracts\\ReslabEtsit.sol",
  "compiler": {
    "name": "solc",
    "version": "0.7.4+commit.3f05b770.Emscripten.clang"
  },
  "schemaVersion": "3.4.7",
  "updatedAt": "2022-06-19T16:54:11.772Z",
  "networkType": "ethereum",
  "devdoc": {
    "kind": "dev",
    "methods": {
      "automatricula(string,string)": {
        "params": {
          "_email": "El email del alumno.",
          "_nombre": "El nombre del alumno. "
        }
      },
      "laboratoriosLength()": {
        "returns": {
          "_0": "El numero de labs creadas."
        }
      },
      "matriculasLength()": {
        "returns": {
          "_0": "El numero de alumnos matriculados."
        }
      },
      "obtenerDatosPersona(address)": {
        "params": {
          "persona": "La direccion de una persona. "
        },
        "returns": {
          "_0": "los datos de una persona registrada."
        }
      },
      "puestosDelLaboratorioLength(uint256)": {
        "returns": {
          "_0": "El numero de puestos creadas."
        }
      },
      "quienSoy()": {
        "returns": {
          "_email": " El email del alumno que invoca el metodo.",
          "_nombre": "El nombre del alumno que invoca el metodo."
        }
      },
      "turnosLength()": {
        "returns": {
          "_0": "El numero de turnos creadas."
        }
      }
    },
    "version": 1
  },
  "userdoc": {
    "kind": "user",
    "methods": {
      "asignaturasRegistradasLength()": {
        "notice": "El numero de asignaturas registrados. ."
      },
      "automatricula(string,string)": {
        "notice": "Los alumnos pueden automatricularse con el metodo automatricula.  Impedir que se pueda meter un nombre vacio."
      },
      "datosAlumno(address)": {
        "notice": "Acceder a los datos de un alumno dada su direccion."
      },
      "datosProfesor(address)": {
        "notice": "Acceder a los datos de un profe dada su direccion."
      },
      "dirPersonas(string,string,uint256)": {
        "notice": "Permite obtener un address del array de personas. "
      },
      "guardarReserva(uint256,uint256,uint256)": {
        "notice": "Un alumno crea una reserva "
      },
      "laboratoriosLength()": {
        "notice": "El numero de labs  registrados"
      },
      "matriculasLength()": {
        "notice": "El numero de alumnos matriculados."
      },
      "obtenerDatosPersona(address)": {
        "notice": "Obtiene los datos de una persona registrada. "
      },
      "owner()": {
        "notice": "address del profesor que ha desplegado el contrato. El contrato lo despliega el profesor."
      },
      "personas(string,string,uint256,uint256)": {
        "notice": "Devuelve las direcciones de las personas que han asistido a algun lab en alguna de las fechas y en algun turno."
      },
      "personasLength(string,string)": {
        "notice": "Permite obtener la longitud del array de personasTotales. "
      },
      "personasTotales(string,string,uint256)": {
        "notice": "Devuelve las Direcciones de las personas que han asistido a algun lab y en alguna de las fechas."
      },
      "profesRegistradosLength()": {
        "notice": "El numero de profes registrados. ."
      },
      "puestosDelLaboratorioLength(uint256)": {
        "notice": "Te devuelve el numero de puestos registrados"
      },
      "puestosLength2(string)": {
        "notice": "Permite obtener la longitud del array de puestosTotale del lab "
      },
      "quienSoy()": {
        "notice": "Permite a un alumno obtener sus propios datos. "
      },
      "quitarReserva(uint256,uint256,uint256)": {
        "notice": "Un alumno quita su reserva - ( solo profe , owner y el propio alumnos "
      },
      "turnosLength()": {
        "notice": "Te devuelve el numero de turnos"
      },
      "turnosPorPuesto(uint256,uint256,uint256)": {
        "notice": "Dado el index de un puesto y una fecha te devuelve los turnos de un lab ."
      }
    },
    "version": 1
  }
}