{
  "contractName": "ReslabEtsit",
  "abi": [
    {
      "inputs": [],
      "stateMutability": "nonpayable",
      "type": "constructor"
    },
    {
      "inputs": [
        {
          "internalType": "uint256",
          "name": "",
          "type": "uint256"
        },
        {
          "internalType": "uint256",
          "name": "",
          "type": "uint256"
        },
        {
          "internalType": "uint256",
          "name": "",
          "type": "uint256"
        }
      ],
      "name": "arrayPuestosDelLab",
      "outputs": [
        {
          "internalType": "string",
          "name": "nombre",
          "type": "string"
        },
        {
          "internalType": "uint256",
          "name": "indexlab",
          "type": "uint256"
        }
      ],
      "stateMutability": "view",
      "type": "function",
      "constant": true
    },
    {
      "inputs": [
        {
          "internalType": "uint256",
          "name": "",
          "type": "uint256"
        }
      ],
      "name": "asignaturasRegistradas",
      "outputs": [
        {
          "internalType": "string",
          "name": "nombre",
          "type": "string"
        },
        {
          "internalType": "uint256",
          "name": "indexLab",
          "type": "uint256"
        },
        {
          "internalType": "string",
          "name": "info",
          "type": "string"
        }
      ],
      "stateMutability": "view",
      "type": "function",
      "constant": true
    },
    {
      "inputs": [
        {
          "internalType": "uint256",
          "name": "",
          "type": "uint256"
        }
      ],
      "name": "asignaturasRegistradasdir",
      "outputs": [
        {
          "internalType": "address",
          "name": "",
          "type": "address"
        }
      ],
      "stateMutability": "view",
      "type": "function",
      "constant": true
    },
    {
      "inputs": [
        {
          "internalType": "uint256",
          "name": "",
          "type": "uint256"
        }
      ],
      "name": "creditosemanal",
      "outputs": [
        {
          "internalType": "address",
          "name": "",
          "type": "address"
        }
      ],
      "stateMutability": "view",
      "type": "function",
      "constant": true
    },
    {
      "inputs": [
        {
          "internalType": "address",
          "name": "",
          "type": "address"
        }
      ],
      "name": "datosAlumno",
      "outputs": [
        {
          "internalType": "string",
          "name": "nombre",
          "type": "string"
        },
        {
          "internalType": "string",
          "name": "email",
          "type": "string"
        }
      ],
      "stateMutability": "view",
      "type": "function",
      "constant": true
    },
    {
      "inputs": [
        {
          "internalType": "address",
          "name": "",
          "type": "address"
        }
      ],
      "name": "datosPersona",
      "outputs": [
        {
          "internalType": "address",
          "name": "dir",
          "type": "address"
        }
      ],
      "stateMutability": "view",
      "type": "function",
      "constant": true
    },
    {
      "inputs": [
        {
          "internalType": "address",
          "name": "",
          "type": "address"
        }
      ],
      "name": "datosProfesor",
      "outputs": [
        {
          "internalType": "string",
          "name": "nombreP",
          "type": "string"
        },
        {
          "internalType": "string",
          "name": "emailP",
          "type": "string"
        },
        {
          "internalType": "string",
          "name": "asignaturaP",
          "type": "string"
        },
        {
          "internalType": "string",
          "name": "departamentoP",
          "type": "string"
        }
      ],
      "stateMutability": "view",
      "type": "function",
      "constant": true
    },
    {
      "inputs": [
        {
          "internalType": "uint256",
          "name": "",
          "type": "uint256"
        },
        {
          "internalType": "uint256",
          "name": "",
          "type": "uint256"
        }
      ],
      "name": "datosReserva",
      "outputs": [
        {
          "internalType": "address",
          "name": "dirAlumno",
          "type": "address"
        }
      ],
      "stateMutability": "view",
      "type": "function",
      "constant": true
    },
    {
      "inputs": [
        {
          "internalType": "uint256",
          "name": "",
          "type": "uint256"
        },
        {
          "internalType": "uint256",
          "name": "",
          "type": "uint256"
        },
        {
          "internalType": "uint256",
          "name": "",
          "type": "uint256"
        },
        {
          "internalType": "uint256",
          "name": "",
          "type": "uint256"
        }
      ],
      "name": "datosReservaPorLabPuestoFechaTurno",
      "outputs": [
        {
          "internalType": "address",
          "name": "dirAlumno",
          "type": "address"
        }
      ],
      "stateMutability": "view",
      "type": "function",
      "constant": true
    },
    {
      "inputs": [
        {
          "internalType": "uint256",
          "name": "",
          "type": "uint256"
        },
        {
          "internalType": "uint256",
          "name": "",
          "type": "uint256"
        },
        {
          "internalType": "uint256",
          "name": "",
          "type": "uint256"
        }
      ],
      "name": "datosReservaPorLabPuestoTurno",
      "outputs": [
        {
          "internalType": "address",
          "name": "dirAlumno",
          "type": "address"
        }
      ],
      "stateMutability": "view",
      "type": "function",
      "constant": true
    },
    {
      "inputs": [
        {
          "internalType": "uint256",
          "name": "",
          "type": "uint256"
        }
      ],
      "name": "indiceLabPorAsignatura",
      "outputs": [
        {
          "internalType": "uint256",
          "name": "",
          "type": "uint256"
        }
      ],
      "stateMutability": "view",
      "type": "function",
      "constant": true
    },
    {
      "inputs": [
        {
          "internalType": "uint256",
          "name": "",
          "type": "uint256"
        }
      ],
      "name": "laboratoriosRegistrados",
      "outputs": [
        {
          "internalType": "uint256",
          "name": "laboratorioindex",
          "type": "uint256"
        },
        {
          "internalType": "string",
          "name": "nombreL",
          "type": "string"
        },
        {
          "internalType": "string",
          "name": "asignaura",
          "type": "string"
        },
        {
          "internalType": "string",
          "name": "info",
          "type": "string"
        }
      ],
      "stateMutability": "view",
      "type": "function",
      "constant": true
    },
    {
      "inputs": [
        {
          "internalType": "uint256",
          "name": "",
          "type": "uint256"
        }
      ],
      "name": "matriculas",
      "outputs": [
        {
          "internalType": "address",
          "name": "",
          "type": "address"
        }
      ],
      "stateMutability": "view",
      "type": "function",
      "constant": true
    },
    {
      "inputs": [],
      "name": "owner",
      "outputs": [
        {
          "internalType": "address",
          "name": "",
          "type": "address"
        }
      ],
      "stateMutability": "view",
      "type": "function",
      "constant": true
    },
    {
      "inputs": [
        {
          "internalType": "string",
          "name": "",
          "type": "string"
        },
        {
          "internalType": "string",
          "name": "",
          "type": "string"
        },
        {
          "internalType": "uint256",
          "name": "",
          "type": "uint256"
        },
        {
          "internalType": "uint256",
          "name": "",
          "type": "uint256"
        }
      ],
      "name": "personas",
      "outputs": [
        {
          "internalType": "address",
          "name": "",
          "type": "address"
        }
      ],
      "stateMutability": "view",
      "type": "function",
      "constant": true
    },
    {
      "inputs": [
        {
          "internalType": "string",
          "name": "",
          "type": "string"
        },
        {
          "internalType": "string",
          "name": "",
          "type": "string"
        },
        {
          "internalType": "uint256",
          "name": "",
          "type": "uint256"
        }
      ],
      "name": "personasTotales",
      "outputs": [
        {
          "internalType": "address",
          "name": "",
          "type": "address"
        }
      ],
      "stateMutability": "view",
      "type": "function",
      "constant": true
    },
    {
      "inputs": [
        {
          "internalType": "uint256",
          "name": "",
          "type": "uint256"
        }
      ],
      "name": "profesRegistrados",
      "outputs": [
        {
          "internalType": "address",
          "name": "",
          "type": "address"
        }
      ],
      "stateMutability": "view",
      "type": "function",
      "constant": true
    },
    {
      "inputs": [],
      "name": "profesorP",
      "outputs": [
        {
          "internalType": "address",
          "name": "",
          "type": "address"
        }
      ],
      "stateMutability": "view",
      "type": "function",
      "constant": true
    },
    {
      "inputs": [
        {
          "internalType": "uint256",
          "name": "",
          "type": "uint256"
        },
        {
          "internalType": "uint256",
          "name": "",
          "type": "uint256"
        }
      ],
      "name": "puestos",
      "outputs": [
        {
          "internalType": "uint256",
          "name": "",
          "type": "uint256"
        }
      ],
      "stateMutability": "view",
      "type": "function",
      "constant": true
    },
    {
      "inputs": [
        {
          "internalType": "string",
          "name": "",
          "type": "string"
        },
        {
          "internalType": "uint256",
          "name": "",
          "type": "uint256"
        },
        {
          "internalType": "uint256",
          "name": "",
          "type": "uint256"
        },
        {
          "internalType": "uint256",
          "name": "",
          "type": "uint256"
        }
      ],
      "name": "puestosBuscados",
      "outputs": [
        {
          "internalType": "uint256",
          "name": "",
          "type": "uint256"
        }
      ],
      "stateMutability": "view",
      "type": "function",
      "constant": true
    },
    {
      "inputs": [
        {
          "internalType": "uint256",
          "name": "",
          "type": "uint256"
        },
        {
          "internalType": "uint256",
          "name": "",
          "type": "uint256"
        }
      ],
      "name": "puestosDelLaboratorio",
      "outputs": [
        {
          "internalType": "uint256",
          "name": "",
          "type": "uint256"
        }
      ],
      "stateMutability": "view",
      "type": "function",
      "constant": true
    },
    {
      "inputs": [
        {
          "internalType": "uint256",
          "name": "",
          "type": "uint256"
        },
        {
          "internalType": "uint256",
          "name": "",
          "type": "uint256"
        },
        {
          "internalType": "uint256",
          "name": "",
          "type": "uint256"
        }
      ],
      "name": "puestosDelLaboratorioFecha",
      "outputs": [
        {
          "internalType": "uint256",
          "name": "",
          "type": "uint256"
        }
      ],
      "stateMutability": "view",
      "type": "function",
      "constant": true
    },
    {
      "inputs": [
        {
          "internalType": "uint256",
          "name": "",
          "type": "uint256"
        }
      ],
      "name": "puestosRegistrados",
      "outputs": [
        {
          "internalType": "string",
          "name": "nombre",
          "type": "string"
        },
        {
          "internalType": "uint256",
          "name": "indexlab",
          "type": "uint256"
        }
      ],
      "stateMutability": "view",
      "type": "function",
      "constant": true
    },
    {
      "inputs": [
        {
          "internalType": "string",
          "name": "",
          "type": "string"
        },
        {
          "internalType": "uint256",
          "name": "",
          "type": "uint256"
        }
      ],
      "name": "puestosTotales",
      "outputs": [
        {
          "internalType": "string",
          "name": "",
          "type": "string"
        }
      ],
      "stateMutability": "view",
      "type": "function",
      "constant": true
    },
    {
      "inputs": [
        {
          "internalType": "uint256",
          "name": "",
          "type": "uint256"
        }
      ],
      "name": "registradosP",
      "outputs": [
        {
          "internalType": "address",
          "name": "",
          "type": "address"
        }
      ],
      "stateMutability": "view",
      "type": "function",
      "constant": true
    },
    {
      "inputs": [
        {
          "internalType": "address",
          "name": "",
          "type": "address"
        }
      ],
      "name": "reservasAlumno",
      "outputs": [
        {
          "internalType": "string",
          "name": "lab",
          "type": "string"
        },
        {
          "internalType": "uint256",
          "name": "fecha",
          "type": "uint256"
        },
        {
          "internalType": "uint256",
          "name": "estado",
          "type": "uint256"
        }
      ],
      "stateMutability": "view",
      "type": "function",
      "constant": true
    },
    {
      "inputs": [
        {
          "internalType": "uint256",
          "name": "",
          "type": "uint256"
        },
        {
          "internalType": "uint256",
          "name": "",
          "type": "uint256"
        },
        {
          "internalType": "uint256",
          "name": "",
          "type": "uint256"
        }
      ],
      "name": "turnosPorPuesto",
      "outputs": [
        {
          "internalType": "uint256",
          "name": "",
          "type": "uint256"
        }
      ],
      "stateMutability": "view",
      "type": "function",
      "constant": true
    },
    {
      "inputs": [
        {
          "internalType": "uint256",
          "name": "",
          "type": "uint256"
        }
      ],
      "name": "turnosRegistrados",
      "outputs": [
        {
          "internalType": "string",
          "name": "nombre",
          "type": "string"
        },
        {
          "internalType": "uint256",
          "name": "fecha",
          "type": "uint256"
        }
      ],
      "stateMutability": "view",
      "type": "function",
      "constant": true
    },
    {
      "stateMutability": "payable",
      "type": "receive",
      "payable": true
    },
    {
      "inputs": [
        {
          "internalType": "uint256",
          "name": "_indexlab",
          "type": "uint256"
        }
      ],
      "name": "puestosDelLaboratorioLength",
      "outputs": [
        {
          "internalType": "uint256",
          "name": "",
          "type": "uint256"
        }
      ],
      "stateMutability": "view",
      "type": "function",
      "constant": true
    },
    {
      "inputs": [],
      "name": "turnosLength",
      "outputs": [
        {
          "internalType": "uint256",
          "name": "",
          "type": "uint256"
        }
      ],
      "stateMutability": "view",
      "type": "function",
      "constant": true
    },
    {
      "inputs": [
        {
          "internalType": "uint256",
          "name": "_laboratorioindex",
          "type": "uint256"
        }
      ],
      "name": "puestosLaboratorioLength",
      "outputs": [
        {
          "internalType": "uint256",
          "name": "",
          "type": "uint256"
        }
      ],
      "stateMutability": "view",
      "type": "function",
      "constant": true
    },
    {
      "inputs": [],
      "name": "laboratoriosLength",
      "outputs": [
        {
          "internalType": "uint256",
          "name": "",
          "type": "uint256"
        }
      ],
      "stateMutability": "view",
      "type": "function",
      "constant": true
    },
    {
      "inputs": [
        {
          "internalType": "string",
          "name": "_nombre",
          "type": "string"
        },
        {
          "internalType": "string",
          "name": "_fecha",
          "type": "string"
        }
      ],
      "name": "personasLength",
      "outputs": [
        {
          "internalType": "uint256",
          "name": "",
          "type": "uint256"
        }
      ],
      "stateMutability": "view",
      "type": "function",
      "constant": true
    },
    {
      "inputs": [
        {
          "internalType": "string",
          "name": "_nombre",
          "type": "string"
        }
      ],
      "name": "puestosLength2",
      "outputs": [
        {
          "internalType": "uint256",
          "name": "",
          "type": "uint256"
        }
      ],
      "stateMutability": "view",
      "type": "function",
      "constant": true
    },
    {
      "inputs": [
        {
          "internalType": "string",
          "name": "_nombre",
          "type": "string"
        },
        {
          "internalType": "string",
          "name": "_fecha",
          "type": "string"
        },
        {
          "internalType": "uint256",
          "name": "_indice",
          "type": "uint256"
        }
      ],
      "name": "dirPersonas",
      "outputs": [
        {
          "internalType": "address",
          "name": "",
          "type": "address"
        }
      ],
      "stateMutability": "view",
      "type": "function",
      "constant": true
    },
    {
      "inputs": [
        {
          "internalType": "address",
          "name": "persona",
          "type": "address"
        }
      ],
      "name": "obtenerDatosPersona",
      "outputs": [
        {
          "internalType": "address",
          "name": "",
          "type": "address"
        }
      ],
      "stateMutability": "view",
      "type": "function",
      "constant": true
    },
    {
      "inputs": [
        {
          "internalType": "uint256",
          "name": "_laboratorioindex",
          "type": "uint256"
        }
      ],
      "name": "puestosdeLaboratorio",
      "outputs": [
        {
          "internalType": "uint256",
          "name": "",
          "type": "uint256"
        }
      ],
      "stateMutability": "view",
      "type": "function",
      "constant": true
    },
    {
      "inputs": [
        {
          "internalType": "string",
          "name": "_fecha",
          "type": "string"
        },
        {
          "internalType": "uint256",
          "name": "_entradaTurno",
          "type": "uint256"
        },
        {
          "internalType": "uint256",
          "name": "_laboratorioindex",
          "type": "uint256"
        }
      ],
      "name": "BuscaPuestoLab",
      "outputs": [
        {
          "internalType": "uint256",
          "name": "",
          "type": "uint256"
        }
      ],
      "stateMutability": "view",
      "type": "function",
      "constant": true
    },
    {
      "inputs": [
        {
          "internalType": "uint256",
          "name": "_puestoId",
          "type": "uint256"
        },
        {
          "internalType": "uint256",
          "name": "_fecha",
          "type": "uint256"
        },
        {
          "internalType": "uint256",
          "name": "_turno",
          "type": "uint256"
        }
      ],
      "name": "guardarReserva",
      "outputs": [],
      "stateMutability": "nonpayable",
      "type": "function"
    },
    {
      "inputs": [
        {
          "internalType": "uint256",
          "name": "_puestoId",
          "type": "uint256"
        },
        {
          "internalType": "uint256",
          "name": "_fecha",
          "type": "uint256"
        },
        {
          "internalType": "uint256",
          "name": "_turno",
          "type": "uint256"
        }
      ],
      "name": "quitarReserva",
      "outputs": [],
      "stateMutability": "nonpayable",
      "type": "function"
    },
    {
      "inputs": [
        {
          "internalType": "uint256",
          "name": "_laboratorioindex",
          "type": "uint256"
        },
        {
          "internalType": "string",
          "name": "_nombreL",
          "type": "string"
        },
        {
          "internalType": "string",
          "name": "_asignaura",
          "type": "string"
        },
        {
          "internalType": "string",
          "name": "_Info",
          "type": "string"
        }
      ],
      "name": "creaLaboratorio",
      "outputs": [
        {
          "internalType": "uint256",
          "name": "",
          "type": "uint256"
        }
      ],
      "stateMutability": "nonpayable",
      "type": "function"
    },
    {
      "inputs": [
        {
          "internalType": "string",
          "name": "_nombreAsig",
          "type": "string"
        },
        {
          "internalType": "uint256",
          "name": "_indexLab",
          "type": "uint256"
        },
        {
          "internalType": "string",
          "name": "_Info",
          "type": "string"
        }
      ],
      "name": "creaAsignatura",
      "outputs": [
        {
          "internalType": "uint256",
          "name": "",
          "type": "uint256"
        }
      ],
      "stateMutability": "nonpayable",
      "type": "function"
    },
    {
      "inputs": [
        {
          "internalType": "string",
          "name": "_NombreP",
          "type": "string"
        },
        {
          "internalType": "uint256",
          "name": "_indexlab",
          "type": "uint256"
        }
      ],
      "name": "creaPuesto",
      "outputs": [
        {
          "internalType": "uint256",
          "name": "",
          "type": "uint256"
        }
      ],
      "stateMutability": "nonpayable",
      "type": "function"
    },
    {
      "inputs": [
        {
          "internalType": "string",
          "name": "_nombre",
          "type": "string"
        },
        {
          "internalType": "uint256",
          "name": "_fecha",
          "type": "uint256"
        }
      ],
      "name": "creaTurno",
      "outputs": [
        {
          "internalType": "uint256",
          "name": "",
          "type": "uint256"
        }
      ],
      "stateMutability": "nonpayable",
      "type": "function"
    },
    {
      "inputs": [],
      "name": "matriculasLength",
      "outputs": [
        {
          "internalType": "uint256",
          "name": "",
          "type": "uint256"
        }
      ],
      "stateMutability": "view",
      "type": "function",
      "constant": true
    },
    {
      "inputs": [],
      "name": "profesRegistradosLength",
      "outputs": [
        {
          "internalType": "uint256",
          "name": "",
          "type": "uint256"
        }
      ],
      "stateMutability": "view",
      "type": "function",
      "constant": true
    },
    {
      "inputs": [],
      "name": "asignaturasRegistradasLength",
      "outputs": [
        {
          "internalType": "uint256",
          "name": "",
          "type": "uint256"
        }
      ],
      "stateMutability": "view",
      "type": "function",
      "constant": true
    },
    {
      "inputs": [
        {
          "internalType": "string",
          "name": "_nombre",
          "type": "string"
        },
        {
          "internalType": "string",
          "name": "_email",
          "type": "string"
        }
      ],
      "name": "automatricula",
      "outputs": [],
      "stateMutability": "nonpayable",
      "type": "function"
    },
    {
      "inputs": [],
      "name": "autoregistroP",
      "outputs": [],
      "stateMutability": "nonpayable",
      "type": "function"
    },
    {
      "inputs": [
        {
          "internalType": "string",
          "name": "_nombreP",
          "type": "string"
        },
        {
          "internalType": "string",
          "name": "_emailP",
          "type": "string"
        },
        {
          "internalType": "string",
          "name": "_asignaturaP",
          "type": "string"
        },
        {
          "internalType": "string",
          "name": "_departamentoP",
          "type": "string"
        }
      ],
      "name": "autoRegistro",
      "outputs": [],
      "stateMutability": "nonpayable",
      "type": "function"
    },
    {
      "inputs": [],
      "name": "quienSoy",
      "outputs": [
        {
          "internalType": "string",
          "name": "_nombre",
          "type": "string"
        },
        {
          "internalType": "string",
          "name": "_email",
          "type": "string"
        }
      ],
      "stateMutability": "view",
      "type": "function",
      "constant": true
    },
    {
      "inputs": [
        {
          "internalType": "address",
          "name": "persona",
          "type": "address"
        }
      ],
      "name": "estaRegistradoP",
      "outputs": [
        {
          "internalType": "bool",
          "name": "",
          "type": "bool"
        }
      ],
      "stateMutability": "view",
      "type": "function",
      "constant": true
    }
  ],
  "bytecode": "0x608060405234801561001057600080fd5b50336000806101000a81548173ffffffffffffffffffffffffffffffffffffffff021916908373ffffffffffffffffffffffffffffffffffffffff160217905550614881806100606000396000f3fe6080604052600436106103035760003560e01c8063810e8c8011610190578063bcfe45d3116100dc578063cdea020911610095578063ede343cf1161006f578063ede343cf14610dd5578063ee0e7c4f14610dfe578063f0f066ef14610e3b578063f874785914610e7857610343565b8063cdea020914610d1e578063d2a2f7de14610d5b578063d5a3e75a14610d9857610343565b8063bcfe45d314610bbf578063be4a935b14610bfc578063c2c639b614610c27578063c791813914610c64578063c88da89e14610ca1578063cbf2328814610ce057610343565b80639e1d8f4b11610149578063b013bd2411610123578063b013bd2414610ad8578063b0b1273114610b15578063b4b4a51f14610b54578063b5daf62c14610b7f57610343565b80639e1d8f4b14610a47578063a9b2aeac14610a72578063aaadcd1f14610aaf57610343565b8063810e8c80146108eb57806387972906146109285780638b69735b146109655780638da5cb5b146109a25780638ee4003b146109cd5780638fa425e714610a0a57610343565b8063537668831161024f5780636ad8a0fb1161020857806370d714f2116101e257806370d714f21461081b57806379b51b6a146108465780637e09be7a146108715780637fa4574d146108ae57610343565b80636ad8a0fb146107765780636bf8aad6146107b45780636d9af3d1146107f257610343565b8063537668831461063c5780635fdf483f1461066857806361d4c6ad146106a5578063641945bf146106ce57806366668f3c1461070e5780636916662b1461074b57610343565b80632535f784116102bc578063320d077311610296578063320d07731461056e578063365d92e2146105855780633bd20561146105c257806344141cb9146105ff57610343565b80632535f784146104b6578063296d91db146104f3578063317dc2861461053057610343565b806307025942146103485780630c06bc02146103855780630c312661146103c257806312f89eac146103ff578063151b3f521461043c578063223ca7a21461047957610343565b36610343576040517f08c379a000000000000000000000000000000000000000000000000000000000815260040161033a90614583565b60405180910390fd5b600080fd5b34801561035457600080fd5b5061036f600480360381019061036a9190613754565b610eb5565b60405161037c9190614320565b60405180910390f35b34801561039157600080fd5b506103ac60048036038101906103a79190613b39565b610ef3565b6040516103b99190614683565b60405180910390f35b3480156103ce57600080fd5b506103e960048036038101906103e49190613754565b610f54565b6040516103f69190614320565b60405180910390f35b34801561040b57600080fd5b50610426600480360381019061042191906139ff565b610fd7565b6040516104339190614356565b60405180910390f35b34801561044857600080fd5b50610463600480360381019061045e9190613c88565b6110b6565b6040516104709190614320565b60405180910390f35b34801561048557600080fd5b506104a0600480360381019061049b9190613bb4565b611101565b6040516104ad9190614320565b60405180910390f35b3480156104c257600080fd5b506104dd60048036038101906104d89190613cc4565b611140565b6040516104ea9190614683565b60405180910390f35b3480156104ff57600080fd5b5061051a60048036038101906105159190613bdd565b61117e565b6040516105279190614683565b60405180910390f35b34801561053c57600080fd5b5061055760048036038101906105529190613cc4565b61131c565b604051610565929190614410565b60405180910390f35b34801561057a57600080fd5b50610583611402565b005b34801561059157600080fd5b506105ac60048036038101906105a79190613bb4565b6115ce565b6040516105b99190614320565b60405180910390f35b3480156105ce57600080fd5b506105e960048036038101906105e49190613bb4565b61160d565b6040516105f69190614683565b60405180910390f35b34801561060b57600080fd5b5061062660048036038101906106219190613bb4565b61162d565b6040516106339190614683565b60405180910390f35b34801561064857600080fd5b50610651611645565b60405161065f929190614378565b60405180910390f35b34801561067457600080fd5b5061068f600480360381019061068a91906138ed565b61183b565b60405161069c9190614320565b60405180910390f35b3480156106b157600080fd5b506106cc60048036038101906106c791906137be565b6118c2565b005b3480156106da57600080fd5b506106f560048036038101906106f09190613754565b611a5a565b60405161070594939291906143af565b60405180910390f35b34801561071a57600080fd5b50610735600480360381019061073091906137be565b611cea565b6040516107429190614683565b60405180910390f35b34801561075757600080fd5b50610760611d45565b60405161076d9190614683565b60405180910390f35b34801561078257600080fd5b5061079d60048036038101906107989190613bb4565b611d52565b6040516107ab929190614410565b60405180910390f35b3480156107c057600080fd5b506107db60048036038101906107d69190613754565b611e1e565b6040516107e9929190614378565b60405180910390f35b3480156107fe57600080fd5b5061081960048036038101906108149190613cc4565b611f72565b005b34801561082757600080fd5b506108306120fb565b60405161083d9190614683565b60405180910390f35b34801561085257600080fd5b5061085b612108565b6040516108689190614683565b60405180910390f35b34801561087d57600080fd5b5061089860048036038101906108939190613754565b612115565b6040516108a5919061433b565b60405180910390f35b3480156108ba57600080fd5b506108d560048036038101906108d091906139ff565b6121b6565b6040516108e29190614683565b60405180910390f35b3480156108f757600080fd5b50610912600480360381019061090d9190613a53565b61230c565b60405161091f9190614683565b60405180910390f35b34801561093457600080fd5b5061094f600480360381019061094a9190613cc4565b612486565b60405161095c9190614320565b60405180910390f35b34801561097157600080fd5b5061098c60048036038101906109879190613bb4565b6124de565b6040516109999190614683565b60405180910390f35b3480156109ae57600080fd5b506109b76124fe565b6040516109c49190614320565b60405180910390f35b3480156109d957600080fd5b506109f460048036038101906109ef919061377d565b612522565b604051610a019190614683565b60405180910390f35b348015610a1657600080fd5b50610a316004803603810190610a2c9190613cc4565b612560565b604051610a3e9190614683565b60405180910390f35b348015610a5357600080fd5b50610a5c61259d565b604051610a699190614683565b60405180910390f35b348015610a7e57600080fd5b50610a996004803603810190610a949190613ad2565b6125aa565b604051610aa69190614683565b60405180910390f35b348015610abb57600080fd5b50610ad66004803603810190610ad19190613cc4565b6125f9565b005b348015610ae457600080fd5b50610aff6004803603810190610afa9190613c88565b612731565b604051610b0c9190614683565b60405180910390f35b348015610b2157600080fd5b50610b3c6004803603810190610b379190613754565b612762565b604051610b4b93929190614485565b60405180910390f35b348015610b6057600080fd5b50610b69612824565b604051610b769190614683565b60405180910390f35b348015610b8b57600080fd5b50610ba66004803603810190610ba19190613bb4565b612831565b604051610bb6949392919061469e565b60405180910390f35b348015610bcb57600080fd5b50610be66004803603810190610be191906139ff565b612a39565b604051610bf39190614683565b60405180910390f35b348015610c0857600080fd5b50610c11612bcf565b604051610c1e9190614320565b60405180910390f35b348015610c3357600080fd5b50610c4e6004803603810190610c499190613d13565b612bf5565b604051610c5b9190614320565b60405180910390f35b348015610c7057600080fd5b50610c8b6004803603810190610c869190613bb4565b612c5a565b604051610c989190614320565b60405180910390f35b348015610cad57600080fd5b50610cc86004803603810190610cc39190613bb4565b612c99565b604051610cd793929190614440565b60405180910390f35b348015610cec57600080fd5b50610d076004803603810190610d029190613bb4565b612e03565b604051610d15929190614410565b60405180910390f35b348015610d2a57600080fd5b50610d456004803603810190610d409190613c88565b612ecf565b604051610d529190614683565b60405180910390f35b348015610d6757600080fd5b50610d826004803603810190610d7d9190613bb4565b612f00565b604051610d8f9190614320565b60405180910390f35b348015610da457600080fd5b50610dbf6004803603810190610dba919061396c565b612f3f565b604051610dcc9190614320565b60405180910390f35b348015610de157600080fd5b50610dfc6004803603810190610df7919061382a565b612fd3565b005b348015610e0a57600080fd5b50610e256004803603810190610e209190613bb4565b6131b3565b604051610e329190614320565b60405180910390f35b348015610e4757600080fd5b50610e626004803603810190610e5d9190613bb4565b6131f2565b604051610e6f9190614683565b60405180910390f35b348015610e8457600080fd5b50610e9f6004803603810190610e9a91906138ed565b613212565b604051610eac9190614320565b60405180910390f35b60026020528060005260406000206000915090508060000160009054906101000a900473ffffffffffffffffffffffffffffffffffffffff16905081565b6017848051602081018201805184825260208301602085012081835280955050505050506020528260005260406000206020528160005260406000208181548110610f3d57600080fd5b906000526020600020016000935093505050505481565b6000610f5f826132e1565b610f6c5760009050610fd2565b600260008373ffffffffffffffffffffffffffffffffffffffff1673ffffffffffffffffffffffffffffffffffffffff16815260200190815260200160002060000160009054906101000a900473ffffffffffffffffffffffffffffffffffffffff1690505b919050565b601582805160208101820180518482526020830160208501208183528095505050505050818154811061100957600080fd5b90600052602060002001600091509150508054600181600116156101000203166002900480601f0160208091040260200160405190810160405280929190818152602001828054600181600116156101000203166002900480156110ae5780601f10611083576101008083540402835291602001916110ae565b820191906000526020600020905b81548152906001019060200180831161109157829003601f168201915b505050505081565b6018602052816000526040600020602052806000526040600020600091509150508060000160009054906101000a900473ffffffffffffffffffffffffffffffffffffffff16905081565b600a818154811061111157600080fd5b906000526020600020016000915054906101000a900473ffffffffffffffffffffffffffffffffffffffff1681565b601c602052826000526040600020602052816000526040600020818154811061116857600080fd5b9060005260206000200160009250925050505481565b60008060009054906101000a900473ffffffffffffffffffffffffffffffffffffffff1673ffffffffffffffffffffffffffffffffffffffff163373ffffffffffffffffffffffffffffffffffffffff161461120f576040517f08c379a000000000000000000000000000000000000000000000000000000000815260040161120690614663565b60405180910390fd5b6060849050600081511415611259576040517f08c379a0000000000000000000000000000000000000000000000000000000008152600401611250906145c3565b60405180910390fd5b600e60405180608001604052808881526020018781526020018681526020018581525090806001815401808255809150506001900390600052602060002090600402016000909190919091506000820151816000015560208201518160010190805190602001906112cb9291906135c0565b5060408201518160020190805190602001906112e89291906135c0565b5060608201518160030190805190602001906113059291906135c0565b5050506001600e8054905003915050949350505050565b601e602052826000526040600020602052816000526040600020818154811061134457600080fd5b90600052602060002090600202016000925092505050806000018054600181600116156101000203166002900480601f0160208091040260200160405190810160405280929190818152602001828054600181600116156101000203166002900480156113f25780601f106113c7576101008083540402835291602001916113f2565b820191906000526020600020905b8154815290600101906020018083116113d557829003601f168201915b5050505050908060010154905082565b61140b33612115565b1561144b576040517f08c379a000000000000000000000000000000000000000000000000000000000815260040161144290614603565b60405180910390fd5b600073ffffffffffffffffffffffffffffffffffffffff163373ffffffffffffffffffffffffffffffffffffffff1614156114bb576040517f08c379a00000000000000000000000000000000000000000000000000000000081526004016114b2906144c3565b60405180910390fd5b60405180602001604052803373ffffffffffffffffffffffffffffffffffffffff16815250600260003373ffffffffffffffffffffffffffffffffffffffff1673ffffffffffffffffffffffffffffffffffffffff16815260200190815260200160002060008201518160000160006101000a81548173ffffffffffffffffffffffffffffffffffffffff021916908373ffffffffffffffffffffffffffffffffffffffff160217905550905050600a339080600181540180825580915050600190039060005260206000200160009091909190916101000a81548173ffffffffffffffffffffffffffffffffffffffff021916908373ffffffffffffffffffffffffffffffffffffffff160217905550565b600b81815481106115de57600080fd5b906000526020600020016000915054906101000a900473ffffffffffffffffffffffffffffffffffffffff1681565b600060166000838152602001908152602001600020805490509050919050565b601d6020528060005260406000206000915090505481565b606080611651336133d6565b611690576040517f08c379a000000000000000000000000000000000000000000000000000000000815260040161168790614523565b60405180910390fd5b61169861364e565b600360003373ffffffffffffffffffffffffffffffffffffffff1673ffffffffffffffffffffffffffffffffffffffff168152602001908152602001600020604051806040016040529081600082018054600181600116156101000203166002900480601f01602080910402602001604051908101604052809291908181526020018280546001816001161561010002031660029004801561177b5780601f106117505761010080835404028352916020019161177b565b820191906000526020600020905b81548152906001019060200180831161175e57829003601f168201915b50505050508152602001600182018054600181600116156101000203166002900480601f01602080910402602001604051908101604052809291908181526020018280546001816001161561010002031660029004801561181d5780601f106117f25761010080835404028352916020019161181d565b820191906000526020600020905b81548152906001019060200180831161180057829003601f168201915b50505050508152505090508060000151925080602001519150509091565b60148380516020810182018051848252602083016020850120818352809550505050505082805160208101820180518482526020830160208501208183528095505050505050818154811061188f57600080fd5b90600052602060002001600092509250509054906101000a900473ffffffffffffffffffffffffffffffffffffffff1681565b6118cb336133d6565b1561190b576040517f08c379a0000000000000000000000000000000000000000000000000000000008152600401611902906144e3565b60405180910390fd5b6060829050600081511415611955576040517f08c379a000000000000000000000000000000000000000000000000000000000815260040161194c90614503565b60405180910390fd5b61195d61364e565b604051806040016040528085815260200184815250905080600360003373ffffffffffffffffffffffffffffffffffffffff1673ffffffffffffffffffffffffffffffffffffffff16815260200190815260200160002060008201518160000190805190602001906119d09291906135c0565b5060208201518160010190805190602001906119ed9291906135c0565b509050506008339080600181540180825580915050600190039060005260206000200160009091909190916101000a81548173ffffffffffffffffffffffffffffffffffffffff021916908373ffffffffffffffffffffffffffffffffffffffff16021790555050505050565b6004602052806000526040600020600091509050806000018054600181600116156101000203166002900480601f016020809104026020016040519081016040528092919081815260200182805460018160011615610100020316600290048015611b065780601f10611adb57610100808354040283529160200191611b06565b820191906000526020600020905b815481529060010190602001808311611ae957829003601f168201915b505050505090806001018054600181600116156101000203166002900480601f016020809104026020016040519081016040528092919081815260200182805460018160011615610100020316600290048015611ba45780601f10611b7957610100808354040283529160200191611ba4565b820191906000526020600020905b815481529060010190602001808311611b8757829003601f168201915b505050505090806002018054600181600116156101000203166002900480601f016020809104026020016040519081016040528092919081815260200182805460018160011615610100020316600290048015611c425780601f10611c1757610100808354040283529160200191611c42565b820191906000526020600020905b815481529060010190602001808311611c2557829003601f168201915b505050505090806003018054600181600116156101000203166002900480601f016020809104026020016040519081016040528092919081815260200182805460018160011615610100020316600290048015611ce05780601f10611cb557610100808354040283529160200191611ce0565b820191906000526020600020905b815481529060010190602001808311611cc357829003601f168201915b5050505050905084565b600080601483604051611cfd9190614309565b908152602001604051809103902084604051611d199190614309565b90815260200160405180910390208054905090506000811415611d3b57600190505b8091505092915050565b6000601080549050905090565b60108181548110611d6257600080fd5b9060005260206000209060020201600091509050806000018054600181600116156101000203166002900480601f016020809104026020016040519081016040528092919081815260200182805460018160011615610100020316600290048015611e0e5780601f10611de357610100808354040283529160200191611e0e565b820191906000526020600020905b815481529060010190602001808311611df157829003601f168201915b5050505050908060010154905082565b6003602052806000526040600020600091509050806000018054600181600116156101000203166002900480601f016020809104026020016040519081016040528092919081815260200182805460018160011615610100020316600290048015611eca5780601f10611e9f57610100808354040283529160200191611eca565b820191906000526020600020905b815481529060010190602001808311611ead57829003601f168201915b505050505090806001018054600181600116156101000203166002900480601f016020809104026020016040519081016040528092919081815260200182805460018160011615610100020316600290048015611f685780601f10611f3d57610100808354040283529160200191611f68565b820191906000526020600020905b815481529060010190602001808311611f4b57829003601f168201915b5050505050905082565b611f7b336133d6565b611fba576040517f08c379a0000000000000000000000000000000000000000000000000000000008152600401611fb1906144e3565b60405180910390fd5b60188110611ffd576040517f08c379a0000000000000000000000000000000000000000000000000000000008152600401611ff490614623565b60405180910390fd5b612006336134cb565b15612046576040517f08c379a000000000000000000000000000000000000000000000000000000000815260040161203d906145e3565b60405180910390fd5b61204e613668565b60405180602001604052803373ffffffffffffffffffffffffffffffffffffffff16815250905080601a60008681526020019081526020016000206000858152602001908152602001600020600084815260200190815260200160002060008201518160000160006101000a81548173ffffffffffffffffffffffffffffffffffffffff021916908373ffffffffffffffffffffffffffffffffffffffff16021790555090505050505050565b6000600d80549050905090565b6000600980549050905090565b600080600260008473ffffffffffffffffffffffffffffffffffffffff1673ffffffffffffffffffffffffffffffffffffffff16815260200190815260200160002060000160009054906101000a900473ffffffffffffffffffffffffffffffffffffffff169050600073ffffffffffffffffffffffffffffffffffffffff168173ffffffffffffffffffffffffffffffffffffffff161415915050919050565b60008060009054906101000a900473ffffffffffffffffffffffffffffffffffffffff1673ffffffffffffffffffffffffffffffffffffffff163373ffffffffffffffffffffffffffffffffffffffff1614612247576040517f08c379a000000000000000000000000000000000000000000000000000000000815260040161223e90614663565b60405180910390fd5b6060839050600081511415612291576040517f08c379a000000000000000000000000000000000000000000000000000000000815260040161228890614643565b60405180910390fd5b6010604051806040016040528086815260200185815250908060018154018082558091505060019003906000526020600020906002020160009091909190915060008201518160000190805190602001906122ed9291906135c0565b5060208201518160010155505060016010805490500391505092915050565b60008060009054906101000a900473ffffffffffffffffffffffffffffffffffffffff1673ffffffffffffffffffffffffffffffffffffffff163373ffffffffffffffffffffffffffffffffffffffff161461239d576040517f08c379a000000000000000000000000000000000000000000000000000000000815260040161239490614663565b60405180910390fd5b60608490506000815114156123e7576040517f08c379a00000000000000000000000000000000000000000000000000000000081526004016123de90614543565b60405180910390fd5b600d604051806060016040528087815260200186815260200185815250908060018154018082558091505060019003906000526020600020906003020160009091909190915060008201518160000190805190602001906124499291906135c0565b506020820151816001015560408201518160020190805190602001906124709291906135c0565b5050506001600d80549050039150509392505050565b601a60205282600052604060002060205281600052604060002060205280600052604060002060009250925050508060000160009054906101000a900473ffffffffffffffffffffffffffffffffffffffff16905081565b6000601b6000838152602001908152602001600020805490509050919050565b60008054906101000a900473ffffffffffffffffffffffffffffffffffffffff1681565b6000806015836040516125359190614309565b9081526020016040518091039020805490509050600081141561255757600190505b80915050919050565b60208052826000526040600020602052816000526040600020818154811061258757600080fd5b9060005260206000200160009250925050505481565b6000600880549050905090565b60006017846040516125bc9190614309565b9081526020016040518091039020600084815260200190815260200160002060008381526020019081526020016000208054905090509392505050565b612602336133d6565b15612642576040517f08c379a0000000000000000000000000000000000000000000000000000000008152600401612639906144e3565b60405180910390fd5b60188110612685576040517f08c379a000000000000000000000000000000000000000000000000000000000815260040161267c90614623565b60405180910390fd5b61268e336134cb565b6126cd576040517f08c379a00000000000000000000000000000000000000000000000000000000081526004016126c490614563565b60405180910390fd5b601a600084815260200190815260200160002060008381526020019081526020016000206000828152602001908152602001600020600080820160006101000a81549073ffffffffffffffffffffffffffffffffffffffff02191690555050505050565b601b602052816000526040600020818154811061274d57600080fd5b90600052602060002001600091509150505481565b6011602052806000526040600020600091509050806000018054600181600116156101000203166002900480601f01602080910402602001604051908101604052809291908181526020018280546001816001161561010002031660029004801561280e5780601f106127e35761010080835404028352916020019161280e565b820191906000526020600020905b8154815290600101906020018083116127f157829003601f168201915b5050505050908060010154908060020154905083565b6000600e80549050905090565b600e818154811061284157600080fd5b9060005260206000209060040201600091509050806000015490806001018054600181600116156101000203166002900480601f0160208091040260200160405190810160405280929190818152602001828054600181600116156101000203166002900480156128f35780601f106128c8576101008083540402835291602001916128f3565b820191906000526020600020905b8154815290600101906020018083116128d657829003601f168201915b505050505090806002018054600181600116156101000203166002900480601f0160208091040260200160405190810160405280929190818152602001828054600181600116156101000203166002900480156129915780601f1061296657610100808354040283529160200191612991565b820191906000526020600020905b81548152906001019060200180831161297457829003601f168201915b505050505090806003018054600181600116156101000203166002900480601f016020809104026020016040519081016040528092919081815260200182805460018160011615610100020316600290048015612a2f5780601f10612a0457610100808354040283529160200191612a2f565b820191906000526020600020905b815481529060010190602001808311612a1257829003601f168201915b5050505050905084565b60008060009054906101000a900473ffffffffffffffffffffffffffffffffffffffff1673ffffffffffffffffffffffffffffffffffffffff163373ffffffffffffffffffffffffffffffffffffffff1614612aca576040517f08c379a0000000000000000000000000000000000000000000000000000000008152600401612ac190614663565b60405180910390fd5b6060839050600081511415612b14576040517f08c379a0000000000000000000000000000000000000000000000000000000008152600401612b0b906145c3565b60405180910390fd5b600f60405180604001604052808681526020018581525090806001815401808255809150506001900390600052602060002090600202016000909190919091506000820151816000019080519060200190612b709291906135c0565b5060208201518160010155505060006001600f80549050039050601b6000858152602001908152602001600020819080600181540180825580915050600190039060005260206000200160009091909190915055809250505092915050565b600160009054906101000a900473ffffffffffffffffffffffffffffffffffffffff1681565b60196020528360005260406000206020528260005260406000206020528160005260406000206020528060005260406000206000935093505050508060000160009054906101000a900473ffffffffffffffffffffffffffffffffffffffff16905081565b60088181548110612c6a57600080fd5b906000526020600020016000915054906101000a900473ffffffffffffffffffffffffffffffffffffffff1681565b600d8181548110612ca957600080fd5b9060005260206000209060030201600091509050806000018054600181600116156101000203166002900480601f016020809104026020016040519081016040528092919081815260200182805460018160011615610100020316600290048015612d555780601f10612d2a57610100808354040283529160200191612d55565b820191906000526020600020905b815481529060010190602001808311612d3857829003601f168201915b505050505090806001015490806002018054600181600116156101000203166002900480601f016020809104026020016040519081016040528092919081815260200182805460018160011615610100020316600290048015612df95780601f10612dce57610100808354040283529160200191612df9565b820191906000526020600020905b815481529060010190602001808311612ddc57829003601f168201915b5050505050905083565b600f8181548110612e1357600080fd5b9060005260206000209060020201600091509050806000018054600181600116156101000203166002900480601f016020809104026020016040519081016040528092919081815260200182805460018160011615610100020316600290048015612ebf5780601f10612e9457610100808354040283529160200191612ebf565b820191906000526020600020905b815481529060010190602001808311612ea257829003601f168201915b5050505050908060010154905082565b60166020528160005260406000208181548110612eeb57600080fd5b90600052602060002001600091509150505481565b600c8181548110612f1057600080fd5b906000526020600020016000915054906101000a900473ffffffffffffffffffffffffffffffffffffffff1681565b601384805160208101820180518482526020830160208501208183528095505050505050838051602081018201805184825260208301602085012081835280955050505050506020528160005260406000208181548110612f9f57600080fd5b9060005260206000200160009350935050509054906101000a900473ffffffffffffffffffffffffffffffffffffffff1681565b612fdc336132e1565b1561301c576040517f08c379a0000000000000000000000000000000000000000000000000000000008152600401613013906145a3565b60405180910390fd5b6060849050600081511415613066576040517f08c379a000000000000000000000000000000000000000000000000000000000815260040161305d90614503565b60405180910390fd5b61306e613691565b604051806080016040528087815260200186815260200185815260200184815250905080600460003373ffffffffffffffffffffffffffffffffffffffff1673ffffffffffffffffffffffffffffffffffffffff16815260200190815260200160002060008201518160000190805190602001906130ed9291906135c0565b50602082015181600101908051906020019061310a9291906135c0565b5060408201518160020190805190602001906131279291906135c0565b5060608201518160030190805190602001906131449291906135c0565b509050506009339080600181540180825580915050600190039060005260206000200160009091909190916101000a81548173ffffffffffffffffffffffffffffffffffffffff021916908373ffffffffffffffffffffffffffffffffffffffff160217905550505050505050565b600981815481106131c357600080fd5b906000526020600020016000915054906101000a900473ffffffffffffffffffffffffffffffffffffffff1681565b600060166000838152602001908152602001600020805490509050919050565b6000806014846040516132259190614309565b9081526020016040518091039020856040516132419190614309565b90815260200160405180910390208054905011156132d657600060148460405161326b9190614309565b9081526020016040518091039020856040516132879190614309565b908152602001604051809103902083815481106132a057fe5b9060005260206000200160009054906101000a900473ffffffffffffffffffffffffffffffffffffffff169050809150506132da565b3390505b9392505050565b60006060600460008473ffffffffffffffffffffffffffffffffffffffff1673ffffffffffffffffffffffffffffffffffffffff1681526020019081526020016000206000018054600181600116156101000203166002900480601f0160208091040260200160405190810160405280929190818152602001828054600181600116156101000203166002900480156133bb5780601f10613390576101008083540402835291602001916133bb565b820191906000526020600020905b81548152906001019060200180831161339e57829003601f168201915b50505050509050606081905060008151141592505050919050565b60006060600360008473ffffffffffffffffffffffffffffffffffffffff1673ffffffffffffffffffffffffffffffffffffffff1681526020019081526020016000206000018054600181600116156101000203166002900480601f0160208091040260200160405190810160405280929190818152602001828054600181600116156101000203166002900480156134b05780601f10613485576101008083540402835291602001916134b0565b820191906000526020600020905b81548152906001019060200180831161349357829003601f168201915b50505050509050606081905060008151141592505050919050565b60006060600760008473ffffffffffffffffffffffffffffffffffffffff1673ffffffffffffffffffffffffffffffffffffffff1681526020019081526020016000206000018054600181600116156101000203166002900480601f0160208091040260200160405190810160405280929190818152602001828054600181600116156101000203166002900480156135a55780601f1061357a576101008083540402835291602001916135a5565b820191906000526020600020905b81548152906001019060200180831161358857829003601f168201915b50505050509050606081905060008151141592505050919050565b828054600181600116156101000203166002900490600052602060002090601f0160209004810192826135f6576000855561363d565b82601f1061360f57805160ff191683800117855561363d565b8280016001018555821561363d579182015b8281111561363c578251825591602001919060010190613621565b5b50905061364a91906136b9565b5090565b604051806040016040528060608152602001606081525090565b6040518060200160405280600073ffffffffffffffffffffffffffffffffffffffff1681525090565b6040518060800160405280606081526020016060815260200160608152602001606081525090565b5b808211156136d25760008160009055506001016136ba565b5090565b6000813590506136e58161481d565b92915050565b600082601f8301126136fc57600080fd5b813561370f61370a82614729565b6146f8565b9150808252602083016020830185838301111561372b57600080fd5b6137368382846147c8565b50505092915050565b60008135905061374e81614834565b92915050565b60006020828403121561376657600080fd5b6000613774848285016136d6565b91505092915050565b60006020828403121561378f57600080fd5b600082013567ffffffffffffffff8111156137a957600080fd5b6137b5848285016136eb565b91505092915050565b600080604083850312156137d157600080fd5b600083013567ffffffffffffffff8111156137eb57600080fd5b6137f7858286016136eb565b925050602083013567ffffffffffffffff81111561381457600080fd5b613820858286016136eb565b9150509250929050565b6000806000806080858703121561384057600080fd5b600085013567ffffffffffffffff81111561385a57600080fd5b613866878288016136eb565b945050602085013567ffffffffffffffff81111561388357600080fd5b61388f878288016136eb565b935050604085013567ffffffffffffffff8111156138ac57600080fd5b6138b8878288016136eb565b925050606085013567ffffffffffffffff8111156138d557600080fd5b6138e1878288016136eb565b91505092959194509250565b60008060006060848603121561390257600080fd5b600084013567ffffffffffffffff81111561391c57600080fd5b613928868287016136eb565b935050602084013567ffffffffffffffff81111561394557600080fd5b613951868287016136eb565b92505060406139628682870161373f565b9150509250925092565b6000806000806080858703121561398257600080fd5b600085013567ffffffffffffffff81111561399c57600080fd5b6139a8878288016136eb565b945050602085013567ffffffffffffffff8111156139c557600080fd5b6139d1878288016136eb565b93505060406139e28782880161373f565b92505060606139f38782880161373f565b91505092959194509250565b60008060408385031215613a1257600080fd5b600083013567ffffffffffffffff811115613a2c57600080fd5b613a38858286016136eb565b9250506020613a498582860161373f565b9150509250929050565b600080600060608486031215613a6857600080fd5b600084013567ffffffffffffffff811115613a8257600080fd5b613a8e868287016136eb565b9350506020613a9f8682870161373f565b925050604084013567ffffffffffffffff811115613abc57600080fd5b613ac8868287016136eb565b9150509250925092565b600080600060608486031215613ae757600080fd5b600084013567ffffffffffffffff811115613b0157600080fd5b613b0d868287016136eb565b9350506020613b1e8682870161373f565b9250506040613b2f8682870161373f565b9150509250925092565b60008060008060808587031215613b4f57600080fd5b600085013567ffffffffffffffff811115613b6957600080fd5b613b75878288016136eb565b9450506020613b868782880161373f565b9350506040613b978782880161373f565b9250506060613ba88782880161373f565b91505092959194509250565b600060208284031215613bc657600080fd5b6000613bd48482850161373f565b91505092915050565b60008060008060808587031215613bf357600080fd5b6000613c018782880161373f565b945050602085013567ffffffffffffffff811115613c1e57600080fd5b613c2a878288016136eb565b935050604085013567ffffffffffffffff811115613c4757600080fd5b613c53878288016136eb565b925050606085013567ffffffffffffffff811115613c7057600080fd5b613c7c878288016136eb565b91505092959194509250565b60008060408385031215613c9b57600080fd5b6000613ca98582860161373f565b9250506020613cba8582860161373f565b9150509250929050565b600080600060608486031215613cd957600080fd5b6000613ce78682870161373f565b9350506020613cf88682870161373f565b9250506040613d098682870161373f565b9150509250925092565b60008060008060808587031215613d2957600080fd5b6000613d378782880161373f565b9450506020613d488782880161373f565b9350506040613d598782880161373f565b9250506060613d6a8782880161373f565b91505092959194509250565b613d7f81614780565b82525050565b613d8e81614792565b82525050565b6000613d9f82614759565b613da98185614764565b9350613db98185602086016147d7565b613dc28161480c565b840191505092915050565b6000613dd882614759565b613de28185614775565b9350613df28185602086016147d7565b80840191505092915050565b6000613e0b601f83614764565b91507f456c2061646472657373206e6f20707565646520657374617220766163696f006000830152602082019050919050565b6000613e4b602883614764565b91507f536f6c6f207065726d697469646f206120616c756d6e6f73206e6f206d61747260008301527f6963756c61646f730000000000000000000000000000000000000000000000006020830152604082019050919050565b6000613eb1601c83614764565b91507f456c206e6f6d627265206e6f2070756564652073657220766163696f000000006000830152602082019050919050565b6000613ef1602583614764565b91507f536f6c6f207065726d697469646f206120616c756d6e6f73206d61747269637560008301527f6c61646f730000000000000000000000000000000000000000000000000000006020830152604082019050919050565b6000613f57602783614764565b91507f456c206e6f6d627265206465206c612061736967206e6f20707565646520736560008301527f7220766163696f000000000000000000000000000000000000000000000000006020830152604082019050919050565b6000613fbd602d83614764565b91507f536f6c6f207065726d697469646f2061207475726e6f7320717565202065737460008301527f656e2072657365727661646f73000000000000000000000000000000000000006020830152604082019050919050565b6000614023602583614764565b91507f4e6f207365207065726d697465206c6120726563657063696f6e20646520646960008301527f6e65726f2e0000000000000000000000000000000000000000000000000000006020830152604082019050919050565b6000614089602683614764565b91507f536f6c6f207065726d697469646f20612070726f666573206e6f20726567697360008301527f747261646f7300000000000000000000000000000000000000000000000000006020830152604082019050919050565b60006140ef602483614764565b91507f456c206e6f6d6272652064656c206c6162206e6f20707565646520736572207660008301527f6163696f000000000000000000000000000000000000000000000000000000006020830152604082019050919050565b6000614155602f83614764565b91507f536f6c6f207065726d697469646f2061207475726e6f7320717565206e6f206560008301527f7374656e2072657365727661646f7300000000000000000000000000000000006020830152604082019050919050565b60006141bb602883614764565b91507f536f6c6f207065726d697469646f206120706572736f6e6173206e6f2072656760008301527f6973747261646f730000000000000000000000000000000000000000000000006020830152604082019050919050565b6000614221600e83614764565b91507f5475726e6f20696e76616c69646f0000000000000000000000000000000000006000830152602082019050919050565b6000614261602a83614764565b91507f456c206e6f6d627265206465206c61207475726e6f206e6f207075656465206560008301527f7374617220766163696f000000000000000000000000000000000000000000006020830152604082019050919050565b60006142c7601783614764565b91507f536f6c6f207065726d697469646f20616c206f776e65720000000000000000006000830152602082019050919050565b614303816147be565b82525050565b60006143158284613dcd565b915081905092915050565b60006020820190506143356000830184613d76565b92915050565b60006020820190506143506000830184613d85565b92915050565b600060208201905081810360008301526143708184613d94565b905092915050565b600060408201905081810360008301526143928185613d94565b905081810360208301526143a68184613d94565b90509392505050565b600060808201905081810360008301526143c98187613d94565b905081810360208301526143dd8186613d94565b905081810360408301526143f18185613d94565b905081810360608301526144058184613d94565b905095945050505050565b6000604082019050818103600083015261442a8185613d94565b905061443960208301846142fa565b9392505050565b6000606082019050818103600083015261445a8186613d94565b905061446960208301856142fa565b818103604083015261447b8184613d94565b9050949350505050565b6000606082019050818103600083015261449f8186613d94565b90506144ae60208301856142fa565b6144bb60408301846142fa565b949350505050565b600060208201905081810360008301526144dc81613dfe565b9050919050565b600060208201905081810360008301526144fc81613e3e565b9050919050565b6000602082019050818103600083015261451c81613ea4565b9050919050565b6000602082019050818103600083015261453c81613ee4565b9050919050565b6000602082019050818103600083015261455c81613f4a565b9050919050565b6000602082019050818103600083015261457c81613fb0565b9050919050565b6000602082019050818103600083015261459c81614016565b9050919050565b600060208201905081810360008301526145bc8161407c565b9050919050565b600060208201905081810360008301526145dc816140e2565b9050919050565b600060208201905081810360008301526145fc81614148565b9050919050565b6000602082019050818103600083015261461c816141ae565b9050919050565b6000602082019050818103600083015261463c81614214565b9050919050565b6000602082019050818103600083015261465c81614254565b9050919050565b6000602082019050818103600083015261467c816142ba565b9050919050565b600060208201905061469860008301846142fa565b92915050565b60006080820190506146b360008301876142fa565b81810360208301526146c58186613d94565b905081810360408301526146d98185613d94565b905081810360608301526146ed8184613d94565b905095945050505050565b6000604051905081810181811067ffffffffffffffff8211171561471f5761471e61480a565b5b8060405250919050565b600067ffffffffffffffff8211156147445761474361480a565b5b601f19601f8301169050602081019050919050565b600081519050919050565b600082825260208201905092915050565b600081905092915050565b600061478b8261479e565b9050919050565b60008115159050919050565b600073ffffffffffffffffffffffffffffffffffffffff82169050919050565b6000819050919050565b82818337600083830152505050565b60005b838110156147f55780820151818401526020810190506147da565b83811115614804576000848401525b50505050565bfe5b6000601f19601f8301169050919050565b61482681614780565b811461483157600080fd5b50565b61483d816147be565b811461484857600080fd5b5056fea2646970667358221220980b666ea09e2fc1913164afb115884b771217ffd54581e42b0f8534b58f40f464736f6c63430007040033",
  "immutableReferences": {},
  "source": "pragma solidity ^0.7.4;\r\npragma experimental ABIEncoderV2;//enabled when passing an array of string(struct) as a function paramete\r\n\r\n\r\n/*\r\n*falta : \r\n*crear lo de las asignaturas con los laborarios y puestos a los que perteneces y las caracteristicas que desepean cada puesto \r\n*crear las reservas , se va a reservar por semana un puesto de un determinado laboratorio \r\n*/\r\n\r\n\r\ncontract ReslabEtsit {\r\n    \r\n   \r\n    /**\r\n     * address del profesor que ha desplegado el contrato.\r\n     * El contrato lo despliega el profesor.\r\n     */\r\n    address public owner;\r\n    address public profesorP;\r\n     \r\n    \r\n    /// Nombre de la asignatura\r\n    //string public nombre;\r\n    \r\n   \r\n    \r\n    /**\r\n     * Datos de un puesto\r\n     */\r\n     \r\n     \r\n     \r\n    enum TipoSO {windows, macos , linux}\r\n    \r\n    enum TipoConexionesRed { cable, inalambrico} // array de strings \r\n\r\n    \r\n    \r\n   \r\n   // enum Horario { turnom ,turnot}//poenr horas y turnos en enum???? array de horas \r\n    \r\n    struct DatosPuesto {\r\n\r\n\r\n    \r\n\tstring nombre;\r\n\t\r\n\tuint indexlab;\r\n\r\n       \r\n    }\r\n    \r\n    \r\n    struct DatosTurno{\r\n        string nombre;\r\n        uint fecha;\r\n      \r\n    }\r\n    \r\n    \r\n   \r\n   \r\n   \r\n    /**\r\n    * datos de todos los labs con sus parametro en la pantalla de inicio\r\n    * DUDA -> QUIERO PONERARRAY DE STRING DE ASIGNATURA!!\r\n    **/\r\n    struct DatosLaboratorio {\r\n        uint laboratorioindex;\r\n        \r\n        string nombreL;\r\n        string asignaura;\r\n        string info;\r\n        \r\n        //string[] asignaturaL;\r\n       \r\n    }\r\n\r\n\r\n\r\n\r\n    \r\n    \r\n    /**\r\n    * datos del alumno que se registra \r\n    **/\r\n   // datos persona \r\n    struct DatosPersona {\r\n\taddress dir;\r\n    }\r\n\r\n    /// Datos de un alumno.\r\n    struct DatosAlumno {\r\n        string nombre;\r\n        string email;\r\n        \r\n    }\r\n    \r\n    /**\r\n     * Datos profe que se registra \r\n     * */\r\n     \r\n    \r\n    struct DatosProfesor{\r\n        string nombreP;\r\n        string emailP;\r\n        string asignaturaP;\r\n        string departamentoP;\r\n    }\r\n    \r\n    \r\n\r\n\r\n\r\n\r\n\r\n    \r\n    struct DatosAsignatura{\r\n        string nombre;\r\n       // Laboratorio[] laboratorio;\r\n        uint indexLab;\r\n        string info;\r\n        //credito semanal\r\n        //Matriculas matriculados;\r\n    }\r\n    \r\n    \r\n    \r\n    \r\n    /**\r\n     * \r\n\r\n     si esta reservado por un alumno\r\n     * */\r\n     \r\n     struct DatosReserva{\r\n         address dirAlumno;\r\n      \r\n     }\r\n     \r\n     /**\r\n      * Datos de mireserva //FALTA PUESTO\r\n      * */\r\n      \r\n      struct ReservaAlumno{\r\n          string lab;\r\n          uint fecha;\r\n          uint estado;\r\n          //string puesto;\r\n\r\n      }\r\n      \r\n      // acceder a los datos de una persona dada su direccion\r\n    mapping (address => DatosPersona) public datosPersona;\r\n    \r\n    /// Acceder a los datos de un alumno dada su direccion.\r\n    mapping (address => DatosAlumno) public datosAlumno;\r\n    \r\n      /// Acceder a los datos de un profe dada su direccion.\r\n    mapping (address => DatosProfesor) public datosProfesor;\r\n    \r\n    mapping (address => DatosAsignatura)  datosAsignatura;\r\n    \r\n    \r\n    mapping (address => DatosLaboratorio)  datosLaboratorio;\r\n\r\n    mapping (address => DatosTurno)  datosTurno;\r\n\r\n    //mapping(uint => Laboratorio) public labPuestos; //acceder a los puestos del lab dada la info del lab\r\n  \r\n   // mapping (address => DatosPuesto)  datosPuesto;\r\n    \r\n    // Array con las direcciones de los alumnos matriculados.\r\n    address[] public matriculas;\r\n    \r\n    \r\n    //array con las direcciones de los profes registrados \r\n    address[] public profesRegistrados;\r\n    \r\n        // Array con las direcciones de las personas registradas.\r\n    address[] public registradosP;\r\n\r\n    \r\n    //Array credito semanal \r\n    address [] public creditosemanal;\r\n    \r\n   //array con las direcciones de las asignaturas registradas \r\n   address[] public asignaturasRegistradasdir;\r\n\r\n    DatosAsignatura[] public asignaturasRegistradas;\r\n    \r\n    \r\n    // labs en la escuela\r\n    DatosLaboratorio[] public laboratoriosRegistrados;\r\n    //reservas de la escuela\r\n\r\n    // puestos en la escuela\r\n    DatosPuesto[] public puestosRegistrados;\r\n    \r\n \r\n\r\n    // array turnos de los puestos\r\n\r\n    DatosTurno[] public turnosRegistrados;\r\n        \r\n   \r\n\r\n     //reserva para un usuario \r\n  \r\n    mapping (address => ReservaAlumno) public reservasAlumno;\r\n    \r\n    \r\n    //turno de la escuela\r\n\r\n    //mapping (string => mapping (string  => uint[] )) public turnos;\r\n    \r\n    // Mapping para evitar duplicados de turnos devuelve un bool\r\n    //dado un puesto y una fecha  y un (turno) te devuelve un booleano \r\n    mapping (uint => mapping  ( uint => mapping ( uint => bool )))  turnos_existentes;\r\n    \r\n    /// Devuelve las direcciones de las personas que han asistido a algun lab en alguna de las fechas y en algun turno.\r\n    mapping (string => mapping (string => mapping (uint => address[] ))) public personas;\r\n   \r\n    /// Devuelve las Direcciones de las personas que han asistido a algun lab y en alguna de las fechas.\r\n    mapping (string => mapping (string => address[] )) public personasTotales;\r\n\r\n    // devuelve los puestos totales qu tienes los labs???????????????como lo hago  lo que quiero es haya los puestos totales que tiene cada laboratorio??????\r\n\r\n    mapping(string => string[]) public puestosTotales;\r\n    \r\n\r\n\r\n\r\n\r\n    //IMPORTANTEEEEEEEEEEEE!\r\n    // devuelve array con los indices de los puestos y la clave es un array de enteros laboratorio \r\n    mapping (uint=> uint[]) public puestos;\r\n\r\n\r\n\r\n    //dado la fecha, entrada turno y el el indice de laboratorio quiero que devuelva un array con el numero de puestos\r\n    mapping (string => mapping (uint => mapping (uint => uint[]))) public puestosBuscados;\r\n\r\n    \r\n    //dado el numero lab, fecha (numero de milisegundos) , dado turno ( todos los turnos que hay en un puesto en un dia), te devuelva la reserva\r\n  //  mapping( uint =>mapping (uint=> mapping (uint=> DatosReserva ))) public puestosReservados;\r\n\r\n\r\n    \r\n    //dado el numero puesto, turno (numero de milisegundos) ,  te devuelva la reserva\r\n   mapping( uint =>mapping (uint=> DatosReserva )) public datosReserva;\r\n\r\n\r\n   //\r\n    //dado el numero lab, de un puesto, fecha (numero de milisegundos) ,  y turno te devuelva la reserva\r\n\r\n     mapping( uint =>mapping (uint=> mapping (uint=> mapping (uint=> DatosReserva )))) public datosReservaPorLabPuestoFechaTurno;\r\n\r\n     //dado el numero lab, de un puesto,  y turno te devuelva la reserva\r\n\r\n     mapping( uint =>mapping (uint=>  mapping (uint=> DatosReserva ))) public datosReservaPorLabPuestoTurno;\r\n\r\n\r\n     \r\n\r\n\r\n\r\n    //te devuelve array de puestos reservados tal lab y tal fecha \r\n    //mapping( uint =>mapping (uint=> DatosPuesto[] )) public puestosReservadosLab;\r\n\r\n    //dado el indice de laboratorio un array de los indices de los puestos que estan en ese laboratorio \r\n    mapping(uint=> uint[]) public puestosDelLaboratorio;\r\n\r\n\r\n    //dado el indice de laboratorio y la fecha te devuelva los indices de los puestos que estan en ese laboratorio \r\n    mapping(uint=> mapping( uint => uint[])) public puestosDelLaboratorioFecha;\r\n\r\n\r\n    //dado el indice de una asignatura te devuelve el indice de un lab \r\n    mapping(uint => uint) public indiceLabPorAsignatura;\r\n\r\n    //dado una fecha y un lab cree una rray de puestos \r\n\r\n    mapping(uint=> mapping( uint => DatosPuesto[])) public arrayPuestosDelLab;\r\n\r\n\r\n    //dado el index de un puesto registrado \r\n    //dada la fecha ( string en formaro YYYYYMMD??????\r\n    // dado la hora del turno (de 0 a 23) \r\n    //devuelve el address del alumnos que ha reservado el turno\r\n    mapping(uint => mapping(uint => mapping (uint=> address))) reservasDelAlumno;\r\n\r\n\r\n       /// Dado el index de un puesto y una fecha te devuelve los turnos de un lab .\r\n    mapping (uint => mapping (uint  => uint[] )) public turnosPorPuesto;\r\n\r\n    \r\n    \r\n    \r\n    \r\n    /*\r\n     * Constructor.\r\n     * \r\n     * @param _nombre Nombre de la asignatura.\r\n     * //habria qu eponer nombre puesto /lab /alumno etc \r\n    \r\n     */\r\n    /*constructor(string memory _nombre) {\r\n        \r\n        bytes memory bn = bytes(_nombre);\r\n        require(bn.length != 0, \"El nombre de la asignatura no puede ser vacio\");\r\n       \r\n       \r\n      \r\n        owner = msg.sender;\r\n        nombre = _nombre;\r\n        \r\n        \r\n     \r\n        \r\n    }*/\r\n    \r\n    constructor()  {\r\n        owner = msg.sender;\r\n    } //?????????????????????????????????\r\n\r\n    \r\n    \r\n    \r\n    \r\n    \r\n/**\r\n     * Te devuelve el numero de puestos registrados\r\n     *\r\n     * @return El numero de puestos creadas.\r\n     */\r\n    /*function puestosLength() public view returns(uint) {\r\n        return puestosReservadosLab.length;\r\n    }\r\n    \r\n*/\r\n\r\n    // te devuelve la longitud de los puestos que hay en un laboratorio \r\n\r\n    function puestosDelLaboratorioLength(uint _indexlab) public view returns(uint) {\r\n        return puestosDelLaboratorio[_indexlab].length;\r\n\r\n\r\n    }\r\n\r\n\r\n\r\n  /**\r\n     * Te devuelve el numero de turnos\r\n     *\r\n     * @return El numero de turnos creadas.\r\n     */\r\n\r\n    function turnosLength() public view returns(uint) {\r\n        return turnosRegistrados.length;\r\n    }\r\n    \r\n\r\n    //devuelve la longitud del array de los puestos de un laboratorio \r\n    function puestosLaboratorioLength(uint _laboratorioindex) public view returns(uint) {\r\n        return puestos[_laboratorioindex].length;\r\n    }\r\n    \r\n    \r\n     /**\r\n     * El numero de labs  registrados\r\n     *\r\n     * @return El numero de labs creadas.\r\n     */\r\n    function laboratoriosLength() public view returns(uint) {\r\n        return laboratoriosRegistrados.length;\r\n    }\r\n    \r\n    \r\n    \r\n\r\n\r\n    /**\r\n     * Permite obtener la longitud del array de personasTotales.\r\n     * \r\n     */\r\n    function personasLength(string memory _nombre, string memory _fecha) public view returns(uint) {\r\n\r\n        uint longitud = personasTotales[_fecha][_nombre].length;\r\n\r\n        if(longitud == 0){\r\n        longitud = 1;\r\n\t    }\r\n\r\n  \t    return longitud;\r\n\r\n    }\r\n\r\n\r\n\r\n      /**\r\n     * Permite obtener la longitud del array de puestosTotale del lab\r\n     * \r\n     */\r\n    function puestosLength2(string memory _nombre) public view returns(uint) {\r\n\r\n        uint longitud2 = puestosTotales[_nombre].length;\r\n\r\n        if(longitud2 == 0){\r\n        longitud2 = 1;\r\n\t    }\r\n\r\n  \t    return longitud2;\r\n\r\n    }\r\n\r\n\r\n\r\n    /**\r\n     * Permite obtener un address del array de personas.\r\n     * \r\n     */\r\n    function dirPersonas(string memory _nombre, string memory _fecha, uint _indice) public view returns(address) {\r\n\r\n        if(personasTotales[_fecha][_nombre].length > 0){\r\n\r\n        address _dirUno = personasTotales[_fecha][_nombre][_indice];\r\n        return _dirUno;\r\n\r\n        }else{\r\n        return msg.sender;\r\n\t    }\t\t\t\r\n\t\r\n    }\r\n    \r\n    /**\r\n     * Obtiene los datos de una persona registrada.\r\n     * \r\n     * @param persona La direccion de una persona.\r\n     * \r\n     * @return los datos de una persona registrada.\r\n     */\r\n    function obtenerDatosPersona(address persona)  public view returns(address) {\r\n\t\r\n        \r\n        if(!estaRegistrado(persona)){\r\n        return address(0);\r\n        } else{\t\r\n        return datosPersona[persona].dir;\r\n\t}\r\n\t\r\n        \r\n        \r\n    } \r\n\r\n\r\n    //puestos que hay en un lab. Coger el array que te da el mapping de puestos y devolver su .length\r\n\r\n    function puestosdeLaboratorio(uint _laboratorioindex) public view returns(uint) {\r\n\r\n        return puestos[_laboratorioindex].length;\r\n    }\r\n    \r\n\r\n\r\n     // puestos que hay en un lab segun la fecha, la entrada \r\n    function BuscaPuestoLab( string  memory _fecha, uint _entradaTurno,uint _laboratorioindex) public view returns(uint) {\r\n\r\n        return puestosBuscados[_fecha][_entradaTurno][_laboratorioindex].length;\r\n    }\r\n\r\n\r\n\r\n\r\n \r\n\r\n\r\n\r\n    /** Un alumno crea una reserva \r\n    */\r\n\r\n    \r\n    \r\n    \r\n\r\n        function guardarReserva(uint  _puestoId, uint  _fecha,  uint _turno)  public {\r\n        \r\n\t\r\n       \r\n            require(estaMatriculado(msg.sender),\"Solo permitido a alumnos no matriculados\");\r\n            require(_turno<24, \"Turno invalido\");\r\n            require(!estaReservado(msg.sender),\"Solo permitido a turnos que no esten reservados\");\r\n\r\n            DatosReserva memory reserva = DatosReserva(msg.sender);\r\n\r\n            datosReservaPorLabPuestoTurno[_puestoId][_fecha][_turno]= reserva;\r\n\r\n\r\n        }\r\n\r\n        \r\n\r\n       \r\n\r\n\r\n\r\n\r\n        \r\n    /** Un alumno quita su reserva - ( solo profe , owner y el propio alumnos \r\n    */\r\n    \r\n\r\n\r\n\r\n       function quitarReserva(uint  _puestoId, uint  _fecha,  uint _turno) public {\r\n        \r\n\t\r\n       \r\n\r\n            require(!estaMatriculado(msg.sender),\"Solo permitido a alumnos no matriculados\");\r\n            require(_turno<24, \"Turno invalido\");\r\n            require(estaReservado(msg.sender),\"Solo permitido a turnos que  esten reservados\");\r\n\r\n            delete datosReservaPorLabPuestoTurno[_puestoId][_fecha][_turno];\r\n\r\n        }\r\n     \r\n  \r\n    \r\n\r\n\r\n\r\n\r\n\r\n\r\n\r\n\r\n\r\n\r\n\r\n\r\n\r\n    \r\n    \r\n\r\n    \r\n    \r\n    \r\n    \r\n        \r\n     //te crea un laboratorio \r\n\r\n    function creaLaboratorio( uint  _laboratorioindex,string memory _nombreL,string memory _asignaura,string memory _Info) soloOwner public returns (uint) {\r\n        \r\n        bytes memory bn = bytes(_nombreL);\r\n        require(bn.length != 0, \"El nombre del lab no puede ser vacio\");\r\n        \r\n        laboratoriosRegistrados.push(DatosLaboratorio(_laboratorioindex,_nombreL,_asignaura,_Info));\r\n        return laboratoriosRegistrados.length - 1;\r\n    }\r\n    \r\n     // te rea una asignatura \r\n\r\n    function creaAsignatura( string memory _nombreAsig, uint _indexLab,string memory _Info)  soloOwner public returns (uint) {\r\n        \r\n        bytes memory bn = bytes(_nombreAsig);\r\n        require(bn.length != 0, \"El nombre de la asig no puede ser vacio\");\r\n        \r\n       asignaturasRegistradas.push(DatosAsignatura(_nombreAsig,_indexLab,_Info));\r\n        return asignaturasRegistradas.length - 1;\r\n    }\r\n    \r\n    \r\n    \r\n    \r\n    //te crea un puesto \r\n\r\n    function creaPuesto(string memory _NombreP,uint  _indexlab) soloOwner public returns (uint) {\r\n        \r\n        bytes memory bn = bytes(_NombreP);\r\n        require(bn.length != 0, \"El nombre del lab no puede ser vacio\");\r\n        \r\n        puestosRegistrados.push(DatosPuesto(_NombreP,_indexlab));\r\n        uint id = puestosRegistrados.length -1;\r\n\r\n        puestosDelLaboratorio[_indexlab].push(id);\r\n\r\n        return id;\r\n    \r\n    }   \r\n\r\n\r\n    //te crea un turno de laboratorio \r\n\r\n    function creaTurno(string memory _nombre, uint _fecha) soloOwner public returns (uint) {\r\n    \r\n    bytes memory bn = bytes(_nombre);\r\n    require(bn.length != 0, \"El nombre de la turno no puede estar vacio\");\r\n    \r\n    turnosRegistrados.push(DatosTurno(_nombre, _fecha));\r\n    return turnosRegistrados.length - 1;\r\n} \r\n    \r\n \r\n     /**\r\n     * El numero de alumnos matriculados.\r\n     *\r\n     * @return El numero de alumnos matriculados.\r\n     */\r\n    function matriculasLength() public view returns(uint) {\r\n        return matriculas.length;\r\n    }\r\n    \r\n    \r\n    \r\n      /**\r\n     * El numero de profes registrados.\r\n     *\r\n     * .\r\n     */\r\n    function profesRegistradosLength() public view returns(uint) {\r\n        return profesRegistrados.length;\r\n    }\r\n    \r\n    \r\n       /**\r\n     * El numero de asignaturas registrados.\r\n     *\r\n     * .\r\n     */\r\n    function asignaturasRegistradasLength() public view returns(uint) {\r\n        return asignaturasRegistradas.length;\r\n    }\r\n    \r\n    \r\n    \r\n    \r\n    \r\n      /**\r\n     * numero de credito semanal \r\n     *\r\n     * @return El numero de credito semanal \r\n     * \r\n     */\r\n     /*function creditosemanalLength() public view returns(uint) {\r\n        return creditosemanal.length;\r\n    }???????????????????????????*/\r\n     \r\n    \r\n    \r\n    \r\n    \r\n    /**\r\n     * Los alumnos pueden automatricularse con el metodo automatricula.\r\n     * \r\n     * Impedir que se pueda meter un nombre vacio.\r\n     *\r\n     * @param _nombre El nombre del alumno. \r\n     * @param _email  El email del alumno.\r\n     */\r\n    function automatricula(string memory _nombre, string memory _email) noMatriculados public {\r\n        //revert(\"siempre falla\");\r\n        bytes memory b = bytes(_nombre);\r\n        require(b.length != 0, \"El nombre no puede ser vacio\");\r\n        \r\n        DatosAlumno memory datos = DatosAlumno(_nombre, _email);\r\n        \r\n        datosAlumno[msg.sender] = datos;\r\n        \r\n        matriculas.push(msg.sender);\r\n        \r\n    }\r\n    \r\n    \r\n    function autoregistroP() noRegistradosP public {\r\n    \r\n        require(msg.sender!=address(0), \"El address no puede estar vacio\");\r\n        \r\n        datosPersona[msg.sender] = DatosPersona(msg.sender);\r\n        \r\n        registradosP.push(msg.sender);\r\n    \r\n    }\r\n    \r\n    \r\n  \r\n    function autoRegistro(string memory _nombreP, string memory _emailP,string memory _asignaturaP,string memory _departamentoP ) noRegistrados public {\r\n        \r\n        bytes memory b = bytes(_nombreP);\r\n        require(b.length != 0, \"El nombre no puede ser vacio\");\r\n        \r\n        DatosProfesor memory datosP = DatosProfesor(_nombreP, _emailP,_asignaturaP,_departamentoP);\r\n        \r\n        datosProfesor[msg.sender] = datosP;\r\n        \r\n       profesRegistrados.push(msg.sender);\r\n        \r\n    }\r\n    \r\n\r\n\r\n\r\n    \r\n    \r\n    \r\n    \r\n    \r\n    \r\n    \r\n    \r\n    \r\n    \r\n    /**\r\n     * Permite a un alumno obtener sus propios datos.\r\n     * \r\n     * @return _nombre El nombre del alumno que invoca el metodo.\r\n     * @return _email  El email del alumno que invoca el metodo.\r\n     */\r\n    function quienSoy() soloMatriculados public view returns (string memory _nombre, string memory _email) {\r\n        DatosAlumno memory datos = datosAlumno[msg.sender];\r\n        _nombre = datos.nombre;\r\n        _email = datos.email;\r\n    }\r\n    \r\n\r\n    /**\r\n     * Permite a un profe obtener sus propios datos.\r\n     * \r\n     * \r\n    \r\n    function quienSoyP() soloRegistrados public view returns (string memory _nombreP, string memory _emailP,string memory _asignaturaP,string memory _departamentoP) {\r\n        DatosProfesor memory datosP = datosProfesor[msg.sender];\r\n        _nombreP = datosP.nombreP;\r\n        _emailP = datosP.emailP;\r\n        _departamentoP = datosP.departamentoP;\r\n        _asignaturaP = datosP.asignaturaP;\r\n    }\r\n    \r\n    \r\n    \r\n\r\n    \r\n    \r\n    /**\r\n     * Consulta si una direccion pertenece a un alumno matriculado.\r\n     * \r\n     * @param alumno La direccion de un alumno.\r\n     * \r\n     * @return true si es una alumno matriculado.\r\n     */\r\n    function estaMatriculado(address alumno) private view returns (bool) {\r\n      \r\n        string memory _nombre = datosAlumno[alumno].nombre;\r\n        \r\n        bytes memory b = bytes(_nombre);\r\n        \r\n        return b.length != 0;\r\n    } \r\n\r\n       /**\r\n     * Consulta si un turno pertenece a un alumno matriculado.\r\n     * \r\n     * @param alumno La direccion de un alumno.\r\n     * \r\n     * @return true si es una alumno matriculado.\r\n     */\r\n\r\n\r\n       function estaReservado(address alumno) private view returns (bool) {\r\n      \r\n        string memory _nombre = datosTurno[alumno].nombre;\r\n        \r\n        bytes memory b = bytes(_nombre);\r\n        \r\n        return b.length != 0;\r\n    }\r\n    \r\n\r\n\r\n     /**\r\n     * Consulta si una direccion pertenece a un profe registrado.\r\n     * \r\n     * \r\n     */\r\n    \r\n       function estaRegistrado(address profesor) private view returns (bool) {\r\n      \r\n        string memory _nombreP = datosProfesor[profesor].nombreP;\r\n        \r\n        bytes memory b = bytes(_nombreP);\r\n        \r\n        return b.length != 0;\r\n    }\r\n\r\n\r\n    \r\n    function estaRegistradoP(address persona) public view returns (bool) {\r\n\r\n\taddress _dir = datosPersona[persona].dir;\r\n        return _dir!=address(0);\r\n    } \r\n    \r\n    \r\n\r\n   \r\n\r\n\r\n\r\n\r\n           /**\r\n     * Modificador para que una funcion solo la pueda ejecutar el profesor.\r\n     * \r\n     *\r\n     */\r\n\r\n    modifier soloOwner() {\r\n        \r\n        require(msg.sender == owner, \"Solo permitido al owner\");\r\n        _;\r\n    }\r\n    \r\n    \r\n    /**\r\n     * Modificador para que una funcion solo la pueda ejecutar el profesor.\r\n     * \r\n     *\r\n     */\r\n    modifier soloProfesor() {\r\n        \r\n        require(msg.sender == profesorP, \"Solo permitido al profesor\");\r\n        _;\r\n    }\r\n    \r\n    \r\n    /**\r\n     * Modificador para que una funcion solo la pueda ejecutar un alumno matriculado.\r\n     */\r\n    modifier soloMatriculados() {\r\n        \r\n        require(estaMatriculado(msg.sender), \"Solo permitido a alumnos matriculados\");\r\n        _;\r\n    }\r\n    \r\n    \r\n      modifier soloRegistrados() {\r\n        \r\n        require(estaRegistrado(msg.sender), \"Solo permitido a profes registrados\");\r\n        _;\r\n    }\r\n    \r\n    \r\n \r\n    /**\r\n     * Modificador para que una funcion solo la pueda ejecutar un alumno no matriculado aun.\r\n     */\r\n    modifier noMatriculados() {\r\n        \r\n        require(!estaMatriculado(msg.sender), \"Solo permitido a alumnos no matriculados\");\r\n        _;\r\n    }\r\n    \r\n    \r\n    \r\n      modifier noRegistrados() {\r\n        \r\n        require(!estaRegistrado(msg.sender), \"Solo permitido a profes no registrados\");\r\n        _;\r\n    }\r\n    \r\n        \r\n      modifier noRegistradosP() {\r\n        \r\n        require(!estaRegistradoP(msg.sender), \"Solo permitido a personas no registrados\");\r\n        _;\r\n    }\r\n    \r\n    \r\n       receive() external payable {\r\n        revert(\"No se permite la recepcion de dinero.\");\r\n    }\r\n}\r\n",
  "sourcePath": "C:\\Users\\Paula Huertas\\reslabetsit\\contracts\\ReslabEtsit.sol",
  "compiler": {
    "name": "solc",
    "version": "0.7.4+commit.3f05b770.Emscripten.clang"
  },
  "schemaVersion": "3.4.7",
  "updatedAt": "2022-06-22T16:42:34.398Z",
  "networkType": "ethereum",
  "devdoc": {
    "kind": "dev",
    "methods": {
      "automatricula(string,string)": {
        "params": {
          "_email": "El email del alumno.",
          "_nombre": "El nombre del alumno. "
        }
      },
      "laboratoriosLength()": {
        "returns": {
          "_0": "El numero de labs creadas."
        }
      },
      "matriculasLength()": {
        "returns": {
          "_0": "El numero de alumnos matriculados."
        }
      },
      "obtenerDatosPersona(address)": {
        "params": {
          "persona": "La direccion de una persona. "
        },
        "returns": {
          "_0": "los datos de una persona registrada."
        }
      },
      "puestosDelLaboratorioLength(uint256)": {
        "returns": {
          "_0": "El numero de puestos creadas."
        }
      },
      "quienSoy()": {
        "returns": {
          "_email": " El email del alumno que invoca el metodo.",
          "_nombre": "El nombre del alumno que invoca el metodo."
        }
      },
      "turnosLength()": {
        "returns": {
          "_0": "El numero de turnos creadas."
        }
      }
    },
    "version": 1
  },
  "userdoc": {
    "kind": "user",
    "methods": {
      "asignaturasRegistradasLength()": {
        "notice": "El numero de asignaturas registrados. ."
      },
      "automatricula(string,string)": {
        "notice": "Los alumnos pueden automatricularse con el metodo automatricula.  Impedir que se pueda meter un nombre vacio."
      },
      "datosAlumno(address)": {
        "notice": "Acceder a los datos de un alumno dada su direccion."
      },
      "datosProfesor(address)": {
        "notice": "Acceder a los datos de un profe dada su direccion."
      },
      "dirPersonas(string,string,uint256)": {
        "notice": "Permite obtener un address del array de personas. "
      },
      "guardarReserva(uint256,uint256,uint256)": {
        "notice": "Un alumno crea una reserva "
      },
      "laboratoriosLength()": {
        "notice": "El numero de labs  registrados"
      },
      "matriculasLength()": {
        "notice": "El numero de alumnos matriculados."
      },
      "obtenerDatosPersona(address)": {
        "notice": "Obtiene los datos de una persona registrada. "
      },
      "owner()": {
        "notice": "address del profesor que ha desplegado el contrato. El contrato lo despliega el profesor."
      },
      "personas(string,string,uint256,uint256)": {
        "notice": "Devuelve las direcciones de las personas que han asistido a algun lab en alguna de las fechas y en algun turno."
      },
      "personasLength(string,string)": {
        "notice": "Permite obtener la longitud del array de personasTotales. "
      },
      "personasTotales(string,string,uint256)": {
        "notice": "Devuelve las Direcciones de las personas que han asistido a algun lab y en alguna de las fechas."
      },
      "profesRegistradosLength()": {
        "notice": "El numero de profes registrados. ."
      },
      "puestosDelLaboratorioLength(uint256)": {
        "notice": "Te devuelve el numero de puestos registrados"
      },
      "puestosLength2(string)": {
        "notice": "Permite obtener la longitud del array de puestosTotale del lab "
      },
      "quienSoy()": {
        "notice": "Permite a un alumno obtener sus propios datos. "
      },
      "quitarReserva(uint256,uint256,uint256)": {
        "notice": "Un alumno quita su reserva - ( solo profe , owner y el propio alumnos "
      },
      "turnosLength()": {
        "notice": "Te devuelve el numero de turnos"
      },
      "turnosPorPuesto(uint256,uint256,uint256)": {
        "notice": "Dado el index de un puesto y una fecha te devuelve los turnos de un lab ."
      }
    },
    "version": 1
  }
}