{
  "contractName": "ReslabEtsit",
  "abi": [
    {
      "inputs": [],
      "stateMutability": "nonpayable",
      "type": "constructor"
    },
    {
      "inputs": [
        {
          "internalType": "uint256",
          "name": "",
          "type": "uint256"
        }
      ],
      "name": "asignaturasRegistradas",
      "outputs": [
        {
          "internalType": "string",
          "name": "nombre",
          "type": "string"
        },
        {
          "internalType": "string",
          "name": "laboratorio",
          "type": "string"
        },
        {
          "internalType": "string",
          "name": "info",
          "type": "string"
        }
      ],
      "stateMutability": "view",
      "type": "function",
      "constant": true
    },
    {
      "inputs": [
        {
          "internalType": "uint256",
          "name": "",
          "type": "uint256"
        }
      ],
      "name": "asignaturasRegistradasdir",
      "outputs": [
        {
          "internalType": "address",
          "name": "",
          "type": "address"
        }
      ],
      "stateMutability": "view",
      "type": "function",
      "constant": true
    },
    {
      "inputs": [
        {
          "internalType": "uint256",
          "name": "",
          "type": "uint256"
        }
      ],
      "name": "creditosemanal",
      "outputs": [
        {
          "internalType": "address",
          "name": "",
          "type": "address"
        }
      ],
      "stateMutability": "view",
      "type": "function",
      "constant": true
    },
    {
      "inputs": [
        {
          "internalType": "address",
          "name": "",
          "type": "address"
        }
      ],
      "name": "datosAlumno",
      "outputs": [
        {
          "internalType": "string",
          "name": "nombre",
          "type": "string"
        },
        {
          "internalType": "string",
          "name": "email",
          "type": "string"
        }
      ],
      "stateMutability": "view",
      "type": "function",
      "constant": true
    },
    {
      "inputs": [
        {
          "internalType": "address",
          "name": "",
          "type": "address"
        }
      ],
      "name": "datosPersona",
      "outputs": [
        {
          "internalType": "address",
          "name": "dir",
          "type": "address"
        }
      ],
      "stateMutability": "view",
      "type": "function",
      "constant": true
    },
    {
      "inputs": [
        {
          "internalType": "address",
          "name": "",
          "type": "address"
        }
      ],
      "name": "datosProfesor",
      "outputs": [
        {
          "internalType": "string",
          "name": "nombreP",
          "type": "string"
        },
        {
          "internalType": "string",
          "name": "emailP",
          "type": "string"
        },
        {
          "internalType": "string",
          "name": "asignaturaP",
          "type": "string"
        },
        {
          "internalType": "string",
          "name": "departamentoP",
          "type": "string"
        }
      ],
      "stateMutability": "view",
      "type": "function",
      "constant": true
    },
    {
      "inputs": [
        {
          "internalType": "uint256",
          "name": "",
          "type": "uint256"
        }
      ],
      "name": "laboratoriosRegistrados",
      "outputs": [
        {
          "internalType": "uint256",
          "name": "laboratorioindex",
          "type": "uint256"
        },
        {
          "internalType": "string",
          "name": "nombreL",
          "type": "string"
        },
        {
          "internalType": "string",
          "name": "asignaura",
          "type": "string"
        },
        {
          "internalType": "string",
          "name": "info",
          "type": "string"
        }
      ],
      "stateMutability": "view",
      "type": "function",
      "constant": true
    },
    {
      "inputs": [
        {
          "internalType": "uint256",
          "name": "",
          "type": "uint256"
        }
      ],
      "name": "matriculas",
      "outputs": [
        {
          "internalType": "address",
          "name": "",
          "type": "address"
        }
      ],
      "stateMutability": "view",
      "type": "function",
      "constant": true
    },
    {
      "inputs": [],
      "name": "owner",
      "outputs": [
        {
          "internalType": "address",
          "name": "",
          "type": "address"
        }
      ],
      "stateMutability": "view",
      "type": "function",
      "constant": true
    },
    {
      "inputs": [
        {
          "internalType": "string",
          "name": "",
          "type": "string"
        },
        {
          "internalType": "string",
          "name": "",
          "type": "string"
        },
        {
          "internalType": "uint256",
          "name": "",
          "type": "uint256"
        },
        {
          "internalType": "uint256",
          "name": "",
          "type": "uint256"
        }
      ],
      "name": "personas",
      "outputs": [
        {
          "internalType": "address",
          "name": "",
          "type": "address"
        }
      ],
      "stateMutability": "view",
      "type": "function",
      "constant": true
    },
    {
      "inputs": [
        {
          "internalType": "string",
          "name": "",
          "type": "string"
        },
        {
          "internalType": "string",
          "name": "",
          "type": "string"
        },
        {
          "internalType": "uint256",
          "name": "",
          "type": "uint256"
        }
      ],
      "name": "personasTotales",
      "outputs": [
        {
          "internalType": "address",
          "name": "",
          "type": "address"
        }
      ],
      "stateMutability": "view",
      "type": "function",
      "constant": true
    },
    {
      "inputs": [
        {
          "internalType": "uint256",
          "name": "",
          "type": "uint256"
        }
      ],
      "name": "profesRegistrados",
      "outputs": [
        {
          "internalType": "address",
          "name": "",
          "type": "address"
        }
      ],
      "stateMutability": "view",
      "type": "function",
      "constant": true
    },
    {
      "inputs": [],
      "name": "profesorP",
      "outputs": [
        {
          "internalType": "address",
          "name": "",
          "type": "address"
        }
      ],
      "stateMutability": "view",
      "type": "function",
      "constant": true
    },
    {
      "inputs": [
        {
          "internalType": "uint256",
          "name": "",
          "type": "uint256"
        },
        {
          "internalType": "uint256",
          "name": "",
          "type": "uint256"
        }
      ],
      "name": "puestos",
      "outputs": [
        {
          "internalType": "uint256",
          "name": "",
          "type": "uint256"
        }
      ],
      "stateMutability": "view",
      "type": "function",
      "constant": true
    },
    {
      "inputs": [
        {
          "internalType": "string",
          "name": "",
          "type": "string"
        },
        {
          "internalType": "uint256",
          "name": "",
          "type": "uint256"
        },
        {
          "internalType": "uint256",
          "name": "",
          "type": "uint256"
        },
        {
          "internalType": "uint256",
          "name": "",
          "type": "uint256"
        }
      ],
      "name": "puestosBuscados",
      "outputs": [
        {
          "internalType": "uint256",
          "name": "",
          "type": "uint256"
        }
      ],
      "stateMutability": "view",
      "type": "function",
      "constant": true
    },
    {
      "inputs": [
        {
          "internalType": "uint256",
          "name": "",
          "type": "uint256"
        }
      ],
      "name": "puestosRegistrados",
      "outputs": [
        {
          "internalType": "string",
          "name": "nombre",
          "type": "string"
        },
        {
          "internalType": "uint256",
          "name": "fecha",
          "type": "uint256"
        },
        {
          "internalType": "uint256",
          "name": "entradaTurno",
          "type": "uint256"
        },
        {
          "internalType": "uint256",
          "name": "salidaTurno",
          "type": "uint256"
        },
        {
          "internalType": "bool",
          "name": "estado",
          "type": "bool"
        },
        {
          "internalType": "string",
          "name": "reserva",
          "type": "string"
        }
      ],
      "stateMutability": "view",
      "type": "function",
      "constant": true
    },
    {
      "inputs": [
        {
          "internalType": "uint256",
          "name": "",
          "type": "uint256"
        },
        {
          "internalType": "uint256",
          "name": "",
          "type": "uint256"
        }
      ],
      "name": "puestosReservados",
      "outputs": [
        {
          "internalType": "address",
          "name": "dirAlumno",
          "type": "address"
        },
        {
          "internalType": "bool",
          "name": "estaReservado",
          "type": "bool"
        }
      ],
      "stateMutability": "view",
      "type": "function",
      "constant": true
    },
    {
      "inputs": [
        {
          "internalType": "string",
          "name": "",
          "type": "string"
        },
        {
          "internalType": "uint256",
          "name": "",
          "type": "uint256"
        }
      ],
      "name": "puestosTotales",
      "outputs": [
        {
          "internalType": "string",
          "name": "",
          "type": "string"
        }
      ],
      "stateMutability": "view",
      "type": "function",
      "constant": true
    },
    {
      "inputs": [
        {
          "internalType": "uint256",
          "name": "",
          "type": "uint256"
        }
      ],
      "name": "registradosP",
      "outputs": [
        {
          "internalType": "address",
          "name": "",
          "type": "address"
        }
      ],
      "stateMutability": "view",
      "type": "function",
      "constant": true
    },
    {
      "inputs": [
        {
          "internalType": "address",
          "name": "",
          "type": "address"
        }
      ],
      "name": "reservasAlumno",
      "outputs": [
        {
          "internalType": "string",
          "name": "lab",
          "type": "string"
        },
        {
          "internalType": "string",
          "name": "fecha",
          "type": "string"
        },
        {
          "internalType": "uint256",
          "name": "estado",
          "type": "uint256"
        }
      ],
      "stateMutability": "view",
      "type": "function",
      "constant": true
    },
    {
      "inputs": [
        {
          "internalType": "uint256",
          "name": "",
          "type": "uint256"
        }
      ],
      "name": "turnos",
      "outputs": [
        {
          "internalType": "string",
          "name": "nombre",
          "type": "string"
        },
        {
          "internalType": "uint256",
          "name": "fecha",
          "type": "uint256"
        },
        {
          "internalType": "uint256",
          "name": "hora",
          "type": "uint256"
        }
      ],
      "stateMutability": "view",
      "type": "function",
      "constant": true
    },
    {
      "inputs": [
        {
          "internalType": "string",
          "name": "",
          "type": "string"
        },
        {
          "internalType": "string",
          "name": "",
          "type": "string"
        },
        {
          "internalType": "uint256",
          "name": "",
          "type": "uint256"
        }
      ],
      "name": "turnos_existentes",
      "outputs": [
        {
          "internalType": "bool",
          "name": "",
          "type": "bool"
        }
      ],
      "stateMutability": "view",
      "type": "function",
      "constant": true
    },
    {
      "stateMutability": "payable",
      "type": "receive",
      "payable": true
    },
    {
      "inputs": [],
      "name": "puestosLength",
      "outputs": [
        {
          "internalType": "uint256",
          "name": "",
          "type": "uint256"
        }
      ],
      "stateMutability": "view",
      "type": "function",
      "constant": true
    },
    {
      "inputs": [],
      "name": "turnosLength",
      "outputs": [
        {
          "internalType": "uint256",
          "name": "",
          "type": "uint256"
        }
      ],
      "stateMutability": "view",
      "type": "function",
      "constant": true
    },
    {
      "inputs": [
        {
          "internalType": "uint256",
          "name": "_laboratorioindex",
          "type": "uint256"
        }
      ],
      "name": "puestosLaboratorioLength",
      "outputs": [
        {
          "internalType": "uint256",
          "name": "",
          "type": "uint256"
        }
      ],
      "stateMutability": "view",
      "type": "function",
      "constant": true
    },
    {
      "inputs": [],
      "name": "laboratoriosLength",
      "outputs": [
        {
          "internalType": "uint256",
          "name": "",
          "type": "uint256"
        }
      ],
      "stateMutability": "view",
      "type": "function",
      "constant": true
    },
    {
      "inputs": [
        {
          "internalType": "string",
          "name": "_nombre",
          "type": "string"
        },
        {
          "internalType": "string",
          "name": "_fecha",
          "type": "string"
        }
      ],
      "name": "personasLength",
      "outputs": [
        {
          "internalType": "uint256",
          "name": "",
          "type": "uint256"
        }
      ],
      "stateMutability": "view",
      "type": "function",
      "constant": true
    },
    {
      "inputs": [
        {
          "internalType": "string",
          "name": "_nombre",
          "type": "string"
        }
      ],
      "name": "puestosLength2",
      "outputs": [
        {
          "internalType": "uint256",
          "name": "",
          "type": "uint256"
        }
      ],
      "stateMutability": "view",
      "type": "function",
      "constant": true
    },
    {
      "inputs": [
        {
          "internalType": "string",
          "name": "_nombre",
          "type": "string"
        },
        {
          "internalType": "string",
          "name": "_fecha",
          "type": "string"
        },
        {
          "internalType": "uint256",
          "name": "_indice",
          "type": "uint256"
        }
      ],
      "name": "dirPersonas",
      "outputs": [
        {
          "internalType": "address",
          "name": "",
          "type": "address"
        }
      ],
      "stateMutability": "view",
      "type": "function",
      "constant": true
    },
    {
      "inputs": [
        {
          "internalType": "address",
          "name": "persona",
          "type": "address"
        }
      ],
      "name": "obtenerDatosPersona",
      "outputs": [
        {
          "internalType": "address",
          "name": "",
          "type": "address"
        }
      ],
      "stateMutability": "view",
      "type": "function",
      "constant": true
    },
    {
      "inputs": [
        {
          "internalType": "uint256",
          "name": "_laboratorioindex",
          "type": "uint256"
        }
      ],
      "name": "puestosdeLaboratorio",
      "outputs": [
        {
          "internalType": "uint256",
          "name": "",
          "type": "uint256"
        }
      ],
      "stateMutability": "view",
      "type": "function",
      "constant": true
    },
    {
      "inputs": [
        {
          "internalType": "string",
          "name": "_fecha",
          "type": "string"
        },
        {
          "internalType": "uint256",
          "name": "_entradaTurno",
          "type": "uint256"
        },
        {
          "internalType": "uint256",
          "name": "_laboratorioindex",
          "type": "uint256"
        }
      ],
      "name": "BuscaPuestoLab",
      "outputs": [
        {
          "internalType": "uint256",
          "name": "",
          "type": "uint256"
        }
      ],
      "stateMutability": "view",
      "type": "function",
      "constant": true
    },
    {
      "inputs": [
        {
          "internalType": "uint256",
          "name": "x",
          "type": "uint256"
        }
      ],
      "name": "LabPulsado",
      "outputs": [
        {
          "internalType": "string",
          "name": "",
          "type": "string"
        }
      ],
      "stateMutability": "view",
      "type": "function",
      "constant": true
    },
    {
      "inputs": [
        {
          "internalType": "uint256",
          "name": "_laboratorioindex",
          "type": "uint256"
        },
        {
          "internalType": "string",
          "name": "_nombreL",
          "type": "string"
        },
        {
          "internalType": "string",
          "name": "_asignaura",
          "type": "string"
        },
        {
          "internalType": "string",
          "name": "_Info",
          "type": "string"
        }
      ],
      "name": "creaLaboratorio",
      "outputs": [
        {
          "internalType": "uint256",
          "name": "",
          "type": "uint256"
        }
      ],
      "stateMutability": "nonpayable",
      "type": "function"
    },
    {
      "inputs": [
        {
          "internalType": "string",
          "name": "_nombreAsig",
          "type": "string"
        },
        {
          "internalType": "string",
          "name": "_lab",
          "type": "string"
        },
        {
          "internalType": "string",
          "name": "_Info",
          "type": "string"
        }
      ],
      "name": "creaAsignatura",
      "outputs": [
        {
          "internalType": "uint256",
          "name": "",
          "type": "uint256"
        }
      ],
      "stateMutability": "nonpayable",
      "type": "function"
    },
    {
      "inputs": [
        {
          "internalType": "string",
          "name": "_NombreP",
          "type": "string"
        },
        {
          "internalType": "uint256",
          "name": "_fecha",
          "type": "uint256"
        },
        {
          "internalType": "uint256",
          "name": "_entradaTurno",
          "type": "uint256"
        },
        {
          "internalType": "uint256",
          "name": "_salidaTurno",
          "type": "uint256"
        },
        {
          "internalType": "bool",
          "name": "_estado",
          "type": "bool"
        },
        {
          "internalType": "string",
          "name": "_info",
          "type": "string"
        }
      ],
      "name": "creaPuesto",
      "outputs": [
        {
          "internalType": "uint256",
          "name": "",
          "type": "uint256"
        }
      ],
      "stateMutability": "nonpayable",
      "type": "function"
    },
    {
      "inputs": [
        {
          "internalType": "string",
          "name": "_nombre",
          "type": "string"
        },
        {
          "internalType": "uint256",
          "name": "_fecha",
          "type": "uint256"
        },
        {
          "internalType": "uint256",
          "name": "_hora",
          "type": "uint256"
        }
      ],
      "name": "creaTurno",
      "outputs": [
        {
          "internalType": "uint256",
          "name": "",
          "type": "uint256"
        }
      ],
      "stateMutability": "nonpayable",
      "type": "function"
    },
    {
      "inputs": [],
      "name": "matriculasLength",
      "outputs": [
        {
          "internalType": "uint256",
          "name": "",
          "type": "uint256"
        }
      ],
      "stateMutability": "view",
      "type": "function",
      "constant": true
    },
    {
      "inputs": [],
      "name": "profesRegistradosLength",
      "outputs": [
        {
          "internalType": "uint256",
          "name": "",
          "type": "uint256"
        }
      ],
      "stateMutability": "view",
      "type": "function",
      "constant": true
    },
    {
      "inputs": [],
      "name": "asignaturasRegistradasLength",
      "outputs": [
        {
          "internalType": "uint256",
          "name": "",
          "type": "uint256"
        }
      ],
      "stateMutability": "view",
      "type": "function",
      "constant": true
    },
    {
      "inputs": [
        {
          "internalType": "string",
          "name": "_nombre",
          "type": "string"
        },
        {
          "internalType": "string",
          "name": "_email",
          "type": "string"
        }
      ],
      "name": "automatricula",
      "outputs": [],
      "stateMutability": "nonpayable",
      "type": "function"
    },
    {
      "inputs": [],
      "name": "autoregistroP",
      "outputs": [],
      "stateMutability": "nonpayable",
      "type": "function"
    },
    {
      "inputs": [
        {
          "internalType": "string",
          "name": "_nombreP",
          "type": "string"
        },
        {
          "internalType": "string",
          "name": "_emailP",
          "type": "string"
        },
        {
          "internalType": "string",
          "name": "_asignaturaP",
          "type": "string"
        },
        {
          "internalType": "string",
          "name": "_departamentoP",
          "type": "string"
        }
      ],
      "name": "autoRegistro",
      "outputs": [],
      "stateMutability": "nonpayable",
      "type": "function"
    },
    {
      "inputs": [],
      "name": "quienSoy",
      "outputs": [
        {
          "internalType": "string",
          "name": "_nombre",
          "type": "string"
        },
        {
          "internalType": "string",
          "name": "_email",
          "type": "string"
        }
      ],
      "stateMutability": "view",
      "type": "function",
      "constant": true
    },
    {
      "inputs": [],
      "name": "quienSoyP",
      "outputs": [
        {
          "internalType": "string",
          "name": "_nombreP",
          "type": "string"
        },
        {
          "internalType": "string",
          "name": "_emailP",
          "type": "string"
        },
        {
          "internalType": "string",
          "name": "_asignaturaP",
          "type": "string"
        },
        {
          "internalType": "string",
          "name": "_departamentoP",
          "type": "string"
        }
      ],
      "stateMutability": "view",
      "type": "function",
      "constant": true
    },
    {
      "inputs": [
        {
          "internalType": "address",
          "name": "persona",
          "type": "address"
        }
      ],
      "name": "estaRegistradoP",
      "outputs": [
        {
          "internalType": "bool",
          "name": "",
          "type": "bool"
        }
      ],
      "stateMutability": "view",
      "type": "function",
      "constant": true
    }
  ],
  "bytecode": "0x608060405234801561001057600080fd5b50336000806101000a81548173ffffffffffffffffffffffffffffffffffffffff021916908373ffffffffffffffffffffffffffffffffffffffff16021790555061472b806100606000396000f3fe6080604052600436106102815760003560e01c80638ee4003b1161014f578063c88da89e116100c1578063d66371031161007a578063d663710314610b77578063dd45a12f14610bb4578063ede343cf14610bf1578063ee0e7c4f14610c1a578063f0f066ef14610c57578063f874785914610c94576102c1565b8063c88da89e14610a11578063cbf2328814610a50578063cdea020914610a92578063d2a2f7de14610acf578063d4cf859d14610b0c578063d5a3e75a14610b3a576102c1565b8063aa022fa211610113578063aa022fa2146108c0578063b0b12731146108ff578063b4b4a51f1461093e578063b5daf62c14610969578063be4a935b146109a9578063c7918139146109d4576102c1565b80638ee4003b146107a15780639376d0ae146107de5780639e1d8f4b1461081b578063a4cff70d14610846578063a9b2aeac14610883576102c1565b806353766883116101f35780636bf8aad6116101ac5780636bf8aad61461066757806370d714f2146106a557806379b51b6a146106d05780637e09be7a146106fb57806387859b58146107385780638da5cb5b14610776576102c1565b8063537668831461052d5780635fdf483f1461055957806361d4c6ad14610596578063641945bf146105bf57806366668f3c146105ff5780636916662b1461063c576102c1565b806312f89eac1161024557806312f89eac146103e5578063223ca7a214610422578063296d91db1461045f578063320d07731461049c578063365d92e2146104b35780633bd20561146104f0576102c1565b806306d5162e146102c657806307025942146102f157806309c95a2b1461032e5780630c06bc021461036b5780630c312661146103a8576102c1565b366102c1576040517f08c379a00000000000000000000000000000000000000000000000000000000081526004016102b890614456565b60405180910390fd5b600080fd5b3480156102d257600080fd5b506102db610cd1565b6040516102e89190614516565b60405180910390f35b3480156102fd57600080fd5b50610318600480360381019061031391906135fa565b610cde565b604051610325919061413f565b60405180910390f35b34801561033a57600080fd5b5061035560048036038101906103509190613a72565b610d1c565b6040516103629190614516565b60405180910390f35b34801561037757600080fd5b50610392600480360381019061038d91906139f7565b610ee1565b60405161039f9190614516565b60405180910390f35b3480156103b457600080fd5b506103cf60048036038101906103ca91906135fa565b610f42565b6040516103dc919061413f565b60405180910390f35b3480156103f157600080fd5b5061040c6004803603810190610407919061393c565b610fc5565b604051610419919061419e565b60405180910390f35b34801561042e57600080fd5b5061044960048036038101906104449190613b2b565b6110a4565b604051610456919061413f565b60405180910390f35b34801561046b57600080fd5b5061048660048036038101906104819190613b54565b6110e3565b6040516104939190614516565b60405180910390f35b3480156104a857600080fd5b506104b1611281565b005b3480156104bf57600080fd5b506104da60048036038101906104d59190613b2b565b61144d565b6040516104e7919061413f565b60405180910390f35b3480156104fc57600080fd5b5061051760048036038101906105129190613b2b565b61148c565b6040516105249190614516565b60405180910390f35b34801561053957600080fd5b506105426114ac565b6040516105509291906141c0565b60405180910390f35b34801561056557600080fd5b50610580600480360381019061057b919061382a565b6116a2565b60405161058d919061413f565b60405180910390f35b3480156105a257600080fd5b506105bd60048036038101906105b89190613664565b611729565b005b3480156105cb57600080fd5b506105e660048036038101906105e191906135fa565b6118c1565b6040516105f69493929190614243565b60405180910390f35b34801561060b57600080fd5b5061062660048036038101906106219190613664565b611b51565b6040516106339190614516565b60405180910390f35b34801561064857600080fd5b50610651611bac565b60405161065e9190614516565b60405180910390f35b34801561067357600080fd5b5061068e600480360381019061068991906135fa565b611bb9565b60405161069c9291906141c0565b60405180910390f35b3480156106b157600080fd5b506106ba611d0d565b6040516106c79190614516565b60405180910390f35b3480156106dc57600080fd5b506106e5611d1a565b6040516106f29190614516565b60405180910390f35b34801561070757600080fd5b50610722600480360381019061071d91906135fa565b611d27565b60405161072f9190614183565b60405180910390f35b34801561074457600080fd5b5061075f600480360381019061075a9190613bff565b611dc8565b60405161076d92919061415a565b60405180910390f35b34801561078257600080fd5b5061078b611e26565b604051610798919061413f565b60405180910390f35b3480156107ad57600080fd5b506107c860048036038101906107c39190613623565b611e4a565b6040516107d59190614516565b60405180910390f35b3480156107ea57600080fd5b506108056004803603810190610800919061382a565b611e88565b6040516108129190614183565b60405180910390f35b34801561082757600080fd5b50610830611ef0565b60405161083d9190614516565b60405180910390f35b34801561085257600080fd5b5061086d600480360381019061086891906136d0565b611efd565b60405161087a9190614516565b60405180910390f35b34801561088f57600080fd5b506108aa60048036038101906108a59190613990565b61208a565b6040516108b79190614516565b60405180910390f35b3480156108cc57600080fd5b506108e760048036038101906108e29190613b2b565b6120d9565b6040516108f6939291906142e9565b60405180910390f35b34801561090b57600080fd5b50610926600480360381019061092191906135fa565b6121ab565b604051610935939291906142a4565b60405180910390f35b34801561094a57600080fd5b50610953612305565b6040516109609190614516565b60405180910390f35b34801561097557600080fd5b50610990600480360381019061098b9190613b2b565b612312565b6040516109a09493929190614531565b60405180910390f35b3480156109b557600080fd5b506109be61251a565b6040516109cb919061413f565b60405180910390f35b3480156109e057600080fd5b506109fb60048036038101906109f69190613b2b565b612540565b604051610a08919061413f565b60405180910390f35b348015610a1d57600080fd5b50610a386004803603810190610a339190613b2b565b61257f565b604051610a47939291906141f7565b60405180910390f35b348015610a5c57600080fd5b50610a776004803603810190610a729190613b2b565b612781565b604051610a8996959493929190614327565b60405180910390f35b348015610a9e57600080fd5b50610ab96004803603810190610ab49190613bff565b61290a565b604051610ac69190614516565b60405180910390f35b348015610adb57600080fd5b50610af66004803603810190610af19190613b2b565b61293b565b604051610b03919061413f565b60405180910390f35b348015610b1857600080fd5b50610b2161297a565b604051610b319493929190614243565b60405180910390f35b348015610b4657600080fd5b50610b616004803603810190610b5c91906138a9565b612cc7565b604051610b6e919061413f565b60405180910390f35b348015610b8357600080fd5b50610b9e6004803603810190610b999190613b2b565b612d5b565b604051610bab919061419e565b60405180910390f35b348015610bc057600080fd5b50610bdb6004803603810190610bd69190613990565b612e1b565b604051610be89190614516565b60405180910390f35b348015610bfd57600080fd5b50610c186004803603810190610c139190613767565b612f82565b005b348015610c2657600080fd5b50610c416004803603810190610c3c9190613b2b565b613162565b604051610c4e919061413f565b60405180910390f35b348015610c6357600080fd5b50610c7e6004803603810190610c799190613b2b565b6131a1565b604051610c8b9190614516565b60405180910390f35b348015610ca057600080fd5b50610cbb6004803603810190610cb6919061382a565b6131c1565b604051610cc8919061413f565b60405180910390f35b6000600e80549050905090565b60026020528060005260406000206000915090508060000160009054906101000a900473ffffffffffffffffffffffffffffffffffffffff16905081565b60008060009054906101000a900473ffffffffffffffffffffffffffffffffffffffff1673ffffffffffffffffffffffffffffffffffffffff163373ffffffffffffffffffffffffffffffffffffffff1614610dad576040517f08c379a0000000000000000000000000000000000000000000000000000000008152600401610da4906144f6565b60405180910390fd5b6060879050600081511415610df7576040517f08c379a0000000000000000000000000000000000000000000000000000000008152600401610dee90614496565b60405180910390fd5b600e6040518060c001604052808a815260200189815260200188815260200187815260200186151581526020018581525090806001815401808255809150506001900390600052602060002090600602016000909190919091506000820151816000019080519060200190610e6d92919061347a565b5060208201518160010155604082015181600201556060820151816003015560808201518160040160006101000a81548160ff02191690831515021790555060a0820151816005019080519060200190610ec892919061347a565b5050506001600e80549050039150509695505050505050565b6016848051602081018201805184825260208301602085012081835280955050505050506020528260005260406000206020528160005260406000208181548110610f2b57600080fd5b906000526020600020016000935093505050505481565b6000610f4d82613290565b610f5a5760009050610fc0565b600260008373ffffffffffffffffffffffffffffffffffffffff1673ffffffffffffffffffffffffffffffffffffffff16815260200190815260200160002060000160009054906101000a900473ffffffffffffffffffffffffffffffffffffffff1690505b919050565b6014828051602081018201805184825260208301602085012081835280955050505050508181548110610ff757600080fd5b90600052602060002001600091509150508054600181600116156101000203166002900480601f01602080910402602001604051908101604052809291908181526020018280546001816001161561010002031660029004801561109c5780601f106110715761010080835404028352916020019161109c565b820191906000526020600020905b81548152906001019060200180831161107f57829003601f168201915b505050505081565b600981815481106110b457600080fd5b906000526020600020016000915054906101000a900473ffffffffffffffffffffffffffffffffffffffff1681565b60008060009054906101000a900473ffffffffffffffffffffffffffffffffffffffff1673ffffffffffffffffffffffffffffffffffffffff163373ffffffffffffffffffffffffffffffffffffffff1614611174576040517f08c379a000000000000000000000000000000000000000000000000000000000815260040161116b906144f6565b60405180910390fd5b60608490506000815114156111be576040517f08c379a00000000000000000000000000000000000000000000000000000000081526004016111b590614496565b60405180910390fd5b600d604051806080016040528088815260200187815260200186815260200185815250908060018154018082558091505060019003906000526020600020906004020160009091909190915060008201518160000155602082015181600101908051906020019061123092919061347a565b50604082015181600201908051906020019061124d92919061347a565b50606082015181600301908051906020019061126a92919061347a565b5050506001600d8054905003915050949350505050565b61128a33611d27565b156112ca576040517f08c379a00000000000000000000000000000000000000000000000000000000081526004016112c1906144b6565b60405180910390fd5b600073ffffffffffffffffffffffffffffffffffffffff163373ffffffffffffffffffffffffffffffffffffffff16141561133a576040517f08c379a000000000000000000000000000000000000000000000000000000000815260040161133190614396565b60405180910390fd5b60405180602001604052803373ffffffffffffffffffffffffffffffffffffffff16815250600260003373ffffffffffffffffffffffffffffffffffffffff1673ffffffffffffffffffffffffffffffffffffffff16815260200190815260200160002060008201518160000160006101000a81548173ffffffffffffffffffffffffffffffffffffffff021916908373ffffffffffffffffffffffffffffffffffffffff1602179055509050506009339080600181540180825580915050600190039060005260206000200160009091909190916101000a81548173ffffffffffffffffffffffffffffffffffffffff021916908373ffffffffffffffffffffffffffffffffffffffff160217905550565b600a818154811061145d57600080fd5b906000526020600020016000915054906101000a900473ffffffffffffffffffffffffffffffffffffffff1681565b600060156000838152602001908152602001600020805490509050919050565b6060806114b833613385565b6114f7576040517f08c379a00000000000000000000000000000000000000000000000000000000081526004016114ee906143f6565b60405180910390fd5b6114ff613508565b600360003373ffffffffffffffffffffffffffffffffffffffff1673ffffffffffffffffffffffffffffffffffffffff168152602001908152602001600020604051806040016040529081600082018054600181600116156101000203166002900480601f0160208091040260200160405190810160405280929190818152602001828054600181600116156101000203166002900480156115e25780601f106115b7576101008083540402835291602001916115e2565b820191906000526020600020905b8154815290600101906020018083116115c557829003601f168201915b50505050508152602001600182018054600181600116156101000203166002900480601f0160208091040260200160405190810160405280929190818152602001828054600181600116156101000203166002900480156116845780601f1061165957610100808354040283529160200191611684565b820191906000526020600020905b81548152906001019060200180831161166757829003601f168201915b50505050508152505090508060000151925080602001519150509091565b6013838051602081018201805184825260208301602085012081835280955050505050508280516020810182018051848252602083016020850120818352809550505050505081815481106116f657600080fd5b90600052602060002001600092509250509054906101000a900473ffffffffffffffffffffffffffffffffffffffff1681565b61173233613385565b15611772576040517f08c379a0000000000000000000000000000000000000000000000000000000008152600401611769906143b6565b60405180910390fd5b60608290506000815114156117bc576040517f08c379a00000000000000000000000000000000000000000000000000000000081526004016117b3906143d6565b60405180910390fd5b6117c4613508565b604051806040016040528085815260200184815250905080600360003373ffffffffffffffffffffffffffffffffffffffff1673ffffffffffffffffffffffffffffffffffffffff168152602001908152602001600020600082015181600001908051906020019061183792919061347a565b50602082015181600101908051906020019061185492919061347a565b509050506007339080600181540180825580915050600190039060005260206000200160009091909190916101000a81548173ffffffffffffffffffffffffffffffffffffffff021916908373ffffffffffffffffffffffffffffffffffffffff16021790555050505050565b6004602052806000526040600020600091509050806000018054600181600116156101000203166002900480601f01602080910402602001604051908101604052809291908181526020018280546001816001161561010002031660029004801561196d5780601f106119425761010080835404028352916020019161196d565b820191906000526020600020905b81548152906001019060200180831161195057829003601f168201915b505050505090806001018054600181600116156101000203166002900480601f016020809104026020016040519081016040528092919081815260200182805460018160011615610100020316600290048015611a0b5780601f106119e057610100808354040283529160200191611a0b565b820191906000526020600020905b8154815290600101906020018083116119ee57829003601f168201915b505050505090806002018054600181600116156101000203166002900480601f016020809104026020016040519081016040528092919081815260200182805460018160011615610100020316600290048015611aa95780601f10611a7e57610100808354040283529160200191611aa9565b820191906000526020600020905b815481529060010190602001808311611a8c57829003601f168201915b505050505090806003018054600181600116156101000203166002900480601f016020809104026020016040519081016040528092919081815260200182805460018160011615610100020316600290048015611b475780601f10611b1c57610100808354040283529160200191611b47565b820191906000526020600020905b815481529060010190602001808311611b2a57829003601f168201915b5050505050905084565b600080601383604051611b649190614128565b908152602001604051809103902084604051611b809190614128565b90815260200160405180910390208054905090506000811415611ba257600190505b8091505092915050565b6000600f80549050905090565b6003602052806000526040600020600091509050806000018054600181600116156101000203166002900480601f016020809104026020016040519081016040528092919081815260200182805460018160011615610100020316600290048015611c655780601f10611c3a57610100808354040283529160200191611c65565b820191906000526020600020905b815481529060010190602001808311611c4857829003601f168201915b505050505090806001018054600181600116156101000203166002900480601f016020809104026020016040519081016040528092919081815260200182805460018160011615610100020316600290048015611d035780601f10611cd857610100808354040283529160200191611d03565b820191906000526020600020905b815481529060010190602001808311611ce657829003601f168201915b5050505050905082565b6000600c80549050905090565b6000600880549050905090565b600080600260008473ffffffffffffffffffffffffffffffffffffffff1673ffffffffffffffffffffffffffffffffffffffff16815260200190815260200160002060000160009054906101000a900473ffffffffffffffffffffffffffffffffffffffff169050600073ffffffffffffffffffffffffffffffffffffffff168173ffffffffffffffffffffffffffffffffffffffff161415915050919050565b6017602052816000526040600020602052806000526040600020600091509150508060000160009054906101000a900473ffffffffffffffffffffffffffffffffffffffff16908060000160149054906101000a900460ff16905082565b60008054906101000a900473ffffffffffffffffffffffffffffffffffffffff1681565b600080601483604051611e5d9190614128565b90815260200160405180910390208054905090506000811415611e7f57600190505b80915050919050565b60118380516020810182018051848252602083016020850120818352809550505050505082805160208101820180518482526020830160208501208183528095505050505050602052806000526040600020600092509250509054906101000a900460ff1681565b6000600780549050905090565b60008060009054906101000a900473ffffffffffffffffffffffffffffffffffffffff1673ffffffffffffffffffffffffffffffffffffffff163373ffffffffffffffffffffffffffffffffffffffff1614611f8e576040517f08c379a0000000000000000000000000000000000000000000000000000000008152600401611f85906144f6565b60405180910390fd5b6060849050600081511415611fd8576040517f08c379a0000000000000000000000000000000000000000000000000000000008152600401611fcf90614436565b60405180910390fd5b600c6040518060600160405280878152602001868152602001858152509080600181540180825580915050600190039060005260206000209060030201600090919091909150600082015181600001908051906020019061203a92919061347a565b50602082015181600101908051906020019061205792919061347a565b50604082015181600201908051906020019061207492919061347a565b5050506001600c80549050039150509392505050565b600060168460405161209c9190614128565b9081526020016040518091039020600084815260200190815260200160002060008381526020019081526020016000208054905090509392505050565b600f81815481106120e957600080fd5b9060005260206000209060030201600091509050806000018054600181600116156101000203166002900480601f0160208091040260200160405190810160405280929190818152602001828054600181600116156101000203166002900480156121955780601f1061216a57610100808354040283529160200191612195565b820191906000526020600020905b81548152906001019060200180831161217857829003601f168201915b5050505050908060010154908060020154905083565b6010602052806000526040600020600091509050806000018054600181600116156101000203166002900480601f0160208091040260200160405190810160405280929190818152602001828054600181600116156101000203166002900480156122575780601f1061222c57610100808354040283529160200191612257565b820191906000526020600020905b81548152906001019060200180831161223a57829003601f168201915b505050505090806001018054600181600116156101000203166002900480601f0160208091040260200160405190810160405280929190818152602001828054600181600116156101000203166002900480156122f55780601f106122ca576101008083540402835291602001916122f5565b820191906000526020600020905b8154815290600101906020018083116122d857829003601f168201915b5050505050908060020154905083565b6000600d80549050905090565b600d818154811061232257600080fd5b9060005260206000209060040201600091509050806000015490806001018054600181600116156101000203166002900480601f0160208091040260200160405190810160405280929190818152602001828054600181600116156101000203166002900480156123d45780601f106123a9576101008083540402835291602001916123d4565b820191906000526020600020905b8154815290600101906020018083116123b757829003601f168201915b505050505090806002018054600181600116156101000203166002900480601f0160208091040260200160405190810160405280929190818152602001828054600181600116156101000203166002900480156124725780601f1061244757610100808354040283529160200191612472565b820191906000526020600020905b81548152906001019060200180831161245557829003601f168201915b505050505090806003018054600181600116156101000203166002900480601f0160208091040260200160405190810160405280929190818152602001828054600181600116156101000203166002900480156125105780601f106124e557610100808354040283529160200191612510565b820191906000526020600020905b8154815290600101906020018083116124f357829003601f168201915b5050505050905084565b600160009054906101000a900473ffffffffffffffffffffffffffffffffffffffff1681565b6007818154811061255057600080fd5b906000526020600020016000915054906101000a900473ffffffffffffffffffffffffffffffffffffffff1681565b600c818154811061258f57600080fd5b9060005260206000209060030201600091509050806000018054600181600116156101000203166002900480601f01602080910402602001604051908101604052809291908181526020018280546001816001161561010002031660029004801561263b5780601f106126105761010080835404028352916020019161263b565b820191906000526020600020905b81548152906001019060200180831161261e57829003601f168201915b505050505090806001018054600181600116156101000203166002900480601f0160208091040260200160405190810160405280929190818152602001828054600181600116156101000203166002900480156126d95780601f106126ae576101008083540402835291602001916126d9565b820191906000526020600020905b8154815290600101906020018083116126bc57829003601f168201915b505050505090806002018054600181600116156101000203166002900480601f0160208091040260200160405190810160405280929190818152602001828054600181600116156101000203166002900480156127775780601f1061274c57610100808354040283529160200191612777565b820191906000526020600020905b81548152906001019060200180831161275a57829003601f168201915b5050505050905083565b600e818154811061279157600080fd5b9060005260206000209060060201600091509050806000018054600181600116156101000203166002900480601f01602080910402602001604051908101604052809291908181526020018280546001816001161561010002031660029004801561283d5780601f106128125761010080835404028352916020019161283d565b820191906000526020600020905b81548152906001019060200180831161282057829003601f168201915b5050505050908060010154908060020154908060030154908060040160009054906101000a900460ff1690806005018054600181600116156101000203166002900480601f0160208091040260200160405190810160405280929190818152602001828054600181600116156101000203166002900480156129005780601f106128d557610100808354040283529160200191612900565b820191906000526020600020905b8154815290600101906020018083116128e357829003601f168201915b5050505050905086565b6015602052816000526040600020818154811061292657600080fd5b90600052602060002001600091509150505481565b600b818154811061294b57600080fd5b906000526020600020016000915054906101000a900473ffffffffffffffffffffffffffffffffffffffff1681565b60608060608061298933613290565b6129c8576040517f08c379a00000000000000000000000000000000000000000000000000000000081526004016129bf90614416565b60405180910390fd5b6129d0613522565b600460003373ffffffffffffffffffffffffffffffffffffffff1673ffffffffffffffffffffffffffffffffffffffff168152602001908152602001600020604051806080016040529081600082018054600181600116156101000203166002900480601f016020809104026020016040519081016040528092919081815260200182805460018160011615610100020316600290048015612ab35780601f10612a8857610100808354040283529160200191612ab3565b820191906000526020600020905b815481529060010190602001808311612a9657829003601f168201915b50505050508152602001600182018054600181600116156101000203166002900480601f016020809104026020016040519081016040528092919081815260200182805460018160011615610100020316600290048015612b555780601f10612b2a57610100808354040283529160200191612b55565b820191906000526020600020905b815481529060010190602001808311612b3857829003601f168201915b50505050508152602001600282018054600181600116156101000203166002900480601f016020809104026020016040519081016040528092919081815260200182805460018160011615610100020316600290048015612bf75780601f10612bcc57610100808354040283529160200191612bf7565b820191906000526020600020905b815481529060010190602001808311612bda57829003601f168201915b50505050508152602001600382018054600181600116156101000203166002900480601f016020809104026020016040519081016040528092919081815260200182805460018160011615610100020316600290048015612c995780601f10612c6e57610100808354040283529160200191612c99565b820191906000526020600020905b815481529060010190602001808311612c7c57829003601f168201915b5050505050815250509050806000015194508060200151935080606001519150806040015192505090919293565b601284805160208101820180518482526020830160208501208183528095505050505050838051602081018201805184825260208301602085012081835280955050505050506020528160005260406000208181548110612d2757600080fd5b9060005260206000200160009350935050509054906101000a900473ffffffffffffffffffffffffffffffffffffffff1681565b6060600d8281548110612d6a57fe5b90600052602060002090600402016001018054600181600116156101000203166002900480601f016020809104026020016040519081016040528092919081815260200182805460018160011615610100020316600290048015612e0f5780601f10612de457610100808354040283529160200191612e0f565b820191906000526020600020905b815481529060010190602001808311612df257829003601f168201915b50505050509050919050565b60008060009054906101000a900473ffffffffffffffffffffffffffffffffffffffff1673ffffffffffffffffffffffffffffffffffffffff163373ffffffffffffffffffffffffffffffffffffffff1614612eac576040517f08c379a0000000000000000000000000000000000000000000000000000000008152600401612ea3906144f6565b60405180910390fd5b6060849050600081511415612ef6576040517f08c379a0000000000000000000000000000000000000000000000000000000008152600401612eed906144d6565b60405180910390fd5b600f60405180606001604052808781526020018681526020018581525090806001815401808255809150506001900390600052602060002090600302016000909190919091506000820151816000019080519060200190612f5892919061347a565b50602082015181600101556040820151816002015550506001600f80549050039150509392505050565b612f8b33613290565b15612fcb576040517f08c379a0000000000000000000000000000000000000000000000000000000008152600401612fc290614476565b60405180910390fd5b6060849050600081511415613015576040517f08c379a000000000000000000000000000000000000000000000000000000000815260040161300c906143d6565b60405180910390fd5b61301d613522565b604051806080016040528087815260200186815260200185815260200184815250905080600460003373ffffffffffffffffffffffffffffffffffffffff1673ffffffffffffffffffffffffffffffffffffffff168152602001908152602001600020600082015181600001908051906020019061309c92919061347a565b5060208201518160010190805190602001906130b992919061347a565b5060408201518160020190805190602001906130d692919061347a565b5060608201518160030190805190602001906130f392919061347a565b509050506008339080600181540180825580915050600190039060005260206000200160009091909190916101000a81548173ffffffffffffffffffffffffffffffffffffffff021916908373ffffffffffffffffffffffffffffffffffffffff160217905550505050505050565b6008818154811061317257600080fd5b906000526020600020016000915054906101000a900473ffffffffffffffffffffffffffffffffffffffff1681565b600060156000838152602001908152602001600020805490509050919050565b6000806013846040516131d49190614128565b9081526020016040518091039020856040516131f09190614128565b908152602001604051809103902080549050111561328557600060138460405161321a9190614128565b9081526020016040518091039020856040516132369190614128565b9081526020016040518091039020838154811061324f57fe5b9060005260206000200160009054906101000a900473ffffffffffffffffffffffffffffffffffffffff16905080915050613289565b3390505b9392505050565b60006060600460008473ffffffffffffffffffffffffffffffffffffffff1673ffffffffffffffffffffffffffffffffffffffff1681526020019081526020016000206000018054600181600116156101000203166002900480601f01602080910402602001604051908101604052809291908181526020018280546001816001161561010002031660029004801561336a5780601f1061333f5761010080835404028352916020019161336a565b820191906000526020600020905b81548152906001019060200180831161334d57829003601f168201915b50505050509050606081905060008151141592505050919050565b60006060600360008473ffffffffffffffffffffffffffffffffffffffff1673ffffffffffffffffffffffffffffffffffffffff1681526020019081526020016000206000018054600181600116156101000203166002900480601f01602080910402602001604051908101604052809291908181526020018280546001816001161561010002031660029004801561345f5780601f106134345761010080835404028352916020019161345f565b820191906000526020600020905b81548152906001019060200180831161344257829003601f168201915b50505050509050606081905060008151141592505050919050565b828054600181600116156101000203166002900490600052602060002090601f0160209004810192826134b057600085556134f7565b82601f106134c957805160ff19168380011785556134f7565b828001600101855582156134f7579182015b828111156134f65782518255916020019190600101906134db565b5b509050613504919061354a565b5090565b604051806040016040528060608152602001606081525090565b6040518060800160405280606081526020016060815260200160608152602001606081525090565b5b8082111561356357600081600090555060010161354b565b5090565b600081359050613576816146b0565b92915050565b60008135905061358b816146c7565b92915050565b600082601f8301126135a257600080fd5b81356135b56135b0826145bc565b61458b565b915080825260208301602083018583830111156135d157600080fd5b6135dc83828461465b565b50505092915050565b6000813590506135f4816146de565b92915050565b60006020828403121561360c57600080fd5b600061361a84828501613567565b91505092915050565b60006020828403121561363557600080fd5b600082013567ffffffffffffffff81111561364f57600080fd5b61365b84828501613591565b91505092915050565b6000806040838503121561367757600080fd5b600083013567ffffffffffffffff81111561369157600080fd5b61369d85828601613591565b925050602083013567ffffffffffffffff8111156136ba57600080fd5b6136c685828601613591565b9150509250929050565b6000806000606084860312156136e557600080fd5b600084013567ffffffffffffffff8111156136ff57600080fd5b61370b86828701613591565b935050602084013567ffffffffffffffff81111561372857600080fd5b61373486828701613591565b925050604084013567ffffffffffffffff81111561375157600080fd5b61375d86828701613591565b9150509250925092565b6000806000806080858703121561377d57600080fd5b600085013567ffffffffffffffff81111561379757600080fd5b6137a387828801613591565b945050602085013567ffffffffffffffff8111156137c057600080fd5b6137cc87828801613591565b935050604085013567ffffffffffffffff8111156137e957600080fd5b6137f587828801613591565b925050606085013567ffffffffffffffff81111561381257600080fd5b61381e87828801613591565b91505092959194509250565b60008060006060848603121561383f57600080fd5b600084013567ffffffffffffffff81111561385957600080fd5b61386586828701613591565b935050602084013567ffffffffffffffff81111561388257600080fd5b61388e86828701613591565b925050604061389f868287016135e5565b9150509250925092565b600080600080608085870312156138bf57600080fd5b600085013567ffffffffffffffff8111156138d957600080fd5b6138e587828801613591565b945050602085013567ffffffffffffffff81111561390257600080fd5b61390e87828801613591565b935050604061391f878288016135e5565b9250506060613930878288016135e5565b91505092959194509250565b6000806040838503121561394f57600080fd5b600083013567ffffffffffffffff81111561396957600080fd5b61397585828601613591565b9250506020613986858286016135e5565b9150509250929050565b6000806000606084860312156139a557600080fd5b600084013567ffffffffffffffff8111156139bf57600080fd5b6139cb86828701613591565b93505060206139dc868287016135e5565b92505060406139ed868287016135e5565b9150509250925092565b60008060008060808587031215613a0d57600080fd5b600085013567ffffffffffffffff811115613a2757600080fd5b613a3387828801613591565b9450506020613a44878288016135e5565b9350506040613a55878288016135e5565b9250506060613a66878288016135e5565b91505092959194509250565b60008060008060008060c08789031215613a8b57600080fd5b600087013567ffffffffffffffff811115613aa557600080fd5b613ab189828a01613591565b9650506020613ac289828a016135e5565b9550506040613ad389828a016135e5565b9450506060613ae489828a016135e5565b9350506080613af589828a0161357c565b92505060a087013567ffffffffffffffff811115613b1257600080fd5b613b1e89828a01613591565b9150509295509295509295565b600060208284031215613b3d57600080fd5b6000613b4b848285016135e5565b91505092915050565b60008060008060808587031215613b6a57600080fd5b6000613b78878288016135e5565b945050602085013567ffffffffffffffff811115613b9557600080fd5b613ba187828801613591565b935050604085013567ffffffffffffffff811115613bbe57600080fd5b613bca87828801613591565b925050606085013567ffffffffffffffff811115613be757600080fd5b613bf387828801613591565b91505092959194509250565b60008060408385031215613c1257600080fd5b6000613c20858286016135e5565b9250506020613c31858286016135e5565b9150509250929050565b613c4481614613565b82525050565b613c5381614625565b82525050565b6000613c64826145ec565b613c6e81856145f7565b9350613c7e81856020860161466a565b613c878161469f565b840191505092915050565b6000613c9d826145ec565b613ca78185614608565b9350613cb781856020860161466a565b80840191505092915050565b6000613cd0601f836145f7565b91507f456c2061646472657373206e6f20707565646520657374617220766163696f006000830152602082019050919050565b6000613d106028836145f7565b91507f536f6c6f207065726d697469646f206120616c756d6e6f73206e6f206d61747260008301527f6963756c61646f730000000000000000000000000000000000000000000000006020830152604082019050919050565b6000613d76601c836145f7565b91507f456c206e6f6d627265206e6f2070756564652073657220766163696f000000006000830152602082019050919050565b6000613db66025836145f7565b91507f536f6c6f207065726d697469646f206120616c756d6e6f73206d61747269637560008301527f6c61646f730000000000000000000000000000000000000000000000000000006020830152604082019050919050565b6000613e1c6023836145f7565b91507f536f6c6f207065726d697469646f20612070726f66657320726567697374726160008301527f646f7300000000000000000000000000000000000000000000000000000000006020830152604082019050919050565b6000613e826027836145f7565b91507f456c206e6f6d627265206465206c612061736967206e6f20707565646520736560008301527f7220766163696f000000000000000000000000000000000000000000000000006020830152604082019050919050565b6000613ee86025836145f7565b91507f4e6f207365207065726d697465206c6120726563657063696f6e20646520646960008301527f6e65726f2e0000000000000000000000000000000000000000000000000000006020830152604082019050919050565b6000613f4e6026836145f7565b91507f536f6c6f207065726d697469646f20612070726f666573206e6f20726567697360008301527f747261646f7300000000000000000000000000000000000000000000000000006020830152604082019050919050565b6000613fb46024836145f7565b91507f456c206e6f6d6272652064656c206c6162206e6f20707565646520736572207660008301527f6163696f000000000000000000000000000000000000000000000000000000006020830152604082019050919050565b600061401a6028836145f7565b91507f536f6c6f207065726d697469646f206120706572736f6e6173206e6f2072656760008301527f6973747261646f730000000000000000000000000000000000000000000000006020830152604082019050919050565b6000614080602d836145f7565b91507f456c206e6f6d627265206465206c61206576616c756163696f6e206e6f20707560008301527f6564652073657220766163696f000000000000000000000000000000000000006020830152604082019050919050565b60006140e66017836145f7565b91507f536f6c6f207065726d697469646f20616c206f776e65720000000000000000006000830152602082019050919050565b61412281614651565b82525050565b60006141348284613c92565b915081905092915050565b60006020820190506141546000830184613c3b565b92915050565b600060408201905061416f6000830185613c3b565b61417c6020830184613c4a565b9392505050565b60006020820190506141986000830184613c4a565b92915050565b600060208201905081810360008301526141b88184613c59565b905092915050565b600060408201905081810360008301526141da8185613c59565b905081810360208301526141ee8184613c59565b90509392505050565b600060608201905081810360008301526142118186613c59565b905081810360208301526142258185613c59565b905081810360408301526142398184613c59565b9050949350505050565b6000608082019050818103600083015261425d8187613c59565b905081810360208301526142718186613c59565b905081810360408301526142858185613c59565b905081810360608301526142998184613c59565b905095945050505050565b600060608201905081810360008301526142be8186613c59565b905081810360208301526142d28185613c59565b90506142e16040830184614119565b949350505050565b600060608201905081810360008301526143038186613c59565b90506143126020830185614119565b61431f6040830184614119565b949350505050565b600060c08201905081810360008301526143418189613c59565b90506143506020830188614119565b61435d6040830187614119565b61436a6060830186614119565b6143776080830185613c4a565b81810360a08301526143898184613c59565b9050979650505050505050565b600060208201905081810360008301526143af81613cc3565b9050919050565b600060208201905081810360008301526143cf81613d03565b9050919050565b600060208201905081810360008301526143ef81613d69565b9050919050565b6000602082019050818103600083015261440f81613da9565b9050919050565b6000602082019050818103600083015261442f81613e0f565b9050919050565b6000602082019050818103600083015261444f81613e75565b9050919050565b6000602082019050818103600083015261446f81613edb565b9050919050565b6000602082019050818103600083015261448f81613f41565b9050919050565b600060208201905081810360008301526144af81613fa7565b9050919050565b600060208201905081810360008301526144cf8161400d565b9050919050565b600060208201905081810360008301526144ef81614073565b9050919050565b6000602082019050818103600083015261450f816140d9565b9050919050565b600060208201905061452b6000830184614119565b92915050565b60006080820190506145466000830187614119565b81810360208301526145588186613c59565b9050818103604083015261456c8185613c59565b905081810360608301526145808184613c59565b905095945050505050565b6000604051905081810181811067ffffffffffffffff821117156145b2576145b161469d565b5b8060405250919050565b600067ffffffffffffffff8211156145d7576145d661469d565b5b601f19601f8301169050602081019050919050565b600081519050919050565b600082825260208201905092915050565b600081905092915050565b600061461e82614631565b9050919050565b60008115159050919050565b600073ffffffffffffffffffffffffffffffffffffffff82169050919050565b6000819050919050565b82818337600083830152505050565b60005b8381101561468857808201518184015260208101905061466d565b83811115614697576000848401525b50505050565bfe5b6000601f19601f8301169050919050565b6146b981614613565b81146146c457600080fd5b50565b6146d081614625565b81146146db57600080fd5b50565b6146e781614651565b81146146f257600080fd5b5056fea26469706673582212208c9a7289625339f1862b8d5ce8f4618fb32289766f828ca3a5d819cb6068568a64736f6c63430007040033",
  "immutableReferences": {},
  "source": "pragma solidity ^0.7.4;\r\npragma experimental ABIEncoderV2;//enabled when passing an array of string(struct) as a function paramete\r\n\r\n\r\n/*\r\n*falta : \r\n*crear lo de las asignaturas con los laborarios y puestos a los que perteneces y las caracteristicas que desepean cada puesto \r\n*crear las reservas , se va a reservar por semana un puesto de un determinado laboratorio \r\n*/\r\n\r\n\r\ncontract ReslabEtsit {\r\n    \r\n   \r\n    /**\r\n     * address del profesor que ha desplegado el contrato.\r\n     * El contrato lo despliega el profesor.\r\n     */\r\n    address public owner;\r\n    address public profesorP;\r\n     \r\n    \r\n    /// Nombre de la asignatura\r\n    //string public nombre;\r\n    \r\n   \r\n    \r\n    /**\r\n     * Datos de un puesto\r\n     */\r\n     \r\n     \r\n     \r\n    enum TipoSO {windows, macos , linux}\r\n    \r\n    enum TipoConexionesRed { cable, inalambrico} // array de strings \r\n\r\n    \r\n    \r\n   \r\n   // enum Horario { turnom ,turnot}//poenr horas y turnos en enum???? array de horas \r\n    \r\n    struct DatosPuesto {\r\n       \r\n\tstring nombre;\r\n\tuint fecha;\r\n\tuint entradaTurno;\r\n\tuint salidaTurno;\r\n    \r\n\tbool estado;\r\n\t\r\n\tstring reserva; //enumerado del sistema operativo!!!!!!!!!!!\r\n       \r\n    }\r\n    \r\n    \r\n    struct DatosTurnos{\r\n        string nombre;\r\n        uint fecha;\r\n        uint hora;\r\n    }\r\n    \r\n    \r\n    /// puestos de la asignatura.\r\n   // Puesto[] public puestos;\r\n    \r\n    //labs de la asignatura\r\n    \r\n   // Laboratorio[] public laboratorios;\r\n   \r\n   \r\n    /**\r\n    * datos de todos los labs con sus parametro en la pantalla de inicio\r\n    * DUDA -> QUIERO PONERARRAY DE STRING DE ASIGNATURA!!\r\n    **/\r\n    struct DatosLaboratorio {\r\n        uint laboratorioindex;\r\n        \r\n        string nombreL;\r\n        string asignaura;\r\n        string info;\r\n        \r\n        //string[] asignaturaL;\r\n       \r\n    }\r\n\r\n\r\n\r\n\r\n    \r\n    \r\n    /**\r\n    * datos del alumno que se registra \r\n    **/\r\n   // datos persona \r\n    struct DatosPersona {\r\n\taddress dir;\r\n    }\r\n\r\n    /// Datos de un alumno.\r\n    struct DatosAlumno {\r\n        string nombre;\r\n        string email;\r\n        \r\n    }\r\n    \r\n    /**\r\n     * Datos profe que se registra \r\n     * */\r\n     \r\n    \r\n    struct DatosProfesor{\r\n        string nombreP;\r\n        string emailP;\r\n        string asignaturaP;\r\n        string departamentoP;\r\n    }\r\n    \r\n    \r\n\r\n\r\n\r\n\r\n\r\n    \r\n    struct DatosAsignatura{\r\n        string nombre;\r\n       // Laboratorio[] laboratorio;\r\n        string laboratorio;\r\n        string info;\r\n        //credito semanal\r\n        //Matriculas matriculados;\r\n    }\r\n    \r\n    \r\n    \r\n    \r\n    /**\r\n     * \r\n\r\n     si esta reservado por un alumno\r\n     * */\r\n     \r\n     struct DatosReserva{\r\n         address dirAlumno;\r\n         bool estaReservado;  \r\n     }\r\n     \r\n     /**\r\n      * Datos de mireserva //FALTA PUESTO\r\n      * */\r\n      \r\n      struct ReservaAlumno{\r\n          string lab;\r\n          string fecha;\r\n          uint estado;\r\n          //string puesto;\r\n\r\n      }\r\n      \r\n      // acceder a los datos de una persona dada su direccion\r\n    mapping (address => DatosPersona) public datosPersona;\r\n    \r\n    /// Acceder a los datos de un alumno dada su direccion.\r\n    mapping (address => DatosAlumno) public datosAlumno;\r\n    \r\n      /// Acceder a los datos de un profe dada su direccion.\r\n    mapping (address => DatosProfesor) public datosProfesor;\r\n    \r\n    mapping (address => DatosAsignatura)  datosAsignatura;\r\n    \r\n    \r\n    mapping (address => DatosLaboratorio)  datosLaboratorio;\r\n\r\n    //mapping(uint => Laboratorio) public labPuestos; //acceder a los puestos del lab dada la info del lab\r\n  \r\n   // mapping (address => DatosPuesto)  datosPuesto;\r\n    \r\n    // Array con las direcciones de los alumnos matriculados.\r\n    address[] public matriculas;\r\n    \r\n    \r\n    //array con las direcciones de los profes registrados \r\n    address[] public profesRegistrados;\r\n    \r\n        // Array con las direcciones de las personas registradas.\r\n    address[] public registradosP;\r\n\r\n    \r\n    //Array credito semanal \r\n    address [] public creditosemanal;\r\n    \r\n   //array con las direcciones de las asignaturas registradas \r\n   address[] public asignaturasRegistradasdir;\r\n\r\n    DatosAsignatura[] public asignaturasRegistradas;\r\n    \r\n    \r\n    // labs en la escuela\r\n    DatosLaboratorio[] public laboratoriosRegistrados;\r\n    //reservas de la escuela\r\n\r\n    // puestos en la escuela\r\n    DatosPuesto[] public puestosRegistrados;\r\n    \r\n \r\n\r\n    // array turnos de los puestos\r\n\r\n    DatosTurnos[] public turnos;\r\n        \r\n   \r\n\r\n     //reserva para un usuario \r\n  \r\n    mapping (address => ReservaAlumno) public reservasAlumno;\r\n    \r\n    \r\n    //turno de la escuela\r\n\r\n    //mapping (string => mapping (string  => uint[] )) public turnos;\r\n    \r\n    /// Mapping para evitar duplicados de turnos. // devuelve un bool\r\n    mapping (string => mapping (string  => mapping ( uint => bool ))) public turnos_existentes;\r\n    \r\n    /// Devuelve las direcciones de las personas que han asistido a algun lab en alguna de las fechas y en algun turno.\r\n    mapping (string => mapping (string => mapping (uint => address[] ))) public personas;\r\n   \r\n    /// Devuelve las Direcciones de las personas que han asistido a algun lab y en alguna de las fechas.\r\n    mapping (string => mapping (string => address[] )) public personasTotales;\r\n\r\n    // devuelve los puestos totales qu tienes los labs???????????????como lo hago  lo que quiero es haya los puestos totales que tiene cada laboratorio??????\r\n\r\n    mapping(string => string[]) public puestosTotales;\r\n    \r\n\r\n\r\n\r\n\r\n    //IMPORTANTEEEEEEEEEEEE!\r\n    // devuelve array con los indices de los puestos y la clave es un array de enteros laboratorio \r\n    mapping (uint=> uint[]) public puestos;\r\n\r\n\r\n\r\n    //dado la fecha, entrada turno y el el indice de laboratorio quiero que devuelva un array con el numero de puestos\r\n    mapping (string => mapping (uint => mapping (uint => uint[]))) public puestosBuscados;\r\n\r\n    \r\n    //dado el numero lab, fecha (numero de milisegundos) , dado turno ( todos los turnos que hay en un puesto en un dia), te devuelva la reserva\r\n  //  mapping( uint =>mapping (uint=> mapping (uint=> DatosReserva ))) public puestosReservados;\r\n\r\n\r\n    \r\n    //dado el numero lab, fecha (numero de milisegundos) ,  te devuelva la reserva\r\n   mapping( uint =>mapping (uint=> DatosReserva )) public puestosReservados;\r\n\r\n\r\n\r\n\r\n\r\n    \r\n    \r\n    \r\n    \r\n    /*\r\n     * Constructor.\r\n     * \r\n     * @param _nombre Nombre de la asignatura.\r\n     * //habria qu eponer nombre puesto /lab /alumno etc \r\n    \r\n     */\r\n    /*constructor(string memory _nombre) {\r\n        \r\n        bytes memory bn = bytes(_nombre);\r\n        require(bn.length != 0, \"El nombre de la asignatura no puede ser vacio\");\r\n       \r\n       \r\n      \r\n        owner = msg.sender;\r\n        nombre = _nombre;\r\n        \r\n        \r\n     \r\n        \r\n    }*/\r\n    \r\n    constructor()  {\r\n        owner = msg.sender;\r\n    } //?????????????????????????????????\r\n\r\n    \r\n    \r\n    \r\n    \r\n    \r\n/**\r\n     * Te devuelve el numero de puestos registrados\r\n     *\r\n     * @return El numero de puestos creadas.\r\n     */\r\n    function puestosLength() public view returns(uint) {\r\n        return puestosRegistrados.length;\r\n    }\r\n    \r\n\r\n  /**\r\n     * Te devuelve el numero de turnos\r\n     *\r\n     * @return El numero de turnos creadas.\r\n     */\r\n    function turnosLength() public view returns(uint) {\r\n        return turnos.length;\r\n    }\r\n    \r\n\r\n    //devuelve la longitud del array de los puestos de un laboratorio \r\n    function puestosLaboratorioLength(uint _laboratorioindex) public view returns(uint) {\r\n        return puestos[_laboratorioindex].length;\r\n    }\r\n    \r\n    \r\n     /**\r\n     * El numero de labs  registrados\r\n     *\r\n     * @return El numero de labs creadas.\r\n     */\r\n    function laboratoriosLength() public view returns(uint) {\r\n        return laboratoriosRegistrados.length;\r\n    }\r\n    \r\n    \r\n    \r\n\r\n\r\n    /**\r\n     * Permite obtener la longitud del array de personasTotales.\r\n     * \r\n     */\r\n    function personasLength(string memory _nombre, string memory _fecha) public view returns(uint) {\r\n\r\n        uint longitud = personasTotales[_fecha][_nombre].length;\r\n\r\n        if(longitud == 0){\r\n        longitud = 1;\r\n\t    }\r\n\r\n  \t    return longitud;\r\n\r\n    }\r\n\r\n\r\n\r\n      /**\r\n     * Permite obtener la longitud del array de puestosTotale del lab\r\n     * \r\n     */\r\n    function puestosLength2(string memory _nombre) public view returns(uint) {\r\n\r\n        uint longitud2 = puestosTotales[_nombre].length;\r\n\r\n        if(longitud2 == 0){\r\n        longitud2 = 1;\r\n\t    }\r\n\r\n  \t    return longitud2;\r\n\r\n    }\r\n\r\n\r\n\r\n    /**\r\n     * Permite obtener un address del array de personas.\r\n     * \r\n     */\r\n    function dirPersonas(string memory _nombre, string memory _fecha, uint _indice) public view returns(address) {\r\n\r\n        if(personasTotales[_fecha][_nombre].length > 0){\r\n\r\n        address _dirUno = personasTotales[_fecha][_nombre][_indice];\r\n        return _dirUno;\r\n\r\n        }else{\r\n        return msg.sender;\r\n\t    }\t\t\t\r\n\t\r\n    }\r\n    \r\n    /**\r\n     * Obtiene los datos de una persona registrada.\r\n     * \r\n     * @param persona La direccion de una persona.\r\n     * \r\n     * @return los datos de una persona registrada.\r\n     */\r\n    function obtenerDatosPersona(address persona)  public view returns(address) {\r\n\t\r\n        \r\n        if(!estaRegistrado(persona)){\r\n        return address(0);\r\n        } else{\t\r\n        return datosPersona[persona].dir;\r\n\t}\r\n\t\r\n        \r\n        \r\n    } \r\n\r\n\r\n    //puestos que hay en un lab. Coger el array que te da el mapping de puestos y devolver su .length\r\n\r\n    function puestosdeLaboratorio(uint _laboratorioindex) public view returns(uint) {\r\n\r\n        return puestos[_laboratorioindex].length;\r\n    }\r\n    \r\n\r\n\r\n     // puestos que hay en un lab segun la fecha, la entrada \r\n    function BuscaPuestoLab( string  memory _fecha, uint _entradaTurno,uint _laboratorioindex) public view returns(uint) {\r\n\r\n        return puestosBuscados[_fecha][_entradaTurno][_laboratorioindex].length;\r\n    }\r\n\r\n\r\n\r\n\r\n    /**\r\n     * Eliminar la alerta de un usuario\r\n     *\r\n    \r\n    function reiniciarReserva() public {\r\n\r\n\treservasAlumno[msg.sender].estado = 0 ;\r\n\r\n    \r\n    }\r\n\r\n    */\r\n\r\n        /**\r\n     * El lab del que se desea ver su info y el arrai de uestos\r\n     *\r\n     */\r\n    function LabPulsado(uint x) public view returns (string memory) {\r\n\r\n\treturn laboratoriosRegistrados[x].nombreL; \r\n    }\r\n\r\n\r\n          /**\r\n     * El puesto del que se desea ver toda su informacin tercera pantalla\r\n     *\r\n     */\r\n    /*function PuestoPulsado(uint x) public view returns (string memory) {\r\n\r\n\treturn puestosRegistrados[x].nombreP; \r\n    }\r\n\r\n    \r\n  /**\r\n     * Las personas pueden registrar su asistencia en un puesto con el metodo guardarReserva.\r\n     * \r\n     * Impedir que se pueda meter un nombre vacio.\r\n     *\r\n     *  _nombre El nombre del puesto. \r\n     * _ent Hora de entrada al lab.\r\n     *  _fecha Fecha de entrada al lab.\r\n     *  _puesto Puesto en el lab.\r\n     */\r\n    /*function guardarReserva(string memory _nombre, string memory _entradaTurno, string memory _fecha,   uint _turno) public {\r\n        \r\n\t\r\n        bytes memory a = bytes(_nombre);\r\n        require(a.length != 0, \"El nombre no puede estar vacia\");\r\n\r\n        bytes memory b = bytes(_entradaTurno);\r\n        require(b.length != 0, \"La hora de entrada no puede estar vacia\");\r\n\r\n        bytes memory c = bytes(_fecha);\r\n        require(c.length != 0, \"La fecha no puede estar vacia\");\r\n\r\n        \r\n\r\n        \r\n        datosPuesto[_fecha][_nombre][_turno][msg.sender].dir = msg.sender; //datosPuesto es un mapping ( el puesto que devuelve adjudicado a una persona dado la fecha, nombre lab , entrada y direcccion de la persona)\r\n        datosPuesto[_fecha][_nombre][_turno][msg.sender].fecha = _fecha;\r\n        datosPuesto[_fecha][_nombre][_turno][msg.sender].entradaTurno = _entradaTurno; \r\n\t\r\n \t\r\n\r\n\r\n        personas[_fecha][_nombre][_turno].push(msg.sender); //personas ( mapping que devuelve la personas que han asistido a algun lab en una fecha  lab y  turno especfico)\r\n        personasTotales[_fecha][_nombre].push(msg.sender); // personasTotales (devuelve todas las ersonas que han asistido dada una fecha y el nombre de un lab)\r\n        ultimosRegistros[msg.sender].push(UltimaReserva(_nombre,_turno,_fecha)); // Mapping que devuelve los ultimos registros de la ultima reserva // ultimaReserva( es un struct con turno, fecha nombre lab) \r\n        \r\n        if (turnos_existentes[_fecha][_nombre][_turno] == false){ // mapping evitar duplicados, si ese turno dado el nombre de un uesto , fecha no esta cogido entonces se puede reservar \r\n        turnos[_fecha][_nombre].push(_turno); // se suma al numero de puestos cogidos llamado turnos ( mapping  dado un puestos y una fecha)\r\n\r\n\r\n\r\n\r\n        turnos_existentes[_fecha][_nombre][_turno] = true;\r\n        }\r\n\r\n        \r\n    }\r\n    \r\n\r\n    /**\r\n     * Las personas pueden registrar su salida del lab con el metodo guardarSalida.\r\n     * \r\n     * Impedir que se pueda meter un nombre vacio.\r\n     *\r\n     * _nombre El nombre del aula. \r\n     *  _sal Hora de salida al aula.\r\n     *  _fecha Fecha de entrada al aula.\r\n     */\r\n    /*function guardarSalida(string memory _nombre, string memory _salidaTurno, string memory _fecha, uint _turno) public {\r\n\r\n\t    datosPuesto[_fecha][_nombre][_turno][msg.sender].salidaTurno = _salidaTurno;\r\n        \r\n    }\r\n\r\n\r\n\r\n\r\n\r\n\r\n\r\n\r\n\r\n\r\n\r\n\r\n\r\n    /**\r\n     * El administrador puede eliminar un aula con el metodo eliminarAula.\r\n     * \r\n     * Impedir que se pueda meter un indice vacio.\r\n     *\r\n     *  _indice El nombre del aula. \r\n     */\r\n    \r\n    \r\n    \r\n    /*\r\n     * Crear un puesto\r\n     *\r\n     * Llos puestos se meteran en el array de puestos y nos refereimos por su posicion en el array\r\n     *  _nombre El nombre de puesto \r\n     \r\n   \r\n     * \r\n     * La posicion en el array lab\r\n     */\r\n     \r\n     \r\n     //poner lo del laboratorio pero me dice lo de use pragma experimental ABIENCODERV2\r\n    //function creaPuesto(string memory _nombre,TipoConexionesRed  _tipoConexionesRed,TipoSO  _TipoSO/*Laboratorio _laboratorio*/) soloProfesor public returns (uint) {\r\n        \r\n     //  bytes memory bn = bytes(_nombre);\r\n       // require(bn.length != 0, \"El nombre de la puesto no puede ser vacio\");\r\n        \r\n        //puestos.push(Puesto(_nombre,_tipoConexionesRed,_TipoSO/*_laboratorio*/));\r\n        //return puestos.length - 1;\r\n  //  }\r\n    \r\n    \r\n    \r\n    \r\n        \r\n     //poner lo del laboratorio pero me dice lo de use pragma experimental ABIENCODERV2\r\n    function creaLaboratorio( uint  _laboratorioindex,string memory _nombreL,string memory _asignaura,string memory _Info) soloOwner public returns (uint) {\r\n        \r\n        bytes memory bn = bytes(_nombreL);\r\n        require(bn.length != 0, \"El nombre del lab no puede ser vacio\");\r\n        \r\n        laboratoriosRegistrados.push(DatosLaboratorio(_laboratorioindex,_nombreL,_asignaura,_Info));\r\n        return laboratoriosRegistrados.length - 1;\r\n    }\r\n    \r\n\r\n    function creaAsignatura( string memory _nombreAsig,string memory _lab,string memory _Info)  soloOwner public returns (uint) {\r\n        \r\n        bytes memory bn = bytes(_nombreAsig);\r\n        require(bn.length != 0, \"El nombre de la asig no puede ser vacio\");\r\n        \r\n       asignaturasRegistradas.push(DatosAsignatura(_nombreAsig,_lab,_Info));\r\n        return asignaturasRegistradas.length - 1;\r\n    }\r\n    \r\n    \r\n    \r\n    \r\n    //poner lo del laboratorio pero me dice lo de use pragma experimental ABIENCODERV2\r\n    function creaPuesto(string memory _NombreP,uint  _fecha,uint  _entradaTurno,uint  _salidaTurno,bool _estado,string memory _info) soloOwner public returns (uint) {\r\n        \r\n        bytes memory bn = bytes(_NombreP);\r\n        require(bn.length != 0, \"El nombre del lab no puede ser vacio\");\r\n        \r\n        puestosRegistrados.push(DatosPuesto(_NombreP,_fecha,_entradaTurno,_salidaTurno,_estado,_info));\r\n        return puestosRegistrados.length - 1;\r\n    \r\n    }   \r\n\r\n\r\n    function creaTurno(string memory _nombre, uint _fecha, uint _hora) soloOwner public returns (uint) {\r\n    \r\n    bytes memory bn = bytes(_nombre);\r\n    require(bn.length != 0, \"El nombre de la evaluacion no puede ser vacio\");\r\n    \r\n    turnos.push(DatosTurnos(_nombre, _fecha, _hora));\r\n    return turnos.length - 1;\r\n} \r\n    \r\n \r\n     /**\r\n     * El numero de alumnos matriculados.\r\n     *\r\n     * @return El numero de alumnos matriculados.\r\n     */\r\n    function matriculasLength() public view returns(uint) {\r\n        return matriculas.length;\r\n    }\r\n    \r\n    \r\n    \r\n      /**\r\n     * El numero de profes registrados.\r\n     *\r\n     * .\r\n     */\r\n    function profesRegistradosLength() public view returns(uint) {\r\n        return profesRegistrados.length;\r\n    }\r\n    \r\n    \r\n       /**\r\n     * El numero de asignaturas registrados.\r\n     *\r\n     * .\r\n     */\r\n    function asignaturasRegistradasLength() public view returns(uint) {\r\n        return asignaturasRegistradas.length;\r\n    }\r\n    \r\n    \r\n    \r\n    \r\n    \r\n      /**\r\n     * numero de credito semanal \r\n     *\r\n     * @return El numero de credito semanal \r\n     * \r\n     */\r\n     /*function creditosemanalLength() public view returns(uint) {\r\n        return creditosemanal.length;\r\n    }???????????????????????????*/\r\n     \r\n    \r\n    \r\n    \r\n    \r\n    /**\r\n     * Los alumnos pueden automatricularse con el metodo automatricula.\r\n     * \r\n     * Impedir que se pueda meter un nombre vacio.\r\n     *\r\n     * @param _nombre El nombre del alumno. \r\n     * @param _email  El email del alumno.\r\n     */\r\n    function automatricula(string memory _nombre, string memory _email) noMatriculados public {\r\n        //revert(\"siempre falla\");\r\n        bytes memory b = bytes(_nombre);\r\n        require(b.length != 0, \"El nombre no puede ser vacio\");\r\n        \r\n        DatosAlumno memory datos = DatosAlumno(_nombre, _email);\r\n        \r\n        datosAlumno[msg.sender] = datos;\r\n        \r\n        matriculas.push(msg.sender);\r\n        \r\n    }\r\n    \r\n    \r\n    function autoregistroP() noRegistradosP public {\r\n    \r\n        require(msg.sender!=address(0), \"El address no puede estar vacio\");\r\n        \r\n        datosPersona[msg.sender] = DatosPersona(msg.sender);\r\n        \r\n        registradosP.push(msg.sender);\r\n    \r\n    }\r\n    \r\n    \r\n  \r\n    function autoRegistro(string memory _nombreP, string memory _emailP,string memory _asignaturaP,string memory _departamentoP ) noRegistrados public {\r\n        \r\n        bytes memory b = bytes(_nombreP);\r\n        require(b.length != 0, \"El nombre no puede ser vacio\");\r\n        \r\n        DatosProfesor memory datosP = DatosProfesor(_nombreP, _emailP,_asignaturaP,_departamentoP);\r\n        \r\n        datosProfesor[msg.sender] = datosP;\r\n        \r\n       profesRegistrados.push(msg.sender);\r\n        \r\n    }\r\n    \r\n\r\n\r\n\r\n    \r\n    \r\n    \r\n    \r\n    \r\n    \r\n    \r\n    \r\n    \r\n    \r\n    /**\r\n     * Permite a un alumno obtener sus propios datos.\r\n     * \r\n     * @return _nombre El nombre del alumno que invoca el metodo.\r\n     * @return _email  El email del alumno que invoca el metodo.\r\n     */\r\n    function quienSoy() soloMatriculados public view returns (string memory _nombre, string memory _email) {\r\n        DatosAlumno memory datos = datosAlumno[msg.sender];\r\n        _nombre = datos.nombre;\r\n        _email = datos.email;\r\n    }\r\n    \r\n    \r\n    function quienSoyP() soloRegistrados public view returns (string memory _nombreP, string memory _emailP,string memory _asignaturaP,string memory _departamentoP) {\r\n        DatosProfesor memory datosP = datosProfesor[msg.sender];\r\n        _nombreP = datosP.nombreP;\r\n        _emailP = datosP.emailP;\r\n        _departamentoP = datosP.departamentoP;\r\n        _asignaturaP = datosP.asignaturaP;\r\n    }\r\n    \r\n    \r\n    \r\n\r\n    \r\n    \r\n    /**\r\n     * Consulta si una direccion pertenece a un alumno matriculado.\r\n     * \r\n     * @param alumno La direccion de un alumno.\r\n     * \r\n     * @return true si es una alumno matriculado.\r\n     */\r\n    function estaMatriculado(address alumno) private view returns (bool) {\r\n      \r\n        string memory _nombre = datosAlumno[alumno].nombre;\r\n        \r\n        bytes memory b = bytes(_nombre);\r\n        \r\n        return b.length != 0;\r\n    } \r\n    \r\n    \r\n       function estaRegistrado(address profesor) private view returns (bool) {\r\n      \r\n        string memory _nombreP = datosProfesor[profesor].nombreP;\r\n        \r\n        bytes memory b = bytes(_nombreP);\r\n        \r\n        return b.length != 0;\r\n    } \r\n    \r\n    function estaRegistradoP(address persona) public view returns (bool) {\r\n\r\n\taddress _dir = datosPersona[persona].dir;\r\n        return _dir!=address(0);\r\n    } \r\n    \r\n    \r\n    //como hacer para que te devuelva los puestos segun asignatura \r\n    \r\n    /*function getPuestos (string asignatura) soloMatriculados public view returns (\r\n        string nombre, TipoConexionesRed tipoConexionesRed,TipoSO tipoSO)\r\n         \r\n         require (asignatura.length!=0,\"no vacio\");\r\n         \r\n         Puesto memory puesto= tipoConexionesRed[msg.sender][asignatura];\r\n         //meter tb tipoSO\r\n         tipoConexionesRed=Puesto.tipoConexionesRed\r\n         tipoSO=Puesto.tipoSO;\r\n         \r\n    // con laboratorios tb ! */\r\n   \r\n    \r\n   //RESERVASSSSSSSSSSSSSSSSSS\r\n   \r\n   \r\n   \r\n   \r\n   /*function addLab(uint labId, uint maxPuestos) public {\r\n        require(registeredLaboratorios[labId] == false, \"lab has already been registered\");\r\n        require(msg.sender == owner, \"You are not the owner\");\r\n        labPuestos[labId] = Laboratorio({\r\n            labId: labId,\r\n            maxPuestos: maxPuestos\r\n        });\r\n        registeredLaboratorios[labId] = true;\r\n    }\r\n    */\r\n   /* function addReservation(uint   _labID, uint mes,uint semana, uint hora) public {\r\n        require(registeredLaboratorios[_labID] == true, \"lab does not exist\");\r\n        //require(puestoId < labPuestos[labId].maxPuestos, \"Puesto does not exist\");\r\n        require(\r\n            isLabReserved[msg.sender][_labID][mes][semana][hora] == false, \r\n            \"You already have a reservation for this lab at this time\"\r\n        );\r\n        reservations[_labID][mes][semana][hora] .push(msg.sender);\r\n        reservationLengths[_labID][mes][semana][hora]  += 1;\r\n        isLabReserved[msg.sender][_labID][mes][semana][hora] = true;\r\n        emit Reservation(msg.sender, _labID, mes, semana,hora);\r\n    }\r\n    function cancelReservation(uint _labID, uint mes,uint semana, uint hora) public {\r\n        require(registeredLaboratorios[_labID] == true, \"lab does not exist\");\r\n       // require(puestoId < labPuestos[_labID].maxPuestos, \"Puesto does not exist\");\r\n        require(\r\n            isLabReserved[msg.sender][_labID][mes][semana][hora] == true, \r\n            \"You don't have a reservation for this Lab\"\r\n        );\r\n        for (uint i = 0; i < reservations[_labID][mes][semana][hora].length; i++) {\r\n            if (reservations[_labID][mes][semana][hora][i] == msg.sender) {\r\n                delete reservations[_labID][mes][semana][hora][i];\r\n                break;\r\n            }\r\n        }\r\n        reservationLengths[_labID][mes][semana][hora] -= 1;\r\n        isLabReserved[msg.sender][_labID][mes][semana][hora] = false;\r\n        emit Cancellation(msg.sender, _labID, mes, semana,hora);\r\n    } */\r\n\r\n\r\n\r\n\r\n           /**\r\n     * Modificador para que una funcion solo la pueda ejecutar el profesor.\r\n     * \r\n     *\r\n     */\r\n    modifier soloOwner() {\r\n        \r\n        require(msg.sender == owner, \"Solo permitido al owner\");\r\n        _;\r\n    }\r\n    \r\n    \r\n    /**\r\n     * Modificador para que una funcion solo la pueda ejecutar el profesor.\r\n     * \r\n     *\r\n     */\r\n    modifier soloProfesor() {\r\n        \r\n        require(msg.sender == profesorP, \"Solo permitido al profesor\");\r\n        _;\r\n    }\r\n    \r\n    \r\n    /**\r\n     * Modificador para que una funcion solo la pueda ejecutar un alumno matriculado.\r\n     */\r\n    modifier soloMatriculados() {\r\n        \r\n        require(estaMatriculado(msg.sender), \"Solo permitido a alumnos matriculados\");\r\n        _;\r\n    }\r\n    \r\n    \r\n      modifier soloRegistrados() {\r\n        \r\n        require(estaRegistrado(msg.sender), \"Solo permitido a profes registrados\");\r\n        _;\r\n    }\r\n    \r\n    \r\n \r\n    /**\r\n     * Modificador para que una funcion solo la pueda ejecutar un alumno no matriculado aun.\r\n     */\r\n    modifier noMatriculados() {\r\n        \r\n        require(!estaMatriculado(msg.sender), \"Solo permitido a alumnos no matriculados\");\r\n        _;\r\n    }\r\n    \r\n    \r\n    \r\n      modifier noRegistrados() {\r\n        \r\n        require(!estaRegistrado(msg.sender), \"Solo permitido a profes no registrados\");\r\n        _;\r\n    }\r\n    \r\n        \r\n      modifier noRegistradosP() {\r\n        \r\n        require(!estaRegistradoP(msg.sender), \"Solo permitido a personas no registrados\");\r\n        _;\r\n    }\r\n    \r\n    \r\n       receive() external payable {\r\n        revert(\"No se permite la recepcion de dinero.\");\r\n    }\r\n}\r\n",
  "sourcePath": "C:\\Users\\Paula Huertas\\reslabetsit\\contracts\\ReslabEtsit.sol",
  "compiler": {
    "name": "solc",
    "version": "0.7.4+commit.3f05b770.Emscripten.clang"
  },
  "schemaVersion": "3.4.7",
  "updatedAt": "2022-06-05T23:02:53.733Z",
  "networkType": "ethereum",
  "devdoc": {
    "kind": "dev",
    "methods": {
      "automatricula(string,string)": {
        "params": {
          "_email": "El email del alumno.",
          "_nombre": "El nombre del alumno. "
        }
      },
      "laboratoriosLength()": {
        "returns": {
          "_0": "El numero de labs creadas."
        }
      },
      "matriculasLength()": {
        "returns": {
          "_0": "El numero de alumnos matriculados."
        }
      },
      "obtenerDatosPersona(address)": {
        "params": {
          "persona": "La direccion de una persona. "
        },
        "returns": {
          "_0": "los datos de una persona registrada."
        }
      },
      "puestosLength()": {
        "returns": {
          "_0": "El numero de puestos creadas."
        }
      },
      "quienSoy()": {
        "returns": {
          "_email": " El email del alumno que invoca el metodo.",
          "_nombre": "El nombre del alumno que invoca el metodo."
        }
      },
      "turnosLength()": {
        "returns": {
          "_0": "El numero de turnos creadas."
        }
      }
    },
    "version": 1
  },
  "userdoc": {
    "kind": "user",
    "methods": {
      "LabPulsado(uint256)": {
        "notice": "El lab del que se desea ver su info y el arrai de uestos"
      },
      "asignaturasRegistradasLength()": {
        "notice": "El numero de asignaturas registrados. ."
      },
      "automatricula(string,string)": {
        "notice": "Los alumnos pueden automatricularse con el metodo automatricula.  Impedir que se pueda meter un nombre vacio."
      },
      "creaLaboratorio(uint256,string,string,string)": {
        "notice": "El puesto del que se desea ver toda su informacin tercera pantalla"
      },
      "datosAlumno(address)": {
        "notice": "Acceder a los datos de un alumno dada su direccion."
      },
      "datosProfesor(address)": {
        "notice": "Acceder a los datos de un profe dada su direccion."
      },
      "dirPersonas(string,string,uint256)": {
        "notice": "Permite obtener un address del array de personas. "
      },
      "laboratoriosLength()": {
        "notice": "El numero de labs  registrados"
      },
      "matriculasLength()": {
        "notice": "El numero de alumnos matriculados."
      },
      "obtenerDatosPersona(address)": {
        "notice": "Obtiene los datos de una persona registrada. "
      },
      "owner()": {
        "notice": "address del profesor que ha desplegado el contrato. El contrato lo despliega el profesor."
      },
      "personas(string,string,uint256,uint256)": {
        "notice": "Devuelve las direcciones de las personas que han asistido a algun lab en alguna de las fechas y en algun turno."
      },
      "personasLength(string,string)": {
        "notice": "Permite obtener la longitud del array de personasTotales. "
      },
      "personasTotales(string,string,uint256)": {
        "notice": "Devuelve las Direcciones de las personas que han asistido a algun lab y en alguna de las fechas."
      },
      "profesRegistradosLength()": {
        "notice": "El numero de profes registrados. ."
      },
      "puestosLength()": {
        "notice": "Te devuelve el numero de puestos registrados"
      },
      "puestosLength2(string)": {
        "notice": "Permite obtener la longitud del array de puestosTotale del lab "
      },
      "quienSoy()": {
        "notice": "Permite a un alumno obtener sus propios datos. "
      },
      "turnosLength()": {
        "notice": "Te devuelve el numero de turnos"
      },
      "turnos_existentes(string,string,uint256)": {
        "notice": "Mapping para evitar duplicados de turnos. // devuelve un bool"
      }
    },
    "version": 1
  }
}