{
  "contractName": "ReslabEtsit",
  "abi": [
    {
      "inputs": [],
      "stateMutability": "nonpayable",
      "type": "constructor"
    },
    {
      "inputs": [
        {
          "internalType": "uint256",
          "name": "",
          "type": "uint256"
        }
      ],
      "name": "creditosemanal",
      "outputs": [
        {
          "internalType": "address",
          "name": "",
          "type": "address"
        }
      ],
      "stateMutability": "view",
      "type": "function",
      "constant": true
    },
    {
      "inputs": [
        {
          "internalType": "address",
          "name": "",
          "type": "address"
        }
      ],
      "name": "datosAlumno",
      "outputs": [
        {
          "internalType": "string",
          "name": "nombre",
          "type": "string"
        },
        {
          "internalType": "string",
          "name": "email",
          "type": "string"
        }
      ],
      "stateMutability": "view",
      "type": "function",
      "constant": true
    },
    {
      "inputs": [
        {
          "internalType": "string",
          "name": "",
          "type": "string"
        },
        {
          "internalType": "string",
          "name": "",
          "type": "string"
        },
        {
          "internalType": "uint256",
          "name": "",
          "type": "uint256"
        },
        {
          "internalType": "address",
          "name": "",
          "type": "address"
        }
      ],
      "name": "datosLab",
      "outputs": [
        {
          "internalType": "string",
          "name": "puesto",
          "type": "string"
        },
        {
          "internalType": "string",
          "name": "info",
          "type": "string"
        }
      ],
      "stateMutability": "view",
      "type": "function",
      "constant": true
    },
    {
      "inputs": [
        {
          "internalType": "address",
          "name": "",
          "type": "address"
        }
      ],
      "name": "datosPersona",
      "outputs": [
        {
          "internalType": "address",
          "name": "dir",
          "type": "address"
        }
      ],
      "stateMutability": "view",
      "type": "function",
      "constant": true
    },
    {
      "inputs": [
        {
          "internalType": "address",
          "name": "",
          "type": "address"
        }
      ],
      "name": "datosProfesor",
      "outputs": [
        {
          "internalType": "string",
          "name": "nombreP",
          "type": "string"
        },
        {
          "internalType": "string",
          "name": "emailP",
          "type": "string"
        },
        {
          "internalType": "string",
          "name": "asignaturaP",
          "type": "string"
        },
        {
          "internalType": "string",
          "name": "departamentoP",
          "type": "string"
        }
      ],
      "stateMutability": "view",
      "type": "function",
      "constant": true
    },
    {
      "inputs": [
        {
          "internalType": "string",
          "name": "",
          "type": "string"
        },
        {
          "internalType": "string",
          "name": "",
          "type": "string"
        },
        {
          "internalType": "uint256",
          "name": "",
          "type": "uint256"
        },
        {
          "internalType": "address",
          "name": "",
          "type": "address"
        }
      ],
      "name": "datosPuesto",
      "outputs": [
        {
          "internalType": "address",
          "name": "dir",
          "type": "address"
        },
        {
          "internalType": "string",
          "name": "fecha",
          "type": "string"
        },
        {
          "internalType": "string",
          "name": "entradaTurno",
          "type": "string"
        },
        {
          "internalType": "string",
          "name": "salidaTurno",
          "type": "string"
        },
        {
          "internalType": "string",
          "name": "estado",
          "type": "string"
        },
        {
          "internalType": "string",
          "name": "asignatura",
          "type": "string"
        },
        {
          "internalType": "string",
          "name": "info",
          "type": "string"
        }
      ],
      "stateMutability": "view",
      "type": "function",
      "constant": true
    },
    {
      "inputs": [
        {
          "internalType": "uint256",
          "name": "",
          "type": "uint256"
        }
      ],
      "name": "laboratoriosRegistrados",
      "outputs": [
        {
          "internalType": "uint256",
          "name": "labId",
          "type": "uint256"
        },
        {
          "internalType": "string",
          "name": "nombreL",
          "type": "string"
        }
      ],
      "stateMutability": "view",
      "type": "function",
      "constant": true
    },
    {
      "inputs": [
        {
          "internalType": "uint256",
          "name": "",
          "type": "uint256"
        }
      ],
      "name": "matriculas",
      "outputs": [
        {
          "internalType": "address",
          "name": "",
          "type": "address"
        }
      ],
      "stateMutability": "view",
      "type": "function",
      "constant": true
    },
    {
      "inputs": [],
      "name": "owner",
      "outputs": [
        {
          "internalType": "address",
          "name": "",
          "type": "address"
        }
      ],
      "stateMutability": "view",
      "type": "function",
      "constant": true
    },
    {
      "inputs": [
        {
          "internalType": "string",
          "name": "",
          "type": "string"
        },
        {
          "internalType": "string",
          "name": "",
          "type": "string"
        },
        {
          "internalType": "uint256",
          "name": "",
          "type": "uint256"
        },
        {
          "internalType": "uint256",
          "name": "",
          "type": "uint256"
        }
      ],
      "name": "personas",
      "outputs": [
        {
          "internalType": "address",
          "name": "",
          "type": "address"
        }
      ],
      "stateMutability": "view",
      "type": "function",
      "constant": true
    },
    {
      "inputs": [
        {
          "internalType": "string",
          "name": "",
          "type": "string"
        },
        {
          "internalType": "string",
          "name": "",
          "type": "string"
        },
        {
          "internalType": "uint256",
          "name": "",
          "type": "uint256"
        }
      ],
      "name": "personasTotales",
      "outputs": [
        {
          "internalType": "address",
          "name": "",
          "type": "address"
        }
      ],
      "stateMutability": "view",
      "type": "function",
      "constant": true
    },
    {
      "inputs": [
        {
          "internalType": "uint256",
          "name": "",
          "type": "uint256"
        }
      ],
      "name": "profesRegistrados",
      "outputs": [
        {
          "internalType": "address",
          "name": "",
          "type": "address"
        }
      ],
      "stateMutability": "view",
      "type": "function",
      "constant": true
    },
    {
      "inputs": [],
      "name": "profesorP",
      "outputs": [
        {
          "internalType": "address",
          "name": "",
          "type": "address"
        }
      ],
      "stateMutability": "view",
      "type": "function",
      "constant": true
    },
    {
      "inputs": [
        {
          "internalType": "uint256",
          "name": "",
          "type": "uint256"
        }
      ],
      "name": "registradosP",
      "outputs": [
        {
          "internalType": "address",
          "name": "",
          "type": "address"
        }
      ],
      "stateMutability": "view",
      "type": "function",
      "constant": true
    },
    {
      "inputs": [
        {
          "internalType": "address",
          "name": "",
          "type": "address"
        }
      ],
      "name": "reservasAlumno",
      "outputs": [
        {
          "internalType": "string",
          "name": "lab",
          "type": "string"
        },
        {
          "internalType": "string",
          "name": "fecha",
          "type": "string"
        },
        {
          "internalType": "uint256",
          "name": "estado",
          "type": "uint256"
        }
      ],
      "stateMutability": "view",
      "type": "function",
      "constant": true
    },
    {
      "inputs": [
        {
          "internalType": "uint256",
          "name": "",
          "type": "uint256"
        }
      ],
      "name": "reservasLab",
      "outputs": [
        {
          "internalType": "string",
          "name": "lab",
          "type": "string"
        },
        {
          "internalType": "uint256",
          "name": "turno",
          "type": "uint256"
        },
        {
          "internalType": "string",
          "name": "fecha",
          "type": "string"
        }
      ],
      "stateMutability": "view",
      "type": "function",
      "constant": true
    },
    {
      "inputs": [
        {
          "internalType": "string",
          "name": "",
          "type": "string"
        },
        {
          "internalType": "string",
          "name": "",
          "type": "string"
        },
        {
          "internalType": "uint256",
          "name": "",
          "type": "uint256"
        }
      ],
      "name": "turnos",
      "outputs": [
        {
          "internalType": "uint256",
          "name": "",
          "type": "uint256"
        }
      ],
      "stateMutability": "view",
      "type": "function",
      "constant": true
    },
    {
      "inputs": [
        {
          "internalType": "string",
          "name": "",
          "type": "string"
        },
        {
          "internalType": "string",
          "name": "",
          "type": "string"
        },
        {
          "internalType": "uint256",
          "name": "",
          "type": "uint256"
        }
      ],
      "name": "turnos_existentes",
      "outputs": [
        {
          "internalType": "bool",
          "name": "",
          "type": "bool"
        }
      ],
      "stateMutability": "view",
      "type": "function",
      "constant": true
    },
    {
      "inputs": [
        {
          "internalType": "address",
          "name": "",
          "type": "address"
        },
        {
          "internalType": "uint256",
          "name": "",
          "type": "uint256"
        }
      ],
      "name": "ultimosRegistros",
      "outputs": [
        {
          "internalType": "string",
          "name": "lab",
          "type": "string"
        },
        {
          "internalType": "uint256",
          "name": "turno",
          "type": "uint256"
        },
        {
          "internalType": "string",
          "name": "fecha",
          "type": "string"
        }
      ],
      "stateMutability": "view",
      "type": "function",
      "constant": true
    },
    {
      "stateMutability": "payable",
      "type": "receive",
      "payable": true
    },
    {
      "inputs": [],
      "name": "laboratoriosLength",
      "outputs": [
        {
          "internalType": "uint256",
          "name": "",
          "type": "uint256"
        }
      ],
      "stateMutability": "view",
      "type": "function",
      "constant": true
    },
    {
      "inputs": [],
      "name": "reservasLength",
      "outputs": [
        {
          "internalType": "uint256",
          "name": "",
          "type": "uint256"
        }
      ],
      "stateMutability": "view",
      "type": "function",
      "constant": true
    },
    {
      "inputs": [
        {
          "internalType": "address",
          "name": "dir",
          "type": "address"
        }
      ],
      "name": "ultimosRegistrosLength",
      "outputs": [
        {
          "internalType": "uint256",
          "name": "",
          "type": "uint256"
        }
      ],
      "stateMutability": "view",
      "type": "function",
      "constant": true
    },
    {
      "inputs": [
        {
          "internalType": "string",
          "name": "_nombre",
          "type": "string"
        },
        {
          "internalType": "string",
          "name": "_fecha",
          "type": "string"
        }
      ],
      "name": "personasLength",
      "outputs": [
        {
          "internalType": "uint256",
          "name": "",
          "type": "uint256"
        }
      ],
      "stateMutability": "view",
      "type": "function",
      "constant": true
    },
    {
      "inputs": [
        {
          "internalType": "string",
          "name": "_nombre",
          "type": "string"
        },
        {
          "internalType": "string",
          "name": "_fecha",
          "type": "string"
        },
        {
          "internalType": "uint256",
          "name": "_indice",
          "type": "uint256"
        }
      ],
      "name": "dirPersonas",
      "outputs": [
        {
          "internalType": "address",
          "name": "",
          "type": "address"
        }
      ],
      "stateMutability": "view",
      "type": "function",
      "constant": true
    },
    {
      "inputs": [
        {
          "internalType": "address",
          "name": "persona",
          "type": "address"
        }
      ],
      "name": "obtenerDatosPersona",
      "outputs": [
        {
          "internalType": "address",
          "name": "",
          "type": "address"
        }
      ],
      "stateMutability": "view",
      "type": "function",
      "constant": true
    },
    {
      "inputs": [
        {
          "internalType": "address",
          "name": "_dir",
          "type": "address"
        }
      ],
      "name": "reservas",
      "outputs": [
        {
          "components": [
            {
              "internalType": "string",
              "name": "lab",
              "type": "string"
            },
            {
              "internalType": "string",
              "name": "fecha",
              "type": "string"
            },
            {
              "internalType": "uint256",
              "name": "estado",
              "type": "uint256"
            }
          ],
          "internalType": "struct ReslabEtsit.ReservaAlumno",
          "name": "",
          "type": "tuple"
        }
      ],
      "stateMutability": "view",
      "type": "function",
      "constant": true
    },
    {
      "inputs": [],
      "name": "reiniciarReserva",
      "outputs": [],
      "stateMutability": "nonpayable",
      "type": "function"
    },
    {
      "inputs": [
        {
          "internalType": "uint256",
          "name": "x",
          "type": "uint256"
        }
      ],
      "name": "LabPulsado",
      "outputs": [
        {
          "internalType": "string",
          "name": "",
          "type": "string"
        }
      ],
      "stateMutability": "view",
      "type": "function",
      "constant": true
    },
    {
      "inputs": [
        {
          "internalType": "string",
          "name": "_nombre",
          "type": "string"
        },
        {
          "internalType": "string",
          "name": "_entradaTurno",
          "type": "string"
        },
        {
          "internalType": "string",
          "name": "_fecha",
          "type": "string"
        },
        {
          "internalType": "string",
          "name": "_puesto",
          "type": "string"
        },
        {
          "internalType": "uint256",
          "name": "_turno",
          "type": "uint256"
        }
      ],
      "name": "guardarReserva",
      "outputs": [],
      "stateMutability": "nonpayable",
      "type": "function"
    },
    {
      "inputs": [
        {
          "internalType": "string",
          "name": "_nombre",
          "type": "string"
        },
        {
          "internalType": "string",
          "name": "_salidaTurno",
          "type": "string"
        },
        {
          "internalType": "string",
          "name": "_fecha",
          "type": "string"
        },
        {
          "internalType": "uint256",
          "name": "_turno",
          "type": "uint256"
        }
      ],
      "name": "guardarSalida",
      "outputs": [],
      "stateMutability": "nonpayable",
      "type": "function"
    },
    {
      "inputs": [
        {
          "internalType": "string",
          "name": "_nombre",
          "type": "string"
        },
        {
          "internalType": "string",
          "name": "_fecha",
          "type": "string"
        }
      ],
      "name": "guardarEntradasLaboratorio",
      "outputs": [
        {
          "components": [
            {
              "internalType": "string",
              "name": "puesto",
              "type": "string"
            },
            {
              "internalType": "string",
              "name": "info",
              "type": "string"
            }
          ],
          "internalType": "struct ReslabEtsit.PinchaLab[]",
          "name": "",
          "type": "tuple[]"
        }
      ],
      "stateMutability": "view",
      "type": "function",
      "constant": true
    },
    {
      "inputs": [
        {
          "internalType": "string",
          "name": "_nombreL",
          "type": "string"
        }
      ],
      "name": "creaLaboratorio",
      "outputs": [
        {
          "internalType": "uint256",
          "name": "",
          "type": "uint256"
        }
      ],
      "stateMutability": "nonpayable",
      "type": "function"
    },
    {
      "inputs": [],
      "name": "matriculasLength",
      "outputs": [
        {
          "internalType": "uint256",
          "name": "",
          "type": "uint256"
        }
      ],
      "stateMutability": "view",
      "type": "function",
      "constant": true
    },
    {
      "inputs": [],
      "name": "profesRegistradosLength",
      "outputs": [
        {
          "internalType": "uint256",
          "name": "",
          "type": "uint256"
        }
      ],
      "stateMutability": "view",
      "type": "function",
      "constant": true
    },
    {
      "inputs": [
        {
          "internalType": "string",
          "name": "_nombre",
          "type": "string"
        },
        {
          "internalType": "string",
          "name": "_email",
          "type": "string"
        }
      ],
      "name": "automatricula",
      "outputs": [],
      "stateMutability": "nonpayable",
      "type": "function"
    },
    {
      "inputs": [],
      "name": "autoregistroP",
      "outputs": [],
      "stateMutability": "nonpayable",
      "type": "function"
    },
    {
      "inputs": [
        {
          "internalType": "string",
          "name": "_nombreP",
          "type": "string"
        },
        {
          "internalType": "string",
          "name": "_emailP",
          "type": "string"
        },
        {
          "internalType": "string",
          "name": "_asignaturaP",
          "type": "string"
        },
        {
          "internalType": "string",
          "name": "_departamentoP",
          "type": "string"
        }
      ],
      "name": "autoRegistro",
      "outputs": [],
      "stateMutability": "nonpayable",
      "type": "function"
    },
    {
      "inputs": [],
      "name": "quienSoy",
      "outputs": [
        {
          "internalType": "string",
          "name": "_nombre",
          "type": "string"
        },
        {
          "internalType": "string",
          "name": "_email",
          "type": "string"
        }
      ],
      "stateMutability": "view",
      "type": "function",
      "constant": true
    },
    {
      "inputs": [],
      "name": "quienSoyP",
      "outputs": [
        {
          "internalType": "string",
          "name": "_nombreP",
          "type": "string"
        },
        {
          "internalType": "string",
          "name": "_emailP",
          "type": "string"
        },
        {
          "internalType": "string",
          "name": "_asignaturaP",
          "type": "string"
        },
        {
          "internalType": "string",
          "name": "_departamentoP",
          "type": "string"
        }
      ],
      "stateMutability": "view",
      "type": "function",
      "constant": true
    },
    {
      "inputs": [
        {
          "internalType": "address",
          "name": "persona",
          "type": "address"
        }
      ],
      "name": "estaRegistradoP",
      "outputs": [
        {
          "internalType": "bool",
          "name": "",
          "type": "bool"
        }
      ],
      "stateMutability": "view",
      "type": "function",
      "constant": true
    }
  ],
  "bytecode": "0x608060405234801561001057600080fd5b50336000806101000a81548173ffffffffffffffffffffffffffffffffffffffff021916908373ffffffffffffffffffffffffffffffffffffffff16021790555061518b806100606000396000f3fe60806040526004361061023f5760003560e01c806394bd53d61161012e578063c7918139116100ab578063e8933c6e1161006f578063e8933c6e14610a13578063ede343cf14610a3c578063ee0e7c4f14610a65578063f874785914610aa2578063fc1f72d814610adf5761027f565b8063c7918139146108f1578063d4cf859d1461092e578063d5a3e75a1461095c578063d64545d814610999578063d6637103146109d65761027f565b8063b24a6399116100f2578063b24a6399146107f6578063b4b4a51f1461081f578063b5daf62c1461084a578063b79f217614610888578063be4a935b146108c65761027f565b806394bd53d6146106d557806397055f29146107125780639e1d8f4b1461074f578063a724952f1461077a578063b0b12731146107b75761027f565b8063641945bf116101bc5780637e09be7a116101805780637e09be7a146105b45780637e4d6c70146105f15780638da5cb5b1461062e5780638f473936146106595780639376d0ae146106985761027f565b8063641945bf1461048f57806366668f3c146104cf57806368ef207e1461050c5780636bf8aad61461054b57806379b51b6a146105895761027f565b8063365d92e211610203578063365d92e21461039557806353766883146103d2578063554f27cc146103fe5780635fdf483f1461042957806361d4c6ad146104665761027f565b8063070259421461028457806308462096146102c15780630c31266114610304578063223ca7a214610341578063320d07731461037e5761027f565b3661027f576040517f08c379a000000000000000000000000000000000000000000000000000000000815260040161027690614e8b565b60405180910390fd5b600080fd5b34801561029057600080fd5b506102ab60048036038101906102a69190614027565b610af6565b6040516102b89190614b96565b60405180910390f35b3480156102cd57600080fd5b506102e860048036038101906102e391906143fd565b610b34565b6040516102fb9796959493929190614bb1565b60405180910390f35b34801561031057600080fd5b5061032b60048036038101906103269190614027565b610f79565b6040516103389190614b96565b60405180910390f35b34801561034d57600080fd5b5061036860048036038101906103639190614523565b610ffc565b6040516103759190614b96565b60405180910390f35b34801561038a57600080fd5b5061039361103b565b005b3480156103a157600080fd5b506103bc60048036038101906103b79190614523565b611207565b6040516103c99190614b96565b60405180910390f35b3480156103de57600080fd5b506103e7611246565b6040516103f5929190614ca9565b60405180910390f35b34801561040a57600080fd5b5061041361143c565b6040516104209190614f6d565b60405180910390f35b34801561043557600080fd5b50610450600480360381019061044b919061437e565b611449565b60405161045d9190614b96565b60405180910390f35b34801561047257600080fd5b5061048d600480360381019061048891906140cd565b6114d0565b005b34801561049b57600080fd5b506104b660048036038101906104b19190614027565b611668565b6040516104c69493929190614ce0565b60405180910390f35b3480156104db57600080fd5b506104f660048036038101906104f191906140cd565b6118f8565b6040516105039190614f6d565b60405180910390f35b34801561051857600080fd5b50610533600480360381019061052e9190614523565b611953565b60405161054293929190614d86565b60405180910390f35b34801561055757600080fd5b50610572600480360381019061056d9190614027565b611abd565b604051610580929190614ca9565b60405180910390f35b34801561059557600080fd5b5061059e611c11565b6040516105ab9190614f6d565b60405180910390f35b3480156105c057600080fd5b506105db60048036038101906105d69190614027565b611c1e565b6040516105e89190614c6c565b60405180910390f35b3480156105fd57600080fd5b5061061860048036038101906106139190614027565b611cbf565b6040516106259190614f4b565b60405180910390f35b34801561063a57600080fd5b50610643611e66565b6040516106509190614b96565b60405180910390f35b34801561066557600080fd5b50610680600480360381019061067b9190614050565b611e8a565b60405161068f93929190614d86565b60405180910390f35b3480156106a457600080fd5b506106bf60048036038101906106ba919061437e565b612001565b6040516106cc9190614c6c565b60405180910390f35b3480156106e157600080fd5b506106fc60048036038101906106f7919061408c565b612069565b6040516107099190614f6d565b60405180910390f35b34801561071e57600080fd5b50610739600480360381019061073491906140cd565b6121c3565b6040516107469190614c4a565b60405180910390f35b34801561075b57600080fd5b506107646128e9565b6040516107719190614f6d565b60405180910390f35b34801561078657600080fd5b506107a1600480360381019061079c919061437e565b6128f6565b6040516107ae9190614f6d565b60405180910390f35b3480156107c357600080fd5b506107de60048036038101906107d99190614027565b612960565b6040516107ed93929190614d41565b60405180910390f35b34801561080257600080fd5b5061081d600480360381019061081891906141fc565b612aba565b005b34801561082b57600080fd5b506108346130e7565b6040516108419190614f6d565b60405180910390f35b34801561085657600080fd5b50610871600480360381019061086c9190614523565b6130f4565b60405161087f929190614f88565b60405180910390f35b34801561089457600080fd5b506108af60048036038101906108aa91906143fd565b6131c0565b6040516108bd929190614ca9565b60405180910390f35b3480156108d257600080fd5b506108db613367565b6040516108e89190614b96565b60405180910390f35b3480156108fd57600080fd5b5061091860048036038101906109139190614523565b61338d565b6040516109259190614b96565b60405180910390f35b34801561093a57600080fd5b506109436133cc565b6040516109539493929190614ce0565b60405180910390f35b34801561096857600080fd5b50610983600480360381019061097e9190614490565b613719565b6040516109909190614b96565b60405180910390f35b3480156109a557600080fd5b506109c060048036038101906109bb9190614027565b6137ad565b6040516109cd9190614f6d565b60405180910390f35b3480156109e257600080fd5b506109fd60048036038101906109f89190614523565b6137f9565b604051610a0a9190614c87565b60405180910390f35b348015610a1f57600080fd5b50610a3a6004803603810190610a3591906142d3565b6138b9565b005b348015610a4857600080fd5b50610a636004803603810190610a5e9190614139565b61395f565b005b348015610a7157600080fd5b50610a8c6004803603810190610a879190614523565b613b3f565b604051610a999190614b96565b60405180910390f35b348015610aae57600080fd5b50610ac96004803603810190610ac4919061437e565b613b7e565b604051610ad69190614b96565b60405180910390f35b348015610aeb57600080fd5b50610af4613c4d565b005b60026020528060005260406000206000915090508060000160009054906101000a900473ffffffffffffffffffffffffffffffffffffffff16905081565b601284805160208101820180518482526020830160208501208183528095505050505050838051602081018201805184825260208301602085012081835280955050505050506020528160005260406000206020528060005260406000206000935093505050508060000160009054906101000a900473ffffffffffffffffffffffffffffffffffffffff1690806001018054600181600116156101000203166002900480601f016020809104026020016040519081016040528092919081815260200182805460018160011615610100020316600290048015610c595780601f10610c2e57610100808354040283529160200191610c59565b820191906000526020600020905b815481529060010190602001808311610c3c57829003601f168201915b505050505090806002018054600181600116156101000203166002900480601f016020809104026020016040519081016040528092919081815260200182805460018160011615610100020316600290048015610cf75780601f10610ccc57610100808354040283529160200191610cf7565b820191906000526020600020905b815481529060010190602001808311610cda57829003601f168201915b505050505090806003018054600181600116156101000203166002900480601f016020809104026020016040519081016040528092919081815260200182805460018160011615610100020316600290048015610d955780601f10610d6a57610100808354040283529160200191610d95565b820191906000526020600020905b815481529060010190602001808311610d7857829003601f168201915b505050505090806004018054600181600116156101000203166002900480601f016020809104026020016040519081016040528092919081815260200182805460018160011615610100020316600290048015610e335780601f10610e0857610100808354040283529160200191610e33565b820191906000526020600020905b815481529060010190602001808311610e1657829003601f168201915b505050505090806005018054600181600116156101000203166002900480601f016020809104026020016040519081016040528092919081815260200182805460018160011615610100020316600290048015610ed15780601f10610ea657610100808354040283529160200191610ed1565b820191906000526020600020905b815481529060010190602001808311610eb457829003601f168201915b505050505090806006018054600181600116156101000203166002900480601f016020809104026020016040519081016040528092919081815260200182805460018160011615610100020316600290048015610f6f5780601f10610f4457610100808354040283529160200191610f6f565b820191906000526020600020905b815481529060010190602001808311610f5257829003601f168201915b5050505050905087565b6000610f8482613c97565b610f915760009050610ff7565b600260008373ffffffffffffffffffffffffffffffffffffffff1673ffffffffffffffffffffffffffffffffffffffff16815260200190815260200160002060000160009054906101000a900473ffffffffffffffffffffffffffffffffffffffff1690505b919050565b6008818154811061100c57600080fd5b906000526020600020016000915054906101000a900473ffffffffffffffffffffffffffffffffffffffff1681565b61104433611c1e565b15611084576040517f08c379a000000000000000000000000000000000000000000000000000000000815260040161107b90614eeb565b60405180910390fd5b600073ffffffffffffffffffffffffffffffffffffffff163373ffffffffffffffffffffffffffffffffffffffff1614156110f4576040517f08c379a00000000000000000000000000000000000000000000000000000000081526004016110eb90614dcb565b60405180910390fd5b60405180602001604052803373ffffffffffffffffffffffffffffffffffffffff16815250600260003373ffffffffffffffffffffffffffffffffffffffff1673ffffffffffffffffffffffffffffffffffffffff16815260200190815260200160002060008201518160000160006101000a81548173ffffffffffffffffffffffffffffffffffffffff021916908373ffffffffffffffffffffffffffffffffffffffff1602179055509050506008339080600181540180825580915050600190039060005260206000200160009091909190916101000a81548173ffffffffffffffffffffffffffffffffffffffff021916908373ffffffffffffffffffffffffffffffffffffffff160217905550565b6009818154811061121757600080fd5b906000526020600020016000915054906101000a900473ffffffffffffffffffffffffffffffffffffffff1681565b60608061125233613d8c565b611291576040517f08c379a000000000000000000000000000000000000000000000000000000000815260040161128890614e4b565b60405180910390fd5b611299613e81565b600360003373ffffffffffffffffffffffffffffffffffffffff1673ffffffffffffffffffffffffffffffffffffffff168152602001908152602001600020604051806040016040529081600082018054600181600116156101000203166002900480601f01602080910402602001604051908101604052809291908181526020018280546001816001161561010002031660029004801561137c5780601f106113515761010080835404028352916020019161137c565b820191906000526020600020905b81548152906001019060200180831161135f57829003601f168201915b50505050508152602001600182018054600181600116156101000203166002900480601f01602080910402602001604051908101604052809291908181526020018280546001816001161561010002031660029004801561141e5780601f106113f35761010080835404028352916020019161141e565b820191906000526020600020905b81548152906001019060200180831161140157829003601f168201915b50505050508152505090508060000151925080602001519150509091565b6000600b80549050905090565b60108380516020810182018051848252602083016020850120818352809550505050505082805160208101820180518482526020830160208501208183528095505050505050818154811061149d57600080fd5b90600052602060002001600092509250509054906101000a900473ffffffffffffffffffffffffffffffffffffffff1681565b6114d933613d8c565b15611519576040517f08c379a000000000000000000000000000000000000000000000000000000000815260040161151090614e0b565b60405180910390fd5b6060829050600081511415611563576040517f08c379a000000000000000000000000000000000000000000000000000000000815260040161155a90614e2b565b60405180910390fd5b61156b613e81565b604051806040016040528085815260200184815250905080600360003373ffffffffffffffffffffffffffffffffffffffff1673ffffffffffffffffffffffffffffffffffffffff16815260200190815260200160002060008201518160000190805190602001906115de929190613e9b565b5060208201518160010190805190602001906115fb929190613e9b565b509050506006339080600181540180825580915050600190039060005260206000200160009091909190916101000a81548173ffffffffffffffffffffffffffffffffffffffff021916908373ffffffffffffffffffffffffffffffffffffffff16021790555050505050565b6004602052806000526040600020600091509050806000018054600181600116156101000203166002900480601f0160208091040260200160405190810160405280929190818152602001828054600181600116156101000203166002900480156117145780601f106116e957610100808354040283529160200191611714565b820191906000526020600020905b8154815290600101906020018083116116f757829003601f168201915b505050505090806001018054600181600116156101000203166002900480601f0160208091040260200160405190810160405280929190818152602001828054600181600116156101000203166002900480156117b25780601f10611787576101008083540402835291602001916117b2565b820191906000526020600020905b81548152906001019060200180831161179557829003601f168201915b505050505090806002018054600181600116156101000203166002900480601f0160208091040260200160405190810160405280929190818152602001828054600181600116156101000203166002900480156118505780601f1061182557610100808354040283529160200191611850565b820191906000526020600020905b81548152906001019060200180831161183357829003601f168201915b505050505090806003018054600181600116156101000203166002900480601f0160208091040260200160405190810160405280929190818152602001828054600181600116156101000203166002900480156118ee5780601f106118c3576101008083540402835291602001916118ee565b820191906000526020600020905b8154815290600101906020018083116118d157829003601f168201915b5050505050905084565b60008060108360405161190b9190614b7f565b9081526020016040518091039020846040516119279190614b7f565b9081526020016040518091039020805490509050600081141561194957600190505b8091505092915050565b600b818154811061196357600080fd5b9060005260206000209060030201600091509050806000018054600181600116156101000203166002900480601f016020809104026020016040519081016040528092919081815260200182805460018160011615610100020316600290048015611a0f5780601f106119e457610100808354040283529160200191611a0f565b820191906000526020600020905b8154815290600101906020018083116119f257829003601f168201915b505050505090806001015490806002018054600181600116156101000203166002900480601f016020809104026020016040519081016040528092919081815260200182805460018160011615610100020316600290048015611ab35780601f10611a8857610100808354040283529160200191611ab3565b820191906000526020600020905b815481529060010190602001808311611a9657829003601f168201915b5050505050905083565b6003602052806000526040600020600091509050806000018054600181600116156101000203166002900480601f016020809104026020016040519081016040528092919081815260200182805460018160011615610100020316600290048015611b695780601f10611b3e57610100808354040283529160200191611b69565b820191906000526020600020905b815481529060010190602001808311611b4c57829003601f168201915b505050505090806001018054600181600116156101000203166002900480601f016020809104026020016040519081016040528092919081815260200182805460018160011615610100020316600290048015611c075780601f10611bdc57610100808354040283529160200191611c07565b820191906000526020600020905b815481529060010190602001808311611bea57829003601f168201915b5050505050905082565b6000600780549050905090565b600080600260008473ffffffffffffffffffffffffffffffffffffffff1673ffffffffffffffffffffffffffffffffffffffff16815260200190815260200160002060000160009054906101000a900473ffffffffffffffffffffffffffffffffffffffff169050600073ffffffffffffffffffffffffffffffffffffffff168173ffffffffffffffffffffffffffffffffffffffff161415915050919050565b611cc7613f29565b600c60008373ffffffffffffffffffffffffffffffffffffffff1673ffffffffffffffffffffffffffffffffffffffff168152602001908152602001600020604051806060016040529081600082018054600181600116156101000203166002900480601f016020809104026020016040519081016040528092919081815260200182805460018160011615610100020316600290048015611daa5780601f10611d7f57610100808354040283529160200191611daa565b820191906000526020600020905b815481529060010190602001808311611d8d57829003601f168201915b50505050508152602001600182018054600181600116156101000203166002900480601f016020809104026020016040519081016040528092919081815260200182805460018160011615610100020316600290048015611e4c5780601f10611e2157610100808354040283529160200191611e4c565b820191906000526020600020905b815481529060010190602001808311611e2f57829003601f168201915b505050505081526020016002820154815250509050919050565b60008054906101000a900473ffffffffffffffffffffffffffffffffffffffff1681565b60136020528160005260406000208181548110611ea657600080fd5b906000526020600020906003020160009150915050806000018054600181600116156101000203166002900480601f016020809104026020016040519081016040528092919081815260200182805460018160011615610100020316600290048015611f535780601f10611f2857610100808354040283529160200191611f53565b820191906000526020600020905b815481529060010190602001808311611f3657829003601f168201915b505050505090806001015490806002018054600181600116156101000203166002900480601f016020809104026020016040519081016040528092919081815260200182805460018160011615610100020316600290048015611ff75780601f10611fcc57610100808354040283529160200191611ff7565b820191906000526020600020905b815481529060010190602001808311611fda57829003601f168201915b5050505050905083565b600e8380516020810182018051848252602083016020850120818352809550505050505082805160208101820180518482526020830160208501208183528095505050505050602052806000526040600020600092509250509054906101000a900460ff1681565b60008060009054906101000a900473ffffffffffffffffffffffffffffffffffffffff1673ffffffffffffffffffffffffffffffffffffffff163373ffffffffffffffffffffffffffffffffffffffff16146120fa576040517f08c379a00000000000000000000000000000000000000000000000000000000081526004016120f190614f2b565b60405180910390fd5b6060829050600081511415612144576040517f08c379a000000000000000000000000000000000000000000000000000000000815260040161213b90614ecb565b60405180910390fd5b600a6040518060400160405280600a8054905081526020018581525090806001815401808255809150506001900390600052602060002090600202016000909190919091506000820151816000015560208201518160010190805190602001906121af929190613e9b565b5050506001600a8054905003915050919050565b60606000806000600d856040516121da9190614b7f565b9081526020016040518091039020866040516121f69190614b7f565b908152602001604051809103902080549050905060005b818110156122c457600f866040516122259190614b7f565b9081526020016040518091039020876040516122419190614b7f565b90815260200160405180910390206000600d886040516122619190614b7f565b90815260200160405180910390208960405161227d9190614b7f565b9081526020016040518091039020838154811061229657fe5b906000526020600020015481526020019081526020016000208054905084019350808060010191505061220d565b5060008111156127e05760608367ffffffffffffffff811180156122e757600080fd5b5060405190808252806020026020018201604052801561232157816020015b61230e613f4a565b8152602001906001900390816123065790505b50905060005b828110156127c7576060600f886040516123419190614b7f565b90815260200160405180910390208960405161235d9190614b7f565b90815260200160405180910390206000600d8a60405161237d9190614b7f565b90815260200160405180910390208b6040516123999190614b7f565b908152602001604051809103902084815481106123b257fe5b9060005260206000200154815260200190815260200160002080548060200260200160405190810160405280929190818152602001828054801561244b57602002820191906000526020600020905b8160009054906101000a900473ffffffffffffffffffffffffffffffffffffffff1673ffffffffffffffffffffffffffffffffffffffff1681526020019060010190808311612401575b5050505050905060008590505b858251018110156127b2576011896040516124739190614b7f565b90815260200160405180910390208a60405161248f9190614b7f565b90815260200160405180910390206000600d8b6040516124af9190614b7f565b90815260200160405180910390208c6040516124cb9190614b7f565b908152602001604051809103902085815481106124e457fe5b90600052602060002001548152602001908152602001600020600083838151811061250b57fe5b602002602001015173ffffffffffffffffffffffffffffffffffffffff1673ffffffffffffffffffffffffffffffffffffffff1681526020019081526020016000206000018054600181600116156101000203166002900480601f0160208091040260200160405190810160405280929190818152602001828054600181600116156101000203166002900480156125e45780601f106125b9576101008083540402835291602001916125e4565b820191906000526020600020905b8154815290600101906020018083116125c757829003601f168201915b50505050508482815181106125f557fe5b6020026020010151600001819052506011896040516126149190614b7f565b90815260200160405180910390208a6040516126309190614b7f565b90815260200160405180910390206000600d8b6040516126509190614b7f565b90815260200160405180910390208c60405161266c9190614b7f565b9081526020016040518091039020858154811061268557fe5b9060005260206000200154815260200190815260200160002060008383815181106126ac57fe5b602002602001015173ffffffffffffffffffffffffffffffffffffffff1673ffffffffffffffffffffffffffffffffffffffff1681526020019081526020016000206001018054600181600116156101000203166002900480601f0160208091040260200160405190810160405280929190818152602001828054600181600116156101000203166002900480156127855780601f1061275a57610100808354040283529160200191612785565b820191906000526020600020905b81548152906001019060200180831161276857829003601f168201915b505050505084828151811061279657fe5b6020026020010151602001819052508080600101915050612458565b50805185019450508080600101915050612327565b50600092506000935060009150809450505050506128e3565b6060600167ffffffffffffffff811180156127fa57600080fd5b5060405190808252806020026020018201604052801561283457816020015b612821613f4a565b8152602001906001900390816128195790505b5090506040518060400160405280600181526020017f41000000000000000000000000000000000000000000000000000000000000008152508160008151811061287a57fe5b6020026020010151600001819052506040518060400160405280600581526020017f6c696e7578000000000000000000000000000000000000000000000000000000815250816000815181106128cc57fe5b602002602001015160200181905250809450505050505b92915050565b6000600680549050905090565b600d8380516020810182018051848252602083016020850120818352809550505050505082805160208101820180518482526020830160208501208183528095505050505050818154811061294a57600080fd5b9060005260206000200160009250925050505481565b600c602052806000526040600020600091509050806000018054600181600116156101000203166002900480601f016020809104026020016040519081016040528092919081815260200182805460018160011615610100020316600290048015612a0c5780601f106129e157610100808354040283529160200191612a0c565b820191906000526020600020905b8154815290600101906020018083116129ef57829003601f168201915b505050505090806001018054600181600116156101000203166002900480601f016020809104026020016040519081016040528092919081815260200182805460018160011615610100020316600290048015612aaa5780601f10612a7f57610100808354040283529160200191612aaa565b820191906000526020600020905b815481529060010190602001808311612a8d57829003601f168201915b5050505050908060020154905083565b6060859050600081511415612b04576040517f08c379a0000000000000000000000000000000000000000000000000000000008152600401612afb90614e2b565b60405180910390fd5b6060859050600081511415612b4e576040517f08c379a0000000000000000000000000000000000000000000000000000000008152600401612b4590614deb565b60405180910390fd5b6060859050600081511415612b98576040517f08c379a0000000000000000000000000000000000000000000000000000000008152600401612b8f90614f0b565b60405180910390fd5b33601287604051612ba99190614b7f565b908152602001604051809103902089604051612bc59190614b7f565b9081526020016040518091039020600086815260200190815260200160002060003373ffffffffffffffffffffffffffffffffffffffff1673ffffffffffffffffffffffffffffffffffffffff16815260200190815260200160002060000160006101000a81548173ffffffffffffffffffffffffffffffffffffffff021916908373ffffffffffffffffffffffffffffffffffffffff16021790555085601287604051612c739190614b7f565b908152602001604051809103902089604051612c8f9190614b7f565b9081526020016040518091039020600086815260200190815260200160002060003373ffffffffffffffffffffffffffffffffffffffff1673ffffffffffffffffffffffffffffffffffffffff1681526020019081526020016000206001019080519060200190612d01929190613e9b565b5086601287604051612d139190614b7f565b908152602001604051809103902089604051612d2f9190614b7f565b9081526020016040518091039020600086815260200190815260200160002060003373ffffffffffffffffffffffffffffffffffffffff1673ffffffffffffffffffffffffffffffffffffffff1681526020019081526020016000206002019080519060200190612da1929190613e9b565b50600f86604051612db29190614b7f565b908152602001604051809103902088604051612dce9190614b7f565b90815260200160405180910390206000858152602001908152602001600020339080600181540180825580915050600190039060005260206000200160009091909190916101000a81548173ffffffffffffffffffffffffffffffffffffffff021916908373ffffffffffffffffffffffffffffffffffffffff160217905550601086604051612e5e9190614b7f565b908152602001604051809103902088604051612e7a9190614b7f565b9081526020016040518091039020339080600181540180825580915050600190039060005260206000200160009091909190916101000a81548173ffffffffffffffffffffffffffffffffffffffff021916908373ffffffffffffffffffffffffffffffffffffffff160217905550601360003373ffffffffffffffffffffffffffffffffffffffff1673ffffffffffffffffffffffffffffffffffffffff16815260200190815260200160002060405180606001604052808a81526020018681526020018881525090806001815401808255809150506001900390600052602060002090600302016000909190919091506000820151816000019080519060200190612f88929190613e9b565b50602082015181600101556040820151816002019080519060200190612faf929190613e9b565b50505060001515600e87604051612fc69190614b7f565b908152602001604051809103902089604051612fe29190614b7f565b9081526020016040518091039020600086815260200190815260200160002060009054906101000a900460ff16151514156130dd57600d866040516130279190614b7f565b9081526020016040518091039020886040516130439190614b7f565b90815260200160405180910390208490806001815401808255809150506001900390600052602060002001600090919091909150556001600e8760405161308a9190614b7f565b9081526020016040518091039020896040516130a69190614b7f565b9081526020016040518091039020600086815260200190815260200160002060006101000a81548160ff0219169083151502179055505b5050505050505050565b6000600a80549050905090565b600a818154811061310457600080fd5b9060005260206000209060020201600091509050806000015490806001018054600181600116156101000203166002900480601f0160208091040260200160405190810160405280929190818152602001828054600181600116156101000203166002900480156131b65780601f1061318b576101008083540402835291602001916131b6565b820191906000526020600020905b81548152906001019060200180831161319957829003601f168201915b5050505050905082565b60118480516020810182018051848252602083016020850120818352809550505050505083805160208101820180518482526020830160208501208183528095505050505050602052816000526040600020602052806000526040600020600093509350505050806000018054600181600116156101000203166002900480601f0160208091040260200160405190810160405280929190818152602001828054600181600116156101000203166002900480156132bf5780601f10613294576101008083540402835291602001916132bf565b820191906000526020600020905b8154815290600101906020018083116132a257829003601f168201915b505050505090806001018054600181600116156101000203166002900480601f01602080910402602001604051908101604052809291908181526020018280546001816001161561010002031660029004801561335d5780601f106133325761010080835404028352916020019161335d565b820191906000526020600020905b81548152906001019060200180831161334057829003601f168201915b5050505050905082565b600160009054906101000a900473ffffffffffffffffffffffffffffffffffffffff1681565b6006818154811061339d57600080fd5b906000526020600020016000915054906101000a900473ffffffffffffffffffffffffffffffffffffffff1681565b6060806060806133db33613c97565b61341a576040517f08c379a000000000000000000000000000000000000000000000000000000000815260040161341190614e6b565b60405180910390fd5b613422613f64565b600460003373ffffffffffffffffffffffffffffffffffffffff1673ffffffffffffffffffffffffffffffffffffffff168152602001908152602001600020604051806080016040529081600082018054600181600116156101000203166002900480601f0160208091040260200160405190810160405280929190818152602001828054600181600116156101000203166002900480156135055780601f106134da57610100808354040283529160200191613505565b820191906000526020600020905b8154815290600101906020018083116134e857829003601f168201915b50505050508152602001600182018054600181600116156101000203166002900480601f0160208091040260200160405190810160405280929190818152602001828054600181600116156101000203166002900480156135a75780601f1061357c576101008083540402835291602001916135a7565b820191906000526020600020905b81548152906001019060200180831161358a57829003601f168201915b50505050508152602001600282018054600181600116156101000203166002900480601f0160208091040260200160405190810160405280929190818152602001828054600181600116156101000203166002900480156136495780601f1061361e57610100808354040283529160200191613649565b820191906000526020600020905b81548152906001019060200180831161362c57829003601f168201915b50505050508152602001600382018054600181600116156101000203166002900480601f0160208091040260200160405190810160405280929190818152602001828054600181600116156101000203166002900480156136eb5780601f106136c0576101008083540402835291602001916136eb565b820191906000526020600020905b8154815290600101906020018083116136ce57829003601f168201915b5050505050815250509050806000015194508060200151935080606001519150806040015192505090919293565b600f8480516020810182018051848252602083016020850120818352809550505050505083805160208101820180518482526020830160208501208183528095505050505050602052816000526040600020818154811061377957600080fd5b9060005260206000200160009350935050509054906101000a900473ffffffffffffffffffffffffffffffffffffffff1681565b6000601360008373ffffffffffffffffffffffffffffffffffffffff1673ffffffffffffffffffffffffffffffffffffffff168152602001908152602001600020805490509050919050565b6060600a828154811061380857fe5b90600052602060002090600202016001018054600181600116156101000203166002900480601f0160208091040260200160405190810160405280929190818152602001828054600181600116156101000203166002900480156138ad5780601f10613882576101008083540402835291602001916138ad565b820191906000526020600020905b81548152906001019060200180831161389057829003601f168201915b50505050509050919050565b826012836040516138ca9190614b7f565b9081526020016040518091039020856040516138e69190614b7f565b9081526020016040518091039020600083815260200190815260200160002060003373ffffffffffffffffffffffffffffffffffffffff1673ffffffffffffffffffffffffffffffffffffffff1681526020019081526020016000206003019080519060200190613958929190613e9b565b5050505050565b61396833613c97565b156139a8576040517f08c379a000000000000000000000000000000000000000000000000000000000815260040161399f90614eab565b60405180910390fd5b60608490506000815114156139f2576040517f08c379a00000000000000000000000000000000000000000000000000000000081526004016139e990614e2b565b60405180910390fd5b6139fa613f64565b604051806080016040528087815260200186815260200185815260200184815250905080600460003373ffffffffffffffffffffffffffffffffffffffff1673ffffffffffffffffffffffffffffffffffffffff1681526020019081526020016000206000820151816000019080519060200190613a79929190613e9b565b506020820151816001019080519060200190613a96929190613e9b565b506040820151816002019080519060200190613ab3929190613e9b565b506060820151816003019080519060200190613ad0929190613e9b565b509050506007339080600181540180825580915050600190039060005260206000200160009091909190916101000a81548173ffffffffffffffffffffffffffffffffffffffff021916908373ffffffffffffffffffffffffffffffffffffffff160217905550505050505050565b60078181548110613b4f57600080fd5b906000526020600020016000915054906101000a900473ffffffffffffffffffffffffffffffffffffffff1681565b600080601084604051613b919190614b7f565b908152602001604051809103902085604051613bad9190614b7f565b9081526020016040518091039020805490501115613c42576000601084604051613bd79190614b7f565b908152602001604051809103902085604051613bf39190614b7f565b90815260200160405180910390208381548110613c0c57fe5b9060005260206000200160009054906101000a900473ffffffffffffffffffffffffffffffffffffffff16905080915050613c46565b3390505b9392505050565b6000600c60003373ffffffffffffffffffffffffffffffffffffffff1673ffffffffffffffffffffffffffffffffffffffff16815260200190815260200160002060020181905550565b60006060600460008473ffffffffffffffffffffffffffffffffffffffff1673ffffffffffffffffffffffffffffffffffffffff1681526020019081526020016000206000018054600181600116156101000203166002900480601f016020809104026020016040519081016040528092919081815260200182805460018160011615610100020316600290048015613d715780601f10613d4657610100808354040283529160200191613d71565b820191906000526020600020905b815481529060010190602001808311613d5457829003601f168201915b50505050509050606081905060008151141592505050919050565b60006060600360008473ffffffffffffffffffffffffffffffffffffffff1673ffffffffffffffffffffffffffffffffffffffff1681526020019081526020016000206000018054600181600116156101000203166002900480601f016020809104026020016040519081016040528092919081815260200182805460018160011615610100020316600290048015613e665780601f10613e3b57610100808354040283529160200191613e66565b820191906000526020600020905b815481529060010190602001808311613e4957829003601f168201915b50505050509050606081905060008151141592505050919050565b604051806040016040528060608152602001606081525090565b828054600181600116156101000203166002900490600052602060002090601f016020900481019282613ed15760008555613f18565b82601f10613eea57805160ff1916838001178555613f18565b82800160010185558215613f18579182015b82811115613f17578251825591602001919060010190613efc565b5b509050613f259190613f8c565b5090565b60405180606001604052806060815260200160608152602001600081525090565b604051806040016040528060608152602001606081525090565b6040518060800160405280606081526020016060815260200160608152602001606081525090565b5b80821115613fa5576000816000905550600101613f8d565b5090565b600081359050613fb881615127565b92915050565b600082601f830112613fcf57600080fd5b8135613fe2613fdd82614fe9565b614fb8565b91508082526020830160208301858383011115613ffe57600080fd5b6140098382846150d2565b50505092915050565b6000813590506140218161513e565b92915050565b60006020828403121561403957600080fd5b600061404784828501613fa9565b91505092915050565b6000806040838503121561406357600080fd5b600061407185828601613fa9565b925050602061408285828601614012565b9150509250929050565b60006020828403121561409e57600080fd5b600082013567ffffffffffffffff8111156140b857600080fd5b6140c484828501613fbe565b91505092915050565b600080604083850312156140e057600080fd5b600083013567ffffffffffffffff8111156140fa57600080fd5b61410685828601613fbe565b925050602083013567ffffffffffffffff81111561412357600080fd5b61412f85828601613fbe565b9150509250929050565b6000806000806080858703121561414f57600080fd5b600085013567ffffffffffffffff81111561416957600080fd5b61417587828801613fbe565b945050602085013567ffffffffffffffff81111561419257600080fd5b61419e87828801613fbe565b935050604085013567ffffffffffffffff8111156141bb57600080fd5b6141c787828801613fbe565b925050606085013567ffffffffffffffff8111156141e457600080fd5b6141f087828801613fbe565b91505092959194509250565b600080600080600060a0868803121561421457600080fd5b600086013567ffffffffffffffff81111561422e57600080fd5b61423a88828901613fbe565b955050602086013567ffffffffffffffff81111561425757600080fd5b61426388828901613fbe565b945050604086013567ffffffffffffffff81111561428057600080fd5b61428c88828901613fbe565b935050606086013567ffffffffffffffff8111156142a957600080fd5b6142b588828901613fbe565b92505060806142c688828901614012565b9150509295509295909350565b600080600080608085870312156142e957600080fd5b600085013567ffffffffffffffff81111561430357600080fd5b61430f87828801613fbe565b945050602085013567ffffffffffffffff81111561432c57600080fd5b61433887828801613fbe565b935050604085013567ffffffffffffffff81111561435557600080fd5b61436187828801613fbe565b925050606061437287828801614012565b91505092959194509250565b60008060006060848603121561439357600080fd5b600084013567ffffffffffffffff8111156143ad57600080fd5b6143b986828701613fbe565b935050602084013567ffffffffffffffff8111156143d657600080fd5b6143e286828701613fbe565b92505060406143f386828701614012565b9150509250925092565b6000806000806080858703121561441357600080fd5b600085013567ffffffffffffffff81111561442d57600080fd5b61443987828801613fbe565b945050602085013567ffffffffffffffff81111561445657600080fd5b61446287828801613fbe565b935050604061447387828801614012565b925050606061448487828801613fa9565b91505092959194509250565b600080600080608085870312156144a657600080fd5b600085013567ffffffffffffffff8111156144c057600080fd5b6144cc87828801613fbe565b945050602085013567ffffffffffffffff8111156144e957600080fd5b6144f587828801613fbe565b935050604061450687828801614012565b925050606061451787828801614012565b91505092959194509250565b60006020828403121561453557600080fd5b600061454384828501614012565b91505092915050565b60006145588383614ac6565b905092915050565b6145698161508a565b82525050565b600061457a82615029565b614584818561504c565b93508360208202850161459685615019565b8060005b858110156145d257848403895281516145b3858261454c565b94506145be8361503f565b925060208a0199505060018101905061459a565b50829750879550505050505092915050565b6145ed8161509c565b82525050565b60006145fe82615034565b614608818561505d565b93506146188185602086016150e1565b61462181615116565b840191505092915050565b600061463782615034565b614641818561506e565b93506146518185602086016150e1565b61465a81615116565b840191505092915050565b600061467082615034565b61467a818561507f565b935061468a8185602086016150e1565b80840191505092915050565b60006146a3601f8361506e565b91507f456c2061646472657373206e6f20707565646520657374617220766163696f006000830152602082019050919050565b60006146e360258361506e565b91507f4c6120686f726120646520656e7472616461206e6f207075656465207365722060008301527f766163696f0000000000000000000000000000000000000000000000000000006020830152604082019050919050565b600061474960288361506e565b91507f536f6c6f207065726d697469646f206120616c756d6e6f73206e6f206d61747260008301527f6963756c61646f730000000000000000000000000000000000000000000000006020830152604082019050919050565b60006147af601c8361506e565b91507f456c206e6f6d627265206e6f2070756564652073657220766163696f000000006000830152602082019050919050565b60006147ef60258361506e565b91507f536f6c6f207065726d697469646f206120616c756d6e6f73206d61747269637560008301527f6c61646f730000000000000000000000000000000000000000000000000000006020830152604082019050919050565b600061485560238361506e565b91507f536f6c6f207065726d697469646f20612070726f66657320726567697374726160008301527f646f7300000000000000000000000000000000000000000000000000000000006020830152604082019050919050565b60006148bb60258361506e565b91507f4e6f207365207065726d697465206c6120726563657063696f6e20646520646960008301527f6e65726f2e0000000000000000000000000000000000000000000000000000006020830152604082019050919050565b600061492160268361506e565b91507f536f6c6f207065726d697469646f20612070726f666573206e6f20726567697360008301527f747261646f7300000000000000000000000000000000000000000000000000006020830152604082019050919050565b600061498760248361506e565b91507f456c206e6f6d6272652064656c206c6162206e6f20707565646520736572207660008301527f6163696f000000000000000000000000000000000000000000000000000000006020830152604082019050919050565b60006149ed60288361506e565b91507f536f6c6f207065726d697469646f206120706572736f6e6173206e6f2072656760008301527f6973747261646f730000000000000000000000000000000000000000000000006020830152604082019050919050565b6000614a53601b8361506e565b91507f4c61206665636861206e6f2070756564652073657220766163696f00000000006000830152602082019050919050565b6000614a9360178361506e565b91507f536f6c6f207065726d697469646f20616c206f776e65720000000000000000006000830152602082019050919050565b60006040830160008301518482036000860152614ae382826145f3565b91505060208301518482036020860152614afd82826145f3565b9150508091505092915050565b60006060830160008301518482036000860152614b2782826145f3565b91505060208301518482036020860152614b4182826145f3565b9150506040830151614b566040860182614b61565b508091505092915050565b614b6a816150c8565b82525050565b614b79816150c8565b82525050565b6000614b8b8284614665565b915081905092915050565b6000602082019050614bab6000830184614560565b92915050565b600060e082019050614bc6600083018a614560565b8181036020830152614bd8818961462c565b90508181036040830152614bec818861462c565b90508181036060830152614c00818761462c565b90508181036080830152614c14818661462c565b905081810360a0830152614c28818561462c565b905081810360c0830152614c3c818461462c565b905098975050505050505050565b60006020820190508181036000830152614c64818461456f565b905092915050565b6000602082019050614c8160008301846145e4565b92915050565b60006020820190508181036000830152614ca1818461462c565b905092915050565b60006040820190508181036000830152614cc3818561462c565b90508181036020830152614cd7818461462c565b90509392505050565b60006080820190508181036000830152614cfa818761462c565b90508181036020830152614d0e818661462c565b90508181036040830152614d22818561462c565b90508181036060830152614d36818461462c565b905095945050505050565b60006060820190508181036000830152614d5b818661462c565b90508181036020830152614d6f818561462c565b9050614d7e6040830184614b70565b949350505050565b60006060820190508181036000830152614da0818661462c565b9050614daf6020830185614b70565b8181036040830152614dc1818461462c565b9050949350505050565b60006020820190508181036000830152614de481614696565b9050919050565b60006020820190508181036000830152614e04816146d6565b9050919050565b60006020820190508181036000830152614e248161473c565b9050919050565b60006020820190508181036000830152614e44816147a2565b9050919050565b60006020820190508181036000830152614e64816147e2565b9050919050565b60006020820190508181036000830152614e8481614848565b9050919050565b60006020820190508181036000830152614ea4816148ae565b9050919050565b60006020820190508181036000830152614ec481614914565b9050919050565b60006020820190508181036000830152614ee48161497a565b9050919050565b60006020820190508181036000830152614f04816149e0565b9050919050565b60006020820190508181036000830152614f2481614a46565b9050919050565b60006020820190508181036000830152614f4481614a86565b9050919050565b60006020820190508181036000830152614f658184614b0a565b905092915050565b6000602082019050614f826000830184614b70565b92915050565b6000604082019050614f9d6000830185614b70565b8181036020830152614faf818461462c565b90509392505050565b6000604051905081810181811067ffffffffffffffff82111715614fdf57614fde615114565b5b8060405250919050565b600067ffffffffffffffff82111561500457615003615114565b5b601f19601f8301169050602081019050919050565b6000819050602082019050919050565b600081519050919050565b600081519050919050565b6000602082019050919050565b600082825260208201905092915050565b600082825260208201905092915050565b600082825260208201905092915050565b600081905092915050565b6000615095826150a8565b9050919050565b60008115159050919050565b600073ffffffffffffffffffffffffffffffffffffffff82169050919050565b6000819050919050565b82818337600083830152505050565b60005b838110156150ff5780820151818401526020810190506150e4565b8381111561510e576000848401525b50505050565bfe5b6000601f19601f8301169050919050565b6151308161508a565b811461513b57600080fd5b50565b615147816150c8565b811461515257600080fd5b5056fea264697066735822122004d851eb97cb38dcd4462ad53867bde10008a9554cd382d348bd7c71b445580964736f6c63430007040033",
  "immutableReferences": {},
  "source": "pragma solidity ^0.7.4;\r\npragma experimental ABIEncoderV2;//enabled when passing an array of string(struct) as a function paramete\r\n\r\n\r\n/*\r\n*falta : \r\n*crear lo de las asignaturas con los laborarios y puestos a los que perteneces y las caracteristicas que desepean cada puesto \r\n*crear las reservas , se va a reservar por semana un puesto de un determinado laboratorio \r\n*/\r\n\r\n\r\ncontract ReslabEtsit {\r\n    \r\n   \r\n    /**\r\n     * address del profesor que ha desplegado el contrato.\r\n     * El contrato lo despliega el profesor.\r\n     */\r\n    address public owner;\r\n    address public profesorP;\r\n     \r\n    \r\n    /// Nombre de la asignatura\r\n    //string public nombre;\r\n    \r\n   \r\n    \r\n    /**\r\n     * Datos de un puesto\r\n     */\r\n     \r\n     \r\n     \r\n    enum TipoSO {windows, macos , linux}\r\n    \r\n    enum TipoConexionesRed { cable, inalambrico} // array de strings \r\n    \r\n   \r\n   // enum Horario { turnom ,turnot}//poenr horas y turnos en enum???? array de horas \r\n    \r\n    struct Puesto {\r\n        string nombre;\r\n        //caracteristicas\r\n        TipoConexionesRed tipoConexionesRed;\r\n        TipoSO tipoSO;\r\n       // Laboratorio laboratorio;\r\n       \r\n    }\r\n    \r\n    \r\n    \r\n    \r\n    \r\n    /// puestos de la asignatura.\r\n   // Puesto[] public puestos;\r\n    \r\n    //labs de la asignatura\r\n    \r\n   // Laboratorio[] public laboratorios;\r\n   \r\n   \r\n    /**\r\n    * datos de todos los labs con sus parametro en la pantalla de inicio\r\n    * DUDA -> QUIERO PONERARRAY DE STRING DE ASIGNATURA!!\r\n    **/\r\n     struct DatosLaboratorio {\r\n        uint labId;\r\n        string nombreL;\r\n        //string[] asignaturaL;\r\n       \r\n    }\r\n    \r\n    /**\r\n    * datos del alumno que se registra \r\n    **/\r\n   // datos persona \r\n    struct DatosPersona {\r\n\taddress dir;\r\n    }\r\n\r\n    /// Datos de un alumno.\r\n    struct DatosAlumno {\r\n        string nombre;\r\n        string email;\r\n        \r\n    }\r\n    \r\n    /**\r\n     * Datos profe que se registra \r\n     * */\r\n     \r\n    \r\n    struct DatosProfesor{\r\n        string nombreP;\r\n        string emailP;\r\n        string asignaturaP;\r\n        string departamentoP;\r\n    }\r\n    \r\n    \r\n    \r\n    /**\r\n     * Datos de lasegunda pantalla donde te aparcene el estado de reserva, puestos etc del lab)\r\n     * */\r\n    struct PinchaLab {\r\n        \r\n\r\n\tstring puesto;\r\n        \r\n\r\n\tstring info; //enumerado del sistema operativo!!!!!!!!!!!\r\n    }\r\n\r\n\r\n    /**\r\n     * Datos de la tercera  pantalla donde te aparcene el estado de reserva, asignatuas etc del lab)\r\n     * */\r\n\r\n    struct PinchaPuesto {\r\n        \r\n\taddress dir;\r\n\t\r\n\tstring fecha;\r\n\tstring entradaTurno;\r\n\tstring salidaTurno;\r\n\t\r\n        \r\n\tstring estado;\r\n\tstring asignatura;\r\n\tstring info; //enumerado del sistema operativo!!!!!!!!!!!\r\n    }\r\n\r\n\r\n\r\n\r\n\r\n    \r\n   /* struct DatosAsignatura{\r\n        string nombre;\r\n        Laboratorio[] laboratorio;\r\n        Puesto[] puesto;\r\n        //credito semanal\r\n        //Matriculas matriculados;\r\n    }\r\n    */\r\n    \r\n    \r\n    \r\n    /**\r\n     * Datos de los datos de las ultimas reservas registradas // FALTAN PUESTO\r\n     * */\r\n     \r\n     struct UltimaReserva{\r\n         string lab;\r\n         uint turno;\r\n         string fecha;\r\n         \r\n         \r\n     }\r\n     \r\n     /**\r\n      * Datos de mireserva //FALTA PUESTO\r\n      * */\r\n      \r\n      struct ReservaAlumno{\r\n          string lab;\r\n          string fecha;\r\n          uint estado;\r\n          //string puesto;\r\n\r\n      }\r\n      \r\n      // acceder a los datos de una persona dada su direccion\r\n      mapping (address => DatosPersona) public datosPersona;\r\n    \r\n    /// Acceder a los datos de un alumno dada su direccion.\r\n    mapping (address => DatosAlumno) public datosAlumno;\r\n    \r\n      /// Acceder a los datos de un profe dada su direccion.\r\n    mapping (address => DatosProfesor) public datosProfesor;\r\n    \r\n    //mapping (address => DatosAsignatura)  datosAsignatura;\r\n    \r\n    \r\n    mapping (address => DatosLaboratorio)  datosLaboratorio;\r\n\r\n    //mapping(uint => Laboratorio) public labPuestos; //acceder a los puestos del lab dada la info del lab\r\n  \r\n\r\n    \r\n    // Array con las direcciones de los alumnos matriculados.\r\n    address[] public matriculas;\r\n    \r\n    \r\n    //array con las direcciones de los profes registrados \r\n    address[] public profesRegistrados;\r\n    \r\n        // Array con las direcciones de las personas registradas.\r\n    address[] public registradosP;\r\n\r\n    \r\n    //Array credito semanal \r\n    address [] public creditosemanal;\r\n    \r\n    //address[] public asignaturasRegistradas;\r\n    \r\n    \r\n    // labs en la escuela\r\n    DatosLaboratorio[] public laboratoriosRegistrados;\r\n    //reservas de la escuela\r\n    \r\n    UltimaReserva[] public reservasLab;\r\n        \r\n   \r\n\r\n     //reserva para un usuario \r\n  \r\n    mapping (address => ReservaAlumno) public reservasAlumno;\r\n    \r\n    \r\n    //turno de la escuela\r\n\r\n    mapping (string => mapping (string  => uint[] )) public turnos;\r\n    \r\n        /// Mapping para evitar duplicados de turnos.\r\n    mapping (string => mapping (string  => mapping ( uint => bool ))) public turnos_existentes;\r\n    \r\n    /// Direcciones de las personas que han asistido a algun aula en alguna de las fechas y en algun turno.\r\n    mapping (string => mapping (string => mapping (uint => address[] ))) public personas;\r\n   \r\n    /// Direcciones de las personas que han asistido a algun aula en alguna de las fechas.\r\n    mapping (string => mapping (string => address[] )) public personasTotales;\r\n    \r\n    // Dada la fecha actual, el nombre del aula, el turno y la direccin de la persona, devuelve\r\n    // la entrada correspondiente a dicha persona.\r\n    mapping (string => mapping (string => mapping (uint => mapping (address => PinchaLab)))) public datosLab;\r\n\r\n     // Dada la fecha actual, el nombre del aula, el turno y la direccin de la persona, devuelve\r\n    // la entrada correspondiente a dicha persona.\r\n    mapping (string => mapping (string => mapping (uint => mapping (address => PinchaPuesto)))) public datosPuesto;\r\n\r\n\r\n    /// Ultimas entradas de cada persona.\r\n    mapping (address => UltimaReserva[] ) public ultimosRegistros;\r\n\r\n  // mapping(uint => bool) public registeredLaboratorios; //saberr si un lab esta registrado\r\n   // mapping(uint => Laboratorio) public labPuestos; //acceder a los puestos del lab dada la info del lab \r\n    // labId -> mes ->semana-> hora -> waitingList[]\r\n /*   mapping(uint => mapping(uint => mapping(uint => mapping(uint => address[])))) public reservations;\r\n    // labId -> mes ->semana-> hora -> waitingListLength\r\n    mapping(uint => mapping(uint => mapping(uint => mapping(uint => uint)))) public reservationLengths;\r\n    // address -> _labID -> mes ->semana-> hora -> bool*/\r\n /*   mapping(address => mapping(uint => mapping(uint => mapping(uint => mapping(uint => bool))))) public isLabReserved;\r\n    event Reservation(\r\n        address indexed _from,\r\n        uint _labID,\r\n        uint _mes,\r\n        uint _semana,\r\n        uint _hora\r\n    );\r\n    event Cancellation(\r\n        address indexed _from,\r\n        uint _labID,\r\n        uint _mes,\r\n        uint _semana,\r\n        uint _hora\r\n    );\r\n    \r\n    \r\n  */\r\n    \r\n    \r\n    \r\n    \r\n    /*\r\n     * Constructor.\r\n     * \r\n     * @param _nombre Nombre de la asignatura.\r\n     * //habria qu eponer nombre puesto /lab /alumno etc \r\n    \r\n     */\r\n    /*constructor(string memory _nombre) {\r\n        \r\n        bytes memory bn = bytes(_nombre);\r\n        require(bn.length != 0, \"El nombre de la asignatura no puede ser vacio\");\r\n       \r\n       \r\n      \r\n        owner = msg.sender;\r\n        nombre = _nombre;\r\n        \r\n        \r\n     \r\n        \r\n    }*/\r\n    \r\n    constructor()  {\r\n        owner = msg.sender;\r\n    } //?????????????????????????????????\r\n\r\n    \r\n    \r\n    \r\n    \r\n    \r\n    /**\r\n     * El numero depuestos creadas.\r\n     *\r\n     * @return El numero de puestos creadas.\r\n     */\r\n   /* function puestosLength() public view returns(uint) {\r\n        return puestos.length;\r\n    }\r\n    \r\n    \r\n    \r\n     /**\r\n     * El numero de labs  creadas.\r\n     *\r\n     * @return El numero de labs creadas.\r\n     */\r\n    function laboratoriosLength() public view returns(uint) {\r\n        return laboratoriosRegistrados.length;\r\n    }\r\n    \r\n    \r\n    \r\n        /**\r\n     * El numero de reservas existentes.\r\n     *\r\n     * @return El numero de alertas existentes.\r\n     */\r\n    function reservasLength() public view returns(uint) {\r\n        return reservasLab.length;\r\n\r\n    }\r\n\r\n\t  /**\r\n     * El numero de ultimosRegistros existentes.\r\n     *\r\n     * @return El numero de ultimosRegistros existentes.\r\n     */\r\n    function ultimosRegistrosLength(address dir) public view returns(uint) {\r\n\treturn ultimosRegistros[dir].length;\r\n    }\r\n        \r\n    /**\r\n     * Permite obtener la longitud del array de personasTotales.\r\n     * \r\n     */\r\n    function personasLength(string memory _nombre, string memory _fecha) public view returns(uint) {\r\n\r\n\tuint longitud = personasTotales[_fecha][_nombre].length;\r\n\r\n\tif(longitud == 0){\r\n\t  longitud = 1;\r\n\t}\r\n\r\n  \treturn longitud;\r\n\r\n    }\r\n\r\n\r\n\r\n    /**\r\n     * Permite obtener un address del array de personas.\r\n     * \r\n     */\r\n    function dirPersonas(string memory _nombre, string memory _fecha, uint _indice) public view returns(address) {\r\n\r\n\tif(personasTotales[_fecha][_nombre].length > 0){\r\n\taddress _dirUno = personasTotales[_fecha][_nombre][_indice];\r\n\treturn _dirUno;\r\n\r\n\t}else{\r\n\treturn msg.sender;\r\n\t}\t\t\t\r\n\t\r\n    }\r\n    \r\n        /**\r\n     * Obtiene los datos de una persona registrada.\r\n     * \r\n     * @param persona La direccion de una persona.\r\n     * \r\n     * @return los datos de una persona registrada.\r\n     */\r\n    function obtenerDatosPersona(address persona)  public view returns(address) {\r\n\t\r\n\t\r\n\tif(!estaRegistrado(persona)){\r\n\treturn address(0);\r\n\t} else{\t\r\n\treturn datosPersona[persona].dir;\r\n\t}\r\n\t\r\n        \r\n        \r\n    } \r\n    \r\n\r\n\r\n        /**\r\n     * La alerta (si la hay) de un alumno.\r\n     *\r\n     */\r\n    function reservas(address _dir) public view returns (ReservaAlumno memory) {\r\n\r\n\treturn reservasAlumno[_dir]; \r\n    }\r\n\r\n\r\n\r\n    /**\r\n     * Eliminar la alerta de un usuario\r\n     *\r\n     */\r\n    function reiniciarReserva() public {\r\n\r\n\treservasAlumno[msg.sender].estado = 0 ;\r\n\r\n\r\n    }\r\n\r\n        /**\r\n     * El lab del que se desea ver el historial.\r\n     *\r\n     */\r\n    function LabPulsado(uint x) public view returns (string memory) {\r\n\r\n\treturn laboratoriosRegistrados[x].nombreL; \r\n    }\r\n\r\n    \r\n    /**\r\n     * Crear un lab. \r\n     *\r\n     * Las labss se meteran en el array labss, y nos referiremos a ellas por su posicion en el array.\r\n     * \r\n     * @param _nombre El nombre del aula.\r\n     * \r\n     * @return La posicion en el array aulas,\r\n     */\r\n    \r\n     /**\r\n     * Las personas pueden registrar su asistencia a un lab con el metodo guardarReserva.\r\n     * \r\n     * Impedir que se pueda meter un nombre vacio.\r\n     *\r\n     *  _nombre El nombre del aula. \r\n     * _ent Hora de entrada al aula.\r\n     *  _fecha Fecha de entrada al aula.\r\n     *  _puesto Puesto en el aula.\r\n     */\r\n    function guardarReserva(string memory _nombre, string memory _entradaTurno, string memory _fecha, string memory _puesto, uint _turno) public {\r\n        \r\n\t\r\n    bytes memory a = bytes(_nombre);\r\n    require(a.length != 0, \"El nombre no puede ser vacio\");\r\n\r\n\tbytes memory b = bytes(_entradaTurno);\r\n\trequire(b.length != 0, \"La hora de entrada no puede ser vacio\");\r\n\r\n\tbytes memory c = bytes(_fecha);\r\n\trequire(c.length != 0, \"La fecha no puede ser vacio\");\r\n\r\n\t\r\n\tdatosPuesto[_fecha][_nombre][_turno][msg.sender].dir = msg.sender;\r\n\tdatosPuesto[_fecha][_nombre][_turno][msg.sender].fecha = _fecha;\r\n\tdatosPuesto[_fecha][_nombre][_turno][msg.sender].entradaTurno = _entradaTurno; \r\n\t\r\n \t\r\n\t/*if (reservasAlumno[msg.sender].estado==0) {\r\n   \tdatosLab[_fecha][_nombre][_turno][msg.sender].estado = \"Inicial\";\r\n\t} else if (reservasAlumno[msg.sender].estado==1) {\r\n   \tdatosLab[_fecha][_nombre][_turno][msg.sender].estado = \"Sospechoso\";\r\n\t} else if (reservasAlumno[msg.sender].estado==2) {\r\n   \tdatosLab[_fecha][_nombre][_turno][msg.sender].estado = \"Positivo\";\r\n\t} else {\r\n   \tdatosLab[_fecha][_nombre][_turno][msg.sender].estado = \"Negativo\";\r\n\t}*/\r\n\r\n        personas[_fecha][_nombre][_turno].push(msg.sender);\r\n\tpersonasTotales[_fecha][_nombre].push(msg.sender);\r\n\tultimosRegistros[msg.sender].push(UltimaReserva(_nombre,_turno,_fecha));\r\n\t\r\n\tif (turnos_existentes[_fecha][_nombre][_turno] == false){\r\n\t   turnos[_fecha][_nombre].push(_turno);\r\n\t   turnos_existentes[_fecha][_nombre][_turno] = true;\r\n\t}\r\n\r\n        \r\n    }\r\n    \r\n\r\n    /**\r\n     * Las personas pueden registrar su salida del aula con el metodo guardarSalida.\r\n     * \r\n     * Impedir que se pueda meter un nombre vacio.\r\n     *\r\n     * _nombre El nombre del aula. \r\n     *  _sal Hora de salida al aula.\r\n     *  _fecha Fecha de entrada al aula.\r\n     */\r\n    function guardarSalida(string memory _nombre, string memory _salidaTurno, string memory _fecha, uint _turno) public {\r\n\r\n\tdatosPuesto[_fecha][_nombre][_turno][msg.sender].salidaTurno = _salidaTurno;\r\n        \r\n    }\r\n\r\n\r\n\r\n\r\n      /**\r\n     * Permite al administrador obtener los datos de un aula para que sean visualizados.\r\n     * \r\n     */\r\n    function guardarEntradasLaboratorio(string memory _nombre, string memory _fecha) public view returns(PinchaLab[] memory) {\r\n\r\n\tuint cont = 0;\r\n\tuint iterador = 0;\r\n\r\n\tuint num_turnos = turnos[_fecha][_nombre].length;\r\n\t\r\n\tfor(uint j = 0; j < num_turnos ; j++){\r\n\r\n\tcont = cont + personas[_fecha][_nombre][turnos[_fecha][_nombre][j]].length;\r\n\r\n\t}\t\r\n\r\n\r\n\tif(num_turnos > 0){\r\n\r\n\tPinchaLab[] memory entradas = new PinchaLab[](cont);\r\n\r\n\tfor(uint j = 0; j < num_turnos ; j++){\r\n\r\n\taddress[] memory _dir = personas[_fecha][_nombre][turnos[_fecha][_nombre][j]];\t\r\n\r\n\tfor(uint i = iterador; i < _dir.length + iterador ; i++){\r\n\r\n\t\r\n\tentradas[i].puesto = datosLab[_fecha][_nombre][turnos[_fecha][_nombre][j]][_dir[i]].puesto;\r\n\t\r\n    entradas[i].info = datosLab[_fecha][_nombre][turnos[_fecha][_nombre][j]][_dir[i]].info;\r\n\t\r\n\t}\r\n\titerador = iterador + _dir.length;\r\n\t}\r\n\titerador = 0;\r\n\tcont = 0;\r\n\tnum_turnos = 0;\r\n\treturn entradas;\r\n\r\n\t}\r\n\telse{\r\n\t\r\n\tPinchaLab[] memory entradas_dos = new PinchaLab[](1);\r\n\t\r\n\tentradas_dos[0].puesto = \"A\";\r\n    \r\n\tentradas_dos[0].info = \"linux\";\r\n\r\n\treturn entradas_dos;\r\n\r\n\t}\t\r\n\r\n    }\r\n\r\n\r\n\r\n\r\n\r\n\r\n\r\n\r\n\r\n\r\n    /**\r\n     * El administrador puede eliminar un aula con el metodo eliminarAula.\r\n     * \r\n     * Impedir que se pueda meter un indice vacio.\r\n     *\r\n     *  _indice El nombre del aula. \r\n     */\r\n    \r\n    \r\n    \r\n    /*\r\n     * Crear un puesto\r\n     *\r\n     * Llos puestos se meteran en el array de puestos y nos refereimos por su posicion en el array\r\n     *  _nombre El nombre de puesto \r\n     \r\n   \r\n     * \r\n     * La posicion en el array lab\r\n     */\r\n     \r\n     \r\n     //poner lo del laboratorio pero me dice lo de use pragma experimental ABIENCODERV2\r\n    //function creaPuesto(string memory _nombre,TipoConexionesRed  _tipoConexionesRed,TipoSO  _TipoSO/*Laboratorio _laboratorio*/) soloProfesor public returns (uint) {\r\n        \r\n     //  bytes memory bn = bytes(_nombre);\r\n       // require(bn.length != 0, \"El nombre de la puesto no puede ser vacio\");\r\n        \r\n        //puestos.push(Puesto(_nombre,_tipoConexionesRed,_TipoSO/*_laboratorio*/));\r\n        //return puestos.length - 1;\r\n  //  }\r\n    \r\n    \r\n    \r\n    \r\n        \r\n     //poner lo del laboratorio pero me dice lo de use pragma experimental ABIENCODERV2\r\n    function creaLaboratorio( string memory _nombreL)  soloOwner public returns (uint) {\r\n        \r\n        bytes memory bn = bytes(_nombreL);\r\n        require(bn.length != 0, \"El nombre del lab no puede ser vacio\");\r\n        \r\n        laboratoriosRegistrados.push(DatosLaboratorio(laboratoriosRegistrados.length,_nombreL));\r\n        return laboratoriosRegistrados.length - 1;\r\n    }\r\n    \r\n    \r\n    \r\n    \r\n    \r\n        \r\n    \r\n \r\n     /**\r\n     * El numero de alumnos matriculados.\r\n     *\r\n     * @return El numero de alumnos matriculados.\r\n     */\r\n    function matriculasLength() public view returns(uint) {\r\n        return matriculas.length;\r\n    }\r\n    \r\n    \r\n    \r\n      /**\r\n     * El numero de profes registrados.\r\n     *\r\n     * .\r\n     */\r\n    function profesRegistradosLength() public view returns(uint) {\r\n        return profesRegistrados.length;\r\n    }\r\n    \r\n    \r\n       /**\r\n     * El numero de asignaturas registrados.\r\n     *\r\n     * .\r\n     */\r\n    /*function asignaturasRegistradasLength() public view returns(uint) {\r\n        return asignaturasRegistradas.length;\r\n    }\r\n    */\r\n    \r\n    \r\n    \r\n    \r\n      /**\r\n     * numero de credito semanal \r\n     *\r\n     * @return El numero de credito semanal \r\n     * \r\n     */\r\n     /*function creditosemanalLength() public view returns(uint) {\r\n        return creditosemanal.length;\r\n    }???????????????????????????*/\r\n     \r\n    \r\n    \r\n    \r\n    \r\n    /**\r\n     * Los alumnos pueden automatricularse con el metodo automatricula.\r\n     * \r\n     * Impedir que se pueda meter un nombre vacio.\r\n     *\r\n     * @param _nombre El nombre del alumno. \r\n     * @param _email  El email del alumno.\r\n     */\r\n    function automatricula(string memory _nombre, string memory _email) noMatriculados public {\r\n        //revert(\"siempre falla\");\r\n        bytes memory b = bytes(_nombre);\r\n        require(b.length != 0, \"El nombre no puede ser vacio\");\r\n        \r\n        DatosAlumno memory datos = DatosAlumno(_nombre, _email);\r\n        \r\n        datosAlumno[msg.sender] = datos;\r\n        \r\n        matriculas.push(msg.sender);\r\n        \r\n    }\r\n    \r\n    \r\n        function autoregistroP() noRegistradosP public {\r\n        \r\n        require(msg.sender!=address(0), \"El address no puede estar vacio\");\r\n        \r\n        datosPersona[msg.sender] = DatosPersona(msg.sender);\r\n        \r\n        registradosP.push(msg.sender);\r\n        \r\n    }\r\n    \r\n    \r\n  \r\n    function autoRegistro(string memory _nombreP, string memory _emailP,string memory _asignaturaP,string memory _departamentoP ) noRegistrados public {\r\n        \r\n        bytes memory b = bytes(_nombreP);\r\n        require(b.length != 0, \"El nombre no puede ser vacio\");\r\n        \r\n        DatosProfesor memory datosP = DatosProfesor(_nombreP, _emailP,_asignaturaP,_departamentoP);\r\n        \r\n        datosProfesor[msg.sender] = datosP;\r\n        \r\n       profesRegistrados.push(msg.sender);\r\n        \r\n    }\r\n    \r\n    \r\n    \r\n    \r\n    \r\n    \r\n    \r\n    \r\n    \r\n    \r\n    \r\n    \r\n    /**\r\n     * Permite a un alumno obtener sus propios datos.\r\n     * \r\n     * @return _nombre El nombre del alumno que invoca el metodo.\r\n     * @return _email  El email del alumno que invoca el metodo.\r\n     */\r\n    function quienSoy() soloMatriculados public view returns (string memory _nombre, string memory _email) {\r\n        DatosAlumno memory datos = datosAlumno[msg.sender];\r\n        _nombre = datos.nombre;\r\n        _email = datos.email;\r\n    }\r\n    \r\n    \r\n      function quienSoyP() soloRegistrados public view returns (string memory _nombreP, string memory _emailP,string memory _asignaturaP,string memory _departamentoP) {\r\n        DatosProfesor memory datosP = datosProfesor[msg.sender];\r\n        _nombreP = datosP.nombreP;\r\n        _emailP = datosP.emailP;\r\n        _departamentoP = datosP.departamentoP;\r\n        _asignaturaP = datosP.asignaturaP;\r\n    }\r\n    \r\n    \r\n    \r\n\r\n    \r\n    \r\n    /**\r\n     * Consulta si una direccion pertenece a un alumno matriculado.\r\n     * \r\n     * @param alumno La direccion de un alumno.\r\n     * \r\n     * @return true si es una alumno matriculado.\r\n     */\r\n    function estaMatriculado(address alumno) private view returns (bool) {\r\n      \r\n        string memory _nombre = datosAlumno[alumno].nombre;\r\n        \r\n        bytes memory b = bytes(_nombre);\r\n        \r\n        return b.length != 0;\r\n    } \r\n    \r\n    \r\n       function estaRegistrado(address profesor) private view returns (bool) {\r\n      \r\n        string memory _nombreP = datosProfesor[profesor].nombreP;\r\n        \r\n        bytes memory b = bytes(_nombreP);\r\n        \r\n        return b.length != 0;\r\n    } \r\n    \r\n    function estaRegistradoP(address persona) public view returns (bool) {\r\n\r\n\taddress _dir = datosPersona[persona].dir;\r\n        return _dir!=address(0);\r\n    } \r\n    \r\n    \r\n    //como hacer para que te devuelva los puestos segun asignatura \r\n    \r\n    /*function getPuestos (string asignatura) soloMatriculados public view returns (\r\n        string nombre, TipoConexionesRed tipoConexionesRed,TipoSO tipoSO)\r\n         \r\n         require (asignatura.length!=0,\"no vacio\");\r\n         \r\n         Puesto memory puesto= tipoConexionesRed[msg.sender][asignatura];\r\n         //meter tb tipoSO\r\n         tipoConexionesRed=Puesto.tipoConexionesRed\r\n         tipoSO=Puesto.tipoSO;\r\n         \r\n    // con laboratorios tb ! */\r\n   \r\n    \r\n   //RESERVASSSSSSSSSSSSSSSSSS\r\n   \r\n   \r\n   \r\n   \r\n   /*function addLab(uint labId, uint maxPuestos) public {\r\n        require(registeredLaboratorios[labId] == false, \"lab has already been registered\");\r\n        require(msg.sender == owner, \"You are not the owner\");\r\n        labPuestos[labId] = Laboratorio({\r\n            labId: labId,\r\n            maxPuestos: maxPuestos\r\n        });\r\n        registeredLaboratorios[labId] = true;\r\n    }\r\n    */\r\n   /* function addReservation(uint   _labID, uint mes,uint semana, uint hora) public {\r\n        require(registeredLaboratorios[_labID] == true, \"lab does not exist\");\r\n        //require(puestoId < labPuestos[labId].maxPuestos, \"Puesto does not exist\");\r\n        require(\r\n            isLabReserved[msg.sender][_labID][mes][semana][hora] == false, \r\n            \"You already have a reservation for this lab at this time\"\r\n        );\r\n        reservations[_labID][mes][semana][hora] .push(msg.sender);\r\n        reservationLengths[_labID][mes][semana][hora]  += 1;\r\n        isLabReserved[msg.sender][_labID][mes][semana][hora] = true;\r\n        emit Reservation(msg.sender, _labID, mes, semana,hora);\r\n    }\r\n    function cancelReservation(uint _labID, uint mes,uint semana, uint hora) public {\r\n        require(registeredLaboratorios[_labID] == true, \"lab does not exist\");\r\n       // require(puestoId < labPuestos[_labID].maxPuestos, \"Puesto does not exist\");\r\n        require(\r\n            isLabReserved[msg.sender][_labID][mes][semana][hora] == true, \r\n            \"You don't have a reservation for this Lab\"\r\n        );\r\n        for (uint i = 0; i < reservations[_labID][mes][semana][hora].length; i++) {\r\n            if (reservations[_labID][mes][semana][hora][i] == msg.sender) {\r\n                delete reservations[_labID][mes][semana][hora][i];\r\n                break;\r\n            }\r\n        }\r\n        reservationLengths[_labID][mes][semana][hora] -= 1;\r\n        isLabReserved[msg.sender][_labID][mes][semana][hora] = false;\r\n        emit Cancellation(msg.sender, _labID, mes, semana,hora);\r\n    } */\r\n\r\n\r\n\r\n\r\n           /**\r\n     * Modificador para que una funcion solo la pueda ejecutar el profesor.\r\n     * \r\n     *\r\n     */\r\n    modifier soloOwner() {\r\n        \r\n        require(msg.sender == owner, \"Solo permitido al owner\");\r\n        _;\r\n    }\r\n    \r\n    \r\n    /**\r\n     * Modificador para que una funcion solo la pueda ejecutar el profesor.\r\n     * \r\n     *\r\n     */\r\n    modifier soloProfesor() {\r\n        \r\n        require(msg.sender == profesorP, \"Solo permitido al profesor\");\r\n        _;\r\n    }\r\n    \r\n    \r\n    /**\r\n     * Modificador para que una funcion solo la pueda ejecutar un alumno matriculado.\r\n     */\r\n    modifier soloMatriculados() {\r\n        \r\n        require(estaMatriculado(msg.sender), \"Solo permitido a alumnos matriculados\");\r\n        _;\r\n    }\r\n    \r\n    \r\n      modifier soloRegistrados() {\r\n        \r\n        require(estaRegistrado(msg.sender), \"Solo permitido a profes registrados\");\r\n        _;\r\n    }\r\n    \r\n    \r\n \r\n    /**\r\n     * Modificador para que una funcion solo la pueda ejecutar un alumno no matriculado aun.\r\n     */\r\n    modifier noMatriculados() {\r\n        \r\n        require(!estaMatriculado(msg.sender), \"Solo permitido a alumnos no matriculados\");\r\n        _;\r\n    }\r\n    \r\n    \r\n    \r\n      modifier noRegistrados() {\r\n        \r\n        require(!estaRegistrado(msg.sender), \"Solo permitido a profes no registrados\");\r\n        _;\r\n    }\r\n    \r\n        \r\n      modifier noRegistradosP() {\r\n        \r\n        require(!estaRegistradoP(msg.sender), \"Solo permitido a personas no registrados\");\r\n        _;\r\n    }\r\n    \r\n    \r\n       receive() external payable {\r\n        revert(\"No se permite la recepcion de dinero.\");\r\n    }\r\n}",
  "sourcePath": "C:/Users/Paula Huertas/reslabetsit/contracts/ReslabEtsit.sol",
  "compiler": {
    "name": "solc",
    "version": "0.7.4+commit.3f05b770.Emscripten.clang"
  },
  "schemaVersion": "3.3.4",
  "updatedAt": "2021-12-12T11:20:40.861Z",
  "networkType": "ethereum",
  "devdoc": {
    "kind": "dev",
    "methods": {
      "automatricula(string,string)": {
        "params": {
          "_email": "El email del alumno.",
          "_nombre": "El nombre del alumno. "
        }
      },
      "laboratoriosLength()": {
        "returns": {
          "_0": "El numero de puestos creadas."
        }
      },
      "matriculasLength()": {
        "returns": {
          "_0": "El numero de alumnos matriculados."
        }
      },
      "obtenerDatosPersona(address)": {
        "params": {
          "persona": "La direccion de una persona. "
        },
        "returns": {
          "_0": "los datos de una persona registrada."
        }
      },
      "quienSoy()": {
        "returns": {
          "_email": " El email del alumno que invoca el metodo.",
          "_nombre": "El nombre del alumno que invoca el metodo."
        }
      },
      "reservasLength()": {
        "returns": {
          "_0": "El numero de alertas existentes."
        }
      },
      "ultimosRegistrosLength(address)": {
        "returns": {
          "_0": "El numero de ultimosRegistros existentes."
        }
      }
    },
    "version": 1
  },
  "userdoc": {
    "kind": "user",
    "methods": {
      "LabPulsado(uint256)": {
        "notice": "El lab del que se desea ver el historial."
      },
      "automatricula(string,string)": {
        "notice": "Los alumnos pueden automatricularse con el metodo automatricula.  Impedir que se pueda meter un nombre vacio."
      },
      "creaLaboratorio(string)": {
        "notice": "El administrador puede eliminar un aula con el metodo eliminarAula.  Impedir que se pueda meter un indice vacio.  _indice El nombre del aula. "
      },
      "datosAlumno(address)": {
        "notice": "Acceder a los datos de un alumno dada su direccion."
      },
      "datosProfesor(address)": {
        "notice": "Acceder a los datos de un profe dada su direccion."
      },
      "dirPersonas(string,string,uint256)": {
        "notice": "Permite obtener un address del array de personas. "
      },
      "guardarEntradasLaboratorio(string,string)": {
        "notice": "Permite al administrador obtener los datos de un aula para que sean visualizados. "
      },
      "guardarReserva(string,string,string,string,uint256)": {
        "notice": "Las personas pueden registrar su asistencia a un lab con el metodo guardarReserva.  Impedir que se pueda meter un nombre vacio.  _nombre El nombre del aula.  _ent Hora de entrada al aula.  _fecha Fecha de entrada al aula.  _puesto Puesto en el aula."
      },
      "guardarSalida(string,string,string,uint256)": {
        "notice": "Las personas pueden registrar su salida del aula con el metodo guardarSalida.  Impedir que se pueda meter un nombre vacio. _nombre El nombre del aula.   _sal Hora de salida al aula.  _fecha Fecha de entrada al aula."
      },
      "laboratoriosLength()": {
        "notice": "El numero depuestos creadas."
      },
      "matriculasLength()": {
        "notice": "El numero de alumnos matriculados."
      },
      "obtenerDatosPersona(address)": {
        "notice": "Obtiene los datos de una persona registrada. "
      },
      "owner()": {
        "notice": "address del profesor que ha desplegado el contrato. El contrato lo despliega el profesor."
      },
      "personas(string,string,uint256,uint256)": {
        "notice": "Direcciones de las personas que han asistido a algun aula en alguna de las fechas y en algun turno."
      },
      "personasLength(string,string)": {
        "notice": "Permite obtener la longitud del array de personasTotales. "
      },
      "personasTotales(string,string,uint256)": {
        "notice": "Direcciones de las personas que han asistido a algun aula en alguna de las fechas."
      },
      "profesRegistradosLength()": {
        "notice": "El numero de profes registrados. ."
      },
      "quienSoy()": {
        "notice": "Permite a un alumno obtener sus propios datos. "
      },
      "reiniciarReserva()": {
        "notice": "Eliminar la alerta de un usuario"
      },
      "reservas(address)": {
        "notice": "La alerta (si la hay) de un alumno."
      },
      "reservasLength()": {
        "notice": "El numero de reservas existentes."
      },
      "turnos_existentes(string,string,uint256)": {
        "notice": "Mapping para evitar duplicados de turnos."
      },
      "ultimosRegistros(address,uint256)": {
        "notice": "Ultimas entradas de cada persona."
      },
      "ultimosRegistrosLength(address)": {
        "notice": "El numero de ultimosRegistros existentes."
      }
    },
    "version": 1
  }
}