{
  "contractName": "ReslabEtsit",
  "abi": [
    {
      "inputs": [],
      "stateMutability": "nonpayable",
      "type": "constructor"
    },
    {
      "inputs": [
        {
          "internalType": "address",
          "name": "",
          "type": "address"
        },
        {
          "internalType": "uint256",
          "name": "",
          "type": "uint256"
        }
      ],
      "name": "Misreservas",
      "outputs": [
        {
          "internalType": "bool",
          "name": "",
          "type": "bool"
        }
      ],
      "stateMutability": "view",
      "type": "function",
      "constant": true
    },
    {
      "inputs": [
        {
          "internalType": "uint256",
          "name": "",
          "type": "uint256"
        },
        {
          "internalType": "uint256",
          "name": "",
          "type": "uint256"
        },
        {
          "internalType": "uint256",
          "name": "",
          "type": "uint256"
        }
      ],
      "name": "arrayPuestosDelLab",
      "outputs": [
        {
          "internalType": "string",
          "name": "nombre",
          "type": "string"
        },
        {
          "internalType": "uint256",
          "name": "indexlab",
          "type": "uint256"
        }
      ],
      "stateMutability": "view",
      "type": "function",
      "constant": true
    },
    {
      "inputs": [
        {
          "internalType": "uint256",
          "name": "",
          "type": "uint256"
        }
      ],
      "name": "asignaturasRegistradas",
      "outputs": [
        {
          "internalType": "string",
          "name": "nombre",
          "type": "string"
        },
        {
          "internalType": "uint256",
          "name": "indexLab",
          "type": "uint256"
        },
        {
          "internalType": "string",
          "name": "info",
          "type": "string"
        }
      ],
      "stateMutability": "view",
      "type": "function",
      "constant": true
    },
    {
      "inputs": [
        {
          "internalType": "uint256",
          "name": "",
          "type": "uint256"
        }
      ],
      "name": "asignaturasRegistradasdir",
      "outputs": [
        {
          "internalType": "address",
          "name": "",
          "type": "address"
        }
      ],
      "stateMutability": "view",
      "type": "function",
      "constant": true
    },
    {
      "inputs": [
        {
          "internalType": "address",
          "name": "",
          "type": "address"
        },
        {
          "internalType": "string",
          "name": "",
          "type": "string"
        },
        {
          "internalType": "uint256",
          "name": "",
          "type": "uint256"
        }
      ],
      "name": "contadorCredito",
      "outputs": [
        {
          "internalType": "uint256",
          "name": "",
          "type": "uint256"
        }
      ],
      "stateMutability": "view",
      "type": "function",
      "constant": true
    },
    {
      "inputs": [
        {
          "internalType": "address",
          "name": "",
          "type": "address"
        }
      ],
      "name": "datosAlumno",
      "outputs": [
        {
          "internalType": "string",
          "name": "nombre",
          "type": "string"
        },
        {
          "internalType": "string",
          "name": "email",
          "type": "string"
        }
      ],
      "stateMutability": "view",
      "type": "function",
      "constant": true
    },
    {
      "inputs": [
        {
          "internalType": "uint256",
          "name": "",
          "type": "uint256"
        }
      ],
      "name": "datosAlumnoNumber",
      "outputs": [
        {
          "internalType": "string",
          "name": "nombre",
          "type": "string"
        },
        {
          "internalType": "string",
          "name": "email",
          "type": "string"
        }
      ],
      "stateMutability": "view",
      "type": "function",
      "constant": true
    },
    {
      "inputs": [
        {
          "internalType": "address",
          "name": "",
          "type": "address"
        }
      ],
      "name": "datosPersona",
      "outputs": [
        {
          "internalType": "address",
          "name": "dir",
          "type": "address"
        }
      ],
      "stateMutability": "view",
      "type": "function",
      "constant": true
    },
    {
      "inputs": [
        {
          "internalType": "address",
          "name": "",
          "type": "address"
        }
      ],
      "name": "datosProfesor",
      "outputs": [
        {
          "internalType": "string",
          "name": "nombreP",
          "type": "string"
        },
        {
          "internalType": "string",
          "name": "emailP",
          "type": "string"
        },
        {
          "internalType": "string",
          "name": "asignaturaP",
          "type": "string"
        },
        {
          "internalType": "string",
          "name": "departamentoP",
          "type": "string"
        }
      ],
      "stateMutability": "view",
      "type": "function",
      "constant": true
    },
    {
      "inputs": [
        {
          "internalType": "uint256",
          "name": "",
          "type": "uint256"
        },
        {
          "internalType": "uint256",
          "name": "",
          "type": "uint256"
        }
      ],
      "name": "datosReserva",
      "outputs": [
        {
          "internalType": "address",
          "name": "dirAlumno",
          "type": "address"
        }
      ],
      "stateMutability": "view",
      "type": "function",
      "constant": true
    },
    {
      "inputs": [
        {
          "internalType": "uint256",
          "name": "",
          "type": "uint256"
        },
        {
          "internalType": "uint256",
          "name": "",
          "type": "uint256"
        },
        {
          "internalType": "uint256",
          "name": "",
          "type": "uint256"
        },
        {
          "internalType": "uint256",
          "name": "",
          "type": "uint256"
        }
      ],
      "name": "datosReservaPorLabPuestoFechaTurno",
      "outputs": [
        {
          "internalType": "address",
          "name": "dirAlumno",
          "type": "address"
        }
      ],
      "stateMutability": "view",
      "type": "function",
      "constant": true
    },
    {
      "inputs": [
        {
          "internalType": "uint256",
          "name": "",
          "type": "uint256"
        },
        {
          "internalType": "uint256",
          "name": "",
          "type": "uint256"
        },
        {
          "internalType": "uint256",
          "name": "",
          "type": "uint256"
        }
      ],
      "name": "datosReservaPorLabPuestoTurno",
      "outputs": [
        {
          "internalType": "address",
          "name": "dirAlumno",
          "type": "address"
        }
      ],
      "stateMutability": "view",
      "type": "function",
      "constant": true
    },
    {
      "inputs": [
        {
          "internalType": "uint256",
          "name": "",
          "type": "uint256"
        }
      ],
      "name": "indiceLabPorAsignatura",
      "outputs": [
        {
          "internalType": "uint256",
          "name": "",
          "type": "uint256"
        }
      ],
      "stateMutability": "view",
      "type": "function",
      "constant": true
    },
    {
      "inputs": [
        {
          "internalType": "uint256",
          "name": "",
          "type": "uint256"
        }
      ],
      "name": "laboratoriosRegistrados",
      "outputs": [
        {
          "internalType": "uint256",
          "name": "laboratorioindex",
          "type": "uint256"
        },
        {
          "internalType": "string",
          "name": "nombreL",
          "type": "string"
        },
        {
          "internalType": "string",
          "name": "asignaura",
          "type": "string"
        },
        {
          "internalType": "string",
          "name": "info",
          "type": "string"
        }
      ],
      "stateMutability": "view",
      "type": "function",
      "constant": true
    },
    {
      "inputs": [
        {
          "internalType": "uint256",
          "name": "",
          "type": "uint256"
        }
      ],
      "name": "matriculas",
      "outputs": [
        {
          "internalType": "address",
          "name": "",
          "type": "address"
        }
      ],
      "stateMutability": "view",
      "type": "function",
      "constant": true
    },
    {
      "inputs": [],
      "name": "owner",
      "outputs": [
        {
          "internalType": "address",
          "name": "",
          "type": "address"
        }
      ],
      "stateMutability": "view",
      "type": "function",
      "constant": true
    },
    {
      "inputs": [
        {
          "internalType": "string",
          "name": "",
          "type": "string"
        },
        {
          "internalType": "string",
          "name": "",
          "type": "string"
        },
        {
          "internalType": "uint256",
          "name": "",
          "type": "uint256"
        },
        {
          "internalType": "uint256",
          "name": "",
          "type": "uint256"
        }
      ],
      "name": "personas",
      "outputs": [
        {
          "internalType": "address",
          "name": "",
          "type": "address"
        }
      ],
      "stateMutability": "view",
      "type": "function",
      "constant": true
    },
    {
      "inputs": [
        {
          "internalType": "string",
          "name": "",
          "type": "string"
        },
        {
          "internalType": "string",
          "name": "",
          "type": "string"
        },
        {
          "internalType": "uint256",
          "name": "",
          "type": "uint256"
        }
      ],
      "name": "personasTotales",
      "outputs": [
        {
          "internalType": "address",
          "name": "",
          "type": "address"
        }
      ],
      "stateMutability": "view",
      "type": "function",
      "constant": true
    },
    {
      "inputs": [
        {
          "internalType": "uint256",
          "name": "",
          "type": "uint256"
        }
      ],
      "name": "profesRegistrados",
      "outputs": [
        {
          "internalType": "address",
          "name": "",
          "type": "address"
        }
      ],
      "stateMutability": "view",
      "type": "function",
      "constant": true
    },
    {
      "inputs": [],
      "name": "profesor",
      "outputs": [
        {
          "internalType": "address",
          "name": "",
          "type": "address"
        }
      ],
      "stateMutability": "view",
      "type": "function",
      "constant": true
    },
    {
      "inputs": [
        {
          "internalType": "uint256",
          "name": "",
          "type": "uint256"
        },
        {
          "internalType": "uint256",
          "name": "",
          "type": "uint256"
        }
      ],
      "name": "puestos",
      "outputs": [
        {
          "internalType": "uint256",
          "name": "",
          "type": "uint256"
        }
      ],
      "stateMutability": "view",
      "type": "function",
      "constant": true
    },
    {
      "inputs": [
        {
          "internalType": "string",
          "name": "",
          "type": "string"
        },
        {
          "internalType": "uint256",
          "name": "",
          "type": "uint256"
        },
        {
          "internalType": "uint256",
          "name": "",
          "type": "uint256"
        },
        {
          "internalType": "uint256",
          "name": "",
          "type": "uint256"
        }
      ],
      "name": "puestosBuscados",
      "outputs": [
        {
          "internalType": "uint256",
          "name": "",
          "type": "uint256"
        }
      ],
      "stateMutability": "view",
      "type": "function",
      "constant": true
    },
    {
      "inputs": [
        {
          "internalType": "uint256",
          "name": "",
          "type": "uint256"
        },
        {
          "internalType": "uint256",
          "name": "",
          "type": "uint256"
        }
      ],
      "name": "puestosDelLaboratorio",
      "outputs": [
        {
          "internalType": "uint256",
          "name": "",
          "type": "uint256"
        }
      ],
      "stateMutability": "view",
      "type": "function",
      "constant": true
    },
    {
      "inputs": [
        {
          "internalType": "uint256",
          "name": "",
          "type": "uint256"
        },
        {
          "internalType": "uint256",
          "name": "",
          "type": "uint256"
        },
        {
          "internalType": "uint256",
          "name": "",
          "type": "uint256"
        }
      ],
      "name": "puestosDelLaboratorioFecha",
      "outputs": [
        {
          "internalType": "uint256",
          "name": "",
          "type": "uint256"
        }
      ],
      "stateMutability": "view",
      "type": "function",
      "constant": true
    },
    {
      "inputs": [
        {
          "internalType": "uint256",
          "name": "",
          "type": "uint256"
        }
      ],
      "name": "puestosRegistrados",
      "outputs": [
        {
          "internalType": "string",
          "name": "nombre",
          "type": "string"
        },
        {
          "internalType": "uint256",
          "name": "indexlab",
          "type": "uint256"
        }
      ],
      "stateMutability": "view",
      "type": "function",
      "constant": true
    },
    {
      "inputs": [
        {
          "internalType": "string",
          "name": "",
          "type": "string"
        },
        {
          "internalType": "uint256",
          "name": "",
          "type": "uint256"
        }
      ],
      "name": "puestosTotales",
      "outputs": [
        {
          "internalType": "string",
          "name": "",
          "type": "string"
        }
      ],
      "stateMutability": "view",
      "type": "function",
      "constant": true
    },
    {
      "inputs": [
        {
          "internalType": "uint256",
          "name": "",
          "type": "uint256"
        }
      ],
      "name": "registradosP",
      "outputs": [
        {
          "internalType": "address",
          "name": "",
          "type": "address"
        }
      ],
      "stateMutability": "view",
      "type": "function",
      "constant": true
    },
    {
      "inputs": [
        {
          "internalType": "address",
          "name": "",
          "type": "address"
        }
      ],
      "name": "reservasAlumno",
      "outputs": [
        {
          "internalType": "string",
          "name": "lab",
          "type": "string"
        },
        {
          "internalType": "uint256",
          "name": "fecha",
          "type": "uint256"
        },
        {
          "internalType": "uint256",
          "name": "estado",
          "type": "uint256"
        }
      ],
      "stateMutability": "view",
      "type": "function",
      "constant": true
    },
    {
      "inputs": [
        {
          "internalType": "uint256",
          "name": "",
          "type": "uint256"
        },
        {
          "internalType": "uint256",
          "name": "",
          "type": "uint256"
        },
        {
          "internalType": "uint256",
          "name": "",
          "type": "uint256"
        }
      ],
      "name": "turnosPorPuesto",
      "outputs": [
        {
          "internalType": "uint256",
          "name": "",
          "type": "uint256"
        }
      ],
      "stateMutability": "view",
      "type": "function",
      "constant": true
    },
    {
      "inputs": [
        {
          "internalType": "uint256",
          "name": "",
          "type": "uint256"
        }
      ],
      "name": "turnosRegistrados",
      "outputs": [
        {
          "internalType": "string",
          "name": "nombre",
          "type": "string"
        },
        {
          "internalType": "uint256",
          "name": "fecha",
          "type": "uint256"
        }
      ],
      "stateMutability": "view",
      "type": "function",
      "constant": true
    },
    {
      "stateMutability": "payable",
      "type": "receive",
      "payable": true
    },
    {
      "inputs": [
        {
          "internalType": "uint256",
          "name": "_indexlab",
          "type": "uint256"
        }
      ],
      "name": "puestosDelLaboratorioLength",
      "outputs": [
        {
          "internalType": "uint256",
          "name": "",
          "type": "uint256"
        }
      ],
      "stateMutability": "view",
      "type": "function",
      "constant": true
    },
    {
      "inputs": [],
      "name": "turnosLength",
      "outputs": [
        {
          "internalType": "uint256",
          "name": "",
          "type": "uint256"
        }
      ],
      "stateMutability": "view",
      "type": "function",
      "constant": true
    },
    {
      "inputs": [
        {
          "internalType": "uint256",
          "name": "_laboratorioindex",
          "type": "uint256"
        }
      ],
      "name": "puestosLaboratorioLength",
      "outputs": [
        {
          "internalType": "uint256",
          "name": "",
          "type": "uint256"
        }
      ],
      "stateMutability": "view",
      "type": "function",
      "constant": true
    },
    {
      "inputs": [],
      "name": "laboratoriosLength",
      "outputs": [
        {
          "internalType": "uint256",
          "name": "",
          "type": "uint256"
        }
      ],
      "stateMutability": "view",
      "type": "function",
      "constant": true
    },
    {
      "inputs": [
        {
          "internalType": "string",
          "name": "_nombre",
          "type": "string"
        },
        {
          "internalType": "string",
          "name": "_fecha",
          "type": "string"
        }
      ],
      "name": "personasLength",
      "outputs": [
        {
          "internalType": "uint256",
          "name": "",
          "type": "uint256"
        }
      ],
      "stateMutability": "view",
      "type": "function",
      "constant": true
    },
    {
      "inputs": [
        {
          "internalType": "string",
          "name": "_nombre",
          "type": "string"
        }
      ],
      "name": "puestosLength2",
      "outputs": [
        {
          "internalType": "uint256",
          "name": "",
          "type": "uint256"
        }
      ],
      "stateMutability": "view",
      "type": "function",
      "constant": true
    },
    {
      "inputs": [
        {
          "internalType": "string",
          "name": "_nombre",
          "type": "string"
        },
        {
          "internalType": "string",
          "name": "_fecha",
          "type": "string"
        },
        {
          "internalType": "uint256",
          "name": "_indice",
          "type": "uint256"
        }
      ],
      "name": "dirPersonas",
      "outputs": [
        {
          "internalType": "address",
          "name": "",
          "type": "address"
        }
      ],
      "stateMutability": "view",
      "type": "function",
      "constant": true
    },
    {
      "inputs": [
        {
          "internalType": "address",
          "name": "_alumno",
          "type": "address"
        }
      ],
      "name": "obtenerDatosAlumno",
      "outputs": [
        {
          "internalType": "address",
          "name": "",
          "type": "address"
        }
      ],
      "stateMutability": "view",
      "type": "function",
      "constant": true
    },
    {
      "inputs": [
        {
          "internalType": "uint256",
          "name": "_laboratorioindex",
          "type": "uint256"
        }
      ],
      "name": "puestosdeLaboratorio",
      "outputs": [
        {
          "internalType": "uint256",
          "name": "",
          "type": "uint256"
        }
      ],
      "stateMutability": "view",
      "type": "function",
      "constant": true
    },
    {
      "inputs": [
        {
          "internalType": "string",
          "name": "_fecha",
          "type": "string"
        },
        {
          "internalType": "uint256",
          "name": "_entradaTurno",
          "type": "uint256"
        },
        {
          "internalType": "uint256",
          "name": "_laboratorioindex",
          "type": "uint256"
        }
      ],
      "name": "BuscaPuestoLab",
      "outputs": [
        {
          "internalType": "uint256",
          "name": "",
          "type": "uint256"
        }
      ],
      "stateMutability": "view",
      "type": "function",
      "constant": true
    },
    {
      "inputs": [
        {
          "internalType": "uint256",
          "name": "_puestoId",
          "type": "uint256"
        },
        {
          "internalType": "uint256",
          "name": "_fecha",
          "type": "uint256"
        },
        {
          "internalType": "uint256",
          "name": "_turno",
          "type": "uint256"
        },
        {
          "internalType": "string",
          "name": "_asignatura",
          "type": "string"
        }
      ],
      "name": "guardarReserva",
      "outputs": [],
      "stateMutability": "nonpayable",
      "type": "function"
    },
    {
      "inputs": [
        {
          "internalType": "uint256",
          "name": "_puestoId",
          "type": "uint256"
        },
        {
          "internalType": "uint256",
          "name": "_fecha",
          "type": "uint256"
        },
        {
          "internalType": "uint256",
          "name": "_turno",
          "type": "uint256"
        },
        {
          "internalType": "string",
          "name": "_asignatura",
          "type": "string"
        }
      ],
      "name": "quitarReserva",
      "outputs": [],
      "stateMutability": "nonpayable",
      "type": "function"
    },
    {
      "inputs": [
        {
          "internalType": "uint256",
          "name": "_laboratorioindex",
          "type": "uint256"
        },
        {
          "internalType": "string",
          "name": "_nombreL",
          "type": "string"
        },
        {
          "internalType": "string",
          "name": "_asignaura",
          "type": "string"
        },
        {
          "internalType": "string",
          "name": "_Info",
          "type": "string"
        }
      ],
      "name": "creaLaboratorio",
      "outputs": [
        {
          "internalType": "uint256",
          "name": "",
          "type": "uint256"
        }
      ],
      "stateMutability": "nonpayable",
      "type": "function"
    },
    {
      "inputs": [
        {
          "internalType": "string",
          "name": "_nombreAsig",
          "type": "string"
        },
        {
          "internalType": "uint256",
          "name": "_indexLab",
          "type": "uint256"
        },
        {
          "internalType": "string",
          "name": "_Info",
          "type": "string"
        }
      ],
      "name": "creaAsignatura",
      "outputs": [
        {
          "internalType": "uint256",
          "name": "",
          "type": "uint256"
        }
      ],
      "stateMutability": "nonpayable",
      "type": "function"
    },
    {
      "inputs": [
        {
          "internalType": "string",
          "name": "_NombreP",
          "type": "string"
        },
        {
          "internalType": "uint256",
          "name": "_indexlab",
          "type": "uint256"
        }
      ],
      "name": "creaPuesto",
      "outputs": [
        {
          "internalType": "uint256",
          "name": "",
          "type": "uint256"
        }
      ],
      "stateMutability": "nonpayable",
      "type": "function"
    },
    {
      "inputs": [
        {
          "internalType": "string",
          "name": "_nombre",
          "type": "string"
        },
        {
          "internalType": "uint256",
          "name": "_fecha",
          "type": "uint256"
        }
      ],
      "name": "creaTurno",
      "outputs": [
        {
          "internalType": "uint256",
          "name": "",
          "type": "uint256"
        }
      ],
      "stateMutability": "nonpayable",
      "type": "function"
    },
    {
      "inputs": [],
      "name": "matriculasLength",
      "outputs": [
        {
          "internalType": "uint256",
          "name": "",
          "type": "uint256"
        }
      ],
      "stateMutability": "view",
      "type": "function",
      "constant": true
    },
    {
      "inputs": [],
      "name": "profesRegistradosLength",
      "outputs": [
        {
          "internalType": "uint256",
          "name": "",
          "type": "uint256"
        }
      ],
      "stateMutability": "view",
      "type": "function",
      "constant": true
    },
    {
      "inputs": [],
      "name": "asignaturasRegistradasLength",
      "outputs": [
        {
          "internalType": "uint256",
          "name": "",
          "type": "uint256"
        }
      ],
      "stateMutability": "view",
      "type": "function",
      "constant": true
    },
    {
      "inputs": [
        {
          "internalType": "string",
          "name": "_nombre",
          "type": "string"
        },
        {
          "internalType": "string",
          "name": "_email",
          "type": "string"
        }
      ],
      "name": "automatricula",
      "outputs": [],
      "stateMutability": "nonpayable",
      "type": "function"
    },
    {
      "inputs": [],
      "name": "autoregistroP",
      "outputs": [],
      "stateMutability": "nonpayable",
      "type": "function"
    },
    {
      "inputs": [
        {
          "internalType": "string",
          "name": "_nombreP",
          "type": "string"
        },
        {
          "internalType": "string",
          "name": "_emailP",
          "type": "string"
        },
        {
          "internalType": "string",
          "name": "_asignaturaP",
          "type": "string"
        },
        {
          "internalType": "string",
          "name": "_departamentoP",
          "type": "string"
        }
      ],
      "name": "autoRegistro",
      "outputs": [],
      "stateMutability": "nonpayable",
      "type": "function"
    },
    {
      "inputs": [],
      "name": "quienSoy",
      "outputs": [
        {
          "internalType": "string",
          "name": "_nombre",
          "type": "string"
        },
        {
          "internalType": "string",
          "name": "_email",
          "type": "string"
        }
      ],
      "stateMutability": "view",
      "type": "function",
      "constant": true
    },
    {
      "inputs": [
        {
          "internalType": "address",
          "name": "_dir",
          "type": "address"
        }
      ],
      "name": "quienEs",
      "outputs": [
        {
          "internalType": "string",
          "name": "_nombre",
          "type": "string"
        },
        {
          "internalType": "string",
          "name": "_email",
          "type": "string"
        }
      ],
      "stateMutability": "view",
      "type": "function",
      "constant": true
    },
    {
      "inputs": [],
      "name": "miReserva",
      "outputs": [
        {
          "internalType": "string",
          "name": "lab",
          "type": "string"
        }
      ],
      "stateMutability": "view",
      "type": "function",
      "constant": true
    },
    {
      "inputs": [
        {
          "internalType": "address",
          "name": "persona",
          "type": "address"
        }
      ],
      "name": "estaRegistradoP",
      "outputs": [
        {
          "internalType": "bool",
          "name": "",
          "type": "bool"
        }
      ],
      "stateMutability": "view",
      "type": "function",
      "constant": true
    }
  ],
  "bytecode": "0x608060405234801561001057600080fd5b50336000806101000a81548173ffffffffffffffffffffffffffffffffffffffff021916908373ffffffffffffffffffffffffffffffffffffffff1602179055506154ed806100606000396000f3fe60806040526004361061036f5760003560e01c806387972906116101c6578063c2c639b6116100f7578063df09657611610095578063f0f066ef1161006f578063f0f066ef14610f25578063f83dfff214610f62578063f85c7aeb14610f8b578063f874785914610fc8576103af565b8063df09657614610e94578063ede343cf14610ebf578063ee0e7c4f14610ee8576103af565b8063cbf23288116100d1578063cbf2328814610d9f578063cdea020914610ddd578063d2a2f7de14610e1a578063d5a3e75a14610e57576103af565b8063c2c639b614610ce6578063c791813914610d23578063c88da89e14610d60576103af565b8063a9b2aeac11610164578063b4b4a51f1161013e578063b4b4a51f14610c00578063b5daf62c14610c2b578063bbcc0ae014610c6b578063bcfe45d314610ca9576103af565b8063a9b2aeac14610b47578063b013bd2414610b84578063b0b1273114610bc1576103af565b80638ee4003b116101a05780638ee4003b14610a655780638fa425e714610aa25780639e1d8f4b14610adf578063a38bd5ad14610b0a576103af565b806387972906146109c05780638b69735b146109fd5780638da5cb5b14610a3a576103af565b806353766883116102a05780636ad8a0fb1161023e57806379b51b6a1161021857806379b51b6a146108de5780637e09be7a146109095780637fa4574d14610946578063810e8c8014610983576103af565b80636ad8a0fb146108375780636bf8aad61461087557806370d714f2146108b3576103af565b806361d4c6ad1161027a57806361d4c6ad14610766578063641945bf1461078f57806366668f3c146107cf5780636916662b1461080c576103af565b806353766883146106d4578063589afa22146107005780635fdf483f14610729576103af565b8063223ca7a21161030d578063317dc286116102e7578063317dc28614610605578063320d0773146106435780633bd205611461065a57806344141cb914610697576103af565b8063223ca7a21461054e5780632535f7841461058b578063296d91db146105c8576103af565b806311fe99401161034957806311fe99401461046c57806312f89eac14610497578063151b3f52146104d457806315d7722014610511576103af565b806304d5d600146103b457806307025942146103f25780630c06bc021461042f576103af565b366103af576040517f08c379a00000000000000000000000000000000000000000000000000000000081526004016103a690614c3f565b60405180910390fd5b600080fd5b3480156103c057600080fd5b506103db60048036038101906103d6919061449c565b611005565b6040516103e9929190614a14565b60405180910390f35b3480156103fe57600080fd5b5061041960048036038101906104149190613f25565b611139565b60405161042691906149bc565b60405180910390f35b34801561043b57600080fd5b5061045660048036038101906104519190614419565b611177565b6040516104639190614d3f565b60405180910390f35b34801561047857600080fd5b506104816111d8565b60405161048e91906149f2565b60405180910390f35b3480156104a357600080fd5b506104be60048036038101906104b991906142c3565b61143b565b6040516104cb91906149f2565b60405180910390f35b3480156104e057600080fd5b506104fb60048036038101906104f69190614584565b61150a565b60405161050891906149bc565b60405180910390f35b34801561051d57600080fd5b5061053860048036038101906105339190613f25565b611555565b60405161054591906149bc565b60405180910390f35b34801561055a57600080fd5b506105756004803603810190610570919061449c565b6115d8565b60405161058291906149bc565b60405180910390f35b34801561059757600080fd5b506105b260048036038101906105ad91906145c4565b611617565b6040516105bf9190614d3f565b60405180910390f35b3480156105d457600080fd5b506105ef60048036038101906105ea91906144c9565b611655565b6040516105fc9190614d3f565b60405180910390f35b34801561061157600080fd5b5061062c600480360381019061062791906145c4565b6117fc565b60405161063a929190614aac565b60405180910390f35b34801561064f57600080fd5b506106586118d1565b005b34801561066657600080fd5b50610681600480360381019061067c919061449c565b611a9d565b60405161068e9190614d3f565b60405180910390f35b3480156106a357600080fd5b506106be60048036038101906106b9919061449c565b611abd565b6040516106cb9190614d3f565b60405180910390f35b3480156106e057600080fd5b506106e9611ad5565b6040516106f7929190614a14565b60405180910390f35b34801561070c57600080fd5b5061072760048036038101906107229190614617565b611ca5565b005b34801561073557600080fd5b50610750600480360381019061074b9190614199565b611f23565b60405161075d91906149bc565b60405180910390f35b34801561077257600080fd5b5061078d6004803603810190610788919061404a565b611faa565b005b34801561079b57600080fd5b506107b660048036038101906107b19190613f25565b61213c565b6040516107c69493929190614a4b565b60405180910390f35b3480156107db57600080fd5b506107f660048036038101906107f1919061404a565b61238c565b6040516108039190614d3f565b60405180910390f35b34801561081857600080fd5b506108216123e7565b60405161082e9190614d3f565b60405180910390f35b34801561084357600080fd5b5061085e6004803603810190610859919061449c565b6123f4565b60405161086c929190614aac565b60405180910390f35b34801561088157600080fd5b5061089c60048036038101906108979190613f25565b6124b0565b6040516108aa929190614a14565b60405180910390f35b3480156108bf57600080fd5b506108c86125e4565b6040516108d59190614d3f565b60405180910390f35b3480156108ea57600080fd5b506108f36125f1565b6040516109009190614d3f565b60405180910390f35b34801561091557600080fd5b50610930600480360381019061092b9190613f25565b6125fe565b60405161093d91906149d7565b60405180910390f35b34801561095257600080fd5b5061096d600480360381019061096891906142c3565b61269f565b60405161097a9190614d3f565b60405180910390f35b34801561098f57600080fd5b506109aa60048036038101906109a5919061431f565b6127fe565b6040516109b79190614d3f565b60405180910390f35b3480156109cc57600080fd5b506109e760048036038101906109e291906145c4565b612981565b6040516109f491906149bc565b60405180910390f35b348015610a0957600080fd5b50610a246004803603810190610a1f919061449c565b6129d9565b604051610a319190614d3f565b60405180910390f35b348015610a4657600080fd5b50610a4f6129f9565b604051610a5c91906149bc565b60405180910390f35b348015610a7157600080fd5b50610a8c6004803603810190610a879190614001565b612a1d565b604051610a999190614d3f565b60405180910390f35b348015610aae57600080fd5b50610ac96004803603810190610ac491906145c4565b612a5b565b604051610ad69190614d3f565b60405180910390f35b348015610aeb57600080fd5b50610af4612a99565b604051610b019190614d3f565b60405180910390f35b348015610b1657600080fd5b50610b316004803603810190610b2c9190613fc1565b612aa6565b604051610b3e91906149d7565b60405180910390f35b348015610b5357600080fd5b50610b6e6004803603810190610b6991906143aa565b612ad5565b604051610b7b9190614d3f565b60405180910390f35b348015610b9057600080fd5b50610bab6004803603810190610ba69190614584565b612b24565b604051610bb89190614d3f565b60405180910390f35b348015610bcd57600080fd5b50610be86004803603810190610be39190613f25565b612b55565b604051610bf793929190614b21565b60405180910390f35b348015610c0c57600080fd5b50610c15612c07565b604051610c229190614d3f565b60405180910390f35b348015610c3757600080fd5b50610c526004803603810190610c4d919061449c565b612c14565b604051610c629493929190614d5a565b60405180910390f35b348015610c7757600080fd5b50610c926004803603810190610c8d9190613f25565b612dec565b604051610ca0929190614a14565b60405180910390f35b348015610cb557600080fd5b50610cd06004803603810190610ccb91906142c3565b612fbd565b604051610cdd9190614d3f565b60405180910390f35b348015610cf257600080fd5b50610d0d6004803603810190610d08919061469a565b61315c565b604051610d1a91906149bc565b60405180910390f35b348015610d2f57600080fd5b50610d4a6004803603810190610d45919061449c565b6131c1565b604051610d5791906149bc565b60405180910390f35b348015610d6c57600080fd5b50610d876004803603810190610d82919061449c565b613200565b604051610d9693929190614adc565b60405180910390f35b348015610dab57600080fd5b50610dc66004803603810190610dc1919061449c565b61334a565b604051610dd4929190614aac565b60405180910390f35b348015610de957600080fd5b50610e046004803603810190610dff9190614584565b613406565b604051610e119190614d3f565b60405180910390f35b348015610e2657600080fd5b50610e416004803603810190610e3c919061449c565b613437565b604051610e4e91906149bc565b60405180910390f35b348015610e6357600080fd5b50610e7e6004803603810190610e799190614224565b613476565b604051610e8b91906149bc565b60405180910390f35b348015610ea057600080fd5b50610ea961350a565b604051610eb691906149bc565b60405180910390f35b348015610ecb57600080fd5b50610ee66004803603810190610ee191906140c2565b613530565b005b348015610ef457600080fd5b50610f0f6004803603810190610f0a919061449c565b61370a565b604051610f1c91906149bc565b60405180910390f35b348015610f3157600080fd5b50610f4c6004803603810190610f47919061449c565b613749565b604051610f599190614d3f565b60405180910390f35b348015610f6e57600080fd5b50610f896004803603810190610f849190614617565b613769565b005b348015610f9757600080fd5b50610fb26004803603810190610fad9190613f52565b613a1e565b604051610fbf9190614d3f565b60405180910390f35b348015610fd457600080fd5b50610fef6004803603810190610fea9190614199565b613a66565b604051610ffc91906149bc565b60405180910390f35b600460205280600052604060002060009150905080600001805461102890614f19565b80601f016020809104026020016040519081016040528092919081815260200182805461105490614f19565b80156110a15780601f10611076576101008083540402835291602001916110a1565b820191906000526020600020905b81548152906001019060200180831161108457829003601f168201915b5050505050908060010180546110b690614f19565b80601f01602080910402602001604051908101604052809291908181526020018280546110e290614f19565b801561112f5780601f106111045761010080835404028352916020019161112f565b820191906000526020600020905b81548152906001019060200180831161111257829003601f168201915b5050505050905082565b60026020528060005260406000206000915090508060000160009054906101000a900473ffffffffffffffffffffffffffffffffffffffff16905081565b60178480516020810182018051848252602083016020850120818352809550505050505060205282600052604060002060205281600052604060002081815481106111c157600080fd5b906000526020600020016000935093505050505481565b60606111e333613b3c565b611222576040517f08c379a000000000000000000000000000000000000000000000000000000000815260040161121990614bdf565b60405180910390fd5b6000600760003373ffffffffffffffffffffffffffffffffffffffff1673ffffffffffffffffffffffffffffffffffffffff1681526020019081526020016000206040518060800160405290816000820154815260200160018201805461128890614f19565b80601f01602080910402602001604051908101604052809291908181526020018280546112b490614f19565b80156113015780601f106112d657610100808354040283529160200191611301565b820191906000526020600020905b8154815290600101906020018083116112e457829003601f168201915b5050505050815260200160028201805461131a90614f19565b80601f016020809104026020016040519081016040528092919081815260200182805461134690614f19565b80156113935780601f1061136857610100808354040283529160200191611393565b820191906000526020600020905b81548152906001019060200180831161137657829003601f168201915b505050505081526020016003820180546113ac90614f19565b80601f01602080910402602001604051908101604052809291908181526020018280546113d890614f19565b80156114255780601f106113fa57610100808354040283529160200191611425565b820191906000526020600020905b81548152906001019060200180831161140857829003601f168201915b5050505050815250509050806020015191505090565b601582805160208101820180518482526020830160208501208183528095505050505050818154811061146d57600080fd5b9060005260206000200160009150915050805461148990614f19565b80601f01602080910402602001604051908101604052809291908181526020018280546114b590614f19565b80156115025780601f106114d757610100808354040283529160200191611502565b820191906000526020600020905b8154815290600101906020018083116114e557829003601f168201915b505050505081565b6018602052816000526040600020602052806000526040600020600091509150508060000160009054906101000a900473ffffffffffffffffffffffffffffffffffffffff16905081565b600061156082613c20565b61156d57600090506115d3565b600260008373ffffffffffffffffffffffffffffffffffffffff1673ffffffffffffffffffffffffffffffffffffffff16815260200190815260200160002060000160009054906101000a900473ffffffffffffffffffffffffffffffffffffffff1690505b919050565b600b81815481106115e857600080fd5b906000526020600020016000915054906101000a900473ffffffffffffffffffffffffffffffffffffffff1681565b601e602052826000526040600020602052816000526040600020818154811061163f57600080fd5b9060005260206000200160009250925050505481565b60008060009054906101000a900473ffffffffffffffffffffffffffffffffffffffff1673ffffffffffffffffffffffffffffffffffffffff163373ffffffffffffffffffffffffffffffffffffffff16146116e6576040517f08c379a00000000000000000000000000000000000000000000000000000000081526004016116dd90614d1f565b60405180910390fd5b6000849050600081511415611730576040517f08c379a000000000000000000000000000000000000000000000000000000000815260040161172790614c7f565b60405180910390fd5b600e60405180608001604052808881526020018781526020018681526020018581525090806001815401808255809150506001900390600052602060002090600402016000909190919091506000820151816000015560208201518160010190805190602001906117a2929190613de8565b5060408201518160020190805190602001906117bf929190613de8565b5060608201518160030190805190602001906117dc929190613de8565b5050506001600e805490506117f19190614e31565b915050949350505050565b60208052826000526040600020602052816000526040600020818154811061182357600080fd5b9060005260206000209060020201600092509250505080600001805461184890614f19565b80601f016020809104026020016040519081016040528092919081815260200182805461187490614f19565b80156118c15780601f10611896576101008083540402835291602001916118c1565b820191906000526020600020905b8154815290600101906020018083116118a457829003601f168201915b5050505050908060010154905082565b6118da336125fe565b1561191a576040517f08c379a000000000000000000000000000000000000000000000000000000000815260040161191190614cbf565b60405180910390fd5b600073ffffffffffffffffffffffffffffffffffffffff163373ffffffffffffffffffffffffffffffffffffffff16141561198a576040517f08c379a000000000000000000000000000000000000000000000000000000000815260040161198190614b7f565b60405180910390fd5b60405180602001604052803373ffffffffffffffffffffffffffffffffffffffff16815250600260003373ffffffffffffffffffffffffffffffffffffffff1673ffffffffffffffffffffffffffffffffffffffff16815260200190815260200160002060008201518160000160006101000a81548173ffffffffffffffffffffffffffffffffffffffff021916908373ffffffffffffffffffffffffffffffffffffffff160217905550905050600b339080600181540180825580915050600190039060005260206000200160009091909190916101000a81548173ffffffffffffffffffffffffffffffffffffffff021916908373ffffffffffffffffffffffffffffffffffffffff160217905550565b600060166000838152602001908152602001600020805490509050919050565b601f6020528060005260406000206000915090505481565b606080611ae133613b3c565b611b20576040517f08c379a0000000000000000000000000000000000000000000000000000000008152600401611b1790614bdf565b60405180910390fd5b6000600360003373ffffffffffffffffffffffffffffffffffffffff1673ffffffffffffffffffffffffffffffffffffffff168152602001908152602001600020604051806040016040529081600082018054611b7c90614f19565b80601f0160208091040260200160405190810160405280929190818152602001828054611ba890614f19565b8015611bf55780601f10611bca57610100808354040283529160200191611bf5565b820191906000526020600020905b815481529060010190602001808311611bd857829003601f168201915b50505050508152602001600182018054611c0e90614f19565b80601f0160208091040260200160405190810160405280929190818152602001828054611c3a90614f19565b8015611c875780601f10611c5c57610100808354040283529160200191611c87565b820191906000526020600020905b815481529060010190602001808311611c6a57829003601f168201915b50505050508152505090508060000151925080602001519150509091565b611cae33613b3c565b611ced576040517f08c379a0000000000000000000000000000000000000000000000000000000008152600401611ce490614b9f565b60405180910390fd5b60188210611d30576040517f08c379a0000000000000000000000000000000000000000000000000000000008152600401611d2790614cdf565b60405180910390fd5b3373ffffffffffffffffffffffffffffffffffffffff16601a60008681526020019081526020016000206000858152602001908152602001600020600084815260200190815260200160002060000160009054906101000a900473ffffffffffffffffffffffffffffffffffffffff1673ffffffffffffffffffffffffffffffffffffffff1614611df6576040517f08c379a0000000000000000000000000000000000000000000000000000000008152600401611ded90614bff565b60405180910390fd5b6040518060200160405280600073ffffffffffffffffffffffffffffffffffffffff16815250601a60008681526020019081526020016000206000858152602001908152602001600020600084815260200190815260200160002060008201518160000160006101000a81548173ffffffffffffffffffffffffffffffffffffffff021916908373ffffffffffffffffffffffffffffffffffffffff160217905550905050601b60003373ffffffffffffffffffffffffffffffffffffffff1673ffffffffffffffffffffffffffffffffffffffff16815260200190815260200160002081604051611ee891906149a5565b908152602001604051809103902060008481526020019081526020016000206000815480929190611f1890614eef565b919050555050505050565b601483805160208101820180518482526020830160208501208183528095505050505050828051602081018201805184825260208301602085012081835280955050505050508181548110611f7757600080fd5b90600052602060002001600092509250509054906101000a900473ffffffffffffffffffffffffffffffffffffffff1681565b611fb333613b3c565b15611ff3576040517f08c379a0000000000000000000000000000000000000000000000000000000008152600401611fea90614b9f565b60405180910390fd5b600082905060008151141561203d576040517f08c379a000000000000000000000000000000000000000000000000000000000815260040161203490614bbf565b60405180910390fd5b6000604051806040016040528085815260200184815250905080600360003373ffffffffffffffffffffffffffffffffffffffff1673ffffffffffffffffffffffffffffffffffffffff16815260200190815260200160002060008201518160000190805190602001906120b2929190613de8565b5060208201518160010190805190602001906120cf929190613de8565b509050506009339080600181540180825580915050600190039060005260206000200160009091909190916101000a81548173ffffffffffffffffffffffffffffffffffffffff021916908373ffffffffffffffffffffffffffffffffffffffff16021790555050505050565b600560205280600052604060002060009150905080600001805461215f90614f19565b80601f016020809104026020016040519081016040528092919081815260200182805461218b90614f19565b80156121d85780601f106121ad576101008083540402835291602001916121d8565b820191906000526020600020905b8154815290600101906020018083116121bb57829003601f168201915b5050505050908060010180546121ed90614f19565b80601f016020809104026020016040519081016040528092919081815260200182805461221990614f19565b80156122665780601f1061223b57610100808354040283529160200191612266565b820191906000526020600020905b81548152906001019060200180831161224957829003601f168201915b50505050509080600201805461227b90614f19565b80601f01602080910402602001604051908101604052809291908181526020018280546122a790614f19565b80156122f45780601f106122c9576101008083540402835291602001916122f4565b820191906000526020600020905b8154815290600101906020018083116122d757829003601f168201915b50505050509080600301805461230990614f19565b80601f016020809104026020016040519081016040528092919081815260200182805461233590614f19565b80156123825780601f1061235757610100808354040283529160200191612382565b820191906000526020600020905b81548152906001019060200180831161236557829003601f168201915b5050505050905084565b60008060148360405161239f91906149a5565b9081526020016040518091039020846040516123bb91906149a5565b908152602001604051809103902080549050905060008114156123dd57600190505b8091505092915050565b6000601080549050905090565b6010818154811061240457600080fd5b906000526020600020906002020160009150905080600001805461242790614f19565b80601f016020809104026020016040519081016040528092919081815260200182805461245390614f19565b80156124a05780601f10612475576101008083540402835291602001916124a0565b820191906000526020600020905b81548152906001019060200180831161248357829003601f168201915b5050505050908060010154905082565b60036020528060005260406000206000915090508060000180546124d390614f19565b80601f01602080910402602001604051908101604052809291908181526020018280546124ff90614f19565b801561254c5780601f106125215761010080835404028352916020019161254c565b820191906000526020600020905b81548152906001019060200180831161252f57829003601f168201915b50505050509080600101805461256190614f19565b80601f016020809104026020016040519081016040528092919081815260200182805461258d90614f19565b80156125da5780601f106125af576101008083540402835291602001916125da565b820191906000526020600020905b8154815290600101906020018083116125bd57829003601f168201915b5050505050905082565b6000600d80549050905090565b6000600a80549050905090565b600080600260008473ffffffffffffffffffffffffffffffffffffffff1673ffffffffffffffffffffffffffffffffffffffff16815260200190815260200160002060000160009054906101000a900473ffffffffffffffffffffffffffffffffffffffff169050600073ffffffffffffffffffffffffffffffffffffffff168173ffffffffffffffffffffffffffffffffffffffff161415915050919050565b60008060009054906101000a900473ffffffffffffffffffffffffffffffffffffffff1673ffffffffffffffffffffffffffffffffffffffff163373ffffffffffffffffffffffffffffffffffffffff1614612730576040517f08c379a000000000000000000000000000000000000000000000000000000000815260040161272790614d1f565b60405180910390fd5b600083905060008151141561277a576040517f08c379a000000000000000000000000000000000000000000000000000000000815260040161277190614cff565b60405180910390fd5b6010604051806040016040528086815260200185815250908060018154018082558091505060019003906000526020600020906002020160009091909190915060008201518160000190805190602001906127d6929190613de8565b5060208201518160010155505060016010805490506127f59190614e31565b91505092915050565b60008060009054906101000a900473ffffffffffffffffffffffffffffffffffffffff1673ffffffffffffffffffffffffffffffffffffffff163373ffffffffffffffffffffffffffffffffffffffff161461288f576040517f08c379a000000000000000000000000000000000000000000000000000000000815260040161288690614d1f565b60405180910390fd5b60008490506000815114156128d9576040517f08c379a00000000000000000000000000000000000000000000000000000000081526004016128d090614c1f565b60405180910390fd5b600d6040518060600160405280878152602001868152602001858152509080600181540180825580915050600190039060005260206000209060030201600090919091909150600082015181600001908051906020019061293b929190613de8565b50602082015181600101556040820151816002019080519060200190612962929190613de8565b5050506001600d805490506129779190614e31565b9150509392505050565b601a60205282600052604060002060205281600052604060002060205280600052604060002060009250925050508060000160009054906101000a900473ffffffffffffffffffffffffffffffffffffffff16905081565b6000601d6000838152602001908152602001600020805490509050919050565b60008054906101000a900473ffffffffffffffffffffffffffffffffffffffff1681565b600080601583604051612a3091906149a5565b90815260200160405180910390208054905090506000811415612a5257600190505b80915050919050565b60226020528260005260406000206020528160005260406000208181548110612a8357600080fd5b9060005260206000200160009250925050505481565b6000600980549050905090565b601c6020528160005260406000206020528060005260406000206000915091509054906101000a900460ff1681565b6000601784604051612ae791906149a5565b9081526020016040518091039020600084815260200190815260200160002060008381526020019081526020016000208054905090509392505050565b601d6020528160005260406000208181548110612b4057600080fd5b90600052602060002001600091509150505481565b6011602052806000526040600020600091509050806000018054612b7890614f19565b80601f0160208091040260200160405190810160405280929190818152602001828054612ba490614f19565b8015612bf15780601f10612bc657610100808354040283529160200191612bf1565b820191906000526020600020905b815481529060010190602001808311612bd457829003601f168201915b5050505050908060010154908060020154905083565b6000600e80549050905090565b600e8181548110612c2457600080fd5b9060005260206000209060040201600091509050806000015490806001018054612c4d90614f19565b80601f0160208091040260200160405190810160405280929190818152602001828054612c7990614f19565b8015612cc65780601f10612c9b57610100808354040283529160200191612cc6565b820191906000526020600020905b815481529060010190602001808311612ca957829003601f168201915b505050505090806002018054612cdb90614f19565b80601f0160208091040260200160405190810160405280929190818152602001828054612d0790614f19565b8015612d545780601f10612d2957610100808354040283529160200191612d54565b820191906000526020600020905b815481529060010190602001808311612d3757829003601f168201915b505050505090806003018054612d6990614f19565b80601f0160208091040260200160405190810160405280929190818152602001828054612d9590614f19565b8015612de25780601f10612db757610100808354040283529160200191612de2565b820191906000526020600020905b815481529060010190602001808311612dc557829003601f168201915b5050505050905084565b606080612df833613b3c565b612e37576040517f08c379a0000000000000000000000000000000000000000000000000000000008152600401612e2e90614bdf565b60405180910390fd5b6000600360008573ffffffffffffffffffffffffffffffffffffffff1673ffffffffffffffffffffffffffffffffffffffff168152602001908152602001600020604051806040016040529081600082018054612e9390614f19565b80601f0160208091040260200160405190810160405280929190818152602001828054612ebf90614f19565b8015612f0c5780601f10612ee157610100808354040283529160200191612f0c565b820191906000526020600020905b815481529060010190602001808311612eef57829003601f168201915b50505050508152602001600182018054612f2590614f19565b80601f0160208091040260200160405190810160405280929190818152602001828054612f5190614f19565b8015612f9e5780601f10612f7357610100808354040283529160200191612f9e565b820191906000526020600020905b815481529060010190602001808311612f8157829003601f168201915b5050505050815250509050806000015192508060200151915050915091565b60008060009054906101000a900473ffffffffffffffffffffffffffffffffffffffff1673ffffffffffffffffffffffffffffffffffffffff163373ffffffffffffffffffffffffffffffffffffffff161461304e576040517f08c379a000000000000000000000000000000000000000000000000000000000815260040161304590614d1f565b60405180910390fd5b6000839050600081511415613098576040517f08c379a000000000000000000000000000000000000000000000000000000000815260040161308f90614c7f565b60405180910390fd5b600f604051806040016040528086815260200185815250908060018154018082558091505060019003906000526020600020906002020160009091909190915060008201518160000190805190602001906130f4929190613de8565b5060208201518160010155505060006001600f805490506131159190614e31565b9050601d6000858152602001908152602001600020819080600181540180825580915050600190039060005260206000200160009091909190915055809250505092915050565b60196020528360005260406000206020528260005260406000206020528160005260406000206020528060005260406000206000935093505050508060000160009054906101000a900473ffffffffffffffffffffffffffffffffffffffff16905081565b600981815481106131d157600080fd5b906000526020600020016000915054906101000a900473ffffffffffffffffffffffffffffffffffffffff1681565b600d818154811061321057600080fd5b906000526020600020906003020160009150905080600001805461323390614f19565b80601f016020809104026020016040519081016040528092919081815260200182805461325f90614f19565b80156132ac5780601f10613281576101008083540402835291602001916132ac565b820191906000526020600020905b81548152906001019060200180831161328f57829003601f168201915b5050505050908060010154908060020180546132c790614f19565b80601f01602080910402602001604051908101604052809291908181526020018280546132f390614f19565b80156133405780601f1061331557610100808354040283529160200191613340565b820191906000526020600020905b81548152906001019060200180831161332357829003601f168201915b5050505050905083565b600f818154811061335a57600080fd5b906000526020600020906002020160009150905080600001805461337d90614f19565b80601f01602080910402602001604051908101604052809291908181526020018280546133a990614f19565b80156133f65780601f106133cb576101008083540402835291602001916133f6565b820191906000526020600020905b8154815290600101906020018083116133d957829003601f168201915b5050505050908060010154905082565b6016602052816000526040600020818154811061342257600080fd5b90600052602060002001600091509150505481565b600c818154811061344757600080fd5b906000526020600020016000915054906101000a900473ffffffffffffffffffffffffffffffffffffffff1681565b6013848051602081018201805184825260208301602085012081835280955050505050508380516020810182018051848252602083016020850120818352809550505050505060205281600052604060002081815481106134d657600080fd5b9060005260206000200160009350935050509054906101000a900473ffffffffffffffffffffffffffffffffffffffff1681565b600160009054906101000a900473ffffffffffffffffffffffffffffffffffffffff1681565b61353933613d04565b15613579576040517f08c379a000000000000000000000000000000000000000000000000000000000815260040161357090614c5f565b60405180910390fd5b60008490506000815114156135c3576040517f08c379a00000000000000000000000000000000000000000000000000000000081526004016135ba90614bbf565b60405180910390fd5b6000604051806080016040528087815260200186815260200185815260200184815250905080600560003373ffffffffffffffffffffffffffffffffffffffff1673ffffffffffffffffffffffffffffffffffffffff1681526020019081526020016000206000820151816000019080519060200190613644929190613de8565b506020820151816001019080519060200190613661929190613de8565b50604082015181600201908051906020019061367e929190613de8565b50606082015181600301908051906020019061369b929190613de8565b50905050600a339080600181540180825580915050600190039060005260206000200160009091909190916101000a81548173ffffffffffffffffffffffffffffffffffffffff021916908373ffffffffffffffffffffffffffffffffffffffff160217905550505050505050565b600a818154811061371a57600080fd5b906000526020600020016000915054906101000a900473ffffffffffffffffffffffffffffffffffffffff1681565b600060166000838152602001908152602001600020805490509050919050565b61377233613b3c565b6137b1576040517f08c379a00000000000000000000000000000000000000000000000000000000081526004016137a890614b9f565b60405180910390fd5b601882106137f4576040517f08c379a00000000000000000000000000000000000000000000000000000000081526004016137eb90614cdf565b60405180910390fd5b6137fd33613c20565b1561383d576040517f08c379a000000000000000000000000000000000000000000000000000000000815260040161383490614c9f565b60405180910390fd5b6003601b60003373ffffffffffffffffffffffffffffffffffffffff1673ffffffffffffffffffffffffffffffffffffffff1681526020019081526020016000208260405161388c91906149a5565b9081526020016040518091039020600085815260200190815260200160002054106138ec576040517f08c379a00000000000000000000000000000000000000000000000000000000081526004016138e390614b5f565b60405180910390fd5b600060405180602001604052803373ffffffffffffffffffffffffffffffffffffffff16815250905080601a60008781526020019081526020016000206000868152602001908152602001600020600085815260200190815260200160002060008201518160000160006101000a81548173ffffffffffffffffffffffffffffffffffffffff021916908373ffffffffffffffffffffffffffffffffffffffff160217905550905050601b60003373ffffffffffffffffffffffffffffffffffffffff1673ffffffffffffffffffffffffffffffffffffffff168152602001908152602001600020826040516139e291906149a5565b908152602001604051809103902060008581526020019081526020016000206000815480929190613a1290614f7c565b91905055505050505050565b601b6020528260005260406000208280516020810182018051848252602083016020850120818352809550505050505060205280600052604060002060009250925050505481565b600080601484604051613a7991906149a5565b908152602001604051809103902085604051613a9591906149a5565b9081526020016040518091039020805490501115613b31576000601484604051613abf91906149a5565b908152602001604051809103902085604051613adb91906149a5565b90815260200160405180910390208381548110613afb57613afa615023565b5b9060005260206000200160009054906101000a900473ffffffffffffffffffffffffffffffffffffffff16905080915050613b35565b3390505b9392505050565b600080600360008473ffffffffffffffffffffffffffffffffffffffff1673ffffffffffffffffffffffffffffffffffffffff1681526020019081526020016000206000018054613b8c90614f19565b80601f0160208091040260200160405190810160405280929190818152602001828054613bb890614f19565b8015613c055780601f10613bda57610100808354040283529160200191613c05565b820191906000526020600020905b815481529060010190602001808311613be857829003601f168201915b50505050509050600081905060008151141592505050919050565b600080600860008473ffffffffffffffffffffffffffffffffffffffff1673ffffffffffffffffffffffffffffffffffffffff1681526020019081526020016000206000018054613c7090614f19565b80601f0160208091040260200160405190810160405280929190818152602001828054613c9c90614f19565b8015613ce95780601f10613cbe57610100808354040283529160200191613ce9565b820191906000526020600020905b815481529060010190602001808311613ccc57829003601f168201915b50505050509050600081905060008151141592505050919050565b600080600560008473ffffffffffffffffffffffffffffffffffffffff1673ffffffffffffffffffffffffffffffffffffffff1681526020019081526020016000206000018054613d5490614f19565b80601f0160208091040260200160405190810160405280929190818152602001828054613d8090614f19565b8015613dcd5780601f10613da257610100808354040283529160200191613dcd565b820191906000526020600020905b815481529060010190602001808311613db057829003601f168201915b50505050509050600081905060008151141592505050919050565b828054613df490614f19565b90600052602060002090601f016020900481019282613e165760008555613e5d565b82601f10613e2f57805160ff1916838001178555613e5d565b82800160010185558215613e5d579182015b82811115613e5c578251825591602001919060010190613e41565b5b509050613e6a9190613e6e565b5090565b5b80821115613e87576000816000905550600101613e6f565b5090565b6000613e9e613e9984614dd9565b614db4565b905082815260208101848484011115613eba57613eb9615086565b5b613ec5848285614ead565b509392505050565b600081359050613edc81615489565b92915050565b600082601f830112613ef757613ef6615081565b5b8135613f07848260208601613e8b565b91505092915050565b600081359050613f1f816154a0565b92915050565b600060208284031215613f3b57613f3a615090565b5b6000613f4984828501613ecd565b91505092915050565b600080600060608486031215613f6b57613f6a615090565b5b6000613f7986828701613ecd565b935050602084013567ffffffffffffffff811115613f9a57613f9961508b565b5b613fa686828701613ee2565b9250506040613fb786828701613f10565b9150509250925092565b60008060408385031215613fd857613fd7615090565b5b6000613fe685828601613ecd565b9250506020613ff785828601613f10565b9150509250929050565b60006020828403121561401757614016615090565b5b600082013567ffffffffffffffff8111156140355761403461508b565b5b61404184828501613ee2565b91505092915050565b6000806040838503121561406157614060615090565b5b600083013567ffffffffffffffff81111561407f5761407e61508b565b5b61408b85828601613ee2565b925050602083013567ffffffffffffffff8111156140ac576140ab61508b565b5b6140b885828601613ee2565b9150509250929050565b600080600080608085870312156140dc576140db615090565b5b600085013567ffffffffffffffff8111156140fa576140f961508b565b5b61410687828801613ee2565b945050602085013567ffffffffffffffff8111156141275761412661508b565b5b61413387828801613ee2565b935050604085013567ffffffffffffffff8111156141545761415361508b565b5b61416087828801613ee2565b925050606085013567ffffffffffffffff8111156141815761418061508b565b5b61418d87828801613ee2565b91505092959194509250565b6000806000606084860312156141b2576141b1615090565b5b600084013567ffffffffffffffff8111156141d0576141cf61508b565b5b6141dc86828701613ee2565b935050602084013567ffffffffffffffff8111156141fd576141fc61508b565b5b61420986828701613ee2565b925050604061421a86828701613f10565b9150509250925092565b6000806000806080858703121561423e5761423d615090565b5b600085013567ffffffffffffffff81111561425c5761425b61508b565b5b61426887828801613ee2565b945050602085013567ffffffffffffffff8111156142895761428861508b565b5b61429587828801613ee2565b93505060406142a687828801613f10565b92505060606142b787828801613f10565b91505092959194509250565b600080604083850312156142da576142d9615090565b5b600083013567ffffffffffffffff8111156142f8576142f761508b565b5b61430485828601613ee2565b925050602061431585828601613f10565b9150509250929050565b60008060006060848603121561433857614337615090565b5b600084013567ffffffffffffffff8111156143565761435561508b565b5b61436286828701613ee2565b935050602061437386828701613f10565b925050604084013567ffffffffffffffff8111156143945761439361508b565b5b6143a086828701613ee2565b9150509250925092565b6000806000606084860312156143c3576143c2615090565b5b600084013567ffffffffffffffff8111156143e1576143e061508b565b5b6143ed86828701613ee2565b93505060206143fe86828701613f10565b925050604061440f86828701613f10565b9150509250925092565b6000806000806080858703121561443357614432615090565b5b600085013567ffffffffffffffff8111156144515761445061508b565b5b61445d87828801613ee2565b945050602061446e87828801613f10565b935050604061447f87828801613f10565b925050606061449087828801613f10565b91505092959194509250565b6000602082840312156144b2576144b1615090565b5b60006144c084828501613f10565b91505092915050565b600080600080608085870312156144e3576144e2615090565b5b60006144f187828801613f10565b945050602085013567ffffffffffffffff8111156145125761451161508b565b5b61451e87828801613ee2565b935050604085013567ffffffffffffffff81111561453f5761453e61508b565b5b61454b87828801613ee2565b925050606085013567ffffffffffffffff81111561456c5761456b61508b565b5b61457887828801613ee2565b91505092959194509250565b6000806040838503121561459b5761459a615090565b5b60006145a985828601613f10565b92505060206145ba85828601613f10565b9150509250929050565b6000806000606084860312156145dd576145dc615090565b5b60006145eb86828701613f10565b93505060206145fc86828701613f10565b925050604061460d86828701613f10565b9150509250925092565b6000806000806080858703121561463157614630615090565b5b600061463f87828801613f10565b945050602061465087828801613f10565b935050604061466187828801613f10565b925050606085013567ffffffffffffffff8111156146825761468161508b565b5b61468e87828801613ee2565b91505092959194509250565b600080600080608085870312156146b4576146b3615090565b5b60006146c287828801613f10565b94505060206146d387828801613f10565b93505060406146e487828801613f10565b92505060606146f587828801613f10565b91505092959194509250565b61470a81614e65565b82525050565b61471981614e77565b82525050565b600061472a82614e0a565b6147348185614e15565b9350614744818560208601614ebc565b61474d81615095565b840191505092915050565b600061476382614e0a565b61476d8185614e26565b935061477d818560208601614ebc565b80840191505092915050565b6000614796602a83614e15565b91506147a1826150a6565b604082019050919050565b60006147b9601f83614e15565b91506147c4826150f5565b602082019050919050565b60006147dc602883614e15565b91506147e78261511e565b604082019050919050565b60006147ff601c83614e15565b915061480a8261516d565b602082019050919050565b6000614822602583614e15565b915061482d82615196565b604082019050919050565b6000614845601c83614e15565b9150614850826151e5565b602082019050919050565b6000614868602783614e15565b91506148738261520e565b604082019050919050565b600061488b602583614e15565b91506148968261525d565b604082019050919050565b60006148ae602683614e15565b91506148b9826152ac565b604082019050919050565b60006148d1602483614e15565b91506148dc826152fb565b604082019050919050565b60006148f4602f83614e15565b91506148ff8261534a565b604082019050919050565b6000614917602883614e15565b915061492282615399565b604082019050919050565b600061493a600e83614e15565b9150614945826153e8565b602082019050919050565b600061495d602a83614e15565b915061496882615411565b604082019050919050565b6000614980601783614e15565b915061498b82615460565b602082019050919050565b61499f81614ea3565b82525050565b60006149b18284614758565b915081905092915050565b60006020820190506149d16000830184614701565b92915050565b60006020820190506149ec6000830184614710565b92915050565b60006020820190508181036000830152614a0c818461471f565b905092915050565b60006040820190508181036000830152614a2e818561471f565b90508181036020830152614a42818461471f565b90509392505050565b60006080820190508181036000830152614a65818761471f565b90508181036020830152614a79818661471f565b90508181036040830152614a8d818561471f565b90508181036060830152614aa1818461471f565b905095945050505050565b60006040820190508181036000830152614ac6818561471f565b9050614ad56020830184614996565b9392505050565b60006060820190508181036000830152614af6818661471f565b9050614b056020830185614996565b8181036040830152614b17818461471f565b9050949350505050565b60006060820190508181036000830152614b3b818661471f565b9050614b4a6020830185614996565b614b576040830184614996565b949350505050565b60006020820190508181036000830152614b7881614789565b9050919050565b60006020820190508181036000830152614b98816147ac565b9050919050565b60006020820190508181036000830152614bb8816147cf565b9050919050565b60006020820190508181036000830152614bd8816147f2565b9050919050565b60006020820190508181036000830152614bf881614815565b9050919050565b60006020820190508181036000830152614c1881614838565b9050919050565b60006020820190508181036000830152614c388161485b565b9050919050565b60006020820190508181036000830152614c588161487e565b9050919050565b60006020820190508181036000830152614c78816148a1565b9050919050565b60006020820190508181036000830152614c98816148c4565b9050919050565b60006020820190508181036000830152614cb8816148e7565b9050919050565b60006020820190508181036000830152614cd88161490a565b9050919050565b60006020820190508181036000830152614cf88161492d565b9050919050565b60006020820190508181036000830152614d1881614950565b9050919050565b60006020820190508181036000830152614d3881614973565b9050919050565b6000602082019050614d546000830184614996565b92915050565b6000608082019050614d6f6000830187614996565b8181036020830152614d81818661471f565b90508181036040830152614d95818561471f565b90508181036060830152614da9818461471f565b905095945050505050565b6000614dbe614dcf565b9050614dca8282614f4b565b919050565b6000604051905090565b600067ffffffffffffffff821115614df457614df3615052565b5b614dfd82615095565b9050602081019050919050565b600081519050919050565b600082825260208201905092915050565b600081905092915050565b6000614e3c82614ea3565b9150614e4783614ea3565b925082821015614e5a57614e59614fc5565b5b828203905092915050565b6000614e7082614e83565b9050919050565b60008115159050919050565b600073ffffffffffffffffffffffffffffffffffffffff82169050919050565b6000819050919050565b82818337600083830152505050565b60005b83811015614eda578082015181840152602081019050614ebf565b83811115614ee9576000848401525b50505050565b6000614efa82614ea3565b91506000821415614f0e57614f0d614fc5565b5b600182039050919050565b60006002820490506001821680614f3157607f821691505b60208210811415614f4557614f44614ff4565b5b50919050565b614f5482615095565b810181811067ffffffffffffffff82111715614f7357614f72615052565b5b80604052505050565b6000614f8782614ea3565b91507fffffffffffffffffffffffffffffffffffffffffffffffffffffffffffffffff821415614fba57614fb9614fc5565b5b600182019050919050565b7f4e487b7100000000000000000000000000000000000000000000000000000000600052601160045260246000fd5b7f4e487b7100000000000000000000000000000000000000000000000000000000600052602260045260246000fd5b7f4e487b7100000000000000000000000000000000000000000000000000000000600052603260045260246000fd5b7f4e487b7100000000000000000000000000000000000000000000000000000000600052604160045260246000fd5b600080fd5b600080fd5b600080fd5b600080fd5b6000601f19601f8301169050919050565b7f736520686120657863656469646f20656c206e756d65726f206d6178696d6f2060008201527f6465206372656469746f00000000000000000000000000000000000000000000602082015250565b7f456c2061646472657373206e6f20707565646520657374617220766163696f00600082015250565b7f536f6c6f207065726d697469646f206120616c756d6e6f73206e6f206d61747260008201527f6963756c61646f73000000000000000000000000000000000000000000000000602082015250565b7f456c206e6f6d627265206e6f2070756564652073657220766163696f00000000600082015250565b7f536f6c6f207065726d697469646f206120616c756d6e6f73206d61747269637560008201527f6c61646f73000000000000000000000000000000000000000000000000000000602082015250565b7f6c612072657365727661206573206465206f74726f20616c756d6e6f00000000600082015250565b7f456c206e6f6d627265206465206c612061736967206e6f20707565646520736560008201527f7220766163696f00000000000000000000000000000000000000000000000000602082015250565b7f4e6f207365207065726d697465206c6120726563657063696f6e20646520646960008201527f6e65726f2e000000000000000000000000000000000000000000000000000000602082015250565b7f536f6c6f207065726d697469646f20612070726f666573206e6f20726567697360008201527f747261646f730000000000000000000000000000000000000000000000000000602082015250565b7f456c206e6f6d6272652064656c206c6162206e6f20707565646520736572207660008201527f6163696f00000000000000000000000000000000000000000000000000000000602082015250565b7f536f6c6f207065726d697469646f2061207475726e6f7320717565206e6f206560008201527f7374656e2072657365727661646f730000000000000000000000000000000000602082015250565b7f536f6c6f207065726d697469646f206120706572736f6e6173206e6f2072656760008201527f6973747261646f73000000000000000000000000000000000000000000000000602082015250565b7f5475726e6f20696e76616c69646f000000000000000000000000000000000000600082015250565b7f456c206e6f6d627265206465206c61207475726e6f206e6f207075656465206560008201527f7374617220766163696f00000000000000000000000000000000000000000000602082015250565b7f536f6c6f207065726d697469646f20616c206f776e6572000000000000000000600082015250565b61549281614e65565b811461549d57600080fd5b50565b6154a981614ea3565b81146154b457600080fd5b5056fea2646970667358221220feb22a6694256f34ce1475d959f1b83bcf28d4ea1834ac1d99869d25cf52d65f64736f6c63430008070033",
  "immutableReferences": {},
  "source": "    \r\n    \r\n    \r\npragma solidity ^0.8.7;\r\n//pragma experimental ABIEncoderV2;//enabled when passing an array of string(struct) as a function paramete\r\n\r\n\r\n/*\r\n*falta : \r\n*crear lo de las asignaturas con los laborarios y puestos a los que perteneces y las caracteristicas que desepean cada puesto \r\n*crear las reservas , se va a reservar por semana un puesto de un determinado laboratorio \r\n*/\r\n\r\n\r\ncontract ReslabEtsit {\r\n    \r\n   \r\n    /**\r\n     * address del profesor que ha desplegado el contrato.\r\n     * El contrato lo despliega el profesor.\r\n     */\r\n    address public owner;\r\n    address public profesor;\r\n     \r\n    \r\n \r\n\r\n    \r\n    \r\n   \r\n   // enum Horario { turnom ,turnot}//poenr horas y turnos en enum???? array de horas \r\n    \r\n    struct DatosPuesto {\r\n\r\n\r\n    \r\n\tstring nombre;\r\n\t\r\n\tuint indexlab;\r\n\r\n       \r\n    }\r\n    \r\n    \r\n    struct DatosTurno{\r\n        string nombre;\r\n        uint fecha;\r\n      \r\n    }\r\n    \r\n    \r\n   \r\n   \r\n   \r\n    /**\r\n    * datos de todos los labs con sus parametro en la pantalla de inicio\r\n    * DUDA -> QUIERO PONERARRAY DE STRING DE ASIGNATURA!!\r\n    **/\r\n    struct DatosLaboratorio {\r\n        uint laboratorioindex;\r\n        \r\n        string nombreL;\r\n        string asignaura;\r\n        string info;\r\n        \r\n        //string[] asignaturaL;\r\n       \r\n    }\r\n\r\n\r\n\r\n\r\n    \r\n    \r\n    /**\r\n    * datos del alumno que se registra \r\n    **/\r\n   // datos persona \r\n    struct DatosPersona {\r\n\taddress dir;\r\n    }\r\n\r\n    /// Datos de un alumno.\r\n    struct DatosAlumno {\r\n        string nombre;\r\n        string email;\r\n        \r\n    }\r\n    \r\n    /**\r\n     * Datos profe que se registra \r\n     * */\r\n     \r\n    \r\n    struct DatosProfesor{\r\n        string nombreP;\r\n        string emailP;\r\n        string asignaturaP;\r\n        string departamentoP;\r\n    }\r\n    \r\n    \r\n\r\n\r\n\r\n\r\n\r\n    \r\n    struct DatosAsignatura{\r\n        string nombre;\r\n       \r\n        uint indexLab;\r\n        string info;\r\n        \r\n        \r\n    }\r\n    \r\n    \r\n\r\n    struct CreditoDiario {\r\n        uint creditoDiario;\r\n    }\r\n    \r\n    \r\n    /**\r\n     * \r\n\r\n     si esta reservado por un alumno\r\n     * */\r\n     \r\n     struct DatosReserva{\r\n         address dirAlumno;\r\n      \r\n     }\r\n     \r\n     /**\r\n      * Datos de mireserva //FALTA PUESTO\r\n      * */\r\n      \r\n      struct ReservaAlumno{\r\n          string lab;\r\n          uint fecha;\r\n          uint estado;\r\n          //string puesto;\r\n\r\n      }\r\n      \r\n      // acceder a los datos de una persona dada su direccion\r\n    mapping (address => DatosPersona) public datosPersona;\r\n    \r\n    /// Acceder a los datos de un alumno dada su direccion.\r\n    mapping (address => DatosAlumno) public datosAlumno;\r\n    /// Acceder a los datos de un alumno dada su strinf.\r\n    mapping (uint => DatosAlumno) public datosAlumnoNumber;\r\n    \r\n      /// Acceder a los datos de un profe dada su direccion.\r\n    mapping (address => DatosProfesor) public datosProfesor;\r\n    \r\n    mapping (address => DatosAsignatura)  datosAsignatura;\r\n    \r\n    \r\n    mapping (address => DatosLaboratorio)  datosLaboratorio;\r\n\r\n    mapping (address => DatosTurno)  datosTurno;\r\n\r\n    //mapping(uint => Laboratorio) public labPuestos; //acceder a los puestos del lab dada la info del lab\r\n  \r\n   // mapping (address => DatosPuesto)  datosPuesto;\r\n    \r\n    // Array con las direcciones de los alumnos matriculados.\r\n    address[] public matriculas;\r\n    \r\n    \r\n    //array con las direcciones de los profes registrados \r\n    address[] public profesRegistrados;\r\n    \r\n        // Array con las direcciones de las personas registradas.\r\n    address[] public registradosP;\r\n\r\n    \r\n    //Array credito semanal \r\n    //address [] public creditosemanal;\r\n    \r\n   //array con las direcciones de las asignaturas registradas \r\n   address[] public asignaturasRegistradasdir;\r\n\r\n    DatosAsignatura[] public asignaturasRegistradas;\r\n    \r\n    \r\n    // labs en la escuela\r\n    DatosLaboratorio[] public laboratoriosRegistrados;\r\n    //reservas de la escuela\r\n\r\n    // puestos en la escuela\r\n    DatosPuesto[] public puestosRegistrados;\r\n    \r\n \r\n\r\n    // array turnos de los puestos\r\n\r\n    DatosTurno[] public turnosRegistrados;\r\n        \r\n   \r\n\r\n     //reserva para un usuario \r\n  \r\n    mapping (address => ReservaAlumno) public reservasAlumno;\r\n    \r\n    \r\n    //turno de la escuela\r\n\r\n    //mapping (string => mapping (string  => uint[] )) public turnos;\r\n    \r\n    // Mapping para evitar duplicados de turnos devuelve un bool\r\n    //dado un puesto y una fecha  y un (turno) te devuelve un booleano \r\n    mapping (uint => mapping  ( uint => mapping ( uint => bool )))  turnos_existentes;\r\n    \r\n    /// Devuelve las direcciones de las personas que han asistido a algun lab en alguna de las fechas y en algun turno.\r\n    mapping (string => mapping (string => mapping (uint => address[] ))) public personas;\r\n   \r\n    /// Devuelve las Direcciones de las personas que han asistido a algun lab y en alguna de las fechas.\r\n    mapping (string => mapping (string => address[] )) public personasTotales;\r\n\r\n    // devuelve los puestos totales qu tienes los labs???????????????como lo hago  lo que quiero es haya los puestos totales que tiene cada laboratorio??????\r\n\r\n    mapping(string => string[]) public puestosTotales;\r\n    \r\n\r\n\r\n\r\n\r\n    //IMPORTANTEEEEEEEEEEEE!\r\n    // devuelve array con los indices de los puestos y la clave es un array de enteros laboratorio \r\n    mapping (uint=> uint[]) public puestos;\r\n\r\n\r\n\r\n    //dado la fecha, entrada turno y el el indice de laboratorio quiero que devuelva un array con el numero de puestos\r\n    mapping (string => mapping (uint => mapping (uint => uint[]))) public puestosBuscados;\r\n\r\n    \r\n    //dado el numero lab, fecha (numero de milisegundos) , dado turno ( todos los turnos que hay en un puesto en un dia), te devuelva la reserva\r\n  //  mapping( uint =>mapping (uint=> mapping (uint=> DatosReserva ))) public puestosReservados;\r\n\r\n\r\n    \r\n    //dado el numero puesto, turno (numero de milisegundos) ,  te devuelva la reserva\r\n   mapping( uint =>mapping (uint=> DatosReserva )) public datosReserva;\r\n\r\n\r\n   //\r\n    //dado el numero lab, de un puesto, fecha (numero de milisegundos) ,  y turno te devuelva la reserva\r\n\r\n     mapping( uint =>mapping (uint=> mapping (uint=> mapping (uint=> DatosReserva )))) public datosReservaPorLabPuestoFechaTurno;\r\n\r\n     //dado el numero lab, de un puesto,  y turno te devuelva la reserva\r\n\r\n     mapping( uint =>mapping (uint=>  mapping (uint=> DatosReserva ))) public datosReservaPorLabPuestoTurno;\r\n\r\n\r\n\r\n     // dado la direcion de un alumno , una asignatura y un dia  te da un contador de reservas que lleva\r\n\r\n     mapping( address=>mapping (string=>mapping (uint => uint)))  public contadorCredito;\r\n\r\n     //dada un alumno y un array de puestos devolver true si la reserva tiene el puesto y el alumnos --PARTE MIS COSAS\r\n\r\n     mapping( address =>mapping  (uint => bool )) public Misreservas;\r\n\r\n\r\n\r\n     \r\n\r\n\r\n\r\n    //te devuelve array de puestos reservados tal lab y tal fecha \r\n    //mapping( uint =>mapping (uint=> DatosPuesto[] )) public puestosReservadosLab;\r\n\r\n    //dado el indice de laboratorio un array de los indices de los puestos que estan en ese laboratorio \r\n    mapping(uint=> uint[]) public puestosDelLaboratorio;\r\n\r\n\r\n    //dado el indice de laboratorio y la fecha te devuelva los indices de los puestos que estan en ese laboratorio \r\n    mapping(uint=> mapping( uint => uint[])) public puestosDelLaboratorioFecha;\r\n\r\n\r\n    //dado el indice de una asignatura te devuelve el indice de un lab \r\n    mapping(uint => uint) public indiceLabPorAsignatura;\r\n\r\n    //dado una fecha y un lab cree una rray de puestos \r\n\r\n    mapping(uint=> mapping( uint => DatosPuesto[])) public arrayPuestosDelLab;\r\n\r\n\r\n    //dado el index de un puesto registrado \r\n    //dada la fecha ( string en formaro YYYYYMMD??????\r\n    // dado la hora del turno (de 0 a 23) \r\n    //devuelve el address del alumnos que ha reservado el turno\r\n    mapping(uint => mapping(uint => mapping (uint=> address))) reservasDelAlumno;\r\n\r\n\r\n       /// Dado el index de un puesto y una fecha te devuelve los turnos de un lab .\r\n    mapping (uint => mapping (uint  => uint[] )) public turnosPorPuesto;\r\n\r\n    \r\n    \r\n    \r\n    \r\n    /*\r\n     * Constructor.\r\n     * \r\n     * @param _nombre Nombre de la asignatura.\r\n     * //habria qu eponer nombre puesto /lab /alumno etc \r\n    \r\n     */\r\n    /*constructor(string memory _nombre) {\r\n        \r\n        bytes memory bn = bytes(_nombre);\r\n        require(bn.length != 0, \"El nombre de la asignatura no puede ser vacio\");\r\n       \r\n       \r\n      \r\n        owner = msg.sender;\r\n        nombre = _nombre;\r\n        \r\n        \r\n     \r\n        \r\n    }*/\r\n    \r\n    constructor()  {\r\n        owner = msg.sender;\r\n    } //?????????????????????????????????\r\n\r\n    \r\n    \r\n    \r\n    \r\n    \r\n/**\r\n     * Te devuelve el numero de puestos registrados\r\n     *\r\n     * @return El numero de puestos creadas.\r\n     */\r\n    /*function puestosLength() public view returns(uint) {\r\n        return puestosReservadosLab.length;\r\n    }\r\n    \r\n*/\r\n\r\n    // te devuelve la longitud de los puestos que hay en un laboratorio \r\n\r\n    function puestosDelLaboratorioLength(uint _indexlab) public view returns(uint) {\r\n        return puestosDelLaboratorio[_indexlab].length;\r\n\r\n\r\n    }\r\n\r\n\r\n\r\n  /**\r\n     * Te devuelve el numero de turnos\r\n     *\r\n     * @return El numero de turnos creadas.\r\n     */\r\n\r\n    function turnosLength() public view returns(uint) {\r\n        return turnosRegistrados.length;\r\n    }\r\n    \r\n\r\n    //devuelve la longitud del array de los puestos de un laboratorio \r\n    function puestosLaboratorioLength(uint _laboratorioindex) public view returns(uint) {\r\n        return puestos[_laboratorioindex].length;\r\n    }\r\n    \r\n    \r\n     /**\r\n     * El numero de labs  registrados\r\n     *\r\n     * @return El numero de labs creadas.\r\n     */\r\n    function laboratoriosLength() public view returns(uint) {\r\n        return laboratoriosRegistrados.length;\r\n    }\r\n    \r\n    \r\n    \r\n\r\n\r\n    /**\r\n     * Permite obtener la longitud del array de personasTotales.\r\n     * \r\n     */\r\n    function personasLength(string memory _nombre, string memory _fecha) public view returns(uint) {\r\n\r\n        uint longitud = personasTotales[_fecha][_nombre].length;\r\n\r\n        if(longitud == 0){\r\n        longitud = 1;\r\n\t    }\r\n\r\n  \t    return longitud;\r\n\r\n    }\r\n\r\n\r\n\r\n      /**\r\n     * Permite obtener la longitud del array de puestosTotale del lab\r\n     * \r\n     */\r\n    function puestosLength2(string memory _nombre) public view returns(uint) {\r\n\r\n        uint longitud2 = puestosTotales[_nombre].length;\r\n\r\n        if(longitud2 == 0){\r\n        longitud2 = 1;\r\n\t    }\r\n\r\n  \t    return longitud2;\r\n\r\n    }\r\n\r\n\r\n\r\n    /**\r\n     * Permite obtener un address del array de personas.\r\n     * \r\n     */\r\n    function dirPersonas(string memory _nombre, string memory _fecha, uint _indice) public view returns(address) {\r\n\r\n        if(personasTotales[_fecha][_nombre].length > 0){\r\n\r\n        address _dirUno = personasTotales[_fecha][_nombre][_indice];\r\n        return _dirUno;\r\n\r\n        }else{\r\n        return msg.sender;\r\n\t    }\t\t\t\r\n\t\r\n    }\r\n    \r\n    /**\r\n     * Obtiene los datos de un alumno que ha reservado.\r\n     * \r\n  \r\n     */\r\n    function obtenerDatosAlumno(address _alumno)  public view returns(address) {\r\n\t\r\n        \r\n        if(!estaReservado(_alumno)){\r\n        return address(0);\r\n        } else{\t\r\n        return datosPersona[_alumno].dir;\r\n\t}\r\n\t\r\n        \r\n        \r\n    } \r\n\r\n\r\n    //puestos que hay en un lab. Coger el array que te da el mapping de puestos y devolver su .length\r\n\r\n    function puestosdeLaboratorio(uint _laboratorioindex) public view returns(uint) {\r\n\r\n        return puestos[_laboratorioindex].length;\r\n    }\r\n    \r\n\r\n\r\n     // puestos que hay en un lab segun la fecha, la entrada \r\n    function BuscaPuestoLab( string  memory _fecha, uint _entradaTurno,uint _laboratorioindex) public view returns(uint) {\r\n\r\n        return puestosBuscados[_fecha][_entradaTurno][_laboratorioindex].length;\r\n    }\r\n\r\n\r\n\r\n\r\n \r\n\r\n\r\n\r\n    /** Un alumno crea una reserva \r\n    */\r\n\r\n    \r\n    \r\n    \r\n\r\n        function guardarReserva(uint  _puestoId, uint  _fecha,  uint _turno, string memory _asignatura)  public {\r\n        \r\n\t\r\n       \r\n            require(estaMatriculado(msg.sender),\"Solo permitido a alumnos no matriculados\");\r\n            require(_turno<24, \"Turno invalido\");\r\n            require(!estaReservado(msg.sender),\"Solo permitido a turnos que no esten reservados\");\r\n            require(contadorCredito[msg.sender][_asignatura][_fecha]<3, \"se ha excedido el numero maximo de credito\");\r\n\r\n     \r\n           // contadorCredito[msg.sender][_asignatura][_fecha]=0;\r\n\r\n            DatosReserva memory reserva = DatosReserva(msg.sender);\r\n            \r\n\r\n            datosReservaPorLabPuestoTurno[_puestoId][_fecha][_turno]= reserva;\r\n            contadorCredito[msg.sender][_asignatura][_fecha]++;\r\n            \r\n\r\n\r\n        }\r\n\r\n        \r\n    /** Un alumno quita su reserva - ( solo profe , owner y el propio alumnos \r\n    */\r\n\r\n\r\n       function quitarReserva(uint  _puestoId, uint  _fecha,  uint _turno,  string memory _asignatura)  public {\r\n        \r\n\t\r\n       \r\n\r\n            //require(estaMatriculado(msg.sender) || msg.sender == owner,\"Solo permitido a alumnos no matriculados\"); para ower tb o poner el modificador?????\r\n            require(estaMatriculado(msg.sender),\"Solo permitido a alumnos no matriculados\");\r\n\r\n            require(_turno<24, \"Turno invalido\");\r\n           // require(estaReservado(msg.sender),\"Solo permitido a turnos que  esten reservados\");\r\n            require(datosReservaPorLabPuestoTurno[_puestoId][_fecha][_turno].dirAlumno==msg.sender, \"la reserva es de otro alumno\");\r\n            \r\n\r\n         datosReservaPorLabPuestoTurno[_puestoId][_fecha][_turno]= DatosReserva(address(0x0));\r\n            contadorCredito[msg.sender][_asignatura][_fecha]--;\r\n\r\n        }\r\n     \r\n  \r\n    \r\n\r\n\r\n\r\n\r\n\r\n\r\n\r\n\r\n\r\n\r\n\r\n\r\n\r\n    \r\n    \r\n\r\n    \r\n    \r\n    \r\n    \r\n        \r\n     //te crea un laboratorio \r\n\r\n    function creaLaboratorio( uint  _laboratorioindex,string memory _nombreL,string memory _asignaura,string memory _Info) soloOwner public returns (uint) {\r\n        \r\n        bytes memory bn = bytes(_nombreL);\r\n        require(bn.length != 0, \"El nombre del lab no puede ser vacio\");\r\n        \r\n        laboratoriosRegistrados.push(DatosLaboratorio(_laboratorioindex,_nombreL,_asignaura,_Info));\r\n        return laboratoriosRegistrados.length - 1;\r\n    }\r\n    \r\n     // te rea una asignatura \r\n\r\n    function creaAsignatura( string memory _nombreAsig, uint _indexLab,string memory _Info)  soloOwner public returns (uint) {\r\n        \r\n        bytes memory bn = bytes(_nombreAsig);\r\n        require(bn.length != 0, \"El nombre de la asig no puede ser vacio\");\r\n        \r\n       asignaturasRegistradas.push(DatosAsignatura(_nombreAsig,_indexLab,_Info));\r\n        return asignaturasRegistradas.length - 1;\r\n    }\r\n    \r\n    \r\n    \r\n    \r\n    //te crea un puesto \r\n\r\n    function creaPuesto(string memory _NombreP,uint  _indexlab) soloOwner public returns (uint) {\r\n        \r\n        bytes memory bn = bytes(_NombreP);\r\n        require(bn.length != 0, \"El nombre del lab no puede ser vacio\");\r\n        \r\n        puestosRegistrados.push(DatosPuesto(_NombreP,_indexlab));\r\n        uint id = puestosRegistrados.length -1;\r\n\r\n        puestosDelLaboratorio[_indexlab].push(id);\r\n\r\n        return id;\r\n    \r\n    }   \r\n\r\n\r\n    //te crea un turno de laboratorio \r\n\r\n    function creaTurno(string memory _nombre, uint _fecha) soloOwner public returns (uint) {\r\n    \r\n    bytes memory bn = bytes(_nombre);\r\n    require(bn.length != 0, \"El nombre de la turno no puede estar vacio\");\r\n    \r\n    turnosRegistrados.push(DatosTurno(_nombre, _fecha));\r\n    return turnosRegistrados.length - 1;\r\n} \r\n    \r\n \r\n     /**\r\n     * El numero de alumnos matriculados.\r\n     *\r\n     * @return El numero de alumnos matriculados.\r\n     */\r\n    function matriculasLength() public view returns(uint) {\r\n        return matriculas.length;\r\n    }\r\n    \r\n    \r\n    \r\n      /**\r\n     * El numero de profes registrados.\r\n     *\r\n     * .\r\n     */\r\n    function profesRegistradosLength() public view returns(uint) {\r\n        return profesRegistrados.length;\r\n    }\r\n    \r\n    \r\n       /**\r\n     * El numero de asignaturas registrados.\r\n     *\r\n     * .\r\n     */\r\n    function asignaturasRegistradasLength() public view returns(uint) {\r\n        return asignaturasRegistradas.length;\r\n    }\r\n    \r\n    \r\n    \r\n    \r\n    \r\n      /**\r\n     * numero de credito semanal \r\n     *\r\n     * @return El numero de credito semanal \r\n     * \r\n     */\r\n     /*function creditosemanalLength() public view returns(uint) {\r\n        return creditosemanal.length;\r\n    }???????????????????????????*/\r\n     \r\n    \r\n    \r\n    \r\n    \r\n    /**\r\n     * Los alumnos pueden automatricularse con el metodo automatricula.\r\n     * \r\n     * Impedir que se pueda meter un nombre vacio.\r\n     *\r\n     * @param _nombre El nombre del alumno. \r\n     * @param _email  El email del alumno.\r\n     */\r\n    function automatricula(string memory _nombre, string memory _email) noMatriculados public {\r\n        //revert(\"siempre falla\");\r\n        bytes memory b = bytes(_nombre);\r\n        require(b.length != 0, \"El nombre no puede ser vacio\");\r\n        \r\n        DatosAlumno memory datos = DatosAlumno(_nombre, _email);\r\n        \r\n        datosAlumno[msg.sender] = datos;\r\n        \r\n        matriculas.push(msg.sender);\r\n        \r\n    }\r\n    \r\n    \r\n    function autoregistroP() noRegistradosP public {\r\n    \r\n        require(msg.sender!=address(0), \"El address no puede estar vacio\");\r\n        \r\n        datosPersona[msg.sender] = DatosPersona(msg.sender);\r\n        \r\n        registradosP.push(msg.sender);\r\n    \r\n    }\r\n    \r\n    \r\n  \r\n    function autoRegistro(string memory _nombreP, string memory _emailP,string memory _asignaturaP,string memory _departamentoP ) noRegistrados public {\r\n        \r\n        bytes memory b = bytes(_nombreP);\r\n        require(b.length != 0, \"El nombre no puede ser vacio\");\r\n        \r\n        DatosProfesor memory datosP = DatosProfesor(_nombreP, _emailP,_asignaturaP,_departamentoP);\r\n        \r\n        datosProfesor[msg.sender] = datosP;\r\n        \r\n       profesRegistrados.push(msg.sender);\r\n        \r\n    }\r\n    \r\n\r\n\r\n\r\n    \r\n    \r\n    \r\n    \r\n    \r\n    \r\n    \r\n    \r\n    \r\n    \r\n    /**\r\n     * Permite a un alumno obtener sus propios datos.\r\n     * \r\n     * @return _nombre El nombre del alumno que invoca el metodo.\r\n     * @return _email  El email del alumno que invoca el metodo.\r\n     */\r\n    function quienSoy() soloMatriculados public view returns (string memory _nombre, string memory _email) {\r\n        DatosAlumno memory datos = datosAlumno[msg.sender];\r\n        _nombre = datos.nombre;\r\n        _email = datos.email;\r\n    }\r\n    \r\n\r\n   /**\r\n     * Permite saber datos address.\r\n     * \r\n   \r\n     */\r\n    function quienEs(address _dir) soloMatriculados public view returns (string memory _nombre, string memory _email) {\r\n        DatosAlumno memory datos = datosAlumno[_dir];\r\n        _nombre = datos.nombre;\r\n        _email = datos.email;\r\n    }\r\n    \r\n      \r\n       /**\r\n     * ddevuelve el lab reservado por el alumno, turno y puesto\r\n     * \r\n    \r\n     * \r\n     \r\n     */ \r\n\r\n      function miReserva()  soloMatriculados public view returns (string memory lab) {\r\n        \r\n        DatosLaboratorio  memory nombrelab = datosLaboratorio[msg.sender];\r\n        \r\n       \r\n        lab = nombrelab.nombreL;\r\n       \r\n        \r\n    }\r\n    \r\n\r\n    \r\n    \r\n    /**\r\n     * Consulta si una direccion pertenece a un alumno matriculado.\r\n     * \r\n     * @param alumno La direccion de un alumno.\r\n     * \r\n     * @return true si es una alumno matriculado.\r\n     */\r\n    function estaMatriculado(address alumno) private view returns (bool) {\r\n      \r\n        string memory _nombre = datosAlumno[alumno].nombre;\r\n        \r\n        bytes memory b = bytes(_nombre);\r\n        \r\n        return b.length != 0;\r\n    } \r\n\r\n       /**\r\n     * Consulta si un turno pertenece a un alumno matriculado.\r\n     * \r\n     * @param alumno La direccion de un alumno.\r\n     * \r\n     * @return true si es una alumno matriculado.\r\n     */\r\n\r\n\r\n       function estaReservado(address alumno) private view returns (bool) {\r\n      \r\n        string memory _nombre = datosTurno[alumno].nombre;\r\n        \r\n        bytes memory b = bytes(_nombre);\r\n        \r\n        return b.length != 0;\r\n    }\r\n    \r\n\r\n\r\n     /**\r\n     * Consulta si una direccion pertenece a un profe registrado.\r\n     * \r\n     * \r\n     */\r\n    \r\n       function estaRegistrado(address _profesor) private view returns (bool) {\r\n      \r\n        string memory _nombreP = datosProfesor[_profesor].nombreP;\r\n        \r\n        bytes memory b = bytes(_nombreP);\r\n        \r\n        return b.length != 0;\r\n    }\r\n\r\n\r\n    \r\n    function estaRegistradoP(address persona) public view returns (bool) {\r\n\r\n\taddress _dir = datosPersona[persona].dir;\r\n        return _dir!=address(0);\r\n    } \r\n    \r\n    \r\n\r\n   \r\n\r\n\r\n\r\n\r\n           /**\r\n     * Modificador para que una funcion solo la pueda ejecutar el profesor.\r\n     * \r\n     *\r\n     */\r\n\r\n    modifier soloOwner() {\r\n        \r\n        require(msg.sender == owner, \"Solo permitido al owner\");\r\n        _;\r\n    }\r\n    \r\n    \r\n    /**\r\n     * Modificador para que una funcion solo la pueda ejecutar el profesor.\r\n     * \r\n     *\r\n     */\r\n    modifier soloProfesor() {\r\n        \r\n        require(msg.sender == profesor, \"Solo permitido al profesor\");\r\n        _;\r\n    }\r\n    \r\n    \r\n    /**\r\n     * Modificador para que una funcion solo la pueda ejecutar un alumno matriculado.\r\n     */\r\n    modifier soloMatriculados() {\r\n        \r\n        require(estaMatriculado(msg.sender), \"Solo permitido a alumnos matriculados\");\r\n        _;\r\n    }\r\n\r\n\r\n        \r\n    /**\r\n     * Modificador para que una funcion solo la pueda ejecutar un alumno matriculado.\r\n     */\r\n    modifier soloMatriculadosyOwner() {\r\n        \r\n        require(estaMatriculado(msg.sender) || msg.sender == owner, \"Solo permitido a alumnos owner matriculados\");\r\n        _;\r\n    }\r\n    \r\n    \r\n    \r\n      modifier soloRegistrados() {\r\n        \r\n        require(estaRegistrado(msg.sender), \"Solo permitido a profes registrados\");\r\n        _;\r\n    }\r\n    \r\n    \r\n \r\n    /**\r\n     * Modificador para que una funcion solo la pueda ejecutar un alumno no matriculado aun.\r\n     */\r\n    modifier noMatriculados() {\r\n        \r\n        require(!estaMatriculado(msg.sender), \"Solo permitido a alumnos no matriculados\");\r\n        _;\r\n    }\r\n    \r\n    \r\n    \r\n      modifier noRegistrados() {\r\n        \r\n        require(!estaRegistrado(msg.sender), \"Solo permitido a profes no registrados\");\r\n        _;\r\n    }\r\n    \r\n        \r\n      modifier noRegistradosP() {\r\n        \r\n        require(!estaRegistradoP(msg.sender), \"Solo permitido a personas no registrados\");\r\n        _;\r\n    }\r\n    \r\n    \r\n       receive() external payable {\r\n        revert(\"No se permite la recepcion de dinero.\");\r\n    }\r\n}\r\n",
  "sourcePath": "C:\\Users\\Paula Huertas\\reslabetsit\\contracts\\ReslabEtsit.sol",
  "compiler": {
    "name": "solc",
    "version": "0.8.7+commit.e28d00a7.Emscripten.clang"
  },
  "schemaVersion": "3.4.7",
  "updatedAt": "2022-11-30T10:33:26.275Z",
  "networkType": "ethereum",
  "devdoc": {
    "kind": "dev",
    "methods": {
      "automatricula(string,string)": {
        "params": {
          "_email": "El email del alumno.",
          "_nombre": "El nombre del alumno. "
        }
      },
      "laboratoriosLength()": {
        "returns": {
          "_0": "El numero de labs creadas."
        }
      },
      "matriculasLength()": {
        "returns": {
          "_0": "El numero de alumnos matriculados."
        }
      },
      "puestosDelLaboratorioLength(uint256)": {
        "returns": {
          "_0": "El numero de puestos creadas."
        }
      },
      "quienSoy()": {
        "returns": {
          "_email": " El email del alumno que invoca el metodo.",
          "_nombre": "El nombre del alumno que invoca el metodo."
        }
      },
      "turnosLength()": {
        "returns": {
          "_0": "El numero de turnos creadas."
        }
      }
    },
    "version": 1
  },
  "userdoc": {
    "kind": "user",
    "methods": {
      "asignaturasRegistradasLength()": {
        "notice": "El numero de asignaturas registrados. ."
      },
      "automatricula(string,string)": {
        "notice": "Los alumnos pueden automatricularse con el metodo automatricula.  Impedir que se pueda meter un nombre vacio."
      },
      "datosAlumno(address)": {
        "notice": "Acceder a los datos de un alumno dada su direccion."
      },
      "datosAlumnoNumber(uint256)": {
        "notice": "Acceder a los datos de un alumno dada su strinf."
      },
      "datosProfesor(address)": {
        "notice": "Acceder a los datos de un profe dada su direccion."
      },
      "dirPersonas(string,string,uint256)": {
        "notice": "Permite obtener un address del array de personas. "
      },
      "guardarReserva(uint256,uint256,uint256,string)": {
        "notice": "Un alumno crea una reserva "
      },
      "laboratoriosLength()": {
        "notice": "El numero de labs  registrados"
      },
      "matriculasLength()": {
        "notice": "El numero de alumnos matriculados."
      },
      "miReserva()": {
        "notice": "ddevuelve el lab reservado por el alumno, turno y puesto  "
      },
      "obtenerDatosAlumno(address)": {
        "notice": "Obtiene los datos de un alumno que ha reservado. "
      },
      "owner()": {
        "notice": "address del profesor que ha desplegado el contrato. El contrato lo despliega el profesor."
      },
      "personas(string,string,uint256,uint256)": {
        "notice": "Devuelve las direcciones de las personas que han asistido a algun lab en alguna de las fechas y en algun turno."
      },
      "personasLength(string,string)": {
        "notice": "Permite obtener la longitud del array de personasTotales. "
      },
      "personasTotales(string,string,uint256)": {
        "notice": "Devuelve las Direcciones de las personas que han asistido a algun lab y en alguna de las fechas."
      },
      "profesRegistradosLength()": {
        "notice": "El numero de profes registrados. ."
      },
      "puestosDelLaboratorioLength(uint256)": {
        "notice": "Te devuelve el numero de puestos registrados"
      },
      "puestosLength2(string)": {
        "notice": "Permite obtener la longitud del array de puestosTotale del lab "
      },
      "quienEs(address)": {
        "notice": "Permite saber datos address. "
      },
      "quienSoy()": {
        "notice": "Permite a un alumno obtener sus propios datos. "
      },
      "quitarReserva(uint256,uint256,uint256,string)": {
        "notice": "Un alumno quita su reserva - ( solo profe , owner y el propio alumnos "
      },
      "turnosLength()": {
        "notice": "Te devuelve el numero de turnos"
      },
      "turnosPorPuesto(uint256,uint256,uint256)": {
        "notice": "Dado el index de un puesto y una fecha te devuelve los turnos de un lab ."
      }
    },
    "version": 1
  }
}