{
  "contractName": "ReslabEtsit",
  "abi": [
    {
      "inputs": [],
      "stateMutability": "nonpayable",
      "type": "constructor"
    },
    {
      "inputs": [
        {
          "internalType": "address",
          "name": "",
          "type": "address"
        },
        {
          "internalType": "uint256",
          "name": "",
          "type": "uint256"
        }
      ],
      "name": "Misreservas",
      "outputs": [
        {
          "internalType": "bool",
          "name": "",
          "type": "bool"
        }
      ],
      "stateMutability": "view",
      "type": "function",
      "constant": true
    },
    {
      "inputs": [
        {
          "internalType": "uint256",
          "name": "",
          "type": "uint256"
        },
        {
          "internalType": "uint256",
          "name": "",
          "type": "uint256"
        },
        {
          "internalType": "uint256",
          "name": "",
          "type": "uint256"
        }
      ],
      "name": "arrayPuestosDelLab",
      "outputs": [
        {
          "internalType": "string",
          "name": "nombre",
          "type": "string"
        },
        {
          "internalType": "uint256",
          "name": "indexlab",
          "type": "uint256"
        }
      ],
      "stateMutability": "view",
      "type": "function",
      "constant": true
    },
    {
      "inputs": [
        {
          "internalType": "uint256",
          "name": "",
          "type": "uint256"
        }
      ],
      "name": "asignaturasRegistradas",
      "outputs": [
        {
          "internalType": "string",
          "name": "nombre",
          "type": "string"
        },
        {
          "internalType": "uint256",
          "name": "indexLab",
          "type": "uint256"
        },
        {
          "internalType": "string",
          "name": "info",
          "type": "string"
        }
      ],
      "stateMutability": "view",
      "type": "function",
      "constant": true
    },
    {
      "inputs": [
        {
          "internalType": "uint256",
          "name": "",
          "type": "uint256"
        }
      ],
      "name": "asignaturasRegistradasdir",
      "outputs": [
        {
          "internalType": "address",
          "name": "",
          "type": "address"
        }
      ],
      "stateMutability": "view",
      "type": "function",
      "constant": true
    },
    {
      "inputs": [
        {
          "internalType": "address",
          "name": "",
          "type": "address"
        },
        {
          "internalType": "string",
          "name": "",
          "type": "string"
        },
        {
          "internalType": "uint256",
          "name": "",
          "type": "uint256"
        }
      ],
      "name": "contadorCredito",
      "outputs": [
        {
          "internalType": "uint256",
          "name": "",
          "type": "uint256"
        }
      ],
      "stateMutability": "view",
      "type": "function",
      "constant": true
    },
    {
      "inputs": [
        {
          "internalType": "address",
          "name": "",
          "type": "address"
        }
      ],
      "name": "datosAlumno",
      "outputs": [
        {
          "internalType": "string",
          "name": "nombre",
          "type": "string"
        },
        {
          "internalType": "string",
          "name": "email",
          "type": "string"
        }
      ],
      "stateMutability": "view",
      "type": "function",
      "constant": true
    },
    {
      "inputs": [
        {
          "internalType": "address",
          "name": "",
          "type": "address"
        }
      ],
      "name": "datosPersona",
      "outputs": [
        {
          "internalType": "address",
          "name": "dir",
          "type": "address"
        }
      ],
      "stateMutability": "view",
      "type": "function",
      "constant": true
    },
    {
      "inputs": [
        {
          "internalType": "address",
          "name": "",
          "type": "address"
        }
      ],
      "name": "datosProfesor",
      "outputs": [
        {
          "internalType": "string",
          "name": "nombreP",
          "type": "string"
        },
        {
          "internalType": "string",
          "name": "emailP",
          "type": "string"
        },
        {
          "internalType": "string",
          "name": "asignaturaP",
          "type": "string"
        },
        {
          "internalType": "string",
          "name": "departamentoP",
          "type": "string"
        }
      ],
      "stateMutability": "view",
      "type": "function",
      "constant": true
    },
    {
      "inputs": [
        {
          "internalType": "uint256",
          "name": "",
          "type": "uint256"
        },
        {
          "internalType": "uint256",
          "name": "",
          "type": "uint256"
        }
      ],
      "name": "datosReserva",
      "outputs": [
        {
          "internalType": "address",
          "name": "dirAlumno",
          "type": "address"
        }
      ],
      "stateMutability": "view",
      "type": "function",
      "constant": true
    },
    {
      "inputs": [
        {
          "internalType": "uint256",
          "name": "",
          "type": "uint256"
        },
        {
          "internalType": "uint256",
          "name": "",
          "type": "uint256"
        },
        {
          "internalType": "uint256",
          "name": "",
          "type": "uint256"
        },
        {
          "internalType": "uint256",
          "name": "",
          "type": "uint256"
        }
      ],
      "name": "datosReservaPorLabPuestoFechaTurno",
      "outputs": [
        {
          "internalType": "address",
          "name": "dirAlumno",
          "type": "address"
        }
      ],
      "stateMutability": "view",
      "type": "function",
      "constant": true
    },
    {
      "inputs": [
        {
          "internalType": "uint256",
          "name": "",
          "type": "uint256"
        },
        {
          "internalType": "uint256",
          "name": "",
          "type": "uint256"
        },
        {
          "internalType": "uint256",
          "name": "",
          "type": "uint256"
        }
      ],
      "name": "datosReservaPorLabPuestoTurno",
      "outputs": [
        {
          "internalType": "address",
          "name": "dirAlumno",
          "type": "address"
        }
      ],
      "stateMutability": "view",
      "type": "function",
      "constant": true
    },
    {
      "inputs": [
        {
          "internalType": "uint256",
          "name": "",
          "type": "uint256"
        }
      ],
      "name": "indiceLabPorAsignatura",
      "outputs": [
        {
          "internalType": "uint256",
          "name": "",
          "type": "uint256"
        }
      ],
      "stateMutability": "view",
      "type": "function",
      "constant": true
    },
    {
      "inputs": [
        {
          "internalType": "uint256",
          "name": "",
          "type": "uint256"
        }
      ],
      "name": "laboratoriosRegistrados",
      "outputs": [
        {
          "internalType": "uint256",
          "name": "laboratorioindex",
          "type": "uint256"
        },
        {
          "internalType": "string",
          "name": "nombreL",
          "type": "string"
        },
        {
          "internalType": "string",
          "name": "asignaura",
          "type": "string"
        },
        {
          "internalType": "string",
          "name": "info",
          "type": "string"
        }
      ],
      "stateMutability": "view",
      "type": "function",
      "constant": true
    },
    {
      "inputs": [
        {
          "internalType": "uint256",
          "name": "",
          "type": "uint256"
        }
      ],
      "name": "matriculas",
      "outputs": [
        {
          "internalType": "address",
          "name": "",
          "type": "address"
        }
      ],
      "stateMutability": "view",
      "type": "function",
      "constant": true
    },
    {
      "inputs": [],
      "name": "owner",
      "outputs": [
        {
          "internalType": "address",
          "name": "",
          "type": "address"
        }
      ],
      "stateMutability": "view",
      "type": "function",
      "constant": true
    },
    {
      "inputs": [
        {
          "internalType": "string",
          "name": "",
          "type": "string"
        },
        {
          "internalType": "string",
          "name": "",
          "type": "string"
        },
        {
          "internalType": "uint256",
          "name": "",
          "type": "uint256"
        },
        {
          "internalType": "uint256",
          "name": "",
          "type": "uint256"
        }
      ],
      "name": "personas",
      "outputs": [
        {
          "internalType": "address",
          "name": "",
          "type": "address"
        }
      ],
      "stateMutability": "view",
      "type": "function",
      "constant": true
    },
    {
      "inputs": [
        {
          "internalType": "string",
          "name": "",
          "type": "string"
        },
        {
          "internalType": "string",
          "name": "",
          "type": "string"
        },
        {
          "internalType": "uint256",
          "name": "",
          "type": "uint256"
        }
      ],
      "name": "personasTotales",
      "outputs": [
        {
          "internalType": "address",
          "name": "",
          "type": "address"
        }
      ],
      "stateMutability": "view",
      "type": "function",
      "constant": true
    },
    {
      "inputs": [
        {
          "internalType": "uint256",
          "name": "",
          "type": "uint256"
        }
      ],
      "name": "profesRegistrados",
      "outputs": [
        {
          "internalType": "address",
          "name": "",
          "type": "address"
        }
      ],
      "stateMutability": "view",
      "type": "function",
      "constant": true
    },
    {
      "inputs": [],
      "name": "profesor",
      "outputs": [
        {
          "internalType": "address",
          "name": "",
          "type": "address"
        }
      ],
      "stateMutability": "view",
      "type": "function",
      "constant": true
    },
    {
      "inputs": [
        {
          "internalType": "uint256",
          "name": "",
          "type": "uint256"
        },
        {
          "internalType": "uint256",
          "name": "",
          "type": "uint256"
        }
      ],
      "name": "puestos",
      "outputs": [
        {
          "internalType": "uint256",
          "name": "",
          "type": "uint256"
        }
      ],
      "stateMutability": "view",
      "type": "function",
      "constant": true
    },
    {
      "inputs": [
        {
          "internalType": "string",
          "name": "",
          "type": "string"
        },
        {
          "internalType": "uint256",
          "name": "",
          "type": "uint256"
        },
        {
          "internalType": "uint256",
          "name": "",
          "type": "uint256"
        },
        {
          "internalType": "uint256",
          "name": "",
          "type": "uint256"
        }
      ],
      "name": "puestosBuscados",
      "outputs": [
        {
          "internalType": "uint256",
          "name": "",
          "type": "uint256"
        }
      ],
      "stateMutability": "view",
      "type": "function",
      "constant": true
    },
    {
      "inputs": [
        {
          "internalType": "uint256",
          "name": "",
          "type": "uint256"
        },
        {
          "internalType": "uint256",
          "name": "",
          "type": "uint256"
        }
      ],
      "name": "puestosDelLaboratorio",
      "outputs": [
        {
          "internalType": "uint256",
          "name": "",
          "type": "uint256"
        }
      ],
      "stateMutability": "view",
      "type": "function",
      "constant": true
    },
    {
      "inputs": [
        {
          "internalType": "uint256",
          "name": "",
          "type": "uint256"
        },
        {
          "internalType": "uint256",
          "name": "",
          "type": "uint256"
        },
        {
          "internalType": "uint256",
          "name": "",
          "type": "uint256"
        }
      ],
      "name": "puestosDelLaboratorioFecha",
      "outputs": [
        {
          "internalType": "uint256",
          "name": "",
          "type": "uint256"
        }
      ],
      "stateMutability": "view",
      "type": "function",
      "constant": true
    },
    {
      "inputs": [
        {
          "internalType": "uint256",
          "name": "",
          "type": "uint256"
        }
      ],
      "name": "puestosRegistrados",
      "outputs": [
        {
          "internalType": "string",
          "name": "nombre",
          "type": "string"
        },
        {
          "internalType": "uint256",
          "name": "indexlab",
          "type": "uint256"
        }
      ],
      "stateMutability": "view",
      "type": "function",
      "constant": true
    },
    {
      "inputs": [
        {
          "internalType": "string",
          "name": "",
          "type": "string"
        },
        {
          "internalType": "uint256",
          "name": "",
          "type": "uint256"
        }
      ],
      "name": "puestosTotales",
      "outputs": [
        {
          "internalType": "string",
          "name": "",
          "type": "string"
        }
      ],
      "stateMutability": "view",
      "type": "function",
      "constant": true
    },
    {
      "inputs": [
        {
          "internalType": "uint256",
          "name": "",
          "type": "uint256"
        }
      ],
      "name": "registradosP",
      "outputs": [
        {
          "internalType": "address",
          "name": "",
          "type": "address"
        }
      ],
      "stateMutability": "view",
      "type": "function",
      "constant": true
    },
    {
      "inputs": [
        {
          "internalType": "address",
          "name": "",
          "type": "address"
        }
      ],
      "name": "reservasAlumno",
      "outputs": [
        {
          "internalType": "string",
          "name": "lab",
          "type": "string"
        },
        {
          "internalType": "uint256",
          "name": "fecha",
          "type": "uint256"
        },
        {
          "internalType": "uint256",
          "name": "estado",
          "type": "uint256"
        }
      ],
      "stateMutability": "view",
      "type": "function",
      "constant": true
    },
    {
      "inputs": [
        {
          "internalType": "uint256",
          "name": "",
          "type": "uint256"
        },
        {
          "internalType": "uint256",
          "name": "",
          "type": "uint256"
        },
        {
          "internalType": "uint256",
          "name": "",
          "type": "uint256"
        }
      ],
      "name": "turnosPorPuesto",
      "outputs": [
        {
          "internalType": "uint256",
          "name": "",
          "type": "uint256"
        }
      ],
      "stateMutability": "view",
      "type": "function",
      "constant": true
    },
    {
      "inputs": [
        {
          "internalType": "uint256",
          "name": "",
          "type": "uint256"
        }
      ],
      "name": "turnosRegistrados",
      "outputs": [
        {
          "internalType": "string",
          "name": "nombre",
          "type": "string"
        },
        {
          "internalType": "uint256",
          "name": "fecha",
          "type": "uint256"
        }
      ],
      "stateMutability": "view",
      "type": "function",
      "constant": true
    },
    {
      "stateMutability": "payable",
      "type": "receive",
      "payable": true
    },
    {
      "inputs": [
        {
          "internalType": "uint256",
          "name": "_indexlab",
          "type": "uint256"
        }
      ],
      "name": "puestosDelLaboratorioLength",
      "outputs": [
        {
          "internalType": "uint256",
          "name": "",
          "type": "uint256"
        }
      ],
      "stateMutability": "view",
      "type": "function",
      "constant": true
    },
    {
      "inputs": [],
      "name": "turnosLength",
      "outputs": [
        {
          "internalType": "uint256",
          "name": "",
          "type": "uint256"
        }
      ],
      "stateMutability": "view",
      "type": "function",
      "constant": true
    },
    {
      "inputs": [
        {
          "internalType": "uint256",
          "name": "_laboratorioindex",
          "type": "uint256"
        }
      ],
      "name": "puestosLaboratorioLength",
      "outputs": [
        {
          "internalType": "uint256",
          "name": "",
          "type": "uint256"
        }
      ],
      "stateMutability": "view",
      "type": "function",
      "constant": true
    },
    {
      "inputs": [],
      "name": "laboratoriosLength",
      "outputs": [
        {
          "internalType": "uint256",
          "name": "",
          "type": "uint256"
        }
      ],
      "stateMutability": "view",
      "type": "function",
      "constant": true
    },
    {
      "inputs": [
        {
          "internalType": "string",
          "name": "_nombre",
          "type": "string"
        },
        {
          "internalType": "string",
          "name": "_fecha",
          "type": "string"
        }
      ],
      "name": "personasLength",
      "outputs": [
        {
          "internalType": "uint256",
          "name": "",
          "type": "uint256"
        }
      ],
      "stateMutability": "view",
      "type": "function",
      "constant": true
    },
    {
      "inputs": [
        {
          "internalType": "string",
          "name": "_nombre",
          "type": "string"
        }
      ],
      "name": "puestosLength2",
      "outputs": [
        {
          "internalType": "uint256",
          "name": "",
          "type": "uint256"
        }
      ],
      "stateMutability": "view",
      "type": "function",
      "constant": true
    },
    {
      "inputs": [
        {
          "internalType": "string",
          "name": "_nombre",
          "type": "string"
        },
        {
          "internalType": "string",
          "name": "_fecha",
          "type": "string"
        },
        {
          "internalType": "uint256",
          "name": "_indice",
          "type": "uint256"
        }
      ],
      "name": "dirPersonas",
      "outputs": [
        {
          "internalType": "address",
          "name": "",
          "type": "address"
        }
      ],
      "stateMutability": "view",
      "type": "function",
      "constant": true
    },
    {
      "inputs": [
        {
          "internalType": "address",
          "name": "_alumno",
          "type": "address"
        }
      ],
      "name": "obtenerDatosAlumno",
      "outputs": [
        {
          "internalType": "address",
          "name": "",
          "type": "address"
        }
      ],
      "stateMutability": "view",
      "type": "function",
      "constant": true
    },
    {
      "inputs": [
        {
          "internalType": "uint256",
          "name": "_laboratorioindex",
          "type": "uint256"
        }
      ],
      "name": "puestosdeLaboratorio",
      "outputs": [
        {
          "internalType": "uint256",
          "name": "",
          "type": "uint256"
        }
      ],
      "stateMutability": "view",
      "type": "function",
      "constant": true
    },
    {
      "inputs": [
        {
          "internalType": "string",
          "name": "_fecha",
          "type": "string"
        },
        {
          "internalType": "uint256",
          "name": "_entradaTurno",
          "type": "uint256"
        },
        {
          "internalType": "uint256",
          "name": "_laboratorioindex",
          "type": "uint256"
        }
      ],
      "name": "BuscaPuestoLab",
      "outputs": [
        {
          "internalType": "uint256",
          "name": "",
          "type": "uint256"
        }
      ],
      "stateMutability": "view",
      "type": "function",
      "constant": true
    },
    {
      "inputs": [
        {
          "internalType": "uint256",
          "name": "_puestoId",
          "type": "uint256"
        },
        {
          "internalType": "uint256",
          "name": "_fecha",
          "type": "uint256"
        },
        {
          "internalType": "uint256",
          "name": "_turno",
          "type": "uint256"
        },
        {
          "internalType": "string",
          "name": "_asignatura",
          "type": "string"
        }
      ],
      "name": "guardarReserva",
      "outputs": [],
      "stateMutability": "nonpayable",
      "type": "function"
    },
    {
      "inputs": [
        {
          "internalType": "uint256",
          "name": "_puestoId",
          "type": "uint256"
        },
        {
          "internalType": "uint256",
          "name": "_fecha",
          "type": "uint256"
        },
        {
          "internalType": "uint256",
          "name": "_turno",
          "type": "uint256"
        },
        {
          "internalType": "string",
          "name": "_asignatura",
          "type": "string"
        }
      ],
      "name": "quitarReserva",
      "outputs": [],
      "stateMutability": "nonpayable",
      "type": "function"
    },
    {
      "inputs": [
        {
          "internalType": "uint256",
          "name": "_laboratorioindex",
          "type": "uint256"
        },
        {
          "internalType": "string",
          "name": "_nombreL",
          "type": "string"
        },
        {
          "internalType": "string",
          "name": "_asignaura",
          "type": "string"
        },
        {
          "internalType": "string",
          "name": "_Info",
          "type": "string"
        }
      ],
      "name": "creaLaboratorio",
      "outputs": [
        {
          "internalType": "uint256",
          "name": "",
          "type": "uint256"
        }
      ],
      "stateMutability": "nonpayable",
      "type": "function"
    },
    {
      "inputs": [
        {
          "internalType": "string",
          "name": "_nombreAsig",
          "type": "string"
        },
        {
          "internalType": "uint256",
          "name": "_indexLab",
          "type": "uint256"
        },
        {
          "internalType": "string",
          "name": "_Info",
          "type": "string"
        }
      ],
      "name": "creaAsignatura",
      "outputs": [
        {
          "internalType": "uint256",
          "name": "",
          "type": "uint256"
        }
      ],
      "stateMutability": "nonpayable",
      "type": "function"
    },
    {
      "inputs": [
        {
          "internalType": "string",
          "name": "_NombreP",
          "type": "string"
        },
        {
          "internalType": "uint256",
          "name": "_indexlab",
          "type": "uint256"
        }
      ],
      "name": "creaPuesto",
      "outputs": [
        {
          "internalType": "uint256",
          "name": "",
          "type": "uint256"
        }
      ],
      "stateMutability": "nonpayable",
      "type": "function"
    },
    {
      "inputs": [
        {
          "internalType": "string",
          "name": "_nombre",
          "type": "string"
        },
        {
          "internalType": "uint256",
          "name": "_fecha",
          "type": "uint256"
        }
      ],
      "name": "creaTurno",
      "outputs": [
        {
          "internalType": "uint256",
          "name": "",
          "type": "uint256"
        }
      ],
      "stateMutability": "nonpayable",
      "type": "function"
    },
    {
      "inputs": [],
      "name": "matriculasLength",
      "outputs": [
        {
          "internalType": "uint256",
          "name": "",
          "type": "uint256"
        }
      ],
      "stateMutability": "view",
      "type": "function",
      "constant": true
    },
    {
      "inputs": [],
      "name": "profesRegistradosLength",
      "outputs": [
        {
          "internalType": "uint256",
          "name": "",
          "type": "uint256"
        }
      ],
      "stateMutability": "view",
      "type": "function",
      "constant": true
    },
    {
      "inputs": [],
      "name": "asignaturasRegistradasLength",
      "outputs": [
        {
          "internalType": "uint256",
          "name": "",
          "type": "uint256"
        }
      ],
      "stateMutability": "view",
      "type": "function",
      "constant": true
    },
    {
      "inputs": [
        {
          "internalType": "string",
          "name": "_nombre",
          "type": "string"
        },
        {
          "internalType": "string",
          "name": "_email",
          "type": "string"
        }
      ],
      "name": "automatricula",
      "outputs": [],
      "stateMutability": "nonpayable",
      "type": "function"
    },
    {
      "inputs": [],
      "name": "autoregistroP",
      "outputs": [],
      "stateMutability": "nonpayable",
      "type": "function"
    },
    {
      "inputs": [
        {
          "internalType": "string",
          "name": "_nombreP",
          "type": "string"
        },
        {
          "internalType": "string",
          "name": "_emailP",
          "type": "string"
        },
        {
          "internalType": "string",
          "name": "_asignaturaP",
          "type": "string"
        },
        {
          "internalType": "string",
          "name": "_departamentoP",
          "type": "string"
        }
      ],
      "name": "autoRegistro",
      "outputs": [],
      "stateMutability": "nonpayable",
      "type": "function"
    },
    {
      "inputs": [],
      "name": "quienSoy",
      "outputs": [
        {
          "internalType": "string",
          "name": "_nombre",
          "type": "string"
        },
        {
          "internalType": "string",
          "name": "_email",
          "type": "string"
        }
      ],
      "stateMutability": "view",
      "type": "function",
      "constant": true
    },
    {
      "inputs": [],
      "name": "miReserva",
      "outputs": [
        {
          "internalType": "string",
          "name": "lab",
          "type": "string"
        }
      ],
      "stateMutability": "view",
      "type": "function",
      "constant": true
    },
    {
      "inputs": [
        {
          "internalType": "address",
          "name": "persona",
          "type": "address"
        }
      ],
      "name": "estaRegistradoP",
      "outputs": [
        {
          "internalType": "bool",
          "name": "",
          "type": "bool"
        }
      ],
      "stateMutability": "view",
      "type": "function",
      "constant": true
    }
  ],
  "bytecode": "0x608060405234801561001057600080fd5b50336000806101000a81548173ffffffffffffffffffffffffffffffffffffffff021916908373ffffffffffffffffffffffffffffffffffffffff160217905550615137806100606000396000f3fe6080604052600436106103395760003560e01c806387972906116101ab578063c2c639b6116100f7578063df09657611610095578063f0f066ef1161006f578063f0f066ef14610e73578063f83dfff214610eb0578063f85c7aeb14610ed9578063f874785914610f1657610379565b8063df09657614610de2578063ede343cf14610e0d578063ee0e7c4f14610e3657610379565b8063cbf23288116100d1578063cbf2328814610ced578063cdea020914610d2b578063d2a2f7de14610d68578063d5a3e75a14610da557610379565b8063c2c639b614610c34578063c791813914610c71578063c88da89e14610cae57610379565b8063a38bd5ad11610164578063b0b127311161013e578063b0b1273114610b4d578063b4b4a51f14610b8c578063b5daf62c14610bb7578063bcfe45d314610bf757610379565b8063a38bd5ad14610a96578063a9b2aeac14610ad3578063b013bd2414610b1057610379565b8063879729061461094c5780638b69735b146109895780638da5cb5b146109c65780638ee4003b146109f15780638fa425e714610a2e5780639e1d8f4b14610a6b57610379565b806353766883116102855780636ad8a0fb1161022357806379b51b6a116101fd57806379b51b6a1461086a5780637e09be7a146108955780637fa4574d146108d2578063810e8c801461090f57610379565b80636ad8a0fb146107c35780636bf8aad61461080157806370d714f21461083f57610379565b806361d4c6ad1161025f57806361d4c6ad146106f2578063641945bf1461071b57806366668f3c1461075b5780636916662b1461079857610379565b80635376688314610660578063589afa221461068c5780635fdf483f146106b557610379565b8063223ca7a2116102f2578063317dc286116102cc578063317dc28614610591578063320d0773146105cf5780633bd20561146105e657806344141cb91461062357610379565b8063223ca7a2146104da5780632535f78414610517578063296d91db1461055457610379565b8063070259421461037e5780630c06bc02146103bb57806311fe9940146103f857806312f89eac14610423578063151b3f521461046057806315d772201461049d57610379565b36610379576040517f08c379a000000000000000000000000000000000000000000000000000000000815260040161037090614889565b60405180910390fd5b600080fd5b34801561038a57600080fd5b506103a560048036038101906103a09190613b6f565b610f53565b6040516103b29190614606565b60405180910390f35b3480156103c757600080fd5b506103e260048036038101906103dd9190614063565b610f91565b6040516103ef9190614989565b60405180910390f35b34801561040457600080fd5b5061040d610ff2565b60405161041a919061463c565b60405180910390f35b34801561042f57600080fd5b5061044a60048036038101906104459190613f0d565b611255565b604051610457919061463c565b60405180910390f35b34801561046c57600080fd5b50610487600480360381019061048291906141ce565b611324565b6040516104949190614606565b60405180910390f35b3480156104a957600080fd5b506104c460048036038101906104bf9190613b6f565b61136f565b6040516104d19190614606565b60405180910390f35b3480156104e657600080fd5b5061050160048036038101906104fc91906140e6565b6113f2565b60405161050e9190614606565b60405180910390f35b34801561052357600080fd5b5061053e6004803603810190610539919061420e565b611431565b60405161054b9190614989565b60405180910390f35b34801561056057600080fd5b5061057b60048036038101906105769190614113565b61146f565b6040516105889190614989565b60405180910390f35b34801561059d57600080fd5b506105b860048036038101906105b3919061420e565b611616565b6040516105c69291906146f6565b60405180910390f35b3480156105db57600080fd5b506105e46116ec565b005b3480156105f257600080fd5b5061060d600480360381019061060891906140e6565b6118b8565b60405161061a9190614989565b60405180910390f35b34801561062f57600080fd5b5061064a600480360381019061064591906140e6565b6118d8565b6040516106579190614989565b60405180910390f35b34801561066c57600080fd5b506106756118f0565b60405161068392919061465e565b60405180910390f35b34801561069857600080fd5b506106b360048036038101906106ae9190614261565b611ac0565b005b3480156106c157600080fd5b506106dc60048036038101906106d79190613de3565b611d3e565b6040516106e99190614606565b60405180910390f35b3480156106fe57600080fd5b5061071960048036038101906107149190613c94565b611dc5565b005b34801561072757600080fd5b50610742600480360381019061073d9190613b6f565b611f57565b6040516107529493929190614695565b60405180910390f35b34801561076757600080fd5b50610782600480360381019061077d9190613c94565b6121a7565b60405161078f9190614989565b60405180910390f35b3480156107a457600080fd5b506107ad612202565b6040516107ba9190614989565b60405180910390f35b3480156107cf57600080fd5b506107ea60048036038101906107e591906140e6565b61220f565b6040516107f89291906146f6565b60405180910390f35b34801561080d57600080fd5b5061082860048036038101906108239190613b6f565b6122cb565b60405161083692919061465e565b60405180910390f35b34801561084b57600080fd5b506108546123ff565b6040516108619190614989565b60405180910390f35b34801561087657600080fd5b5061087f61240c565b60405161088c9190614989565b60405180910390f35b3480156108a157600080fd5b506108bc60048036038101906108b79190613b6f565b612419565b6040516108c99190614621565b60405180910390f35b3480156108de57600080fd5b506108f960048036038101906108f49190613f0d565b6124ba565b6040516109069190614989565b60405180910390f35b34801561091b57600080fd5b5061093660048036038101906109319190613f69565b612619565b6040516109439190614989565b60405180910390f35b34801561095857600080fd5b50610973600480360381019061096e919061420e565b61279c565b6040516109809190614606565b60405180910390f35b34801561099557600080fd5b506109b060048036038101906109ab91906140e6565b6127f4565b6040516109bd9190614989565b60405180910390f35b3480156109d257600080fd5b506109db612814565b6040516109e89190614606565b60405180910390f35b3480156109fd57600080fd5b50610a186004803603810190610a139190613c4b565b612838565b604051610a259190614989565b60405180910390f35b348015610a3a57600080fd5b50610a556004803603810190610a50919061420e565b612876565b604051610a629190614989565b60405180910390f35b348015610a7757600080fd5b50610a806128b4565b604051610a8d9190614989565b60405180910390f35b348015610aa257600080fd5b50610abd6004803603810190610ab89190613c0b565b6128c1565b604051610aca9190614621565b60405180910390f35b348015610adf57600080fd5b50610afa6004803603810190610af59190613ff4565b6128f0565b604051610b079190614989565b60405180910390f35b348015610b1c57600080fd5b50610b376004803603810190610b3291906141ce565b61293f565b604051610b449190614989565b60405180910390f35b348015610b5957600080fd5b50610b746004803603810190610b6f9190613b6f565b612970565b604051610b839392919061476b565b60405180910390f35b348015610b9857600080fd5b50610ba1612a22565b604051610bae9190614989565b60405180910390f35b348015610bc357600080fd5b50610bde6004803603810190610bd991906140e6565b612a2f565b604051610bee94939291906149a4565b60405180910390f35b348015610c0357600080fd5b50610c1e6004803603810190610c199190613f0d565b612c07565b604051610c2b9190614989565b60405180910390f35b348015610c4057600080fd5b50610c5b6004803603810190610c5691906142e4565b612da6565b604051610c689190614606565b60405180910390f35b348015610c7d57600080fd5b50610c986004803603810190610c9391906140e6565b612e0b565b604051610ca59190614606565b60405180910390f35b348015610cba57600080fd5b50610cd56004803603810190610cd091906140e6565b612e4a565b604051610ce493929190614726565b60405180910390f35b348015610cf957600080fd5b50610d146004803603810190610d0f91906140e6565b612f94565b604051610d229291906146f6565b60405180910390f35b348015610d3757600080fd5b50610d526004803603810190610d4d91906141ce565b613050565b604051610d5f9190614989565b60405180910390f35b348015610d7457600080fd5b50610d8f6004803603810190610d8a91906140e6565b613081565b604051610d9c9190614606565b60405180910390f35b348015610db157600080fd5b50610dcc6004803603810190610dc79190613e6e565b6130c0565b604051610dd99190614606565b60405180910390f35b348015610dee57600080fd5b50610df7613154565b604051610e049190614606565b60405180910390f35b348015610e1957600080fd5b50610e346004803603810190610e2f9190613d0c565b61317a565b005b348015610e4257600080fd5b50610e5d6004803603810190610e5891906140e6565b613354565b604051610e6a9190614606565b60405180910390f35b348015610e7f57600080fd5b50610e9a6004803603810190610e9591906140e6565b613393565b604051610ea79190614989565b60405180910390f35b348015610ebc57600080fd5b50610ed76004803603810190610ed29190614261565b6133b3565b005b348015610ee557600080fd5b50610f006004803603810190610efb9190613b9c565b613668565b604051610f0d9190614989565b60405180910390f35b348015610f2257600080fd5b50610f3d6004803603810190610f389190613de3565b6136b0565b604051610f4a9190614606565b60405180910390f35b60026020528060005260406000206000915090508060000160009054906101000a900473ffffffffffffffffffffffffffffffffffffffff16905081565b6016848051602081018201805184825260208301602085012081835280955050505050506020528260005260406000206020528160005260406000208181548110610fdb57600080fd5b906000526020600020016000935093505050505481565b6060610ffd33613786565b61103c576040517f08c379a000000000000000000000000000000000000000000000000000000000815260040161103390614829565b60405180910390fd5b6000600660003373ffffffffffffffffffffffffffffffffffffffff1673ffffffffffffffffffffffffffffffffffffffff168152602001908152602001600020604051806080016040529081600082015481526020016001820180546110a290614b63565b80601f01602080910402602001604051908101604052809291908181526020018280546110ce90614b63565b801561111b5780601f106110f05761010080835404028352916020019161111b565b820191906000526020600020905b8154815290600101906020018083116110fe57829003601f168201915b5050505050815260200160028201805461113490614b63565b80601f016020809104026020016040519081016040528092919081815260200182805461116090614b63565b80156111ad5780601f10611182576101008083540402835291602001916111ad565b820191906000526020600020905b81548152906001019060200180831161119057829003601f168201915b505050505081526020016003820180546111c690614b63565b80601f01602080910402602001604051908101604052809291908181526020018280546111f290614b63565b801561123f5780601f106112145761010080835404028352916020019161123f565b820191906000526020600020905b81548152906001019060200180831161122257829003601f168201915b5050505050815250509050806020015191505090565b601482805160208101820180518482526020830160208501208183528095505050505050818154811061128757600080fd5b906000526020600020016000915091505080546112a390614b63565b80601f01602080910402602001604051908101604052809291908181526020018280546112cf90614b63565b801561131c5780601f106112f15761010080835404028352916020019161131c565b820191906000526020600020905b8154815290600101906020018083116112ff57829003601f168201915b505050505081565b6017602052816000526040600020602052806000526040600020600091509150508060000160009054906101000a900473ffffffffffffffffffffffffffffffffffffffff16905081565b600061137a8261386a565b61138757600090506113ed565b600260008373ffffffffffffffffffffffffffffffffffffffff1673ffffffffffffffffffffffffffffffffffffffff16815260200190815260200160002060000160009054906101000a900473ffffffffffffffffffffffffffffffffffffffff1690505b919050565b600a818154811061140257600080fd5b906000526020600020016000915054906101000a900473ffffffffffffffffffffffffffffffffffffffff1681565b601d602052826000526040600020602052816000526040600020818154811061145957600080fd5b9060005260206000200160009250925050505481565b60008060009054906101000a900473ffffffffffffffffffffffffffffffffffffffff1673ffffffffffffffffffffffffffffffffffffffff163373ffffffffffffffffffffffffffffffffffffffff1614611500576040517f08c379a00000000000000000000000000000000000000000000000000000000081526004016114f790614969565b60405180910390fd5b600084905060008151141561154a576040517f08c379a0000000000000000000000000000000000000000000000000000000008152600401611541906148c9565b60405180910390fd5b600d60405180608001604052808881526020018781526020018681526020018581525090806001815401808255809150506001900390600052602060002090600402016000909190919091506000820151816000015560208201518160010190805190602001906115bc929190613a32565b5060408201518160020190805190602001906115d9929190613a32565b5060608201518160030190805190602001906115f6929190613a32565b5050506001600d8054905061160b9190614a7b565b915050949350505050565b601f602052826000526040600020602052816000526040600020818154811061163e57600080fd5b9060005260206000209060020201600092509250505080600001805461166390614b63565b80601f016020809104026020016040519081016040528092919081815260200182805461168f90614b63565b80156116dc5780601f106116b1576101008083540402835291602001916116dc565b820191906000526020600020905b8154815290600101906020018083116116bf57829003601f168201915b5050505050908060010154905082565b6116f533612419565b15611735576040517f08c379a000000000000000000000000000000000000000000000000000000000815260040161172c90614909565b60405180910390fd5b600073ffffffffffffffffffffffffffffffffffffffff163373ffffffffffffffffffffffffffffffffffffffff1614156117a5576040517f08c379a000000000000000000000000000000000000000000000000000000000815260040161179c906147c9565b60405180910390fd5b60405180602001604052803373ffffffffffffffffffffffffffffffffffffffff16815250600260003373ffffffffffffffffffffffffffffffffffffffff1673ffffffffffffffffffffffffffffffffffffffff16815260200190815260200160002060008201518160000160006101000a81548173ffffffffffffffffffffffffffffffffffffffff021916908373ffffffffffffffffffffffffffffffffffffffff160217905550905050600a339080600181540180825580915050600190039060005260206000200160009091909190916101000a81548173ffffffffffffffffffffffffffffffffffffffff021916908373ffffffffffffffffffffffffffffffffffffffff160217905550565b600060156000838152602001908152602001600020805490509050919050565b601e6020528060005260406000206000915090505481565b6060806118fc33613786565b61193b576040517f08c379a000000000000000000000000000000000000000000000000000000000815260040161193290614829565b60405180910390fd5b6000600360003373ffffffffffffffffffffffffffffffffffffffff1673ffffffffffffffffffffffffffffffffffffffff16815260200190815260200160002060405180604001604052908160008201805461199790614b63565b80601f01602080910402602001604051908101604052809291908181526020018280546119c390614b63565b8015611a105780601f106119e557610100808354040283529160200191611a10565b820191906000526020600020905b8154815290600101906020018083116119f357829003601f168201915b50505050508152602001600182018054611a2990614b63565b80601f0160208091040260200160405190810160405280929190818152602001828054611a5590614b63565b8015611aa25780601f10611a7757610100808354040283529160200191611aa2565b820191906000526020600020905b815481529060010190602001808311611a8557829003601f168201915b50505050508152505090508060000151925080602001519150509091565b611ac933613786565b611b08576040517f08c379a0000000000000000000000000000000000000000000000000000000008152600401611aff906147e9565b60405180910390fd5b60188210611b4b576040517f08c379a0000000000000000000000000000000000000000000000000000000008152600401611b4290614929565b60405180910390fd5b3373ffffffffffffffffffffffffffffffffffffffff16601960008681526020019081526020016000206000858152602001908152602001600020600084815260200190815260200160002060000160009054906101000a900473ffffffffffffffffffffffffffffffffffffffff1673ffffffffffffffffffffffffffffffffffffffff1614611c11576040517f08c379a0000000000000000000000000000000000000000000000000000000008152600401611c0890614849565b60405180910390fd5b6040518060200160405280600073ffffffffffffffffffffffffffffffffffffffff16815250601960008681526020019081526020016000206000858152602001908152602001600020600084815260200190815260200160002060008201518160000160006101000a81548173ffffffffffffffffffffffffffffffffffffffff021916908373ffffffffffffffffffffffffffffffffffffffff160217905550905050601a60003373ffffffffffffffffffffffffffffffffffffffff1673ffffffffffffffffffffffffffffffffffffffff16815260200190815260200160002081604051611d0391906145ef565b908152602001604051809103902060008481526020019081526020016000206000815480929190611d3390614b39565b919050555050505050565b601383805160208101820180518482526020830160208501208183528095505050505050828051602081018201805184825260208301602085012081835280955050505050508181548110611d9257600080fd5b90600052602060002001600092509250509054906101000a900473ffffffffffffffffffffffffffffffffffffffff1681565b611dce33613786565b15611e0e576040517f08c379a0000000000000000000000000000000000000000000000000000000008152600401611e05906147e9565b60405180910390fd5b6000829050600081511415611e58576040517f08c379a0000000000000000000000000000000000000000000000000000000008152600401611e4f90614809565b60405180910390fd5b6000604051806040016040528085815260200184815250905080600360003373ffffffffffffffffffffffffffffffffffffffff1673ffffffffffffffffffffffffffffffffffffffff1681526020019081526020016000206000820151816000019080519060200190611ecd929190613a32565b506020820151816001019080519060200190611eea929190613a32565b509050506008339080600181540180825580915050600190039060005260206000200160009091909190916101000a81548173ffffffffffffffffffffffffffffffffffffffff021916908373ffffffffffffffffffffffffffffffffffffffff16021790555050505050565b6004602052806000526040600020600091509050806000018054611f7a90614b63565b80601f0160208091040260200160405190810160405280929190818152602001828054611fa690614b63565b8015611ff35780601f10611fc857610100808354040283529160200191611ff3565b820191906000526020600020905b815481529060010190602001808311611fd657829003601f168201915b50505050509080600101805461200890614b63565b80601f016020809104026020016040519081016040528092919081815260200182805461203490614b63565b80156120815780601f1061205657610100808354040283529160200191612081565b820191906000526020600020905b81548152906001019060200180831161206457829003601f168201915b50505050509080600201805461209690614b63565b80601f01602080910402602001604051908101604052809291908181526020018280546120c290614b63565b801561210f5780601f106120e45761010080835404028352916020019161210f565b820191906000526020600020905b8154815290600101906020018083116120f257829003601f168201915b50505050509080600301805461212490614b63565b80601f016020809104026020016040519081016040528092919081815260200182805461215090614b63565b801561219d5780601f106121725761010080835404028352916020019161219d565b820191906000526020600020905b81548152906001019060200180831161218057829003601f168201915b5050505050905084565b6000806013836040516121ba91906145ef565b9081526020016040518091039020846040516121d691906145ef565b908152602001604051809103902080549050905060008114156121f857600190505b8091505092915050565b6000600f80549050905090565b600f818154811061221f57600080fd5b906000526020600020906002020160009150905080600001805461224290614b63565b80601f016020809104026020016040519081016040528092919081815260200182805461226e90614b63565b80156122bb5780601f10612290576101008083540402835291602001916122bb565b820191906000526020600020905b81548152906001019060200180831161229e57829003601f168201915b5050505050908060010154905082565b60036020528060005260406000206000915090508060000180546122ee90614b63565b80601f016020809104026020016040519081016040528092919081815260200182805461231a90614b63565b80156123675780601f1061233c57610100808354040283529160200191612367565b820191906000526020600020905b81548152906001019060200180831161234a57829003601f168201915b50505050509080600101805461237c90614b63565b80601f01602080910402602001604051908101604052809291908181526020018280546123a890614b63565b80156123f55780601f106123ca576101008083540402835291602001916123f5565b820191906000526020600020905b8154815290600101906020018083116123d857829003601f168201915b5050505050905082565b6000600c80549050905090565b6000600980549050905090565b600080600260008473ffffffffffffffffffffffffffffffffffffffff1673ffffffffffffffffffffffffffffffffffffffff16815260200190815260200160002060000160009054906101000a900473ffffffffffffffffffffffffffffffffffffffff169050600073ffffffffffffffffffffffffffffffffffffffff168173ffffffffffffffffffffffffffffffffffffffff161415915050919050565b60008060009054906101000a900473ffffffffffffffffffffffffffffffffffffffff1673ffffffffffffffffffffffffffffffffffffffff163373ffffffffffffffffffffffffffffffffffffffff161461254b576040517f08c379a000000000000000000000000000000000000000000000000000000000815260040161254290614969565b60405180910390fd5b6000839050600081511415612595576040517f08c379a000000000000000000000000000000000000000000000000000000000815260040161258c90614949565b60405180910390fd5b600f604051806040016040528086815260200185815250908060018154018082558091505060019003906000526020600020906002020160009091909190915060008201518160000190805190602001906125f1929190613a32565b506020820151816001015550506001600f805490506126109190614a7b565b91505092915050565b60008060009054906101000a900473ffffffffffffffffffffffffffffffffffffffff1673ffffffffffffffffffffffffffffffffffffffff163373ffffffffffffffffffffffffffffffffffffffff16146126aa576040517f08c379a00000000000000000000000000000000000000000000000000000000081526004016126a190614969565b60405180910390fd5b60008490506000815114156126f4576040517f08c379a00000000000000000000000000000000000000000000000000000000081526004016126eb90614869565b60405180910390fd5b600c60405180606001604052808781526020018681526020018581525090806001815401808255809150506001900390600052602060002090600302016000909190919091506000820151816000019080519060200190612756929190613a32565b5060208201518160010155604082015181600201908051906020019061277d929190613a32565b5050506001600c805490506127929190614a7b565b9150509392505050565b601960205282600052604060002060205281600052604060002060205280600052604060002060009250925050508060000160009054906101000a900473ffffffffffffffffffffffffffffffffffffffff16905081565b6000601c6000838152602001908152602001600020805490509050919050565b60008054906101000a900473ffffffffffffffffffffffffffffffffffffffff1681565b60008060148360405161284b91906145ef565b9081526020016040518091039020805490509050600081141561286d57600190505b80915050919050565b6021602052826000526040600020602052816000526040600020818154811061289e57600080fd5b9060005260206000200160009250925050505481565b6000600880549050905090565b601b6020528160005260406000206020528060005260406000206000915091509054906101000a900460ff1681565b600060168460405161290291906145ef565b9081526020016040518091039020600084815260200190815260200160002060008381526020019081526020016000208054905090509392505050565b601c602052816000526040600020818154811061295b57600080fd5b90600052602060002001600091509150505481565b601060205280600052604060002060009150905080600001805461299390614b63565b80601f01602080910402602001604051908101604052809291908181526020018280546129bf90614b63565b8015612a0c5780601f106129e157610100808354040283529160200191612a0c565b820191906000526020600020905b8154815290600101906020018083116129ef57829003601f168201915b5050505050908060010154908060020154905083565b6000600d80549050905090565b600d8181548110612a3f57600080fd5b9060005260206000209060040201600091509050806000015490806001018054612a6890614b63565b80601f0160208091040260200160405190810160405280929190818152602001828054612a9490614b63565b8015612ae15780601f10612ab657610100808354040283529160200191612ae1565b820191906000526020600020905b815481529060010190602001808311612ac457829003601f168201915b505050505090806002018054612af690614b63565b80601f0160208091040260200160405190810160405280929190818152602001828054612b2290614b63565b8015612b6f5780601f10612b4457610100808354040283529160200191612b6f565b820191906000526020600020905b815481529060010190602001808311612b5257829003601f168201915b505050505090806003018054612b8490614b63565b80601f0160208091040260200160405190810160405280929190818152602001828054612bb090614b63565b8015612bfd5780601f10612bd257610100808354040283529160200191612bfd565b820191906000526020600020905b815481529060010190602001808311612be057829003601f168201915b5050505050905084565b60008060009054906101000a900473ffffffffffffffffffffffffffffffffffffffff1673ffffffffffffffffffffffffffffffffffffffff163373ffffffffffffffffffffffffffffffffffffffff1614612c98576040517f08c379a0000000000000000000000000000000000000000000000000000000008152600401612c8f90614969565b60405180910390fd5b6000839050600081511415612ce2576040517f08c379a0000000000000000000000000000000000000000000000000000000008152600401612cd9906148c9565b60405180910390fd5b600e60405180604001604052808681526020018581525090806001815401808255809150506001900390600052602060002090600202016000909190919091506000820151816000019080519060200190612d3e929190613a32565b5060208201518160010155505060006001600e80549050612d5f9190614a7b565b9050601c6000858152602001908152602001600020819080600181540180825580915050600190039060005260206000200160009091909190915055809250505092915050565b60186020528360005260406000206020528260005260406000206020528160005260406000206020528060005260406000206000935093505050508060000160009054906101000a900473ffffffffffffffffffffffffffffffffffffffff16905081565b60088181548110612e1b57600080fd5b906000526020600020016000915054906101000a900473ffffffffffffffffffffffffffffffffffffffff1681565b600c8181548110612e5a57600080fd5b9060005260206000209060030201600091509050806000018054612e7d90614b63565b80601f0160208091040260200160405190810160405280929190818152602001828054612ea990614b63565b8015612ef65780601f10612ecb57610100808354040283529160200191612ef6565b820191906000526020600020905b815481529060010190602001808311612ed957829003601f168201915b505050505090806001015490806002018054612f1190614b63565b80601f0160208091040260200160405190810160405280929190818152602001828054612f3d90614b63565b8015612f8a5780601f10612f5f57610100808354040283529160200191612f8a565b820191906000526020600020905b815481529060010190602001808311612f6d57829003601f168201915b5050505050905083565b600e8181548110612fa457600080fd5b9060005260206000209060020201600091509050806000018054612fc790614b63565b80601f0160208091040260200160405190810160405280929190818152602001828054612ff390614b63565b80156130405780601f1061301557610100808354040283529160200191613040565b820191906000526020600020905b81548152906001019060200180831161302357829003601f168201915b5050505050908060010154905082565b6015602052816000526040600020818154811061306c57600080fd5b90600052602060002001600091509150505481565b600b818154811061309157600080fd5b906000526020600020016000915054906101000a900473ffffffffffffffffffffffffffffffffffffffff1681565b60128480516020810182018051848252602083016020850120818352809550505050505083805160208101820180518482526020830160208501208183528095505050505050602052816000526040600020818154811061312057600080fd5b9060005260206000200160009350935050509054906101000a900473ffffffffffffffffffffffffffffffffffffffff1681565b600160009054906101000a900473ffffffffffffffffffffffffffffffffffffffff1681565b6131833361394e565b156131c3576040517f08c379a00000000000000000000000000000000000000000000000000000000081526004016131ba906148a9565b60405180910390fd5b600084905060008151141561320d576040517f08c379a000000000000000000000000000000000000000000000000000000000815260040161320490614809565b60405180910390fd5b6000604051806080016040528087815260200186815260200185815260200184815250905080600460003373ffffffffffffffffffffffffffffffffffffffff1673ffffffffffffffffffffffffffffffffffffffff168152602001908152602001600020600082015181600001908051906020019061328e929190613a32565b5060208201518160010190805190602001906132ab929190613a32565b5060408201518160020190805190602001906132c8929190613a32565b5060608201518160030190805190602001906132e5929190613a32565b509050506009339080600181540180825580915050600190039060005260206000200160009091909190916101000a81548173ffffffffffffffffffffffffffffffffffffffff021916908373ffffffffffffffffffffffffffffffffffffffff160217905550505050505050565b6009818154811061336457600080fd5b906000526020600020016000915054906101000a900473ffffffffffffffffffffffffffffffffffffffff1681565b600060156000838152602001908152602001600020805490509050919050565b6133bc33613786565b6133fb576040517f08c379a00000000000000000000000000000000000000000000000000000000081526004016133f2906147e9565b60405180910390fd5b6018821061343e576040517f08c379a000000000000000000000000000000000000000000000000000000000815260040161343590614929565b60405180910390fd5b6134473361386a565b15613487576040517f08c379a000000000000000000000000000000000000000000000000000000000815260040161347e906148e9565b60405180910390fd5b6003601a60003373ffffffffffffffffffffffffffffffffffffffff1673ffffffffffffffffffffffffffffffffffffffff168152602001908152602001600020826040516134d691906145ef565b908152602001604051809103902060008581526020019081526020016000205410613536576040517f08c379a000000000000000000000000000000000000000000000000000000000815260040161352d906147a9565b60405180910390fd5b600060405180602001604052803373ffffffffffffffffffffffffffffffffffffffff16815250905080601960008781526020019081526020016000206000868152602001908152602001600020600085815260200190815260200160002060008201518160000160006101000a81548173ffffffffffffffffffffffffffffffffffffffff021916908373ffffffffffffffffffffffffffffffffffffffff160217905550905050601a60003373ffffffffffffffffffffffffffffffffffffffff1673ffffffffffffffffffffffffffffffffffffffff1681526020019081526020016000208260405161362c91906145ef565b90815260200160405180910390206000858152602001908152602001600020600081548092919061365c90614bc6565b91905055505050505050565b601a6020528260005260406000208280516020810182018051848252602083016020850120818352809550505050505060205280600052604060002060009250925050505481565b6000806013846040516136c391906145ef565b9081526020016040518091039020856040516136df91906145ef565b908152602001604051809103902080549050111561377b57600060138460405161370991906145ef565b90815260200160405180910390208560405161372591906145ef565b9081526020016040518091039020838154811061374557613744614c6d565b5b9060005260206000200160009054906101000a900473ffffffffffffffffffffffffffffffffffffffff1690508091505061377f565b3390505b9392505050565b600080600360008473ffffffffffffffffffffffffffffffffffffffff1673ffffffffffffffffffffffffffffffffffffffff16815260200190815260200160002060000180546137d690614b63565b80601f016020809104026020016040519081016040528092919081815260200182805461380290614b63565b801561384f5780601f106138245761010080835404028352916020019161384f565b820191906000526020600020905b81548152906001019060200180831161383257829003601f168201915b50505050509050600081905060008151141592505050919050565b600080600760008473ffffffffffffffffffffffffffffffffffffffff1673ffffffffffffffffffffffffffffffffffffffff16815260200190815260200160002060000180546138ba90614b63565b80601f01602080910402602001604051908101604052809291908181526020018280546138e690614b63565b80156139335780601f1061390857610100808354040283529160200191613933565b820191906000526020600020905b81548152906001019060200180831161391657829003601f168201915b50505050509050600081905060008151141592505050919050565b600080600460008473ffffffffffffffffffffffffffffffffffffffff1673ffffffffffffffffffffffffffffffffffffffff168152602001908152602001600020600001805461399e90614b63565b80601f01602080910402602001604051908101604052809291908181526020018280546139ca90614b63565b8015613a175780601f106139ec57610100808354040283529160200191613a17565b820191906000526020600020905b8154815290600101906020018083116139fa57829003601f168201915b50505050509050600081905060008151141592505050919050565b828054613a3e90614b63565b90600052602060002090601f016020900481019282613a605760008555613aa7565b82601f10613a7957805160ff1916838001178555613aa7565b82800160010185558215613aa7579182015b82811115613aa6578251825591602001919060010190613a8b565b5b509050613ab49190613ab8565b5090565b5b80821115613ad1576000816000905550600101613ab9565b5090565b6000613ae8613ae384614a23565b6149fe565b905082815260208101848484011115613b0457613b03614cd0565b5b613b0f848285614af7565b509392505050565b600081359050613b26816150d3565b92915050565b600082601f830112613b4157613b40614ccb565b5b8135613b51848260208601613ad5565b91505092915050565b600081359050613b69816150ea565b92915050565b600060208284031215613b8557613b84614cda565b5b6000613b9384828501613b17565b91505092915050565b600080600060608486031215613bb557613bb4614cda565b5b6000613bc386828701613b17565b935050602084013567ffffffffffffffff811115613be457613be3614cd5565b5b613bf086828701613b2c565b9250506040613c0186828701613b5a565b9150509250925092565b60008060408385031215613c2257613c21614cda565b5b6000613c3085828601613b17565b9250506020613c4185828601613b5a565b9150509250929050565b600060208284031215613c6157613c60614cda565b5b600082013567ffffffffffffffff811115613c7f57613c7e614cd5565b5b613c8b84828501613b2c565b91505092915050565b60008060408385031215613cab57613caa614cda565b5b600083013567ffffffffffffffff811115613cc957613cc8614cd5565b5b613cd585828601613b2c565b925050602083013567ffffffffffffffff811115613cf657613cf5614cd5565b5b613d0285828601613b2c565b9150509250929050565b60008060008060808587031215613d2657613d25614cda565b5b600085013567ffffffffffffffff811115613d4457613d43614cd5565b5b613d5087828801613b2c565b945050602085013567ffffffffffffffff811115613d7157613d70614cd5565b5b613d7d87828801613b2c565b935050604085013567ffffffffffffffff811115613d9e57613d9d614cd5565b5b613daa87828801613b2c565b925050606085013567ffffffffffffffff811115613dcb57613dca614cd5565b5b613dd787828801613b2c565b91505092959194509250565b600080600060608486031215613dfc57613dfb614cda565b5b600084013567ffffffffffffffff811115613e1a57613e19614cd5565b5b613e2686828701613b2c565b935050602084013567ffffffffffffffff811115613e4757613e46614cd5565b5b613e5386828701613b2c565b9250506040613e6486828701613b5a565b9150509250925092565b60008060008060808587031215613e8857613e87614cda565b5b600085013567ffffffffffffffff811115613ea657613ea5614cd5565b5b613eb287828801613b2c565b945050602085013567ffffffffffffffff811115613ed357613ed2614cd5565b5b613edf87828801613b2c565b9350506040613ef087828801613b5a565b9250506060613f0187828801613b5a565b91505092959194509250565b60008060408385031215613f2457613f23614cda565b5b600083013567ffffffffffffffff811115613f4257613f41614cd5565b5b613f4e85828601613b2c565b9250506020613f5f85828601613b5a565b9150509250929050565b600080600060608486031215613f8257613f81614cda565b5b600084013567ffffffffffffffff811115613fa057613f9f614cd5565b5b613fac86828701613b2c565b9350506020613fbd86828701613b5a565b925050604084013567ffffffffffffffff811115613fde57613fdd614cd5565b5b613fea86828701613b2c565b9150509250925092565b60008060006060848603121561400d5761400c614cda565b5b600084013567ffffffffffffffff81111561402b5761402a614cd5565b5b61403786828701613b2c565b935050602061404886828701613b5a565b925050604061405986828701613b5a565b9150509250925092565b6000806000806080858703121561407d5761407c614cda565b5b600085013567ffffffffffffffff81111561409b5761409a614cd5565b5b6140a787828801613b2c565b94505060206140b887828801613b5a565b93505060406140c987828801613b5a565b92505060606140da87828801613b5a565b91505092959194509250565b6000602082840312156140fc576140fb614cda565b5b600061410a84828501613b5a565b91505092915050565b6000806000806080858703121561412d5761412c614cda565b5b600061413b87828801613b5a565b945050602085013567ffffffffffffffff81111561415c5761415b614cd5565b5b61416887828801613b2c565b935050604085013567ffffffffffffffff81111561418957614188614cd5565b5b61419587828801613b2c565b925050606085013567ffffffffffffffff8111156141b6576141b5614cd5565b5b6141c287828801613b2c565b91505092959194509250565b600080604083850312156141e5576141e4614cda565b5b60006141f385828601613b5a565b925050602061420485828601613b5a565b9150509250929050565b60008060006060848603121561422757614226614cda565b5b600061423586828701613b5a565b935050602061424686828701613b5a565b925050604061425786828701613b5a565b9150509250925092565b6000806000806080858703121561427b5761427a614cda565b5b600061428987828801613b5a565b945050602061429a87828801613b5a565b93505060406142ab87828801613b5a565b925050606085013567ffffffffffffffff8111156142cc576142cb614cd5565b5b6142d887828801613b2c565b91505092959194509250565b600080600080608085870312156142fe576142fd614cda565b5b600061430c87828801613b5a565b945050602061431d87828801613b5a565b935050604061432e87828801613b5a565b925050606061433f87828801613b5a565b91505092959194509250565b61435481614aaf565b82525050565b61436381614ac1565b82525050565b600061437482614a54565b61437e8185614a5f565b935061438e818560208601614b06565b61439781614cdf565b840191505092915050565b60006143ad82614a54565b6143b78185614a70565b93506143c7818560208601614b06565b80840191505092915050565b60006143e0602a83614a5f565b91506143eb82614cf0565b604082019050919050565b6000614403601f83614a5f565b915061440e82614d3f565b602082019050919050565b6000614426602883614a5f565b915061443182614d68565b604082019050919050565b6000614449601c83614a5f565b915061445482614db7565b602082019050919050565b600061446c602583614a5f565b915061447782614de0565b604082019050919050565b600061448f601c83614a5f565b915061449a82614e2f565b602082019050919050565b60006144b2602783614a5f565b91506144bd82614e58565b604082019050919050565b60006144d5602583614a5f565b91506144e082614ea7565b604082019050919050565b60006144f8602683614a5f565b915061450382614ef6565b604082019050919050565b600061451b602483614a5f565b915061452682614f45565b604082019050919050565b600061453e602f83614a5f565b915061454982614f94565b604082019050919050565b6000614561602883614a5f565b915061456c82614fe3565b604082019050919050565b6000614584600e83614a5f565b915061458f82615032565b602082019050919050565b60006145a7602a83614a5f565b91506145b28261505b565b604082019050919050565b60006145ca601783614a5f565b91506145d5826150aa565b602082019050919050565b6145e981614aed565b82525050565b60006145fb82846143a2565b915081905092915050565b600060208201905061461b600083018461434b565b92915050565b6000602082019050614636600083018461435a565b92915050565b600060208201905081810360008301526146568184614369565b905092915050565b600060408201905081810360008301526146788185614369565b9050818103602083015261468c8184614369565b90509392505050565b600060808201905081810360008301526146af8187614369565b905081810360208301526146c38186614369565b905081810360408301526146d78185614369565b905081810360608301526146eb8184614369565b905095945050505050565b600060408201905081810360008301526147108185614369565b905061471f60208301846145e0565b9392505050565b600060608201905081810360008301526147408186614369565b905061474f60208301856145e0565b81810360408301526147618184614369565b9050949350505050565b600060608201905081810360008301526147858186614369565b905061479460208301856145e0565b6147a160408301846145e0565b949350505050565b600060208201905081810360008301526147c2816143d3565b9050919050565b600060208201905081810360008301526147e2816143f6565b9050919050565b6000602082019050818103600083015261480281614419565b9050919050565b600060208201905081810360008301526148228161443c565b9050919050565b600060208201905081810360008301526148428161445f565b9050919050565b6000602082019050818103600083015261486281614482565b9050919050565b60006020820190508181036000830152614882816144a5565b9050919050565b600060208201905081810360008301526148a2816144c8565b9050919050565b600060208201905081810360008301526148c2816144eb565b9050919050565b600060208201905081810360008301526148e28161450e565b9050919050565b6000602082019050818103600083015261490281614531565b9050919050565b6000602082019050818103600083015261492281614554565b9050919050565b6000602082019050818103600083015261494281614577565b9050919050565b600060208201905081810360008301526149628161459a565b9050919050565b60006020820190508181036000830152614982816145bd565b9050919050565b600060208201905061499e60008301846145e0565b92915050565b60006080820190506149b960008301876145e0565b81810360208301526149cb8186614369565b905081810360408301526149df8185614369565b905081810360608301526149f38184614369565b905095945050505050565b6000614a08614a19565b9050614a148282614b95565b919050565b6000604051905090565b600067ffffffffffffffff821115614a3e57614a3d614c9c565b5b614a4782614cdf565b9050602081019050919050565b600081519050919050565b600082825260208201905092915050565b600081905092915050565b6000614a8682614aed565b9150614a9183614aed565b925082821015614aa457614aa3614c0f565b5b828203905092915050565b6000614aba82614acd565b9050919050565b60008115159050919050565b600073ffffffffffffffffffffffffffffffffffffffff82169050919050565b6000819050919050565b82818337600083830152505050565b60005b83811015614b24578082015181840152602081019050614b09565b83811115614b33576000848401525b50505050565b6000614b4482614aed565b91506000821415614b5857614b57614c0f565b5b600182039050919050565b60006002820490506001821680614b7b57607f821691505b60208210811415614b8f57614b8e614c3e565b5b50919050565b614b9e82614cdf565b810181811067ffffffffffffffff82111715614bbd57614bbc614c9c565b5b80604052505050565b6000614bd182614aed565b91507fffffffffffffffffffffffffffffffffffffffffffffffffffffffffffffffff821415614c0457614c03614c0f565b5b600182019050919050565b7f4e487b7100000000000000000000000000000000000000000000000000000000600052601160045260246000fd5b7f4e487b7100000000000000000000000000000000000000000000000000000000600052602260045260246000fd5b7f4e487b7100000000000000000000000000000000000000000000000000000000600052603260045260246000fd5b7f4e487b7100000000000000000000000000000000000000000000000000000000600052604160045260246000fd5b600080fd5b600080fd5b600080fd5b600080fd5b6000601f19601f8301169050919050565b7f736520686120657863656469646f20656c206e756d65726f206d6178696d6f2060008201527f6465206372656469746f00000000000000000000000000000000000000000000602082015250565b7f456c2061646472657373206e6f20707565646520657374617220766163696f00600082015250565b7f536f6c6f207065726d697469646f206120616c756d6e6f73206e6f206d61747260008201527f6963756c61646f73000000000000000000000000000000000000000000000000602082015250565b7f456c206e6f6d627265206e6f2070756564652073657220766163696f00000000600082015250565b7f536f6c6f207065726d697469646f206120616c756d6e6f73206d61747269637560008201527f6c61646f73000000000000000000000000000000000000000000000000000000602082015250565b7f6c612072657365727661206573206465206f74726f20616c756d6e6f00000000600082015250565b7f456c206e6f6d627265206465206c612061736967206e6f20707565646520736560008201527f7220766163696f00000000000000000000000000000000000000000000000000602082015250565b7f4e6f207365207065726d697465206c6120726563657063696f6e20646520646960008201527f6e65726f2e000000000000000000000000000000000000000000000000000000602082015250565b7f536f6c6f207065726d697469646f20612070726f666573206e6f20726567697360008201527f747261646f730000000000000000000000000000000000000000000000000000602082015250565b7f456c206e6f6d6272652064656c206c6162206e6f20707565646520736572207660008201527f6163696f00000000000000000000000000000000000000000000000000000000602082015250565b7f536f6c6f207065726d697469646f2061207475726e6f7320717565206e6f206560008201527f7374656e2072657365727661646f730000000000000000000000000000000000602082015250565b7f536f6c6f207065726d697469646f206120706572736f6e6173206e6f2072656760008201527f6973747261646f73000000000000000000000000000000000000000000000000602082015250565b7f5475726e6f20696e76616c69646f000000000000000000000000000000000000600082015250565b7f456c206e6f6d627265206465206c61207475726e6f206e6f207075656465206560008201527f7374617220766163696f00000000000000000000000000000000000000000000602082015250565b7f536f6c6f207065726d697469646f20616c206f776e6572000000000000000000600082015250565b6150dc81614aaf565b81146150e757600080fd5b50565b6150f381614aed565b81146150fe57600080fd5b5056fea2646970667358221220c5c9fd88e68aa920a9556567efb39b48b707b19a88b3e91927fd2e1aa2627a7f64736f6c63430008070033",
  "immutableReferences": {},
  "source": "    \r\n    \r\n    \r\npragma solidity ^0.8.7;\r\n//pragma experimental ABIEncoderV2;//enabled when passing an array of string(struct) as a function paramete\r\n\r\n\r\n/*\r\n*falta : \r\n*crear lo de las asignaturas con los laborarios y puestos a los que perteneces y las caracteristicas que desepean cada puesto \r\n*crear las reservas , se va a reservar por semana un puesto de un determinado laboratorio \r\n*/\r\n\r\n\r\ncontract ReslabEtsit {\r\n    \r\n   \r\n    /**\r\n     * address del profesor que ha desplegado el contrato.\r\n     * El contrato lo despliega el profesor.\r\n     */\r\n    address public owner;\r\n    address public profesor;\r\n     \r\n    \r\n \r\n\r\n    \r\n    \r\n   \r\n   // enum Horario { turnom ,turnot}//poenr horas y turnos en enum???? array de horas \r\n    \r\n    struct DatosPuesto {\r\n\r\n\r\n    \r\n\tstring nombre;\r\n\t\r\n\tuint indexlab;\r\n\r\n       \r\n    }\r\n    \r\n    \r\n    struct DatosTurno{\r\n        string nombre;\r\n        uint fecha;\r\n      \r\n    }\r\n    \r\n    \r\n   \r\n   \r\n   \r\n    /**\r\n    * datos de todos los labs con sus parametro en la pantalla de inicio\r\n    * DUDA -> QUIERO PONERARRAY DE STRING DE ASIGNATURA!!\r\n    **/\r\n    struct DatosLaboratorio {\r\n        uint laboratorioindex;\r\n        \r\n        string nombreL;\r\n        string asignaura;\r\n        string info;\r\n        \r\n        //string[] asignaturaL;\r\n       \r\n    }\r\n\r\n\r\n\r\n\r\n    \r\n    \r\n    /**\r\n    * datos del alumno que se registra \r\n    **/\r\n   // datos persona \r\n    struct DatosPersona {\r\n\taddress dir;\r\n    }\r\n\r\n    /// Datos de un alumno.\r\n    struct DatosAlumno {\r\n        string nombre;\r\n        string email;\r\n        \r\n    }\r\n    \r\n    /**\r\n     * Datos profe que se registra \r\n     * */\r\n     \r\n    \r\n    struct DatosProfesor{\r\n        string nombreP;\r\n        string emailP;\r\n        string asignaturaP;\r\n        string departamentoP;\r\n    }\r\n    \r\n    \r\n\r\n\r\n\r\n\r\n\r\n    \r\n    struct DatosAsignatura{\r\n        string nombre;\r\n       \r\n        uint indexLab;\r\n        string info;\r\n        \r\n        \r\n    }\r\n    \r\n    \r\n\r\n    struct CreditoDiario {\r\n        uint creditoDiario;\r\n    }\r\n    \r\n    \r\n    /**\r\n     * \r\n\r\n     si esta reservado por un alumno\r\n     * */\r\n     \r\n     struct DatosReserva{\r\n         address dirAlumno;\r\n      \r\n     }\r\n     \r\n     /**\r\n      * Datos de mireserva //FALTA PUESTO\r\n      * */\r\n      \r\n      struct ReservaAlumno{\r\n          string lab;\r\n          uint fecha;\r\n          uint estado;\r\n          //string puesto;\r\n\r\n      }\r\n      \r\n      // acceder a los datos de una persona dada su direccion\r\n    mapping (address => DatosPersona) public datosPersona;\r\n    \r\n    /// Acceder a los datos de un alumno dada su direccion.\r\n    mapping (address => DatosAlumno) public datosAlumno;\r\n    \r\n      /// Acceder a los datos de un profe dada su direccion.\r\n    mapping (address => DatosProfesor) public datosProfesor;\r\n    \r\n    mapping (address => DatosAsignatura)  datosAsignatura;\r\n    \r\n    \r\n    mapping (address => DatosLaboratorio)  datosLaboratorio;\r\n\r\n    mapping (address => DatosTurno)  datosTurno;\r\n\r\n    //mapping(uint => Laboratorio) public labPuestos; //acceder a los puestos del lab dada la info del lab\r\n  \r\n   // mapping (address => DatosPuesto)  datosPuesto;\r\n    \r\n    // Array con las direcciones de los alumnos matriculados.\r\n    address[] public matriculas;\r\n    \r\n    \r\n    //array con las direcciones de los profes registrados \r\n    address[] public profesRegistrados;\r\n    \r\n        // Array con las direcciones de las personas registradas.\r\n    address[] public registradosP;\r\n\r\n    \r\n    //Array credito semanal \r\n    //address [] public creditosemanal;\r\n    \r\n   //array con las direcciones de las asignaturas registradas \r\n   address[] public asignaturasRegistradasdir;\r\n\r\n    DatosAsignatura[] public asignaturasRegistradas;\r\n    \r\n    \r\n    // labs en la escuela\r\n    DatosLaboratorio[] public laboratoriosRegistrados;\r\n    //reservas de la escuela\r\n\r\n    // puestos en la escuela\r\n    DatosPuesto[] public puestosRegistrados;\r\n    \r\n \r\n\r\n    // array turnos de los puestos\r\n\r\n    DatosTurno[] public turnosRegistrados;\r\n        \r\n   \r\n\r\n     //reserva para un usuario \r\n  \r\n    mapping (address => ReservaAlumno) public reservasAlumno;\r\n    \r\n    \r\n    //turno de la escuela\r\n\r\n    //mapping (string => mapping (string  => uint[] )) public turnos;\r\n    \r\n    // Mapping para evitar duplicados de turnos devuelve un bool\r\n    //dado un puesto y una fecha  y un (turno) te devuelve un booleano \r\n    mapping (uint => mapping  ( uint => mapping ( uint => bool )))  turnos_existentes;\r\n    \r\n    /// Devuelve las direcciones de las personas que han asistido a algun lab en alguna de las fechas y en algun turno.\r\n    mapping (string => mapping (string => mapping (uint => address[] ))) public personas;\r\n   \r\n    /// Devuelve las Direcciones de las personas que han asistido a algun lab y en alguna de las fechas.\r\n    mapping (string => mapping (string => address[] )) public personasTotales;\r\n\r\n    // devuelve los puestos totales qu tienes los labs???????????????como lo hago  lo que quiero es haya los puestos totales que tiene cada laboratorio??????\r\n\r\n    mapping(string => string[]) public puestosTotales;\r\n    \r\n\r\n\r\n\r\n\r\n    //IMPORTANTEEEEEEEEEEEE!\r\n    // devuelve array con los indices de los puestos y la clave es un array de enteros laboratorio \r\n    mapping (uint=> uint[]) public puestos;\r\n\r\n\r\n\r\n    //dado la fecha, entrada turno y el el indice de laboratorio quiero que devuelva un array con el numero de puestos\r\n    mapping (string => mapping (uint => mapping (uint => uint[]))) public puestosBuscados;\r\n\r\n    \r\n    //dado el numero lab, fecha (numero de milisegundos) , dado turno ( todos los turnos que hay en un puesto en un dia), te devuelva la reserva\r\n  //  mapping( uint =>mapping (uint=> mapping (uint=> DatosReserva ))) public puestosReservados;\r\n\r\n\r\n    \r\n    //dado el numero puesto, turno (numero de milisegundos) ,  te devuelva la reserva\r\n   mapping( uint =>mapping (uint=> DatosReserva )) public datosReserva;\r\n\r\n\r\n   //\r\n    //dado el numero lab, de un puesto, fecha (numero de milisegundos) ,  y turno te devuelva la reserva\r\n\r\n     mapping( uint =>mapping (uint=> mapping (uint=> mapping (uint=> DatosReserva )))) public datosReservaPorLabPuestoFechaTurno;\r\n\r\n     //dado el numero lab, de un puesto,  y turno te devuelva la reserva\r\n\r\n     mapping( uint =>mapping (uint=>  mapping (uint=> DatosReserva ))) public datosReservaPorLabPuestoTurno;\r\n\r\n\r\n\r\n     // dado la direcion de un alumno , una asignatura y un dia  te da un contador de reservas que lleva\r\n\r\n     mapping( address=>mapping (string=>mapping (uint => uint)))  public contadorCredito;\r\n\r\n     //dada un alumno y un array de puestos devolver true si la reserva tiene el puesto y el alumnos --PARTE MIS COSAS\r\n\r\n     mapping( address =>mapping  (uint => bool )) public Misreservas;\r\n\r\n\r\n\r\n     \r\n\r\n\r\n\r\n    //te devuelve array de puestos reservados tal lab y tal fecha \r\n    //mapping( uint =>mapping (uint=> DatosPuesto[] )) public puestosReservadosLab;\r\n\r\n    //dado el indice de laboratorio un array de los indices de los puestos que estan en ese laboratorio \r\n    mapping(uint=> uint[]) public puestosDelLaboratorio;\r\n\r\n\r\n    //dado el indice de laboratorio y la fecha te devuelva los indices de los puestos que estan en ese laboratorio \r\n    mapping(uint=> mapping( uint => uint[])) public puestosDelLaboratorioFecha;\r\n\r\n\r\n    //dado el indice de una asignatura te devuelve el indice de un lab \r\n    mapping(uint => uint) public indiceLabPorAsignatura;\r\n\r\n    //dado una fecha y un lab cree una rray de puestos \r\n\r\n    mapping(uint=> mapping( uint => DatosPuesto[])) public arrayPuestosDelLab;\r\n\r\n\r\n    //dado el index de un puesto registrado \r\n    //dada la fecha ( string en formaro YYYYYMMD??????\r\n    // dado la hora del turno (de 0 a 23) \r\n    //devuelve el address del alumnos que ha reservado el turno\r\n    mapping(uint => mapping(uint => mapping (uint=> address))) reservasDelAlumno;\r\n\r\n\r\n       /// Dado el index de un puesto y una fecha te devuelve los turnos de un lab .\r\n    mapping (uint => mapping (uint  => uint[] )) public turnosPorPuesto;\r\n\r\n    \r\n    \r\n    \r\n    \r\n    /*\r\n     * Constructor.\r\n     * \r\n     * @param _nombre Nombre de la asignatura.\r\n     * //habria qu eponer nombre puesto /lab /alumno etc \r\n    \r\n     */\r\n    /*constructor(string memory _nombre) {\r\n        \r\n        bytes memory bn = bytes(_nombre);\r\n        require(bn.length != 0, \"El nombre de la asignatura no puede ser vacio\");\r\n       \r\n       \r\n      \r\n        owner = msg.sender;\r\n        nombre = _nombre;\r\n        \r\n        \r\n     \r\n        \r\n    }*/\r\n    \r\n    constructor()  {\r\n        owner = msg.sender;\r\n    } //?????????????????????????????????\r\n\r\n    \r\n    \r\n    \r\n    \r\n    \r\n/**\r\n     * Te devuelve el numero de puestos registrados\r\n     *\r\n     * @return El numero de puestos creadas.\r\n     */\r\n    /*function puestosLength() public view returns(uint) {\r\n        return puestosReservadosLab.length;\r\n    }\r\n    \r\n*/\r\n\r\n    // te devuelve la longitud de los puestos que hay en un laboratorio \r\n\r\n    function puestosDelLaboratorioLength(uint _indexlab) public view returns(uint) {\r\n        return puestosDelLaboratorio[_indexlab].length;\r\n\r\n\r\n    }\r\n\r\n\r\n\r\n  /**\r\n     * Te devuelve el numero de turnos\r\n     *\r\n     * @return El numero de turnos creadas.\r\n     */\r\n\r\n    function turnosLength() public view returns(uint) {\r\n        return turnosRegistrados.length;\r\n    }\r\n    \r\n\r\n    //devuelve la longitud del array de los puestos de un laboratorio \r\n    function puestosLaboratorioLength(uint _laboratorioindex) public view returns(uint) {\r\n        return puestos[_laboratorioindex].length;\r\n    }\r\n    \r\n    \r\n     /**\r\n     * El numero de labs  registrados\r\n     *\r\n     * @return El numero de labs creadas.\r\n     */\r\n    function laboratoriosLength() public view returns(uint) {\r\n        return laboratoriosRegistrados.length;\r\n    }\r\n    \r\n    \r\n    \r\n\r\n\r\n    /**\r\n     * Permite obtener la longitud del array de personasTotales.\r\n     * \r\n     */\r\n    function personasLength(string memory _nombre, string memory _fecha) public view returns(uint) {\r\n\r\n        uint longitud = personasTotales[_fecha][_nombre].length;\r\n\r\n        if(longitud == 0){\r\n        longitud = 1;\r\n\t    }\r\n\r\n  \t    return longitud;\r\n\r\n    }\r\n\r\n\r\n\r\n      /**\r\n     * Permite obtener la longitud del array de puestosTotale del lab\r\n     * \r\n     */\r\n    function puestosLength2(string memory _nombre) public view returns(uint) {\r\n\r\n        uint longitud2 = puestosTotales[_nombre].length;\r\n\r\n        if(longitud2 == 0){\r\n        longitud2 = 1;\r\n\t    }\r\n\r\n  \t    return longitud2;\r\n\r\n    }\r\n\r\n\r\n\r\n    /**\r\n     * Permite obtener un address del array de personas.\r\n     * \r\n     */\r\n    function dirPersonas(string memory _nombre, string memory _fecha, uint _indice) public view returns(address) {\r\n\r\n        if(personasTotales[_fecha][_nombre].length > 0){\r\n\r\n        address _dirUno = personasTotales[_fecha][_nombre][_indice];\r\n        return _dirUno;\r\n\r\n        }else{\r\n        return msg.sender;\r\n\t    }\t\t\t\r\n\t\r\n    }\r\n    \r\n    /**\r\n     * Obtiene los datos de un alumno que ha reservado.\r\n     * \r\n  \r\n     */\r\n    function obtenerDatosAlumno(address _alumno)  public view returns(address) {\r\n\t\r\n        \r\n        if(!estaReservado(_alumno)){\r\n        return address(0);\r\n        } else{\t\r\n        return datosPersona[_alumno].dir;\r\n\t}\r\n\t\r\n        \r\n        \r\n    } \r\n\r\n\r\n    //puestos que hay en un lab. Coger el array que te da el mapping de puestos y devolver su .length\r\n\r\n    function puestosdeLaboratorio(uint _laboratorioindex) public view returns(uint) {\r\n\r\n        return puestos[_laboratorioindex].length;\r\n    }\r\n    \r\n\r\n\r\n     // puestos que hay en un lab segun la fecha, la entrada \r\n    function BuscaPuestoLab( string  memory _fecha, uint _entradaTurno,uint _laboratorioindex) public view returns(uint) {\r\n\r\n        return puestosBuscados[_fecha][_entradaTurno][_laboratorioindex].length;\r\n    }\r\n\r\n\r\n\r\n\r\n \r\n\r\n\r\n\r\n    /** Un alumno crea una reserva \r\n    */\r\n\r\n    \r\n    \r\n    \r\n\r\n        function guardarReserva(uint  _puestoId, uint  _fecha,  uint _turno, string memory _asignatura)  public {\r\n        \r\n\t\r\n       \r\n            require(estaMatriculado(msg.sender),\"Solo permitido a alumnos no matriculados\");\r\n            require(_turno<24, \"Turno invalido\");\r\n            require(!estaReservado(msg.sender),\"Solo permitido a turnos que no esten reservados\");\r\n            require(contadorCredito[msg.sender][_asignatura][_fecha]<3, \"se ha excedido el numero maximo de credito\");\r\n\r\n     \r\n           // contadorCredito[msg.sender][_asignatura][_fecha]=0;\r\n\r\n            DatosReserva memory reserva = DatosReserva(msg.sender);\r\n            \r\n\r\n            datosReservaPorLabPuestoTurno[_puestoId][_fecha][_turno]= reserva;\r\n            contadorCredito[msg.sender][_asignatura][_fecha]++;\r\n            \r\n\r\n\r\n        }\r\n\r\n        \r\n    /** Un alumno quita su reserva - ( solo profe , owner y el propio alumnos \r\n    */\r\n\r\n\r\n       function quitarReserva(uint  _puestoId, uint  _fecha,  uint _turno,  string memory _asignatura) public {\r\n        \r\n\t\r\n       \r\n\r\n            require(estaMatriculado(msg.sender),\"Solo permitido a alumnos no matriculados\");\r\n            require(_turno<24, \"Turno invalido\");\r\n           // require(estaReservado(msg.sender),\"Solo permitido a turnos que  esten reservados\");\r\n            require(datosReservaPorLabPuestoTurno[_puestoId][_fecha][_turno].dirAlumno==msg.sender, \"la reserva es de otro alumno\");\r\n            \r\n\r\n         datosReservaPorLabPuestoTurno[_puestoId][_fecha][_turno]= DatosReserva(address(0x0));\r\n            contadorCredito[msg.sender][_asignatura][_fecha]--;\r\n\r\n        }\r\n     \r\n  \r\n    \r\n\r\n\r\n\r\n\r\n\r\n\r\n\r\n\r\n\r\n\r\n\r\n\r\n\r\n    \r\n    \r\n\r\n    \r\n    \r\n    \r\n    \r\n        \r\n     //te crea un laboratorio \r\n\r\n    function creaLaboratorio( uint  _laboratorioindex,string memory _nombreL,string memory _asignaura,string memory _Info) soloOwner public returns (uint) {\r\n        \r\n        bytes memory bn = bytes(_nombreL);\r\n        require(bn.length != 0, \"El nombre del lab no puede ser vacio\");\r\n        \r\n        laboratoriosRegistrados.push(DatosLaboratorio(_laboratorioindex,_nombreL,_asignaura,_Info));\r\n        return laboratoriosRegistrados.length - 1;\r\n    }\r\n    \r\n     // te rea una asignatura \r\n\r\n    function creaAsignatura( string memory _nombreAsig, uint _indexLab,string memory _Info)  soloOwner public returns (uint) {\r\n        \r\n        bytes memory bn = bytes(_nombreAsig);\r\n        require(bn.length != 0, \"El nombre de la asig no puede ser vacio\");\r\n        \r\n       asignaturasRegistradas.push(DatosAsignatura(_nombreAsig,_indexLab,_Info));\r\n        return asignaturasRegistradas.length - 1;\r\n    }\r\n    \r\n    \r\n    \r\n    \r\n    //te crea un puesto \r\n\r\n    function creaPuesto(string memory _NombreP,uint  _indexlab) soloOwner public returns (uint) {\r\n        \r\n        bytes memory bn = bytes(_NombreP);\r\n        require(bn.length != 0, \"El nombre del lab no puede ser vacio\");\r\n        \r\n        puestosRegistrados.push(DatosPuesto(_NombreP,_indexlab));\r\n        uint id = puestosRegistrados.length -1;\r\n\r\n        puestosDelLaboratorio[_indexlab].push(id);\r\n\r\n        return id;\r\n    \r\n    }   \r\n\r\n\r\n    //te crea un turno de laboratorio \r\n\r\n    function creaTurno(string memory _nombre, uint _fecha) soloOwner public returns (uint) {\r\n    \r\n    bytes memory bn = bytes(_nombre);\r\n    require(bn.length != 0, \"El nombre de la turno no puede estar vacio\");\r\n    \r\n    turnosRegistrados.push(DatosTurno(_nombre, _fecha));\r\n    return turnosRegistrados.length - 1;\r\n} \r\n    \r\n \r\n     /**\r\n     * El numero de alumnos matriculados.\r\n     *\r\n     * @return El numero de alumnos matriculados.\r\n     */\r\n    function matriculasLength() public view returns(uint) {\r\n        return matriculas.length;\r\n    }\r\n    \r\n    \r\n    \r\n      /**\r\n     * El numero de profes registrados.\r\n     *\r\n     * .\r\n     */\r\n    function profesRegistradosLength() public view returns(uint) {\r\n        return profesRegistrados.length;\r\n    }\r\n    \r\n    \r\n       /**\r\n     * El numero de asignaturas registrados.\r\n     *\r\n     * .\r\n     */\r\n    function asignaturasRegistradasLength() public view returns(uint) {\r\n        return asignaturasRegistradas.length;\r\n    }\r\n    \r\n    \r\n    \r\n    \r\n    \r\n      /**\r\n     * numero de credito semanal \r\n     *\r\n     * @return El numero de credito semanal \r\n     * \r\n     */\r\n     /*function creditosemanalLength() public view returns(uint) {\r\n        return creditosemanal.length;\r\n    }???????????????????????????*/\r\n     \r\n    \r\n    \r\n    \r\n    \r\n    /**\r\n     * Los alumnos pueden automatricularse con el metodo automatricula.\r\n     * \r\n     * Impedir que se pueda meter un nombre vacio.\r\n     *\r\n     * @param _nombre El nombre del alumno. \r\n     * @param _email  El email del alumno.\r\n     */\r\n    function automatricula(string memory _nombre, string memory _email) noMatriculados public {\r\n        //revert(\"siempre falla\");\r\n        bytes memory b = bytes(_nombre);\r\n        require(b.length != 0, \"El nombre no puede ser vacio\");\r\n        \r\n        DatosAlumno memory datos = DatosAlumno(_nombre, _email);\r\n        \r\n        datosAlumno[msg.sender] = datos;\r\n        \r\n        matriculas.push(msg.sender);\r\n        \r\n    }\r\n    \r\n    \r\n    function autoregistroP() noRegistradosP public {\r\n    \r\n        require(msg.sender!=address(0), \"El address no puede estar vacio\");\r\n        \r\n        datosPersona[msg.sender] = DatosPersona(msg.sender);\r\n        \r\n        registradosP.push(msg.sender);\r\n    \r\n    }\r\n    \r\n    \r\n  \r\n    function autoRegistro(string memory _nombreP, string memory _emailP,string memory _asignaturaP,string memory _departamentoP ) noRegistrados public {\r\n        \r\n        bytes memory b = bytes(_nombreP);\r\n        require(b.length != 0, \"El nombre no puede ser vacio\");\r\n        \r\n        DatosProfesor memory datosP = DatosProfesor(_nombreP, _emailP,_asignaturaP,_departamentoP);\r\n        \r\n        datosProfesor[msg.sender] = datosP;\r\n        \r\n       profesRegistrados.push(msg.sender);\r\n        \r\n    }\r\n    \r\n\r\n\r\n\r\n    \r\n    \r\n    \r\n    \r\n    \r\n    \r\n    \r\n    \r\n    \r\n    \r\n    /**\r\n     * Permite a un alumno obtener sus propios datos.\r\n     * \r\n     * @return _nombre El nombre del alumno que invoca el metodo.\r\n     * @return _email  El email del alumno que invoca el metodo.\r\n     */\r\n    function quienSoy() soloMatriculados public view returns (string memory _nombre, string memory _email) {\r\n        DatosAlumno memory datos = datosAlumno[msg.sender];\r\n        _nombre = datos.nombre;\r\n        _email = datos.email;\r\n    }\r\n    \r\n\r\n    /**\r\n     * Permite a un profe obtener sus propios datos.\r\n     * \r\n     * \r\n    \r\n    function quienSoyP() soloRegistrados public view returns (string memory _nombreP, string memory _emailP,string memory _asignaturaP,string memory _departamentoP) {\r\n        DatosProfesor memory datosP = datosProfesor[msg.sender];\r\n        _nombreP = datosP.nombreP;\r\n        _emailP = datosP.emailP;\r\n        _departamentoP = datosP.departamentoP;\r\n        _asignaturaP = datosP.asignaturaP;\r\n    }\r\n    \r\n      \r\n       /**\r\n     * ddevuelve el lab reservado por el alumno, turno y puesto\r\n     * \r\n    \r\n     * \r\n     \r\n     */ \r\n\r\n      function miReserva()  soloMatriculados public view returns (string memory lab) {\r\n        \r\n        DatosLaboratorio  memory nombrelab = datosLaboratorio[msg.sender];\r\n        \r\n       \r\n        lab = nombrelab.nombreL;\r\n       \r\n        \r\n    }\r\n    \r\n\r\n    \r\n    \r\n    /**\r\n     * Consulta si una direccion pertenece a un alumno matriculado.\r\n     * \r\n     * @param alumno La direccion de un alumno.\r\n     * \r\n     * @return true si es una alumno matriculado.\r\n     */\r\n    function estaMatriculado(address alumno) private view returns (bool) {\r\n      \r\n        string memory _nombre = datosAlumno[alumno].nombre;\r\n        \r\n        bytes memory b = bytes(_nombre);\r\n        \r\n        return b.length != 0;\r\n    } \r\n\r\n       /**\r\n     * Consulta si un turno pertenece a un alumno matriculado.\r\n     * \r\n     * @param alumno La direccion de un alumno.\r\n     * \r\n     * @return true si es una alumno matriculado.\r\n     */\r\n\r\n\r\n       function estaReservado(address alumno) private view returns (bool) {\r\n      \r\n        string memory _nombre = datosTurno[alumno].nombre;\r\n        \r\n        bytes memory b = bytes(_nombre);\r\n        \r\n        return b.length != 0;\r\n    }\r\n    \r\n\r\n\r\n     /**\r\n     * Consulta si una direccion pertenece a un profe registrado.\r\n     * \r\n     * \r\n     */\r\n    \r\n       function estaRegistrado(address _profesor) private view returns (bool) {\r\n      \r\n        string memory _nombreP = datosProfesor[_profesor].nombreP;\r\n        \r\n        bytes memory b = bytes(_nombreP);\r\n        \r\n        return b.length != 0;\r\n    }\r\n\r\n\r\n    \r\n    function estaRegistradoP(address persona) public view returns (bool) {\r\n\r\n\taddress _dir = datosPersona[persona].dir;\r\n        return _dir!=address(0);\r\n    } \r\n    \r\n    \r\n\r\n   \r\n\r\n\r\n\r\n\r\n           /**\r\n     * Modificador para que una funcion solo la pueda ejecutar el profesor.\r\n     * \r\n     *\r\n     */\r\n\r\n    modifier soloOwner() {\r\n        \r\n        require(msg.sender == owner, \"Solo permitido al owner\");\r\n        _;\r\n    }\r\n    \r\n    \r\n    /**\r\n     * Modificador para que una funcion solo la pueda ejecutar el profesor.\r\n     * \r\n     *\r\n     */\r\n    modifier soloProfesor() {\r\n        \r\n        require(msg.sender == profesor, \"Solo permitido al profesor\");\r\n        _;\r\n    }\r\n    \r\n    \r\n    /**\r\n     * Modificador para que una funcion solo la pueda ejecutar un alumno matriculado.\r\n     */\r\n    modifier soloMatriculados() {\r\n        \r\n        require(estaMatriculado(msg.sender), \"Solo permitido a alumnos matriculados\");\r\n        _;\r\n    }\r\n    \r\n    \r\n      modifier soloRegistrados() {\r\n        \r\n        require(estaRegistrado(msg.sender), \"Solo permitido a profes registrados\");\r\n        _;\r\n    }\r\n    \r\n    \r\n \r\n    /**\r\n     * Modificador para que una funcion solo la pueda ejecutar un alumno no matriculado aun.\r\n     */\r\n    modifier noMatriculados() {\r\n        \r\n        require(!estaMatriculado(msg.sender), \"Solo permitido a alumnos no matriculados\");\r\n        _;\r\n    }\r\n    \r\n    \r\n    \r\n      modifier noRegistrados() {\r\n        \r\n        require(!estaRegistrado(msg.sender), \"Solo permitido a profes no registrados\");\r\n        _;\r\n    }\r\n    \r\n        \r\n      modifier noRegistradosP() {\r\n        \r\n        require(!estaRegistradoP(msg.sender), \"Solo permitido a personas no registrados\");\r\n        _;\r\n    }\r\n    \r\n    \r\n       receive() external payable {\r\n        revert(\"No se permite la recepcion de dinero.\");\r\n    }\r\n}\r\n",
  "sourcePath": "C:\\Users\\Paula Huertas\\reslabetsit\\contracts\\ReslabEtsit.sol",
  "compiler": {
    "name": "solc",
    "version": "0.8.7+commit.e28d00a7.Emscripten.clang"
  },
  "schemaVersion": "3.4.7",
  "updatedAt": "2022-11-20T21:40:11.365Z",
  "networkType": "ethereum",
  "devdoc": {
    "kind": "dev",
    "methods": {
      "automatricula(string,string)": {
        "params": {
          "_email": "El email del alumno.",
          "_nombre": "El nombre del alumno. "
        }
      },
      "laboratoriosLength()": {
        "returns": {
          "_0": "El numero de labs creadas."
        }
      },
      "matriculasLength()": {
        "returns": {
          "_0": "El numero de alumnos matriculados."
        }
      },
      "puestosDelLaboratorioLength(uint256)": {
        "returns": {
          "_0": "El numero de puestos creadas."
        }
      },
      "quienSoy()": {
        "returns": {
          "_email": " El email del alumno que invoca el metodo.",
          "_nombre": "El nombre del alumno que invoca el metodo."
        }
      },
      "turnosLength()": {
        "returns": {
          "_0": "El numero de turnos creadas."
        }
      }
    },
    "version": 1
  },
  "userdoc": {
    "kind": "user",
    "methods": {
      "asignaturasRegistradasLength()": {
        "notice": "El numero de asignaturas registrados. ."
      },
      "automatricula(string,string)": {
        "notice": "Los alumnos pueden automatricularse con el metodo automatricula.  Impedir que se pueda meter un nombre vacio."
      },
      "datosAlumno(address)": {
        "notice": "Acceder a los datos de un alumno dada su direccion."
      },
      "datosProfesor(address)": {
        "notice": "Acceder a los datos de un profe dada su direccion."
      },
      "dirPersonas(string,string,uint256)": {
        "notice": "Permite obtener un address del array de personas. "
      },
      "guardarReserva(uint256,uint256,uint256,string)": {
        "notice": "Un alumno crea una reserva "
      },
      "laboratoriosLength()": {
        "notice": "El numero de labs  registrados"
      },
      "matriculasLength()": {
        "notice": "El numero de alumnos matriculados."
      },
      "miReserva()": {
        "notice": "Permite a un profe obtener sus propios datos.   function quienSoyP() soloRegistrados public view returns (string memory _nombreP, string memory _emailP,string memory _asignaturaP,string memory _departamentoP) { DatosProfesor memory datosP = datosProfesor[msg.sender]; _nombreP = datosP.nombreP; _emailP = datosP.emailP; _departamentoP = datosP.departamentoP; _asignaturaP = datosP.asignaturaP; } /** ddevuelve el lab reservado por el alumno, turno y puesto  "
      },
      "obtenerDatosAlumno(address)": {
        "notice": "Obtiene los datos de un alumno que ha reservado. "
      },
      "owner()": {
        "notice": "address del profesor que ha desplegado el contrato. El contrato lo despliega el profesor."
      },
      "personas(string,string,uint256,uint256)": {
        "notice": "Devuelve las direcciones de las personas que han asistido a algun lab en alguna de las fechas y en algun turno."
      },
      "personasLength(string,string)": {
        "notice": "Permite obtener la longitud del array de personasTotales. "
      },
      "personasTotales(string,string,uint256)": {
        "notice": "Devuelve las Direcciones de las personas que han asistido a algun lab y en alguna de las fechas."
      },
      "profesRegistradosLength()": {
        "notice": "El numero de profes registrados. ."
      },
      "puestosDelLaboratorioLength(uint256)": {
        "notice": "Te devuelve el numero de puestos registrados"
      },
      "puestosLength2(string)": {
        "notice": "Permite obtener la longitud del array de puestosTotale del lab "
      },
      "quienSoy()": {
        "notice": "Permite a un alumno obtener sus propios datos. "
      },
      "quitarReserva(uint256,uint256,uint256,string)": {
        "notice": "Un alumno quita su reserva - ( solo profe , owner y el propio alumnos "
      },
      "turnosLength()": {
        "notice": "Te devuelve el numero de turnos"
      },
      "turnosPorPuesto(uint256,uint256,uint256)": {
        "notice": "Dado el index de un puesto y una fecha te devuelve los turnos de un lab ."
      }
    },
    "version": 1
  }
}