{
  "contractName": "ReslabEtsit",
  "abi": [
    {
      "inputs": [],
      "stateMutability": "nonpayable",
      "type": "constructor"
    },
    {
      "inputs": [
        {
          "internalType": "uint256",
          "name": "",
          "type": "uint256"
        },
        {
          "internalType": "uint256",
          "name": "",
          "type": "uint256"
        },
        {
          "internalType": "uint256",
          "name": "",
          "type": "uint256"
        }
      ],
      "name": "arrayPuestosDelLab",
      "outputs": [
        {
          "internalType": "string",
          "name": "nombre",
          "type": "string"
        },
        {
          "internalType": "uint256",
          "name": "indexlab",
          "type": "uint256"
        }
      ],
      "stateMutability": "view",
      "type": "function",
      "constant": true
    },
    {
      "inputs": [
        {
          "internalType": "uint256",
          "name": "",
          "type": "uint256"
        }
      ],
      "name": "asignaturasRegistradas",
      "outputs": [
        {
          "internalType": "string",
          "name": "nombre",
          "type": "string"
        },
        {
          "internalType": "string",
          "name": "laboratorio",
          "type": "string"
        },
        {
          "internalType": "string",
          "name": "info",
          "type": "string"
        }
      ],
      "stateMutability": "view",
      "type": "function",
      "constant": true
    },
    {
      "inputs": [
        {
          "internalType": "uint256",
          "name": "",
          "type": "uint256"
        }
      ],
      "name": "asignaturasRegistradasdir",
      "outputs": [
        {
          "internalType": "address",
          "name": "",
          "type": "address"
        }
      ],
      "stateMutability": "view",
      "type": "function",
      "constant": true
    },
    {
      "inputs": [
        {
          "internalType": "uint256",
          "name": "",
          "type": "uint256"
        }
      ],
      "name": "creditosemanal",
      "outputs": [
        {
          "internalType": "address",
          "name": "",
          "type": "address"
        }
      ],
      "stateMutability": "view",
      "type": "function",
      "constant": true
    },
    {
      "inputs": [
        {
          "internalType": "address",
          "name": "",
          "type": "address"
        }
      ],
      "name": "datosAlumno",
      "outputs": [
        {
          "internalType": "string",
          "name": "nombre",
          "type": "string"
        },
        {
          "internalType": "string",
          "name": "email",
          "type": "string"
        }
      ],
      "stateMutability": "view",
      "type": "function",
      "constant": true
    },
    {
      "inputs": [
        {
          "internalType": "address",
          "name": "",
          "type": "address"
        }
      ],
      "name": "datosPersona",
      "outputs": [
        {
          "internalType": "address",
          "name": "dir",
          "type": "address"
        }
      ],
      "stateMutability": "view",
      "type": "function",
      "constant": true
    },
    {
      "inputs": [
        {
          "internalType": "address",
          "name": "",
          "type": "address"
        }
      ],
      "name": "datosProfesor",
      "outputs": [
        {
          "internalType": "string",
          "name": "nombreP",
          "type": "string"
        },
        {
          "internalType": "string",
          "name": "emailP",
          "type": "string"
        },
        {
          "internalType": "string",
          "name": "asignaturaP",
          "type": "string"
        },
        {
          "internalType": "string",
          "name": "departamentoP",
          "type": "string"
        }
      ],
      "stateMutability": "view",
      "type": "function",
      "constant": true
    },
    {
      "inputs": [
        {
          "internalType": "uint256",
          "name": "",
          "type": "uint256"
        },
        {
          "internalType": "uint256",
          "name": "",
          "type": "uint256"
        }
      ],
      "name": "datosReserva",
      "outputs": [
        {
          "internalType": "address",
          "name": "dirAlumno",
          "type": "address"
        },
        {
          "internalType": "bool",
          "name": "estaReservado",
          "type": "bool"
        }
      ],
      "stateMutability": "view",
      "type": "function",
      "constant": true
    },
    {
      "inputs": [
        {
          "internalType": "uint256",
          "name": "",
          "type": "uint256"
        },
        {
          "internalType": "uint256",
          "name": "",
          "type": "uint256"
        },
        {
          "internalType": "uint256",
          "name": "",
          "type": "uint256"
        },
        {
          "internalType": "uint256",
          "name": "",
          "type": "uint256"
        }
      ],
      "name": "datosReservaPorLabPuestoFechaTurno",
      "outputs": [
        {
          "internalType": "address",
          "name": "dirAlumno",
          "type": "address"
        },
        {
          "internalType": "bool",
          "name": "estaReservado",
          "type": "bool"
        }
      ],
      "stateMutability": "view",
      "type": "function",
      "constant": true
    },
    {
      "inputs": [
        {
          "internalType": "uint256",
          "name": "",
          "type": "uint256"
        },
        {
          "internalType": "uint256",
          "name": "",
          "type": "uint256"
        },
        {
          "internalType": "uint256",
          "name": "",
          "type": "uint256"
        }
      ],
      "name": "datosReservaPorLabPuestoTurno",
      "outputs": [
        {
          "internalType": "address",
          "name": "dirAlumno",
          "type": "address"
        },
        {
          "internalType": "bool",
          "name": "estaReservado",
          "type": "bool"
        }
      ],
      "stateMutability": "view",
      "type": "function",
      "constant": true
    },
    {
      "inputs": [
        {
          "internalType": "uint256",
          "name": "",
          "type": "uint256"
        }
      ],
      "name": "laboratoriosRegistrados",
      "outputs": [
        {
          "internalType": "uint256",
          "name": "laboratorioindex",
          "type": "uint256"
        },
        {
          "internalType": "string",
          "name": "nombreL",
          "type": "string"
        },
        {
          "internalType": "string",
          "name": "asignaura",
          "type": "string"
        },
        {
          "internalType": "string",
          "name": "info",
          "type": "string"
        }
      ],
      "stateMutability": "view",
      "type": "function",
      "constant": true
    },
    {
      "inputs": [
        {
          "internalType": "uint256",
          "name": "",
          "type": "uint256"
        }
      ],
      "name": "matriculas",
      "outputs": [
        {
          "internalType": "address",
          "name": "",
          "type": "address"
        }
      ],
      "stateMutability": "view",
      "type": "function",
      "constant": true
    },
    {
      "inputs": [],
      "name": "owner",
      "outputs": [
        {
          "internalType": "address",
          "name": "",
          "type": "address"
        }
      ],
      "stateMutability": "view",
      "type": "function",
      "constant": true
    },
    {
      "inputs": [
        {
          "internalType": "string",
          "name": "",
          "type": "string"
        },
        {
          "internalType": "string",
          "name": "",
          "type": "string"
        },
        {
          "internalType": "uint256",
          "name": "",
          "type": "uint256"
        },
        {
          "internalType": "uint256",
          "name": "",
          "type": "uint256"
        }
      ],
      "name": "personas",
      "outputs": [
        {
          "internalType": "address",
          "name": "",
          "type": "address"
        }
      ],
      "stateMutability": "view",
      "type": "function",
      "constant": true
    },
    {
      "inputs": [
        {
          "internalType": "string",
          "name": "",
          "type": "string"
        },
        {
          "internalType": "string",
          "name": "",
          "type": "string"
        },
        {
          "internalType": "uint256",
          "name": "",
          "type": "uint256"
        }
      ],
      "name": "personasTotales",
      "outputs": [
        {
          "internalType": "address",
          "name": "",
          "type": "address"
        }
      ],
      "stateMutability": "view",
      "type": "function",
      "constant": true
    },
    {
      "inputs": [
        {
          "internalType": "uint256",
          "name": "",
          "type": "uint256"
        }
      ],
      "name": "profesRegistrados",
      "outputs": [
        {
          "internalType": "address",
          "name": "",
          "type": "address"
        }
      ],
      "stateMutability": "view",
      "type": "function",
      "constant": true
    },
    {
      "inputs": [],
      "name": "profesorP",
      "outputs": [
        {
          "internalType": "address",
          "name": "",
          "type": "address"
        }
      ],
      "stateMutability": "view",
      "type": "function",
      "constant": true
    },
    {
      "inputs": [
        {
          "internalType": "uint256",
          "name": "",
          "type": "uint256"
        },
        {
          "internalType": "uint256",
          "name": "",
          "type": "uint256"
        }
      ],
      "name": "puestos",
      "outputs": [
        {
          "internalType": "uint256",
          "name": "",
          "type": "uint256"
        }
      ],
      "stateMutability": "view",
      "type": "function",
      "constant": true
    },
    {
      "inputs": [
        {
          "internalType": "string",
          "name": "",
          "type": "string"
        },
        {
          "internalType": "uint256",
          "name": "",
          "type": "uint256"
        },
        {
          "internalType": "uint256",
          "name": "",
          "type": "uint256"
        },
        {
          "internalType": "uint256",
          "name": "",
          "type": "uint256"
        }
      ],
      "name": "puestosBuscados",
      "outputs": [
        {
          "internalType": "uint256",
          "name": "",
          "type": "uint256"
        }
      ],
      "stateMutability": "view",
      "type": "function",
      "constant": true
    },
    {
      "inputs": [
        {
          "internalType": "uint256",
          "name": "",
          "type": "uint256"
        },
        {
          "internalType": "uint256",
          "name": "",
          "type": "uint256"
        }
      ],
      "name": "puestosDelLaboratorio",
      "outputs": [
        {
          "internalType": "uint256",
          "name": "",
          "type": "uint256"
        }
      ],
      "stateMutability": "view",
      "type": "function",
      "constant": true
    },
    {
      "inputs": [
        {
          "internalType": "uint256",
          "name": "",
          "type": "uint256"
        },
        {
          "internalType": "uint256",
          "name": "",
          "type": "uint256"
        },
        {
          "internalType": "uint256",
          "name": "",
          "type": "uint256"
        }
      ],
      "name": "puestosDelLaboratorioFecha",
      "outputs": [
        {
          "internalType": "uint256",
          "name": "",
          "type": "uint256"
        }
      ],
      "stateMutability": "view",
      "type": "function",
      "constant": true
    },
    {
      "inputs": [
        {
          "internalType": "uint256",
          "name": "",
          "type": "uint256"
        }
      ],
      "name": "puestosRegistrados",
      "outputs": [
        {
          "internalType": "string",
          "name": "nombre",
          "type": "string"
        },
        {
          "internalType": "uint256",
          "name": "indexlab",
          "type": "uint256"
        }
      ],
      "stateMutability": "view",
      "type": "function",
      "constant": true
    },
    {
      "inputs": [
        {
          "internalType": "string",
          "name": "",
          "type": "string"
        },
        {
          "internalType": "uint256",
          "name": "",
          "type": "uint256"
        }
      ],
      "name": "puestosTotales",
      "outputs": [
        {
          "internalType": "string",
          "name": "",
          "type": "string"
        }
      ],
      "stateMutability": "view",
      "type": "function",
      "constant": true
    },
    {
      "inputs": [
        {
          "internalType": "uint256",
          "name": "",
          "type": "uint256"
        }
      ],
      "name": "registradosP",
      "outputs": [
        {
          "internalType": "address",
          "name": "",
          "type": "address"
        }
      ],
      "stateMutability": "view",
      "type": "function",
      "constant": true
    },
    {
      "inputs": [
        {
          "internalType": "address",
          "name": "",
          "type": "address"
        }
      ],
      "name": "reservasAlumno",
      "outputs": [
        {
          "internalType": "string",
          "name": "lab",
          "type": "string"
        },
        {
          "internalType": "uint256",
          "name": "fecha",
          "type": "uint256"
        },
        {
          "internalType": "uint256",
          "name": "estado",
          "type": "uint256"
        }
      ],
      "stateMutability": "view",
      "type": "function",
      "constant": true
    },
    {
      "inputs": [
        {
          "internalType": "uint256",
          "name": "",
          "type": "uint256"
        },
        {
          "internalType": "uint256",
          "name": "",
          "type": "uint256"
        },
        {
          "internalType": "uint256",
          "name": "",
          "type": "uint256"
        }
      ],
      "name": "turnosPorPuesto",
      "outputs": [
        {
          "internalType": "uint256",
          "name": "",
          "type": "uint256"
        }
      ],
      "stateMutability": "view",
      "type": "function",
      "constant": true
    },
    {
      "inputs": [
        {
          "internalType": "uint256",
          "name": "",
          "type": "uint256"
        }
      ],
      "name": "turnosRegistrados",
      "outputs": [
        {
          "internalType": "string",
          "name": "nombre",
          "type": "string"
        },
        {
          "internalType": "uint256",
          "name": "fecha",
          "type": "uint256"
        }
      ],
      "stateMutability": "view",
      "type": "function",
      "constant": true
    },
    {
      "stateMutability": "payable",
      "type": "receive",
      "payable": true
    },
    {
      "inputs": [
        {
          "internalType": "uint256",
          "name": "_indexlab",
          "type": "uint256"
        }
      ],
      "name": "puestosDelLaboratorioLength",
      "outputs": [
        {
          "internalType": "uint256",
          "name": "",
          "type": "uint256"
        }
      ],
      "stateMutability": "view",
      "type": "function",
      "constant": true
    },
    {
      "inputs": [],
      "name": "turnosLength",
      "outputs": [
        {
          "internalType": "uint256",
          "name": "",
          "type": "uint256"
        }
      ],
      "stateMutability": "view",
      "type": "function",
      "constant": true
    },
    {
      "inputs": [
        {
          "internalType": "uint256",
          "name": "_laboratorioindex",
          "type": "uint256"
        }
      ],
      "name": "puestosLaboratorioLength",
      "outputs": [
        {
          "internalType": "uint256",
          "name": "",
          "type": "uint256"
        }
      ],
      "stateMutability": "view",
      "type": "function",
      "constant": true
    },
    {
      "inputs": [],
      "name": "laboratoriosLength",
      "outputs": [
        {
          "internalType": "uint256",
          "name": "",
          "type": "uint256"
        }
      ],
      "stateMutability": "view",
      "type": "function",
      "constant": true
    },
    {
      "inputs": [
        {
          "internalType": "string",
          "name": "_nombre",
          "type": "string"
        },
        {
          "internalType": "string",
          "name": "_fecha",
          "type": "string"
        }
      ],
      "name": "personasLength",
      "outputs": [
        {
          "internalType": "uint256",
          "name": "",
          "type": "uint256"
        }
      ],
      "stateMutability": "view",
      "type": "function",
      "constant": true
    },
    {
      "inputs": [
        {
          "internalType": "string",
          "name": "_nombre",
          "type": "string"
        }
      ],
      "name": "puestosLength2",
      "outputs": [
        {
          "internalType": "uint256",
          "name": "",
          "type": "uint256"
        }
      ],
      "stateMutability": "view",
      "type": "function",
      "constant": true
    },
    {
      "inputs": [
        {
          "internalType": "string",
          "name": "_nombre",
          "type": "string"
        },
        {
          "internalType": "string",
          "name": "_fecha",
          "type": "string"
        },
        {
          "internalType": "uint256",
          "name": "_indice",
          "type": "uint256"
        }
      ],
      "name": "dirPersonas",
      "outputs": [
        {
          "internalType": "address",
          "name": "",
          "type": "address"
        }
      ],
      "stateMutability": "view",
      "type": "function",
      "constant": true
    },
    {
      "inputs": [
        {
          "internalType": "address",
          "name": "persona",
          "type": "address"
        }
      ],
      "name": "obtenerDatosPersona",
      "outputs": [
        {
          "internalType": "address",
          "name": "",
          "type": "address"
        }
      ],
      "stateMutability": "view",
      "type": "function",
      "constant": true
    },
    {
      "inputs": [
        {
          "internalType": "uint256",
          "name": "_laboratorioindex",
          "type": "uint256"
        }
      ],
      "name": "puestosdeLaboratorio",
      "outputs": [
        {
          "internalType": "uint256",
          "name": "",
          "type": "uint256"
        }
      ],
      "stateMutability": "view",
      "type": "function",
      "constant": true
    },
    {
      "inputs": [
        {
          "internalType": "string",
          "name": "_fecha",
          "type": "string"
        },
        {
          "internalType": "uint256",
          "name": "_entradaTurno",
          "type": "uint256"
        },
        {
          "internalType": "uint256",
          "name": "_laboratorioindex",
          "type": "uint256"
        }
      ],
      "name": "BuscaPuestoLab",
      "outputs": [
        {
          "internalType": "uint256",
          "name": "",
          "type": "uint256"
        }
      ],
      "stateMutability": "view",
      "type": "function",
      "constant": true
    },
    {
      "inputs": [
        {
          "internalType": "uint256",
          "name": "_puestoId",
          "type": "uint256"
        },
        {
          "internalType": "uint256",
          "name": "_fecha",
          "type": "uint256"
        },
        {
          "internalType": "uint256",
          "name": "_turno",
          "type": "uint256"
        }
      ],
      "name": "guardarReserva",
      "outputs": [],
      "stateMutability": "nonpayable",
      "type": "function"
    },
    {
      "inputs": [
        {
          "internalType": "uint256",
          "name": "_puestoId",
          "type": "uint256"
        },
        {
          "internalType": "uint256",
          "name": "_fecha",
          "type": "uint256"
        },
        {
          "internalType": "uint256",
          "name": "_turno",
          "type": "uint256"
        }
      ],
      "name": "quitarReserva",
      "outputs": [],
      "stateMutability": "nonpayable",
      "type": "function"
    },
    {
      "inputs": [
        {
          "internalType": "uint256",
          "name": "_laboratorioindex",
          "type": "uint256"
        },
        {
          "internalType": "string",
          "name": "_nombreL",
          "type": "string"
        },
        {
          "internalType": "string",
          "name": "_asignaura",
          "type": "string"
        },
        {
          "internalType": "string",
          "name": "_Info",
          "type": "string"
        }
      ],
      "name": "creaLaboratorio",
      "outputs": [
        {
          "internalType": "uint256",
          "name": "",
          "type": "uint256"
        }
      ],
      "stateMutability": "nonpayable",
      "type": "function"
    },
    {
      "inputs": [
        {
          "internalType": "string",
          "name": "_nombreAsig",
          "type": "string"
        },
        {
          "internalType": "string",
          "name": "_lab",
          "type": "string"
        },
        {
          "internalType": "string",
          "name": "_Info",
          "type": "string"
        }
      ],
      "name": "creaAsignatura",
      "outputs": [
        {
          "internalType": "uint256",
          "name": "",
          "type": "uint256"
        }
      ],
      "stateMutability": "nonpayable",
      "type": "function"
    },
    {
      "inputs": [
        {
          "internalType": "string",
          "name": "_NombreP",
          "type": "string"
        },
        {
          "internalType": "uint256",
          "name": "_indexlab",
          "type": "uint256"
        }
      ],
      "name": "creaPuesto",
      "outputs": [
        {
          "internalType": "uint256",
          "name": "",
          "type": "uint256"
        }
      ],
      "stateMutability": "nonpayable",
      "type": "function"
    },
    {
      "inputs": [
        {
          "internalType": "string",
          "name": "_nombre",
          "type": "string"
        },
        {
          "internalType": "uint256",
          "name": "_fecha",
          "type": "uint256"
        }
      ],
      "name": "creaTurno",
      "outputs": [
        {
          "internalType": "uint256",
          "name": "",
          "type": "uint256"
        }
      ],
      "stateMutability": "nonpayable",
      "type": "function"
    },
    {
      "inputs": [],
      "name": "matriculasLength",
      "outputs": [
        {
          "internalType": "uint256",
          "name": "",
          "type": "uint256"
        }
      ],
      "stateMutability": "view",
      "type": "function",
      "constant": true
    },
    {
      "inputs": [],
      "name": "profesRegistradosLength",
      "outputs": [
        {
          "internalType": "uint256",
          "name": "",
          "type": "uint256"
        }
      ],
      "stateMutability": "view",
      "type": "function",
      "constant": true
    },
    {
      "inputs": [],
      "name": "asignaturasRegistradasLength",
      "outputs": [
        {
          "internalType": "uint256",
          "name": "",
          "type": "uint256"
        }
      ],
      "stateMutability": "view",
      "type": "function",
      "constant": true
    },
    {
      "inputs": [
        {
          "internalType": "string",
          "name": "_nombre",
          "type": "string"
        },
        {
          "internalType": "string",
          "name": "_email",
          "type": "string"
        }
      ],
      "name": "automatricula",
      "outputs": [],
      "stateMutability": "nonpayable",
      "type": "function"
    },
    {
      "inputs": [],
      "name": "autoregistroP",
      "outputs": [],
      "stateMutability": "nonpayable",
      "type": "function"
    },
    {
      "inputs": [
        {
          "internalType": "string",
          "name": "_nombreP",
          "type": "string"
        },
        {
          "internalType": "string",
          "name": "_emailP",
          "type": "string"
        },
        {
          "internalType": "string",
          "name": "_asignaturaP",
          "type": "string"
        },
        {
          "internalType": "string",
          "name": "_departamentoP",
          "type": "string"
        }
      ],
      "name": "autoRegistro",
      "outputs": [],
      "stateMutability": "nonpayable",
      "type": "function"
    },
    {
      "inputs": [],
      "name": "quienSoy",
      "outputs": [
        {
          "internalType": "string",
          "name": "_nombre",
          "type": "string"
        },
        {
          "internalType": "string",
          "name": "_email",
          "type": "string"
        }
      ],
      "stateMutability": "view",
      "type": "function",
      "constant": true
    },
    {
      "inputs": [
        {
          "internalType": "address",
          "name": "persona",
          "type": "address"
        }
      ],
      "name": "estaRegistradoP",
      "outputs": [
        {
          "internalType": "bool",
          "name": "",
          "type": "bool"
        }
      ],
      "stateMutability": "view",
      "type": "function",
      "constant": true
    }
  ],
  "bytecode": "0x608060405234801561001057600080fd5b50336000806101000a81548173ffffffffffffffffffffffffffffffffffffffff021916908373ffffffffffffffffffffffffffffffffffffffff1602179055506148d6806100606000396000f3fe6080604052600436106102e85760003560e01c80638797290611610190578063bcfe45d3116100dc578063cdea020911610095578063ede343cf1161006f578063ede343cf14610d80578063ee0e7c4f14610da9578063f0f066ef14610de6578063f874785914610e2357610328565b8063cdea020914610cc9578063d2a2f7de14610d06578063d5a3e75a14610d4357610328565b8063bcfe45d314610b69578063be4a935b14610ba6578063c2c639b614610bd1578063c791813914610c0f578063c88da89e14610c4c578063cbf2328814610c8b57610328565b8063a4cff70d11610149578063b013bd2411610123578063b013bd2414610a82578063b0b1273114610abf578063b4b4a51f14610afe578063b5daf62c14610b2957610328565b8063a4cff70d146109df578063a9b2aeac14610a1c578063aaadcd1f14610a5957610328565b806387972906146108945780638b69735b146108d25780638da5cb5b1461090f5780638ee4003b1461093a5780638fa425e7146109775780639e1d8f4b146109b457610328565b8063537668831161024f5780636ad8a0fb1161020857806370d714f2116101e257806370d714f2146107c457806379b51b6a146107ef5780637e09be7a1461081a5780637fa4574d1461085757610328565b80636ad8a0fb1461071f5780636bf8aad61461075d5780636d9af3d11461079b57610328565b806353766883146105e55780635fdf483f1461061157806361d4c6ad1461064e578063641945bf1461067757806366668f3c146106b75780636916662b146106f457610328565b80632535f784116102a15780632535f7841461049c578063296d91db146104d9578063317dc28614610516578063320d077314610554578063365d92e21461056b5780633bd20561146105a857610328565b8063070259421461032d5780630c06bc021461036a5780630c312661146103a757806312f89eac146103e4578063151b3f5214610421578063223ca7a21461045f57610328565b36610328576040517f08c379a000000000000000000000000000000000000000000000000000000000815260040161031f906145d8565b60405180910390fd5b600080fd5b34801561033957600080fd5b50610354600480360381019061034f9190613761565b610e60565b6040516103619190614345565b60405180910390f35b34801561037657600080fd5b50610391600480360381019061038c9190613b5e565b610e9e565b60405161039e91906146d8565b60405180910390f35b3480156103b357600080fd5b506103ce60048036038101906103c99190613761565b610eff565b6040516103db9190614345565b60405180910390f35b3480156103f057600080fd5b5061040b60048036038101906104069190613aa3565b610f82565b60405161041891906143a4565b60405180910390f35b34801561042d57600080fd5b5061044860048036038101906104439190613cad565b611061565b604051610456929190614360565b60405180910390f35b34801561046b57600080fd5b5061048660048036038101906104819190613bd9565b6110bf565b6040516104939190614345565b60405180910390f35b3480156104a857600080fd5b506104c360048036038101906104be9190613ce9565b6110fe565b6040516104d091906146d8565b60405180910390f35b3480156104e557600080fd5b5061050060048036038101906104fb9190613c02565b61113c565b60405161050d91906146d8565b60405180910390f35b34801561052257600080fd5b5061053d60048036038101906105389190613ce9565b6112da565b60405161054b9291906144aa565b60405180910390f35b34801561056057600080fd5b506105696113c0565b005b34801561057757600080fd5b50610592600480360381019061058d9190613bd9565b61158c565b60405161059f9190614345565b60405180910390f35b3480156105b457600080fd5b506105cf60048036038101906105ca9190613bd9565b6115cb565b6040516105dc91906146d8565b60405180910390f35b3480156105f157600080fd5b506105fa6115eb565b6040516106089291906143c6565b60405180910390f35b34801561061d57600080fd5b5061063860048036038101906106339190613991565b6117e1565b6040516106459190614345565b60405180910390f35b34801561065a57600080fd5b50610675600480360381019061067091906137cb565b611868565b005b34801561068357600080fd5b5061069e60048036038101906106999190613761565b611a00565b6040516106ae9493929190614449565b60405180910390f35b3480156106c357600080fd5b506106de60048036038101906106d991906137cb565b611c90565b6040516106eb91906146d8565b60405180910390f35b34801561070057600080fd5b50610709611ceb565b60405161071691906146d8565b60405180910390f35b34801561072b57600080fd5b5061074660048036038101906107419190613bd9565b611cf8565b6040516107549291906144aa565b60405180910390f35b34801561076957600080fd5b50610784600480360381019061077f9190613761565b611dc4565b6040516107929291906143c6565b60405180910390f35b3480156107a757600080fd5b506107c260048036038101906107bd9190613ce9565b611f18565b005b3480156107d057600080fd5b506107d9612066565b6040516107e691906146d8565b60405180910390f35b3480156107fb57600080fd5b50610804612073565b60405161081191906146d8565b60405180910390f35b34801561082657600080fd5b50610841600480360381019061083c9190613761565b612080565b60405161084e9190614389565b60405180910390f35b34801561086357600080fd5b5061087e60048036038101906108799190613aa3565b612121565b60405161088b91906146d8565b60405180910390f35b3480156108a057600080fd5b506108bb60048036038101906108b69190613ce9565b612277565b6040516108c9929190614360565b60405180910390f35b3480156108de57600080fd5b506108f960048036038101906108f49190613bd9565b6122e2565b60405161090691906146d8565b60405180910390f35b34801561091b57600080fd5b50610924612302565b6040516109319190614345565b60405180910390f35b34801561094657600080fd5b50610961600480360381019061095c919061378a565b612326565b60405161096e91906146d8565b60405180910390f35b34801561098357600080fd5b5061099e60048036038101906109999190613ce9565b612364565b6040516109ab91906146d8565b60405180910390f35b3480156109c057600080fd5b506109c96123a2565b6040516109d691906146d8565b60405180910390f35b3480156109eb57600080fd5b50610a066004803603810190610a019190613837565b6123af565b604051610a1391906146d8565b60405180910390f35b348015610a2857600080fd5b50610a436004803603810190610a3e9190613af7565b61253c565b604051610a5091906146d8565b60405180910390f35b348015610a6557600080fd5b50610a806004803603810190610a7b9190613ce9565b61258b565b005b348015610a8e57600080fd5b50610aa96004803603810190610aa49190613cad565b6126bc565b604051610ab691906146d8565b60405180910390f35b348015610acb57600080fd5b50610ae66004803603810190610ae19190613761565b6126ed565b604051610af5939291906144da565b60405180910390f35b348015610b0a57600080fd5b50610b136127af565b604051610b2091906146d8565b60405180910390f35b348015610b3557600080fd5b50610b506004803603810190610b4b9190613bd9565b6127bc565b604051610b6094939291906146f3565b60405180910390f35b348015610b7557600080fd5b50610b906004803603810190610b8b9190613aa3565b6129c4565b604051610b9d91906146d8565b60405180910390f35b348015610bb257600080fd5b50610bbb612b5a565b604051610bc89190614345565b60405180910390f35b348015610bdd57600080fd5b50610bf86004803603810190610bf39190613d38565b612b80565b604051610c06929190614360565b60405180910390f35b348015610c1b57600080fd5b50610c366004803603810190610c319190613bd9565b612bf8565b604051610c439190614345565b60405180910390f35b348015610c5857600080fd5b50610c736004803603810190610c6e9190613bd9565b612c37565b604051610c82939291906143fd565b60405180910390f35b348015610c9757600080fd5b50610cb26004803603810190610cad9190613bd9565b612e39565b604051610cc09291906144aa565b60405180910390f35b348015610cd557600080fd5b50610cf06004803603810190610ceb9190613cad565b612f05565b604051610cfd91906146d8565b60405180910390f35b348015610d1257600080fd5b50610d2d6004803603810190610d289190613bd9565b612f36565b604051610d3a9190614345565b60405180910390f35b348015610d4f57600080fd5b50610d6a6004803603810190610d659190613a10565b612f75565b604051610d779190614345565b60405180910390f35b348015610d8c57600080fd5b50610da76004803603810190610da291906138ce565b613009565b005b348015610db557600080fd5b50610dd06004803603810190610dcb9190613bd9565b6131e9565b604051610ddd9190614345565b60405180910390f35b348015610df257600080fd5b50610e0d6004803603810190610e089190613bd9565b613228565b604051610e1a91906146d8565b60405180910390f35b348015610e2f57600080fd5b50610e4a6004803603810190610e459190613991565b613248565b604051610e579190614345565b60405180910390f35b60026020528060005260406000206000915090508060000160009054906101000a900473ffffffffffffffffffffffffffffffffffffffff16905081565b6017848051602081018201805184825260208301602085012081835280955050505050506020528260005260406000206020528160005260406000208181548110610ee857600080fd5b906000526020600020016000935093505050505481565b6000610f0a82613317565b610f175760009050610f7d565b600260008373ffffffffffffffffffffffffffffffffffffffff1673ffffffffffffffffffffffffffffffffffffffff16815260200190815260200160002060000160009054906101000a900473ffffffffffffffffffffffffffffffffffffffff1690505b919050565b6015828051602081018201805184825260208301602085012081835280955050505050508181548110610fb457600080fd5b90600052602060002001600091509150508054600181600116156101000203166002900480601f0160208091040260200160405190810160405280929190818152602001828054600181600116156101000203166002900480156110595780601f1061102e57610100808354040283529160200191611059565b820191906000526020600020905b81548152906001019060200180831161103c57829003601f168201915b505050505081565b6018602052816000526040600020602052806000526040600020600091509150508060000160009054906101000a900473ffffffffffffffffffffffffffffffffffffffff16908060000160149054906101000a900460ff16905082565b600a81815481106110cf57600080fd5b906000526020600020016000915054906101000a900473ffffffffffffffffffffffffffffffffffffffff1681565b601c602052826000526040600020602052816000526040600020818154811061112657600080fd5b9060005260206000200160009250925050505481565b60008060009054906101000a900473ffffffffffffffffffffffffffffffffffffffff1673ffffffffffffffffffffffffffffffffffffffff163373ffffffffffffffffffffffffffffffffffffffff16146111cd576040517f08c379a00000000000000000000000000000000000000000000000000000000081526004016111c4906146b8565b60405180910390fd5b6060849050600081511415611217576040517f08c379a000000000000000000000000000000000000000000000000000000000815260040161120e90614618565b60405180910390fd5b600e60405180608001604052808881526020018781526020018681526020018581525090806001815401808255809150506001900390600052602060002090600402016000909190919091506000820151816000015560208201518160010190805190602001906112899291906135f6565b5060408201518160020190805190602001906112a69291906135f6565b5060608201518160030190805190602001906112c39291906135f6565b5050506001600e8054905003915050949350505050565b601d602052826000526040600020602052816000526040600020818154811061130257600080fd5b90600052602060002090600202016000925092505050806000018054600181600116156101000203166002900480601f0160208091040260200160405190810160405280929190818152602001828054600181600116156101000203166002900480156113b05780601f10611385576101008083540402835291602001916113b0565b820191906000526020600020905b81548152906001019060200180831161139357829003601f168201915b5050505050908060010154905082565b6113c933612080565b15611409576040517f08c379a000000000000000000000000000000000000000000000000000000000815260040161140090614658565b60405180910390fd5b600073ffffffffffffffffffffffffffffffffffffffff163373ffffffffffffffffffffffffffffffffffffffff161415611479576040517f08c379a000000000000000000000000000000000000000000000000000000000815260040161147090614518565b60405180910390fd5b60405180602001604052803373ffffffffffffffffffffffffffffffffffffffff16815250600260003373ffffffffffffffffffffffffffffffffffffffff1673ffffffffffffffffffffffffffffffffffffffff16815260200190815260200160002060008201518160000160006101000a81548173ffffffffffffffffffffffffffffffffffffffff021916908373ffffffffffffffffffffffffffffffffffffffff160217905550905050600a339080600181540180825580915050600190039060005260206000200160009091909190916101000a81548173ffffffffffffffffffffffffffffffffffffffff021916908373ffffffffffffffffffffffffffffffffffffffff160217905550565b600b818154811061159c57600080fd5b906000526020600020016000915054906101000a900473ffffffffffffffffffffffffffffffffffffffff1681565b600060166000838152602001908152602001600020805490509050919050565b6060806115f73361340c565b611636576040517f08c379a000000000000000000000000000000000000000000000000000000000815260040161162d90614578565b60405180910390fd5b61163e613684565b600360003373ffffffffffffffffffffffffffffffffffffffff1673ffffffffffffffffffffffffffffffffffffffff168152602001908152602001600020604051806040016040529081600082018054600181600116156101000203166002900480601f0160208091040260200160405190810160405280929190818152602001828054600181600116156101000203166002900480156117215780601f106116f657610100808354040283529160200191611721565b820191906000526020600020905b81548152906001019060200180831161170457829003601f168201915b50505050508152602001600182018054600181600116156101000203166002900480601f0160208091040260200160405190810160405280929190818152602001828054600181600116156101000203166002900480156117c35780601f10611798576101008083540402835291602001916117c3565b820191906000526020600020905b8154815290600101906020018083116117a657829003601f168201915b50505050508152505090508060000151925080602001519150509091565b60148380516020810182018051848252602083016020850120818352809550505050505082805160208101820180518482526020830160208501208183528095505050505050818154811061183557600080fd5b90600052602060002001600092509250509054906101000a900473ffffffffffffffffffffffffffffffffffffffff1681565b6118713361340c565b156118b1576040517f08c379a00000000000000000000000000000000000000000000000000000000081526004016118a890614538565b60405180910390fd5b60608290506000815114156118fb576040517f08c379a00000000000000000000000000000000000000000000000000000000081526004016118f290614558565b60405180910390fd5b611903613684565b604051806040016040528085815260200184815250905080600360003373ffffffffffffffffffffffffffffffffffffffff1673ffffffffffffffffffffffffffffffffffffffff16815260200190815260200160002060008201518160000190805190602001906119769291906135f6565b5060208201518160010190805190602001906119939291906135f6565b509050506008339080600181540180825580915050600190039060005260206000200160009091909190916101000a81548173ffffffffffffffffffffffffffffffffffffffff021916908373ffffffffffffffffffffffffffffffffffffffff16021790555050505050565b6004602052806000526040600020600091509050806000018054600181600116156101000203166002900480601f016020809104026020016040519081016040528092919081815260200182805460018160011615610100020316600290048015611aac5780601f10611a8157610100808354040283529160200191611aac565b820191906000526020600020905b815481529060010190602001808311611a8f57829003601f168201915b505050505090806001018054600181600116156101000203166002900480601f016020809104026020016040519081016040528092919081815260200182805460018160011615610100020316600290048015611b4a5780601f10611b1f57610100808354040283529160200191611b4a565b820191906000526020600020905b815481529060010190602001808311611b2d57829003601f168201915b505050505090806002018054600181600116156101000203166002900480601f016020809104026020016040519081016040528092919081815260200182805460018160011615610100020316600290048015611be85780601f10611bbd57610100808354040283529160200191611be8565b820191906000526020600020905b815481529060010190602001808311611bcb57829003601f168201915b505050505090806003018054600181600116156101000203166002900480601f016020809104026020016040519081016040528092919081815260200182805460018160011615610100020316600290048015611c865780601f10611c5b57610100808354040283529160200191611c86565b820191906000526020600020905b815481529060010190602001808311611c6957829003601f168201915b5050505050905084565b600080601483604051611ca3919061432e565b908152602001604051809103902084604051611cbf919061432e565b90815260200160405180910390208054905090506000811415611ce157600190505b8091505092915050565b6000601080549050905090565b60108181548110611d0857600080fd5b9060005260206000209060020201600091509050806000018054600181600116156101000203166002900480601f016020809104026020016040519081016040528092919081815260200182805460018160011615610100020316600290048015611db45780601f10611d8957610100808354040283529160200191611db4565b820191906000526020600020905b815481529060010190602001808311611d9757829003601f168201915b5050505050908060010154905082565b6003602052806000526040600020600091509050806000018054600181600116156101000203166002900480601f016020809104026020016040519081016040528092919081815260200182805460018160011615610100020316600290048015611e705780601f10611e4557610100808354040283529160200191611e70565b820191906000526020600020905b815481529060010190602001808311611e5357829003601f168201915b505050505090806001018054600181600116156101000203166002900480601f016020809104026020016040519081016040528092919081815260200182805460018160011615610100020316600290048015611f0e5780601f10611ee357610100808354040283529160200191611f0e565b820191906000526020600020905b815481529060010190602001808311611ef157829003601f168201915b5050505050905082565b611f213361340c565b15611f61576040517f08c379a0000000000000000000000000000000000000000000000000000000008152600401611f5890614538565b60405180910390fd5b60188110611fa4576040517f08c379a0000000000000000000000000000000000000000000000000000000008152600401611f9b90614678565b60405180910390fd5b611fad33613501565b15611fed576040517f08c379a0000000000000000000000000000000000000000000000000000000008152600401611fe490614638565b60405180910390fd5b33601e60008581526020019081526020016000206000848152602001908152602001600020600083815260200190815260200160002060006101000a81548173ffffffffffffffffffffffffffffffffffffffff021916908373ffffffffffffffffffffffffffffffffffffffff160217905550505050565b6000600d80549050905090565b6000600980549050905090565b600080600260008473ffffffffffffffffffffffffffffffffffffffff1673ffffffffffffffffffffffffffffffffffffffff16815260200190815260200160002060000160009054906101000a900473ffffffffffffffffffffffffffffffffffffffff169050600073ffffffffffffffffffffffffffffffffffffffff168173ffffffffffffffffffffffffffffffffffffffff161415915050919050565b60008060009054906101000a900473ffffffffffffffffffffffffffffffffffffffff1673ffffffffffffffffffffffffffffffffffffffff163373ffffffffffffffffffffffffffffffffffffffff16146121b2576040517f08c379a00000000000000000000000000000000000000000000000000000000081526004016121a9906146b8565b60405180910390fd5b60608390506000815114156121fc576040517f08c379a00000000000000000000000000000000000000000000000000000000081526004016121f390614698565b60405180910390fd5b6010604051806040016040528086815260200185815250908060018154018082558091505060019003906000526020600020906002020160009091909190915060008201518160000190805190602001906122589291906135f6565b5060208201518160010155505060016010805490500391505092915050565b601a60205282600052604060002060205281600052604060002060205280600052604060002060009250925050508060000160009054906101000a900473ffffffffffffffffffffffffffffffffffffffff16908060000160149054906101000a900460ff16905082565b6000601b6000838152602001908152602001600020805490509050919050565b60008054906101000a900473ffffffffffffffffffffffffffffffffffffffff1681565b600080601583604051612339919061432e565b9081526020016040518091039020805490509050600081141561235b57600190505b80915050919050565b601f602052826000526040600020602052816000526040600020818154811061238c57600080fd5b9060005260206000200160009250925050505481565b6000600880549050905090565b60008060009054906101000a900473ffffffffffffffffffffffffffffffffffffffff1673ffffffffffffffffffffffffffffffffffffffff163373ffffffffffffffffffffffffffffffffffffffff1614612440576040517f08c379a0000000000000000000000000000000000000000000000000000000008152600401612437906146b8565b60405180910390fd5b606084905060008151141561248a576040517f08c379a000000000000000000000000000000000000000000000000000000000815260040161248190614598565b60405180910390fd5b600d604051806060016040528087815260200186815260200185815250908060018154018082558091505060019003906000526020600020906003020160009091909190915060008201518160000190805190602001906124ec9291906135f6565b5060208201518160010190805190602001906125099291906135f6565b5060408201518160020190805190602001906125269291906135f6565b5050506001600d80549050039150509392505050565b600060178460405161254e919061432e565b9081526020016040518091039020600084815260200190815260200160002060008381526020019081526020016000208054905090509392505050565b6125943361340c565b156125d4576040517f08c379a00000000000000000000000000000000000000000000000000000000081526004016125cb90614538565b60405180910390fd5b60188110612617576040517f08c379a000000000000000000000000000000000000000000000000000000000815260040161260e90614678565b60405180910390fd5b61262033613501565b61265f576040517f08c379a0000000000000000000000000000000000000000000000000000000008152600401612656906145b8565b60405180910390fd5b601e60008481526020019081526020016000206000838152602001908152602001600020600082815260200190815260200160002060006101000a81549073ffffffffffffffffffffffffffffffffffffffff0219169055505050565b601b60205281600052604060002081815481106126d857600080fd5b90600052602060002001600091509150505481565b6011602052806000526040600020600091509050806000018054600181600116156101000203166002900480601f0160208091040260200160405190810160405280929190818152602001828054600181600116156101000203166002900480156127995780601f1061276e57610100808354040283529160200191612799565b820191906000526020600020905b81548152906001019060200180831161277c57829003601f168201915b5050505050908060010154908060020154905083565b6000600e80549050905090565b600e81815481106127cc57600080fd5b9060005260206000209060040201600091509050806000015490806001018054600181600116156101000203166002900480601f01602080910402602001604051908101604052809291908181526020018280546001816001161561010002031660029004801561287e5780601f106128535761010080835404028352916020019161287e565b820191906000526020600020905b81548152906001019060200180831161286157829003601f168201915b505050505090806002018054600181600116156101000203166002900480601f01602080910402602001604051908101604052809291908181526020018280546001816001161561010002031660029004801561291c5780601f106128f15761010080835404028352916020019161291c565b820191906000526020600020905b8154815290600101906020018083116128ff57829003601f168201915b505050505090806003018054600181600116156101000203166002900480601f0160208091040260200160405190810160405280929190818152602001828054600181600116156101000203166002900480156129ba5780601f1061298f576101008083540402835291602001916129ba565b820191906000526020600020905b81548152906001019060200180831161299d57829003601f168201915b5050505050905084565b60008060009054906101000a900473ffffffffffffffffffffffffffffffffffffffff1673ffffffffffffffffffffffffffffffffffffffff163373ffffffffffffffffffffffffffffffffffffffff1614612a55576040517f08c379a0000000000000000000000000000000000000000000000000000000008152600401612a4c906146b8565b60405180910390fd5b6060839050600081511415612a9f576040517f08c379a0000000000000000000000000000000000000000000000000000000008152600401612a9690614618565b60405180910390fd5b600f60405180604001604052808681526020018581525090806001815401808255809150506001900390600052602060002090600202016000909190919091506000820151816000019080519060200190612afb9291906135f6565b5060208201518160010155505060006001600f80549050039050601b6000858152602001908152602001600020819080600181540180825580915050600190039060005260206000200160009091909190915055809250505092915050565b600160009054906101000a900473ffffffffffffffffffffffffffffffffffffffff1681565b60196020528360005260406000206020528260005260406000206020528160005260406000206020528060005260406000206000935093505050508060000160009054906101000a900473ffffffffffffffffffffffffffffffffffffffff16908060000160149054906101000a900460ff16905082565b60088181548110612c0857600080fd5b906000526020600020016000915054906101000a900473ffffffffffffffffffffffffffffffffffffffff1681565b600d8181548110612c4757600080fd5b9060005260206000209060030201600091509050806000018054600181600116156101000203166002900480601f016020809104026020016040519081016040528092919081815260200182805460018160011615610100020316600290048015612cf35780601f10612cc857610100808354040283529160200191612cf3565b820191906000526020600020905b815481529060010190602001808311612cd657829003601f168201915b505050505090806001018054600181600116156101000203166002900480601f016020809104026020016040519081016040528092919081815260200182805460018160011615610100020316600290048015612d915780601f10612d6657610100808354040283529160200191612d91565b820191906000526020600020905b815481529060010190602001808311612d7457829003601f168201915b505050505090806002018054600181600116156101000203166002900480601f016020809104026020016040519081016040528092919081815260200182805460018160011615610100020316600290048015612e2f5780601f10612e0457610100808354040283529160200191612e2f565b820191906000526020600020905b815481529060010190602001808311612e1257829003601f168201915b5050505050905083565b600f8181548110612e4957600080fd5b9060005260206000209060020201600091509050806000018054600181600116156101000203166002900480601f016020809104026020016040519081016040528092919081815260200182805460018160011615610100020316600290048015612ef55780601f10612eca57610100808354040283529160200191612ef5565b820191906000526020600020905b815481529060010190602001808311612ed857829003601f168201915b5050505050908060010154905082565b60166020528160005260406000208181548110612f2157600080fd5b90600052602060002001600091509150505481565b600c8181548110612f4657600080fd5b906000526020600020016000915054906101000a900473ffffffffffffffffffffffffffffffffffffffff1681565b601384805160208101820180518482526020830160208501208183528095505050505050838051602081018201805184825260208301602085012081835280955050505050506020528160005260406000208181548110612fd557600080fd5b9060005260206000200160009350935050509054906101000a900473ffffffffffffffffffffffffffffffffffffffff1681565b61301233613317565b15613052576040517f08c379a0000000000000000000000000000000000000000000000000000000008152600401613049906145f8565b60405180910390fd5b606084905060008151141561309c576040517f08c379a000000000000000000000000000000000000000000000000000000000815260040161309390614558565b60405180910390fd5b6130a461369e565b604051806080016040528087815260200186815260200185815260200184815250905080600460003373ffffffffffffffffffffffffffffffffffffffff1673ffffffffffffffffffffffffffffffffffffffff16815260200190815260200160002060008201518160000190805190602001906131239291906135f6565b5060208201518160010190805190602001906131409291906135f6565b50604082015181600201908051906020019061315d9291906135f6565b50606082015181600301908051906020019061317a9291906135f6565b509050506009339080600181540180825580915050600190039060005260206000200160009091909190916101000a81548173ffffffffffffffffffffffffffffffffffffffff021916908373ffffffffffffffffffffffffffffffffffffffff160217905550505050505050565b600981815481106131f957600080fd5b906000526020600020016000915054906101000a900473ffffffffffffffffffffffffffffffffffffffff1681565b600060166000838152602001908152602001600020805490509050919050565b60008060148460405161325b919061432e565b908152602001604051809103902085604051613277919061432e565b908152602001604051809103902080549050111561330c5760006014846040516132a1919061432e565b9081526020016040518091039020856040516132bd919061432e565b908152602001604051809103902083815481106132d657fe5b9060005260206000200160009054906101000a900473ffffffffffffffffffffffffffffffffffffffff16905080915050613310565b3390505b9392505050565b60006060600460008473ffffffffffffffffffffffffffffffffffffffff1673ffffffffffffffffffffffffffffffffffffffff1681526020019081526020016000206000018054600181600116156101000203166002900480601f0160208091040260200160405190810160405280929190818152602001828054600181600116156101000203166002900480156133f15780601f106133c6576101008083540402835291602001916133f1565b820191906000526020600020905b8154815290600101906020018083116133d457829003601f168201915b50505050509050606081905060008151141592505050919050565b60006060600360008473ffffffffffffffffffffffffffffffffffffffff1673ffffffffffffffffffffffffffffffffffffffff1681526020019081526020016000206000018054600181600116156101000203166002900480601f0160208091040260200160405190810160405280929190818152602001828054600181600116156101000203166002900480156134e65780601f106134bb576101008083540402835291602001916134e6565b820191906000526020600020905b8154815290600101906020018083116134c957829003601f168201915b50505050509050606081905060008151141592505050919050565b60006060600760008473ffffffffffffffffffffffffffffffffffffffff1673ffffffffffffffffffffffffffffffffffffffff1681526020019081526020016000206000018054600181600116156101000203166002900480601f0160208091040260200160405190810160405280929190818152602001828054600181600116156101000203166002900480156135db5780601f106135b0576101008083540402835291602001916135db565b820191906000526020600020905b8154815290600101906020018083116135be57829003601f168201915b50505050509050606081905060008151141592505050919050565b828054600181600116156101000203166002900490600052602060002090601f01602090048101928261362c5760008555613673565b82601f1061364557805160ff1916838001178555613673565b82800160010185558215613673579182015b82811115613672578251825591602001919060010190613657565b5b50905061368091906136c6565b5090565b604051806040016040528060608152602001606081525090565b6040518060800160405280606081526020016060815260200160608152602001606081525090565b5b808211156136df5760008160009055506001016136c7565b5090565b6000813590506136f281614872565b92915050565b600082601f83011261370957600080fd5b813561371c6137178261477e565b61474d565b9150808252602083016020830185838301111561373857600080fd5b61374383828461481d565b50505092915050565b60008135905061375b81614889565b92915050565b60006020828403121561377357600080fd5b6000613781848285016136e3565b91505092915050565b60006020828403121561379c57600080fd5b600082013567ffffffffffffffff8111156137b657600080fd5b6137c2848285016136f8565b91505092915050565b600080604083850312156137de57600080fd5b600083013567ffffffffffffffff8111156137f857600080fd5b613804858286016136f8565b925050602083013567ffffffffffffffff81111561382157600080fd5b61382d858286016136f8565b9150509250929050565b60008060006060848603121561384c57600080fd5b600084013567ffffffffffffffff81111561386657600080fd5b613872868287016136f8565b935050602084013567ffffffffffffffff81111561388f57600080fd5b61389b868287016136f8565b925050604084013567ffffffffffffffff8111156138b857600080fd5b6138c4868287016136f8565b9150509250925092565b600080600080608085870312156138e457600080fd5b600085013567ffffffffffffffff8111156138fe57600080fd5b61390a878288016136f8565b945050602085013567ffffffffffffffff81111561392757600080fd5b613933878288016136f8565b935050604085013567ffffffffffffffff81111561395057600080fd5b61395c878288016136f8565b925050606085013567ffffffffffffffff81111561397957600080fd5b613985878288016136f8565b91505092959194509250565b6000806000606084860312156139a657600080fd5b600084013567ffffffffffffffff8111156139c057600080fd5b6139cc868287016136f8565b935050602084013567ffffffffffffffff8111156139e957600080fd5b6139f5868287016136f8565b9250506040613a068682870161374c565b9150509250925092565b60008060008060808587031215613a2657600080fd5b600085013567ffffffffffffffff811115613a4057600080fd5b613a4c878288016136f8565b945050602085013567ffffffffffffffff811115613a6957600080fd5b613a75878288016136f8565b9350506040613a868782880161374c565b9250506060613a978782880161374c565b91505092959194509250565b60008060408385031215613ab657600080fd5b600083013567ffffffffffffffff811115613ad057600080fd5b613adc858286016136f8565b9250506020613aed8582860161374c565b9150509250929050565b600080600060608486031215613b0c57600080fd5b600084013567ffffffffffffffff811115613b2657600080fd5b613b32868287016136f8565b9350506020613b438682870161374c565b9250506040613b548682870161374c565b9150509250925092565b60008060008060808587031215613b7457600080fd5b600085013567ffffffffffffffff811115613b8e57600080fd5b613b9a878288016136f8565b9450506020613bab8782880161374c565b9350506040613bbc8782880161374c565b9250506060613bcd8782880161374c565b91505092959194509250565b600060208284031215613beb57600080fd5b6000613bf98482850161374c565b91505092915050565b60008060008060808587031215613c1857600080fd5b6000613c268782880161374c565b945050602085013567ffffffffffffffff811115613c4357600080fd5b613c4f878288016136f8565b935050604085013567ffffffffffffffff811115613c6c57600080fd5b613c78878288016136f8565b925050606085013567ffffffffffffffff811115613c9557600080fd5b613ca1878288016136f8565b91505092959194509250565b60008060408385031215613cc057600080fd5b6000613cce8582860161374c565b9250506020613cdf8582860161374c565b9150509250929050565b600080600060608486031215613cfe57600080fd5b6000613d0c8682870161374c565b9350506020613d1d8682870161374c565b9250506040613d2e8682870161374c565b9150509250925092565b60008060008060808587031215613d4e57600080fd5b6000613d5c8782880161374c565b9450506020613d6d8782880161374c565b9350506040613d7e8782880161374c565b9250506060613d8f8782880161374c565b91505092959194509250565b613da4816147d5565b82525050565b613db3816147e7565b82525050565b6000613dc4826147ae565b613dce81856147b9565b9350613dde81856020860161482c565b613de781614861565b840191505092915050565b6000613dfd826147ae565b613e0781856147ca565b9350613e1781856020860161482c565b80840191505092915050565b6000613e30601f836147b9565b91507f456c2061646472657373206e6f20707565646520657374617220766163696f006000830152602082019050919050565b6000613e706028836147b9565b91507f536f6c6f207065726d697469646f206120616c756d6e6f73206e6f206d61747260008301527f6963756c61646f730000000000000000000000000000000000000000000000006020830152604082019050919050565b6000613ed6601c836147b9565b91507f456c206e6f6d627265206e6f2070756564652073657220766163696f000000006000830152602082019050919050565b6000613f166025836147b9565b91507f536f6c6f207065726d697469646f206120616c756d6e6f73206d61747269637560008301527f6c61646f730000000000000000000000000000000000000000000000000000006020830152604082019050919050565b6000613f7c6027836147b9565b91507f456c206e6f6d627265206465206c612061736967206e6f20707565646520736560008301527f7220766163696f000000000000000000000000000000000000000000000000006020830152604082019050919050565b6000613fe2602d836147b9565b91507f536f6c6f207065726d697469646f2061207475726e6f7320717565202065737460008301527f656e2072657365727661646f73000000000000000000000000000000000000006020830152604082019050919050565b60006140486025836147b9565b91507f4e6f207365207065726d697465206c6120726563657063696f6e20646520646960008301527f6e65726f2e0000000000000000000000000000000000000000000000000000006020830152604082019050919050565b60006140ae6026836147b9565b91507f536f6c6f207065726d697469646f20612070726f666573206e6f20726567697360008301527f747261646f7300000000000000000000000000000000000000000000000000006020830152604082019050919050565b60006141146024836147b9565b91507f456c206e6f6d6272652064656c206c6162206e6f20707565646520736572207660008301527f6163696f000000000000000000000000000000000000000000000000000000006020830152604082019050919050565b600061417a602f836147b9565b91507f536f6c6f207065726d697469646f2061207475726e6f7320717565206e6f206560008301527f7374656e2072657365727661646f7300000000000000000000000000000000006020830152604082019050919050565b60006141e06028836147b9565b91507f536f6c6f207065726d697469646f206120706572736f6e6173206e6f2072656760008301527f6973747261646f730000000000000000000000000000000000000000000000006020830152604082019050919050565b6000614246600e836147b9565b91507f5475726e6f20696e76616c69646f0000000000000000000000000000000000006000830152602082019050919050565b6000614286602a836147b9565b91507f456c206e6f6d627265206465206c61207475726e6f206e6f207075656465206560008301527f7374617220766163696f000000000000000000000000000000000000000000006020830152604082019050919050565b60006142ec6017836147b9565b91507f536f6c6f207065726d697469646f20616c206f776e65720000000000000000006000830152602082019050919050565b61432881614813565b82525050565b600061433a8284613df2565b915081905092915050565b600060208201905061435a6000830184613d9b565b92915050565b60006040820190506143756000830185613d9b565b6143826020830184613daa565b9392505050565b600060208201905061439e6000830184613daa565b92915050565b600060208201905081810360008301526143be8184613db9565b905092915050565b600060408201905081810360008301526143e08185613db9565b905081810360208301526143f48184613db9565b90509392505050565b600060608201905081810360008301526144178186613db9565b9050818103602083015261442b8185613db9565b9050818103604083015261443f8184613db9565b9050949350505050565b600060808201905081810360008301526144638187613db9565b905081810360208301526144778186613db9565b9050818103604083015261448b8185613db9565b9050818103606083015261449f8184613db9565b905095945050505050565b600060408201905081810360008301526144c48185613db9565b90506144d3602083018461431f565b9392505050565b600060608201905081810360008301526144f48186613db9565b9050614503602083018561431f565b614510604083018461431f565b949350505050565b6000602082019050818103600083015261453181613e23565b9050919050565b6000602082019050818103600083015261455181613e63565b9050919050565b6000602082019050818103600083015261457181613ec9565b9050919050565b6000602082019050818103600083015261459181613f09565b9050919050565b600060208201905081810360008301526145b181613f6f565b9050919050565b600060208201905081810360008301526145d181613fd5565b9050919050565b600060208201905081810360008301526145f18161403b565b9050919050565b60006020820190508181036000830152614611816140a1565b9050919050565b6000602082019050818103600083015261463181614107565b9050919050565b600060208201905081810360008301526146518161416d565b9050919050565b60006020820190508181036000830152614671816141d3565b9050919050565b6000602082019050818103600083015261469181614239565b9050919050565b600060208201905081810360008301526146b181614279565b9050919050565b600060208201905081810360008301526146d1816142df565b9050919050565b60006020820190506146ed600083018461431f565b92915050565b6000608082019050614708600083018761431f565b818103602083015261471a8186613db9565b9050818103604083015261472e8185613db9565b905081810360608301526147428184613db9565b905095945050505050565b6000604051905081810181811067ffffffffffffffff821117156147745761477361485f565b5b8060405250919050565b600067ffffffffffffffff8211156147995761479861485f565b5b601f19601f8301169050602081019050919050565b600081519050919050565b600082825260208201905092915050565b600081905092915050565b60006147e0826147f3565b9050919050565b60008115159050919050565b600073ffffffffffffffffffffffffffffffffffffffff82169050919050565b6000819050919050565b82818337600083830152505050565b60005b8381101561484a57808201518184015260208101905061482f565b83811115614859576000848401525b50505050565bfe5b6000601f19601f8301169050919050565b61487b816147d5565b811461488657600080fd5b50565b61489281614813565b811461489d57600080fd5b5056fea26469706673582212206d478accaec5295400e6b967a398daf2259c8b7678138fbb72e43d2707631fc464736f6c63430007040033",
  "immutableReferences": {},
  "source": "pragma solidity ^0.7.4;\r\npragma experimental ABIEncoderV2;//enabled when passing an array of string(struct) as a function paramete\r\n\r\n\r\n/*\r\n*falta : \r\n*crear lo de las asignaturas con los laborarios y puestos a los que perteneces y las caracteristicas que desepean cada puesto \r\n*crear las reservas , se va a reservar por semana un puesto de un determinado laboratorio \r\n*/\r\n\r\n\r\ncontract ReslabEtsit {\r\n    \r\n   \r\n    /**\r\n     * address del profesor que ha desplegado el contrato.\r\n     * El contrato lo despliega el profesor.\r\n     */\r\n    address public owner;\r\n    address public profesorP;\r\n     \r\n    \r\n    /// Nombre de la asignatura\r\n    //string public nombre;\r\n    \r\n   \r\n    \r\n    /**\r\n     * Datos de un puesto\r\n     */\r\n     \r\n     \r\n     \r\n    enum TipoSO {windows, macos , linux}\r\n    \r\n    enum TipoConexionesRed { cable, inalambrico} // array de strings \r\n\r\n    \r\n    \r\n   \r\n   // enum Horario { turnom ,turnot}//poenr horas y turnos en enum???? array de horas \r\n    \r\n    struct DatosPuesto {\r\n\r\n\r\n    \r\n\tstring nombre;\r\n\t\r\n\tuint indexlab;\r\n\r\n       \r\n    }\r\n    \r\n    \r\n    struct DatosTurno{\r\n        string nombre;\r\n        uint fecha;\r\n      \r\n    }\r\n    \r\n    \r\n   \r\n   \r\n   \r\n    /**\r\n    * datos de todos los labs con sus parametro en la pantalla de inicio\r\n    * DUDA -> QUIERO PONERARRAY DE STRING DE ASIGNATURA!!\r\n    **/\r\n    struct DatosLaboratorio {\r\n        uint laboratorioindex;\r\n        \r\n        string nombreL;\r\n        string asignaura;\r\n        string info;\r\n        \r\n        //string[] asignaturaL;\r\n       \r\n    }\r\n\r\n\r\n\r\n\r\n    \r\n    \r\n    /**\r\n    * datos del alumno que se registra \r\n    **/\r\n   // datos persona \r\n    struct DatosPersona {\r\n\taddress dir;\r\n    }\r\n\r\n    /// Datos de un alumno.\r\n    struct DatosAlumno {\r\n        string nombre;\r\n        string email;\r\n        \r\n    }\r\n    \r\n    /**\r\n     * Datos profe que se registra \r\n     * */\r\n     \r\n    \r\n    struct DatosProfesor{\r\n        string nombreP;\r\n        string emailP;\r\n        string asignaturaP;\r\n        string departamentoP;\r\n    }\r\n    \r\n    \r\n\r\n\r\n\r\n\r\n\r\n    \r\n    struct DatosAsignatura{\r\n        string nombre;\r\n       // Laboratorio[] laboratorio;\r\n        string laboratorio;\r\n        string info;\r\n        //credito semanal\r\n        //Matriculas matriculados;\r\n    }\r\n    \r\n    \r\n    \r\n    \r\n    /**\r\n     * \r\n\r\n     si esta reservado por un alumno\r\n     * */\r\n     \r\n     struct DatosReserva{\r\n         address dirAlumno;\r\n         bool estaReservado;  \r\n     }\r\n     \r\n     /**\r\n      * Datos de mireserva //FALTA PUESTO\r\n      * */\r\n      \r\n      struct ReservaAlumno{\r\n          string lab;\r\n          uint fecha;\r\n          uint estado;\r\n          //string puesto;\r\n\r\n      }\r\n      \r\n      // acceder a los datos de una persona dada su direccion\r\n    mapping (address => DatosPersona) public datosPersona;\r\n    \r\n    /// Acceder a los datos de un alumno dada su direccion.\r\n    mapping (address => DatosAlumno) public datosAlumno;\r\n    \r\n      /// Acceder a los datos de un profe dada su direccion.\r\n    mapping (address => DatosProfesor) public datosProfesor;\r\n    \r\n    mapping (address => DatosAsignatura)  datosAsignatura;\r\n    \r\n    \r\n    mapping (address => DatosLaboratorio)  datosLaboratorio;\r\n\r\n    mapping (address => DatosTurno)  datosTurno;\r\n\r\n    //mapping(uint => Laboratorio) public labPuestos; //acceder a los puestos del lab dada la info del lab\r\n  \r\n   // mapping (address => DatosPuesto)  datosPuesto;\r\n    \r\n    // Array con las direcciones de los alumnos matriculados.\r\n    address[] public matriculas;\r\n    \r\n    \r\n    //array con las direcciones de los profes registrados \r\n    address[] public profesRegistrados;\r\n    \r\n        // Array con las direcciones de las personas registradas.\r\n    address[] public registradosP;\r\n\r\n    \r\n    //Array credito semanal \r\n    address [] public creditosemanal;\r\n    \r\n   //array con las direcciones de las asignaturas registradas \r\n   address[] public asignaturasRegistradasdir;\r\n\r\n    DatosAsignatura[] public asignaturasRegistradas;\r\n    \r\n    \r\n    // labs en la escuela\r\n    DatosLaboratorio[] public laboratoriosRegistrados;\r\n    //reservas de la escuela\r\n\r\n    // puestos en la escuela\r\n    DatosPuesto[] public puestosRegistrados;\r\n    \r\n \r\n\r\n    // array turnos de los puestos\r\n\r\n    DatosTurno[] public turnosRegistrados;\r\n        \r\n   \r\n\r\n     //reserva para un usuario \r\n  \r\n    mapping (address => ReservaAlumno) public reservasAlumno;\r\n    \r\n    \r\n    //turno de la escuela\r\n\r\n    //mapping (string => mapping (string  => uint[] )) public turnos;\r\n    \r\n    // Mapping para evitar duplicados de turnos devuelve un bool\r\n    //dado un puesto y una fecha  y un (turno) te devuelve un booleano \r\n    mapping (uint => mapping  ( uint => mapping ( uint => bool )))  turnos_existentes;\r\n    \r\n    /// Devuelve las direcciones de las personas que han asistido a algun lab en alguna de las fechas y en algun turno.\r\n    mapping (string => mapping (string => mapping (uint => address[] ))) public personas;\r\n   \r\n    /// Devuelve las Direcciones de las personas que han asistido a algun lab y en alguna de las fechas.\r\n    mapping (string => mapping (string => address[] )) public personasTotales;\r\n\r\n    // devuelve los puestos totales qu tienes los labs???????????????como lo hago  lo que quiero es haya los puestos totales que tiene cada laboratorio??????\r\n\r\n    mapping(string => string[]) public puestosTotales;\r\n    \r\n\r\n\r\n\r\n\r\n    //IMPORTANTEEEEEEEEEEEE!\r\n    // devuelve array con los indices de los puestos y la clave es un array de enteros laboratorio \r\n    mapping (uint=> uint[]) public puestos;\r\n\r\n\r\n\r\n    //dado la fecha, entrada turno y el el indice de laboratorio quiero que devuelva un array con el numero de puestos\r\n    mapping (string => mapping (uint => mapping (uint => uint[]))) public puestosBuscados;\r\n\r\n    \r\n    //dado el numero lab, fecha (numero de milisegundos) , dado turno ( todos los turnos que hay en un puesto en un dia), te devuelva la reserva\r\n  //  mapping( uint =>mapping (uint=> mapping (uint=> DatosReserva ))) public puestosReservados;\r\n\r\n\r\n    \r\n    //dado el numero puesto, turno (numero de milisegundos) ,  te devuelva la reserva\r\n   mapping( uint =>mapping (uint=> DatosReserva )) public datosReserva;\r\n\r\n\r\n   //\r\n    //dado el numero lab, de un puesto, fecha (numero de milisegundos) ,  y turno te devuelva la reserva\r\n\r\n     mapping( uint =>mapping (uint=> mapping (uint=> mapping (uint=> DatosReserva )))) public datosReservaPorLabPuestoFechaTurno;\r\n\r\n     //dado el numero lab, de un puesto,  y turno te devuelva la reserva\r\n\r\n     mapping( uint =>mapping (uint=>  mapping (uint=> DatosReserva ))) public datosReservaPorLabPuestoTurno;\r\n\r\n\r\n     \r\n\r\n\r\n\r\n    //te devuelve array de puestos reservados tal lab y tal fecha \r\n    //mapping( uint =>mapping (uint=> DatosPuesto[] )) public puestosReservadosLab;\r\n\r\n    //dado el indice de laboratorio un array de los indices de los puestos que estan en ese laboratorio \r\n    mapping(uint=> uint[]) public puestosDelLaboratorio;\r\n\r\n\r\n    //dado el indice de laboratorio y la fecha te devuelva los indices de los puestos que estan en ese laboratorio \r\n    mapping(uint=> mapping( uint => uint[])) public puestosDelLaboratorioFecha;\r\n\r\n    //dado una fecha y un lab cree una rray de puestos \r\n\r\n    mapping(uint=> mapping( uint => DatosPuesto[])) public arrayPuestosDelLab;\r\n\r\n\r\n    //dado el index de un puesto registrado \r\n    //dada la fecha ( string en formaro YYYYYMMD??????\r\n    // dado la hora del turno (de 0 a 23) \r\n    //devuelve el address del alumnos que ha reservado el turno\r\n    mapping(uint => mapping(uint => mapping (uint=> address))) reservasDelAlumno;\r\n\r\n\r\n       /// Dado el index de un puesto y una fecha te devuelve los turnos de un lab .\r\n    mapping (uint => mapping (uint  => uint[] )) public turnosPorPuesto;\r\n\r\n    \r\n    \r\n    \r\n    \r\n    /*\r\n     * Constructor.\r\n     * \r\n     * @param _nombre Nombre de la asignatura.\r\n     * //habria qu eponer nombre puesto /lab /alumno etc \r\n    \r\n     */\r\n    /*constructor(string memory _nombre) {\r\n        \r\n        bytes memory bn = bytes(_nombre);\r\n        require(bn.length != 0, \"El nombre de la asignatura no puede ser vacio\");\r\n       \r\n       \r\n      \r\n        owner = msg.sender;\r\n        nombre = _nombre;\r\n        \r\n        \r\n     \r\n        \r\n    }*/\r\n    \r\n    constructor()  {\r\n        owner = msg.sender;\r\n    } //?????????????????????????????????\r\n\r\n    \r\n    \r\n    \r\n    \r\n    \r\n/**\r\n     * Te devuelve el numero de puestos registrados\r\n     *\r\n     * @return El numero de puestos creadas.\r\n     */\r\n    /*function puestosLength() public view returns(uint) {\r\n        return puestosReservadosLab.length;\r\n    }\r\n    \r\n*/\r\n\r\n    // te devuelve la longitud de los puestos que hay en un laboratorio \r\n\r\n    function puestosDelLaboratorioLength(uint _indexlab) public view returns(uint) {\r\n        return puestosDelLaboratorio[_indexlab].length;\r\n\r\n\r\n    }\r\n\r\n\r\n\r\n  /**\r\n     * Te devuelve el numero de turnos\r\n     *\r\n     * @return El numero de turnos creadas.\r\n     */\r\n\r\n    function turnosLength() public view returns(uint) {\r\n        return turnosRegistrados.length;\r\n    }\r\n    \r\n\r\n    //devuelve la longitud del array de los puestos de un laboratorio \r\n    function puestosLaboratorioLength(uint _laboratorioindex) public view returns(uint) {\r\n        return puestos[_laboratorioindex].length;\r\n    }\r\n    \r\n    \r\n     /**\r\n     * El numero de labs  registrados\r\n     *\r\n     * @return El numero de labs creadas.\r\n     */\r\n    function laboratoriosLength() public view returns(uint) {\r\n        return laboratoriosRegistrados.length;\r\n    }\r\n    \r\n    \r\n    \r\n\r\n\r\n    /**\r\n     * Permite obtener la longitud del array de personasTotales.\r\n     * \r\n     */\r\n    function personasLength(string memory _nombre, string memory _fecha) public view returns(uint) {\r\n\r\n        uint longitud = personasTotales[_fecha][_nombre].length;\r\n\r\n        if(longitud == 0){\r\n        longitud = 1;\r\n\t    }\r\n\r\n  \t    return longitud;\r\n\r\n    }\r\n\r\n\r\n\r\n      /**\r\n     * Permite obtener la longitud del array de puestosTotale del lab\r\n     * \r\n     */\r\n    function puestosLength2(string memory _nombre) public view returns(uint) {\r\n\r\n        uint longitud2 = puestosTotales[_nombre].length;\r\n\r\n        if(longitud2 == 0){\r\n        longitud2 = 1;\r\n\t    }\r\n\r\n  \t    return longitud2;\r\n\r\n    }\r\n\r\n\r\n\r\n    /**\r\n     * Permite obtener un address del array de personas.\r\n     * \r\n     */\r\n    function dirPersonas(string memory _nombre, string memory _fecha, uint _indice) public view returns(address) {\r\n\r\n        if(personasTotales[_fecha][_nombre].length > 0){\r\n\r\n        address _dirUno = personasTotales[_fecha][_nombre][_indice];\r\n        return _dirUno;\r\n\r\n        }else{\r\n        return msg.sender;\r\n\t    }\t\t\t\r\n\t\r\n    }\r\n    \r\n    /**\r\n     * Obtiene los datos de una persona registrada.\r\n     * \r\n     * @param persona La direccion de una persona.\r\n     * \r\n     * @return los datos de una persona registrada.\r\n     */\r\n    function obtenerDatosPersona(address persona)  public view returns(address) {\r\n\t\r\n        \r\n        if(!estaRegistrado(persona)){\r\n        return address(0);\r\n        } else{\t\r\n        return datosPersona[persona].dir;\r\n\t}\r\n\t\r\n        \r\n        \r\n    } \r\n\r\n\r\n    //puestos que hay en un lab. Coger el array que te da el mapping de puestos y devolver su .length\r\n\r\n    function puestosdeLaboratorio(uint _laboratorioindex) public view returns(uint) {\r\n\r\n        return puestos[_laboratorioindex].length;\r\n    }\r\n    \r\n\r\n\r\n     // puestos que hay en un lab segun la fecha, la entrada \r\n    function BuscaPuestoLab( string  memory _fecha, uint _entradaTurno,uint _laboratorioindex) public view returns(uint) {\r\n\r\n        return puestosBuscados[_fecha][_entradaTurno][_laboratorioindex].length;\r\n    }\r\n\r\n\r\n\r\n\r\n \r\n\r\n\r\n\r\n    /** Un alumno crea una reserva \r\n    */\r\n\r\n    \r\n    \r\n    \r\n\r\n        function guardarReserva(uint  _puestoId, uint  _fecha,  uint _turno)  public {\r\n        \r\n\t\r\n       \r\n\r\n        require(!estaMatriculado(msg.sender),\"Solo permitido a alumnos no matriculados\");\r\n        require(_turno<24, \"Turno invalido\");\r\n        require(!estaReservado(msg.sender),\"Solo permitido a turnos que no esten reservados\");\r\n\r\n\r\n\r\n        reservasDelAlumno[_puestoId][_fecha][_turno]= msg.sender;\r\n\r\n\r\n        }\r\n\r\n        \r\n\r\n       \r\n\r\n\r\n\r\n\r\n        \r\n    /** Un alumno quita su reserva - ( solo profe , owner y el propio alumnos \r\n    */\r\n    \r\n\r\n\r\n\r\n       function quitarReserva(uint  _puestoId, uint  _fecha,  uint _turno) public {\r\n        \r\n\t\r\n       \r\n\r\n        require(!estaMatriculado(msg.sender),\"Solo permitido a alumnos no matriculados\");\r\n        require(_turno<24, \"Turno invalido\");\r\n        require(estaReservado(msg.sender),\"Solo permitido a turnos que  esten reservados\");\r\n\r\n         delete reservasDelAlumno[_puestoId][_fecha][_turno];\r\n         \r\n        }\r\n     \r\n  \r\n    \r\n\r\n\r\n\r\n\r\n\r\n\r\n\r\n\r\n\r\n\r\n\r\n\r\n\r\n    \r\n    \r\n\r\n    \r\n    \r\n    \r\n    \r\n        \r\n     //te crea un laboratorio \r\n\r\n    function creaLaboratorio( uint  _laboratorioindex,string memory _nombreL,string memory _asignaura,string memory _Info) soloOwner public returns (uint) {\r\n        \r\n        bytes memory bn = bytes(_nombreL);\r\n        require(bn.length != 0, \"El nombre del lab no puede ser vacio\");\r\n        \r\n        laboratoriosRegistrados.push(DatosLaboratorio(_laboratorioindex,_nombreL,_asignaura,_Info));\r\n        return laboratoriosRegistrados.length - 1;\r\n    }\r\n    \r\n     // te rea una asignatura \r\n\r\n    function creaAsignatura( string memory _nombreAsig,string memory _lab,string memory _Info)  soloOwner public returns (uint) {\r\n        \r\n        bytes memory bn = bytes(_nombreAsig);\r\n        require(bn.length != 0, \"El nombre de la asig no puede ser vacio\");\r\n        \r\n       asignaturasRegistradas.push(DatosAsignatura(_nombreAsig,_lab,_Info));\r\n        return asignaturasRegistradas.length - 1;\r\n    }\r\n    \r\n    \r\n    \r\n    \r\n    //te crea un puesto \r\n\r\n    function creaPuesto(string memory _NombreP,uint  _indexlab) soloOwner public returns (uint) {\r\n        \r\n        bytes memory bn = bytes(_NombreP);\r\n        require(bn.length != 0, \"El nombre del lab no puede ser vacio\");\r\n        \r\n        puestosRegistrados.push(DatosPuesto(_NombreP,_indexlab));\r\n        uint id = puestosRegistrados.length -1;\r\n\r\n        puestosDelLaboratorio[_indexlab].push(id);\r\n\r\n        return id;\r\n    \r\n    }   \r\n\r\n\r\n    //te crea un turno de laboratorio \r\n\r\n    function creaTurno(string memory _nombre, uint _fecha) soloOwner public returns (uint) {\r\n    \r\n    bytes memory bn = bytes(_nombre);\r\n    require(bn.length != 0, \"El nombre de la turno no puede estar vacio\");\r\n    \r\n    turnosRegistrados.push(DatosTurno(_nombre, _fecha));\r\n    return turnosRegistrados.length - 1;\r\n} \r\n    \r\n \r\n     /**\r\n     * El numero de alumnos matriculados.\r\n     *\r\n     * @return El numero de alumnos matriculados.\r\n     */\r\n    function matriculasLength() public view returns(uint) {\r\n        return matriculas.length;\r\n    }\r\n    \r\n    \r\n    \r\n      /**\r\n     * El numero de profes registrados.\r\n     *\r\n     * .\r\n     */\r\n    function profesRegistradosLength() public view returns(uint) {\r\n        return profesRegistrados.length;\r\n    }\r\n    \r\n    \r\n       /**\r\n     * El numero de asignaturas registrados.\r\n     *\r\n     * .\r\n     */\r\n    function asignaturasRegistradasLength() public view returns(uint) {\r\n        return asignaturasRegistradas.length;\r\n    }\r\n    \r\n    \r\n    \r\n    \r\n    \r\n      /**\r\n     * numero de credito semanal \r\n     *\r\n     * @return El numero de credito semanal \r\n     * \r\n     */\r\n     /*function creditosemanalLength() public view returns(uint) {\r\n        return creditosemanal.length;\r\n    }???????????????????????????*/\r\n     \r\n    \r\n    \r\n    \r\n    \r\n    /**\r\n     * Los alumnos pueden automatricularse con el metodo automatricula.\r\n     * \r\n     * Impedir que se pueda meter un nombre vacio.\r\n     *\r\n     * @param _nombre El nombre del alumno. \r\n     * @param _email  El email del alumno.\r\n     */\r\n    function automatricula(string memory _nombre, string memory _email) noMatriculados public {\r\n        //revert(\"siempre falla\");\r\n        bytes memory b = bytes(_nombre);\r\n        require(b.length != 0, \"El nombre no puede ser vacio\");\r\n        \r\n        DatosAlumno memory datos = DatosAlumno(_nombre, _email);\r\n        \r\n        datosAlumno[msg.sender] = datos;\r\n        \r\n        matriculas.push(msg.sender);\r\n        \r\n    }\r\n    \r\n    \r\n    function autoregistroP() noRegistradosP public {\r\n    \r\n        require(msg.sender!=address(0), \"El address no puede estar vacio\");\r\n        \r\n        datosPersona[msg.sender] = DatosPersona(msg.sender);\r\n        \r\n        registradosP.push(msg.sender);\r\n    \r\n    }\r\n    \r\n    \r\n  \r\n    function autoRegistro(string memory _nombreP, string memory _emailP,string memory _asignaturaP,string memory _departamentoP ) noRegistrados public {\r\n        \r\n        bytes memory b = bytes(_nombreP);\r\n        require(b.length != 0, \"El nombre no puede ser vacio\");\r\n        \r\n        DatosProfesor memory datosP = DatosProfesor(_nombreP, _emailP,_asignaturaP,_departamentoP);\r\n        \r\n        datosProfesor[msg.sender] = datosP;\r\n        \r\n       profesRegistrados.push(msg.sender);\r\n        \r\n    }\r\n    \r\n\r\n\r\n\r\n    \r\n    \r\n    \r\n    \r\n    \r\n    \r\n    \r\n    \r\n    \r\n    \r\n    /**\r\n     * Permite a un alumno obtener sus propios datos.\r\n     * \r\n     * @return _nombre El nombre del alumno que invoca el metodo.\r\n     * @return _email  El email del alumno que invoca el metodo.\r\n     */\r\n    function quienSoy() soloMatriculados public view returns (string memory _nombre, string memory _email) {\r\n        DatosAlumno memory datos = datosAlumno[msg.sender];\r\n        _nombre = datos.nombre;\r\n        _email = datos.email;\r\n    }\r\n    \r\n\r\n    /**\r\n     * Permite a un profe obtener sus propios datos.\r\n     * \r\n     * \r\n    \r\n    function quienSoyP() soloRegistrados public view returns (string memory _nombreP, string memory _emailP,string memory _asignaturaP,string memory _departamentoP) {\r\n        DatosProfesor memory datosP = datosProfesor[msg.sender];\r\n        _nombreP = datosP.nombreP;\r\n        _emailP = datosP.emailP;\r\n        _departamentoP = datosP.departamentoP;\r\n        _asignaturaP = datosP.asignaturaP;\r\n    }\r\n    \r\n    \r\n    \r\n\r\n    \r\n    \r\n    /**\r\n     * Consulta si una direccion pertenece a un alumno matriculado.\r\n     * \r\n     * @param alumno La direccion de un alumno.\r\n     * \r\n     * @return true si es una alumno matriculado.\r\n     */\r\n    function estaMatriculado(address alumno) private view returns (bool) {\r\n      \r\n        string memory _nombre = datosAlumno[alumno].nombre;\r\n        \r\n        bytes memory b = bytes(_nombre);\r\n        \r\n        return b.length != 0;\r\n    } \r\n\r\n       /**\r\n     * Consulta si un turno pertenece a un alumno matriculado.\r\n     * \r\n     * @param alumno La direccion de un alumno.\r\n     * \r\n     * @return true si es una alumno matriculado.\r\n     */\r\n\r\n\r\n       function estaReservado(address alumno) private view returns (bool) {\r\n      \r\n        string memory _nombre = datosTurno[alumno].nombre;\r\n        \r\n        bytes memory b = bytes(_nombre);\r\n        \r\n        return b.length != 0;\r\n    }\r\n    \r\n\r\n\r\n     /**\r\n     * Consulta si una direccion pertenece a un profe registrado.\r\n     * \r\n     * \r\n     */\r\n    \r\n       function estaRegistrado(address profesor) private view returns (bool) {\r\n      \r\n        string memory _nombreP = datosProfesor[profesor].nombreP;\r\n        \r\n        bytes memory b = bytes(_nombreP);\r\n        \r\n        return b.length != 0;\r\n    }\r\n\r\n\r\n    \r\n    function estaRegistradoP(address persona) public view returns (bool) {\r\n\r\n\taddress _dir = datosPersona[persona].dir;\r\n        return _dir!=address(0);\r\n    } \r\n    \r\n    \r\n\r\n   \r\n\r\n\r\n\r\n\r\n           /**\r\n     * Modificador para que una funcion solo la pueda ejecutar el profesor.\r\n     * \r\n     *\r\n     */\r\n\r\n    modifier soloOwner() {\r\n        \r\n        require(msg.sender == owner, \"Solo permitido al owner\");\r\n        _;\r\n    }\r\n    \r\n    \r\n    /**\r\n     * Modificador para que una funcion solo la pueda ejecutar el profesor.\r\n     * \r\n     *\r\n     */\r\n    modifier soloProfesor() {\r\n        \r\n        require(msg.sender == profesorP, \"Solo permitido al profesor\");\r\n        _;\r\n    }\r\n    \r\n    \r\n    /**\r\n     * Modificador para que una funcion solo la pueda ejecutar un alumno matriculado.\r\n     */\r\n    modifier soloMatriculados() {\r\n        \r\n        require(estaMatriculado(msg.sender), \"Solo permitido a alumnos matriculados\");\r\n        _;\r\n    }\r\n    \r\n    \r\n      modifier soloRegistrados() {\r\n        \r\n        require(estaRegistrado(msg.sender), \"Solo permitido a profes registrados\");\r\n        _;\r\n    }\r\n    \r\n    \r\n \r\n    /**\r\n     * Modificador para que una funcion solo la pueda ejecutar un alumno no matriculado aun.\r\n     */\r\n    modifier noMatriculados() {\r\n        \r\n        require(!estaMatriculado(msg.sender), \"Solo permitido a alumnos no matriculados\");\r\n        _;\r\n    }\r\n    \r\n    \r\n    \r\n      modifier noRegistrados() {\r\n        \r\n        require(!estaRegistrado(msg.sender), \"Solo permitido a profes no registrados\");\r\n        _;\r\n    }\r\n    \r\n        \r\n      modifier noRegistradosP() {\r\n        \r\n        require(!estaRegistradoP(msg.sender), \"Solo permitido a personas no registrados\");\r\n        _;\r\n    }\r\n    \r\n    \r\n       receive() external payable {\r\n        revert(\"No se permite la recepcion de dinero.\");\r\n    }\r\n}\r\n",
  "sourcePath": "C:\\Users\\Paula Huertas\\reslabetsit\\contracts\\ReslabEtsit.sol",
  "compiler": {
    "name": "solc",
    "version": "0.7.4+commit.3f05b770.Emscripten.clang"
  },
  "schemaVersion": "3.4.7",
  "updatedAt": "2022-06-17T21:09:10.808Z",
  "networkType": "ethereum",
  "devdoc": {
    "kind": "dev",
    "methods": {
      "automatricula(string,string)": {
        "params": {
          "_email": "El email del alumno.",
          "_nombre": "El nombre del alumno. "
        }
      },
      "laboratoriosLength()": {
        "returns": {
          "_0": "El numero de labs creadas."
        }
      },
      "matriculasLength()": {
        "returns": {
          "_0": "El numero de alumnos matriculados."
        }
      },
      "obtenerDatosPersona(address)": {
        "params": {
          "persona": "La direccion de una persona. "
        },
        "returns": {
          "_0": "los datos de una persona registrada."
        }
      },
      "puestosDelLaboratorioLength(uint256)": {
        "returns": {
          "_0": "El numero de puestos creadas."
        }
      },
      "quienSoy()": {
        "returns": {
          "_email": " El email del alumno que invoca el metodo.",
          "_nombre": "El nombre del alumno que invoca el metodo."
        }
      },
      "turnosLength()": {
        "returns": {
          "_0": "El numero de turnos creadas."
        }
      }
    },
    "version": 1
  },
  "userdoc": {
    "kind": "user",
    "methods": {
      "asignaturasRegistradasLength()": {
        "notice": "El numero de asignaturas registrados. ."
      },
      "automatricula(string,string)": {
        "notice": "Los alumnos pueden automatricularse con el metodo automatricula.  Impedir que se pueda meter un nombre vacio."
      },
      "datosAlumno(address)": {
        "notice": "Acceder a los datos de un alumno dada su direccion."
      },
      "datosProfesor(address)": {
        "notice": "Acceder a los datos de un profe dada su direccion."
      },
      "dirPersonas(string,string,uint256)": {
        "notice": "Permite obtener un address del array de personas. "
      },
      "guardarReserva(uint256,uint256,uint256)": {
        "notice": "Un alumno crea una reserva "
      },
      "laboratoriosLength()": {
        "notice": "El numero de labs  registrados"
      },
      "matriculasLength()": {
        "notice": "El numero de alumnos matriculados."
      },
      "obtenerDatosPersona(address)": {
        "notice": "Obtiene los datos de una persona registrada. "
      },
      "owner()": {
        "notice": "address del profesor que ha desplegado el contrato. El contrato lo despliega el profesor."
      },
      "personas(string,string,uint256,uint256)": {
        "notice": "Devuelve las direcciones de las personas que han asistido a algun lab en alguna de las fechas y en algun turno."
      },
      "personasLength(string,string)": {
        "notice": "Permite obtener la longitud del array de personasTotales. "
      },
      "personasTotales(string,string,uint256)": {
        "notice": "Devuelve las Direcciones de las personas que han asistido a algun lab y en alguna de las fechas."
      },
      "profesRegistradosLength()": {
        "notice": "El numero de profes registrados. ."
      },
      "puestosDelLaboratorioLength(uint256)": {
        "notice": "Te devuelve el numero de puestos registrados"
      },
      "puestosLength2(string)": {
        "notice": "Permite obtener la longitud del array de puestosTotale del lab "
      },
      "quienSoy()": {
        "notice": "Permite a un alumno obtener sus propios datos. "
      },
      "quitarReserva(uint256,uint256,uint256)": {
        "notice": "Un alumno quita su reserva - ( solo profe , owner y el propio alumnos "
      },
      "turnosLength()": {
        "notice": "Te devuelve el numero de turnos"
      },
      "turnosPorPuesto(uint256,uint256,uint256)": {
        "notice": "Dado el index de un puesto y una fecha te devuelve los turnos de un lab ."
      }
    },
    "version": 1
  }
}