{
  "contractName": "ReslabEtsit",
  "abi": [
    {
      "inputs": [],
      "stateMutability": "nonpayable",
      "type": "constructor"
    },
    {
      "inputs": [
        {
          "internalType": "uint256",
          "name": "",
          "type": "uint256"
        }
      ],
      "name": "creditosemanal",
      "outputs": [
        {
          "internalType": "address",
          "name": "",
          "type": "address"
        }
      ],
      "stateMutability": "view",
      "type": "function",
      "constant": true
    },
    {
      "inputs": [
        {
          "internalType": "address",
          "name": "",
          "type": "address"
        }
      ],
      "name": "datosAlumno",
      "outputs": [
        {
          "internalType": "string",
          "name": "nombre",
          "type": "string"
        },
        {
          "internalType": "string",
          "name": "email",
          "type": "string"
        }
      ],
      "stateMutability": "view",
      "type": "function",
      "constant": true
    },
    {
      "inputs": [
        {
          "internalType": "string",
          "name": "",
          "type": "string"
        },
        {
          "internalType": "string",
          "name": "",
          "type": "string"
        },
        {
          "internalType": "uint256",
          "name": "",
          "type": "uint256"
        },
        {
          "internalType": "address",
          "name": "",
          "type": "address"
        }
      ],
      "name": "datosLab",
      "outputs": [
        {
          "internalType": "address",
          "name": "dir",
          "type": "address"
        },
        {
          "internalType": "string",
          "name": "fecha",
          "type": "string"
        },
        {
          "internalType": "string",
          "name": "entradaTurno",
          "type": "string"
        },
        {
          "internalType": "string",
          "name": "salidaTurno",
          "type": "string"
        },
        {
          "internalType": "string",
          "name": "puesto",
          "type": "string"
        },
        {
          "internalType": "string",
          "name": "estado",
          "type": "string"
        },
        {
          "internalType": "string",
          "name": "asignatura",
          "type": "string"
        },
        {
          "internalType": "string",
          "name": "info",
          "type": "string"
        }
      ],
      "stateMutability": "view",
      "type": "function",
      "constant": true
    },
    {
      "inputs": [
        {
          "internalType": "address",
          "name": "",
          "type": "address"
        }
      ],
      "name": "datosPersona",
      "outputs": [
        {
          "internalType": "address",
          "name": "dir",
          "type": "address"
        }
      ],
      "stateMutability": "view",
      "type": "function",
      "constant": true
    },
    {
      "inputs": [
        {
          "internalType": "address",
          "name": "",
          "type": "address"
        }
      ],
      "name": "datosProfesor",
      "outputs": [
        {
          "internalType": "string",
          "name": "nombreP",
          "type": "string"
        },
        {
          "internalType": "string",
          "name": "emailP",
          "type": "string"
        },
        {
          "internalType": "string",
          "name": "asignaturaP",
          "type": "string"
        },
        {
          "internalType": "string",
          "name": "departamentoP",
          "type": "string"
        }
      ],
      "stateMutability": "view",
      "type": "function",
      "constant": true
    },
    {
      "inputs": [
        {
          "internalType": "uint256",
          "name": "",
          "type": "uint256"
        }
      ],
      "name": "laboratoriosRegistrados",
      "outputs": [
        {
          "internalType": "uint256",
          "name": "labId",
          "type": "uint256"
        },
        {
          "internalType": "string",
          "name": "nombreL",
          "type": "string"
        }
      ],
      "stateMutability": "view",
      "type": "function",
      "constant": true
    },
    {
      "inputs": [
        {
          "internalType": "uint256",
          "name": "",
          "type": "uint256"
        }
      ],
      "name": "matriculas",
      "outputs": [
        {
          "internalType": "address",
          "name": "",
          "type": "address"
        }
      ],
      "stateMutability": "view",
      "type": "function",
      "constant": true
    },
    {
      "inputs": [],
      "name": "owner",
      "outputs": [
        {
          "internalType": "address",
          "name": "",
          "type": "address"
        }
      ],
      "stateMutability": "view",
      "type": "function",
      "constant": true
    },
    {
      "inputs": [
        {
          "internalType": "string",
          "name": "",
          "type": "string"
        },
        {
          "internalType": "string",
          "name": "",
          "type": "string"
        },
        {
          "internalType": "uint256",
          "name": "",
          "type": "uint256"
        },
        {
          "internalType": "uint256",
          "name": "",
          "type": "uint256"
        }
      ],
      "name": "personas",
      "outputs": [
        {
          "internalType": "address",
          "name": "",
          "type": "address"
        }
      ],
      "stateMutability": "view",
      "type": "function",
      "constant": true
    },
    {
      "inputs": [
        {
          "internalType": "string",
          "name": "",
          "type": "string"
        },
        {
          "internalType": "string",
          "name": "",
          "type": "string"
        },
        {
          "internalType": "uint256",
          "name": "",
          "type": "uint256"
        }
      ],
      "name": "personasTotales",
      "outputs": [
        {
          "internalType": "address",
          "name": "",
          "type": "address"
        }
      ],
      "stateMutability": "view",
      "type": "function",
      "constant": true
    },
    {
      "inputs": [
        {
          "internalType": "uint256",
          "name": "",
          "type": "uint256"
        }
      ],
      "name": "profesRegistrados",
      "outputs": [
        {
          "internalType": "address",
          "name": "",
          "type": "address"
        }
      ],
      "stateMutability": "view",
      "type": "function",
      "constant": true
    },
    {
      "inputs": [],
      "name": "profesorP",
      "outputs": [
        {
          "internalType": "address",
          "name": "",
          "type": "address"
        }
      ],
      "stateMutability": "view",
      "type": "function",
      "constant": true
    },
    {
      "inputs": [
        {
          "internalType": "address",
          "name": "",
          "type": "address"
        }
      ],
      "name": "reservasAlumno",
      "outputs": [
        {
          "internalType": "string",
          "name": "lab",
          "type": "string"
        },
        {
          "internalType": "string",
          "name": "fecha",
          "type": "string"
        },
        {
          "internalType": "uint256",
          "name": "estado",
          "type": "uint256"
        }
      ],
      "stateMutability": "view",
      "type": "function",
      "constant": true
    },
    {
      "inputs": [
        {
          "internalType": "uint256",
          "name": "",
          "type": "uint256"
        }
      ],
      "name": "reservasLab",
      "outputs": [
        {
          "internalType": "string",
          "name": "lab",
          "type": "string"
        },
        {
          "internalType": "uint256",
          "name": "turno",
          "type": "uint256"
        },
        {
          "internalType": "string",
          "name": "fecha",
          "type": "string"
        }
      ],
      "stateMutability": "view",
      "type": "function",
      "constant": true
    },
    {
      "inputs": [
        {
          "internalType": "string",
          "name": "",
          "type": "string"
        },
        {
          "internalType": "string",
          "name": "",
          "type": "string"
        },
        {
          "internalType": "uint256",
          "name": "",
          "type": "uint256"
        }
      ],
      "name": "turnos",
      "outputs": [
        {
          "internalType": "uint256",
          "name": "",
          "type": "uint256"
        }
      ],
      "stateMutability": "view",
      "type": "function",
      "constant": true
    },
    {
      "inputs": [
        {
          "internalType": "string",
          "name": "",
          "type": "string"
        },
        {
          "internalType": "string",
          "name": "",
          "type": "string"
        },
        {
          "internalType": "uint256",
          "name": "",
          "type": "uint256"
        }
      ],
      "name": "turnos_existentes",
      "outputs": [
        {
          "internalType": "bool",
          "name": "",
          "type": "bool"
        }
      ],
      "stateMutability": "view",
      "type": "function",
      "constant": true
    },
    {
      "inputs": [
        {
          "internalType": "address",
          "name": "",
          "type": "address"
        },
        {
          "internalType": "uint256",
          "name": "",
          "type": "uint256"
        }
      ],
      "name": "ultimosRegistros",
      "outputs": [
        {
          "internalType": "string",
          "name": "lab",
          "type": "string"
        },
        {
          "internalType": "uint256",
          "name": "turno",
          "type": "uint256"
        },
        {
          "internalType": "string",
          "name": "fecha",
          "type": "string"
        }
      ],
      "stateMutability": "view",
      "type": "function",
      "constant": true
    },
    {
      "stateMutability": "payable",
      "type": "receive",
      "payable": true
    },
    {
      "inputs": [],
      "name": "laboratoriosLength",
      "outputs": [
        {
          "internalType": "uint256",
          "name": "",
          "type": "uint256"
        }
      ],
      "stateMutability": "view",
      "type": "function",
      "constant": true
    },
    {
      "inputs": [],
      "name": "reservasLength",
      "outputs": [
        {
          "internalType": "uint256",
          "name": "",
          "type": "uint256"
        }
      ],
      "stateMutability": "view",
      "type": "function",
      "constant": true
    },
    {
      "inputs": [
        {
          "internalType": "address",
          "name": "dir",
          "type": "address"
        }
      ],
      "name": "ultimosRegistrosLength",
      "outputs": [
        {
          "internalType": "uint256",
          "name": "",
          "type": "uint256"
        }
      ],
      "stateMutability": "view",
      "type": "function",
      "constant": true
    },
    {
      "inputs": [
        {
          "internalType": "string",
          "name": "_nombre",
          "type": "string"
        },
        {
          "internalType": "string",
          "name": "_fecha",
          "type": "string"
        }
      ],
      "name": "personasLength",
      "outputs": [
        {
          "internalType": "uint256",
          "name": "",
          "type": "uint256"
        }
      ],
      "stateMutability": "view",
      "type": "function",
      "constant": true
    },
    {
      "inputs": [
        {
          "internalType": "string",
          "name": "_nombre",
          "type": "string"
        },
        {
          "internalType": "string",
          "name": "_fecha",
          "type": "string"
        },
        {
          "internalType": "uint256",
          "name": "_indice",
          "type": "uint256"
        }
      ],
      "name": "dirPersonas",
      "outputs": [
        {
          "internalType": "address",
          "name": "",
          "type": "address"
        }
      ],
      "stateMutability": "view",
      "type": "function",
      "constant": true
    },
    {
      "inputs": [
        {
          "internalType": "address",
          "name": "persona",
          "type": "address"
        }
      ],
      "name": "obtenerDatosPersona",
      "outputs": [
        {
          "internalType": "address",
          "name": "",
          "type": "address"
        }
      ],
      "stateMutability": "view",
      "type": "function",
      "constant": true
    },
    {
      "inputs": [
        {
          "internalType": "address",
          "name": "_dir",
          "type": "address"
        }
      ],
      "name": "reservas",
      "outputs": [
        {
          "components": [
            {
              "internalType": "string",
              "name": "lab",
              "type": "string"
            },
            {
              "internalType": "string",
              "name": "fecha",
              "type": "string"
            },
            {
              "internalType": "uint256",
              "name": "estado",
              "type": "uint256"
            }
          ],
          "internalType": "struct ReslabEtsit.ReservaAlumno",
          "name": "",
          "type": "tuple"
        }
      ],
      "stateMutability": "view",
      "type": "function",
      "constant": true
    },
    {
      "inputs": [],
      "name": "reiniciarReserva",
      "outputs": [],
      "stateMutability": "nonpayable",
      "type": "function"
    },
    {
      "inputs": [
        {
          "internalType": "uint256",
          "name": "x",
          "type": "uint256"
        }
      ],
      "name": "LabPulsado",
      "outputs": [
        {
          "internalType": "string",
          "name": "",
          "type": "string"
        }
      ],
      "stateMutability": "view",
      "type": "function",
      "constant": true
    },
    {
      "inputs": [
        {
          "internalType": "string",
          "name": "_nombre",
          "type": "string"
        },
        {
          "internalType": "string",
          "name": "_entradaTurno",
          "type": "string"
        },
        {
          "internalType": "string",
          "name": "_fecha",
          "type": "string"
        },
        {
          "internalType": "string",
          "name": "_puesto",
          "type": "string"
        },
        {
          "internalType": "uint256",
          "name": "_turno",
          "type": "uint256"
        }
      ],
      "name": "guardarReserva",
      "outputs": [],
      "stateMutability": "nonpayable",
      "type": "function"
    },
    {
      "inputs": [
        {
          "internalType": "string",
          "name": "_nombre",
          "type": "string"
        },
        {
          "internalType": "string",
          "name": "_salidaTurno",
          "type": "string"
        },
        {
          "internalType": "string",
          "name": "_fecha",
          "type": "string"
        },
        {
          "internalType": "uint256",
          "name": "_turno",
          "type": "uint256"
        }
      ],
      "name": "guardarSalida",
      "outputs": [],
      "stateMutability": "nonpayable",
      "type": "function"
    },
    {
      "inputs": [
        {
          "internalType": "string",
          "name": "_nombreL",
          "type": "string"
        }
      ],
      "name": "creaLaboratorio",
      "outputs": [
        {
          "internalType": "uint256",
          "name": "",
          "type": "uint256"
        }
      ],
      "stateMutability": "nonpayable",
      "type": "function"
    },
    {
      "inputs": [],
      "name": "matriculasLength",
      "outputs": [
        {
          "internalType": "uint256",
          "name": "",
          "type": "uint256"
        }
      ],
      "stateMutability": "view",
      "type": "function",
      "constant": true
    },
    {
      "inputs": [],
      "name": "profesRegistradosLength",
      "outputs": [
        {
          "internalType": "uint256",
          "name": "",
          "type": "uint256"
        }
      ],
      "stateMutability": "view",
      "type": "function",
      "constant": true
    },
    {
      "inputs": [
        {
          "internalType": "string",
          "name": "_nombre",
          "type": "string"
        },
        {
          "internalType": "string",
          "name": "_email",
          "type": "string"
        }
      ],
      "name": "automatricula",
      "outputs": [],
      "stateMutability": "nonpayable",
      "type": "function"
    },
    {
      "inputs": [
        {
          "internalType": "string",
          "name": "_nombreP",
          "type": "string"
        },
        {
          "internalType": "string",
          "name": "_emailP",
          "type": "string"
        },
        {
          "internalType": "string",
          "name": "_asignaturaP",
          "type": "string"
        },
        {
          "internalType": "string",
          "name": "_departamentoP",
          "type": "string"
        }
      ],
      "name": "autoRegistro",
      "outputs": [],
      "stateMutability": "nonpayable",
      "type": "function"
    },
    {
      "inputs": [],
      "name": "quienSoy",
      "outputs": [
        {
          "internalType": "string",
          "name": "_nombre",
          "type": "string"
        },
        {
          "internalType": "string",
          "name": "_email",
          "type": "string"
        }
      ],
      "stateMutability": "view",
      "type": "function",
      "constant": true
    },
    {
      "inputs": [],
      "name": "quienSoyP",
      "outputs": [
        {
          "internalType": "string",
          "name": "_nombreP",
          "type": "string"
        },
        {
          "internalType": "string",
          "name": "_emailP",
          "type": "string"
        },
        {
          "internalType": "string",
          "name": "_asignaturaP",
          "type": "string"
        },
        {
          "internalType": "string",
          "name": "_departamentoP",
          "type": "string"
        }
      ],
      "stateMutability": "view",
      "type": "function",
      "constant": true
    }
  ],
  "bytecode": "0x608060405234801561001057600080fd5b50336000806101000a81548173ffffffffffffffffffffffffffffffffffffffff021916908373ffffffffffffffffffffffffffffffffffffffff1602179055506147ff806100606000396000f3fe6080604052600436106102085760003560e01c80639e1d8f4b11610118578063d4cf859d116100a0578063e8933c6e1161006f578063e8933c6e146108d1578063ede343cf146108fa578063ee0e7c4f14610923578063f874785914610960578063fc1f72d81461099d57610248565b8063d4cf859d146107ec578063d5a3e75a1461081a578063d64545d814610857578063d66371031461089457610248565b8063b4b4a51f116100e7578063b4b4a51f146106d7578063b5daf62c14610702578063b79f217614610740578063be4a935b14610784578063c7918139146107af57610248565b80639e1d8f4b14610607578063a724952f14610632578063b0b127311461066f578063b24a6399146106ae57610248565b806366668f3c1161019b5780637e4d6c701161016a5780637e4d6c70146104e65780638da5cb5b146105235780638f4739361461054e5780639376d0ae1461058d57806394bd53d6146105ca57610248565b806366668f3c1461040157806368ef207e1461043e5780636bf8aad61461047d57806379b51b6a146104bb57610248565b8063554f27cc116101d7578063554f27cc146103305780635fdf483f1461035b57806361d4c6ad14610398578063641945bf146103c157610248565b8063070259421461024d5780630c3126611461028a578063365d92e2146102c7578063537668831461030457610248565b36610248576040517f08c379a000000000000000000000000000000000000000000000000000000000815260040161023f90614578565b60405180910390fd5b600080fd5b34801561025957600080fd5b50610274600480360381019061026f9190613893565b6109b4565b604051610281919061428f565b60405180910390f35b34801561029657600080fd5b506102b160048036038101906102ac9190613893565b6109f2565b6040516102be919061428f565b60405180910390f35b3480156102d357600080fd5b506102ee60048036038101906102e99190613d8f565b610a75565b6040516102fb919061428f565b60405180910390f35b34801561031057600080fd5b50610319610ab4565b604051610327929190614396565b60405180910390f35b34801561033c57600080fd5b50610345610caa565b604051610352919061461a565b60405180910390f35b34801561036757600080fd5b50610382600480360381019061037d9190613bea565b610cb7565b60405161038f919061428f565b60405180910390f35b3480156103a457600080fd5b506103bf60048036038101906103ba9190613939565b610d3e565b005b3480156103cd57600080fd5b506103e860048036038101906103e39190613893565b610ed6565b6040516103f894939291906143cd565b60405180910390f35b34801561040d57600080fd5b5061042860048036038101906104239190613939565b611166565b604051610435919061461a565b60405180910390f35b34801561044a57600080fd5b5061046560048036038101906104609190613d8f565b6111c1565b60405161047493929190614473565b60405180910390f35b34801561048957600080fd5b506104a4600480360381019061049f9190613893565b61132b565b6040516104b2929190614396565b60405180910390f35b3480156104c757600080fd5b506104d061147f565b6040516104dd919061461a565b60405180910390f35b3480156104f257600080fd5b5061050d60048036038101906105089190613893565b61148c565b60405161051a91906145f8565b60405180910390f35b34801561052f57600080fd5b50610538611633565b604051610545919061428f565b60405180910390f35b34801561055a57600080fd5b50610575600480360381019061057091906138bc565b611657565b60405161058493929190614473565b60405180910390f35b34801561059957600080fd5b506105b460048036038101906105af9190613bea565b6117ce565b6040516105c19190614359565b60405180910390f35b3480156105d657600080fd5b506105f160048036038101906105ec91906138f8565b611836565b6040516105fe919061461a565b60405180910390f35b34801561061357600080fd5b5061061c611901565b604051610629919061461a565b60405180910390f35b34801561063e57600080fd5b5061065960048036038101906106549190613bea565b61190e565b604051610666919061461a565b60405180910390f35b34801561067b57600080fd5b5061069660048036038101906106919190613893565b611978565b6040516106a59392919061442e565b60405180910390f35b3480156106ba57600080fd5b506106d560048036038101906106d09190613a68565b611ad2565b005b3480156106e357600080fd5b506106ec612631565b6040516106f9919061461a565b60405180910390f35b34801561070e57600080fd5b5061072960048036038101906107249190613d8f565b61263e565b604051610737929190614635565b60405180910390f35b34801561074c57600080fd5b5061076760048036038101906107629190613c69565b61270a565b60405161077b9897969594939291906142aa565b60405180910390f35b34801561079057600080fd5b50610799612bed565b6040516107a6919061428f565b60405180910390f35b3480156107bb57600080fd5b506107d660048036038101906107d19190613d8f565b612c13565b6040516107e3919061428f565b60405180910390f35b3480156107f857600080fd5b50610801612c52565b60405161081194939291906143cd565b60405180910390f35b34801561082657600080fd5b50610841600480360381019061083c9190613cfc565b612f9f565b60405161084e919061428f565b60405180910390f35b34801561086357600080fd5b5061087e60048036038101906108799190613893565b613033565b60405161088b919061461a565b60405180910390f35b3480156108a057600080fd5b506108bb60048036038101906108b69190613d8f565b61307f565b6040516108c89190614374565b60405180910390f35b3480156108dd57600080fd5b506108f860048036038101906108f39190613b3f565b61313f565b005b34801561090657600080fd5b50610921600480360381019061091c91906139a5565b6131e5565b005b34801561092f57600080fd5b5061094a60048036038101906109459190613d8f565b6133c5565b604051610957919061428f565b60405180910390f35b34801561096c57600080fd5b5061098760048036038101906109829190613bea565b613404565b604051610994919061428f565b60405180910390f35b3480156109a957600080fd5b506109b26134d3565b005b60026020528060005260406000206000915090508060000160009054906101000a900473ffffffffffffffffffffffffffffffffffffffff16905081565b60006109fd8261351d565b610a0a5760009050610a70565b600260008373ffffffffffffffffffffffffffffffffffffffff1673ffffffffffffffffffffffffffffffffffffffff16815260200190815260200160002060000160009054906101000a900473ffffffffffffffffffffffffffffffffffffffff1690505b919050565b60088181548110610a8557600080fd5b906000526020600020016000915054906101000a900473ffffffffffffffffffffffffffffffffffffffff1681565b606080610ac033613612565b610aff576040517f08c379a0000000000000000000000000000000000000000000000000000000008152600401610af690614538565b60405180910390fd5b610b07613707565b600360003373ffffffffffffffffffffffffffffffffffffffff1673ffffffffffffffffffffffffffffffffffffffff168152602001908152602001600020604051806040016040529081600082018054600181600116156101000203166002900480601f016020809104026020016040519081016040528092919081815260200182805460018160011615610100020316600290048015610bea5780601f10610bbf57610100808354040283529160200191610bea565b820191906000526020600020905b815481529060010190602001808311610bcd57829003601f168201915b50505050508152602001600182018054600181600116156101000203166002900480601f016020809104026020016040519081016040528092919081815260200182805460018160011615610100020316600290048015610c8c5780601f10610c6157610100808354040283529160200191610c8c565b820191906000526020600020905b815481529060010190602001808311610c6f57829003601f168201915b50505050508152505090508060000151925080602001519150509091565b6000600a80549050905090565b600f83805160208101820180518482526020830160208501208183528095505050505050828051602081018201805184825260208301602085012081835280955050505050508181548110610d0b57600080fd5b90600052602060002001600092509250509054906101000a900473ffffffffffffffffffffffffffffffffffffffff1681565b610d4733613612565b15610d87576040517f08c379a0000000000000000000000000000000000000000000000000000000008152600401610d7e906144f8565b60405180910390fd5b6060829050600081511415610dd1576040517f08c379a0000000000000000000000000000000000000000000000000000000008152600401610dc890614518565b60405180910390fd5b610dd9613707565b604051806040016040528085815260200184815250905080600360003373ffffffffffffffffffffffffffffffffffffffff1673ffffffffffffffffffffffffffffffffffffffff1681526020019081526020016000206000820151816000019080519060200190610e4c929190613721565b506020820151816001019080519060200190610e69929190613721565b509050506006339080600181540180825580915050600190039060005260206000200160009091909190916101000a81548173ffffffffffffffffffffffffffffffffffffffff021916908373ffffffffffffffffffffffffffffffffffffffff16021790555050505050565b6004602052806000526040600020600091509050806000018054600181600116156101000203166002900480601f016020809104026020016040519081016040528092919081815260200182805460018160011615610100020316600290048015610f825780601f10610f5757610100808354040283529160200191610f82565b820191906000526020600020905b815481529060010190602001808311610f6557829003601f168201915b505050505090806001018054600181600116156101000203166002900480601f0160208091040260200160405190810160405280929190818152602001828054600181600116156101000203166002900480156110205780601f10610ff557610100808354040283529160200191611020565b820191906000526020600020905b81548152906001019060200180831161100357829003601f168201915b505050505090806002018054600181600116156101000203166002900480601f0160208091040260200160405190810160405280929190818152602001828054600181600116156101000203166002900480156110be5780601f10611093576101008083540402835291602001916110be565b820191906000526020600020905b8154815290600101906020018083116110a157829003601f168201915b505050505090806003018054600181600116156101000203166002900480601f01602080910402602001604051908101604052809291908181526020018280546001816001161561010002031660029004801561115c5780601f106111315761010080835404028352916020019161115c565b820191906000526020600020905b81548152906001019060200180831161113f57829003601f168201915b5050505050905084565b600080600f836040516111799190614278565b9081526020016040518091039020846040516111959190614278565b908152602001604051809103902080549050905060008114156111b757600190505b8091505092915050565b600a81815481106111d157600080fd5b9060005260206000209060030201600091509050806000018054600181600116156101000203166002900480601f01602080910402602001604051908101604052809291908181526020018280546001816001161561010002031660029004801561127d5780601f106112525761010080835404028352916020019161127d565b820191906000526020600020905b81548152906001019060200180831161126057829003601f168201915b505050505090806001015490806002018054600181600116156101000203166002900480601f0160208091040260200160405190810160405280929190818152602001828054600181600116156101000203166002900480156113215780601f106112f657610100808354040283529160200191611321565b820191906000526020600020905b81548152906001019060200180831161130457829003601f168201915b5050505050905083565b6003602052806000526040600020600091509050806000018054600181600116156101000203166002900480601f0160208091040260200160405190810160405280929190818152602001828054600181600116156101000203166002900480156113d75780601f106113ac576101008083540402835291602001916113d7565b820191906000526020600020905b8154815290600101906020018083116113ba57829003601f168201915b505050505090806001018054600181600116156101000203166002900480601f0160208091040260200160405190810160405280929190818152602001828054600181600116156101000203166002900480156114755780601f1061144a57610100808354040283529160200191611475565b820191906000526020600020905b81548152906001019060200180831161145857829003601f168201915b5050505050905082565b6000600780549050905090565b6114946137af565b600b60008373ffffffffffffffffffffffffffffffffffffffff1673ffffffffffffffffffffffffffffffffffffffff168152602001908152602001600020604051806060016040529081600082018054600181600116156101000203166002900480601f0160208091040260200160405190810160405280929190818152602001828054600181600116156101000203166002900480156115775780601f1061154c57610100808354040283529160200191611577565b820191906000526020600020905b81548152906001019060200180831161155a57829003601f168201915b50505050508152602001600182018054600181600116156101000203166002900480601f0160208091040260200160405190810160405280929190818152602001828054600181600116156101000203166002900480156116195780601f106115ee57610100808354040283529160200191611619565b820191906000526020600020905b8154815290600101906020018083116115fc57829003601f168201915b505050505081526020016002820154815250509050919050565b60008054906101000a900473ffffffffffffffffffffffffffffffffffffffff1681565b6011602052816000526040600020818154811061167357600080fd5b906000526020600020906003020160009150915050806000018054600181600116156101000203166002900480601f0160208091040260200160405190810160405280929190818152602001828054600181600116156101000203166002900480156117205780601f106116f557610100808354040283529160200191611720565b820191906000526020600020905b81548152906001019060200180831161170357829003601f168201915b505050505090806001015490806002018054600181600116156101000203166002900480601f0160208091040260200160405190810160405280929190818152602001828054600181600116156101000203166002900480156117c45780601f10611799576101008083540402835291602001916117c4565b820191906000526020600020905b8154815290600101906020018083116117a757829003601f168201915b5050505050905083565b600d8380516020810182018051848252602083016020850120818352809550505050505082805160208101820180518482526020830160208501208183528095505050505050602052806000526040600020600092509250509054906101000a900460ff1681565b60006060829050600081511415611882576040517f08c379a0000000000000000000000000000000000000000000000000000000008152600401611879906145b8565b60405180910390fd5b6009604051806040016040528060098054905081526020018581525090806001815401808255809150506001900390600052602060002090600202016000909190919091506000820151816000015560208201518160010190805190602001906118ed929190613721565b505050600160098054905003915050919050565b6000600680549050905090565b600c8380516020810182018051848252602083016020850120818352809550505050505082805160208101820180518482526020830160208501208183528095505050505050818154811061196257600080fd5b9060005260206000200160009250925050505481565b600b602052806000526040600020600091509050806000018054600181600116156101000203166002900480601f016020809104026020016040519081016040528092919081815260200182805460018160011615610100020316600290048015611a245780601f106119f957610100808354040283529160200191611a24565b820191906000526020600020905b815481529060010190602001808311611a0757829003601f168201915b505050505090806001018054600181600116156101000203166002900480601f016020809104026020016040519081016040528092919081815260200182805460018160011615610100020316600290048015611ac25780601f10611a9757610100808354040283529160200191611ac2565b820191906000526020600020905b815481529060010190602001808311611aa557829003601f168201915b5050505050908060020154905083565b6060859050600081511415611b1c576040517f08c379a0000000000000000000000000000000000000000000000000000000008152600401611b1390614518565b60405180910390fd5b6060859050600081511415611b66576040517f08c379a0000000000000000000000000000000000000000000000000000000008152600401611b5d906144d8565b60405180910390fd5b6060859050600081511415611bb0576040517f08c379a0000000000000000000000000000000000000000000000000000000008152600401611ba7906145d8565b60405180910390fd5b6060859050600081511415611bfa576040517f08c379a0000000000000000000000000000000000000000000000000000000008152600401611bf1906144b8565b60405180910390fd5b33601088604051611c0b9190614278565b90815260200160405180910390208a604051611c279190614278565b9081526020016040518091039020600087815260200190815260200160002060003373ffffffffffffffffffffffffffffffffffffffff1673ffffffffffffffffffffffffffffffffffffffff16815260200190815260200160002060000160006101000a81548173ffffffffffffffffffffffffffffffffffffffff021916908373ffffffffffffffffffffffffffffffffffffffff16021790555086601088604051611cd59190614278565b90815260200160405180910390208a604051611cf19190614278565b9081526020016040518091039020600087815260200190815260200160002060003373ffffffffffffffffffffffffffffffffffffffff1673ffffffffffffffffffffffffffffffffffffffff1681526020019081526020016000206001019080519060200190611d63929190613721565b5087601088604051611d759190614278565b90815260200160405180910390208a604051611d919190614278565b9081526020016040518091039020600087815260200190815260200160002060003373ffffffffffffffffffffffffffffffffffffffff1673ffffffffffffffffffffffffffffffffffffffff1681526020019081526020016000206002019080519060200190611e03929190613721565b5085601088604051611e159190614278565b90815260200160405180910390208a604051611e319190614278565b9081526020016040518091039020600087815260200190815260200160002060003373ffffffffffffffffffffffffffffffffffffffff1673ffffffffffffffffffffffffffffffffffffffff1681526020019081526020016000206004019080519060200190611ea3929190613721565b506000600b60003373ffffffffffffffffffffffffffffffffffffffff1673ffffffffffffffffffffffffffffffffffffffff168152602001908152602001600020600201541415611fc9576040518060400160405280600781526020017f496e696369616c00000000000000000000000000000000000000000000000000815250601088604051611f359190614278565b90815260200160405180910390208a604051611f519190614278565b9081526020016040518091039020600087815260200190815260200160002060003373ffffffffffffffffffffffffffffffffffffffff1673ffffffffffffffffffffffffffffffffffffffff1681526020019081526020016000206005019080519060200190611fc3929190613721565b506122eb565b6001600b60003373ffffffffffffffffffffffffffffffffffffffff1673ffffffffffffffffffffffffffffffffffffffff1681526020019081526020016000206002015414156120ee576040518060400160405280600a81526020017f536f73706563686f736f0000000000000000000000000000000000000000000081525060108860405161205a9190614278565b90815260200160405180910390208a6040516120769190614278565b9081526020016040518091039020600087815260200190815260200160002060003373ffffffffffffffffffffffffffffffffffffffff1673ffffffffffffffffffffffffffffffffffffffff16815260200190815260200160002060050190805190602001906120e8929190613721565b506122ea565b6002600b60003373ffffffffffffffffffffffffffffffffffffffff1673ffffffffffffffffffffffffffffffffffffffff168152602001908152602001600020600201541415612213576040518060400160405280600881526020017f506f73697469766f00000000000000000000000000000000000000000000000081525060108860405161217f9190614278565b90815260200160405180910390208a60405161219b9190614278565b9081526020016040518091039020600087815260200190815260200160002060003373ffffffffffffffffffffffffffffffffffffffff1673ffffffffffffffffffffffffffffffffffffffff168152602001908152602001600020600501908051906020019061220d929190613721565b506122e9565b6040518060400160405280600881526020017f4e6567617469766f0000000000000000000000000000000000000000000000008152506010886040516122599190614278565b90815260200160405180910390208a6040516122759190614278565b9081526020016040518091039020600087815260200190815260200160002060003373ffffffffffffffffffffffffffffffffffffffff1673ffffffffffffffffffffffffffffffffffffffff16815260200190815260200160002060050190805190602001906122e7929190613721565b505b5b5b600e876040516122fb9190614278565b9081526020016040518091039020896040516123179190614278565b90815260200160405180910390206000868152602001908152602001600020339080600181540180825580915050600190039060005260206000200160009091909190916101000a81548173ffffffffffffffffffffffffffffffffffffffff021916908373ffffffffffffffffffffffffffffffffffffffff160217905550600f876040516123a79190614278565b9081526020016040518091039020896040516123c39190614278565b9081526020016040518091039020339080600181540180825580915050600190039060005260206000200160009091909190916101000a81548173ffffffffffffffffffffffffffffffffffffffff021916908373ffffffffffffffffffffffffffffffffffffffff160217905550601160003373ffffffffffffffffffffffffffffffffffffffff1673ffffffffffffffffffffffffffffffffffffffff16815260200190815260200160002060405180606001604052808b815260200187815260200189815250908060018154018082558091505060019003906000526020600020906003020160009091909190915060008201518160000190805190602001906124d1929190613721565b506020820151816001015560408201518160020190805190602001906124f8929190613721565b50505060001515600d8860405161250f9190614278565b90815260200160405180910390208a60405161252b9190614278565b9081526020016040518091039020600087815260200190815260200160002060009054906101000a900460ff161515141561262657600c876040516125709190614278565b90815260200160405180910390208960405161258c9190614278565b90815260200160405180910390208590806001815401808255809150506001900390600052602060002001600090919091909150556001600d886040516125d39190614278565b90815260200160405180910390208a6040516125ef9190614278565b9081526020016040518091039020600087815260200190815260200160002060006101000a81548160ff0219169083151502179055505b505050505050505050565b6000600980549050905090565b6009818154811061264e57600080fd5b9060005260206000209060020201600091509050806000015490806001018054600181600116156101000203166002900480601f0160208091040260200160405190810160405280929190818152602001828054600181600116156101000203166002900480156127005780601f106126d557610100808354040283529160200191612700565b820191906000526020600020905b8154815290600101906020018083116126e357829003601f168201915b5050505050905082565b601084805160208101820180518482526020830160208501208183528095505050505050838051602081018201805184825260208301602085012081835280955050505050506020528160005260406000206020528060005260406000206000935093505050508060000160009054906101000a900473ffffffffffffffffffffffffffffffffffffffff1690806001018054600181600116156101000203166002900480601f01602080910402602001604051908101604052809291908181526020018280546001816001161561010002031660029004801561282f5780601f106128045761010080835404028352916020019161282f565b820191906000526020600020905b81548152906001019060200180831161281257829003601f168201915b505050505090806002018054600181600116156101000203166002900480601f0160208091040260200160405190810160405280929190818152602001828054600181600116156101000203166002900480156128cd5780601f106128a2576101008083540402835291602001916128cd565b820191906000526020600020905b8154815290600101906020018083116128b057829003601f168201915b505050505090806003018054600181600116156101000203166002900480601f01602080910402602001604051908101604052809291908181526020018280546001816001161561010002031660029004801561296b5780601f106129405761010080835404028352916020019161296b565b820191906000526020600020905b81548152906001019060200180831161294e57829003601f168201915b505050505090806004018054600181600116156101000203166002900480601f016020809104026020016040519081016040528092919081815260200182805460018160011615610100020316600290048015612a095780601f106129de57610100808354040283529160200191612a09565b820191906000526020600020905b8154815290600101906020018083116129ec57829003601f168201915b505050505090806005018054600181600116156101000203166002900480601f016020809104026020016040519081016040528092919081815260200182805460018160011615610100020316600290048015612aa75780601f10612a7c57610100808354040283529160200191612aa7565b820191906000526020600020905b815481529060010190602001808311612a8a57829003601f168201915b505050505090806006018054600181600116156101000203166002900480601f016020809104026020016040519081016040528092919081815260200182805460018160011615610100020316600290048015612b455780601f10612b1a57610100808354040283529160200191612b45565b820191906000526020600020905b815481529060010190602001808311612b2857829003601f168201915b505050505090806007018054600181600116156101000203166002900480601f016020809104026020016040519081016040528092919081815260200182805460018160011615610100020316600290048015612be35780601f10612bb857610100808354040283529160200191612be3565b820191906000526020600020905b815481529060010190602001808311612bc657829003601f168201915b5050505050905088565b600160009054906101000a900473ffffffffffffffffffffffffffffffffffffffff1681565b60068181548110612c2357600080fd5b906000526020600020016000915054906101000a900473ffffffffffffffffffffffffffffffffffffffff1681565b606080606080612c613361351d565b612ca0576040517f08c379a0000000000000000000000000000000000000000000000000000000008152600401612c9790614558565b60405180910390fd5b612ca86137d0565b600460003373ffffffffffffffffffffffffffffffffffffffff1673ffffffffffffffffffffffffffffffffffffffff168152602001908152602001600020604051806080016040529081600082018054600181600116156101000203166002900480601f016020809104026020016040519081016040528092919081815260200182805460018160011615610100020316600290048015612d8b5780601f10612d6057610100808354040283529160200191612d8b565b820191906000526020600020905b815481529060010190602001808311612d6e57829003601f168201915b50505050508152602001600182018054600181600116156101000203166002900480601f016020809104026020016040519081016040528092919081815260200182805460018160011615610100020316600290048015612e2d5780601f10612e0257610100808354040283529160200191612e2d565b820191906000526020600020905b815481529060010190602001808311612e1057829003601f168201915b50505050508152602001600282018054600181600116156101000203166002900480601f016020809104026020016040519081016040528092919081815260200182805460018160011615610100020316600290048015612ecf5780601f10612ea457610100808354040283529160200191612ecf565b820191906000526020600020905b815481529060010190602001808311612eb257829003601f168201915b50505050508152602001600382018054600181600116156101000203166002900480601f016020809104026020016040519081016040528092919081815260200182805460018160011615610100020316600290048015612f715780601f10612f4657610100808354040283529160200191612f71565b820191906000526020600020905b815481529060010190602001808311612f5457829003601f168201915b5050505050815250509050806000015194508060200151935080606001519150806040015192505090919293565b600e84805160208101820180518482526020830160208501208183528095505050505050838051602081018201805184825260208301602085012081835280955050505050506020528160005260406000208181548110612fff57600080fd5b9060005260206000200160009350935050509054906101000a900473ffffffffffffffffffffffffffffffffffffffff1681565b6000601160008373ffffffffffffffffffffffffffffffffffffffff1673ffffffffffffffffffffffffffffffffffffffff168152602001908152602001600020805490509050919050565b60606009828154811061308e57fe5b90600052602060002090600202016001018054600181600116156101000203166002900480601f0160208091040260200160405190810160405280929190818152602001828054600181600116156101000203166002900480156131335780601f1061310857610100808354040283529160200191613133565b820191906000526020600020905b81548152906001019060200180831161311657829003601f168201915b50505050509050919050565b826010836040516131509190614278565b90815260200160405180910390208560405161316c9190614278565b9081526020016040518091039020600083815260200190815260200160002060003373ffffffffffffffffffffffffffffffffffffffff1673ffffffffffffffffffffffffffffffffffffffff16815260200190815260200160002060030190805190602001906131de929190613721565b5050505050565b6131ee3361351d565b1561322e576040517f08c379a000000000000000000000000000000000000000000000000000000000815260040161322590614598565b60405180910390fd5b6060849050600081511415613278576040517f08c379a000000000000000000000000000000000000000000000000000000000815260040161326f90614518565b60405180910390fd5b6132806137d0565b604051806080016040528087815260200186815260200185815260200184815250905080600460003373ffffffffffffffffffffffffffffffffffffffff1673ffffffffffffffffffffffffffffffffffffffff16815260200190815260200160002060008201518160000190805190602001906132ff929190613721565b50602082015181600101908051906020019061331c929190613721565b506040820151816002019080519060200190613339929190613721565b506060820151816003019080519060200190613356929190613721565b509050506007339080600181540180825580915050600190039060005260206000200160009091909190916101000a81548173ffffffffffffffffffffffffffffffffffffffff021916908373ffffffffffffffffffffffffffffffffffffffff160217905550505050505050565b600781815481106133d557600080fd5b906000526020600020016000915054906101000a900473ffffffffffffffffffffffffffffffffffffffff1681565b600080600f846040516134179190614278565b9081526020016040518091039020856040516134339190614278565b90815260200160405180910390208054905011156134c8576000600f8460405161345d9190614278565b9081526020016040518091039020856040516134799190614278565b9081526020016040518091039020838154811061349257fe5b9060005260206000200160009054906101000a900473ffffffffffffffffffffffffffffffffffffffff169050809150506134cc565b3390505b9392505050565b6000600b60003373ffffffffffffffffffffffffffffffffffffffff1673ffffffffffffffffffffffffffffffffffffffff16815260200190815260200160002060020181905550565b60006060600460008473ffffffffffffffffffffffffffffffffffffffff1673ffffffffffffffffffffffffffffffffffffffff1681526020019081526020016000206000018054600181600116156101000203166002900480601f0160208091040260200160405190810160405280929190818152602001828054600181600116156101000203166002900480156135f75780601f106135cc576101008083540402835291602001916135f7565b820191906000526020600020905b8154815290600101906020018083116135da57829003601f168201915b50505050509050606081905060008151141592505050919050565b60006060600360008473ffffffffffffffffffffffffffffffffffffffff1673ffffffffffffffffffffffffffffffffffffffff1681526020019081526020016000206000018054600181600116156101000203166002900480601f0160208091040260200160405190810160405280929190818152602001828054600181600116156101000203166002900480156136ec5780601f106136c1576101008083540402835291602001916136ec565b820191906000526020600020905b8154815290600101906020018083116136cf57829003601f168201915b50505050509050606081905060008151141592505050919050565b604051806040016040528060608152602001606081525090565b828054600181600116156101000203166002900490600052602060002090601f016020900481019282613757576000855561379e565b82601f1061377057805160ff191683800117855561379e565b8280016001018555821561379e579182015b8281111561379d578251825591602001919060010190613782565b5b5090506137ab91906137f8565b5090565b60405180606001604052806060815260200160608152602001600081525090565b6040518060800160405280606081526020016060815260200160608152602001606081525090565b5b808211156138115760008160009055506001016137f9565b5090565b6000813590506138248161479b565b92915050565b600082601f83011261383b57600080fd5b813561384e61384982614696565b614665565b9150808252602083016020830185838301111561386a57600080fd5b613875838284614746565b50505092915050565b60008135905061388d816147b2565b92915050565b6000602082840312156138a557600080fd5b60006138b384828501613815565b91505092915050565b600080604083850312156138cf57600080fd5b60006138dd85828601613815565b92505060206138ee8582860161387e565b9150509250929050565b60006020828403121561390a57600080fd5b600082013567ffffffffffffffff81111561392457600080fd5b6139308482850161382a565b91505092915050565b6000806040838503121561394c57600080fd5b600083013567ffffffffffffffff81111561396657600080fd5b6139728582860161382a565b925050602083013567ffffffffffffffff81111561398f57600080fd5b61399b8582860161382a565b9150509250929050565b600080600080608085870312156139bb57600080fd5b600085013567ffffffffffffffff8111156139d557600080fd5b6139e18782880161382a565b945050602085013567ffffffffffffffff8111156139fe57600080fd5b613a0a8782880161382a565b935050604085013567ffffffffffffffff811115613a2757600080fd5b613a338782880161382a565b925050606085013567ffffffffffffffff811115613a5057600080fd5b613a5c8782880161382a565b91505092959194509250565b600080600080600060a08688031215613a8057600080fd5b600086013567ffffffffffffffff811115613a9a57600080fd5b613aa68882890161382a565b955050602086013567ffffffffffffffff811115613ac357600080fd5b613acf8882890161382a565b945050604086013567ffffffffffffffff811115613aec57600080fd5b613af88882890161382a565b935050606086013567ffffffffffffffff811115613b1557600080fd5b613b218882890161382a565b9250506080613b328882890161387e565b9150509295509295909350565b60008060008060808587031215613b5557600080fd5b600085013567ffffffffffffffff811115613b6f57600080fd5b613b7b8782880161382a565b945050602085013567ffffffffffffffff811115613b9857600080fd5b613ba48782880161382a565b935050604085013567ffffffffffffffff811115613bc157600080fd5b613bcd8782880161382a565b9250506060613bde8782880161387e565b91505092959194509250565b600080600060608486031215613bff57600080fd5b600084013567ffffffffffffffff811115613c1957600080fd5b613c258682870161382a565b935050602084013567ffffffffffffffff811115613c4257600080fd5b613c4e8682870161382a565b9250506040613c5f8682870161387e565b9150509250925092565b60008060008060808587031215613c7f57600080fd5b600085013567ffffffffffffffff811115613c9957600080fd5b613ca58782880161382a565b945050602085013567ffffffffffffffff811115613cc257600080fd5b613cce8782880161382a565b9350506040613cdf8782880161387e565b9250506060613cf087828801613815565b91505092959194509250565b60008060008060808587031215613d1257600080fd5b600085013567ffffffffffffffff811115613d2c57600080fd5b613d388782880161382a565b945050602085013567ffffffffffffffff811115613d5557600080fd5b613d618782880161382a565b9350506040613d728782880161387e565b9250506060613d838782880161387e565b91505092959194509250565b600060208284031215613da157600080fd5b6000613daf8482850161387e565b91505092915050565b613dc1816146fe565b82525050565b613dd081614710565b82525050565b6000613de1826146c6565b613deb81856146d1565b9350613dfb818560208601614755565b613e048161478a565b840191505092915050565b6000613e1a826146c6565b613e2481856146e2565b9350613e34818560208601614755565b613e3d8161478a565b840191505092915050565b6000613e53826146c6565b613e5d81856146f3565b9350613e6d818560208601614755565b80840191505092915050565b6000613e86601c836146e2565b91507f456c2070756573746f206e6f2070756564652073657220766163696f000000006000830152602082019050919050565b6000613ec66025836146e2565b91507f4c6120686f726120646520656e7472616461206e6f207075656465207365722060008301527f766163696f0000000000000000000000000000000000000000000000000000006020830152604082019050919050565b6000613f2c6028836146e2565b91507f536f6c6f207065726d697469646f206120616c756d6e6f73206e6f206d61747260008301527f6963756c61646f730000000000000000000000000000000000000000000000006020830152604082019050919050565b6000613f92601c836146e2565b91507f456c206e6f6d627265206e6f2070756564652073657220766163696f000000006000830152602082019050919050565b6000613fd26025836146e2565b91507f536f6c6f207065726d697469646f206120616c756d6e6f73206d61747269637560008301527f6c61646f730000000000000000000000000000000000000000000000000000006020830152604082019050919050565b60006140386023836146e2565b91507f536f6c6f207065726d697469646f20612070726f66657320726567697374726160008301527f646f7300000000000000000000000000000000000000000000000000000000006020830152604082019050919050565b600061409e6025836146e2565b91507f4e6f207365207065726d697465206c6120726563657063696f6e20646520646960008301527f6e65726f2e0000000000000000000000000000000000000000000000000000006020830152604082019050919050565b60006141046026836146e2565b91507f536f6c6f207065726d697469646f20612070726f666573206e6f20726567697360008301527f747261646f7300000000000000000000000000000000000000000000000000006020830152604082019050919050565b600061416a6024836146e2565b91507f456c206e6f6d6272652064656c206c6162206e6f20707565646520736572207660008301527f6163696f000000000000000000000000000000000000000000000000000000006020830152604082019050919050565b60006141d0601b836146e2565b91507f4c61206665636861206e6f2070756564652073657220766163696f00000000006000830152602082019050919050565b600060608301600083015184820360008601526142208282613dd6565b9150506020830151848203602086015261423a8282613dd6565b915050604083015161424f604086018261425a565b508091505092915050565b6142638161473c565b82525050565b6142728161473c565b82525050565b60006142848284613e48565b915081905092915050565b60006020820190506142a46000830184613db8565b92915050565b6000610100820190506142c0600083018b613db8565b81810360208301526142d2818a613e0f565b905081810360408301526142e68189613e0f565b905081810360608301526142fa8188613e0f565b9050818103608083015261430e8187613e0f565b905081810360a08301526143228186613e0f565b905081810360c08301526143368185613e0f565b905081810360e083015261434a8184613e0f565b90509998505050505050505050565b600060208201905061436e6000830184613dc7565b92915050565b6000602082019050818103600083015261438e8184613e0f565b905092915050565b600060408201905081810360008301526143b08185613e0f565b905081810360208301526143c48184613e0f565b90509392505050565b600060808201905081810360008301526143e78187613e0f565b905081810360208301526143fb8186613e0f565b9050818103604083015261440f8185613e0f565b905081810360608301526144238184613e0f565b905095945050505050565b600060608201905081810360008301526144488186613e0f565b9050818103602083015261445c8185613e0f565b905061446b6040830184614269565b949350505050565b6000606082019050818103600083015261448d8186613e0f565b905061449c6020830185614269565b81810360408301526144ae8184613e0f565b9050949350505050565b600060208201905081810360008301526144d181613e79565b9050919050565b600060208201905081810360008301526144f181613eb9565b9050919050565b6000602082019050818103600083015261451181613f1f565b9050919050565b6000602082019050818103600083015261453181613f85565b9050919050565b6000602082019050818103600083015261455181613fc5565b9050919050565b600060208201905081810360008301526145718161402b565b9050919050565b6000602082019050818103600083015261459181614091565b9050919050565b600060208201905081810360008301526145b1816140f7565b9050919050565b600060208201905081810360008301526145d18161415d565b9050919050565b600060208201905081810360008301526145f1816141c3565b9050919050565b600060208201905081810360008301526146128184614203565b905092915050565b600060208201905061462f6000830184614269565b92915050565b600060408201905061464a6000830185614269565b818103602083015261465c8184613e0f565b90509392505050565b6000604051905081810181811067ffffffffffffffff8211171561468c5761468b614788565b5b8060405250919050565b600067ffffffffffffffff8211156146b1576146b0614788565b5b601f19601f8301169050602081019050919050565b600081519050919050565b600082825260208201905092915050565b600082825260208201905092915050565b600081905092915050565b60006147098261471c565b9050919050565b60008115159050919050565b600073ffffffffffffffffffffffffffffffffffffffff82169050919050565b6000819050919050565b82818337600083830152505050565b60005b83811015614773578082015181840152602081019050614758565b83811115614782576000848401525b50505050565bfe5b6000601f19601f8301169050919050565b6147a4816146fe565b81146147af57600080fd5b50565b6147bb8161473c565b81146147c657600080fd5b5056fea26469706673582212201f3b12bdf87d58d60e9b84c7f27f3ff4580576daaf628a3bc24f4955a827244564736f6c63430007040033",
  "immutableReferences": {},
  "source": "pragma solidity ^0.7.4;\r\npragma experimental ABIEncoderV2;//enabled when passing an array of string(struct) as a function paramete\r\n\r\n\r\n/*\r\n*falta : \r\n*crear lo de las asignaturas con los laborarios y puestos a los que perteneces y las caracteristicas que desepean cada puesto \r\n*crear las reservas , se va a reservar por semana un puesto de un determinado laboratorio \r\n*/\r\n\r\n\r\ncontract ReslabEtsit {\r\n    \r\n   \r\n    /**\r\n     * address del profesor que ha desplegado el contrato.\r\n     * El contrato lo despliega el profesor.\r\n     */\r\n    address public owner;\r\n    address public profesorP;\r\n     \r\n    \r\n    /// Nombre de la asignatura\r\n    //string public nombre;\r\n    \r\n   \r\n    \r\n    /**\r\n     * Datos de un puesto\r\n     */\r\n     \r\n     \r\n     \r\n    enum TipoSO {windows, macos , linux}\r\n    \r\n    enum TipoConexionesRed { cable, inalambrico} // array de strings \r\n    \r\n   \r\n   // enum Horario { turnom ,turnot}//poenr horas y turnos en enum???? array de horas \r\n    \r\n    struct Puesto {\r\n        string nombre;\r\n        //caracteristicas\r\n        TipoConexionesRed tipoConexionesRed;\r\n        TipoSO tipoSO;\r\n       // Laboratorio laboratorio;\r\n       \r\n    }\r\n    \r\n    \r\n    \r\n    \r\n    \r\n    /// puestos de la asignatura.\r\n   // Puesto[] public puestos;\r\n    \r\n    //labs de la asignatura\r\n    \r\n   // Laboratorio[] public laboratorios;\r\n   \r\n   \r\n    /**\r\n    * datos de todos los labs con sus parametro en la pantalla de inicio\r\n    * DUDA -> QUIERO PONERARRAY DE STRING DE ASIGNATURA!!\r\n    **/\r\n     struct DatosLaboratorio {\r\n        uint labId;\r\n        string nombreL;\r\n        //string[] asignaturaL;\r\n       \r\n    }\r\n    \r\n    /**\r\n    * datos del alumno que se registra \r\n    **/\r\n   // datos persona \r\n    struct DatosPersona {\r\n\taddress dir;\r\n    }\r\n\r\n    /// Datos de un alumno.\r\n    struct DatosAlumno {\r\n        string nombre;\r\n        string email;\r\n        \r\n    }\r\n    \r\n    /**\r\n     * Datos profe que se registra \r\n     * */\r\n     \r\n    \r\n    struct DatosProfesor{\r\n        string nombreP;\r\n        string emailP;\r\n        string asignaturaP;\r\n        string departamentoP;\r\n    }\r\n    \r\n    \r\n    \r\n    /**\r\n     * Datos de lasegunda pantalla donde te aparcene el estado de reserva, puestos etc del lab)\r\n     * */\r\n    struct PinchaLab {\r\n        \r\n\taddress dir;\r\n\t\r\n\tstring fecha;\r\n\tstring entradaTurno;\r\n\tstring salidaTurno;\r\n\tstring puesto;\r\n        \r\n\tstring estado;\r\n\tstring asignatura;\r\n\tstring info; //enumerado del sistema operativo!!!!!!!!!!!\r\n    }\r\n    \r\n   /* struct DatosAsignatura{\r\n        string nombre;\r\n        Laboratorio[] laboratorio;\r\n        Puesto[] puesto;\r\n        //credito semanal\r\n        //Matriculas matriculados;\r\n    }\r\n    */\r\n    \r\n    \r\n    \r\n    /**\r\n     * Datos de los datos de las ultimas reservas registradas // FALTAN PUESTO\r\n     * */\r\n     \r\n     struct UltimaReserva{\r\n         string lab;\r\n         uint turno;\r\n         string fecha;\r\n         \r\n         \r\n     }\r\n     \r\n     /**\r\n      * Datos de mireserva //FALTA PUESTO\r\n      * */\r\n      \r\n      struct ReservaAlumno{\r\n          string lab;\r\n          string fecha;\r\n          uint estado;\r\n          //string puesto;\r\n\r\n      }\r\n      \r\n      // acceder a los datos de una persona dada su direccion\r\n      mapping (address => DatosPersona) public datosPersona;\r\n    \r\n    /// Acceder a los datos de un alumno dada su direccion.\r\n    mapping (address => DatosAlumno) public datosAlumno;\r\n    \r\n      /// Acceder a los datos de un profe dada su direccion.\r\n    mapping (address => DatosProfesor) public datosProfesor;\r\n    \r\n    //mapping (address => DatosAsignatura)  datosAsignatura;\r\n    \r\n    \r\n    mapping (address => DatosLaboratorio)  datosLaboratorio;\r\n\r\n    //mapping(uint => Laboratorio) public labPuestos; //acceder a los puestos del lab dada la info del lab\r\n  \r\n\r\n    \r\n    // Array con las direcciones de los alumnos matriculados.\r\n    address[] public matriculas;\r\n    \r\n    \r\n    //array con las direcciones de los profes registrados \r\n    address[] public profesRegistrados;\r\n    \r\n    //Array credito semanal \r\n    address [] public creditosemanal;\r\n    \r\n    //address[] public asignaturasRegistradas;\r\n    \r\n    \r\n    // labs en la escuela\r\n    DatosLaboratorio[] public laboratoriosRegistrados;\r\n    //reservas de la escuela\r\n    \r\n    UltimaReserva[] public reservasLab;\r\n        \r\n   \r\n\r\n     //reserva para un usuario \r\n  \r\n    mapping (address => ReservaAlumno) public reservasAlumno;\r\n    \r\n    \r\n    //turno de la escuela\r\n\r\n    mapping (string => mapping (string  => uint[] )) public turnos;\r\n    \r\n        /// Mapping para evitar duplicados de turnos.\r\n    mapping (string => mapping (string  => mapping ( uint => bool ))) public turnos_existentes;\r\n    \r\n    /// Direcciones de las personas que han asistido a algun aula en alguna de las fechas y en algun turno.\r\n    mapping (string => mapping (string => mapping (uint => address[] ))) public personas;\r\n   \r\n    /// Direcciones de las personas que han asistido a algun aula en alguna de las fechas.\r\n    mapping (string => mapping (string => address[] )) public personasTotales;\r\n    \r\n    // Dada la fecha actual, el nombre del aula, el turno y la direccin de la persona, devuelve\r\n    // la entrada correspondiente a dicha persona.\r\n    mapping (string => mapping (string => mapping (uint => mapping (address => PinchaLab)))) public datosLab;\r\n\r\n    \r\n    /// Ultimas entradas de cada persona.\r\n    mapping (address => UltimaReserva[] ) public ultimosRegistros;\r\n\r\n  // mapping(uint => bool) public registeredLaboratorios; //saberr si un lab esta registrado\r\n   // mapping(uint => Laboratorio) public labPuestos; //acceder a los puestos del lab dada la info del lab \r\n    // labId -> mes ->semana-> hora -> waitingList[]\r\n /*   mapping(uint => mapping(uint => mapping(uint => mapping(uint => address[])))) public reservations;\r\n    // labId -> mes ->semana-> hora -> waitingListLength\r\n    mapping(uint => mapping(uint => mapping(uint => mapping(uint => uint)))) public reservationLengths;\r\n    // address -> _labID -> mes ->semana-> hora -> bool*/\r\n /*   mapping(address => mapping(uint => mapping(uint => mapping(uint => mapping(uint => bool))))) public isLabReserved;\r\n    event Reservation(\r\n        address indexed _from,\r\n        uint _labID,\r\n        uint _mes,\r\n        uint _semana,\r\n        uint _hora\r\n    );\r\n    event Cancellation(\r\n        address indexed _from,\r\n        uint _labID,\r\n        uint _mes,\r\n        uint _semana,\r\n        uint _hora\r\n    );\r\n    \r\n    \r\n  */\r\n    \r\n    \r\n    \r\n    \r\n    /*\r\n     * Constructor.\r\n     * \r\n     * @param _nombre Nombre de la asignatura.\r\n     * //habria qu eponer nombre puesto /lab /alumno etc \r\n    \r\n     */\r\n    /*constructor(string memory _nombre) {\r\n        \r\n        bytes memory bn = bytes(_nombre);\r\n        require(bn.length != 0, \"El nombre de la asignatura no puede ser vacio\");\r\n       \r\n       \r\n      \r\n        owner = msg.sender;\r\n        nombre = _nombre;\r\n        \r\n        \r\n     \r\n        \r\n    }*/\r\n    \r\n    constructor()  {\r\n        owner = msg.sender;\r\n    } //?????????????????????????????????\r\n\r\n    \r\n    \r\n    \r\n    \r\n    \r\n    /**\r\n     * El numero depuestos creadas.\r\n     *\r\n     * @return El numero de puestos creadas.\r\n     */\r\n   /* function puestosLength() public view returns(uint) {\r\n        return puestos.length;\r\n    }\r\n    \r\n    \r\n    \r\n     /**\r\n     * El numero de labs  creadas.\r\n     *\r\n     * @return El numero de labs creadas.\r\n     */\r\n    function laboratoriosLength() public view returns(uint) {\r\n        return laboratoriosRegistrados.length;\r\n    }\r\n    \r\n    \r\n    \r\n        /**\r\n     * El numero de reservas existentes.\r\n     *\r\n     * @return El numero de alertas existentes.\r\n     */\r\n    function reservasLength() public view returns(uint) {\r\n        return reservasLab.length;\r\n\r\n    }\r\n\r\n\t  /**\r\n     * El numero de ultimosRegistros existentes.\r\n     *\r\n     * @return El numero de ultimosRegistros existentes.\r\n     */\r\n    function ultimosRegistrosLength(address dir) public view returns(uint) {\r\n\treturn ultimosRegistros[dir].length;\r\n    }\r\n        \r\n    /**\r\n     * Permite obtener la longitud del array de personasTotales.\r\n     * \r\n     */\r\n    function personasLength(string memory _nombre, string memory _fecha) public view returns(uint) {\r\n\r\n\tuint longitud = personasTotales[_fecha][_nombre].length;\r\n\r\n\tif(longitud == 0){\r\n\t  longitud = 1;\r\n\t}\r\n\r\n  \treturn longitud;\r\n\r\n    }\r\n\r\n\r\n\r\n    /**\r\n     * Permite obtener un address del array de personas.\r\n     * \r\n     */\r\n    function dirPersonas(string memory _nombre, string memory _fecha, uint _indice) public view returns(address) {\r\n\r\n\tif(personasTotales[_fecha][_nombre].length > 0){\r\n\taddress _dirUno = personasTotales[_fecha][_nombre][_indice];\r\n\treturn _dirUno;\r\n\r\n\t}else{\r\n\treturn msg.sender;\r\n\t}\t\t\t\r\n\t\r\n    }\r\n    \r\n        /**\r\n     * Obtiene los datos de una persona registrada.\r\n     * \r\n     * @param persona La direccion de una persona.\r\n     * \r\n     * @return los datos de una persona registrada.\r\n     */\r\n    function obtenerDatosPersona(address persona)  public view returns(address) {\r\n\t\r\n\t\r\n\tif(!estaRegistrado(persona)){\r\n\treturn address(0);\r\n\t} else{\t\r\n\treturn datosPersona[persona].dir;\r\n\t}\r\n\t\r\n        \r\n        \r\n    } \r\n    \r\n\r\n\r\n        /**\r\n     * La alerta (si la hay) de un alumno.\r\n     *\r\n     */\r\n    function reservas(address _dir) public view returns (ReservaAlumno memory) {\r\n\r\n\treturn reservasAlumno[_dir]; \r\n    }\r\n\r\n\r\n\r\n    /**\r\n     * Eliminar la alerta de un usuario\r\n     *\r\n     */\r\n    function reiniciarReserva() public {\r\n\r\n\treservasAlumno[msg.sender].estado = 0 ;\r\n\r\n\r\n    }\r\n\r\n        /**\r\n     * El aula del que se desea ver el historial.\r\n     *\r\n     */\r\n    function LabPulsado(uint x) public view returns (string memory) {\r\n\r\n\treturn laboratoriosRegistrados[x].nombreL; \r\n    }\r\n\r\n    \r\n    /**\r\n     * Crear un lab. \r\n     *\r\n     * Las labss se meteran en el array labss, y nos referiremos a ellas por su posicion en el array.\r\n     * \r\n     * @param _nombre El nombre del aula.\r\n     * \r\n     * @return La posicion en el array aulas,\r\n     */\r\n    \r\n     /**\r\n     * Las personas pueden registrar su asistencia a un lab con el metodo guardarReserva.\r\n     * \r\n     * Impedir que se pueda meter un nombre vacio.\r\n     *\r\n     *  _nombre El nombre del aula. \r\n     * _ent Hora de entrada al aula.\r\n     *  _fecha Fecha de entrada al aula.\r\n     *  _puesto Puesto en el aula.\r\n     */\r\n    function guardarReserva(string memory _nombre, string memory _entradaTurno, string memory _fecha, string memory _puesto, uint _turno) public {\r\n        \r\n\t\r\n    bytes memory a = bytes(_nombre);\r\n    require(a.length != 0, \"El nombre no puede ser vacio\");\r\n\r\n\tbytes memory b = bytes(_entradaTurno);\r\n\trequire(b.length != 0, \"La hora de entrada no puede ser vacio\");\r\n\r\n\tbytes memory c = bytes(_fecha);\r\n\trequire(c.length != 0, \"La fecha no puede ser vacio\");\r\n\r\n\tbytes memory d = bytes(_puesto);\r\n        require(d.length != 0, \"El puesto no puede ser vacio\");\r\n\r\n\tdatosLab[_fecha][_nombre][_turno][msg.sender].dir = msg.sender;\r\n\tdatosLab[_fecha][_nombre][_turno][msg.sender].fecha = _fecha;\r\n\tdatosLab[_fecha][_nombre][_turno][msg.sender].entradaTurno = _entradaTurno; \r\n\tdatosLab[_fecha][_nombre][_turno][msg.sender].puesto = _puesto;\r\n \t\r\n\tif (reservasAlumno[msg.sender].estado==0) {\r\n   \tdatosLab[_fecha][_nombre][_turno][msg.sender].estado = \"Inicial\";\r\n\t} else if (reservasAlumno[msg.sender].estado==1) {\r\n   \tdatosLab[_fecha][_nombre][_turno][msg.sender].estado = \"Sospechoso\";\r\n\t} else if (reservasAlumno[msg.sender].estado==2) {\r\n   \tdatosLab[_fecha][_nombre][_turno][msg.sender].estado = \"Positivo\";\r\n\t} else {\r\n   \tdatosLab[_fecha][_nombre][_turno][msg.sender].estado = \"Negativo\";\r\n\t}\r\n\r\n        personas[_fecha][_nombre][_turno].push(msg.sender);\r\n\tpersonasTotales[_fecha][_nombre].push(msg.sender);\r\n\tultimosRegistros[msg.sender].push(UltimaReserva(_nombre,_turno,_fecha));\r\n\t\r\n\tif (turnos_existentes[_fecha][_nombre][_turno] == false){\r\n\t   turnos[_fecha][_nombre].push(_turno);\r\n\t   turnos_existentes[_fecha][_nombre][_turno] = true;\r\n\t}\r\n\r\n        \r\n    }\r\n    \r\n\r\n    /**\r\n     * Las personas pueden registrar su salida del aula con el metodo guardarSalida.\r\n     * \r\n     * Impedir que se pueda meter un nombre vacio.\r\n     *\r\n     * _nombre El nombre del aula. \r\n     *  _sal Hora de salida al aula.\r\n     *  _fecha Fecha de entrada al aula.\r\n     */\r\n    function guardarSalida(string memory _nombre, string memory _salidaTurno, string memory _fecha, uint _turno) public {\r\n\r\n\tdatosLab[_fecha][_nombre][_turno][msg.sender].salidaTurno = _salidaTurno;\r\n        \r\n    }\r\n\r\n\r\n\r\n    /**\r\n     * El administrador puede eliminar un aula con el metodo eliminarAula.\r\n     * \r\n     * Impedir que se pueda meter un indice vacio.\r\n     *\r\n     *  _indice El nombre del aula. \r\n     */\r\n    \r\n    \r\n    \r\n    /*\r\n     * Crear un puesto\r\n     *\r\n     * Llos puestos se meteran en el array de puestos y nos refereimos por su posicion en el array\r\n     *  _nombre El nombre de puesto \r\n     \r\n   \r\n     * \r\n     * La posicion en el array lab\r\n     */\r\n     \r\n     \r\n     //poner lo del laboratorio pero me dice lo de use pragma experimental ABIENCODERV2\r\n    //function creaPuesto(string memory _nombre,TipoConexionesRed  _tipoConexionesRed,TipoSO  _TipoSO/*Laboratorio _laboratorio*/) soloProfesor public returns (uint) {\r\n        \r\n     //  bytes memory bn = bytes(_nombre);\r\n       // require(bn.length != 0, \"El nombre de la puesto no puede ser vacio\");\r\n        \r\n        //puestos.push(Puesto(_nombre,_tipoConexionesRed,_TipoSO/*_laboratorio*/));\r\n        //return puestos.length - 1;\r\n  //  }\r\n    \r\n    \r\n    \r\n    \r\n        \r\n     //poner lo del laboratorio pero me dice lo de use pragma experimental ABIENCODERV2\r\n    function creaLaboratorio(string memory _nombreL)  public returns (uint) {\r\n        \r\n        bytes memory bn = bytes(_nombreL);\r\n        require(bn.length != 0, \"El nombre del lab no puede ser vacio\");\r\n        \r\n        laboratoriosRegistrados.push(DatosLaboratorio(laboratoriosRegistrados.length,_nombreL));\r\n        return laboratoriosRegistrados.length - 1;\r\n    }\r\n    \r\n    \r\n    \r\n    \r\n        \r\n    \r\n \r\n     /**\r\n     * El numero de alumnos matriculados.\r\n     *\r\n     * @return El numero de alumnos matriculados.\r\n     */\r\n    function matriculasLength() public view returns(uint) {\r\n        return matriculas.length;\r\n    }\r\n    \r\n    \r\n    \r\n      /**\r\n     * El numero de profes registrados.\r\n     *\r\n     * .\r\n     */\r\n    function profesRegistradosLength() public view returns(uint) {\r\n        return profesRegistrados.length;\r\n    }\r\n    \r\n    \r\n       /**\r\n     * El numero de asignaturas registrados.\r\n     *\r\n     * .\r\n     */\r\n    /*function asignaturasRegistradasLength() public view returns(uint) {\r\n        return asignaturasRegistradas.length;\r\n    }\r\n    */\r\n    \r\n    \r\n    \r\n    \r\n      /**\r\n     * numero de credito semanal \r\n     *\r\n     * @return El numero de credito semanal \r\n     * \r\n     */\r\n     /*function creditosemanalLength() public view returns(uint) {\r\n        return creditosemanal.length;\r\n    }???????????????????????????*/\r\n     \r\n    \r\n    \r\n    \r\n    \r\n    /**\r\n     * Los alumnos pueden automatricularse con el metodo automatricula.\r\n     * \r\n     * Impedir que se pueda meter un nombre vacio.\r\n     *\r\n     * @param _nombre El nombre del alumno. \r\n     * @param _email  El email del alumno.\r\n     */\r\n    function automatricula(string memory _nombre, string memory _email) noMatriculados public {\r\n        //revert(\"siempre falla\");\r\n        bytes memory b = bytes(_nombre);\r\n        require(b.length != 0, \"El nombre no puede ser vacio\");\r\n        \r\n        DatosAlumno memory datos = DatosAlumno(_nombre, _email);\r\n        \r\n        datosAlumno[msg.sender] = datos;\r\n        \r\n        matriculas.push(msg.sender);\r\n        \r\n    }\r\n    \r\n    \r\n    \r\n  \r\n    function autoRegistro(string memory _nombreP, string memory _emailP,string memory _asignaturaP,string memory _departamentoP ) noRegistrados public {\r\n        \r\n        bytes memory b = bytes(_nombreP);\r\n        require(b.length != 0, \"El nombre no puede ser vacio\");\r\n        \r\n        DatosProfesor memory datosP = DatosProfesor(_nombreP, _emailP,_asignaturaP,_departamentoP);\r\n        \r\n        datosProfesor[msg.sender] = datosP;\r\n        \r\n       profesRegistrados.push(msg.sender);\r\n        \r\n    }\r\n    \r\n    \r\n    \r\n    \r\n    \r\n    \r\n    \r\n    \r\n    \r\n    \r\n    \r\n    \r\n    /**\r\n     * Permite a un alumno obtener sus propios datos.\r\n     * \r\n     * @return _nombre El nombre del alumno que invoca el metodo.\r\n     * @return _email  El email del alumno que invoca el metodo.\r\n     */\r\n    function quienSoy() soloMatriculados public view returns (string memory _nombre, string memory _email) {\r\n        DatosAlumno memory datos = datosAlumno[msg.sender];\r\n        _nombre = datos.nombre;\r\n        _email = datos.email;\r\n    }\r\n    \r\n    \r\n      function quienSoyP() soloRegistrados public view returns (string memory _nombreP, string memory _emailP,string memory _asignaturaP,string memory _departamentoP) {\r\n        DatosProfesor memory datosP = datosProfesor[msg.sender];\r\n        _nombreP = datosP.nombreP;\r\n        _emailP = datosP.emailP;\r\n        _departamentoP = datosP.departamentoP;\r\n        _asignaturaP = datosP.asignaturaP;\r\n    }\r\n    \r\n    \r\n    \r\n\r\n    \r\n    \r\n    /**\r\n     * Consulta si una direccion pertenece a un alumno matriculado.\r\n     * \r\n     * @param alumno La direccion de un alumno.\r\n     * \r\n     * @return true si es una alumno matriculado.\r\n     */\r\n    function estaMatriculado(address alumno) private view returns (bool) {\r\n      \r\n        string memory _nombre = datosAlumno[alumno].nombre;\r\n        \r\n        bytes memory b = bytes(_nombre);\r\n        \r\n        return b.length != 0;\r\n    } \r\n    \r\n    \r\n       function estaRegistrado(address profesor) private view returns (bool) {\r\n      \r\n        string memory _nombreP = datosProfesor[profesor].nombreP;\r\n        \r\n        bytes memory b = bytes(_nombreP);\r\n        \r\n        return b.length != 0;\r\n    } \r\n    \r\n    \r\n    \r\n    \r\n    //como hacer para que te devuelva los puestos segun asignatura \r\n    \r\n    /*function getPuestos (string asignatura) soloMatriculados public view returns (\r\n        string nombre, TipoConexionesRed tipoConexionesRed,TipoSO tipoSO)\r\n         \r\n         require (asignatura.length!=0,\"no vacio\");\r\n         \r\n         Puesto memory puesto= tipoConexionesRed[msg.sender][asignatura];\r\n         //meter tb tipoSO\r\n         tipoConexionesRed=Puesto.tipoConexionesRed\r\n         tipoSO=Puesto.tipoSO;\r\n         \r\n    // con laboratorios tb ! */\r\n   \r\n    \r\n   //RESERVASSSSSSSSSSSSSSSSSS\r\n   \r\n   \r\n   \r\n   \r\n   /*function addLab(uint labId, uint maxPuestos) public {\r\n        require(registeredLaboratorios[labId] == false, \"lab has already been registered\");\r\n        require(msg.sender == owner, \"You are not the owner\");\r\n        labPuestos[labId] = Laboratorio({\r\n            labId: labId,\r\n            maxPuestos: maxPuestos\r\n        });\r\n        registeredLaboratorios[labId] = true;\r\n    }\r\n    */\r\n   /* function addReservation(uint   _labID, uint mes,uint semana, uint hora) public {\r\n        require(registeredLaboratorios[_labID] == true, \"lab does not exist\");\r\n        //require(puestoId < labPuestos[labId].maxPuestos, \"Puesto does not exist\");\r\n        require(\r\n            isLabReserved[msg.sender][_labID][mes][semana][hora] == false, \r\n            \"You already have a reservation for this lab at this time\"\r\n        );\r\n        reservations[_labID][mes][semana][hora] .push(msg.sender);\r\n        reservationLengths[_labID][mes][semana][hora]  += 1;\r\n        isLabReserved[msg.sender][_labID][mes][semana][hora] = true;\r\n        emit Reservation(msg.sender, _labID, mes, semana,hora);\r\n    }\r\n    function cancelReservation(uint _labID, uint mes,uint semana, uint hora) public {\r\n        require(registeredLaboratorios[_labID] == true, \"lab does not exist\");\r\n       // require(puestoId < labPuestos[_labID].maxPuestos, \"Puesto does not exist\");\r\n        require(\r\n            isLabReserved[msg.sender][_labID][mes][semana][hora] == true, \r\n            \"You don't have a reservation for this Lab\"\r\n        );\r\n        for (uint i = 0; i < reservations[_labID][mes][semana][hora].length; i++) {\r\n            if (reservations[_labID][mes][semana][hora][i] == msg.sender) {\r\n                delete reservations[_labID][mes][semana][hora][i];\r\n                break;\r\n            }\r\n        }\r\n        reservationLengths[_labID][mes][semana][hora] -= 1;\r\n        isLabReserved[msg.sender][_labID][mes][semana][hora] = false;\r\n        emit Cancellation(msg.sender, _labID, mes, semana,hora);\r\n    } */\r\n    \r\n    /**\r\n     * Modificador para que una funcion solo la pueda ejecutar el profesor.\r\n     * \r\n     *\r\n     */\r\n    modifier soloProfesor() {\r\n        \r\n        require(msg.sender == profesorP, \"Solo permitido al profesor\");\r\n        _;\r\n    }\r\n    \r\n    \r\n    /**\r\n     * Modificador para que una funcion solo la pueda ejecutar un alumno matriculado.\r\n     */\r\n    modifier soloMatriculados() {\r\n        \r\n        require(estaMatriculado(msg.sender), \"Solo permitido a alumnos matriculados\");\r\n        _;\r\n    }\r\n    \r\n    \r\n      modifier soloRegistrados() {\r\n        \r\n        require(estaRegistrado(msg.sender), \"Solo permitido a profes registrados\");\r\n        _;\r\n    }\r\n    \r\n    \r\n \r\n    /**\r\n     * Modificador para que una funcion solo la pueda ejecutar un alumno no matriculado aun.\r\n     */\r\n    modifier noMatriculados() {\r\n        \r\n        require(!estaMatriculado(msg.sender), \"Solo permitido a alumnos no matriculados\");\r\n        _;\r\n    }\r\n    \r\n    \r\n    \r\n      modifier noRegistrados() {\r\n        \r\n        require(!estaRegistrado(msg.sender), \"Solo permitido a profes no registrados\");\r\n        _;\r\n    }\r\n    \r\n    \r\n       receive() external payable {\r\n        revert(\"No se permite la recepcion de dinero.\");\r\n    }\r\n}",
  "sourcePath": "C:/Users/Paula Huertas/reslabetsit/contracts/ReslabEtsit.sol",
  "compiler": {
    "name": "solc",
    "version": "0.7.4+commit.3f05b770.Emscripten.clang"
  },
  "schemaVersion": "3.3.4",
  "updatedAt": "2021-11-10T20:36:58.313Z",
  "networkType": "ethereum",
  "devdoc": {
    "kind": "dev",
    "methods": {
      "automatricula(string,string)": {
        "params": {
          "_email": "El email del alumno.",
          "_nombre": "El nombre del alumno. "
        }
      },
      "laboratoriosLength()": {
        "returns": {
          "_0": "El numero de puestos creadas."
        }
      },
      "matriculasLength()": {
        "returns": {
          "_0": "El numero de alumnos matriculados."
        }
      },
      "obtenerDatosPersona(address)": {
        "params": {
          "persona": "La direccion de una persona. "
        },
        "returns": {
          "_0": "los datos de una persona registrada."
        }
      },
      "quienSoy()": {
        "returns": {
          "_email": " El email del alumno que invoca el metodo.",
          "_nombre": "El nombre del alumno que invoca el metodo."
        }
      },
      "reservasLength()": {
        "returns": {
          "_0": "El numero de alertas existentes."
        }
      },
      "ultimosRegistrosLength(address)": {
        "returns": {
          "_0": "El numero de ultimosRegistros existentes."
        }
      }
    },
    "version": 1
  },
  "userdoc": {
    "kind": "user",
    "methods": {
      "LabPulsado(uint256)": {
        "notice": "El aula del que se desea ver el historial."
      },
      "automatricula(string,string)": {
        "notice": "Los alumnos pueden automatricularse con el metodo automatricula.  Impedir que se pueda meter un nombre vacio."
      },
      "creaLaboratorio(string)": {
        "notice": "El administrador puede eliminar un aula con el metodo eliminarAula.  Impedir que se pueda meter un indice vacio.  _indice El nombre del aula. "
      },
      "datosAlumno(address)": {
        "notice": "Acceder a los datos de un alumno dada su direccion."
      },
      "datosProfesor(address)": {
        "notice": "Acceder a los datos de un profe dada su direccion."
      },
      "dirPersonas(string,string,uint256)": {
        "notice": "Permite obtener un address del array de personas. "
      },
      "guardarReserva(string,string,string,string,uint256)": {
        "notice": "Las personas pueden registrar su asistencia a un lab con el metodo guardarReserva.  Impedir que se pueda meter un nombre vacio.  _nombre El nombre del aula.  _ent Hora de entrada al aula.  _fecha Fecha de entrada al aula.  _puesto Puesto en el aula."
      },
      "guardarSalida(string,string,string,uint256)": {
        "notice": "Las personas pueden registrar su salida del aula con el metodo guardarSalida.  Impedir que se pueda meter un nombre vacio. _nombre El nombre del aula.   _sal Hora de salida al aula.  _fecha Fecha de entrada al aula."
      },
      "laboratoriosLength()": {
        "notice": "El numero depuestos creadas."
      },
      "matriculasLength()": {
        "notice": "El numero de alumnos matriculados."
      },
      "obtenerDatosPersona(address)": {
        "notice": "Obtiene los datos de una persona registrada. "
      },
      "owner()": {
        "notice": "address del profesor que ha desplegado el contrato. El contrato lo despliega el profesor."
      },
      "personas(string,string,uint256,uint256)": {
        "notice": "Direcciones de las personas que han asistido a algun aula en alguna de las fechas y en algun turno."
      },
      "personasLength(string,string)": {
        "notice": "Permite obtener la longitud del array de personasTotales. "
      },
      "personasTotales(string,string,uint256)": {
        "notice": "Direcciones de las personas que han asistido a algun aula en alguna de las fechas."
      },
      "profesRegistradosLength()": {
        "notice": "El numero de profes registrados. ."
      },
      "quienSoy()": {
        "notice": "Permite a un alumno obtener sus propios datos. "
      },
      "reiniciarReserva()": {
        "notice": "Eliminar la alerta de un usuario"
      },
      "reservas(address)": {
        "notice": "La alerta (si la hay) de un alumno."
      },
      "reservasLength()": {
        "notice": "El numero de reservas existentes."
      },
      "turnos_existentes(string,string,uint256)": {
        "notice": "Mapping para evitar duplicados de turnos."
      },
      "ultimosRegistros(address,uint256)": {
        "notice": "Ultimas entradas de cada persona."
      },
      "ultimosRegistrosLength(address)": {
        "notice": "El numero de ultimosRegistros existentes."
      }
    },
    "version": 1
  }
}