{
  "contractName": "Puestos",
  "abi": [
    {
      "inputs": [],
      "stateMutability": "nonpayable",
      "type": "constructor"
    },
    {
      "inputs": [
        {
          "internalType": "address",
          "name": "",
          "type": "address"
        }
      ],
      "name": "datosPersona",
      "outputs": [
        {
          "internalType": "address",
          "name": "dir",
          "type": "address"
        }
      ],
      "stateMutability": "view",
      "type": "function"
    },
    {
      "inputs": [
        {
          "internalType": "string",
          "name": "",
          "type": "string"
        },
        {
          "internalType": "string",
          "name": "",
          "type": "string"
        },
        {
          "internalType": "uint256",
          "name": "",
          "type": "uint256"
        },
        {
          "internalType": "address",
          "name": "",
          "type": "address"
        }
      ],
      "name": "datosPuesto",
      "outputs": [
        {
          "internalType": "address",
          "name": "dir",
          "type": "address"
        },
        {
          "internalType": "string",
          "name": "fecha",
          "type": "string"
        },
        {
          "internalType": "string",
          "name": "entradaTurno",
          "type": "string"
        },
        {
          "internalType": "string",
          "name": "salidaTurno",
          "type": "string"
        },
        {
          "internalType": "string",
          "name": "estado",
          "type": "string"
        },
        {
          "internalType": "string",
          "name": "asignatura",
          "type": "string"
        },
        {
          "internalType": "string",
          "name": "info",
          "type": "string"
        }
      ],
      "stateMutability": "view",
      "type": "function"
    },
    {
      "inputs": [],
      "name": "owner",
      "outputs": [
        {
          "internalType": "address",
          "name": "",
          "type": "address"
        }
      ],
      "stateMutability": "view",
      "type": "function"
    },
    {
      "inputs": [
        {
          "internalType": "string",
          "name": "",
          "type": "string"
        },
        {
          "internalType": "string",
          "name": "",
          "type": "string"
        },
        {
          "internalType": "uint256",
          "name": "",
          "type": "uint256"
        },
        {
          "internalType": "uint256",
          "name": "",
          "type": "uint256"
        }
      ],
      "name": "personas",
      "outputs": [
        {
          "internalType": "address",
          "name": "",
          "type": "address"
        }
      ],
      "stateMutability": "view",
      "type": "function"
    },
    {
      "inputs": [
        {
          "internalType": "string",
          "name": "",
          "type": "string"
        },
        {
          "internalType": "string",
          "name": "",
          "type": "string"
        },
        {
          "internalType": "uint256",
          "name": "",
          "type": "uint256"
        }
      ],
      "name": "personasTotales",
      "outputs": [
        {
          "internalType": "address",
          "name": "",
          "type": "address"
        }
      ],
      "stateMutability": "view",
      "type": "function"
    },
    {
      "inputs": [
        {
          "internalType": "string",
          "name": "",
          "type": "string"
        },
        {
          "internalType": "string",
          "name": "",
          "type": "string"
        },
        {
          "internalType": "uint256",
          "name": "",
          "type": "uint256"
        }
      ],
      "name": "turnos",
      "outputs": [
        {
          "internalType": "uint256",
          "name": "",
          "type": "uint256"
        }
      ],
      "stateMutability": "view",
      "type": "function"
    },
    {
      "inputs": [
        {
          "internalType": "string",
          "name": "",
          "type": "string"
        },
        {
          "internalType": "string",
          "name": "",
          "type": "string"
        },
        {
          "internalType": "uint256",
          "name": "",
          "type": "uint256"
        }
      ],
      "name": "turnos_existentes",
      "outputs": [
        {
          "internalType": "bool",
          "name": "",
          "type": "bool"
        }
      ],
      "stateMutability": "view",
      "type": "function"
    },
    {
      "inputs": [
        {
          "internalType": "string",
          "name": "_nombre",
          "type": "string"
        },
        {
          "internalType": "string",
          "name": "_fecha",
          "type": "string"
        }
      ],
      "name": "guardarEntradasPuesto",
      "outputs": [
        {
          "components": [
            {
              "internalType": "address",
              "name": "dir",
              "type": "address"
            },
            {
              "internalType": "string",
              "name": "fecha",
              "type": "string"
            },
            {
              "internalType": "string",
              "name": "entradaTurno",
              "type": "string"
            },
            {
              "internalType": "string",
              "name": "salidaTurno",
              "type": "string"
            },
            {
              "internalType": "string",
              "name": "estado",
              "type": "string"
            },
            {
              "internalType": "string",
              "name": "asignatura",
              "type": "string"
            },
            {
              "internalType": "string",
              "name": "info",
              "type": "string"
            }
          ],
          "internalType": "struct Puestos.PinchaPuesto[]",
          "name": "",
          "type": "tuple[]"
        }
      ],
      "stateMutability": "view",
      "type": "function"
    }
  ],
  "bytecode": "0x608060405234801561001057600080fd5b50336000806101000a81548173ffffffffffffffffffffffffffffffffffffffff021916908373ffffffffffffffffffffffffffffffffffffffff160217905550612167806100606000396000f3fe608060405234801561001057600080fd5b50600436106100885760003560e01c80638da5cb5b1161005b5780638da5cb5b146101535780639376d0ae14610171578063a724952f146101a1578063d5a3e75a146101d157610088565b8063070259421461008d57806308462096146100bd5780632dae2d92146100f35780635fdf483f14610123575b600080fd5b6100a760048036038101906100a29190611a10565b610201565b6040516100b49190611e88565b60405180910390f35b6100d760048036038101906100d29190611b24565b61023f565b6040516100ea9796959493929190611ea3565b60405180910390f35b61010d60048036038101906101089190611a39565b610684565b60405161011a9190611f3c565b60405180910390f35b61013d60048036038101906101389190611aa5565b61172e565b60405161014a9190611e88565b60405180910390f35b61015b6117b5565b6040516101689190611e88565b60405180910390f35b61018b60048036038101906101869190611aa5565b6117d9565b6040516101989190611f5e565b60405180910390f35b6101bb60048036038101906101b69190611aa5565b611841565b6040516101c89190611f79565b60405180910390f35b6101eb60048036038101906101e69190611bb7565b6118ab565b6040516101f89190611e88565b60405180910390f35b60016020528060005260406000206000915090508060000160009054906101000a900473ffffffffffffffffffffffffffffffffffffffff16905081565b600684805160208101820180518482526020830160208501208183528095505050505050838051602081018201805184825260208301602085012081835280955050505050506020528160005260406000206020528060005260406000206000935093505050508060000160009054906101000a900473ffffffffffffffffffffffffffffffffffffffff1690806001018054600181600116156101000203166002900480601f0160208091040260200160405190810160405280929190818152602001828054600181600116156101000203166002900480156103645780601f1061033957610100808354040283529160200191610364565b820191906000526020600020905b81548152906001019060200180831161034757829003601f168201915b505050505090806002018054600181600116156101000203166002900480601f0160208091040260200160405190810160405280929190818152602001828054600181600116156101000203166002900480156104025780601f106103d757610100808354040283529160200191610402565b820191906000526020600020905b8154815290600101906020018083116103e557829003601f168201915b505050505090806003018054600181600116156101000203166002900480601f0160208091040260200160405190810160405280929190818152602001828054600181600116156101000203166002900480156104a05780601f10610475576101008083540402835291602001916104a0565b820191906000526020600020905b81548152906001019060200180831161048357829003601f168201915b505050505090806004018054600181600116156101000203166002900480601f01602080910402602001604051908101604052809291908181526020018280546001816001161561010002031660029004801561053e5780601f106105135761010080835404028352916020019161053e565b820191906000526020600020905b81548152906001019060200180831161052157829003601f168201915b505050505090806005018054600181600116156101000203166002900480601f0160208091040260200160405190810160405280929190818152602001828054600181600116156101000203166002900480156105dc5780601f106105b1576101008083540402835291602001916105dc565b820191906000526020600020905b8154815290600101906020018083116105bf57829003601f168201915b505050505090806006018054600181600116156101000203166002900480601f01602080910402602001604051908101604052809291908181526020018280546001816001161561010002031660029004801561067a5780601f1061064f5761010080835404028352916020019161067a565b820191906000526020600020905b81548152906001019060200180831161065d57829003601f168201915b5050505050905087565b6060600080600060048560405161069b9190611e71565b9081526020016040518091039020866040516106b79190611e71565b908152602001604051809103902080549050905060005b81811015610785576002866040516106e69190611e71565b9081526020016040518091039020876040516107029190611e71565b908152602001604051809103902060006004886040516107229190611e71565b90815260200160405180910390208960405161073e9190611e71565b9081526020016040518091039020838154811061075757fe5b90600052602060002001548152602001908152602001600020805490508401935080806001019150506106ce565b50600081111561147d5760608367ffffffffffffffff811180156107a857600080fd5b506040519080825280602002602001820160405280156107e257816020015b6107cf61193f565b8152602001906001900390816107c75790505b50905060005b828110156114645760606002886040516108029190611e71565b90815260200160405180910390208960405161081e9190611e71565b9081526020016040518091039020600060048a60405161083e9190611e71565b90815260200160405180910390208b60405161085a9190611e71565b9081526020016040518091039020848154811061087357fe5b9060005260206000200154815260200190815260200160002080548060200260200160405190810160405280929190818152602001828054801561090c57602002820191906000526020600020905b8160009054906101000a900473ffffffffffffffffffffffffffffffffffffffff1673ffffffffffffffffffffffffffffffffffffffff16815260200190600101908083116108c2575b5050505050905060008590505b8582510181101561144f576006896040516109349190611e71565b90815260200160405180910390208a6040516109509190611e71565b9081526020016040518091039020600060048b6040516109709190611e71565b90815260200160405180910390208c60405161098c9190611e71565b908152602001604051809103902085815481106109a557fe5b9060005260206000200154815260200190815260200160002060008383815181106109cc57fe5b602002602001015173ffffffffffffffffffffffffffffffffffffffff1673ffffffffffffffffffffffffffffffffffffffff16815260200190815260200160002060000160009054906101000a900473ffffffffffffffffffffffffffffffffffffffff16848281518110610a3e57fe5b60200260200101516000019073ffffffffffffffffffffffffffffffffffffffff16908173ffffffffffffffffffffffffffffffffffffffff1681525050600689604051610a8c9190611e71565b90815260200160405180910390208a604051610aa89190611e71565b9081526020016040518091039020600060048b604051610ac89190611e71565b90815260200160405180910390208c604051610ae49190611e71565b90815260200160405180910390208581548110610afd57fe5b906000526020600020015481526020019081526020016000206000838381518110610b2457fe5b602002602001015173ffffffffffffffffffffffffffffffffffffffff1673ffffffffffffffffffffffffffffffffffffffff1681526020019081526020016000206001018054600181600116156101000203166002900480601f016020809104026020016040519081016040528092919081815260200182805460018160011615610100020316600290048015610bfd5780601f10610bd257610100808354040283529160200191610bfd565b820191906000526020600020905b815481529060010190602001808311610be057829003601f168201915b5050505050848281518110610c0e57fe5b602002602001015160200181905250600689604051610c2d9190611e71565b90815260200160405180910390208a604051610c499190611e71565b9081526020016040518091039020600060048b604051610c699190611e71565b90815260200160405180910390208c604051610c859190611e71565b90815260200160405180910390208581548110610c9e57fe5b906000526020600020015481526020019081526020016000206000838381518110610cc557fe5b602002602001015173ffffffffffffffffffffffffffffffffffffffff1673ffffffffffffffffffffffffffffffffffffffff1681526020019081526020016000206002018054600181600116156101000203166002900480601f016020809104026020016040519081016040528092919081815260200182805460018160011615610100020316600290048015610d9e5780601f10610d7357610100808354040283529160200191610d9e565b820191906000526020600020905b815481529060010190602001808311610d8157829003601f168201915b5050505050848281518110610daf57fe5b602002602001015160400181905250600689604051610dce9190611e71565b90815260200160405180910390208a604051610dea9190611e71565b9081526020016040518091039020600060048b604051610e0a9190611e71565b90815260200160405180910390208c604051610e269190611e71565b90815260200160405180910390208581548110610e3f57fe5b906000526020600020015481526020019081526020016000206000838381518110610e6657fe5b602002602001015173ffffffffffffffffffffffffffffffffffffffff1673ffffffffffffffffffffffffffffffffffffffff1681526020019081526020016000206003018054600181600116156101000203166002900480601f016020809104026020016040519081016040528092919081815260200182805460018160011615610100020316600290048015610f3f5780601f10610f1457610100808354040283529160200191610f3f565b820191906000526020600020905b815481529060010190602001808311610f2257829003601f168201915b5050505050848281518110610f5057fe5b602002602001015160600181905250600689604051610f6f9190611e71565b90815260200160405180910390208a604051610f8b9190611e71565b9081526020016040518091039020600060048b604051610fab9190611e71565b90815260200160405180910390208c604051610fc79190611e71565b90815260200160405180910390208581548110610fe057fe5b90600052602060002001548152602001908152602001600020600083838151811061100757fe5b602002602001015173ffffffffffffffffffffffffffffffffffffffff1673ffffffffffffffffffffffffffffffffffffffff1681526020019081526020016000206004018054600181600116156101000203166002900480601f0160208091040260200160405190810160405280929190818152602001828054600181600116156101000203166002900480156110e05780601f106110b5576101008083540402835291602001916110e0565b820191906000526020600020905b8154815290600101906020018083116110c357829003601f168201915b50505050508482815181106110f157fe5b6020026020010151608001819052506006896040516111109190611e71565b90815260200160405180910390208a60405161112c9190611e71565b9081526020016040518091039020600060048b60405161114c9190611e71565b90815260200160405180910390208c6040516111689190611e71565b9081526020016040518091039020858154811061118157fe5b9060005260206000200154815260200190815260200160002060008383815181106111a857fe5b602002602001015173ffffffffffffffffffffffffffffffffffffffff1673ffffffffffffffffffffffffffffffffffffffff1681526020019081526020016000206005018054600181600116156101000203166002900480601f0160208091040260200160405190810160405280929190818152602001828054600181600116156101000203166002900480156112815780601f1061125657610100808354040283529160200191611281565b820191906000526020600020905b81548152906001019060200180831161126457829003601f168201915b505050505084828151811061129257fe5b602002602001015160a001819052506006896040516112b19190611e71565b90815260200160405180910390208a6040516112cd9190611e71565b9081526020016040518091039020600060048b6040516112ed9190611e71565b90815260200160405180910390208c6040516113099190611e71565b9081526020016040518091039020858154811061132257fe5b90600052602060002001548152602001908152602001600020600083838151811061134957fe5b602002602001015173ffffffffffffffffffffffffffffffffffffffff1673ffffffffffffffffffffffffffffffffffffffff1681526020019081526020016000206006018054600181600116156101000203166002900480601f0160208091040260200160405190810160405280929190818152602001828054600181600116156101000203166002900480156114225780601f106113f757610100808354040283529160200191611422565b820191906000526020600020905b81548152906001019060200180831161140557829003601f168201915b505050505084828151811061143357fe5b602002602001015160c001819052508080600101915050610919565b508051850194505080806001019150506107e8565b5060009250600093506000915080945050505050611728565b6060600167ffffffffffffffff8111801561149757600080fd5b506040519080825280602002602001820160405280156114d157816020015b6114be61193f565b8152602001906001900390816114b65790505b5090507369068964eb1d8f0caf8af7481bfdb2fa015e4c56816000815181106114f657fe5b60200260200101516000019073ffffffffffffffffffffffffffffffffffffffff16908173ffffffffffffffffffffffffffffffffffffffff16815250506040518060400160405280600b81526020017f444953504f4e49424c45530000000000000000000000000000000000000000008152508160008151811061157757fe5b6020026020010151602001819052506040518060400160405280600b81526020017f454e204c41204645434841000000000000000000000000000000000000000000815250816000815181106115c957fe5b6020026020010151604001819052506040518060400160405280600181526020017f59000000000000000000000000000000000000000000000000000000000000008152508160008151811061161b57fe5b6020026020010151606001819052506040518060400160405280600481526020017f41554c41000000000000000000000000000000000000000000000000000000008152508160008151811061166d57fe5b6020026020010151608001819052506040518060400160405280600481526020017f4553544100000000000000000000000000000000000000000000000000000000815250816000815181106116bf57fe5b602002602001015160a001819052506040518060400160405280600781526020017f6c696e75787878000000000000000000000000000000000000000000000000008152508160008151811061171157fe5b602002602001015160c00181905250809450505050505b92915050565b60038380516020810182018051848252602083016020850120818352809550505050505082805160208101820180518482526020830160208501208183528095505050505050818154811061178257600080fd5b90600052602060002001600092509250509054906101000a900473ffffffffffffffffffffffffffffffffffffffff1681565b60008054906101000a900473ffffffffffffffffffffffffffffffffffffffff1681565b60058380516020810182018051848252602083016020850120818352809550505050505082805160208101820180518482526020830160208501208183528095505050505050602052806000526040600020600092509250509054906101000a900460ff1681565b60048380516020810182018051848252602083016020850120818352809550505050505082805160208101820180518482526020830160208501208183528095505050505050818154811061189557600080fd5b9060005260206000200160009250925050505481565b60028480516020810182018051848252602083016020850120818352809550505050505083805160208101820180518482526020830160208501208183528095505050505050602052816000526040600020818154811061190b57600080fd5b9060005260206000200160009350935050509054906101000a900473ffffffffffffffffffffffffffffffffffffffff1681565b6040518060e00160405280600073ffffffffffffffffffffffffffffffffffffffff1681526020016060815260200160608152602001606081526020016060815260200160608152602001606081525090565b6000813590506119a181612103565b92915050565b600082601f8301126119b857600080fd5b81356119cb6119c682611fc5565b611f94565b915080825260208301602083018583830111156119e757600080fd5b6119f28382846120ae565b50505092915050565b600081359050611a0a8161211a565b92915050565b600060208284031215611a2257600080fd5b6000611a3084828501611992565b91505092915050565b60008060408385031215611a4c57600080fd5b600083013567ffffffffffffffff811115611a6657600080fd5b611a72858286016119a7565b925050602083013567ffffffffffffffff811115611a8f57600080fd5b611a9b858286016119a7565b9150509250929050565b600080600060608486031215611aba57600080fd5b600084013567ffffffffffffffff811115611ad457600080fd5b611ae0868287016119a7565b935050602084013567ffffffffffffffff811115611afd57600080fd5b611b09868287016119a7565b9250506040611b1a868287016119fb565b9150509250925092565b60008060008060808587031215611b3a57600080fd5b600085013567ffffffffffffffff811115611b5457600080fd5b611b60878288016119a7565b945050602085013567ffffffffffffffff811115611b7d57600080fd5b611b89878288016119a7565b9350506040611b9a878288016119fb565b9250506060611bab87828801611992565b91505092959194509250565b60008060008060808587031215611bcd57600080fd5b600085013567ffffffffffffffff811115611be757600080fd5b611bf3878288016119a7565b945050602085013567ffffffffffffffff811115611c1057600080fd5b611c1c878288016119a7565b9350506040611c2d878288016119fb565b9250506060611c3e878288016119fb565b91505092959194509250565b6000611c568383611da3565b905092915050565b611c6781612066565b82525050565b611c7681612066565b82525050565b6000611c8782612005565b611c918185612028565b935083602082028501611ca385611ff5565b8060005b85811015611cdf5784840389528151611cc08582611c4a565b9450611ccb8361201b565b925060208a01995050600181019050611ca7565b50829750879550505050505092915050565b611cfa81612078565b82525050565b6000611d0b82612010565b611d158185612039565b9350611d258185602086016120bd565b611d2e816120f2565b840191505092915050565b6000611d4482612010565b611d4e818561204a565b9350611d5e8185602086016120bd565b611d67816120f2565b840191505092915050565b6000611d7d82612010565b611d87818561205b565b9350611d978185602086016120bd565b80840191505092915050565b600060e083016000830151611dbb6000860182611c5e565b5060208301518482036020860152611dd38282611d00565b91505060408301518482036040860152611ded8282611d00565b91505060608301518482036060860152611e078282611d00565b91505060808301518482036080860152611e218282611d00565b91505060a083015184820360a0860152611e3b8282611d00565b91505060c083015184820360c0860152611e558282611d00565b9150508091505092915050565b611e6b816120a4565b82525050565b6000611e7d8284611d72565b915081905092915050565b6000602082019050611e9d6000830184611c6d565b92915050565b600060e082019050611eb8600083018a611c6d565b8181036020830152611eca8189611d39565b90508181036040830152611ede8188611d39565b90508181036060830152611ef28187611d39565b90508181036080830152611f068186611d39565b905081810360a0830152611f1a8185611d39565b905081810360c0830152611f2e8184611d39565b905098975050505050505050565b60006020820190508181036000830152611f568184611c7c565b905092915050565b6000602082019050611f736000830184611cf1565b92915050565b6000602082019050611f8e6000830184611e62565b92915050565b6000604051905081810181811067ffffffffffffffff82111715611fbb57611fba6120f0565b5b8060405250919050565b600067ffffffffffffffff821115611fe057611fdf6120f0565b5b601f19601f8301169050602081019050919050565b6000819050602082019050919050565b600081519050919050565b600081519050919050565b6000602082019050919050565b600082825260208201905092915050565b600082825260208201905092915050565b600082825260208201905092915050565b600081905092915050565b600061207182612084565b9050919050565b60008115159050919050565b600073ffffffffffffffffffffffffffffffffffffffff82169050919050565b6000819050919050565b82818337600083830152505050565b60005b838110156120db5780820151818401526020810190506120c0565b838111156120ea576000848401525b50505050565bfe5b6000601f19601f8301169050919050565b61210c81612066565b811461211757600080fd5b50565b612123816120a4565b811461212e57600080fd5b5056fea2646970667358221220fee8bbca6ef57e4b708b00a31bd446d0627ca640d303fc8aedbd1902c6e0361a64736f6c63430007040033",
  "immutableReferences": {},
  "source": " \r\n \r\npragma solidity ^0.7.4;\r\npragma experimental ABIEncoderV2;//enabled when passing an array of string(struct) as a function paramete\r\n\r\n\r\n/*\r\n*falta : \r\n*crear lo de las asignaturas con los laborarios y puestos a los que perteneces y las caracteristicas que desepean cada puesto \r\n*crear las reservas , se va a reservar por semana un puesto de un determinado laboratorio \r\n*/\r\n\r\n\r\ncontract Puestos {\r\n \r\n address public owner;\r\n \r\n    struct PinchaPuesto {\r\n        \r\n\taddress dir;\r\n\t\r\n\tstring fecha;\r\n\tstring entradaTurno;\r\n\tstring salidaTurno;\r\n\t\r\n        \r\n\tstring estado;\r\n\tstring asignatura;\r\n\tstring info; //enumerado del sistema operativo!!!!!!!!!!!\r\n    }\r\n \r\n\r\n\r\n  // datos persona \r\n    struct DatosPersona {\r\n\taddress dir;\r\n    }\r\n \r\n\r\n\r\n  // acceder a los datos de una persona dada su direccion\r\n      mapping (address => DatosPersona) public datosPersona;\r\n\r\n\r\n\r\n\r\n\r\n    /// Direcciones de las personas que han asistido a algun aula en alguna de las fechas y en algun turno.\r\nmapping (string => mapping (string => mapping (uint => address[] ))) public personas;\r\n\r\n/// Direcciones de las personas que han asistido a algun aula en alguna de las fechas.\r\nmapping (string => mapping (string => address[] )) public personasTotales;\r\n\r\nmapping (string => mapping (string  => uint[] )) public turnos;\r\n\r\n    /// Mapping para evitar duplicados de turnos.\r\nmapping (string => mapping (string  => mapping ( uint => bool ))) public turnos_existentes;\r\n \r\n // Dada la fecha actual, el nombre del aula, el turno y la direccin de la persona, devuelve\r\n    // la entrada correspondiente a dicha persona.\r\n    mapping (string => mapping (string => mapping (uint => mapping (address => PinchaPuesto)))) public datosPuesto;\r\n \r\n \r\n \r\n \r\n \r\n \r\n \r\n \r\n  constructor()  {\r\n        owner = msg.sender;\r\n    } //?????????????????????????????????\r\n\r\n \r\n \r\n \r\n \r\n \r\n \r\n \r\n function guardarEntradasPuesto(string memory _nombre, string memory _fecha) public view returns(PinchaPuesto[] memory) {\r\n\r\n\tuint cont = 0;\r\n\tuint iterador = 0;\r\n\r\n\tuint num_turnos = turnos[_fecha][_nombre].length;\r\n\t\r\n\tfor(uint j = 0; j < num_turnos ; j++){\r\n\r\n\tcont = cont + personas[_fecha][_nombre][turnos[_fecha][_nombre][j]].length;\r\n\r\n\t}\t\r\n\r\n\r\n\tif(num_turnos > 0){\r\n\r\n\tPinchaPuesto[] memory entradasP = new PinchaPuesto[](cont);\r\n\r\n\tfor(uint j = 0; j < num_turnos ; j++){\r\n\r\n\taddress[] memory _dir = personas[_fecha][_nombre][turnos[_fecha][_nombre][j]];\t\r\n\r\n\tfor(uint i = iterador; i < _dir.length + iterador ; i++){\r\n\r\n\tentradasP[i].dir = datosPuesto[_fecha][_nombre][turnos[_fecha][_nombre][j]][_dir[i]].dir;\r\n\tentradasP[i].fecha = datosPuesto[_fecha][_nombre][turnos[_fecha][_nombre][j]][_dir[i]].fecha;\r\n\tentradasP[i].entradaTurno = datosPuesto[_fecha][_nombre][turnos[_fecha][_nombre][j]][_dir[i]].entradaTurno;\r\n\t\r\n\tentradasP[i].salidaTurno = datosPuesto[_fecha][_nombre][turnos[_fecha][_nombre][j]][_dir[i]].salidaTurno;\r\n    entradasP[i].estado = datosPuesto[_fecha][_nombre][turnos[_fecha][_nombre][j]][_dir[i]].estado;\r\n\tentradasP[i].asignatura = datosPuesto[_fecha][_nombre][turnos[_fecha][_nombre][j]][_dir[i]].asignatura;\r\n\tentradasP[i].info = datosPuesto[_fecha][_nombre][turnos[_fecha][_nombre][j]][_dir[i]].info;\r\n    \r\n\t\r\n\t}\r\n\titerador = iterador + _dir.length;\r\n\t}\r\n\titerador = 0;\r\n\tcont = 0;\r\n\tnum_turnos = 0;\r\n\treturn entradasP;\r\n\r\n\t}\r\n\telse{\r\n\t\r\n\tPinchaPuesto[] memory entradas_dosP = new PinchaPuesto[](1);\r\n\t\r\n\tentradas_dosP[0].dir = address(0x69068964Eb1d8F0cAF8Af7481bFDb2FA015E4C56);\r\n  \tentradas_dosP[0].fecha = \"DISPONIBLES\";\r\n\tentradas_dosP[0].entradaTurno = \"EN LA FECHA\";\r\n\tentradas_dosP[0].salidaTurno = \"Y\";\r\n    entradas_dosP[0].estado = \"AULA\";\r\n\tentradas_dosP[0].asignatura = \"ESTA\";\r\n\tentradas_dosP[0].info = \"linuxxx\";\r\n\r\n\treturn entradas_dosP;\r\n\r\n\t}\t\r\n\r\n    }\r\n\r\n\r\n\r\n}",
  "sourcePath": "C:\\Users\\Paula Huertas\\reslabetsit\\contracts\\Puestos.sol",
  "compiler": {
    "name": "solc",
    "version": "0.7.4+commit.3f05b770.Emscripten.clang"
  },
  "schemaVersion": "3.4.7",
  "updatedAt": "2022-06-19T16:53:51.198Z",
  "devdoc": {
    "kind": "dev",
    "methods": {},
    "version": 1
  },
  "userdoc": {
    "kind": "user",
    "methods": {
      "personas(string,string,uint256,uint256)": {
        "notice": "Direcciones de las personas que han asistido a algun aula en alguna de las fechas y en algun turno."
      },
      "personasTotales(string,string,uint256)": {
        "notice": "Direcciones de las personas que han asistido a algun aula en alguna de las fechas."
      },
      "turnos_existentes(string,string,uint256)": {
        "notice": "Mapping para evitar duplicados de turnos."
      }
    },
    "version": 1
  }
}