{
  "contractName": "ReslabEtsit",
  "abi": [
    {
      "inputs": [
        {
          "internalType": "string",
          "name": "_nombre",
          "type": "string"
        }
      ],
      "stateMutability": "nonpayable",
      "type": "constructor"
    },
    {
      "inputs": [
        {
          "internalType": "uint256",
          "name": "",
          "type": "uint256"
        }
      ],
      "name": "creditosemanal",
      "outputs": [
        {
          "internalType": "address",
          "name": "",
          "type": "address"
        }
      ],
      "stateMutability": "view",
      "type": "function",
      "constant": true
    },
    {
      "inputs": [
        {
          "internalType": "address",
          "name": "",
          "type": "address"
        }
      ],
      "name": "datosAlumno",
      "outputs": [
        {
          "internalType": "string",
          "name": "nombre",
          "type": "string"
        },
        {
          "internalType": "string",
          "name": "email",
          "type": "string"
        }
      ],
      "stateMutability": "view",
      "type": "function",
      "constant": true
    },
    {
      "inputs": [
        {
          "internalType": "uint256",
          "name": "",
          "type": "uint256"
        }
      ],
      "name": "matriculas",
      "outputs": [
        {
          "internalType": "address",
          "name": "",
          "type": "address"
        }
      ],
      "stateMutability": "view",
      "type": "function",
      "constant": true
    },
    {
      "inputs": [],
      "name": "nombre",
      "outputs": [
        {
          "internalType": "string",
          "name": "",
          "type": "string"
        }
      ],
      "stateMutability": "view",
      "type": "function",
      "constant": true
    },
    {
      "inputs": [],
      "name": "profesor",
      "outputs": [
        {
          "internalType": "address",
          "name": "",
          "type": "address"
        }
      ],
      "stateMutability": "view",
      "type": "function",
      "constant": true
    },
    {
      "inputs": [
        {
          "internalType": "uint256",
          "name": "",
          "type": "uint256"
        }
      ],
      "name": "puestos",
      "outputs": [
        {
          "internalType": "string",
          "name": "nombre",
          "type": "string"
        },
        {
          "internalType": "enum ReslabEtsit.TipoConexionesRed",
          "name": "tipoConexionesRed",
          "type": "uint8"
        },
        {
          "internalType": "enum ReslabEtsit.TipoSO",
          "name": "tipoSO",
          "type": "uint8"
        }
      ],
      "stateMutability": "view",
      "type": "function",
      "constant": true
    },
    {
      "inputs": [],
      "name": "puestosLength",
      "outputs": [
        {
          "internalType": "uint256",
          "name": "",
          "type": "uint256"
        }
      ],
      "stateMutability": "view",
      "type": "function",
      "constant": true
    },
    {
      "inputs": [
        {
          "internalType": "string",
          "name": "_nombre",
          "type": "string"
        },
        {
          "internalType": "enum ReslabEtsit.TipoConexionesRed",
          "name": "_tipoConexionesRed",
          "type": "uint8"
        },
        {
          "internalType": "enum ReslabEtsit.TipoSO",
          "name": "_TipoSO",
          "type": "uint8"
        }
      ],
      "name": "creaPuesto",
      "outputs": [
        {
          "internalType": "uint256",
          "name": "",
          "type": "uint256"
        }
      ],
      "stateMutability": "nonpayable",
      "type": "function"
    },
    {
      "inputs": [],
      "name": "matriculasLength",
      "outputs": [
        {
          "internalType": "uint256",
          "name": "",
          "type": "uint256"
        }
      ],
      "stateMutability": "view",
      "type": "function",
      "constant": true
    },
    {
      "inputs": [],
      "name": "creditosemanalLength",
      "outputs": [
        {
          "internalType": "uint256",
          "name": "",
          "type": "uint256"
        }
      ],
      "stateMutability": "view",
      "type": "function",
      "constant": true
    },
    {
      "inputs": [
        {
          "internalType": "string",
          "name": "_nombre",
          "type": "string"
        },
        {
          "internalType": "string",
          "name": "_email",
          "type": "string"
        }
      ],
      "name": "automatricula",
      "outputs": [],
      "stateMutability": "nonpayable",
      "type": "function"
    },
    {
      "inputs": [],
      "name": "quienSoy",
      "outputs": [
        {
          "internalType": "string",
          "name": "_nombre",
          "type": "string"
        },
        {
          "internalType": "string",
          "name": "_email",
          "type": "string"
        }
      ],
      "stateMutability": "view",
      "type": "function",
      "constant": true
    }
  ],
  "bytecode": "0x60806040523480156200001157600080fd5b506040516200164438038062001644833981810160405260208110156200003757600080fd5b81019080805160405193929190846401000000008211156200005857600080fd5b838201915060208201858111156200006f57600080fd5b82518660018202830111640100000000821117156200008d57600080fd5b8083526020830192505050908051906020019080838360005b83811015620000c3578082015181840152602081019050620000a6565b50505050905090810190601f168015620000f15780820380516001836020036101000a031916815260200191505b5060405250505060608190506000815114156200015a576040517f08c379a000000000000000000000000000000000000000000000000000000000815260040180806020018281038252602d81526020018062001617602d913960400191505060405180910390fd5b336000806101000a81548173ffffffffffffffffffffffffffffffffffffffff021916908373ffffffffffffffffffffffffffffffffffffffff1602179055508160019080519060200190620001b2929190620001bb565b50505062000271565b828054600181600116156101000203166002900490600052602060002090601f016020900481019282620001f357600085556200023f565b82601f106200020e57805160ff19168380011785556200023f565b828001600101855582156200023f579182015b828111156200023e57825182559160200191906001019062000221565b5b5090506200024e919062000252565b5090565b5b808211156200026d57600081600090555060010162000253565b5090565b61139680620002816000396000f3fe608060405234801561001057600080fd5b50600436106100b45760003560e01c80639d8d6370116100715780639d8d6370146104b75780639e1d8f4b14610582578063bc7b35b2146105a0578063c791813914610623578063df0965761461067b578063e09a9b1c146106af576100b4565b806306d5162e146100b9578063365d92e2146100d7578063537668831461012f57806361d4c6ad1461021e5780636bf8aad6146103705780638b94c3d114610499575b600080fd5b6100c1610798565b6040518082815260200191505060405180910390f35b610103600480360360208110156100ed57600080fd5b81019080803590602001909291905050506107a5565b604051808273ffffffffffffffffffffffffffffffffffffffff16815260200191505060405180910390f35b6101376107e4565b604051808060200180602001838103835285818151815260200191508051906020019080838360005b8381101561017b578082015181840152602081019050610160565b50505050905090810190601f1680156101a85780820380516001836020036101000a031916815260200191505b50838103825284818151815260200191508051906020019080838360005b838110156101e15780820151818401526020810190506101c6565b50505050905090810190601f16801561020e5780820380516001836020036101000a031916815260200191505b5094505050505060405180910390f35b61036e6004803603604081101561023457600080fd5b810190808035906020019064010000000081111561025157600080fd5b82018360208201111561026357600080fd5b8035906020019184600183028401116401000000008311171561028557600080fd5b91908080601f016020809104026020016040519081016040528093929190818152602001838380828437600081840152601f19601f820116905080830192505050505050509192919290803590602001906401000000008111156102e857600080fd5b8201836020820111156102fa57600080fd5b8035906020019184600183028401116401000000008311171561031c57600080fd5b91908080601f016020809104026020016040519081016040528093929190818152602001838380828437600081840152601f19601f8201169050808301925050505050505091929192905050506109f0565b005b6103b26004803603602081101561038657600080fd5b81019080803573ffffffffffffffffffffffffffffffffffffffff169060200190929190505050610bd1565b604051808060200180602001838103835285818151815260200191508051906020019080838360005b838110156103f65780820151818401526020810190506103db565b50505050905090810190601f1680156104235780820380516001836020036101000a031916815260200191505b50838103825284818151815260200191508051906020019080838360005b8381101561045c578082015181840152602081019050610441565b50505050905090810190601f1680156104895780820380516001836020036101000a031916815260200191505b5094505050505060405180910390f35b6104a1610d25565b6040518082815260200191505060405180910390f35b6104e3600480360360208110156104cd57600080fd5b8101908080359060200190929190505050610d32565b60405180806020018460018111156104f757fe5b815260200183600281111561050857fe5b8152602001828103825285818151815260200191508051906020019080838360005b8381101561054557808201518184015260208101905061052a565b50505050905090810190601f1680156105725780820380516001836020036101000a031916815260200191505b5094505050505060405180910390f35b61058a610e1e565b6040518082815260200191505060405180910390f35b6105a8610e2b565b6040518080602001828103825283818151815260200191508051906020019080838360005b838110156105e85780820151818401526020810190506105cd565b50505050905090810190601f1680156106155780820380516001836020036101000a031916815260200191505b509250505060405180910390f35b61064f6004803603602081101561063957600080fd5b8101908080359060200190929190505050610ec9565b604051808273ffffffffffffffffffffffffffffffffffffffff16815260200191505060405180910390f35b610683610f08565b604051808273ffffffffffffffffffffffffffffffffffffffff16815260200191505060405180910390f35b610782600480360360608110156106c557600080fd5b81019080803590602001906401000000008111156106e257600080fd5b8201836020820111156106f457600080fd5b8035906020019184600183028401116401000000008311171561071657600080fd5b91908080601f016020809104026020016040519081016040528093929190818152602001838380828437600081840152601f19601f820116905080830192505050505050509192919290803560ff169060200190929190803560ff169060200190929190505050610f2c565b6040518082815260200191505060405180910390f35b6000600280549050905090565b600581815481106107b557600080fd5b906000526020600020016000915054906101000a900473ffffffffffffffffffffffffffffffffffffffff1681565b6060806107f033611130565b610845576040517f08c379a000000000000000000000000000000000000000000000000000000000815260040180806020018281038252602581526020018061133c6025913960400191505060405180910390fd5b61084d611225565b600360003373ffffffffffffffffffffffffffffffffffffffff1673ffffffffffffffffffffffffffffffffffffffff168152602001908152602001600020604051806040016040529081600082018054600181600116156101000203166002900480601f0160208091040260200160405190810160405280929190818152602001828054600181600116156101000203166002900480156109305780601f1061090557610100808354040283529160200191610930565b820191906000526020600020905b81548152906001019060200180831161091357829003601f168201915b50505050508152602001600182018054600181600116156101000203166002900480601f0160208091040260200160405190810160405280929190818152602001828054600181600116156101000203166002900480156109d25780601f106109a7576101008083540402835291602001916109d2565b820191906000526020600020905b8154815290600101906020018083116109b557829003601f168201915b50505050508152505090508060000151925080602001519150509091565b6109f933611130565b15610a4f576040517f08c379a00000000000000000000000000000000000000000000000000000000081526004018080602001828103825260288152602001806113146028913960400191505060405180910390fd5b6060829050600081511415610acc576040517f08c379a000000000000000000000000000000000000000000000000000000000815260040180806020018281038252601c8152602001807f456c206e6f6d627265206e6f2070756564652073657220766163696f0000000081525060200191505060405180910390fd5b610ad4611225565b604051806040016040528085815260200184815250905080600360003373ffffffffffffffffffffffffffffffffffffffff1673ffffffffffffffffffffffffffffffffffffffff1681526020019081526020016000206000820151816000019080519060200190610b4792919061123f565b506020820151816001019080519060200190610b6492919061123f565b509050506004339080600181540180825580915050600190039060005260206000200160009091909190916101000a81548173ffffffffffffffffffffffffffffffffffffffff021916908373ffffffffffffffffffffffffffffffffffffffff16021790555050505050565b6003602052806000526040600020600091509050806000018054600181600116156101000203166002900480601f016020809104026020016040519081016040528092919081815260200182805460018160011615610100020316600290048015610c7d5780601f10610c5257610100808354040283529160200191610c7d565b820191906000526020600020905b815481529060010190602001808311610c6057829003601f168201915b505050505090806001018054600181600116156101000203166002900480601f016020809104026020016040519081016040528092919081815260200182805460018160011615610100020316600290048015610d1b5780601f10610cf057610100808354040283529160200191610d1b565b820191906000526020600020905b815481529060010190602001808311610cfe57829003601f168201915b5050505050905082565b6000600580549050905090565b60028181548110610d4257600080fd5b9060005260206000209060020201600091509050806000018054600181600116156101000203166002900480601f016020809104026020016040519081016040528092919081815260200182805460018160011615610100020316600290048015610dee5780601f10610dc357610100808354040283529160200191610dee565b820191906000526020600020905b815481529060010190602001808311610dd157829003601f168201915b5050505050908060010160009054906101000a900460ff16908060010160019054906101000a900460ff16905083565b6000600480549050905090565b60018054600181600116156101000203166002900480601f016020809104026020016040519081016040528092919081815260200182805460018160011615610100020316600290048015610ec15780601f10610e9657610100808354040283529160200191610ec1565b820191906000526020600020905b815481529060010190602001808311610ea457829003601f168201915b505050505081565b60048181548110610ed957600080fd5b906000526020600020016000915054906101000a900473ffffffffffffffffffffffffffffffffffffffff1681565b60008054906101000a900473ffffffffffffffffffffffffffffffffffffffff1681565b60008060009054906101000a900473ffffffffffffffffffffffffffffffffffffffff1673ffffffffffffffffffffffffffffffffffffffff163373ffffffffffffffffffffffffffffffffffffffff1614610ff0576040517f08c379a000000000000000000000000000000000000000000000000000000000815260040180806020018281038252601a8152602001807f536f6c6f207065726d697469646f20616c2070726f6665736f7200000000000081525060200191505060405180910390fd5b6060849050600081511415611050576040517f08c379a00000000000000000000000000000000000000000000000000000000081526004018080602001828103825260298152602001806112eb6029913960400191505060405180910390fd5b6002604051806060016040528087815260200186600181111561106f57fe5b815260200185600281111561108057fe5b815250908060018154018082558091505060019003906000526020600020906002020160009091909190915060008201518160000190805190602001906110c892919061123f565b5060208201518160010160006101000a81548160ff021916908360018111156110ed57fe5b021790555060408201518160010160016101000a81548160ff0219169083600281111561111657fe5b021790555050506001600280549050039150509392505050565b60006060600360008473ffffffffffffffffffffffffffffffffffffffff1673ffffffffffffffffffffffffffffffffffffffff1681526020019081526020016000206000018054600181600116156101000203166002900480601f01602080910402602001604051908101604052809291908181526020018280546001816001161561010002031660029004801561120a5780601f106111df5761010080835404028352916020019161120a565b820191906000526020600020905b8154815290600101906020018083116111ed57829003601f168201915b50505050509050606081905060008151141592505050919050565b604051806040016040528060608152602001606081525090565b828054600181600116156101000203166002900490600052602060002090601f01602090048101928261127557600085556112bc565b82601f1061128e57805160ff19168380011785556112bc565b828001600101855582156112bc579182015b828111156112bb5782518255916020019190600101906112a0565b5b5090506112c991906112cd565b5090565b5b808211156112e65760008160009055506001016112ce565b509056fe456c206e6f6d627265206465206c612070756573746f206e6f2070756564652073657220766163696f536f6c6f207065726d697469646f206120616c756d6e6f73206e6f206d6174726963756c61646f73536f6c6f207065726d697469646f206120616c756d6e6f73206d6174726963756c61646f73a26469706673582212203c231dda8fe0da17033bf2f6aed139fb40111e2cec31b111abdf7b4944ef8bc964736f6c63430007040033456c206e6f6d627265206465206c6120617369676e6174757261206e6f2070756564652073657220766163696f",
  "immutableReferences": {},
  "source": "pragma solidity ^0.7.4;\r\n\r\n\r\ncontract ReslabEtsit {\r\n    \r\n   \r\n    /**\r\n     * address del profesor que ha desplegado el contrato.\r\n     * El contrato lo despliega el profesor.\r\n     */\r\n    address public profesor; // array de profesores y meter o quitar profesores\r\n     \r\n    \r\n    /// Nombre de la asignatura\r\n    string public nombre;\r\n    \r\n   \r\n    \r\n    /**\r\n     * Datos de un puesto\r\n     */\r\n     \r\n     \r\n     \r\n    enum TipoSO {windows, macos , linux}\r\n    \r\n    enum TipoConexionesRed { cable, inalambrico} // array de strings \r\n    \r\n   \r\n    enum Horario { turnom ,turnot}//poenr horas y turnos en enum???? array de horas \r\n    \r\n    struct Puesto {\r\n        string nombre;\r\n        //caracteristicas\r\n        TipoConexionesRed tipoConexionesRed;\r\n        TipoSO tipoSO;\r\n       // Laboratorio laboratorio;\r\n       \r\n    }\r\n    \r\n    \r\n    \r\n    \r\n    \r\n    /// puestos de la asignatura.\r\n    Puesto[] public puestos;\r\n    \r\n    \r\n    \r\n    \r\n\r\n    struct Laboratorio{\r\n        string nombre;\r\n        \r\n        Horario horario;\r\n    }\r\n\r\n    /// Datos de un alumno.\r\n    struct DatosAlumno {\r\n        string nombre;\r\n        string email;\r\n        \r\n    }\r\n    \r\n    \r\n    struct Asignatura{\r\n        string nombre;\r\n        Puesto puesto;\r\n        //credito semanal\r\n        //Matriculas matriculados;\r\n    }\r\n    \r\n    \r\n    /// Acceder a los datos de un alumno dada su direccion.\r\n    mapping (address => DatosAlumno) public datosAlumno;\r\n    \r\n    \r\n    \r\n    \r\n    // Array con las direcciones de los alumnos matriculados.\r\n    address[] public matriculas;\r\n    \r\n    //Array credito semanal \r\n    address [] public creditosemanal;\r\n    \r\n    \r\n  \r\n    \r\n    \r\n    \r\n    \r\n    /**\r\n     * Constructor.\r\n     * \r\n     * @param _nombre Nombre de la asignatura.\r\n     * //habria qu eponer nombre puesto /lab /alumno etc \r\n    \r\n     */\r\n    constructor(string memory _nombre) {\r\n        \r\n        bytes memory bn = bytes(_nombre);\r\n        require(bn.length != 0, \"El nombre de la asignatura no puede ser vacio\");\r\n       \r\n       \r\n      \r\n        profesor = msg.sender;\r\n        nombre = _nombre;\r\n        \r\n        \r\n        // poner los labs con push o hay que ir creandolos y actualizanolos con un metacontrato ????\r\n        \r\n    }\r\n    \r\n    \r\n    /**\r\n     * El numero depuestos creadas.\r\n     *\r\n     * @return El numero de puestos creadas.\r\n     */\r\n    function puestosLength() public view returns(uint) {\r\n        return puestos.length;\r\n    }\r\n    \r\n    \r\n    /**\r\n     * Crear un puesto\r\n     *\r\n     * Llos puestos se meteran en el array de puestos y nos refereimos por su posicion en el array\r\n     * @param _nombre El nombre de puesto \r\n     \r\n   \r\n     * \r\n     * @return La posicion en el array lab\r\n     */\r\n     \r\n     \r\n     //poner lo del laboratorio pero me dice lo de use pragma experimental ABIENCODERV2\r\n    function creaPuesto(string memory _nombre,TipoConexionesRed  _tipoConexionesRed,TipoSO  _TipoSO/*Laboratorio _laboratorio*/) soloProfesor public returns (uint) {\r\n        \r\n        bytes memory bn = bytes(_nombre);\r\n        require(bn.length != 0, \"El nombre de la puesto no puede ser vacio\");\r\n        \r\n        puestos.push(Puesto(_nombre,_tipoConexionesRed,_TipoSO/*_laboratorio*/));\r\n        return puestos.length - 1;\r\n    }\r\n    \r\n    \r\n    \r\n    \r\n        \r\n    \r\n \r\n     /**\r\n     * El numero de alumnos matriculados.\r\n     *\r\n     * @return El numero de alumnos matriculados.\r\n     */\r\n    function matriculasLength() public view returns(uint) {\r\n        return matriculas.length;\r\n    }\r\n    \r\n    \r\n      /**\r\n     * numero de credito semanal \r\n     *\r\n     * @return El numero de credito semanal \r\n     * \r\n     */\r\n     \r\n     function creditosemanalLength() public view returns(uint) {\r\n        return creditosemanal.length;\r\n    }\r\n     \r\n    \r\n    \r\n    \r\n    \r\n    /**\r\n     * Los alumnos pueden automatricularse con el metodo automatricula.\r\n     * \r\n     * Impedir que se pueda meter un nombre vacio.\r\n     *\r\n     * @param _nombre El nombre del alumno. \r\n     * @param _email  El email del alumno.\r\n     */\r\n    function automatricula(string memory _nombre, string memory _email) noMatriculados public {\r\n        \r\n        bytes memory b = bytes(_nombre);\r\n        require(b.length != 0, \"El nombre no puede ser vacio\");\r\n        \r\n        DatosAlumno memory datos = DatosAlumno(_nombre, _email);\r\n        \r\n        datosAlumno[msg.sender] = datos;\r\n        \r\n        matriculas.push(msg.sender);\r\n        \r\n    }\r\n    \r\n    \r\n    /**\r\n     * Permite a un alumno obtener sus propios datos.\r\n     * \r\n     * @return _nombre El nombre del alumno que invoca el metodo.\r\n     * @return _email  El email del alumno que invoca el metodo.\r\n     */\r\n    function quienSoy() soloMatriculados public view returns (string memory _nombre, string memory _email) {\r\n        DatosAlumno memory datos = datosAlumno[msg.sender];\r\n        _nombre = datos.nombre;\r\n        _email = datos.email;\r\n    }\r\n    \r\n    \r\n\r\n    \r\n    \r\n    /**\r\n     * Consulta si una direccion pertenece a un alumno matriculado.\r\n     * \r\n     * @param alumno La direccion de un alumno.\r\n     * \r\n     * @return true si es una alumno matriculado.\r\n     */\r\n    function estaMatriculado(address alumno) private view returns (bool) {\r\n      \r\n        string memory _nombre = datosAlumno[alumno].nombre;\r\n        \r\n        bytes memory b = bytes(_nombre);\r\n        \r\n        return b.length != 0;\r\n    } \r\n    \r\n    //como hacer para que te devuelva los puestos segun asignatura \r\n    \r\n    /*function getPuestos (string asignatura) soloMatriculados public view returns (\r\n        string nombre, TipoConexionesRed tipoConexionesRed,TipoSO tipoSO)\r\n         \r\n         require (asignatura.length!=0,\"no vacio\");\r\n         \r\n         Puesto memory puesto= tipoConexionesRed[msg.sender][asignatura];\r\n         //meter tb tipoSO\r\n         tipoConexionesRed=Puesto.tipoConexionesRed\r\n         tipoSO=Puesto.tipoSO;\r\n         \r\n    // con laboratorios tb ! */\r\n   \r\n    \r\n    \r\n    \r\n    /**\r\n     * Modificador para que una funcion solo la pueda ejecutar el profesor.\r\n     * \r\n     *\r\n     */\r\n    modifier soloProfesor() {\r\n        \r\n        require(msg.sender == profesor, \"Solo permitido al profesor\");\r\n        _;\r\n    }\r\n    \r\n    \r\n    /**\r\n     * Modificador para que una funcion solo la pueda ejecutar un alumno matriculado.\r\n     */\r\n    modifier soloMatriculados() {\r\n        \r\n        require(estaMatriculado(msg.sender), \"Solo permitido a alumnos matriculados\");\r\n        _;\r\n    }\r\n    \r\n    \r\n    /**\r\n     * Modificador para que una funcion solo la pueda ejecutar un alumno no matriculado aun.\r\n     */\r\n    modifier noMatriculados() {\r\n        \r\n        require(!estaMatriculado(msg.sender), \"Solo permitido a alumnos no matriculados\");\r\n        _;\r\n    }\r\n    \r\n   // compilar : truffle compile\r\n\r\n   \r\n}",
  "sourcePath": "/mnt/c/Users/Paula Huertas/reslabetsit/contracts/ReslabEtsit.sol",
  "compiler": {
    "name": "solc",
    "version": "0.7.4+commit.3f05b770.Emscripten.clang"
  },
  "schemaVersion": "3.3.4",
  "updatedAt": "2021-03-26T10:10:01.526Z",
  "networkType": "ethereum",
  "devdoc": {
    "kind": "dev",
    "methods": {
      "automatricula(string,string)": {
        "params": {
          "_email": "El email del alumno.",
          "_nombre": "El nombre del alumno. "
        }
      },
      "constructor": {
        "params": {
          "_nombre": "Nombre de la asignatura. //habria qu eponer nombre puesto /lab /alumno etc "
        }
      },
      "creaPuesto(string,uint8,uint8)": {
        "params": {
          "_nombre": "El nombre de puesto  "
        },
        "returns": {
          "_0": "La posicion en el array lab"
        }
      },
      "creditosemanalLength()": {
        "returns": {
          "_0": "El numero de credito semanal  "
        }
      },
      "matriculasLength()": {
        "returns": {
          "_0": "El numero de alumnos matriculados."
        }
      },
      "puestosLength()": {
        "returns": {
          "_0": "El numero de puestos creadas."
        }
      },
      "quienSoy()": {
        "returns": {
          "_email": " El email del alumno que invoca el metodo.",
          "_nombre": "El nombre del alumno que invoca el metodo."
        }
      }
    },
    "version": 1
  },
  "userdoc": {
    "kind": "user",
    "methods": {
      "automatricula(string,string)": {
        "notice": "Los alumnos pueden automatricularse con el metodo automatricula.  Impedir que se pueda meter un nombre vacio."
      },
      "constructor": {
        "notice": "Constructor. "
      },
      "creaPuesto(string,uint8,uint8)": {
        "notice": "Crear un puesto Llos puestos se meteran en el array de puestos y nos refereimos por su posicion en el array"
      },
      "creditosemanalLength()": {
        "notice": "numero de credito semanal "
      },
      "datosAlumno(address)": {
        "notice": "Acceder a los datos de un alumno dada su direccion."
      },
      "matriculasLength()": {
        "notice": "El numero de alumnos matriculados."
      },
      "nombre()": {
        "notice": "Nombre de la asignatura"
      },
      "profesor()": {
        "notice": "address del profesor que ha desplegado el contrato. El contrato lo despliega el profesor."
      },
      "puestos(uint256)": {
        "notice": "puestos de la asignatura."
      },
      "puestosLength()": {
        "notice": "El numero depuestos creadas."
      },
      "quienSoy()": {
        "notice": "Permite a un alumno obtener sus propios datos. "
      }
    },
    "version": 1
  }
}