{
  "contractName": "ReslabEtsit",
  "abi": [
    {
      "inputs": [],
      "stateMutability": "nonpayable",
      "type": "constructor"
    },
    {
      "inputs": [
        {
          "internalType": "uint256",
          "name": "",
          "type": "uint256"
        }
      ],
      "name": "creditosemanal",
      "outputs": [
        {
          "internalType": "address",
          "name": "",
          "type": "address"
        }
      ],
      "stateMutability": "view",
      "type": "function",
      "constant": true
    },
    {
      "inputs": [
        {
          "internalType": "address",
          "name": "",
          "type": "address"
        }
      ],
      "name": "datosAlumno",
      "outputs": [
        {
          "internalType": "string",
          "name": "nombre",
          "type": "string"
        },
        {
          "internalType": "string",
          "name": "email",
          "type": "string"
        }
      ],
      "stateMutability": "view",
      "type": "function",
      "constant": true
    },
    {
      "inputs": [
        {
          "internalType": "string",
          "name": "",
          "type": "string"
        },
        {
          "internalType": "string",
          "name": "",
          "type": "string"
        },
        {
          "internalType": "uint256",
          "name": "",
          "type": "uint256"
        },
        {
          "internalType": "address",
          "name": "",
          "type": "address"
        }
      ],
      "name": "datosLab",
      "outputs": [
        {
          "internalType": "string",
          "name": "puesto",
          "type": "string"
        },
        {
          "internalType": "string",
          "name": "info",
          "type": "string"
        }
      ],
      "stateMutability": "view",
      "type": "function",
      "constant": true
    },
    {
      "inputs": [
        {
          "internalType": "address",
          "name": "",
          "type": "address"
        }
      ],
      "name": "datosPersona",
      "outputs": [
        {
          "internalType": "address",
          "name": "dir",
          "type": "address"
        }
      ],
      "stateMutability": "view",
      "type": "function",
      "constant": true
    },
    {
      "inputs": [
        {
          "internalType": "address",
          "name": "",
          "type": "address"
        }
      ],
      "name": "datosProfesor",
      "outputs": [
        {
          "internalType": "string",
          "name": "nombreP",
          "type": "string"
        },
        {
          "internalType": "string",
          "name": "emailP",
          "type": "string"
        },
        {
          "internalType": "string",
          "name": "asignaturaP",
          "type": "string"
        },
        {
          "internalType": "string",
          "name": "departamentoP",
          "type": "string"
        }
      ],
      "stateMutability": "view",
      "type": "function",
      "constant": true
    },
    {
      "inputs": [
        {
          "internalType": "string",
          "name": "",
          "type": "string"
        },
        {
          "internalType": "string",
          "name": "",
          "type": "string"
        },
        {
          "internalType": "uint256",
          "name": "",
          "type": "uint256"
        },
        {
          "internalType": "address",
          "name": "",
          "type": "address"
        }
      ],
      "name": "datosPuesto",
      "outputs": [
        {
          "internalType": "address",
          "name": "dir",
          "type": "address"
        },
        {
          "internalType": "string",
          "name": "fecha",
          "type": "string"
        },
        {
          "internalType": "string",
          "name": "entradaTurno",
          "type": "string"
        },
        {
          "internalType": "string",
          "name": "salidaTurno",
          "type": "string"
        },
        {
          "internalType": "string",
          "name": "estado",
          "type": "string"
        },
        {
          "internalType": "string",
          "name": "asignatura",
          "type": "string"
        },
        {
          "internalType": "string",
          "name": "info",
          "type": "string"
        }
      ],
      "stateMutability": "view",
      "type": "function",
      "constant": true
    },
    {
      "inputs": [
        {
          "internalType": "uint256",
          "name": "",
          "type": "uint256"
        }
      ],
      "name": "laboratoriosRegistrados",
      "outputs": [
        {
          "internalType": "uint256",
          "name": "labId",
          "type": "uint256"
        },
        {
          "internalType": "string",
          "name": "nombreL",
          "type": "string"
        }
      ],
      "stateMutability": "view",
      "type": "function",
      "constant": true
    },
    {
      "inputs": [
        {
          "internalType": "uint256",
          "name": "",
          "type": "uint256"
        }
      ],
      "name": "matriculas",
      "outputs": [
        {
          "internalType": "address",
          "name": "",
          "type": "address"
        }
      ],
      "stateMutability": "view",
      "type": "function",
      "constant": true
    },
    {
      "inputs": [],
      "name": "owner",
      "outputs": [
        {
          "internalType": "address",
          "name": "",
          "type": "address"
        }
      ],
      "stateMutability": "view",
      "type": "function",
      "constant": true
    },
    {
      "inputs": [
        {
          "internalType": "string",
          "name": "",
          "type": "string"
        },
        {
          "internalType": "string",
          "name": "",
          "type": "string"
        },
        {
          "internalType": "uint256",
          "name": "",
          "type": "uint256"
        },
        {
          "internalType": "uint256",
          "name": "",
          "type": "uint256"
        }
      ],
      "name": "personas",
      "outputs": [
        {
          "internalType": "address",
          "name": "",
          "type": "address"
        }
      ],
      "stateMutability": "view",
      "type": "function",
      "constant": true
    },
    {
      "inputs": [
        {
          "internalType": "string",
          "name": "",
          "type": "string"
        },
        {
          "internalType": "string",
          "name": "",
          "type": "string"
        },
        {
          "internalType": "uint256",
          "name": "",
          "type": "uint256"
        }
      ],
      "name": "personasTotales",
      "outputs": [
        {
          "internalType": "address",
          "name": "",
          "type": "address"
        }
      ],
      "stateMutability": "view",
      "type": "function",
      "constant": true
    },
    {
      "inputs": [
        {
          "internalType": "uint256",
          "name": "",
          "type": "uint256"
        }
      ],
      "name": "profesRegistrados",
      "outputs": [
        {
          "internalType": "address",
          "name": "",
          "type": "address"
        }
      ],
      "stateMutability": "view",
      "type": "function",
      "constant": true
    },
    {
      "inputs": [],
      "name": "profesorP",
      "outputs": [
        {
          "internalType": "address",
          "name": "",
          "type": "address"
        }
      ],
      "stateMutability": "view",
      "type": "function",
      "constant": true
    },
    {
      "inputs": [
        {
          "internalType": "uint256",
          "name": "",
          "type": "uint256"
        }
      ],
      "name": "puestosRegistrados",
      "outputs": [
        {
          "internalType": "uint256",
          "name": "PuestoId",
          "type": "uint256"
        },
        {
          "internalType": "string",
          "name": "nombreP",
          "type": "string"
        }
      ],
      "stateMutability": "view",
      "type": "function",
      "constant": true
    },
    {
      "inputs": [
        {
          "internalType": "uint256",
          "name": "",
          "type": "uint256"
        }
      ],
      "name": "registradosP",
      "outputs": [
        {
          "internalType": "address",
          "name": "",
          "type": "address"
        }
      ],
      "stateMutability": "view",
      "type": "function",
      "constant": true
    },
    {
      "inputs": [
        {
          "internalType": "address",
          "name": "",
          "type": "address"
        }
      ],
      "name": "reservasAlumno",
      "outputs": [
        {
          "internalType": "string",
          "name": "lab",
          "type": "string"
        },
        {
          "internalType": "string",
          "name": "fecha",
          "type": "string"
        },
        {
          "internalType": "uint256",
          "name": "estado",
          "type": "uint256"
        }
      ],
      "stateMutability": "view",
      "type": "function",
      "constant": true
    },
    {
      "inputs": [
        {
          "internalType": "uint256",
          "name": "",
          "type": "uint256"
        }
      ],
      "name": "reservasLab",
      "outputs": [
        {
          "internalType": "string",
          "name": "lab",
          "type": "string"
        },
        {
          "internalType": "uint256",
          "name": "turno",
          "type": "uint256"
        },
        {
          "internalType": "string",
          "name": "fecha",
          "type": "string"
        }
      ],
      "stateMutability": "view",
      "type": "function",
      "constant": true
    },
    {
      "inputs": [
        {
          "internalType": "string",
          "name": "",
          "type": "string"
        },
        {
          "internalType": "string",
          "name": "",
          "type": "string"
        },
        {
          "internalType": "uint256",
          "name": "",
          "type": "uint256"
        }
      ],
      "name": "turnos",
      "outputs": [
        {
          "internalType": "uint256",
          "name": "",
          "type": "uint256"
        }
      ],
      "stateMutability": "view",
      "type": "function",
      "constant": true
    },
    {
      "inputs": [
        {
          "internalType": "string",
          "name": "",
          "type": "string"
        },
        {
          "internalType": "string",
          "name": "",
          "type": "string"
        },
        {
          "internalType": "uint256",
          "name": "",
          "type": "uint256"
        }
      ],
      "name": "turnos_existentes",
      "outputs": [
        {
          "internalType": "bool",
          "name": "",
          "type": "bool"
        }
      ],
      "stateMutability": "view",
      "type": "function",
      "constant": true
    },
    {
      "inputs": [
        {
          "internalType": "address",
          "name": "",
          "type": "address"
        },
        {
          "internalType": "uint256",
          "name": "",
          "type": "uint256"
        }
      ],
      "name": "ultimosRegistros",
      "outputs": [
        {
          "internalType": "string",
          "name": "lab",
          "type": "string"
        },
        {
          "internalType": "uint256",
          "name": "turno",
          "type": "uint256"
        },
        {
          "internalType": "string",
          "name": "fecha",
          "type": "string"
        }
      ],
      "stateMutability": "view",
      "type": "function",
      "constant": true
    },
    {
      "stateMutability": "payable",
      "type": "receive",
      "payable": true
    },
    {
      "inputs": [],
      "name": "puestosLength",
      "outputs": [
        {
          "internalType": "uint256",
          "name": "",
          "type": "uint256"
        }
      ],
      "stateMutability": "view",
      "type": "function",
      "constant": true
    },
    {
      "inputs": [],
      "name": "laboratoriosLength",
      "outputs": [
        {
          "internalType": "uint256",
          "name": "",
          "type": "uint256"
        }
      ],
      "stateMutability": "view",
      "type": "function",
      "constant": true
    },
    {
      "inputs": [],
      "name": "reservasLength",
      "outputs": [
        {
          "internalType": "uint256",
          "name": "",
          "type": "uint256"
        }
      ],
      "stateMutability": "view",
      "type": "function",
      "constant": true
    },
    {
      "inputs": [
        {
          "internalType": "address",
          "name": "dir",
          "type": "address"
        }
      ],
      "name": "ultimosRegistrosLength",
      "outputs": [
        {
          "internalType": "uint256",
          "name": "",
          "type": "uint256"
        }
      ],
      "stateMutability": "view",
      "type": "function",
      "constant": true
    },
    {
      "inputs": [
        {
          "internalType": "string",
          "name": "_nombre",
          "type": "string"
        },
        {
          "internalType": "string",
          "name": "_fecha",
          "type": "string"
        }
      ],
      "name": "personasLength",
      "outputs": [
        {
          "internalType": "uint256",
          "name": "",
          "type": "uint256"
        }
      ],
      "stateMutability": "view",
      "type": "function",
      "constant": true
    },
    {
      "inputs": [
        {
          "internalType": "string",
          "name": "_nombre",
          "type": "string"
        },
        {
          "internalType": "string",
          "name": "_fecha",
          "type": "string"
        },
        {
          "internalType": "uint256",
          "name": "_indice",
          "type": "uint256"
        }
      ],
      "name": "dirPersonas",
      "outputs": [
        {
          "internalType": "address",
          "name": "",
          "type": "address"
        }
      ],
      "stateMutability": "view",
      "type": "function",
      "constant": true
    },
    {
      "inputs": [
        {
          "internalType": "address",
          "name": "persona",
          "type": "address"
        }
      ],
      "name": "obtenerDatosPersona",
      "outputs": [
        {
          "internalType": "address",
          "name": "",
          "type": "address"
        }
      ],
      "stateMutability": "view",
      "type": "function",
      "constant": true
    },
    {
      "inputs": [
        {
          "internalType": "address",
          "name": "_dir",
          "type": "address"
        }
      ],
      "name": "reservas",
      "outputs": [
        {
          "components": [
            {
              "internalType": "string",
              "name": "lab",
              "type": "string"
            },
            {
              "internalType": "string",
              "name": "fecha",
              "type": "string"
            },
            {
              "internalType": "uint256",
              "name": "estado",
              "type": "uint256"
            }
          ],
          "internalType": "struct ReslabEtsit.ReservaAlumno",
          "name": "",
          "type": "tuple"
        }
      ],
      "stateMutability": "view",
      "type": "function",
      "constant": true
    },
    {
      "inputs": [],
      "name": "reiniciarReserva",
      "outputs": [],
      "stateMutability": "nonpayable",
      "type": "function"
    },
    {
      "inputs": [
        {
          "internalType": "uint256",
          "name": "x",
          "type": "uint256"
        }
      ],
      "name": "LabPulsado",
      "outputs": [
        {
          "internalType": "string",
          "name": "",
          "type": "string"
        }
      ],
      "stateMutability": "view",
      "type": "function",
      "constant": true
    },
    {
      "inputs": [
        {
          "internalType": "uint256",
          "name": "x",
          "type": "uint256"
        }
      ],
      "name": "PuestoPulsado",
      "outputs": [
        {
          "internalType": "string",
          "name": "",
          "type": "string"
        }
      ],
      "stateMutability": "view",
      "type": "function",
      "constant": true
    },
    {
      "inputs": [
        {
          "internalType": "string",
          "name": "_nombre",
          "type": "string"
        },
        {
          "internalType": "string",
          "name": "_entradaTurno",
          "type": "string"
        },
        {
          "internalType": "string",
          "name": "_fecha",
          "type": "string"
        },
        {
          "internalType": "uint256",
          "name": "_turno",
          "type": "uint256"
        }
      ],
      "name": "guardarReserva",
      "outputs": [],
      "stateMutability": "nonpayable",
      "type": "function"
    },
    {
      "inputs": [
        {
          "internalType": "string",
          "name": "_nombre",
          "type": "string"
        },
        {
          "internalType": "string",
          "name": "_salidaTurno",
          "type": "string"
        },
        {
          "internalType": "string",
          "name": "_fecha",
          "type": "string"
        },
        {
          "internalType": "uint256",
          "name": "_turno",
          "type": "uint256"
        }
      ],
      "name": "guardarSalida",
      "outputs": [],
      "stateMutability": "nonpayable",
      "type": "function"
    },
    {
      "inputs": [
        {
          "internalType": "string",
          "name": "_nombre",
          "type": "string"
        },
        {
          "internalType": "string",
          "name": "_fecha",
          "type": "string"
        }
      ],
      "name": "guardarEntradasLaboratorio",
      "outputs": [
        {
          "components": [
            {
              "internalType": "string",
              "name": "puesto",
              "type": "string"
            },
            {
              "internalType": "string",
              "name": "info",
              "type": "string"
            }
          ],
          "internalType": "struct ReslabEtsit.PinchaLab[]",
          "name": "",
          "type": "tuple[]"
        }
      ],
      "stateMutability": "view",
      "type": "function",
      "constant": true
    },
    {
      "inputs": [
        {
          "internalType": "string",
          "name": "_nombreL",
          "type": "string"
        }
      ],
      "name": "creaLaboratorio",
      "outputs": [
        {
          "internalType": "uint256",
          "name": "",
          "type": "uint256"
        }
      ],
      "stateMutability": "nonpayable",
      "type": "function"
    },
    {
      "inputs": [],
      "name": "matriculasLength",
      "outputs": [
        {
          "internalType": "uint256",
          "name": "",
          "type": "uint256"
        }
      ],
      "stateMutability": "view",
      "type": "function",
      "constant": true
    },
    {
      "inputs": [],
      "name": "profesRegistradosLength",
      "outputs": [
        {
          "internalType": "uint256",
          "name": "",
          "type": "uint256"
        }
      ],
      "stateMutability": "view",
      "type": "function",
      "constant": true
    },
    {
      "inputs": [
        {
          "internalType": "string",
          "name": "_nombre",
          "type": "string"
        },
        {
          "internalType": "string",
          "name": "_email",
          "type": "string"
        }
      ],
      "name": "automatricula",
      "outputs": [],
      "stateMutability": "nonpayable",
      "type": "function"
    },
    {
      "inputs": [],
      "name": "autoregistroP",
      "outputs": [],
      "stateMutability": "nonpayable",
      "type": "function"
    },
    {
      "inputs": [
        {
          "internalType": "string",
          "name": "_nombreP",
          "type": "string"
        },
        {
          "internalType": "string",
          "name": "_emailP",
          "type": "string"
        },
        {
          "internalType": "string",
          "name": "_asignaturaP",
          "type": "string"
        },
        {
          "internalType": "string",
          "name": "_departamentoP",
          "type": "string"
        }
      ],
      "name": "autoRegistro",
      "outputs": [],
      "stateMutability": "nonpayable",
      "type": "function"
    },
    {
      "inputs": [],
      "name": "quienSoy",
      "outputs": [
        {
          "internalType": "string",
          "name": "_nombre",
          "type": "string"
        },
        {
          "internalType": "string",
          "name": "_email",
          "type": "string"
        }
      ],
      "stateMutability": "view",
      "type": "function",
      "constant": true
    },
    {
      "inputs": [],
      "name": "quienSoyP",
      "outputs": [
        {
          "internalType": "string",
          "name": "_nombreP",
          "type": "string"
        },
        {
          "internalType": "string",
          "name": "_emailP",
          "type": "string"
        },
        {
          "internalType": "string",
          "name": "_asignaturaP",
          "type": "string"
        },
        {
          "internalType": "string",
          "name": "_departamentoP",
          "type": "string"
        }
      ],
      "stateMutability": "view",
      "type": "function",
      "constant": true
    },
    {
      "inputs": [
        {
          "internalType": "address",
          "name": "persona",
          "type": "address"
        }
      ],
      "name": "estaRegistradoP",
      "outputs": [
        {
          "internalType": "bool",
          "name": "",
          "type": "bool"
        }
      ],
      "stateMutability": "view",
      "type": "function",
      "constant": true
    }
  ],
  "bytecode": "0x608060405234801561001057600080fd5b50336000806101000a81548173ffffffffffffffffffffffffffffffffffffffff021916908373ffffffffffffffffffffffffffffffffffffffff16021790555061575a80620000616000396000f3fe6080604052600436106102605760003560e01c80639376d0ae11610144578063c7918139116100b6578063d66371031161007a578063d663710314610a9d578063e8933c6e14610ada578063ede343cf14610b03578063ee0e7c4f14610b2c578063f874785914610b69578063fc1f72d814610ba6576102a0565b8063c79181391461097a578063cbf23288146109b7578063d4cf859d146109f5578063d5a3e75a14610a23578063d64545d814610a60576102a0565b8063a724952f11610108578063a724952f1461082c578063b0b1273114610869578063b4b4a51f146108a8578063b5daf62c146108d3578063b79f217614610911578063be4a935b1461094f576102a0565b80639376d0ae1461070d57806394bd53d61461074a57806397055f29146107875780639e1d8f4b146107c45780639ed0c15f146107ef576102a0565b80635fdf483f116101dd5780636bf8aad6116101a15780636bf8aad6146105c057806379b51b6a146105fe5780637e09be7a146106295780637e4d6c70146106665780638da5cb5b146106a35780638f473936146106ce576102a0565b80635fdf483f1461049e57806361d4c6ad146104db578063641945bf1461050457806366668f3c1461054457806368ef207e14610581576102a0565b8063320d077311610224578063320d0773146103ca578063365d92e2146103e157806337193aa71461041e5780635376688314610447578063554f27cc14610473576102a0565b806306d5162e146102a557806307025942146102d0578063084620961461030d5780630c31266114610350578063223ca7a21461038d576102a0565b366102a0576040517f08c379a00000000000000000000000000000000000000000000000000000000081526004016102979061545a565b60405180910390fd5b600080fd5b3480156102b157600080fd5b506102ba610bbd565b6040516102c7919061553c565b60405180910390f35b3480156102dc57600080fd5b506102f760048036038101906102f291906146cd565b610bca565b6040516103049190615165565b60405180910390f35b34801561031957600080fd5b50610334600480360381019061032f91906149cc565b610c08565b6040516103479796959493929190615180565b60405180910390f35b34801561035c57600080fd5b50610377600480360381019061037291906146cd565b61104d565b6040516103849190615165565b60405180910390f35b34801561039957600080fd5b506103b460048036038101906103af9190614af2565b6110d0565b6040516103c19190615165565b60405180910390f35b3480156103d657600080fd5b506103df61110f565b005b3480156103ed57600080fd5b5061040860048036038101906104039190614af2565b6112db565b6040516104159190615165565b60405180910390f35b34801561042a57600080fd5b50610445600480360381019061044091906148a2565b61131a565b005b34801561045357600080fd5b5061045c611d8d565b60405161046a929190615278565b60405180910390f35b34801561047f57600080fd5b50610488611f83565b604051610495919061553c565b60405180910390f35b3480156104aa57600080fd5b506104c560048036038101906104c0919061494d565b611f90565b6040516104d29190615165565b60405180910390f35b3480156104e757600080fd5b5061050260048036038101906104fd9190614773565b612017565b005b34801561051057600080fd5b5061052b600480360381019061052691906146cd565b6121af565b60405161053b94939291906152af565b60405180910390f35b34801561055057600080fd5b5061056b60048036038101906105669190614773565b61243f565b604051610578919061553c565b60405180910390f35b34801561058d57600080fd5b506105a860048036038101906105a39190614af2565b61249a565b6040516105b793929190615355565b60405180910390f35b3480156105cc57600080fd5b506105e760048036038101906105e291906146cd565b612604565b6040516105f5929190615278565b60405180910390f35b34801561060a57600080fd5b50610613612758565b604051610620919061553c565b60405180910390f35b34801561063557600080fd5b50610650600480360381019061064b91906146cd565b612765565b60405161065d919061523b565b60405180910390f35b34801561067257600080fd5b5061068d600480360381019061068891906146cd565b612806565b60405161069a919061551a565b60405180910390f35b3480156106af57600080fd5b506106b86129ad565b6040516106c59190615165565b60405180910390f35b3480156106da57600080fd5b506106f560048036038101906106f091906146f6565b6129d1565b60405161070493929190615355565b60405180910390f35b34801561071957600080fd5b50610734600480360381019061072f919061494d565b612b48565b604051610741919061523b565b60405180910390f35b34801561075657600080fd5b50610771600480360381019061076c9190614732565b612bb0565b60405161077e919061553c565b60405180910390f35b34801561079357600080fd5b506107ae60048036038101906107a99190614773565b612d0a565b6040516107bb9190615219565b60405180910390f35b3480156107d057600080fd5b506107d9613430565b6040516107e6919061553c565b60405180910390f35b3480156107fb57600080fd5b5061081660048036038101906108119190614af2565b61343d565b6040516108239190615256565b60405180910390f35b34801561083857600080fd5b50610853600480360381019061084e919061494d565b6134fd565b604051610860919061553c565b60405180910390f35b34801561087557600080fd5b50610890600480360381019061088b91906146cd565b613567565b60405161089f93929190615310565b60405180910390f35b3480156108b457600080fd5b506108bd6136c1565b6040516108ca919061553c565b60405180910390f35b3480156108df57600080fd5b506108fa60048036038101906108f59190614af2565b6136ce565b604051610908929190615557565b60405180910390f35b34801561091d57600080fd5b50610938600480360381019061093391906149cc565b61379a565b604051610946929190615278565b60405180910390f35b34801561095b57600080fd5b50610964613941565b6040516109719190615165565b60405180910390f35b34801561098657600080fd5b506109a1600480360381019061099c9190614af2565b613967565b6040516109ae9190615165565b60405180910390f35b3480156109c357600080fd5b506109de60048036038101906109d99190614af2565b6139a6565b6040516109ec929190615557565b60405180910390f35b348015610a0157600080fd5b50610a0a613a72565b604051610a1a94939291906152af565b60405180910390f35b348015610a2f57600080fd5b50610a4a6004803603810190610a459190614a5f565b613dbf565b604051610a579190615165565b60405180910390f35b348015610a6c57600080fd5b50610a876004803603810190610a8291906146cd565b613e53565b604051610a94919061553c565b60405180910390f35b348015610aa957600080fd5b50610ac46004803603810190610abf9190614af2565b613e9f565b604051610ad19190615256565b60405180910390f35b348015610ae657600080fd5b50610b016004803603810190610afc91906148a2565b613f5f565b005b348015610b0f57600080fd5b50610b2a6004803603810190610b2591906147df565b614005565b005b348015610b3857600080fd5b50610b536004803603810190610b4e9190614af2565b6141e5565b604051610b609190615165565b60405180910390f35b348015610b7557600080fd5b50610b906004803603810190610b8b919061494d565b614224565b604051610b9d9190615165565b60405180910390f35b348015610bb257600080fd5b50610bbb6142f3565b005b6000600b80549050905090565b60026020528060005260406000206000915090508060000160009054906101000a900473ffffffffffffffffffffffffffffffffffffffff16905081565b601384805160208101820180518482526020830160208501208183528095505050505050838051602081018201805184825260208301602085012081835280955050505050506020528160005260406000206020528060005260406000206000935093505050508060000160009054906101000a900473ffffffffffffffffffffffffffffffffffffffff1690806001018054600181600116156101000203166002900480601f016020809104026020016040519081016040528092919081815260200182805460018160011615610100020316600290048015610d2d5780601f10610d0257610100808354040283529160200191610d2d565b820191906000526020600020905b815481529060010190602001808311610d1057829003601f168201915b505050505090806002018054600181600116156101000203166002900480601f016020809104026020016040519081016040528092919081815260200182805460018160011615610100020316600290048015610dcb5780601f10610da057610100808354040283529160200191610dcb565b820191906000526020600020905b815481529060010190602001808311610dae57829003601f168201915b505050505090806003018054600181600116156101000203166002900480601f016020809104026020016040519081016040528092919081815260200182805460018160011615610100020316600290048015610e695780601f10610e3e57610100808354040283529160200191610e69565b820191906000526020600020905b815481529060010190602001808311610e4c57829003601f168201915b505050505090806004018054600181600116156101000203166002900480601f016020809104026020016040519081016040528092919081815260200182805460018160011615610100020316600290048015610f075780601f10610edc57610100808354040283529160200191610f07565b820191906000526020600020905b815481529060010190602001808311610eea57829003601f168201915b505050505090806005018054600181600116156101000203166002900480601f016020809104026020016040519081016040528092919081815260200182805460018160011615610100020316600290048015610fa55780601f10610f7a57610100808354040283529160200191610fa5565b820191906000526020600020905b815481529060010190602001808311610f8857829003601f168201915b505050505090806006018054600181600116156101000203166002900480601f0160208091040260200160405190810160405280929190818152602001828054600181600116156101000203166002900480156110435780601f1061101857610100808354040283529160200191611043565b820191906000526020600020905b81548152906001019060200180831161102657829003601f168201915b5050505050905087565b60006110588261433d565b61106557600090506110cb565b600260008373ffffffffffffffffffffffffffffffffffffffff1673ffffffffffffffffffffffffffffffffffffffff16815260200190815260200160002060000160009054906101000a900473ffffffffffffffffffffffffffffffffffffffff1690505b919050565b600881815481106110e057600080fd5b906000526020600020016000915054906101000a900473ffffffffffffffffffffffffffffffffffffffff1681565b61111833612765565b15611158576040517f08c379a000000000000000000000000000000000000000000000000000000000815260040161114f906154ba565b60405180910390fd5b600073ffffffffffffffffffffffffffffffffffffffff163373ffffffffffffffffffffffffffffffffffffffff1614156111c8576040517f08c379a00000000000000000000000000000000000000000000000000000000081526004016111bf9061539a565b60405180910390fd5b60405180602001604052803373ffffffffffffffffffffffffffffffffffffffff16815250600260003373ffffffffffffffffffffffffffffffffffffffff1673ffffffffffffffffffffffffffffffffffffffff16815260200190815260200160002060008201518160000160006101000a81548173ffffffffffffffffffffffffffffffffffffffff021916908373ffffffffffffffffffffffffffffffffffffffff1602179055509050506008339080600181540180825580915050600190039060005260206000200160009091909190916101000a81548173ffffffffffffffffffffffffffffffffffffffff021916908373ffffffffffffffffffffffffffffffffffffffff160217905550565b600981815481106112eb57600080fd5b906000526020600020016000915054906101000a900473ffffffffffffffffffffffffffffffffffffffff1681565b6060849050600081511415611364576040517f08c379a000000000000000000000000000000000000000000000000000000000815260040161135b906153fa565b60405180910390fd5b60608490506000815114156113ae576040517f08c379a00000000000000000000000000000000000000000000000000000000081526004016113a5906153ba565b60405180910390fd5b60608490506000815114156113f8576040517f08c379a00000000000000000000000000000000000000000000000000000000081526004016113ef906154da565b60405180910390fd5b33601386604051611409919061514e565b908152602001604051809103902088604051611425919061514e565b9081526020016040518091039020600086815260200190815260200160002060003373ffffffffffffffffffffffffffffffffffffffff1673ffffffffffffffffffffffffffffffffffffffff16815260200190815260200160002060000160006101000a81548173ffffffffffffffffffffffffffffffffffffffff021916908373ffffffffffffffffffffffffffffffffffffffff160217905550846013866040516114d3919061514e565b9081526020016040518091039020886040516114ef919061514e565b9081526020016040518091039020600086815260200190815260200160002060003373ffffffffffffffffffffffffffffffffffffffff1673ffffffffffffffffffffffffffffffffffffffff1681526020019081526020016000206001019080519060200190611561929190614527565b5085601386604051611573919061514e565b90815260200160405180910390208860405161158f919061514e565b9081526020016040518091039020600086815260200190815260200160002060003373ffffffffffffffffffffffffffffffffffffffff1673ffffffffffffffffffffffffffffffffffffffff1681526020019081526020016000206002019080519060200190611601929190614527565b506000600d60003373ffffffffffffffffffffffffffffffffffffffff1673ffffffffffffffffffffffffffffffffffffffff168152602001908152602001600020600201541415611727576040518060400160405280600781526020017f496e696369616c00000000000000000000000000000000000000000000000000815250601386604051611693919061514e565b9081526020016040518091039020886040516116af919061514e565b9081526020016040518091039020600086815260200190815260200160002060003373ffffffffffffffffffffffffffffffffffffffff1673ffffffffffffffffffffffffffffffffffffffff1681526020019081526020016000206004019080519060200190611721929190614527565b50611a49565b6001600d60003373ffffffffffffffffffffffffffffffffffffffff1673ffffffffffffffffffffffffffffffffffffffff16815260200190815260200160002060020154141561184c576040518060400160405280600a81526020017f536f73706563686f736f000000000000000000000000000000000000000000008152506013866040516117b8919061514e565b9081526020016040518091039020886040516117d4919061514e565b9081526020016040518091039020600086815260200190815260200160002060003373ffffffffffffffffffffffffffffffffffffffff1673ffffffffffffffffffffffffffffffffffffffff1681526020019081526020016000206004019080519060200190611846929190614527565b50611a48565b6002600d60003373ffffffffffffffffffffffffffffffffffffffff1673ffffffffffffffffffffffffffffffffffffffff168152602001908152602001600020600201541415611971576040518060400160405280600881526020017f506f73697469766f0000000000000000000000000000000000000000000000008152506013866040516118dd919061514e565b9081526020016040518091039020886040516118f9919061514e565b9081526020016040518091039020600086815260200190815260200160002060003373ffffffffffffffffffffffffffffffffffffffff1673ffffffffffffffffffffffffffffffffffffffff168152602001908152602001600020600401908051906020019061196b929190614527565b50611a47565b6040518060400160405280600881526020017f4e6567617469766f0000000000000000000000000000000000000000000000008152506013866040516119b7919061514e565b9081526020016040518091039020886040516119d3919061514e565b9081526020016040518091039020600086815260200190815260200160002060003373ffffffffffffffffffffffffffffffffffffffff1673ffffffffffffffffffffffffffffffffffffffff1681526020019081526020016000206004019080519060200190611a45929190614527565b505b5b5b601085604051611a59919061514e565b908152602001604051809103902087604051611a75919061514e565b90815260200160405180910390206000858152602001908152602001600020339080600181540180825580915050600190039060005260206000200160009091909190916101000a81548173ffffffffffffffffffffffffffffffffffffffff021916908373ffffffffffffffffffffffffffffffffffffffff160217905550601185604051611b05919061514e565b908152602001604051809103902087604051611b21919061514e565b9081526020016040518091039020339080600181540180825580915050600190039060005260206000200160009091909190916101000a81548173ffffffffffffffffffffffffffffffffffffffff021916908373ffffffffffffffffffffffffffffffffffffffff160217905550601460003373ffffffffffffffffffffffffffffffffffffffff1673ffffffffffffffffffffffffffffffffffffffff16815260200190815260200160002060405180606001604052808981526020018681526020018781525090806001815401808255809150506001900390600052602060002090600302016000909190919091506000820151816000019080519060200190611c2f929190614527565b50602082015181600101556040820151816002019080519060200190611c56929190614527565b50505060001515600f86604051611c6d919061514e565b908152602001604051809103902088604051611c89919061514e565b9081526020016040518091039020600086815260200190815260200160002060009054906101000a900460ff1615151415611d8457600e85604051611cce919061514e565b908152602001604051809103902087604051611cea919061514e565b90815260200160405180910390208490806001815401808255809150506001900390600052602060002001600090919091909150556001600f86604051611d31919061514e565b908152602001604051809103902088604051611d4d919061514e565b9081526020016040518091039020600086815260200190815260200160002060006101000a81548160ff0219169083151502179055505b50505050505050565b606080611d9933614432565b611dd8576040517f08c379a0000000000000000000000000000000000000000000000000000000008152600401611dcf9061541a565b60405180910390fd5b611de06145b5565b600360003373ffffffffffffffffffffffffffffffffffffffff1673ffffffffffffffffffffffffffffffffffffffff168152602001908152602001600020604051806040016040529081600082018054600181600116156101000203166002900480601f016020809104026020016040519081016040528092919081815260200182805460018160011615610100020316600290048015611ec35780601f10611e9857610100808354040283529160200191611ec3565b820191906000526020600020905b815481529060010190602001808311611ea657829003601f168201915b50505050508152602001600182018054600181600116156101000203166002900480601f016020809104026020016040519081016040528092919081815260200182805460018160011615610100020316600290048015611f655780601f10611f3a57610100808354040283529160200191611f65565b820191906000526020600020905b815481529060010190602001808311611f4857829003601f168201915b50505050508152505090508060000151925080602001519150509091565b6000600c80549050905090565b601183805160208101820180518482526020830160208501208183528095505050505050828051602081018201805184825260208301602085012081835280955050505050508181548110611fe457600080fd5b90600052602060002001600092509250509054906101000a900473ffffffffffffffffffffffffffffffffffffffff1681565b61202033614432565b15612060576040517f08c379a0000000000000000000000000000000000000000000000000000000008152600401612057906153da565b60405180910390fd5b60608290506000815114156120aa576040517f08c379a00000000000000000000000000000000000000000000000000000000081526004016120a1906153fa565b60405180910390fd5b6120b26145b5565b604051806040016040528085815260200184815250905080600360003373ffffffffffffffffffffffffffffffffffffffff1673ffffffffffffffffffffffffffffffffffffffff1681526020019081526020016000206000820151816000019080519060200190612125929190614527565b506020820151816001019080519060200190612142929190614527565b509050506006339080600181540180825580915050600190039060005260206000200160009091909190916101000a81548173ffffffffffffffffffffffffffffffffffffffff021916908373ffffffffffffffffffffffffffffffffffffffff16021790555050505050565b6004602052806000526040600020600091509050806000018054600181600116156101000203166002900480601f01602080910402602001604051908101604052809291908181526020018280546001816001161561010002031660029004801561225b5780601f106122305761010080835404028352916020019161225b565b820191906000526020600020905b81548152906001019060200180831161223e57829003601f168201915b505050505090806001018054600181600116156101000203166002900480601f0160208091040260200160405190810160405280929190818152602001828054600181600116156101000203166002900480156122f95780601f106122ce576101008083540402835291602001916122f9565b820191906000526020600020905b8154815290600101906020018083116122dc57829003601f168201915b505050505090806002018054600181600116156101000203166002900480601f0160208091040260200160405190810160405280929190818152602001828054600181600116156101000203166002900480156123975780601f1061236c57610100808354040283529160200191612397565b820191906000526020600020905b81548152906001019060200180831161237a57829003601f168201915b505050505090806003018054600181600116156101000203166002900480601f0160208091040260200160405190810160405280929190818152602001828054600181600116156101000203166002900480156124355780601f1061240a57610100808354040283529160200191612435565b820191906000526020600020905b81548152906001019060200180831161241857829003601f168201915b5050505050905084565b600080601183604051612452919061514e565b90815260200160405180910390208460405161246e919061514e565b9081526020016040518091039020805490509050600081141561249057600190505b8091505092915050565b600c81815481106124aa57600080fd5b9060005260206000209060030201600091509050806000018054600181600116156101000203166002900480601f0160208091040260200160405190810160405280929190818152602001828054600181600116156101000203166002900480156125565780601f1061252b57610100808354040283529160200191612556565b820191906000526020600020905b81548152906001019060200180831161253957829003601f168201915b505050505090806001015490806002018054600181600116156101000203166002900480601f0160208091040260200160405190810160405280929190818152602001828054600181600116156101000203166002900480156125fa5780601f106125cf576101008083540402835291602001916125fa565b820191906000526020600020905b8154815290600101906020018083116125dd57829003601f168201915b5050505050905083565b6003602052806000526040600020600091509050806000018054600181600116156101000203166002900480601f0160208091040260200160405190810160405280929190818152602001828054600181600116156101000203166002900480156126b05780601f10612685576101008083540402835291602001916126b0565b820191906000526020600020905b81548152906001019060200180831161269357829003601f168201915b505050505090806001018054600181600116156101000203166002900480601f01602080910402602001604051908101604052809291908181526020018280546001816001161561010002031660029004801561274e5780601f106127235761010080835404028352916020019161274e565b820191906000526020600020905b81548152906001019060200180831161273157829003601f168201915b5050505050905082565b6000600780549050905090565b600080600260008473ffffffffffffffffffffffffffffffffffffffff1673ffffffffffffffffffffffffffffffffffffffff16815260200190815260200160002060000160009054906101000a900473ffffffffffffffffffffffffffffffffffffffff169050600073ffffffffffffffffffffffffffffffffffffffff168173ffffffffffffffffffffffffffffffffffffffff161415915050919050565b61280e6145cf565b600d60008373ffffffffffffffffffffffffffffffffffffffff1673ffffffffffffffffffffffffffffffffffffffff168152602001908152602001600020604051806060016040529081600082018054600181600116156101000203166002900480601f0160208091040260200160405190810160405280929190818152602001828054600181600116156101000203166002900480156128f15780601f106128c6576101008083540402835291602001916128f1565b820191906000526020600020905b8154815290600101906020018083116128d457829003601f168201915b50505050508152602001600182018054600181600116156101000203166002900480601f0160208091040260200160405190810160405280929190818152602001828054600181600116156101000203166002900480156129935780601f1061296857610100808354040283529160200191612993565b820191906000526020600020905b81548152906001019060200180831161297657829003601f168201915b505050505081526020016002820154815250509050919050565b60008054906101000a900473ffffffffffffffffffffffffffffffffffffffff1681565b601460205281600052604060002081815481106129ed57600080fd5b906000526020600020906003020160009150915050806000018054600181600116156101000203166002900480601f016020809104026020016040519081016040528092919081815260200182805460018160011615610100020316600290048015612a9a5780601f10612a6f57610100808354040283529160200191612a9a565b820191906000526020600020905b815481529060010190602001808311612a7d57829003601f168201915b505050505090806001015490806002018054600181600116156101000203166002900480601f016020809104026020016040519081016040528092919081815260200182805460018160011615610100020316600290048015612b3e5780601f10612b1357610100808354040283529160200191612b3e565b820191906000526020600020905b815481529060010190602001808311612b2157829003601f168201915b5050505050905083565b600f8380516020810182018051848252602083016020850120818352809550505050505082805160208101820180518482526020830160208501208183528095505050505050602052806000526040600020600092509250509054906101000a900460ff1681565b60008060009054906101000a900473ffffffffffffffffffffffffffffffffffffffff1673ffffffffffffffffffffffffffffffffffffffff163373ffffffffffffffffffffffffffffffffffffffff1614612c41576040517f08c379a0000000000000000000000000000000000000000000000000000000008152600401612c38906154fa565b60405180910390fd5b6060829050600081511415612c8b576040517f08c379a0000000000000000000000000000000000000000000000000000000008152600401612c829061549a565b60405180910390fd5b600a6040518060400160405280600a805490508152602001858152509080600181540180825580915050600190039060005260206000209060020201600090919091909150600082015181600001556020820151816001019080519060200190612cf6929190614527565b5050506001600a8054905003915050919050565b60606000806000600e85604051612d21919061514e565b908152602001604051809103902086604051612d3d919061514e565b908152602001604051809103902080549050905060005b81811015612e0b57601086604051612d6c919061514e565b908152602001604051809103902087604051612d88919061514e565b90815260200160405180910390206000600e88604051612da8919061514e565b908152602001604051809103902089604051612dc4919061514e565b90815260200160405180910390208381548110612ddd57fe5b9060005260206000200154815260200190815260200160002080549050840193508080600101915050612d54565b5060008111156133275760608367ffffffffffffffff81118015612e2e57600080fd5b50604051908082528060200260200182016040528015612e6857816020015b612e556145f0565b815260200190600190039081612e4d5790505b50905060005b8281101561330e576060601088604051612e88919061514e565b908152602001604051809103902089604051612ea4919061514e565b90815260200160405180910390206000600e8a604051612ec4919061514e565b90815260200160405180910390208b604051612ee0919061514e565b90815260200160405180910390208481548110612ef957fe5b90600052602060002001548152602001908152602001600020805480602002602001604051908101604052809291908181526020018280548015612f9257602002820191906000526020600020905b8160009054906101000a900473ffffffffffffffffffffffffffffffffffffffff1673ffffffffffffffffffffffffffffffffffffffff1681526020019060010190808311612f48575b5050505050905060008590505b858251018110156132f957601289604051612fba919061514e565b90815260200160405180910390208a604051612fd6919061514e565b90815260200160405180910390206000600e8b604051612ff6919061514e565b90815260200160405180910390208c604051613012919061514e565b9081526020016040518091039020858154811061302b57fe5b90600052602060002001548152602001908152602001600020600083838151811061305257fe5b602002602001015173ffffffffffffffffffffffffffffffffffffffff1673ffffffffffffffffffffffffffffffffffffffff1681526020019081526020016000206000018054600181600116156101000203166002900480601f01602080910402602001604051908101604052809291908181526020018280546001816001161561010002031660029004801561312b5780601f106131005761010080835404028352916020019161312b565b820191906000526020600020905b81548152906001019060200180831161310e57829003601f168201915b505050505084828151811061313c57fe5b60200260200101516000018190525060128960405161315b919061514e565b90815260200160405180910390208a604051613177919061514e565b90815260200160405180910390206000600e8b604051613197919061514e565b90815260200160405180910390208c6040516131b3919061514e565b908152602001604051809103902085815481106131cc57fe5b9060005260206000200154815260200190815260200160002060008383815181106131f357fe5b602002602001015173ffffffffffffffffffffffffffffffffffffffff1673ffffffffffffffffffffffffffffffffffffffff1681526020019081526020016000206001018054600181600116156101000203166002900480601f0160208091040260200160405190810160405280929190818152602001828054600181600116156101000203166002900480156132cc5780601f106132a1576101008083540402835291602001916132cc565b820191906000526020600020905b8154815290600101906020018083116132af57829003601f168201915b50505050508482815181106132dd57fe5b6020026020010151602001819052508080600101915050612f9f565b50805185019450508080600101915050612e6e565b506000925060009350600091508094505050505061342a565b6060600167ffffffffffffffff8111801561334157600080fd5b5060405190808252806020026020018201604052801561337b57816020015b6133686145f0565b8152602001906001900390816133605790505b5090506040518060400160405280600181526020017f4100000000000000000000000000000000000000000000000000000000000000815250816000815181106133c157fe5b6020026020010151600001819052506040518060400160405280600581526020017f6c696e75780000000000000000000000000000000000000000000000000000008152508160008151811061341357fe5b602002602001015160200181905250809450505050505b92915050565b6000600680549050905090565b6060600b828154811061344c57fe5b90600052602060002090600202016001018054600181600116156101000203166002900480601f0160208091040260200160405190810160405280929190818152602001828054600181600116156101000203166002900480156134f15780601f106134c6576101008083540402835291602001916134f1565b820191906000526020600020905b8154815290600101906020018083116134d457829003601f168201915b50505050509050919050565b600e8380516020810182018051848252602083016020850120818352809550505050505082805160208101820180518482526020830160208501208183528095505050505050818154811061355157600080fd5b9060005260206000200160009250925050505481565b600d602052806000526040600020600091509050806000018054600181600116156101000203166002900480601f0160208091040260200160405190810160405280929190818152602001828054600181600116156101000203166002900480156136135780601f106135e857610100808354040283529160200191613613565b820191906000526020600020905b8154815290600101906020018083116135f657829003601f168201915b505050505090806001018054600181600116156101000203166002900480601f0160208091040260200160405190810160405280929190818152602001828054600181600116156101000203166002900480156136b15780601f10613686576101008083540402835291602001916136b1565b820191906000526020600020905b81548152906001019060200180831161369457829003601f168201915b5050505050908060020154905083565b6000600a80549050905090565b600a81815481106136de57600080fd5b9060005260206000209060020201600091509050806000015490806001018054600181600116156101000203166002900480601f0160208091040260200160405190810160405280929190818152602001828054600181600116156101000203166002900480156137905780601f1061376557610100808354040283529160200191613790565b820191906000526020600020905b81548152906001019060200180831161377357829003601f168201915b5050505050905082565b60128480516020810182018051848252602083016020850120818352809550505050505083805160208101820180518482526020830160208501208183528095505050505050602052816000526040600020602052806000526040600020600093509350505050806000018054600181600116156101000203166002900480601f0160208091040260200160405190810160405280929190818152602001828054600181600116156101000203166002900480156138995780601f1061386e57610100808354040283529160200191613899565b820191906000526020600020905b81548152906001019060200180831161387c57829003601f168201915b505050505090806001018054600181600116156101000203166002900480601f0160208091040260200160405190810160405280929190818152602001828054600181600116156101000203166002900480156139375780601f1061390c57610100808354040283529160200191613937565b820191906000526020600020905b81548152906001019060200180831161391a57829003601f168201915b5050505050905082565b600160009054906101000a900473ffffffffffffffffffffffffffffffffffffffff1681565b6006818154811061397757600080fd5b906000526020600020016000915054906101000a900473ffffffffffffffffffffffffffffffffffffffff1681565b600b81815481106139b657600080fd5b9060005260206000209060020201600091509050806000015490806001018054600181600116156101000203166002900480601f016020809104026020016040519081016040528092919081815260200182805460018160011615610100020316600290048015613a685780601f10613a3d57610100808354040283529160200191613a68565b820191906000526020600020905b815481529060010190602001808311613a4b57829003601f168201915b5050505050905082565b606080606080613a813361433d565b613ac0576040517f08c379a0000000000000000000000000000000000000000000000000000000008152600401613ab79061543a565b60405180910390fd5b613ac861460a565b600460003373ffffffffffffffffffffffffffffffffffffffff1673ffffffffffffffffffffffffffffffffffffffff168152602001908152602001600020604051806080016040529081600082018054600181600116156101000203166002900480601f016020809104026020016040519081016040528092919081815260200182805460018160011615610100020316600290048015613bab5780601f10613b8057610100808354040283529160200191613bab565b820191906000526020600020905b815481529060010190602001808311613b8e57829003601f168201915b50505050508152602001600182018054600181600116156101000203166002900480601f016020809104026020016040519081016040528092919081815260200182805460018160011615610100020316600290048015613c4d5780601f10613c2257610100808354040283529160200191613c4d565b820191906000526020600020905b815481529060010190602001808311613c3057829003601f168201915b50505050508152602001600282018054600181600116156101000203166002900480601f016020809104026020016040519081016040528092919081815260200182805460018160011615610100020316600290048015613cef5780601f10613cc457610100808354040283529160200191613cef565b820191906000526020600020905b815481529060010190602001808311613cd257829003601f168201915b50505050508152602001600382018054600181600116156101000203166002900480601f016020809104026020016040519081016040528092919081815260200182805460018160011615610100020316600290048015613d915780601f10613d6657610100808354040283529160200191613d91565b820191906000526020600020905b815481529060010190602001808311613d7457829003601f168201915b5050505050815250509050806000015194508060200151935080606001519150806040015192505090919293565b601084805160208101820180518482526020830160208501208183528095505050505050838051602081018201805184825260208301602085012081835280955050505050506020528160005260406000208181548110613e1f57600080fd5b9060005260206000200160009350935050509054906101000a900473ffffffffffffffffffffffffffffffffffffffff1681565b6000601460008373ffffffffffffffffffffffffffffffffffffffff1673ffffffffffffffffffffffffffffffffffffffff168152602001908152602001600020805490509050919050565b6060600a8281548110613eae57fe5b90600052602060002090600202016001018054600181600116156101000203166002900480601f016020809104026020016040519081016040528092919081815260200182805460018160011615610100020316600290048015613f535780601f10613f2857610100808354040283529160200191613f53565b820191906000526020600020905b815481529060010190602001808311613f3657829003601f168201915b50505050509050919050565b82601383604051613f70919061514e565b908152602001604051809103902085604051613f8c919061514e565b9081526020016040518091039020600083815260200190815260200160002060003373ffffffffffffffffffffffffffffffffffffffff1673ffffffffffffffffffffffffffffffffffffffff1681526020019081526020016000206003019080519060200190613ffe929190614527565b5050505050565b61400e3361433d565b1561404e576040517f08c379a00000000000000000000000000000000000000000000000000000000081526004016140459061547a565b60405180910390fd5b6060849050600081511415614098576040517f08c379a000000000000000000000000000000000000000000000000000000000815260040161408f906153fa565b60405180910390fd5b6140a061460a565b604051806080016040528087815260200186815260200185815260200184815250905080600460003373ffffffffffffffffffffffffffffffffffffffff1673ffffffffffffffffffffffffffffffffffffffff168152602001908152602001600020600082015181600001908051906020019061411f929190614527565b50602082015181600101908051906020019061413c929190614527565b506040820151816002019080519060200190614159929190614527565b506060820151816003019080519060200190614176929190614527565b509050506007339080600181540180825580915050600190039060005260206000200160009091909190916101000a81548173ffffffffffffffffffffffffffffffffffffffff021916908373ffffffffffffffffffffffffffffffffffffffff160217905550505050505050565b600781815481106141f557600080fd5b906000526020600020016000915054906101000a900473ffffffffffffffffffffffffffffffffffffffff1681565b600080601184604051614237919061514e565b908152602001604051809103902085604051614253919061514e565b90815260200160405180910390208054905011156142e857600060118460405161427d919061514e565b908152602001604051809103902085604051614299919061514e565b908152602001604051809103902083815481106142b257fe5b9060005260206000200160009054906101000a900473ffffffffffffffffffffffffffffffffffffffff169050809150506142ec565b3390505b9392505050565b6000600d60003373ffffffffffffffffffffffffffffffffffffffff1673ffffffffffffffffffffffffffffffffffffffff16815260200190815260200160002060020181905550565b60006060600460008473ffffffffffffffffffffffffffffffffffffffff1673ffffffffffffffffffffffffffffffffffffffff1681526020019081526020016000206000018054600181600116156101000203166002900480601f0160208091040260200160405190810160405280929190818152602001828054600181600116156101000203166002900480156144175780601f106143ec57610100808354040283529160200191614417565b820191906000526020600020905b8154815290600101906020018083116143fa57829003601f168201915b50505050509050606081905060008151141592505050919050565b60006060600360008473ffffffffffffffffffffffffffffffffffffffff1673ffffffffffffffffffffffffffffffffffffffff1681526020019081526020016000206000018054600181600116156101000203166002900480601f01602080910402602001604051908101604052809291908181526020018280546001816001161561010002031660029004801561450c5780601f106144e15761010080835404028352916020019161450c565b820191906000526020600020905b8154815290600101906020018083116144ef57829003601f168201915b50505050509050606081905060008151141592505050919050565b828054600181600116156101000203166002900490600052602060002090601f01602090048101928261455d57600085556145a4565b82601f1061457657805160ff19168380011785556145a4565b828001600101855582156145a4579182015b828111156145a3578251825591602001919060010190614588565b5b5090506145b19190614632565b5090565b604051806040016040528060608152602001606081525090565b60405180606001604052806060815260200160608152602001600081525090565b604051806040016040528060608152602001606081525090565b6040518060800160405280606081526020016060815260200160608152602001606081525090565b5b8082111561464b576000816000905550600101614633565b5090565b60008135905061465e816156f6565b92915050565b600082601f83011261467557600080fd5b8135614688614683826155b8565b615587565b915080825260208301602083018583830111156146a457600080fd5b6146af8382846156a1565b50505092915050565b6000813590506146c78161570d565b92915050565b6000602082840312156146df57600080fd5b60006146ed8482850161464f565b91505092915050565b6000806040838503121561470957600080fd5b60006147178582860161464f565b9250506020614728858286016146b8565b9150509250929050565b60006020828403121561474457600080fd5b600082013567ffffffffffffffff81111561475e57600080fd5b61476a84828501614664565b91505092915050565b6000806040838503121561478657600080fd5b600083013567ffffffffffffffff8111156147a057600080fd5b6147ac85828601614664565b925050602083013567ffffffffffffffff8111156147c957600080fd5b6147d585828601614664565b9150509250929050565b600080600080608085870312156147f557600080fd5b600085013567ffffffffffffffff81111561480f57600080fd5b61481b87828801614664565b945050602085013567ffffffffffffffff81111561483857600080fd5b61484487828801614664565b935050604085013567ffffffffffffffff81111561486157600080fd5b61486d87828801614664565b925050606085013567ffffffffffffffff81111561488a57600080fd5b61489687828801614664565b91505092959194509250565b600080600080608085870312156148b857600080fd5b600085013567ffffffffffffffff8111156148d257600080fd5b6148de87828801614664565b945050602085013567ffffffffffffffff8111156148fb57600080fd5b61490787828801614664565b935050604085013567ffffffffffffffff81111561492457600080fd5b61493087828801614664565b9250506060614941878288016146b8565b91505092959194509250565b60008060006060848603121561496257600080fd5b600084013567ffffffffffffffff81111561497c57600080fd5b61498886828701614664565b935050602084013567ffffffffffffffff8111156149a557600080fd5b6149b186828701614664565b92505060406149c2868287016146b8565b9150509250925092565b600080600080608085870312156149e257600080fd5b600085013567ffffffffffffffff8111156149fc57600080fd5b614a0887828801614664565b945050602085013567ffffffffffffffff811115614a2557600080fd5b614a3187828801614664565b9350506040614a42878288016146b8565b9250506060614a538782880161464f565b91505092959194509250565b60008060008060808587031215614a7557600080fd5b600085013567ffffffffffffffff811115614a8f57600080fd5b614a9b87828801614664565b945050602085013567ffffffffffffffff811115614ab857600080fd5b614ac487828801614664565b9350506040614ad5878288016146b8565b9250506060614ae6878288016146b8565b91505092959194509250565b600060208284031215614b0457600080fd5b6000614b12848285016146b8565b91505092915050565b6000614b278383615095565b905092915050565b614b3881615659565b82525050565b6000614b49826155f8565b614b53818561561b565b935083602082028501614b65856155e8565b8060005b85811015614ba15784840389528151614b828582614b1b565b9450614b8d8361560e565b925060208a01995050600181019050614b69565b50829750879550505050505092915050565b614bbc8161566b565b82525050565b6000614bcd82615603565b614bd7818561562c565b9350614be78185602086016156b0565b614bf0816156e5565b840191505092915050565b6000614c0682615603565b614c10818561563d565b9350614c208185602086016156b0565b614c29816156e5565b840191505092915050565b6000614c3f82615603565b614c49818561564e565b9350614c598185602086016156b0565b80840191505092915050565b6000614c72601f8361563d565b91507f456c2061646472657373206e6f20707565646520657374617220766163696f006000830152602082019050919050565b6000614cb260258361563d565b91507f4c6120686f726120646520656e7472616461206e6f207075656465207365722060008301527f766163696f0000000000000000000000000000000000000000000000000000006020830152604082019050919050565b6000614d1860288361563d565b91507f536f6c6f207065726d697469646f206120616c756d6e6f73206e6f206d61747260008301527f6963756c61646f730000000000000000000000000000000000000000000000006020830152604082019050919050565b6000614d7e601c8361563d565b91507f456c206e6f6d627265206e6f2070756564652073657220766163696f000000006000830152602082019050919050565b6000614dbe60258361563d565b91507f536f6c6f207065726d697469646f206120616c756d6e6f73206d61747269637560008301527f6c61646f730000000000000000000000000000000000000000000000000000006020830152604082019050919050565b6000614e2460238361563d565b91507f536f6c6f207065726d697469646f20612070726f66657320726567697374726160008301527f646f7300000000000000000000000000000000000000000000000000000000006020830152604082019050919050565b6000614e8a60258361563d565b91507f4e6f207365207065726d697465206c6120726563657063696f6e20646520646960008301527f6e65726f2e0000000000000000000000000000000000000000000000000000006020830152604082019050919050565b6000614ef060268361563d565b91507f536f6c6f207065726d697469646f20612070726f666573206e6f20726567697360008301527f747261646f7300000000000000000000000000000000000000000000000000006020830152604082019050919050565b6000614f5660248361563d565b91507f456c206e6f6d6272652064656c206c6162206e6f20707565646520736572207660008301527f6163696f000000000000000000000000000000000000000000000000000000006020830152604082019050919050565b6000614fbc60288361563d565b91507f536f6c6f207065726d697469646f206120706572736f6e6173206e6f2072656760008301527f6973747261646f730000000000000000000000000000000000000000000000006020830152604082019050919050565b6000615022601b8361563d565b91507f4c61206665636861206e6f2070756564652073657220766163696f00000000006000830152602082019050919050565b600061506260178361563d565b91507f536f6c6f207065726d697469646f20616c206f776e65720000000000000000006000830152602082019050919050565b600060408301600083015184820360008601526150b28282614bc2565b915050602083015184820360208601526150cc8282614bc2565b9150508091505092915050565b600060608301600083015184820360008601526150f68282614bc2565b915050602083015184820360208601526151108282614bc2565b91505060408301516151256040860182615130565b508091505092915050565b61513981615697565b82525050565b61514881615697565b82525050565b600061515a8284614c34565b915081905092915050565b600060208201905061517a6000830184614b2f565b92915050565b600060e082019050615195600083018a614b2f565b81810360208301526151a78189614bfb565b905081810360408301526151bb8188614bfb565b905081810360608301526151cf8187614bfb565b905081810360808301526151e38186614bfb565b905081810360a08301526151f78185614bfb565b905081810360c083015261520b8184614bfb565b905098975050505050505050565b600060208201905081810360008301526152338184614b3e565b905092915050565b60006020820190506152506000830184614bb3565b92915050565b600060208201905081810360008301526152708184614bfb565b905092915050565b600060408201905081810360008301526152928185614bfb565b905081810360208301526152a68184614bfb565b90509392505050565b600060808201905081810360008301526152c98187614bfb565b905081810360208301526152dd8186614bfb565b905081810360408301526152f18185614bfb565b905081810360608301526153058184614bfb565b905095945050505050565b6000606082019050818103600083015261532a8186614bfb565b9050818103602083015261533e8185614bfb565b905061534d604083018461513f565b949350505050565b6000606082019050818103600083015261536f8186614bfb565b905061537e602083018561513f565b81810360408301526153908184614bfb565b9050949350505050565b600060208201905081810360008301526153b381614c65565b9050919050565b600060208201905081810360008301526153d381614ca5565b9050919050565b600060208201905081810360008301526153f381614d0b565b9050919050565b6000602082019050818103600083015261541381614d71565b9050919050565b6000602082019050818103600083015261543381614db1565b9050919050565b6000602082019050818103600083015261545381614e17565b9050919050565b6000602082019050818103600083015261547381614e7d565b9050919050565b6000602082019050818103600083015261549381614ee3565b9050919050565b600060208201905081810360008301526154b381614f49565b9050919050565b600060208201905081810360008301526154d381614faf565b9050919050565b600060208201905081810360008301526154f381615015565b9050919050565b6000602082019050818103600083015261551381615055565b9050919050565b6000602082019050818103600083015261553481846150d9565b905092915050565b6000602082019050615551600083018461513f565b92915050565b600060408201905061556c600083018561513f565b818103602083015261557e8184614bfb565b90509392505050565b6000604051905081810181811067ffffffffffffffff821117156155ae576155ad6156e3565b5b8060405250919050565b600067ffffffffffffffff8211156155d3576155d26156e3565b5b601f19601f8301169050602081019050919050565b6000819050602082019050919050565b600081519050919050565b600081519050919050565b6000602082019050919050565b600082825260208201905092915050565b600082825260208201905092915050565b600082825260208201905092915050565b600081905092915050565b600061566482615677565b9050919050565b60008115159050919050565b600073ffffffffffffffffffffffffffffffffffffffff82169050919050565b6000819050919050565b82818337600083830152505050565b60005b838110156156ce5780820151818401526020810190506156b3565b838111156156dd576000848401525b50505050565bfe5b6000601f19601f8301169050919050565b6156ff81615659565b811461570a57600080fd5b50565b61571681615697565b811461572157600080fd5b5056fea26469706673582212204b0ae4dd696148af27f4c7b87669a13705096c40d18694031adebf0381ce708c64736f6c63430007040033",
  "immutableReferences": {},
  "source": "pragma solidity ^0.7.4;\r\npragma experimental ABIEncoderV2;//enabled when passing an array of string(struct) as a function paramete\r\n\r\n\r\n/*\r\n*falta : \r\n*crear lo de las asignaturas con los laborarios y puestos a los que perteneces y las caracteristicas que desepean cada puesto \r\n*crear las reservas , se va a reservar por semana un puesto de un determinado laboratorio \r\n*/\r\n\r\n\r\ncontract ReslabEtsit {\r\n    \r\n   \r\n    /**\r\n     * address del profesor que ha desplegado el contrato.\r\n     * El contrato lo despliega el profesor.\r\n     */\r\n    address public owner;\r\n    address public profesorP;\r\n     \r\n    \r\n    /// Nombre de la asignatura\r\n    //string public nombre;\r\n    \r\n   \r\n    \r\n    /**\r\n     * Datos de un puesto\r\n     */\r\n     \r\n     \r\n     \r\n    enum TipoSO {windows, macos , linux}\r\n    \r\n    enum TipoConexionesRed { cable, inalambrico} // array de strings \r\n    \r\n   \r\n   // enum Horario { turnom ,turnot}//poenr horas y turnos en enum???? array de horas \r\n    \r\n    struct DatosPuesto {\r\n        uint PuestoId;\r\n        string nombreP;\r\n        //caracteristicas\r\n        //TipoConexionesRed tipoConexionesRed;\r\n        //TipoSO tipoSO;\r\n       // Laboratorio laboratorio;\r\n       \r\n    }\r\n    \r\n    \r\n    \r\n    \r\n    \r\n    /// puestos de la asignatura.\r\n   // Puesto[] public puestos;\r\n    \r\n    //labs de la asignatura\r\n    \r\n   // Laboratorio[] public laboratorios;\r\n   \r\n   \r\n    /**\r\n    * datos de todos los labs con sus parametro en la pantalla de inicio\r\n    * DUDA -> QUIERO PONERARRAY DE STRING DE ASIGNATURA!!\r\n    **/\r\n     struct DatosLaboratorio {\r\n        uint labId;\r\n        string nombreL;\r\n        //string[] asignaturaL;\r\n       \r\n    }\r\n    \r\n    /**\r\n    * datos del alumno que se registra \r\n    **/\r\n   // datos persona \r\n    struct DatosPersona {\r\n\taddress dir;\r\n    }\r\n\r\n    /// Datos de un alumno.\r\n    struct DatosAlumno {\r\n        string nombre;\r\n        string email;\r\n        \r\n    }\r\n    \r\n    /**\r\n     * Datos profe que se registra \r\n     * */\r\n     \r\n    \r\n    struct DatosProfesor{\r\n        string nombreP;\r\n        string emailP;\r\n        string asignaturaP;\r\n        string departamentoP;\r\n    }\r\n    \r\n    \r\n    \r\n    /**\r\n     * Datos de lasegunda pantalla donde te aparcene el estado de reserva, puestos etc del lab)\r\n     * */\r\n    struct PinchaLab {\r\n        \r\n\r\n\tstring puesto;\r\n        \r\n\r\n\tstring info; //enumerado del sistema operativo!!!!!!!!!!!\r\n    }\r\n\r\n\r\n    /**\r\n     * Datos de la tercera  pantalla donde te aparcene el estado de reserva, asignatuas etc del lab)\r\n     * */\r\n\r\n    struct PinchaPuesto {\r\n        \r\n\taddress dir;\r\n\t\r\n\tstring fecha;\r\n\tstring entradaTurno;\r\n\tstring salidaTurno;\r\n\t\r\n        \r\n\tstring estado;\r\n\tstring asignatura;\r\n\tstring info; //enumerado del sistema operativo!!!!!!!!!!!\r\n    }\r\n\r\n\r\n\r\n\r\n\r\n    \r\n   /* struct DatosAsignatura{\r\n        string nombre;\r\n        Laboratorio[] laboratorio;\r\n        Puesto[] puesto;\r\n        //credito semanal\r\n        //Matriculas matriculados;\r\n    }\r\n    */\r\n    \r\n    \r\n    \r\n    /**\r\n     * Datos de los datos de las ultimas reservas registradas // FALTAN PUESTO\r\n     * */\r\n     \r\n     struct UltimaReserva{\r\n         string lab;\r\n         uint turno;\r\n         string fecha;\r\n         \r\n         \r\n     }\r\n     \r\n     /**\r\n      * Datos de mireserva //FALTA PUESTO\r\n      * */\r\n      \r\n      struct ReservaAlumno{\r\n          string lab;\r\n          string fecha;\r\n          uint estado;\r\n          //string puesto;\r\n\r\n      }\r\n      \r\n      // acceder a los datos de una persona dada su direccion\r\n      mapping (address => DatosPersona) public datosPersona;\r\n    \r\n    /// Acceder a los datos de un alumno dada su direccion.\r\n    mapping (address => DatosAlumno) public datosAlumno;\r\n    \r\n      /// Acceder a los datos de un profe dada su direccion.\r\n    mapping (address => DatosProfesor) public datosProfesor;\r\n    \r\n    //mapping (address => DatosAsignatura)  datosAsignatura;\r\n    \r\n    \r\n    mapping (address => DatosLaboratorio)  datosLaboratorio;\r\n\r\n    //mapping(uint => Laboratorio) public labPuestos; //acceder a los puestos del lab dada la info del lab\r\n  \r\n\r\n    \r\n    // Array con las direcciones de los alumnos matriculados.\r\n    address[] public matriculas;\r\n    \r\n    \r\n    //array con las direcciones de los profes registrados \r\n    address[] public profesRegistrados;\r\n    \r\n        // Array con las direcciones de las personas registradas.\r\n    address[] public registradosP;\r\n\r\n    \r\n    //Array credito semanal \r\n    address [] public creditosemanal;\r\n    \r\n    //address[] public asignaturasRegistradas;\r\n    \r\n    \r\n    // labs en la escuela\r\n    DatosLaboratorio[] public laboratoriosRegistrados;\r\n    //reservas de la escuela\r\n\r\n    // puestos en la escuela\r\n    DatosPuesto[] public puestosRegistrados;\r\n    \r\n    UltimaReserva[] public reservasLab;\r\n        \r\n   \r\n\r\n     //reserva para un usuario \r\n  \r\n    mapping (address => ReservaAlumno) public reservasAlumno;\r\n    \r\n    \r\n    //turno de la escuela\r\n\r\n    mapping (string => mapping (string  => uint[] )) public turnos;\r\n    \r\n        /// Mapping para evitar duplicados de turnos.\r\n    mapping (string => mapping (string  => mapping ( uint => bool ))) public turnos_existentes;\r\n    \r\n    /// Direcciones de las personas que han asistido a algun aula en alguna de las fechas y en algun turno.\r\n    mapping (string => mapping (string => mapping (uint => address[] ))) public personas;\r\n   \r\n    /// Direcciones de las personas que han asistido a algun aula en alguna de las fechas.\r\n    mapping (string => mapping (string => address[] )) public personasTotales;\r\n    \r\n    // Dada la fecha actual, el nombre del aula, el turno y la direccin de la persona, devuelve\r\n    // la entrada correspondiente a dicha persona.\r\n    mapping (string => mapping (string => mapping (uint => mapping (address => PinchaLab)))) public datosLab;\r\n\r\n     // Dada la fecha actual, el nombre del aula, el turno y la direccin de la persona, devuelve\r\n    // la entrada correspondiente a dicha persona.\r\n    mapping (string => mapping (string => mapping (uint => mapping (address => PinchaPuesto)))) public datosPuesto;\r\n\r\n\r\n    /// Ultimas entradas de cada persona.\r\n    mapping (address => UltimaReserva[] ) public ultimosRegistros;\r\n\r\n  // mapping(uint => bool) public registeredLaboratorios; //saberr si un lab esta registrado\r\n   // mapping(uint => Laboratorio) public labPuestos; //acceder a los puestos del lab dada la info del lab \r\n    // labId -> mes ->semana-> hora -> waitingList[]\r\n /*   mapping(uint => mapping(uint => mapping(uint => mapping(uint => address[])))) public reservations;\r\n    // labId -> mes ->semana-> hora -> waitingListLength\r\n    mapping(uint => mapping(uint => mapping(uint => mapping(uint => uint)))) public reservationLengths;\r\n    // address -> _labID -> mes ->semana-> hora -> bool*/\r\n /*   mapping(address => mapping(uint => mapping(uint => mapping(uint => mapping(uint => bool))))) public isLabReserved;\r\n    event Reservation(\r\n        address indexed _from,\r\n        uint _labID,\r\n        uint _mes,\r\n        uint _semana,\r\n        uint _hora\r\n    );\r\n    event Cancellation(\r\n        address indexed _from,\r\n        uint _labID,\r\n        uint _mes,\r\n        uint _semana,\r\n        uint _hora\r\n    );\r\n    \r\n    \r\n  */\r\n    \r\n    \r\n    \r\n    \r\n    /*\r\n     * Constructor.\r\n     * \r\n     * @param _nombre Nombre de la asignatura.\r\n     * //habria qu eponer nombre puesto /lab /alumno etc \r\n    \r\n     */\r\n    /*constructor(string memory _nombre) {\r\n        \r\n        bytes memory bn = bytes(_nombre);\r\n        require(bn.length != 0, \"El nombre de la asignatura no puede ser vacio\");\r\n       \r\n       \r\n      \r\n        owner = msg.sender;\r\n        nombre = _nombre;\r\n        \r\n        \r\n     \r\n        \r\n    }*/\r\n    \r\n    constructor()  {\r\n        owner = msg.sender;\r\n    } //?????????????????????????????????\r\n\r\n    \r\n    \r\n    \r\n    \r\n    \r\n/**\r\n     * El numero de labs  creadas.\r\n     *\r\n     * @return El numero de puestos creadas.\r\n     */\r\n    function puestosLength() public view returns(uint) {\r\n        return puestosRegistrados.length;\r\n    }\r\n    \r\n    \r\n    \r\n     /**\r\n     * El numero de labs  creadas.\r\n     *\r\n     * @return El numero de labs creadas.\r\n     */\r\n    function laboratoriosLength() public view returns(uint) {\r\n        return laboratoriosRegistrados.length;\r\n    }\r\n    \r\n    \r\n    \r\n        /**\r\n     * El numero de reservas existentes.\r\n     *\r\n     * @return El numero de alertas existentes.\r\n     */\r\n    function reservasLength() public view returns(uint) {\r\n        return reservasLab.length;\r\n\r\n    }\r\n\r\n\t  /**\r\n     * El numero de ultimosRegistros existentes.\r\n     *\r\n     * @return El numero de ultimosRegistros existentes.\r\n     */\r\n    function ultimosRegistrosLength(address dir) public view returns(uint) {\r\n\treturn ultimosRegistros[dir].length;\r\n    }\r\n        \r\n    /**\r\n     * Permite obtener la longitud del array de personasTotales.\r\n     * \r\n     */\r\n    function personasLength(string memory _nombre, string memory _fecha) public view returns(uint) {\r\n\r\n\tuint longitud = personasTotales[_fecha][_nombre].length;\r\n\r\n\tif(longitud == 0){\r\n\t  longitud = 1;\r\n\t}\r\n\r\n  \treturn longitud;\r\n\r\n    }\r\n\r\n\r\n\r\n    /**\r\n     * Permite obtener un address del array de personas.\r\n     * \r\n     */\r\n    function dirPersonas(string memory _nombre, string memory _fecha, uint _indice) public view returns(address) {\r\n\r\n\tif(personasTotales[_fecha][_nombre].length > 0){\r\n\taddress _dirUno = personasTotales[_fecha][_nombre][_indice];\r\n\treturn _dirUno;\r\n\r\n\t}else{\r\n\treturn msg.sender;\r\n\t}\t\t\t\r\n\t\r\n    }\r\n    \r\n        /**\r\n     * Obtiene los datos de una persona registrada.\r\n     * \r\n     * @param persona La direccion de una persona.\r\n     * \r\n     * @return los datos de una persona registrada.\r\n     */\r\n    function obtenerDatosPersona(address persona)  public view returns(address) {\r\n\t\r\n\t\r\n\tif(!estaRegistrado(persona)){\r\n\treturn address(0);\r\n\t} else{\t\r\n\treturn datosPersona[persona].dir;\r\n\t}\r\n\t\r\n        \r\n        \r\n    } \r\n    \r\n\r\n\r\n        /**\r\n     * La alerta (si la hay) de un alumno.\r\n     *\r\n     */\r\n    function reservas(address _dir) public view returns (ReservaAlumno memory) {\r\n\r\n\treturn reservasAlumno[_dir]; \r\n    }\r\n\r\n\r\n\r\n    /**\r\n     * Eliminar la alerta de un usuario\r\n     *\r\n     */\r\n    function reiniciarReserva() public {\r\n\r\n\treservasAlumno[msg.sender].estado = 0 ;\r\n\r\n\r\n    }\r\n\r\n        /**\r\n     * El lab del que se desea ver el historial.\r\n     *\r\n     */\r\n    function LabPulsado(uint x) public view returns (string memory) {\r\n\r\n\treturn laboratoriosRegistrados[x].nombreL; \r\n    }\r\n\r\n\r\n          /**\r\n     * El lab del que se desea ver el historial.\r\n     *\r\n     */\r\n    function PuestoPulsado(uint x) public view returns (string memory) {\r\n\r\n\treturn puestosRegistrados[x].nombreP; \r\n    }\r\n\r\n    \r\n  /**\r\n     * Las personas pueden registrar su asistencia a un lab con el metodo guardarReserva.\r\n     * \r\n     * Impedir que se pueda meter un nombre vacio.\r\n     *\r\n     *  _nombre El nombre del aula. \r\n     * _ent Hora de entrada al aula.\r\n     *  _fecha Fecha de entrada al aula.\r\n     *  _puesto Puesto en el aula.\r\n     */\r\n    function guardarReserva(string memory _nombre, string memory _entradaTurno, string memory _fecha,  uint _turno) public {\r\n        \r\n\t\r\n    bytes memory a = bytes(_nombre);\r\n    require(a.length != 0, \"El nombre no puede ser vacio\");\r\n\r\n\tbytes memory b = bytes(_entradaTurno);\r\n\trequire(b.length != 0, \"La hora de entrada no puede ser vacio\");\r\n\r\n\tbytes memory c = bytes(_fecha);\r\n\trequire(c.length != 0, \"La fecha no puede ser vacio\");\r\n\r\n\t\r\n\tdatosPuesto[_fecha][_nombre][_turno][msg.sender].dir = msg.sender;\r\n\tdatosPuesto[_fecha][_nombre][_turno][msg.sender].fecha = _fecha;\r\n\tdatosPuesto[_fecha][_nombre][_turno][msg.sender].entradaTurno = _entradaTurno; \r\n\t\r\n \t\r\n\tif (reservasAlumno[msg.sender].estado==0) {\r\n   \tdatosPuesto[_fecha][_nombre][_turno][msg.sender].estado = \"Inicial\";\r\n\t} else if (reservasAlumno[msg.sender].estado==1) {\r\n   \tdatosPuesto[_fecha][_nombre][_turno][msg.sender].estado = \"Sospechoso\";\r\n\t} else if (reservasAlumno[msg.sender].estado==2) {\r\n   \tdatosPuesto[_fecha][_nombre][_turno][msg.sender].estado = \"Positivo\";\r\n\t} else {\r\n   \tdatosPuesto[_fecha][_nombre][_turno][msg.sender].estado = \"Negativo\";\r\n\t}\r\n\r\n        personas[_fecha][_nombre][_turno].push(msg.sender);\r\n\tpersonasTotales[_fecha][_nombre].push(msg.sender);\r\n\tultimosRegistros[msg.sender].push(UltimaReserva(_nombre,_turno,_fecha));\r\n\t\r\n\tif (turnos_existentes[_fecha][_nombre][_turno] == false){\r\n\t   turnos[_fecha][_nombre].push(_turno);\r\n\t   turnos_existentes[_fecha][_nombre][_turno] = true;\r\n\t}\r\n\r\n        \r\n    }\r\n    \r\n\r\n    /**\r\n     * Las personas pueden registrar su salida del aula con el metodo guardarSalida.\r\n     * \r\n     * Impedir que se pueda meter un nombre vacio.\r\n     *\r\n     * _nombre El nombre del aula. \r\n     *  _sal Hora de salida al aula.\r\n     *  _fecha Fecha de entrada al aula.\r\n     */\r\n    function guardarSalida(string memory _nombre, string memory _salidaTurno, string memory _fecha, uint _turno) public {\r\n\r\n\tdatosPuesto[_fecha][_nombre][_turno][msg.sender].salidaTurno = _salidaTurno;\r\n        \r\n    }\r\n\r\n\r\n\r\n\r\n      /**\r\n     * Permite al administrador obtener los datos de un aula para que sean visualizados.\r\n     * \r\n     */\r\n    function guardarEntradasLaboratorio(string memory _nombre, string memory _fecha) public view returns(PinchaLab[] memory) {\r\n\r\n\tuint cont = 0;\r\n\tuint iterador = 0;\r\n\r\n\tuint num_turnos = turnos[_fecha][_nombre].length;\r\n\t\r\n\tfor(uint j = 0; j < num_turnos ; j++){\r\n\r\n\tcont = cont + personas[_fecha][_nombre][turnos[_fecha][_nombre][j]].length;\r\n\r\n\t}\t\r\n\r\n\r\n\tif(num_turnos > 0){\r\n\r\n\tPinchaLab[] memory entradas = new PinchaLab[](cont);\r\n\r\n\tfor(uint j = 0; j < num_turnos ; j++){\r\n\r\n\taddress[] memory _dir = personas[_fecha][_nombre][turnos[_fecha][_nombre][j]];\t\r\n\r\n\tfor(uint i = iterador; i < _dir.length + iterador ; i++){\r\n\r\n\t\r\n\tentradas[i].puesto = datosLab[_fecha][_nombre][turnos[_fecha][_nombre][j]][_dir[i]].puesto;\r\n\t\r\n    entradas[i].info = datosLab[_fecha][_nombre][turnos[_fecha][_nombre][j]][_dir[i]].info;\r\n\t\r\n\t}\r\n\titerador = iterador + _dir.length;\r\n\t}\r\n\titerador = 0;\r\n\tcont = 0;\r\n\tnum_turnos = 0;\r\n\treturn entradas;\r\n\r\n\t}\r\n\telse{\r\n\t\r\n\tPinchaLab[] memory entradas_dos = new PinchaLab[](1);\r\n\t\r\n\tentradas_dos[0].puesto = \"A\";\r\n    \r\n\tentradas_dos[0].info = \"linux\";\r\n\r\n\treturn entradas_dos;\r\n\r\n\t}\t\r\n\r\n    }\r\n\r\n\r\n\r\n\r\n\r\n\r\n\r\n\r\n\r\n\r\n    /**\r\n     * El administrador puede eliminar un aula con el metodo eliminarAula.\r\n     * \r\n     * Impedir que se pueda meter un indice vacio.\r\n     *\r\n     *  _indice El nombre del aula. \r\n     */\r\n    \r\n    \r\n    \r\n    /*\r\n     * Crear un puesto\r\n     *\r\n     * Llos puestos se meteran en el array de puestos y nos refereimos por su posicion en el array\r\n     *  _nombre El nombre de puesto \r\n     \r\n   \r\n     * \r\n     * La posicion en el array lab\r\n     */\r\n     \r\n     \r\n     //poner lo del laboratorio pero me dice lo de use pragma experimental ABIENCODERV2\r\n    //function creaPuesto(string memory _nombre,TipoConexionesRed  _tipoConexionesRed,TipoSO  _TipoSO/*Laboratorio _laboratorio*/) soloProfesor public returns (uint) {\r\n        \r\n     //  bytes memory bn = bytes(_nombre);\r\n       // require(bn.length != 0, \"El nombre de la puesto no puede ser vacio\");\r\n        \r\n        //puestos.push(Puesto(_nombre,_tipoConexionesRed,_TipoSO/*_laboratorio*/));\r\n        //return puestos.length - 1;\r\n  //  }\r\n    \r\n    \r\n    \r\n    \r\n        \r\n     //poner lo del laboratorio pero me dice lo de use pragma experimental ABIENCODERV2\r\n    function creaLaboratorio( string memory _nombreL)  soloOwner public returns (uint) {\r\n        \r\n        bytes memory bn = bytes(_nombreL);\r\n        require(bn.length != 0, \"El nombre del lab no puede ser vacio\");\r\n        \r\n        laboratoriosRegistrados.push(DatosLaboratorio(laboratoriosRegistrados.length,_nombreL));\r\n        return laboratoriosRegistrados.length - 1;\r\n    }\r\n    \r\n    \r\n    \r\n    \r\n    \r\n        \r\n    \r\n \r\n     /**\r\n     * El numero de alumnos matriculados.\r\n     *\r\n     * @return El numero de alumnos matriculados.\r\n     */\r\n    function matriculasLength() public view returns(uint) {\r\n        return matriculas.length;\r\n    }\r\n    \r\n    \r\n    \r\n      /**\r\n     * El numero de profes registrados.\r\n     *\r\n     * .\r\n     */\r\n    function profesRegistradosLength() public view returns(uint) {\r\n        return profesRegistrados.length;\r\n    }\r\n    \r\n    \r\n       /**\r\n     * El numero de asignaturas registrados.\r\n     *\r\n     * .\r\n     */\r\n    /*function asignaturasRegistradasLength() public view returns(uint) {\r\n        return asignaturasRegistradas.length;\r\n    }\r\n    */\r\n    \r\n    \r\n    \r\n    \r\n      /**\r\n     * numero de credito semanal \r\n     *\r\n     * @return El numero de credito semanal \r\n     * \r\n     */\r\n     /*function creditosemanalLength() public view returns(uint) {\r\n        return creditosemanal.length;\r\n    }???????????????????????????*/\r\n     \r\n    \r\n    \r\n    \r\n    \r\n    /**\r\n     * Los alumnos pueden automatricularse con el metodo automatricula.\r\n     * \r\n     * Impedir que se pueda meter un nombre vacio.\r\n     *\r\n     * @param _nombre El nombre del alumno. \r\n     * @param _email  El email del alumno.\r\n     */\r\n    function automatricula(string memory _nombre, string memory _email) noMatriculados public {\r\n        //revert(\"siempre falla\");\r\n        bytes memory b = bytes(_nombre);\r\n        require(b.length != 0, \"El nombre no puede ser vacio\");\r\n        \r\n        DatosAlumno memory datos = DatosAlumno(_nombre, _email);\r\n        \r\n        datosAlumno[msg.sender] = datos;\r\n        \r\n        matriculas.push(msg.sender);\r\n        \r\n    }\r\n    \r\n    \r\n        function autoregistroP() noRegistradosP public {\r\n        \r\n        require(msg.sender!=address(0), \"El address no puede estar vacio\");\r\n        \r\n        datosPersona[msg.sender] = DatosPersona(msg.sender);\r\n        \r\n        registradosP.push(msg.sender);\r\n        \r\n    }\r\n    \r\n    \r\n  \r\n    function autoRegistro(string memory _nombreP, string memory _emailP,string memory _asignaturaP,string memory _departamentoP ) noRegistrados public {\r\n        \r\n        bytes memory b = bytes(_nombreP);\r\n        require(b.length != 0, \"El nombre no puede ser vacio\");\r\n        \r\n        DatosProfesor memory datosP = DatosProfesor(_nombreP, _emailP,_asignaturaP,_departamentoP);\r\n        \r\n        datosProfesor[msg.sender] = datosP;\r\n        \r\n       profesRegistrados.push(msg.sender);\r\n        \r\n    }\r\n    \r\n    \r\n    \r\n    \r\n    \r\n    \r\n    \r\n    \r\n    \r\n    \r\n    \r\n    \r\n    /**\r\n     * Permite a un alumno obtener sus propios datos.\r\n     * \r\n     * @return _nombre El nombre del alumno que invoca el metodo.\r\n     * @return _email  El email del alumno que invoca el metodo.\r\n     */\r\n    function quienSoy() soloMatriculados public view returns (string memory _nombre, string memory _email) {\r\n        DatosAlumno memory datos = datosAlumno[msg.sender];\r\n        _nombre = datos.nombre;\r\n        _email = datos.email;\r\n    }\r\n    \r\n    \r\n      function quienSoyP() soloRegistrados public view returns (string memory _nombreP, string memory _emailP,string memory _asignaturaP,string memory _departamentoP) {\r\n        DatosProfesor memory datosP = datosProfesor[msg.sender];\r\n        _nombreP = datosP.nombreP;\r\n        _emailP = datosP.emailP;\r\n        _departamentoP = datosP.departamentoP;\r\n        _asignaturaP = datosP.asignaturaP;\r\n    }\r\n    \r\n    \r\n    \r\n\r\n    \r\n    \r\n    /**\r\n     * Consulta si una direccion pertenece a un alumno matriculado.\r\n     * \r\n     * @param alumno La direccion de un alumno.\r\n     * \r\n     * @return true si es una alumno matriculado.\r\n     */\r\n    function estaMatriculado(address alumno) private view returns (bool) {\r\n      \r\n        string memory _nombre = datosAlumno[alumno].nombre;\r\n        \r\n        bytes memory b = bytes(_nombre);\r\n        \r\n        return b.length != 0;\r\n    } \r\n    \r\n    \r\n       function estaRegistrado(address profesor) private view returns (bool) {\r\n      \r\n        string memory _nombreP = datosProfesor[profesor].nombreP;\r\n        \r\n        bytes memory b = bytes(_nombreP);\r\n        \r\n        return b.length != 0;\r\n    } \r\n    \r\n    function estaRegistradoP(address persona) public view returns (bool) {\r\n\r\n\taddress _dir = datosPersona[persona].dir;\r\n        return _dir!=address(0);\r\n    } \r\n    \r\n    \r\n    //como hacer para que te devuelva los puestos segun asignatura \r\n    \r\n    /*function getPuestos (string asignatura) soloMatriculados public view returns (\r\n        string nombre, TipoConexionesRed tipoConexionesRed,TipoSO tipoSO)\r\n         \r\n         require (asignatura.length!=0,\"no vacio\");\r\n         \r\n         Puesto memory puesto= tipoConexionesRed[msg.sender][asignatura];\r\n         //meter tb tipoSO\r\n         tipoConexionesRed=Puesto.tipoConexionesRed\r\n         tipoSO=Puesto.tipoSO;\r\n         \r\n    // con laboratorios tb ! */\r\n   \r\n    \r\n   //RESERVASSSSSSSSSSSSSSSSSS\r\n   \r\n   \r\n   \r\n   \r\n   /*function addLab(uint labId, uint maxPuestos) public {\r\n        require(registeredLaboratorios[labId] == false, \"lab has already been registered\");\r\n        require(msg.sender == owner, \"You are not the owner\");\r\n        labPuestos[labId] = Laboratorio({\r\n            labId: labId,\r\n            maxPuestos: maxPuestos\r\n        });\r\n        registeredLaboratorios[labId] = true;\r\n    }\r\n    */\r\n   /* function addReservation(uint   _labID, uint mes,uint semana, uint hora) public {\r\n        require(registeredLaboratorios[_labID] == true, \"lab does not exist\");\r\n        //require(puestoId < labPuestos[labId].maxPuestos, \"Puesto does not exist\");\r\n        require(\r\n            isLabReserved[msg.sender][_labID][mes][semana][hora] == false, \r\n            \"You already have a reservation for this lab at this time\"\r\n        );\r\n        reservations[_labID][mes][semana][hora] .push(msg.sender);\r\n        reservationLengths[_labID][mes][semana][hora]  += 1;\r\n        isLabReserved[msg.sender][_labID][mes][semana][hora] = true;\r\n        emit Reservation(msg.sender, _labID, mes, semana,hora);\r\n    }\r\n    function cancelReservation(uint _labID, uint mes,uint semana, uint hora) public {\r\n        require(registeredLaboratorios[_labID] == true, \"lab does not exist\");\r\n       // require(puestoId < labPuestos[_labID].maxPuestos, \"Puesto does not exist\");\r\n        require(\r\n            isLabReserved[msg.sender][_labID][mes][semana][hora] == true, \r\n            \"You don't have a reservation for this Lab\"\r\n        );\r\n        for (uint i = 0; i < reservations[_labID][mes][semana][hora].length; i++) {\r\n            if (reservations[_labID][mes][semana][hora][i] == msg.sender) {\r\n                delete reservations[_labID][mes][semana][hora][i];\r\n                break;\r\n            }\r\n        }\r\n        reservationLengths[_labID][mes][semana][hora] -= 1;\r\n        isLabReserved[msg.sender][_labID][mes][semana][hora] = false;\r\n        emit Cancellation(msg.sender, _labID, mes, semana,hora);\r\n    } */\r\n\r\n\r\n\r\n\r\n           /**\r\n     * Modificador para que una funcion solo la pueda ejecutar el profesor.\r\n     * \r\n     *\r\n     */\r\n    modifier soloOwner() {\r\n        \r\n        require(msg.sender == owner, \"Solo permitido al owner\");\r\n        _;\r\n    }\r\n    \r\n    \r\n    /**\r\n     * Modificador para que una funcion solo la pueda ejecutar el profesor.\r\n     * \r\n     *\r\n     */\r\n    modifier soloProfesor() {\r\n        \r\n        require(msg.sender == profesorP, \"Solo permitido al profesor\");\r\n        _;\r\n    }\r\n    \r\n    \r\n    /**\r\n     * Modificador para que una funcion solo la pueda ejecutar un alumno matriculado.\r\n     */\r\n    modifier soloMatriculados() {\r\n        \r\n        require(estaMatriculado(msg.sender), \"Solo permitido a alumnos matriculados\");\r\n        _;\r\n    }\r\n    \r\n    \r\n      modifier soloRegistrados() {\r\n        \r\n        require(estaRegistrado(msg.sender), \"Solo permitido a profes registrados\");\r\n        _;\r\n    }\r\n    \r\n    \r\n \r\n    /**\r\n     * Modificador para que una funcion solo la pueda ejecutar un alumno no matriculado aun.\r\n     */\r\n    modifier noMatriculados() {\r\n        \r\n        require(!estaMatriculado(msg.sender), \"Solo permitido a alumnos no matriculados\");\r\n        _;\r\n    }\r\n    \r\n    \r\n    \r\n      modifier noRegistrados() {\r\n        \r\n        require(!estaRegistrado(msg.sender), \"Solo permitido a profes no registrados\");\r\n        _;\r\n    }\r\n    \r\n        \r\n      modifier noRegistradosP() {\r\n        \r\n        require(!estaRegistradoP(msg.sender), \"Solo permitido a personas no registrados\");\r\n        _;\r\n    }\r\n    \r\n    \r\n       receive() external payable {\r\n        revert(\"No se permite la recepcion de dinero.\");\r\n    }\r\n}\r\n",
  "sourcePath": "C:/Users/Paula Huertas/reslabetsit/contracts/ReslabEtsit.sol",
  "compiler": {
    "name": "solc",
    "version": "0.7.4+commit.3f05b770.Emscripten.clang"
  },
  "schemaVersion": "3.3.4",
  "updatedAt": "2021-12-19T11:11:48.467Z",
  "networkType": "ethereum",
  "devdoc": {
    "kind": "dev",
    "methods": {
      "automatricula(string,string)": {
        "params": {
          "_email": "El email del alumno.",
          "_nombre": "El nombre del alumno. "
        }
      },
      "laboratoriosLength()": {
        "returns": {
          "_0": "El numero de labs creadas."
        }
      },
      "matriculasLength()": {
        "returns": {
          "_0": "El numero de alumnos matriculados."
        }
      },
      "obtenerDatosPersona(address)": {
        "params": {
          "persona": "La direccion de una persona. "
        },
        "returns": {
          "_0": "los datos de una persona registrada."
        }
      },
      "puestosLength()": {
        "returns": {
          "_0": "El numero de puestos creadas."
        }
      },
      "quienSoy()": {
        "returns": {
          "_email": " El email del alumno que invoca el metodo.",
          "_nombre": "El nombre del alumno que invoca el metodo."
        }
      },
      "reservasLength()": {
        "returns": {
          "_0": "El numero de alertas existentes."
        }
      },
      "ultimosRegistrosLength(address)": {
        "returns": {
          "_0": "El numero de ultimosRegistros existentes."
        }
      }
    },
    "version": 1
  },
  "userdoc": {
    "kind": "user",
    "methods": {
      "LabPulsado(uint256)": {
        "notice": "El lab del que se desea ver el historial."
      },
      "PuestoPulsado(uint256)": {
        "notice": "El lab del que se desea ver el historial."
      },
      "automatricula(string,string)": {
        "notice": "Los alumnos pueden automatricularse con el metodo automatricula.  Impedir que se pueda meter un nombre vacio."
      },
      "creaLaboratorio(string)": {
        "notice": "El administrador puede eliminar un aula con el metodo eliminarAula.  Impedir que se pueda meter un indice vacio.  _indice El nombre del aula. "
      },
      "datosAlumno(address)": {
        "notice": "Acceder a los datos de un alumno dada su direccion."
      },
      "datosProfesor(address)": {
        "notice": "Acceder a los datos de un profe dada su direccion."
      },
      "dirPersonas(string,string,uint256)": {
        "notice": "Permite obtener un address del array de personas. "
      },
      "guardarEntradasLaboratorio(string,string)": {
        "notice": "Permite al administrador obtener los datos de un aula para que sean visualizados. "
      },
      "guardarReserva(string,string,string,uint256)": {
        "notice": "Las personas pueden registrar su asistencia a un lab con el metodo guardarReserva.  Impedir que se pueda meter un nombre vacio.  _nombre El nombre del aula.  _ent Hora de entrada al aula.  _fecha Fecha de entrada al aula.  _puesto Puesto en el aula."
      },
      "guardarSalida(string,string,string,uint256)": {
        "notice": "Las personas pueden registrar su salida del aula con el metodo guardarSalida.  Impedir que se pueda meter un nombre vacio. _nombre El nombre del aula.   _sal Hora de salida al aula.  _fecha Fecha de entrada al aula."
      },
      "laboratoriosLength()": {
        "notice": "El numero de labs  creadas."
      },
      "matriculasLength()": {
        "notice": "El numero de alumnos matriculados."
      },
      "obtenerDatosPersona(address)": {
        "notice": "Obtiene los datos de una persona registrada. "
      },
      "owner()": {
        "notice": "address del profesor que ha desplegado el contrato. El contrato lo despliega el profesor."
      },
      "personas(string,string,uint256,uint256)": {
        "notice": "Direcciones de las personas que han asistido a algun aula en alguna de las fechas y en algun turno."
      },
      "personasLength(string,string)": {
        "notice": "Permite obtener la longitud del array de personasTotales. "
      },
      "personasTotales(string,string,uint256)": {
        "notice": "Direcciones de las personas que han asistido a algun aula en alguna de las fechas."
      },
      "profesRegistradosLength()": {
        "notice": "El numero de profes registrados. ."
      },
      "puestosLength()": {
        "notice": "El numero de labs  creadas."
      },
      "quienSoy()": {
        "notice": "Permite a un alumno obtener sus propios datos. "
      },
      "reiniciarReserva()": {
        "notice": "Eliminar la alerta de un usuario"
      },
      "reservas(address)": {
        "notice": "La alerta (si la hay) de un alumno."
      },
      "reservasLength()": {
        "notice": "El numero de reservas existentes."
      },
      "turnos_existentes(string,string,uint256)": {
        "notice": "Mapping para evitar duplicados de turnos."
      },
      "ultimosRegistros(address,uint256)": {
        "notice": "Ultimas entradas de cada persona."
      },
      "ultimosRegistrosLength(address)": {
        "notice": "El numero de ultimosRegistros existentes."
      }
    },
    "version": 1
  }
}