{
  "contractName": "ReslabEtsit",
  "abi": [
    {
      "inputs": [],
      "stateMutability": "nonpayable",
      "type": "constructor"
    },
    {
      "inputs": [
        {
          "internalType": "uint256",
          "name": "",
          "type": "uint256"
        }
      ],
      "name": "creditosemanal",
      "outputs": [
        {
          "internalType": "address",
          "name": "",
          "type": "address"
        }
      ],
      "stateMutability": "view",
      "type": "function",
      "constant": true
    },
    {
      "inputs": [
        {
          "internalType": "address",
          "name": "",
          "type": "address"
        }
      ],
      "name": "datosAlumno",
      "outputs": [
        {
          "internalType": "string",
          "name": "nombre",
          "type": "string"
        },
        {
          "internalType": "string",
          "name": "email",
          "type": "string"
        }
      ],
      "stateMutability": "view",
      "type": "function",
      "constant": true
    },
    {
      "inputs": [
        {
          "internalType": "string",
          "name": "",
          "type": "string"
        },
        {
          "internalType": "string",
          "name": "",
          "type": "string"
        },
        {
          "internalType": "uint256",
          "name": "",
          "type": "uint256"
        },
        {
          "internalType": "address",
          "name": "",
          "type": "address"
        }
      ],
      "name": "datosLab",
      "outputs": [
        {
          "internalType": "address",
          "name": "dir",
          "type": "address"
        },
        {
          "internalType": "string",
          "name": "fecha",
          "type": "string"
        },
        {
          "internalType": "string",
          "name": "entradaTurno",
          "type": "string"
        },
        {
          "internalType": "string",
          "name": "salidaTurno",
          "type": "string"
        },
        {
          "internalType": "string",
          "name": "puesto",
          "type": "string"
        },
        {
          "internalType": "string",
          "name": "estado",
          "type": "string"
        },
        {
          "internalType": "string",
          "name": "asignatura",
          "type": "string"
        },
        {
          "internalType": "string",
          "name": "info",
          "type": "string"
        }
      ],
      "stateMutability": "view",
      "type": "function",
      "constant": true
    },
    {
      "inputs": [
        {
          "internalType": "address",
          "name": "",
          "type": "address"
        }
      ],
      "name": "datosPersona",
      "outputs": [
        {
          "internalType": "address",
          "name": "dir",
          "type": "address"
        }
      ],
      "stateMutability": "view",
      "type": "function",
      "constant": true
    },
    {
      "inputs": [
        {
          "internalType": "address",
          "name": "",
          "type": "address"
        }
      ],
      "name": "datosProfesor",
      "outputs": [
        {
          "internalType": "string",
          "name": "nombreP",
          "type": "string"
        },
        {
          "internalType": "string",
          "name": "emailP",
          "type": "string"
        },
        {
          "internalType": "string",
          "name": "asignaturaP",
          "type": "string"
        },
        {
          "internalType": "string",
          "name": "departamentoP",
          "type": "string"
        }
      ],
      "stateMutability": "view",
      "type": "function",
      "constant": true
    },
    {
      "inputs": [
        {
          "internalType": "uint256",
          "name": "",
          "type": "uint256"
        }
      ],
      "name": "laboratoriosRegistrados",
      "outputs": [
        {
          "internalType": "uint256",
          "name": "labId",
          "type": "uint256"
        },
        {
          "internalType": "string",
          "name": "nombreL",
          "type": "string"
        }
      ],
      "stateMutability": "view",
      "type": "function",
      "constant": true
    },
    {
      "inputs": [
        {
          "internalType": "uint256",
          "name": "",
          "type": "uint256"
        }
      ],
      "name": "matriculas",
      "outputs": [
        {
          "internalType": "address",
          "name": "",
          "type": "address"
        }
      ],
      "stateMutability": "view",
      "type": "function",
      "constant": true
    },
    {
      "inputs": [],
      "name": "owner",
      "outputs": [
        {
          "internalType": "address",
          "name": "",
          "type": "address"
        }
      ],
      "stateMutability": "view",
      "type": "function",
      "constant": true
    },
    {
      "inputs": [
        {
          "internalType": "string",
          "name": "",
          "type": "string"
        },
        {
          "internalType": "string",
          "name": "",
          "type": "string"
        },
        {
          "internalType": "uint256",
          "name": "",
          "type": "uint256"
        },
        {
          "internalType": "uint256",
          "name": "",
          "type": "uint256"
        }
      ],
      "name": "personas",
      "outputs": [
        {
          "internalType": "address",
          "name": "",
          "type": "address"
        }
      ],
      "stateMutability": "view",
      "type": "function",
      "constant": true
    },
    {
      "inputs": [
        {
          "internalType": "string",
          "name": "",
          "type": "string"
        },
        {
          "internalType": "string",
          "name": "",
          "type": "string"
        },
        {
          "internalType": "uint256",
          "name": "",
          "type": "uint256"
        }
      ],
      "name": "personasTotales",
      "outputs": [
        {
          "internalType": "address",
          "name": "",
          "type": "address"
        }
      ],
      "stateMutability": "view",
      "type": "function",
      "constant": true
    },
    {
      "inputs": [
        {
          "internalType": "uint256",
          "name": "",
          "type": "uint256"
        }
      ],
      "name": "profesRegistrados",
      "outputs": [
        {
          "internalType": "address",
          "name": "",
          "type": "address"
        }
      ],
      "stateMutability": "view",
      "type": "function",
      "constant": true
    },
    {
      "inputs": [],
      "name": "profesorP",
      "outputs": [
        {
          "internalType": "address",
          "name": "",
          "type": "address"
        }
      ],
      "stateMutability": "view",
      "type": "function",
      "constant": true
    },
    {
      "inputs": [
        {
          "internalType": "uint256",
          "name": "",
          "type": "uint256"
        }
      ],
      "name": "registradosP",
      "outputs": [
        {
          "internalType": "address",
          "name": "",
          "type": "address"
        }
      ],
      "stateMutability": "view",
      "type": "function",
      "constant": true
    },
    {
      "inputs": [
        {
          "internalType": "address",
          "name": "",
          "type": "address"
        }
      ],
      "name": "reservasAlumno",
      "outputs": [
        {
          "internalType": "string",
          "name": "lab",
          "type": "string"
        },
        {
          "internalType": "string",
          "name": "fecha",
          "type": "string"
        },
        {
          "internalType": "uint256",
          "name": "estado",
          "type": "uint256"
        }
      ],
      "stateMutability": "view",
      "type": "function",
      "constant": true
    },
    {
      "inputs": [
        {
          "internalType": "uint256",
          "name": "",
          "type": "uint256"
        }
      ],
      "name": "reservasLab",
      "outputs": [
        {
          "internalType": "string",
          "name": "lab",
          "type": "string"
        },
        {
          "internalType": "uint256",
          "name": "turno",
          "type": "uint256"
        },
        {
          "internalType": "string",
          "name": "fecha",
          "type": "string"
        }
      ],
      "stateMutability": "view",
      "type": "function",
      "constant": true
    },
    {
      "inputs": [
        {
          "internalType": "string",
          "name": "",
          "type": "string"
        },
        {
          "internalType": "string",
          "name": "",
          "type": "string"
        },
        {
          "internalType": "uint256",
          "name": "",
          "type": "uint256"
        }
      ],
      "name": "turnos",
      "outputs": [
        {
          "internalType": "uint256",
          "name": "",
          "type": "uint256"
        }
      ],
      "stateMutability": "view",
      "type": "function",
      "constant": true
    },
    {
      "inputs": [
        {
          "internalType": "string",
          "name": "",
          "type": "string"
        },
        {
          "internalType": "string",
          "name": "",
          "type": "string"
        },
        {
          "internalType": "uint256",
          "name": "",
          "type": "uint256"
        }
      ],
      "name": "turnos_existentes",
      "outputs": [
        {
          "internalType": "bool",
          "name": "",
          "type": "bool"
        }
      ],
      "stateMutability": "view",
      "type": "function",
      "constant": true
    },
    {
      "inputs": [
        {
          "internalType": "address",
          "name": "",
          "type": "address"
        },
        {
          "internalType": "uint256",
          "name": "",
          "type": "uint256"
        }
      ],
      "name": "ultimosRegistros",
      "outputs": [
        {
          "internalType": "string",
          "name": "lab",
          "type": "string"
        },
        {
          "internalType": "uint256",
          "name": "turno",
          "type": "uint256"
        },
        {
          "internalType": "string",
          "name": "fecha",
          "type": "string"
        }
      ],
      "stateMutability": "view",
      "type": "function",
      "constant": true
    },
    {
      "stateMutability": "payable",
      "type": "receive",
      "payable": true
    },
    {
      "inputs": [],
      "name": "laboratoriosLength",
      "outputs": [
        {
          "internalType": "uint256",
          "name": "",
          "type": "uint256"
        }
      ],
      "stateMutability": "view",
      "type": "function",
      "constant": true
    },
    {
      "inputs": [],
      "name": "reservasLength",
      "outputs": [
        {
          "internalType": "uint256",
          "name": "",
          "type": "uint256"
        }
      ],
      "stateMutability": "view",
      "type": "function",
      "constant": true
    },
    {
      "inputs": [
        {
          "internalType": "address",
          "name": "dir",
          "type": "address"
        }
      ],
      "name": "ultimosRegistrosLength",
      "outputs": [
        {
          "internalType": "uint256",
          "name": "",
          "type": "uint256"
        }
      ],
      "stateMutability": "view",
      "type": "function",
      "constant": true
    },
    {
      "inputs": [
        {
          "internalType": "string",
          "name": "_nombre",
          "type": "string"
        },
        {
          "internalType": "string",
          "name": "_fecha",
          "type": "string"
        }
      ],
      "name": "personasLength",
      "outputs": [
        {
          "internalType": "uint256",
          "name": "",
          "type": "uint256"
        }
      ],
      "stateMutability": "view",
      "type": "function",
      "constant": true
    },
    {
      "inputs": [
        {
          "internalType": "string",
          "name": "_nombre",
          "type": "string"
        },
        {
          "internalType": "string",
          "name": "_fecha",
          "type": "string"
        },
        {
          "internalType": "uint256",
          "name": "_indice",
          "type": "uint256"
        }
      ],
      "name": "dirPersonas",
      "outputs": [
        {
          "internalType": "address",
          "name": "",
          "type": "address"
        }
      ],
      "stateMutability": "view",
      "type": "function",
      "constant": true
    },
    {
      "inputs": [
        {
          "internalType": "address",
          "name": "persona",
          "type": "address"
        }
      ],
      "name": "obtenerDatosPersona",
      "outputs": [
        {
          "internalType": "address",
          "name": "",
          "type": "address"
        }
      ],
      "stateMutability": "view",
      "type": "function",
      "constant": true
    },
    {
      "inputs": [
        {
          "internalType": "address",
          "name": "_dir",
          "type": "address"
        }
      ],
      "name": "reservas",
      "outputs": [
        {
          "components": [
            {
              "internalType": "string",
              "name": "lab",
              "type": "string"
            },
            {
              "internalType": "string",
              "name": "fecha",
              "type": "string"
            },
            {
              "internalType": "uint256",
              "name": "estado",
              "type": "uint256"
            }
          ],
          "internalType": "struct ReslabEtsit.ReservaAlumno",
          "name": "",
          "type": "tuple"
        }
      ],
      "stateMutability": "view",
      "type": "function",
      "constant": true
    },
    {
      "inputs": [],
      "name": "reiniciarReserva",
      "outputs": [],
      "stateMutability": "nonpayable",
      "type": "function"
    },
    {
      "inputs": [
        {
          "internalType": "uint256",
          "name": "x",
          "type": "uint256"
        }
      ],
      "name": "LabPulsado",
      "outputs": [
        {
          "internalType": "string",
          "name": "",
          "type": "string"
        }
      ],
      "stateMutability": "view",
      "type": "function",
      "constant": true
    },
    {
      "inputs": [
        {
          "internalType": "string",
          "name": "_nombre",
          "type": "string"
        },
        {
          "internalType": "string",
          "name": "_entradaTurno",
          "type": "string"
        },
        {
          "internalType": "string",
          "name": "_fecha",
          "type": "string"
        },
        {
          "internalType": "string",
          "name": "_puesto",
          "type": "string"
        },
        {
          "internalType": "uint256",
          "name": "_turno",
          "type": "uint256"
        }
      ],
      "name": "guardarReserva",
      "outputs": [],
      "stateMutability": "nonpayable",
      "type": "function"
    },
    {
      "inputs": [
        {
          "internalType": "string",
          "name": "_nombre",
          "type": "string"
        },
        {
          "internalType": "string",
          "name": "_salidaTurno",
          "type": "string"
        },
        {
          "internalType": "string",
          "name": "_fecha",
          "type": "string"
        },
        {
          "internalType": "uint256",
          "name": "_turno",
          "type": "uint256"
        }
      ],
      "name": "guardarSalida",
      "outputs": [],
      "stateMutability": "nonpayable",
      "type": "function"
    },
    {
      "inputs": [
        {
          "internalType": "string",
          "name": "_nombreL",
          "type": "string"
        }
      ],
      "name": "creaLaboratorio",
      "outputs": [
        {
          "internalType": "uint256",
          "name": "",
          "type": "uint256"
        }
      ],
      "stateMutability": "nonpayable",
      "type": "function"
    },
    {
      "inputs": [],
      "name": "matriculasLength",
      "outputs": [
        {
          "internalType": "uint256",
          "name": "",
          "type": "uint256"
        }
      ],
      "stateMutability": "view",
      "type": "function",
      "constant": true
    },
    {
      "inputs": [],
      "name": "profesRegistradosLength",
      "outputs": [
        {
          "internalType": "uint256",
          "name": "",
          "type": "uint256"
        }
      ],
      "stateMutability": "view",
      "type": "function",
      "constant": true
    },
    {
      "inputs": [
        {
          "internalType": "string",
          "name": "_nombre",
          "type": "string"
        },
        {
          "internalType": "string",
          "name": "_email",
          "type": "string"
        }
      ],
      "name": "automatricula",
      "outputs": [],
      "stateMutability": "nonpayable",
      "type": "function"
    },
    {
      "inputs": [],
      "name": "autoregistroP",
      "outputs": [],
      "stateMutability": "nonpayable",
      "type": "function"
    },
    {
      "inputs": [
        {
          "internalType": "string",
          "name": "_nombreP",
          "type": "string"
        },
        {
          "internalType": "string",
          "name": "_emailP",
          "type": "string"
        },
        {
          "internalType": "string",
          "name": "_asignaturaP",
          "type": "string"
        },
        {
          "internalType": "string",
          "name": "_departamentoP",
          "type": "string"
        }
      ],
      "name": "autoRegistro",
      "outputs": [],
      "stateMutability": "nonpayable",
      "type": "function"
    },
    {
      "inputs": [],
      "name": "quienSoy",
      "outputs": [
        {
          "internalType": "string",
          "name": "_nombre",
          "type": "string"
        },
        {
          "internalType": "string",
          "name": "_email",
          "type": "string"
        }
      ],
      "stateMutability": "view",
      "type": "function",
      "constant": true
    },
    {
      "inputs": [],
      "name": "quienSoyP",
      "outputs": [
        {
          "internalType": "string",
          "name": "_nombreP",
          "type": "string"
        },
        {
          "internalType": "string",
          "name": "_emailP",
          "type": "string"
        },
        {
          "internalType": "string",
          "name": "_asignaturaP",
          "type": "string"
        },
        {
          "internalType": "string",
          "name": "_departamentoP",
          "type": "string"
        }
      ],
      "stateMutability": "view",
      "type": "function",
      "constant": true
    },
    {
      "inputs": [
        {
          "internalType": "address",
          "name": "persona",
          "type": "address"
        }
      ],
      "name": "estaRegistradoP",
      "outputs": [
        {
          "internalType": "bool",
          "name": "",
          "type": "bool"
        }
      ],
      "stateMutability": "view",
      "type": "function",
      "constant": true
    }
  ],
  "bytecode": "0x608060405234801561001057600080fd5b50336000806101000a81548173ffffffffffffffffffffffffffffffffffffffff021916908373ffffffffffffffffffffffffffffffffffffffff160217905550614c43806100606000396000f3fe6080604052600436106102295760003560e01c806394bd53d611610123578063c7918139116100ab578063e8933c6e1161006f578063e8933c6e14610983578063ede343cf146109ac578063ee0e7c4f146109d5578063f874785914610a12578063fc1f72d814610a4f57610269565b8063c791813914610861578063d4cf859d1461089e578063d5a3e75a146108cc578063d64545d814610909578063d66371031461094657610269565b8063b24a6399116100f2578063b24a639914610760578063b4b4a51f14610789578063b5daf62c146107b4578063b79f2176146107f2578063be4a935b1461083657610269565b806394bd53d61461067c5780639e1d8f4b146106b9578063a724952f146106e4578063b0b127311461072157610269565b8063641945bf116101b15780637e09be7a116101755780637e09be7a1461055b5780637e4d6c70146105985780638da5cb5b146105d55780638f473936146106005780639376d0ae1461063f57610269565b8063641945bf1461043657806366668f3c1461047657806368ef207e146104b35780636bf8aad6146104f257806379b51b6a1461053057610269565b8063365d92e2116101f8578063365d92e21461033c5780635376688314610379578063554f27cc146103a55780635fdf483f146103d057806361d4c6ad1461040d57610269565b8063070259421461026e5780630c312661146102ab578063223ca7a2146102e8578063320d07731461032557610269565b36610269576040517f08c379a00000000000000000000000000000000000000000000000000000000081526004016102609061499c565b60405180910390fd5b600080fd5b34801561027a57600080fd5b5061029560048036038101906102909190613bf1565b610a66565b6040516102a29190614693565b60405180910390f35b3480156102b757600080fd5b506102d260048036038101906102cd9190613bf1565b610aa4565b6040516102df9190614693565b60405180910390f35b3480156102f457600080fd5b5061030f600480360381019061030a91906140ed565b610b27565b60405161031c9190614693565b60405180910390f35b34801561033157600080fd5b5061033a610b66565b005b34801561034857600080fd5b50610363600480360381019061035e91906140ed565b610d32565b6040516103709190614693565b60405180910390f35b34801561038557600080fd5b5061038e610d71565b60405161039c92919061479a565b60405180910390f35b3480156103b157600080fd5b506103ba610f67565b6040516103c79190614a5e565b60405180910390f35b3480156103dc57600080fd5b506103f760048036038101906103f29190613f48565b610f74565b6040516104049190614693565b60405180910390f35b34801561041957600080fd5b50610434600480360381019061042f9190613c97565b610ffb565b005b34801561044257600080fd5b5061045d60048036038101906104589190613bf1565b611193565b60405161046d94939291906147d1565b60405180910390f35b34801561048257600080fd5b5061049d60048036038101906104989190613c97565b611423565b6040516104aa9190614a5e565b60405180910390f35b3480156104bf57600080fd5b506104da60048036038101906104d591906140ed565b61147e565b6040516104e993929190614877565b60405180910390f35b3480156104fe57600080fd5b5061051960048036038101906105149190613bf1565b6115e8565b60405161052792919061479a565b60405180910390f35b34801561053c57600080fd5b5061054561173c565b6040516105529190614a5e565b60405180910390f35b34801561056757600080fd5b50610582600480360381019061057d9190613bf1565b611749565b60405161058f919061475d565b60405180910390f35b3480156105a457600080fd5b506105bf60048036038101906105ba9190613bf1565b6117ea565b6040516105cc9190614a3c565b60405180910390f35b3480156105e157600080fd5b506105ea611991565b6040516105f79190614693565b60405180910390f35b34801561060c57600080fd5b5061062760048036038101906106229190613c1a565b6119b5565b60405161063693929190614877565b60405180910390f35b34801561064b57600080fd5b5061066660048036038101906106619190613f48565b611b2c565b604051610673919061475d565b60405180910390f35b34801561068857600080fd5b506106a3600480360381019061069e9190613c56565b611b94565b6040516106b09190614a5e565b60405180910390f35b3480156106c557600080fd5b506106ce611c5f565b6040516106db9190614a5e565b60405180910390f35b3480156106f057600080fd5b5061070b60048036038101906107069190613f48565b611c6c565b6040516107189190614a5e565b60405180910390f35b34801561072d57600080fd5b5061074860048036038101906107439190613bf1565b611cd6565b60405161075793929190614832565b60405180910390f35b34801561076c57600080fd5b5061078760048036038101906107829190613dc6565b611e30565b005b34801561079557600080fd5b5061079e61298f565b6040516107ab9190614a5e565b60405180910390f35b3480156107c057600080fd5b506107db60048036038101906107d691906140ed565b61299c565b6040516107e9929190614a79565b60405180910390f35b3480156107fe57600080fd5b5061081960048036038101906108149190613fc7565b612a68565b60405161082d9897969594939291906146ae565b60405180910390f35b34801561084257600080fd5b5061084b612f4b565b6040516108589190614693565b60405180910390f35b34801561086d57600080fd5b50610888600480360381019061088391906140ed565b612f71565b6040516108959190614693565b60405180910390f35b3480156108aa57600080fd5b506108b3612fb0565b6040516108c394939291906147d1565b60405180910390f35b3480156108d857600080fd5b506108f360048036038101906108ee919061405a565b6132fd565b6040516109009190614693565b60405180910390f35b34801561091557600080fd5b50610930600480360381019061092b9190613bf1565b613391565b60405161093d9190614a5e565b60405180910390f35b34801561095257600080fd5b5061096d600480360381019061096891906140ed565b6133dd565b60405161097a9190614778565b60405180910390f35b34801561098f57600080fd5b506109aa60048036038101906109a59190613e9d565b61349d565b005b3480156109b857600080fd5b506109d360048036038101906109ce9190613d03565b613543565b005b3480156109e157600080fd5b506109fc60048036038101906109f791906140ed565b613723565b604051610a099190614693565b60405180910390f35b348015610a1e57600080fd5b50610a396004803603810190610a349190613f48565b613762565b604051610a469190614693565b60405180910390f35b348015610a5b57600080fd5b50610a64613831565b005b60026020528060005260406000206000915090508060000160009054906101000a900473ffffffffffffffffffffffffffffffffffffffff16905081565b6000610aaf8261387b565b610abc5760009050610b22565b600260008373ffffffffffffffffffffffffffffffffffffffff1673ffffffffffffffffffffffffffffffffffffffff16815260200190815260200160002060000160009054906101000a900473ffffffffffffffffffffffffffffffffffffffff1690505b919050565b60088181548110610b3757600080fd5b906000526020600020016000915054906101000a900473ffffffffffffffffffffffffffffffffffffffff1681565b610b6f33611749565b15610baf576040517f08c379a0000000000000000000000000000000000000000000000000000000008152600401610ba6906149fc565b60405180910390fd5b600073ffffffffffffffffffffffffffffffffffffffff163373ffffffffffffffffffffffffffffffffffffffff161415610c1f576040517f08c379a0000000000000000000000000000000000000000000000000000000008152600401610c16906148dc565b60405180910390fd5b60405180602001604052803373ffffffffffffffffffffffffffffffffffffffff16815250600260003373ffffffffffffffffffffffffffffffffffffffff1673ffffffffffffffffffffffffffffffffffffffff16815260200190815260200160002060008201518160000160006101000a81548173ffffffffffffffffffffffffffffffffffffffff021916908373ffffffffffffffffffffffffffffffffffffffff1602179055509050506008339080600181540180825580915050600190039060005260206000200160009091909190916101000a81548173ffffffffffffffffffffffffffffffffffffffff021916908373ffffffffffffffffffffffffffffffffffffffff160217905550565b60098181548110610d4257600080fd5b906000526020600020016000915054906101000a900473ffffffffffffffffffffffffffffffffffffffff1681565b606080610d7d33613970565b610dbc576040517f08c379a0000000000000000000000000000000000000000000000000000000008152600401610db39061495c565b60405180910390fd5b610dc4613a65565b600360003373ffffffffffffffffffffffffffffffffffffffff1673ffffffffffffffffffffffffffffffffffffffff168152602001908152602001600020604051806040016040529081600082018054600181600116156101000203166002900480601f016020809104026020016040519081016040528092919081815260200182805460018160011615610100020316600290048015610ea75780601f10610e7c57610100808354040283529160200191610ea7565b820191906000526020600020905b815481529060010190602001808311610e8a57829003601f168201915b50505050508152602001600182018054600181600116156101000203166002900480601f016020809104026020016040519081016040528092919081815260200182805460018160011615610100020316600290048015610f495780601f10610f1e57610100808354040283529160200191610f49565b820191906000526020600020905b815481529060010190602001808311610f2c57829003601f168201915b50505050508152505090508060000151925080602001519150509091565b6000600b80549050905090565b601083805160208101820180518482526020830160208501208183528095505050505050828051602081018201805184825260208301602085012081835280955050505050508181548110610fc857600080fd5b90600052602060002001600092509250509054906101000a900473ffffffffffffffffffffffffffffffffffffffff1681565b61100433613970565b15611044576040517f08c379a000000000000000000000000000000000000000000000000000000000815260040161103b9061491c565b60405180910390fd5b606082905060008151141561108e576040517f08c379a00000000000000000000000000000000000000000000000000000000081526004016110859061493c565b60405180910390fd5b611096613a65565b604051806040016040528085815260200184815250905080600360003373ffffffffffffffffffffffffffffffffffffffff1673ffffffffffffffffffffffffffffffffffffffff1681526020019081526020016000206000820151816000019080519060200190611109929190613a7f565b506020820151816001019080519060200190611126929190613a7f565b509050506006339080600181540180825580915050600190039060005260206000200160009091909190916101000a81548173ffffffffffffffffffffffffffffffffffffffff021916908373ffffffffffffffffffffffffffffffffffffffff16021790555050505050565b6004602052806000526040600020600091509050806000018054600181600116156101000203166002900480601f01602080910402602001604051908101604052809291908181526020018280546001816001161561010002031660029004801561123f5780601f106112145761010080835404028352916020019161123f565b820191906000526020600020905b81548152906001019060200180831161122257829003601f168201915b505050505090806001018054600181600116156101000203166002900480601f0160208091040260200160405190810160405280929190818152602001828054600181600116156101000203166002900480156112dd5780601f106112b2576101008083540402835291602001916112dd565b820191906000526020600020905b8154815290600101906020018083116112c057829003601f168201915b505050505090806002018054600181600116156101000203166002900480601f01602080910402602001604051908101604052809291908181526020018280546001816001161561010002031660029004801561137b5780601f106113505761010080835404028352916020019161137b565b820191906000526020600020905b81548152906001019060200180831161135e57829003601f168201915b505050505090806003018054600181600116156101000203166002900480601f0160208091040260200160405190810160405280929190818152602001828054600181600116156101000203166002900480156114195780601f106113ee57610100808354040283529160200191611419565b820191906000526020600020905b8154815290600101906020018083116113fc57829003601f168201915b5050505050905084565b600080601083604051611436919061467c565b908152602001604051809103902084604051611452919061467c565b9081526020016040518091039020805490509050600081141561147457600190505b8091505092915050565b600b818154811061148e57600080fd5b9060005260206000209060030201600091509050806000018054600181600116156101000203166002900480601f01602080910402602001604051908101604052809291908181526020018280546001816001161561010002031660029004801561153a5780601f1061150f5761010080835404028352916020019161153a565b820191906000526020600020905b81548152906001019060200180831161151d57829003601f168201915b505050505090806001015490806002018054600181600116156101000203166002900480601f0160208091040260200160405190810160405280929190818152602001828054600181600116156101000203166002900480156115de5780601f106115b3576101008083540402835291602001916115de565b820191906000526020600020905b8154815290600101906020018083116115c157829003601f168201915b5050505050905083565b6003602052806000526040600020600091509050806000018054600181600116156101000203166002900480601f0160208091040260200160405190810160405280929190818152602001828054600181600116156101000203166002900480156116945780601f1061166957610100808354040283529160200191611694565b820191906000526020600020905b81548152906001019060200180831161167757829003601f168201915b505050505090806001018054600181600116156101000203166002900480601f0160208091040260200160405190810160405280929190818152602001828054600181600116156101000203166002900480156117325780601f1061170757610100808354040283529160200191611732565b820191906000526020600020905b81548152906001019060200180831161171557829003601f168201915b5050505050905082565b6000600780549050905090565b600080600260008473ffffffffffffffffffffffffffffffffffffffff1673ffffffffffffffffffffffffffffffffffffffff16815260200190815260200160002060000160009054906101000a900473ffffffffffffffffffffffffffffffffffffffff169050600073ffffffffffffffffffffffffffffffffffffffff168173ffffffffffffffffffffffffffffffffffffffff161415915050919050565b6117f2613b0d565b600c60008373ffffffffffffffffffffffffffffffffffffffff1673ffffffffffffffffffffffffffffffffffffffff168152602001908152602001600020604051806060016040529081600082018054600181600116156101000203166002900480601f0160208091040260200160405190810160405280929190818152602001828054600181600116156101000203166002900480156118d55780601f106118aa576101008083540402835291602001916118d5565b820191906000526020600020905b8154815290600101906020018083116118b857829003601f168201915b50505050508152602001600182018054600181600116156101000203166002900480601f0160208091040260200160405190810160405280929190818152602001828054600181600116156101000203166002900480156119775780601f1061194c57610100808354040283529160200191611977565b820191906000526020600020905b81548152906001019060200180831161195a57829003601f168201915b505050505081526020016002820154815250509050919050565b60008054906101000a900473ffffffffffffffffffffffffffffffffffffffff1681565b601260205281600052604060002081815481106119d157600080fd5b906000526020600020906003020160009150915050806000018054600181600116156101000203166002900480601f016020809104026020016040519081016040528092919081815260200182805460018160011615610100020316600290048015611a7e5780601f10611a5357610100808354040283529160200191611a7e565b820191906000526020600020905b815481529060010190602001808311611a6157829003601f168201915b505050505090806001015490806002018054600181600116156101000203166002900480601f016020809104026020016040519081016040528092919081815260200182805460018160011615610100020316600290048015611b225780601f10611af757610100808354040283529160200191611b22565b820191906000526020600020905b815481529060010190602001808311611b0557829003601f168201915b5050505050905083565b600e8380516020810182018051848252602083016020850120818352809550505050505082805160208101820180518482526020830160208501208183528095505050505050602052806000526040600020600092509250509054906101000a900460ff1681565b60006060829050600081511415611be0576040517f08c379a0000000000000000000000000000000000000000000000000000000008152600401611bd7906149dc565b60405180910390fd5b600a6040518060400160405280600a805490508152602001858152509080600181540180825580915050600190039060005260206000209060020201600090919091909150600082015181600001556020820151816001019080519060200190611c4b929190613a7f565b5050506001600a8054905003915050919050565b6000600680549050905090565b600d83805160208101820180518482526020830160208501208183528095505050505050828051602081018201805184825260208301602085012081835280955050505050508181548110611cc057600080fd5b9060005260206000200160009250925050505481565b600c602052806000526040600020600091509050806000018054600181600116156101000203166002900480601f016020809104026020016040519081016040528092919081815260200182805460018160011615610100020316600290048015611d825780601f10611d5757610100808354040283529160200191611d82565b820191906000526020600020905b815481529060010190602001808311611d6557829003601f168201915b505050505090806001018054600181600116156101000203166002900480601f016020809104026020016040519081016040528092919081815260200182805460018160011615610100020316600290048015611e205780601f10611df557610100808354040283529160200191611e20565b820191906000526020600020905b815481529060010190602001808311611e0357829003601f168201915b5050505050908060020154905083565b6060859050600081511415611e7a576040517f08c379a0000000000000000000000000000000000000000000000000000000008152600401611e719061493c565b60405180910390fd5b6060859050600081511415611ec4576040517f08c379a0000000000000000000000000000000000000000000000000000000008152600401611ebb906148fc565b60405180910390fd5b6060859050600081511415611f0e576040517f08c379a0000000000000000000000000000000000000000000000000000000008152600401611f0590614a1c565b60405180910390fd5b6060859050600081511415611f58576040517f08c379a0000000000000000000000000000000000000000000000000000000008152600401611f4f906148bc565b60405180910390fd5b33601188604051611f69919061467c565b90815260200160405180910390208a604051611f85919061467c565b9081526020016040518091039020600087815260200190815260200160002060003373ffffffffffffffffffffffffffffffffffffffff1673ffffffffffffffffffffffffffffffffffffffff16815260200190815260200160002060000160006101000a81548173ffffffffffffffffffffffffffffffffffffffff021916908373ffffffffffffffffffffffffffffffffffffffff16021790555086601188604051612033919061467c565b90815260200160405180910390208a60405161204f919061467c565b9081526020016040518091039020600087815260200190815260200160002060003373ffffffffffffffffffffffffffffffffffffffff1673ffffffffffffffffffffffffffffffffffffffff16815260200190815260200160002060010190805190602001906120c1929190613a7f565b50876011886040516120d3919061467c565b90815260200160405180910390208a6040516120ef919061467c565b9081526020016040518091039020600087815260200190815260200160002060003373ffffffffffffffffffffffffffffffffffffffff1673ffffffffffffffffffffffffffffffffffffffff1681526020019081526020016000206002019080519060200190612161929190613a7f565b5085601188604051612173919061467c565b90815260200160405180910390208a60405161218f919061467c565b9081526020016040518091039020600087815260200190815260200160002060003373ffffffffffffffffffffffffffffffffffffffff1673ffffffffffffffffffffffffffffffffffffffff1681526020019081526020016000206004019080519060200190612201929190613a7f565b506000600c60003373ffffffffffffffffffffffffffffffffffffffff1673ffffffffffffffffffffffffffffffffffffffff168152602001908152602001600020600201541415612327576040518060400160405280600781526020017f496e696369616c00000000000000000000000000000000000000000000000000815250601188604051612293919061467c565b90815260200160405180910390208a6040516122af919061467c565b9081526020016040518091039020600087815260200190815260200160002060003373ffffffffffffffffffffffffffffffffffffffff1673ffffffffffffffffffffffffffffffffffffffff1681526020019081526020016000206005019080519060200190612321929190613a7f565b50612649565b6001600c60003373ffffffffffffffffffffffffffffffffffffffff1673ffffffffffffffffffffffffffffffffffffffff16815260200190815260200160002060020154141561244c576040518060400160405280600a81526020017f536f73706563686f736f000000000000000000000000000000000000000000008152506011886040516123b8919061467c565b90815260200160405180910390208a6040516123d4919061467c565b9081526020016040518091039020600087815260200190815260200160002060003373ffffffffffffffffffffffffffffffffffffffff1673ffffffffffffffffffffffffffffffffffffffff1681526020019081526020016000206005019080519060200190612446929190613a7f565b50612648565b6002600c60003373ffffffffffffffffffffffffffffffffffffffff1673ffffffffffffffffffffffffffffffffffffffff168152602001908152602001600020600201541415612571576040518060400160405280600881526020017f506f73697469766f0000000000000000000000000000000000000000000000008152506011886040516124dd919061467c565b90815260200160405180910390208a6040516124f9919061467c565b9081526020016040518091039020600087815260200190815260200160002060003373ffffffffffffffffffffffffffffffffffffffff1673ffffffffffffffffffffffffffffffffffffffff168152602001908152602001600020600501908051906020019061256b929190613a7f565b50612647565b6040518060400160405280600881526020017f4e6567617469766f0000000000000000000000000000000000000000000000008152506011886040516125b7919061467c565b90815260200160405180910390208a6040516125d3919061467c565b9081526020016040518091039020600087815260200190815260200160002060003373ffffffffffffffffffffffffffffffffffffffff1673ffffffffffffffffffffffffffffffffffffffff1681526020019081526020016000206005019080519060200190612645929190613a7f565b505b5b5b600f87604051612659919061467c565b908152602001604051809103902089604051612675919061467c565b90815260200160405180910390206000868152602001908152602001600020339080600181540180825580915050600190039060005260206000200160009091909190916101000a81548173ffffffffffffffffffffffffffffffffffffffff021916908373ffffffffffffffffffffffffffffffffffffffff160217905550601087604051612705919061467c565b908152602001604051809103902089604051612721919061467c565b9081526020016040518091039020339080600181540180825580915050600190039060005260206000200160009091909190916101000a81548173ffffffffffffffffffffffffffffffffffffffff021916908373ffffffffffffffffffffffffffffffffffffffff160217905550601260003373ffffffffffffffffffffffffffffffffffffffff1673ffffffffffffffffffffffffffffffffffffffff16815260200190815260200160002060405180606001604052808b8152602001878152602001898152509080600181540180825580915050600190039060005260206000209060030201600090919091909150600082015181600001908051906020019061282f929190613a7f565b50602082015181600101556040820151816002019080519060200190612856929190613a7f565b50505060001515600e8860405161286d919061467c565b90815260200160405180910390208a604051612889919061467c565b9081526020016040518091039020600087815260200190815260200160002060009054906101000a900460ff161515141561298457600d876040516128ce919061467c565b9081526020016040518091039020896040516128ea919061467c565b90815260200160405180910390208590806001815401808255809150506001900390600052602060002001600090919091909150556001600e88604051612931919061467c565b90815260200160405180910390208a60405161294d919061467c565b9081526020016040518091039020600087815260200190815260200160002060006101000a81548160ff0219169083151502179055505b505050505050505050565b6000600a80549050905090565b600a81815481106129ac57600080fd5b9060005260206000209060020201600091509050806000015490806001018054600181600116156101000203166002900480601f016020809104026020016040519081016040528092919081815260200182805460018160011615610100020316600290048015612a5e5780601f10612a3357610100808354040283529160200191612a5e565b820191906000526020600020905b815481529060010190602001808311612a4157829003601f168201915b5050505050905082565b601184805160208101820180518482526020830160208501208183528095505050505050838051602081018201805184825260208301602085012081835280955050505050506020528160005260406000206020528060005260406000206000935093505050508060000160009054906101000a900473ffffffffffffffffffffffffffffffffffffffff1690806001018054600181600116156101000203166002900480601f016020809104026020016040519081016040528092919081815260200182805460018160011615610100020316600290048015612b8d5780601f10612b6257610100808354040283529160200191612b8d565b820191906000526020600020905b815481529060010190602001808311612b7057829003601f168201915b505050505090806002018054600181600116156101000203166002900480601f016020809104026020016040519081016040528092919081815260200182805460018160011615610100020316600290048015612c2b5780601f10612c0057610100808354040283529160200191612c2b565b820191906000526020600020905b815481529060010190602001808311612c0e57829003601f168201915b505050505090806003018054600181600116156101000203166002900480601f016020809104026020016040519081016040528092919081815260200182805460018160011615610100020316600290048015612cc95780601f10612c9e57610100808354040283529160200191612cc9565b820191906000526020600020905b815481529060010190602001808311612cac57829003601f168201915b505050505090806004018054600181600116156101000203166002900480601f016020809104026020016040519081016040528092919081815260200182805460018160011615610100020316600290048015612d675780601f10612d3c57610100808354040283529160200191612d67565b820191906000526020600020905b815481529060010190602001808311612d4a57829003601f168201915b505050505090806005018054600181600116156101000203166002900480601f016020809104026020016040519081016040528092919081815260200182805460018160011615610100020316600290048015612e055780601f10612dda57610100808354040283529160200191612e05565b820191906000526020600020905b815481529060010190602001808311612de857829003601f168201915b505050505090806006018054600181600116156101000203166002900480601f016020809104026020016040519081016040528092919081815260200182805460018160011615610100020316600290048015612ea35780601f10612e7857610100808354040283529160200191612ea3565b820191906000526020600020905b815481529060010190602001808311612e8657829003601f168201915b505050505090806007018054600181600116156101000203166002900480601f016020809104026020016040519081016040528092919081815260200182805460018160011615610100020316600290048015612f415780601f10612f1657610100808354040283529160200191612f41565b820191906000526020600020905b815481529060010190602001808311612f2457829003601f168201915b5050505050905088565b600160009054906101000a900473ffffffffffffffffffffffffffffffffffffffff1681565b60068181548110612f8157600080fd5b906000526020600020016000915054906101000a900473ffffffffffffffffffffffffffffffffffffffff1681565b606080606080612fbf3361387b565b612ffe576040517f08c379a0000000000000000000000000000000000000000000000000000000008152600401612ff59061497c565b60405180910390fd5b613006613b2e565b600460003373ffffffffffffffffffffffffffffffffffffffff1673ffffffffffffffffffffffffffffffffffffffff168152602001908152602001600020604051806080016040529081600082018054600181600116156101000203166002900480601f0160208091040260200160405190810160405280929190818152602001828054600181600116156101000203166002900480156130e95780601f106130be576101008083540402835291602001916130e9565b820191906000526020600020905b8154815290600101906020018083116130cc57829003601f168201915b50505050508152602001600182018054600181600116156101000203166002900480601f01602080910402602001604051908101604052809291908181526020018280546001816001161561010002031660029004801561318b5780601f106131605761010080835404028352916020019161318b565b820191906000526020600020905b81548152906001019060200180831161316e57829003601f168201915b50505050508152602001600282018054600181600116156101000203166002900480601f01602080910402602001604051908101604052809291908181526020018280546001816001161561010002031660029004801561322d5780601f106132025761010080835404028352916020019161322d565b820191906000526020600020905b81548152906001019060200180831161321057829003601f168201915b50505050508152602001600382018054600181600116156101000203166002900480601f0160208091040260200160405190810160405280929190818152602001828054600181600116156101000203166002900480156132cf5780601f106132a4576101008083540402835291602001916132cf565b820191906000526020600020905b8154815290600101906020018083116132b257829003601f168201915b5050505050815250509050806000015194508060200151935080606001519150806040015192505090919293565b600f8480516020810182018051848252602083016020850120818352809550505050505083805160208101820180518482526020830160208501208183528095505050505050602052816000526040600020818154811061335d57600080fd5b9060005260206000200160009350935050509054906101000a900473ffffffffffffffffffffffffffffffffffffffff1681565b6000601260008373ffffffffffffffffffffffffffffffffffffffff1673ffffffffffffffffffffffffffffffffffffffff168152602001908152602001600020805490509050919050565b6060600a82815481106133ec57fe5b90600052602060002090600202016001018054600181600116156101000203166002900480601f0160208091040260200160405190810160405280929190818152602001828054600181600116156101000203166002900480156134915780601f1061346657610100808354040283529160200191613491565b820191906000526020600020905b81548152906001019060200180831161347457829003601f168201915b50505050509050919050565b826011836040516134ae919061467c565b9081526020016040518091039020856040516134ca919061467c565b9081526020016040518091039020600083815260200190815260200160002060003373ffffffffffffffffffffffffffffffffffffffff1673ffffffffffffffffffffffffffffffffffffffff168152602001908152602001600020600301908051906020019061353c929190613a7f565b5050505050565b61354c3361387b565b1561358c576040517f08c379a0000000000000000000000000000000000000000000000000000000008152600401613583906149bc565b60405180910390fd5b60608490506000815114156135d6576040517f08c379a00000000000000000000000000000000000000000000000000000000081526004016135cd9061493c565b60405180910390fd5b6135de613b2e565b604051806080016040528087815260200186815260200185815260200184815250905080600460003373ffffffffffffffffffffffffffffffffffffffff1673ffffffffffffffffffffffffffffffffffffffff168152602001908152602001600020600082015181600001908051906020019061365d929190613a7f565b50602082015181600101908051906020019061367a929190613a7f565b506040820151816002019080519060200190613697929190613a7f565b5060608201518160030190805190602001906136b4929190613a7f565b509050506007339080600181540180825580915050600190039060005260206000200160009091909190916101000a81548173ffffffffffffffffffffffffffffffffffffffff021916908373ffffffffffffffffffffffffffffffffffffffff160217905550505050505050565b6007818154811061373357600080fd5b906000526020600020016000915054906101000a900473ffffffffffffffffffffffffffffffffffffffff1681565b600080601084604051613775919061467c565b908152602001604051809103902085604051613791919061467c565b90815260200160405180910390208054905011156138265760006010846040516137bb919061467c565b9081526020016040518091039020856040516137d7919061467c565b908152602001604051809103902083815481106137f057fe5b9060005260206000200160009054906101000a900473ffffffffffffffffffffffffffffffffffffffff1690508091505061382a565b3390505b9392505050565b6000600c60003373ffffffffffffffffffffffffffffffffffffffff1673ffffffffffffffffffffffffffffffffffffffff16815260200190815260200160002060020181905550565b60006060600460008473ffffffffffffffffffffffffffffffffffffffff1673ffffffffffffffffffffffffffffffffffffffff1681526020019081526020016000206000018054600181600116156101000203166002900480601f0160208091040260200160405190810160405280929190818152602001828054600181600116156101000203166002900480156139555780601f1061392a57610100808354040283529160200191613955565b820191906000526020600020905b81548152906001019060200180831161393857829003601f168201915b50505050509050606081905060008151141592505050919050565b60006060600360008473ffffffffffffffffffffffffffffffffffffffff1673ffffffffffffffffffffffffffffffffffffffff1681526020019081526020016000206000018054600181600116156101000203166002900480601f016020809104026020016040519081016040528092919081815260200182805460018160011615610100020316600290048015613a4a5780601f10613a1f57610100808354040283529160200191613a4a565b820191906000526020600020905b815481529060010190602001808311613a2d57829003601f168201915b50505050509050606081905060008151141592505050919050565b604051806040016040528060608152602001606081525090565b828054600181600116156101000203166002900490600052602060002090601f016020900481019282613ab55760008555613afc565b82601f10613ace57805160ff1916838001178555613afc565b82800160010185558215613afc579182015b82811115613afb578251825591602001919060010190613ae0565b5b509050613b099190613b56565b5090565b60405180606001604052806060815260200160608152602001600081525090565b6040518060800160405280606081526020016060815260200160608152602001606081525090565b5b80821115613b6f576000816000905550600101613b57565b5090565b600081359050613b8281614bdf565b92915050565b600082601f830112613b9957600080fd5b8135613bac613ba782614ada565b614aa9565b91508082526020830160208301858383011115613bc857600080fd5b613bd3838284614b8a565b50505092915050565b600081359050613beb81614bf6565b92915050565b600060208284031215613c0357600080fd5b6000613c1184828501613b73565b91505092915050565b60008060408385031215613c2d57600080fd5b6000613c3b85828601613b73565b9250506020613c4c85828601613bdc565b9150509250929050565b600060208284031215613c6857600080fd5b600082013567ffffffffffffffff811115613c8257600080fd5b613c8e84828501613b88565b91505092915050565b60008060408385031215613caa57600080fd5b600083013567ffffffffffffffff811115613cc457600080fd5b613cd085828601613b88565b925050602083013567ffffffffffffffff811115613ced57600080fd5b613cf985828601613b88565b9150509250929050565b60008060008060808587031215613d1957600080fd5b600085013567ffffffffffffffff811115613d3357600080fd5b613d3f87828801613b88565b945050602085013567ffffffffffffffff811115613d5c57600080fd5b613d6887828801613b88565b935050604085013567ffffffffffffffff811115613d8557600080fd5b613d9187828801613b88565b925050606085013567ffffffffffffffff811115613dae57600080fd5b613dba87828801613b88565b91505092959194509250565b600080600080600060a08688031215613dde57600080fd5b600086013567ffffffffffffffff811115613df857600080fd5b613e0488828901613b88565b955050602086013567ffffffffffffffff811115613e2157600080fd5b613e2d88828901613b88565b945050604086013567ffffffffffffffff811115613e4a57600080fd5b613e5688828901613b88565b935050606086013567ffffffffffffffff811115613e7357600080fd5b613e7f88828901613b88565b9250506080613e9088828901613bdc565b9150509295509295909350565b60008060008060808587031215613eb357600080fd5b600085013567ffffffffffffffff811115613ecd57600080fd5b613ed987828801613b88565b945050602085013567ffffffffffffffff811115613ef657600080fd5b613f0287828801613b88565b935050604085013567ffffffffffffffff811115613f1f57600080fd5b613f2b87828801613b88565b9250506060613f3c87828801613bdc565b91505092959194509250565b600080600060608486031215613f5d57600080fd5b600084013567ffffffffffffffff811115613f7757600080fd5b613f8386828701613b88565b935050602084013567ffffffffffffffff811115613fa057600080fd5b613fac86828701613b88565b9250506040613fbd86828701613bdc565b9150509250925092565b60008060008060808587031215613fdd57600080fd5b600085013567ffffffffffffffff811115613ff757600080fd5b61400387828801613b88565b945050602085013567ffffffffffffffff81111561402057600080fd5b61402c87828801613b88565b935050604061403d87828801613bdc565b925050606061404e87828801613b73565b91505092959194509250565b6000806000806080858703121561407057600080fd5b600085013567ffffffffffffffff81111561408a57600080fd5b61409687828801613b88565b945050602085013567ffffffffffffffff8111156140b357600080fd5b6140bf87828801613b88565b93505060406140d087828801613bdc565b92505060606140e187828801613bdc565b91505092959194509250565b6000602082840312156140ff57600080fd5b600061410d84828501613bdc565b91505092915050565b61411f81614b42565b82525050565b61412e81614b54565b82525050565b600061413f82614b0a565b6141498185614b15565b9350614159818560208601614b99565b61416281614bce565b840191505092915050565b600061417882614b0a565b6141828185614b26565b9350614192818560208601614b99565b61419b81614bce565b840191505092915050565b60006141b182614b0a565b6141bb8185614b37565b93506141cb818560208601614b99565b80840191505092915050565b60006141e4601c83614b26565b91507f456c2070756573746f206e6f2070756564652073657220766163696f000000006000830152602082019050919050565b6000614224601f83614b26565b91507f456c2061646472657373206e6f20707565646520657374617220766163696f006000830152602082019050919050565b6000614264602583614b26565b91507f4c6120686f726120646520656e7472616461206e6f207075656465207365722060008301527f766163696f0000000000000000000000000000000000000000000000000000006020830152604082019050919050565b60006142ca602883614b26565b91507f536f6c6f207065726d697469646f206120616c756d6e6f73206e6f206d61747260008301527f6963756c61646f730000000000000000000000000000000000000000000000006020830152604082019050919050565b6000614330601c83614b26565b91507f456c206e6f6d627265206e6f2070756564652073657220766163696f000000006000830152602082019050919050565b6000614370602583614b26565b91507f536f6c6f207065726d697469646f206120616c756d6e6f73206d61747269637560008301527f6c61646f730000000000000000000000000000000000000000000000000000006020830152604082019050919050565b60006143d6602383614b26565b91507f536f6c6f207065726d697469646f20612070726f66657320726567697374726160008301527f646f7300000000000000000000000000000000000000000000000000000000006020830152604082019050919050565b600061443c602583614b26565b91507f4e6f207365207065726d697465206c6120726563657063696f6e20646520646960008301527f6e65726f2e0000000000000000000000000000000000000000000000000000006020830152604082019050919050565b60006144a2602683614b26565b91507f536f6c6f207065726d697469646f20612070726f666573206e6f20726567697360008301527f747261646f7300000000000000000000000000000000000000000000000000006020830152604082019050919050565b6000614508602483614b26565b91507f456c206e6f6d6272652064656c206c6162206e6f20707565646520736572207660008301527f6163696f000000000000000000000000000000000000000000000000000000006020830152604082019050919050565b600061456e602883614b26565b91507f536f6c6f207065726d697469646f206120706572736f6e6173206e6f2072656760008301527f6973747261646f730000000000000000000000000000000000000000000000006020830152604082019050919050565b60006145d4601b83614b26565b91507f4c61206665636861206e6f2070756564652073657220766163696f00000000006000830152602082019050919050565b600060608301600083015184820360008601526146248282614134565b9150506020830151848203602086015261463e8282614134565b9150506040830151614653604086018261465e565b508091505092915050565b61466781614b80565b82525050565b61467681614b80565b82525050565b600061468882846141a6565b915081905092915050565b60006020820190506146a86000830184614116565b92915050565b6000610100820190506146c4600083018b614116565b81810360208301526146d6818a61416d565b905081810360408301526146ea818961416d565b905081810360608301526146fe818861416d565b90508181036080830152614712818761416d565b905081810360a0830152614726818661416d565b905081810360c083015261473a818561416d565b905081810360e083015261474e818461416d565b90509998505050505050505050565b60006020820190506147726000830184614125565b92915050565b60006020820190508181036000830152614792818461416d565b905092915050565b600060408201905081810360008301526147b4818561416d565b905081810360208301526147c8818461416d565b90509392505050565b600060808201905081810360008301526147eb818761416d565b905081810360208301526147ff818661416d565b90508181036040830152614813818561416d565b90508181036060830152614827818461416d565b905095945050505050565b6000606082019050818103600083015261484c818661416d565b90508181036020830152614860818561416d565b905061486f604083018461466d565b949350505050565b60006060820190508181036000830152614891818661416d565b90506148a0602083018561466d565b81810360408301526148b2818461416d565b9050949350505050565b600060208201905081810360008301526148d5816141d7565b9050919050565b600060208201905081810360008301526148f581614217565b9050919050565b6000602082019050818103600083015261491581614257565b9050919050565b60006020820190508181036000830152614935816142bd565b9050919050565b6000602082019050818103600083015261495581614323565b9050919050565b6000602082019050818103600083015261497581614363565b9050919050565b60006020820190508181036000830152614995816143c9565b9050919050565b600060208201905081810360008301526149b58161442f565b9050919050565b600060208201905081810360008301526149d581614495565b9050919050565b600060208201905081810360008301526149f5816144fb565b9050919050565b60006020820190508181036000830152614a1581614561565b9050919050565b60006020820190508181036000830152614a35816145c7565b9050919050565b60006020820190508181036000830152614a568184614607565b905092915050565b6000602082019050614a73600083018461466d565b92915050565b6000604082019050614a8e600083018561466d565b8181036020830152614aa0818461416d565b90509392505050565b6000604051905081810181811067ffffffffffffffff82111715614ad057614acf614bcc565b5b8060405250919050565b600067ffffffffffffffff821115614af557614af4614bcc565b5b601f19601f8301169050602081019050919050565b600081519050919050565b600082825260208201905092915050565b600082825260208201905092915050565b600081905092915050565b6000614b4d82614b60565b9050919050565b60008115159050919050565b600073ffffffffffffffffffffffffffffffffffffffff82169050919050565b6000819050919050565b82818337600083830152505050565b60005b83811015614bb7578082015181840152602081019050614b9c565b83811115614bc6576000848401525b50505050565bfe5b6000601f19601f8301169050919050565b614be881614b42565b8114614bf357600080fd5b50565b614bff81614b80565b8114614c0a57600080fd5b5056fea264697066735822122004755a9c941f1f31f7716875b46ed06fe9bb5f39cff6c87083093e96a864f92564736f6c63430007040033",
  "immutableReferences": {},
  "source": "pragma solidity ^0.7.4;\r\npragma experimental ABIEncoderV2;//enabled when passing an array of string(struct) as a function paramete\r\n\r\n\r\n/*\r\n*falta : \r\n*crear lo de las asignaturas con los laborarios y puestos a los que perteneces y las caracteristicas que desepean cada puesto \r\n*crear las reservas , se va a reservar por semana un puesto de un determinado laboratorio \r\n*/\r\n\r\n\r\ncontract ReslabEtsit {\r\n    \r\n   \r\n    /**\r\n     * address del profesor que ha desplegado el contrato.\r\n     * El contrato lo despliega el profesor.\r\n     */\r\n    address public owner;\r\n    address public profesorP;\r\n     \r\n    \r\n    /// Nombre de la asignatura\r\n    //string public nombre;\r\n    \r\n   \r\n    \r\n    /**\r\n     * Datos de un puesto\r\n     */\r\n     \r\n     \r\n     \r\n    enum TipoSO {windows, macos , linux}\r\n    \r\n    enum TipoConexionesRed { cable, inalambrico} // array de strings \r\n    \r\n   \r\n   // enum Horario { turnom ,turnot}//poenr horas y turnos en enum???? array de horas \r\n    \r\n    struct Puesto {\r\n        string nombre;\r\n        //caracteristicas\r\n        TipoConexionesRed tipoConexionesRed;\r\n        TipoSO tipoSO;\r\n       // Laboratorio laboratorio;\r\n       \r\n    }\r\n    \r\n    \r\n    \r\n    \r\n    \r\n    /// puestos de la asignatura.\r\n   // Puesto[] public puestos;\r\n    \r\n    //labs de la asignatura\r\n    \r\n   // Laboratorio[] public laboratorios;\r\n   \r\n   \r\n    /**\r\n    * datos de todos los labs con sus parametro en la pantalla de inicio\r\n    * DUDA -> QUIERO PONERARRAY DE STRING DE ASIGNATURA!!\r\n    **/\r\n     struct DatosLaboratorio {\r\n        uint labId;\r\n        string nombreL;\r\n        //string[] asignaturaL;\r\n       \r\n    }\r\n    \r\n    /**\r\n    * datos del alumno que se registra \r\n    **/\r\n   // datos persona \r\n    struct DatosPersona {\r\n\taddress dir;\r\n    }\r\n\r\n    /// Datos de un alumno.\r\n    struct DatosAlumno {\r\n        string nombre;\r\n        string email;\r\n        \r\n    }\r\n    \r\n    /**\r\n     * Datos profe que se registra \r\n     * */\r\n     \r\n    \r\n    struct DatosProfesor{\r\n        string nombreP;\r\n        string emailP;\r\n        string asignaturaP;\r\n        string departamentoP;\r\n    }\r\n    \r\n    \r\n    \r\n    /**\r\n     * Datos de lasegunda pantalla donde te aparcene el estado de reserva, puestos etc del lab)\r\n     * */\r\n    struct PinchaLab {\r\n        \r\n\taddress dir;\r\n\t\r\n\tstring fecha;\r\n\tstring entradaTurno;\r\n\tstring salidaTurno;\r\n\tstring puesto;\r\n        \r\n\tstring estado;\r\n\tstring asignatura;\r\n\tstring info; //enumerado del sistema operativo!!!!!!!!!!!\r\n    }\r\n    \r\n   /* struct DatosAsignatura{\r\n        string nombre;\r\n        Laboratorio[] laboratorio;\r\n        Puesto[] puesto;\r\n        //credito semanal\r\n        //Matriculas matriculados;\r\n    }\r\n    */\r\n    \r\n    \r\n    \r\n    /**\r\n     * Datos de los datos de las ultimas reservas registradas // FALTAN PUESTO\r\n     * */\r\n     \r\n     struct UltimaReserva{\r\n         string lab;\r\n         uint turno;\r\n         string fecha;\r\n         \r\n         \r\n     }\r\n     \r\n     /**\r\n      * Datos de mireserva //FALTA PUESTO\r\n      * */\r\n      \r\n      struct ReservaAlumno{\r\n          string lab;\r\n          string fecha;\r\n          uint estado;\r\n          //string puesto;\r\n\r\n      }\r\n      \r\n      // acceder a los datos de una persona dada su direccion\r\n      mapping (address => DatosPersona) public datosPersona;\r\n    \r\n    /// Acceder a los datos de un alumno dada su direccion.\r\n    mapping (address => DatosAlumno) public datosAlumno;\r\n    \r\n      /// Acceder a los datos de un profe dada su direccion.\r\n    mapping (address => DatosProfesor) public datosProfesor;\r\n    \r\n    //mapping (address => DatosAsignatura)  datosAsignatura;\r\n    \r\n    \r\n    mapping (address => DatosLaboratorio)  datosLaboratorio;\r\n\r\n    //mapping(uint => Laboratorio) public labPuestos; //acceder a los puestos del lab dada la info del lab\r\n  \r\n\r\n    \r\n    // Array con las direcciones de los alumnos matriculados.\r\n    address[] public matriculas;\r\n    \r\n    \r\n    //array con las direcciones de los profes registrados \r\n    address[] public profesRegistrados;\r\n    \r\n        // Array con las direcciones de las personas registradas.\r\n    address[] public registradosP;\r\n\r\n    \r\n    //Array credito semanal \r\n    address [] public creditosemanal;\r\n    \r\n    //address[] public asignaturasRegistradas;\r\n    \r\n    \r\n    // labs en la escuela\r\n    DatosLaboratorio[] public laboratoriosRegistrados;\r\n    //reservas de la escuela\r\n    \r\n    UltimaReserva[] public reservasLab;\r\n        \r\n   \r\n\r\n     //reserva para un usuario \r\n  \r\n    mapping (address => ReservaAlumno) public reservasAlumno;\r\n    \r\n    \r\n    //turno de la escuela\r\n\r\n    mapping (string => mapping (string  => uint[] )) public turnos;\r\n    \r\n        /// Mapping para evitar duplicados de turnos.\r\n    mapping (string => mapping (string  => mapping ( uint => bool ))) public turnos_existentes;\r\n    \r\n    /// Direcciones de las personas que han asistido a algun aula en alguna de las fechas y en algun turno.\r\n    mapping (string => mapping (string => mapping (uint => address[] ))) public personas;\r\n   \r\n    /// Direcciones de las personas que han asistido a algun aula en alguna de las fechas.\r\n    mapping (string => mapping (string => address[] )) public personasTotales;\r\n    \r\n    // Dada la fecha actual, el nombre del aula, el turno y la direccin de la persona, devuelve\r\n    // la entrada correspondiente a dicha persona.\r\n    mapping (string => mapping (string => mapping (uint => mapping (address => PinchaLab)))) public datosLab;\r\n\r\n    \r\n    /// Ultimas entradas de cada persona.\r\n    mapping (address => UltimaReserva[] ) public ultimosRegistros;\r\n\r\n  // mapping(uint => bool) public registeredLaboratorios; //saberr si un lab esta registrado\r\n   // mapping(uint => Laboratorio) public labPuestos; //acceder a los puestos del lab dada la info del lab \r\n    // labId -> mes ->semana-> hora -> waitingList[]\r\n /*   mapping(uint => mapping(uint => mapping(uint => mapping(uint => address[])))) public reservations;\r\n    // labId -> mes ->semana-> hora -> waitingListLength\r\n    mapping(uint => mapping(uint => mapping(uint => mapping(uint => uint)))) public reservationLengths;\r\n    // address -> _labID -> mes ->semana-> hora -> bool*/\r\n /*   mapping(address => mapping(uint => mapping(uint => mapping(uint => mapping(uint => bool))))) public isLabReserved;\r\n    event Reservation(\r\n        address indexed _from,\r\n        uint _labID,\r\n        uint _mes,\r\n        uint _semana,\r\n        uint _hora\r\n    );\r\n    event Cancellation(\r\n        address indexed _from,\r\n        uint _labID,\r\n        uint _mes,\r\n        uint _semana,\r\n        uint _hora\r\n    );\r\n    \r\n    \r\n  */\r\n    \r\n    \r\n    \r\n    \r\n    /*\r\n     * Constructor.\r\n     * \r\n     * @param _nombre Nombre de la asignatura.\r\n     * //habria qu eponer nombre puesto /lab /alumno etc \r\n    \r\n     */\r\n    /*constructor(string memory _nombre) {\r\n        \r\n        bytes memory bn = bytes(_nombre);\r\n        require(bn.length != 0, \"El nombre de la asignatura no puede ser vacio\");\r\n       \r\n       \r\n      \r\n        owner = msg.sender;\r\n        nombre = _nombre;\r\n        \r\n        \r\n     \r\n        \r\n    }*/\r\n    \r\n    constructor()  {\r\n        owner = msg.sender;\r\n    } //?????????????????????????????????\r\n\r\n    \r\n    \r\n    \r\n    \r\n    \r\n    /**\r\n     * El numero depuestos creadas.\r\n     *\r\n     * @return El numero de puestos creadas.\r\n     */\r\n   /* function puestosLength() public view returns(uint) {\r\n        return puestos.length;\r\n    }\r\n    \r\n    \r\n    \r\n     /**\r\n     * El numero de labs  creadas.\r\n     *\r\n     * @return El numero de labs creadas.\r\n     */\r\n    function laboratoriosLength() public view returns(uint) {\r\n        return laboratoriosRegistrados.length;\r\n    }\r\n    \r\n    \r\n    \r\n        /**\r\n     * El numero de reservas existentes.\r\n     *\r\n     * @return El numero de alertas existentes.\r\n     */\r\n    function reservasLength() public view returns(uint) {\r\n        return reservasLab.length;\r\n\r\n    }\r\n\r\n\t  /**\r\n     * El numero de ultimosRegistros existentes.\r\n     *\r\n     * @return El numero de ultimosRegistros existentes.\r\n     */\r\n    function ultimosRegistrosLength(address dir) public view returns(uint) {\r\n\treturn ultimosRegistros[dir].length;\r\n    }\r\n        \r\n    /**\r\n     * Permite obtener la longitud del array de personasTotales.\r\n     * \r\n     */\r\n    function personasLength(string memory _nombre, string memory _fecha) public view returns(uint) {\r\n\r\n\tuint longitud = personasTotales[_fecha][_nombre].length;\r\n\r\n\tif(longitud == 0){\r\n\t  longitud = 1;\r\n\t}\r\n\r\n  \treturn longitud;\r\n\r\n    }\r\n\r\n\r\n\r\n    /**\r\n     * Permite obtener un address del array de personas.\r\n     * \r\n     */\r\n    function dirPersonas(string memory _nombre, string memory _fecha, uint _indice) public view returns(address) {\r\n\r\n\tif(personasTotales[_fecha][_nombre].length > 0){\r\n\taddress _dirUno = personasTotales[_fecha][_nombre][_indice];\r\n\treturn _dirUno;\r\n\r\n\t}else{\r\n\treturn msg.sender;\r\n\t}\t\t\t\r\n\t\r\n    }\r\n    \r\n        /**\r\n     * Obtiene los datos de una persona registrada.\r\n     * \r\n     * @param persona La direccion de una persona.\r\n     * \r\n     * @return los datos de una persona registrada.\r\n     */\r\n    function obtenerDatosPersona(address persona)  public view returns(address) {\r\n\t\r\n\t\r\n\tif(!estaRegistrado(persona)){\r\n\treturn address(0);\r\n\t} else{\t\r\n\treturn datosPersona[persona].dir;\r\n\t}\r\n\t\r\n        \r\n        \r\n    } \r\n    \r\n\r\n\r\n        /**\r\n     * La alerta (si la hay) de un alumno.\r\n     *\r\n     */\r\n    function reservas(address _dir) public view returns (ReservaAlumno memory) {\r\n\r\n\treturn reservasAlumno[_dir]; \r\n    }\r\n\r\n\r\n\r\n    /**\r\n     * Eliminar la alerta de un usuario\r\n     *\r\n     */\r\n    function reiniciarReserva() public {\r\n\r\n\treservasAlumno[msg.sender].estado = 0 ;\r\n\r\n\r\n    }\r\n\r\n        /**\r\n     * El aula del que se desea ver el historial.\r\n     *\r\n     */\r\n    function LabPulsado(uint x) public view returns (string memory) {\r\n\r\n\treturn laboratoriosRegistrados[x].nombreL; \r\n    }\r\n\r\n    \r\n    /**\r\n     * Crear un lab. \r\n     *\r\n     * Las labss se meteran en el array labss, y nos referiremos a ellas por su posicion en el array.\r\n     * \r\n     * @param _nombre El nombre del aula.\r\n     * \r\n     * @return La posicion en el array aulas,\r\n     */\r\n    \r\n     /**\r\n     * Las personas pueden registrar su asistencia a un lab con el metodo guardarReserva.\r\n     * \r\n     * Impedir que se pueda meter un nombre vacio.\r\n     *\r\n     *  _nombre El nombre del aula. \r\n     * _ent Hora de entrada al aula.\r\n     *  _fecha Fecha de entrada al aula.\r\n     *  _puesto Puesto en el aula.\r\n     */\r\n    function guardarReserva(string memory _nombre, string memory _entradaTurno, string memory _fecha, string memory _puesto, uint _turno) public {\r\n        \r\n\t\r\n    bytes memory a = bytes(_nombre);\r\n    require(a.length != 0, \"El nombre no puede ser vacio\");\r\n\r\n\tbytes memory b = bytes(_entradaTurno);\r\n\trequire(b.length != 0, \"La hora de entrada no puede ser vacio\");\r\n\r\n\tbytes memory c = bytes(_fecha);\r\n\trequire(c.length != 0, \"La fecha no puede ser vacio\");\r\n\r\n\tbytes memory d = bytes(_puesto);\r\n        require(d.length != 0, \"El puesto no puede ser vacio\");\r\n\r\n\tdatosLab[_fecha][_nombre][_turno][msg.sender].dir = msg.sender;\r\n\tdatosLab[_fecha][_nombre][_turno][msg.sender].fecha = _fecha;\r\n\tdatosLab[_fecha][_nombre][_turno][msg.sender].entradaTurno = _entradaTurno; \r\n\tdatosLab[_fecha][_nombre][_turno][msg.sender].puesto = _puesto;\r\n \t\r\n\tif (reservasAlumno[msg.sender].estado==0) {\r\n   \tdatosLab[_fecha][_nombre][_turno][msg.sender].estado = \"Inicial\";\r\n\t} else if (reservasAlumno[msg.sender].estado==1) {\r\n   \tdatosLab[_fecha][_nombre][_turno][msg.sender].estado = \"Sospechoso\";\r\n\t} else if (reservasAlumno[msg.sender].estado==2) {\r\n   \tdatosLab[_fecha][_nombre][_turno][msg.sender].estado = \"Positivo\";\r\n\t} else {\r\n   \tdatosLab[_fecha][_nombre][_turno][msg.sender].estado = \"Negativo\";\r\n\t}\r\n\r\n        personas[_fecha][_nombre][_turno].push(msg.sender);\r\n\tpersonasTotales[_fecha][_nombre].push(msg.sender);\r\n\tultimosRegistros[msg.sender].push(UltimaReserva(_nombre,_turno,_fecha));\r\n\t\r\n\tif (turnos_existentes[_fecha][_nombre][_turno] == false){\r\n\t   turnos[_fecha][_nombre].push(_turno);\r\n\t   turnos_existentes[_fecha][_nombre][_turno] = true;\r\n\t}\r\n\r\n        \r\n    }\r\n    \r\n\r\n    /**\r\n     * Las personas pueden registrar su salida del aula con el metodo guardarSalida.\r\n     * \r\n     * Impedir que se pueda meter un nombre vacio.\r\n     *\r\n     * _nombre El nombre del aula. \r\n     *  _sal Hora de salida al aula.\r\n     *  _fecha Fecha de entrada al aula.\r\n     */\r\n    function guardarSalida(string memory _nombre, string memory _salidaTurno, string memory _fecha, uint _turno) public {\r\n\r\n\tdatosLab[_fecha][_nombre][_turno][msg.sender].salidaTurno = _salidaTurno;\r\n        \r\n    }\r\n\r\n\r\n\r\n    /**\r\n     * El administrador puede eliminar un aula con el metodo eliminarAula.\r\n     * \r\n     * Impedir que se pueda meter un indice vacio.\r\n     *\r\n     *  _indice El nombre del aula. \r\n     */\r\n    \r\n    \r\n    \r\n    /*\r\n     * Crear un puesto\r\n     *\r\n     * Llos puestos se meteran en el array de puestos y nos refereimos por su posicion en el array\r\n     *  _nombre El nombre de puesto \r\n     \r\n   \r\n     * \r\n     * La posicion en el array lab\r\n     */\r\n     \r\n     \r\n     //poner lo del laboratorio pero me dice lo de use pragma experimental ABIENCODERV2\r\n    //function creaPuesto(string memory _nombre,TipoConexionesRed  _tipoConexionesRed,TipoSO  _TipoSO/*Laboratorio _laboratorio*/) soloProfesor public returns (uint) {\r\n        \r\n     //  bytes memory bn = bytes(_nombre);\r\n       // require(bn.length != 0, \"El nombre de la puesto no puede ser vacio\");\r\n        \r\n        //puestos.push(Puesto(_nombre,_tipoConexionesRed,_TipoSO/*_laboratorio*/));\r\n        //return puestos.length - 1;\r\n  //  }\r\n    \r\n    \r\n    \r\n    \r\n        \r\n     //poner lo del laboratorio pero me dice lo de use pragma experimental ABIENCODERV2\r\n    function creaLaboratorio(string memory _nombreL)  public returns (uint) {\r\n        \r\n        bytes memory bn = bytes(_nombreL);\r\n        require(bn.length != 0, \"El nombre del lab no puede ser vacio\");\r\n        \r\n        laboratoriosRegistrados.push(DatosLaboratorio(laboratoriosRegistrados.length,_nombreL));\r\n        return laboratoriosRegistrados.length - 1;\r\n    }\r\n    \r\n    \r\n    \r\n    \r\n        \r\n    \r\n \r\n     /**\r\n     * El numero de alumnos matriculados.\r\n     *\r\n     * @return El numero de alumnos matriculados.\r\n     */\r\n    function matriculasLength() public view returns(uint) {\r\n        return matriculas.length;\r\n    }\r\n    \r\n    \r\n    \r\n      /**\r\n     * El numero de profes registrados.\r\n     *\r\n     * .\r\n     */\r\n    function profesRegistradosLength() public view returns(uint) {\r\n        return profesRegistrados.length;\r\n    }\r\n    \r\n    \r\n       /**\r\n     * El numero de asignaturas registrados.\r\n     *\r\n     * .\r\n     */\r\n    /*function asignaturasRegistradasLength() public view returns(uint) {\r\n        return asignaturasRegistradas.length;\r\n    }\r\n    */\r\n    \r\n    \r\n    \r\n    \r\n      /**\r\n     * numero de credito semanal \r\n     *\r\n     * @return El numero de credito semanal \r\n     * \r\n     */\r\n     /*function creditosemanalLength() public view returns(uint) {\r\n        return creditosemanal.length;\r\n    }???????????????????????????*/\r\n     \r\n    \r\n    \r\n    \r\n    \r\n    /**\r\n     * Los alumnos pueden automatricularse con el metodo automatricula.\r\n     * \r\n     * Impedir que se pueda meter un nombre vacio.\r\n     *\r\n     * @param _nombre El nombre del alumno. \r\n     * @param _email  El email del alumno.\r\n     */\r\n    function automatricula(string memory _nombre, string memory _email) noMatriculados public {\r\n        //revert(\"siempre falla\");\r\n        bytes memory b = bytes(_nombre);\r\n        require(b.length != 0, \"El nombre no puede ser vacio\");\r\n        \r\n        DatosAlumno memory datos = DatosAlumno(_nombre, _email);\r\n        \r\n        datosAlumno[msg.sender] = datos;\r\n        \r\n        matriculas.push(msg.sender);\r\n        \r\n    }\r\n    \r\n    \r\n        function autoregistroP() noRegistradosP public {\r\n        \r\n        require(msg.sender!=address(0), \"El address no puede estar vacio\");\r\n        \r\n        datosPersona[msg.sender] = DatosPersona(msg.sender);\r\n        \r\n        registradosP.push(msg.sender);\r\n        \r\n    }\r\n    \r\n    \r\n  \r\n    function autoRegistro(string memory _nombreP, string memory _emailP,string memory _asignaturaP,string memory _departamentoP ) noRegistrados public {\r\n        \r\n        bytes memory b = bytes(_nombreP);\r\n        require(b.length != 0, \"El nombre no puede ser vacio\");\r\n        \r\n        DatosProfesor memory datosP = DatosProfesor(_nombreP, _emailP,_asignaturaP,_departamentoP);\r\n        \r\n        datosProfesor[msg.sender] = datosP;\r\n        \r\n       profesRegistrados.push(msg.sender);\r\n        \r\n    }\r\n    \r\n    \r\n    \r\n    \r\n    \r\n    \r\n    \r\n    \r\n    \r\n    \r\n    \r\n    \r\n    /**\r\n     * Permite a un alumno obtener sus propios datos.\r\n     * \r\n     * @return _nombre El nombre del alumno que invoca el metodo.\r\n     * @return _email  El email del alumno que invoca el metodo.\r\n     */\r\n    function quienSoy() soloMatriculados public view returns (string memory _nombre, string memory _email) {\r\n        DatosAlumno memory datos = datosAlumno[msg.sender];\r\n        _nombre = datos.nombre;\r\n        _email = datos.email;\r\n    }\r\n    \r\n    \r\n      function quienSoyP() soloRegistrados public view returns (string memory _nombreP, string memory _emailP,string memory _asignaturaP,string memory _departamentoP) {\r\n        DatosProfesor memory datosP = datosProfesor[msg.sender];\r\n        _nombreP = datosP.nombreP;\r\n        _emailP = datosP.emailP;\r\n        _departamentoP = datosP.departamentoP;\r\n        _asignaturaP = datosP.asignaturaP;\r\n    }\r\n    \r\n    \r\n    \r\n\r\n    \r\n    \r\n    /**\r\n     * Consulta si una direccion pertenece a un alumno matriculado.\r\n     * \r\n     * @param alumno La direccion de un alumno.\r\n     * \r\n     * @return true si es una alumno matriculado.\r\n     */\r\n    function estaMatriculado(address alumno) private view returns (bool) {\r\n      \r\n        string memory _nombre = datosAlumno[alumno].nombre;\r\n        \r\n        bytes memory b = bytes(_nombre);\r\n        \r\n        return b.length != 0;\r\n    } \r\n    \r\n    \r\n       function estaRegistrado(address profesor) private view returns (bool) {\r\n      \r\n        string memory _nombreP = datosProfesor[profesor].nombreP;\r\n        \r\n        bytes memory b = bytes(_nombreP);\r\n        \r\n        return b.length != 0;\r\n    } \r\n    \r\n    function estaRegistradoP(address persona) public view returns (bool) {\r\n\r\n\taddress _dir = datosPersona[persona].dir;\r\n        return _dir!=address(0);\r\n    } \r\n    \r\n    \r\n    //como hacer para que te devuelva los puestos segun asignatura \r\n    \r\n    /*function getPuestos (string asignatura) soloMatriculados public view returns (\r\n        string nombre, TipoConexionesRed tipoConexionesRed,TipoSO tipoSO)\r\n         \r\n         require (asignatura.length!=0,\"no vacio\");\r\n         \r\n         Puesto memory puesto= tipoConexionesRed[msg.sender][asignatura];\r\n         //meter tb tipoSO\r\n         tipoConexionesRed=Puesto.tipoConexionesRed\r\n         tipoSO=Puesto.tipoSO;\r\n         \r\n    // con laboratorios tb ! */\r\n   \r\n    \r\n   //RESERVASSSSSSSSSSSSSSSSSS\r\n   \r\n   \r\n   \r\n   \r\n   /*function addLab(uint labId, uint maxPuestos) public {\r\n        require(registeredLaboratorios[labId] == false, \"lab has already been registered\");\r\n        require(msg.sender == owner, \"You are not the owner\");\r\n        labPuestos[labId] = Laboratorio({\r\n            labId: labId,\r\n            maxPuestos: maxPuestos\r\n        });\r\n        registeredLaboratorios[labId] = true;\r\n    }\r\n    */\r\n   /* function addReservation(uint   _labID, uint mes,uint semana, uint hora) public {\r\n        require(registeredLaboratorios[_labID] == true, \"lab does not exist\");\r\n        //require(puestoId < labPuestos[labId].maxPuestos, \"Puesto does not exist\");\r\n        require(\r\n            isLabReserved[msg.sender][_labID][mes][semana][hora] == false, \r\n            \"You already have a reservation for this lab at this time\"\r\n        );\r\n        reservations[_labID][mes][semana][hora] .push(msg.sender);\r\n        reservationLengths[_labID][mes][semana][hora]  += 1;\r\n        isLabReserved[msg.sender][_labID][mes][semana][hora] = true;\r\n        emit Reservation(msg.sender, _labID, mes, semana,hora);\r\n    }\r\n    function cancelReservation(uint _labID, uint mes,uint semana, uint hora) public {\r\n        require(registeredLaboratorios[_labID] == true, \"lab does not exist\");\r\n       // require(puestoId < labPuestos[_labID].maxPuestos, \"Puesto does not exist\");\r\n        require(\r\n            isLabReserved[msg.sender][_labID][mes][semana][hora] == true, \r\n            \"You don't have a reservation for this Lab\"\r\n        );\r\n        for (uint i = 0; i < reservations[_labID][mes][semana][hora].length; i++) {\r\n            if (reservations[_labID][mes][semana][hora][i] == msg.sender) {\r\n                delete reservations[_labID][mes][semana][hora][i];\r\n                break;\r\n            }\r\n        }\r\n        reservationLengths[_labID][mes][semana][hora] -= 1;\r\n        isLabReserved[msg.sender][_labID][mes][semana][hora] = false;\r\n        emit Cancellation(msg.sender, _labID, mes, semana,hora);\r\n    } */\r\n    \r\n    /**\r\n     * Modificador para que una funcion solo la pueda ejecutar el profesor.\r\n     * \r\n     *\r\n     */\r\n    modifier soloProfesor() {\r\n        \r\n        require(msg.sender == profesorP, \"Solo permitido al profesor\");\r\n        _;\r\n    }\r\n    \r\n    \r\n    /**\r\n     * Modificador para que una funcion solo la pueda ejecutar un alumno matriculado.\r\n     */\r\n    modifier soloMatriculados() {\r\n        \r\n        require(estaMatriculado(msg.sender), \"Solo permitido a alumnos matriculados\");\r\n        _;\r\n    }\r\n    \r\n    \r\n      modifier soloRegistrados() {\r\n        \r\n        require(estaRegistrado(msg.sender), \"Solo permitido a profes registrados\");\r\n        _;\r\n    }\r\n    \r\n    \r\n \r\n    /**\r\n     * Modificador para que una funcion solo la pueda ejecutar un alumno no matriculado aun.\r\n     */\r\n    modifier noMatriculados() {\r\n        \r\n        require(!estaMatriculado(msg.sender), \"Solo permitido a alumnos no matriculados\");\r\n        _;\r\n    }\r\n    \r\n    \r\n    \r\n      modifier noRegistrados() {\r\n        \r\n        require(!estaRegistrado(msg.sender), \"Solo permitido a profes no registrados\");\r\n        _;\r\n    }\r\n    \r\n        \r\n      modifier noRegistradosP() {\r\n        \r\n        require(!estaRegistradoP(msg.sender), \"Solo permitido a personas no registrados\");\r\n        _;\r\n    }\r\n    \r\n    \r\n       receive() external payable {\r\n        revert(\"No se permite la recepcion de dinero.\");\r\n    }\r\n}",
  "sourcePath": "C:/Users/Paula Huertas/reslabetsit/contracts/ReslabEtsit.sol",
  "compiler": {
    "name": "solc",
    "version": "0.7.4+commit.3f05b770.Emscripten.clang"
  },
  "schemaVersion": "3.3.4",
  "updatedAt": "2021-11-18T18:15:31.846Z",
  "networkType": "ethereum",
  "devdoc": {
    "kind": "dev",
    "methods": {
      "automatricula(string,string)": {
        "params": {
          "_email": "El email del alumno.",
          "_nombre": "El nombre del alumno. "
        }
      },
      "laboratoriosLength()": {
        "returns": {
          "_0": "El numero de puestos creadas."
        }
      },
      "matriculasLength()": {
        "returns": {
          "_0": "El numero de alumnos matriculados."
        }
      },
      "obtenerDatosPersona(address)": {
        "params": {
          "persona": "La direccion de una persona. "
        },
        "returns": {
          "_0": "los datos de una persona registrada."
        }
      },
      "quienSoy()": {
        "returns": {
          "_email": " El email del alumno que invoca el metodo.",
          "_nombre": "El nombre del alumno que invoca el metodo."
        }
      },
      "reservasLength()": {
        "returns": {
          "_0": "El numero de alertas existentes."
        }
      },
      "ultimosRegistrosLength(address)": {
        "returns": {
          "_0": "El numero de ultimosRegistros existentes."
        }
      }
    },
    "version": 1
  },
  "userdoc": {
    "kind": "user",
    "methods": {
      "LabPulsado(uint256)": {
        "notice": "El aula del que se desea ver el historial."
      },
      "automatricula(string,string)": {
        "notice": "Los alumnos pueden automatricularse con el metodo automatricula.  Impedir que se pueda meter un nombre vacio."
      },
      "creaLaboratorio(string)": {
        "notice": "El administrador puede eliminar un aula con el metodo eliminarAula.  Impedir que se pueda meter un indice vacio.  _indice El nombre del aula. "
      },
      "datosAlumno(address)": {
        "notice": "Acceder a los datos de un alumno dada su direccion."
      },
      "datosProfesor(address)": {
        "notice": "Acceder a los datos de un profe dada su direccion."
      },
      "dirPersonas(string,string,uint256)": {
        "notice": "Permite obtener un address del array de personas. "
      },
      "guardarReserva(string,string,string,string,uint256)": {
        "notice": "Las personas pueden registrar su asistencia a un lab con el metodo guardarReserva.  Impedir que se pueda meter un nombre vacio.  _nombre El nombre del aula.  _ent Hora de entrada al aula.  _fecha Fecha de entrada al aula.  _puesto Puesto en el aula."
      },
      "guardarSalida(string,string,string,uint256)": {
        "notice": "Las personas pueden registrar su salida del aula con el metodo guardarSalida.  Impedir que se pueda meter un nombre vacio. _nombre El nombre del aula.   _sal Hora de salida al aula.  _fecha Fecha de entrada al aula."
      },
      "laboratoriosLength()": {
        "notice": "El numero depuestos creadas."
      },
      "matriculasLength()": {
        "notice": "El numero de alumnos matriculados."
      },
      "obtenerDatosPersona(address)": {
        "notice": "Obtiene los datos de una persona registrada. "
      },
      "owner()": {
        "notice": "address del profesor que ha desplegado el contrato. El contrato lo despliega el profesor."
      },
      "personas(string,string,uint256,uint256)": {
        "notice": "Direcciones de las personas que han asistido a algun aula en alguna de las fechas y en algun turno."
      },
      "personasLength(string,string)": {
        "notice": "Permite obtener la longitud del array de personasTotales. "
      },
      "personasTotales(string,string,uint256)": {
        "notice": "Direcciones de las personas que han asistido a algun aula en alguna de las fechas."
      },
      "profesRegistradosLength()": {
        "notice": "El numero de profes registrados. ."
      },
      "quienSoy()": {
        "notice": "Permite a un alumno obtener sus propios datos. "
      },
      "reiniciarReserva()": {
        "notice": "Eliminar la alerta de un usuario"
      },
      "reservas(address)": {
        "notice": "La alerta (si la hay) de un alumno."
      },
      "reservasLength()": {
        "notice": "El numero de reservas existentes."
      },
      "turnos_existentes(string,string,uint256)": {
        "notice": "Mapping para evitar duplicados de turnos."
      },
      "ultimosRegistros(address,uint256)": {
        "notice": "Ultimas entradas de cada persona."
      },
      "ultimosRegistrosLength(address)": {
        "notice": "El numero de ultimosRegistros existentes."
      }
    },
    "version": 1
  }
}