{
  "contractName": "ReslabEtsit",
  "abi": [
    {
      "inputs": [],
      "stateMutability": "nonpayable",
      "type": "constructor"
    },
    {
      "inputs": [
        {
          "internalType": "address",
          "name": "",
          "type": "address"
        },
        {
          "internalType": "string",
          "name": "",
          "type": "string"
        }
      ],
      "name": "CreditoSemanalPorAlumnoAsignatura",
      "outputs": [
        {
          "internalType": "uint256",
          "name": "creditoSemanal",
          "type": "uint256"
        }
      ],
      "stateMutability": "view",
      "type": "function",
      "constant": true
    },
    {
      "inputs": [
        {
          "internalType": "uint256",
          "name": "",
          "type": "uint256"
        },
        {
          "internalType": "uint256",
          "name": "",
          "type": "uint256"
        },
        {
          "internalType": "uint256",
          "name": "",
          "type": "uint256"
        }
      ],
      "name": "arrayPuestosDelLab",
      "outputs": [
        {
          "internalType": "string",
          "name": "nombre",
          "type": "string"
        },
        {
          "internalType": "uint256",
          "name": "indexlab",
          "type": "uint256"
        }
      ],
      "stateMutability": "view",
      "type": "function",
      "constant": true
    },
    {
      "inputs": [
        {
          "internalType": "uint256",
          "name": "",
          "type": "uint256"
        }
      ],
      "name": "asignaturasRegistradas",
      "outputs": [
        {
          "internalType": "string",
          "name": "nombre",
          "type": "string"
        },
        {
          "internalType": "uint256",
          "name": "indexLab",
          "type": "uint256"
        },
        {
          "internalType": "string",
          "name": "info",
          "type": "string"
        }
      ],
      "stateMutability": "view",
      "type": "function",
      "constant": true
    },
    {
      "inputs": [
        {
          "internalType": "uint256",
          "name": "",
          "type": "uint256"
        }
      ],
      "name": "asignaturasRegistradasdir",
      "outputs": [
        {
          "internalType": "address",
          "name": "",
          "type": "address"
        }
      ],
      "stateMutability": "view",
      "type": "function",
      "constant": true
    },
    {
      "inputs": [
        {
          "internalType": "address",
          "name": "",
          "type": "address"
        }
      ],
      "name": "datosAlumno",
      "outputs": [
        {
          "internalType": "string",
          "name": "nombre",
          "type": "string"
        },
        {
          "internalType": "string",
          "name": "email",
          "type": "string"
        }
      ],
      "stateMutability": "view",
      "type": "function",
      "constant": true
    },
    {
      "inputs": [
        {
          "internalType": "address",
          "name": "",
          "type": "address"
        }
      ],
      "name": "datosPersona",
      "outputs": [
        {
          "internalType": "address",
          "name": "dir",
          "type": "address"
        }
      ],
      "stateMutability": "view",
      "type": "function",
      "constant": true
    },
    {
      "inputs": [
        {
          "internalType": "address",
          "name": "",
          "type": "address"
        }
      ],
      "name": "datosProfesor",
      "outputs": [
        {
          "internalType": "string",
          "name": "nombreP",
          "type": "string"
        },
        {
          "internalType": "string",
          "name": "emailP",
          "type": "string"
        },
        {
          "internalType": "string",
          "name": "asignaturaP",
          "type": "string"
        },
        {
          "internalType": "string",
          "name": "departamentoP",
          "type": "string"
        }
      ],
      "stateMutability": "view",
      "type": "function",
      "constant": true
    },
    {
      "inputs": [
        {
          "internalType": "uint256",
          "name": "",
          "type": "uint256"
        },
        {
          "internalType": "uint256",
          "name": "",
          "type": "uint256"
        }
      ],
      "name": "datosReserva",
      "outputs": [
        {
          "internalType": "address",
          "name": "dirAlumno",
          "type": "address"
        }
      ],
      "stateMutability": "view",
      "type": "function",
      "constant": true
    },
    {
      "inputs": [
        {
          "internalType": "uint256",
          "name": "",
          "type": "uint256"
        },
        {
          "internalType": "uint256",
          "name": "",
          "type": "uint256"
        },
        {
          "internalType": "uint256",
          "name": "",
          "type": "uint256"
        },
        {
          "internalType": "uint256",
          "name": "",
          "type": "uint256"
        }
      ],
      "name": "datosReservaPorLabPuestoFechaTurno",
      "outputs": [
        {
          "internalType": "address",
          "name": "dirAlumno",
          "type": "address"
        }
      ],
      "stateMutability": "view",
      "type": "function",
      "constant": true
    },
    {
      "inputs": [
        {
          "internalType": "uint256",
          "name": "",
          "type": "uint256"
        },
        {
          "internalType": "uint256",
          "name": "",
          "type": "uint256"
        },
        {
          "internalType": "uint256",
          "name": "",
          "type": "uint256"
        }
      ],
      "name": "datosReservaPorLabPuestoTurno",
      "outputs": [
        {
          "internalType": "address",
          "name": "dirAlumno",
          "type": "address"
        }
      ],
      "stateMutability": "view",
      "type": "function",
      "constant": true
    },
    {
      "inputs": [
        {
          "internalType": "uint256",
          "name": "",
          "type": "uint256"
        }
      ],
      "name": "indiceLabPorAsignatura",
      "outputs": [
        {
          "internalType": "uint256",
          "name": "",
          "type": "uint256"
        }
      ],
      "stateMutability": "view",
      "type": "function",
      "constant": true
    },
    {
      "inputs": [
        {
          "internalType": "uint256",
          "name": "",
          "type": "uint256"
        }
      ],
      "name": "laboratoriosRegistrados",
      "outputs": [
        {
          "internalType": "uint256",
          "name": "laboratorioindex",
          "type": "uint256"
        },
        {
          "internalType": "string",
          "name": "nombreL",
          "type": "string"
        },
        {
          "internalType": "string",
          "name": "asignaura",
          "type": "string"
        },
        {
          "internalType": "string",
          "name": "info",
          "type": "string"
        }
      ],
      "stateMutability": "view",
      "type": "function",
      "constant": true
    },
    {
      "inputs": [
        {
          "internalType": "uint256",
          "name": "",
          "type": "uint256"
        }
      ],
      "name": "matriculas",
      "outputs": [
        {
          "internalType": "address",
          "name": "",
          "type": "address"
        }
      ],
      "stateMutability": "view",
      "type": "function",
      "constant": true
    },
    {
      "inputs": [],
      "name": "owner",
      "outputs": [
        {
          "internalType": "address",
          "name": "",
          "type": "address"
        }
      ],
      "stateMutability": "view",
      "type": "function",
      "constant": true
    },
    {
      "inputs": [
        {
          "internalType": "string",
          "name": "",
          "type": "string"
        },
        {
          "internalType": "string",
          "name": "",
          "type": "string"
        },
        {
          "internalType": "uint256",
          "name": "",
          "type": "uint256"
        },
        {
          "internalType": "uint256",
          "name": "",
          "type": "uint256"
        }
      ],
      "name": "personas",
      "outputs": [
        {
          "internalType": "address",
          "name": "",
          "type": "address"
        }
      ],
      "stateMutability": "view",
      "type": "function",
      "constant": true
    },
    {
      "inputs": [
        {
          "internalType": "string",
          "name": "",
          "type": "string"
        },
        {
          "internalType": "string",
          "name": "",
          "type": "string"
        },
        {
          "internalType": "uint256",
          "name": "",
          "type": "uint256"
        }
      ],
      "name": "personasTotales",
      "outputs": [
        {
          "internalType": "address",
          "name": "",
          "type": "address"
        }
      ],
      "stateMutability": "view",
      "type": "function",
      "constant": true
    },
    {
      "inputs": [
        {
          "internalType": "uint256",
          "name": "",
          "type": "uint256"
        }
      ],
      "name": "profesRegistrados",
      "outputs": [
        {
          "internalType": "address",
          "name": "",
          "type": "address"
        }
      ],
      "stateMutability": "view",
      "type": "function",
      "constant": true
    },
    {
      "inputs": [],
      "name": "profesorP",
      "outputs": [
        {
          "internalType": "address",
          "name": "",
          "type": "address"
        }
      ],
      "stateMutability": "view",
      "type": "function",
      "constant": true
    },
    {
      "inputs": [
        {
          "internalType": "uint256",
          "name": "",
          "type": "uint256"
        },
        {
          "internalType": "uint256",
          "name": "",
          "type": "uint256"
        }
      ],
      "name": "puestos",
      "outputs": [
        {
          "internalType": "uint256",
          "name": "",
          "type": "uint256"
        }
      ],
      "stateMutability": "view",
      "type": "function",
      "constant": true
    },
    {
      "inputs": [
        {
          "internalType": "string",
          "name": "",
          "type": "string"
        },
        {
          "internalType": "uint256",
          "name": "",
          "type": "uint256"
        },
        {
          "internalType": "uint256",
          "name": "",
          "type": "uint256"
        },
        {
          "internalType": "uint256",
          "name": "",
          "type": "uint256"
        }
      ],
      "name": "puestosBuscados",
      "outputs": [
        {
          "internalType": "uint256",
          "name": "",
          "type": "uint256"
        }
      ],
      "stateMutability": "view",
      "type": "function",
      "constant": true
    },
    {
      "inputs": [
        {
          "internalType": "uint256",
          "name": "",
          "type": "uint256"
        },
        {
          "internalType": "uint256",
          "name": "",
          "type": "uint256"
        }
      ],
      "name": "puestosDelLaboratorio",
      "outputs": [
        {
          "internalType": "uint256",
          "name": "",
          "type": "uint256"
        }
      ],
      "stateMutability": "view",
      "type": "function",
      "constant": true
    },
    {
      "inputs": [
        {
          "internalType": "uint256",
          "name": "",
          "type": "uint256"
        },
        {
          "internalType": "uint256",
          "name": "",
          "type": "uint256"
        },
        {
          "internalType": "uint256",
          "name": "",
          "type": "uint256"
        }
      ],
      "name": "puestosDelLaboratorioFecha",
      "outputs": [
        {
          "internalType": "uint256",
          "name": "",
          "type": "uint256"
        }
      ],
      "stateMutability": "view",
      "type": "function",
      "constant": true
    },
    {
      "inputs": [
        {
          "internalType": "uint256",
          "name": "",
          "type": "uint256"
        }
      ],
      "name": "puestosRegistrados",
      "outputs": [
        {
          "internalType": "string",
          "name": "nombre",
          "type": "string"
        },
        {
          "internalType": "uint256",
          "name": "indexlab",
          "type": "uint256"
        }
      ],
      "stateMutability": "view",
      "type": "function",
      "constant": true
    },
    {
      "inputs": [
        {
          "internalType": "string",
          "name": "",
          "type": "string"
        },
        {
          "internalType": "uint256",
          "name": "",
          "type": "uint256"
        }
      ],
      "name": "puestosTotales",
      "outputs": [
        {
          "internalType": "string",
          "name": "",
          "type": "string"
        }
      ],
      "stateMutability": "view",
      "type": "function",
      "constant": true
    },
    {
      "inputs": [
        {
          "internalType": "uint256",
          "name": "",
          "type": "uint256"
        }
      ],
      "name": "registradosP",
      "outputs": [
        {
          "internalType": "address",
          "name": "",
          "type": "address"
        }
      ],
      "stateMutability": "view",
      "type": "function",
      "constant": true
    },
    {
      "inputs": [
        {
          "internalType": "address",
          "name": "",
          "type": "address"
        }
      ],
      "name": "reservasAlumno",
      "outputs": [
        {
          "internalType": "string",
          "name": "lab",
          "type": "string"
        },
        {
          "internalType": "uint256",
          "name": "fecha",
          "type": "uint256"
        },
        {
          "internalType": "uint256",
          "name": "estado",
          "type": "uint256"
        }
      ],
      "stateMutability": "view",
      "type": "function",
      "constant": true
    },
    {
      "inputs": [
        {
          "internalType": "uint256",
          "name": "",
          "type": "uint256"
        },
        {
          "internalType": "uint256",
          "name": "",
          "type": "uint256"
        },
        {
          "internalType": "uint256",
          "name": "",
          "type": "uint256"
        }
      ],
      "name": "turnosPorPuesto",
      "outputs": [
        {
          "internalType": "uint256",
          "name": "",
          "type": "uint256"
        }
      ],
      "stateMutability": "view",
      "type": "function",
      "constant": true
    },
    {
      "inputs": [
        {
          "internalType": "uint256",
          "name": "",
          "type": "uint256"
        }
      ],
      "name": "turnosRegistrados",
      "outputs": [
        {
          "internalType": "string",
          "name": "nombre",
          "type": "string"
        },
        {
          "internalType": "uint256",
          "name": "fecha",
          "type": "uint256"
        }
      ],
      "stateMutability": "view",
      "type": "function",
      "constant": true
    },
    {
      "stateMutability": "payable",
      "type": "receive",
      "payable": true
    },
    {
      "inputs": [
        {
          "internalType": "uint256",
          "name": "_indexlab",
          "type": "uint256"
        }
      ],
      "name": "puestosDelLaboratorioLength",
      "outputs": [
        {
          "internalType": "uint256",
          "name": "",
          "type": "uint256"
        }
      ],
      "stateMutability": "view",
      "type": "function",
      "constant": true
    },
    {
      "inputs": [],
      "name": "turnosLength",
      "outputs": [
        {
          "internalType": "uint256",
          "name": "",
          "type": "uint256"
        }
      ],
      "stateMutability": "view",
      "type": "function",
      "constant": true
    },
    {
      "inputs": [
        {
          "internalType": "uint256",
          "name": "_laboratorioindex",
          "type": "uint256"
        }
      ],
      "name": "puestosLaboratorioLength",
      "outputs": [
        {
          "internalType": "uint256",
          "name": "",
          "type": "uint256"
        }
      ],
      "stateMutability": "view",
      "type": "function",
      "constant": true
    },
    {
      "inputs": [],
      "name": "laboratoriosLength",
      "outputs": [
        {
          "internalType": "uint256",
          "name": "",
          "type": "uint256"
        }
      ],
      "stateMutability": "view",
      "type": "function",
      "constant": true
    },
    {
      "inputs": [
        {
          "internalType": "string",
          "name": "_nombre",
          "type": "string"
        },
        {
          "internalType": "string",
          "name": "_fecha",
          "type": "string"
        }
      ],
      "name": "personasLength",
      "outputs": [
        {
          "internalType": "uint256",
          "name": "",
          "type": "uint256"
        }
      ],
      "stateMutability": "view",
      "type": "function",
      "constant": true
    },
    {
      "inputs": [
        {
          "internalType": "string",
          "name": "_nombre",
          "type": "string"
        }
      ],
      "name": "puestosLength2",
      "outputs": [
        {
          "internalType": "uint256",
          "name": "",
          "type": "uint256"
        }
      ],
      "stateMutability": "view",
      "type": "function",
      "constant": true
    },
    {
      "inputs": [
        {
          "internalType": "string",
          "name": "_nombre",
          "type": "string"
        },
        {
          "internalType": "string",
          "name": "_fecha",
          "type": "string"
        },
        {
          "internalType": "uint256",
          "name": "_indice",
          "type": "uint256"
        }
      ],
      "name": "dirPersonas",
      "outputs": [
        {
          "internalType": "address",
          "name": "",
          "type": "address"
        }
      ],
      "stateMutability": "view",
      "type": "function",
      "constant": true
    },
    {
      "inputs": [
        {
          "internalType": "address",
          "name": "persona",
          "type": "address"
        }
      ],
      "name": "obtenerDatosPersona",
      "outputs": [
        {
          "internalType": "address",
          "name": "",
          "type": "address"
        }
      ],
      "stateMutability": "view",
      "type": "function",
      "constant": true
    },
    {
      "inputs": [
        {
          "internalType": "uint256",
          "name": "_laboratorioindex",
          "type": "uint256"
        }
      ],
      "name": "puestosdeLaboratorio",
      "outputs": [
        {
          "internalType": "uint256",
          "name": "",
          "type": "uint256"
        }
      ],
      "stateMutability": "view",
      "type": "function",
      "constant": true
    },
    {
      "inputs": [
        {
          "internalType": "string",
          "name": "_fecha",
          "type": "string"
        },
        {
          "internalType": "uint256",
          "name": "_entradaTurno",
          "type": "uint256"
        },
        {
          "internalType": "uint256",
          "name": "_laboratorioindex",
          "type": "uint256"
        }
      ],
      "name": "BuscaPuestoLab",
      "outputs": [
        {
          "internalType": "uint256",
          "name": "",
          "type": "uint256"
        }
      ],
      "stateMutability": "view",
      "type": "function",
      "constant": true
    },
    {
      "inputs": [
        {
          "internalType": "uint256",
          "name": "_puestoId",
          "type": "uint256"
        },
        {
          "internalType": "uint256",
          "name": "_fecha",
          "type": "uint256"
        },
        {
          "internalType": "uint256",
          "name": "_turno",
          "type": "uint256"
        }
      ],
      "name": "guardarReserva",
      "outputs": [],
      "stateMutability": "nonpayable",
      "type": "function"
    },
    {
      "inputs": [
        {
          "internalType": "uint256",
          "name": "_puestoId",
          "type": "uint256"
        },
        {
          "internalType": "uint256",
          "name": "_fecha",
          "type": "uint256"
        },
        {
          "internalType": "uint256",
          "name": "_turno",
          "type": "uint256"
        }
      ],
      "name": "quitarReserva",
      "outputs": [],
      "stateMutability": "nonpayable",
      "type": "function"
    },
    {
      "inputs": [
        {
          "internalType": "uint256",
          "name": "_laboratorioindex",
          "type": "uint256"
        },
        {
          "internalType": "string",
          "name": "_nombreL",
          "type": "string"
        },
        {
          "internalType": "string",
          "name": "_asignaura",
          "type": "string"
        },
        {
          "internalType": "string",
          "name": "_Info",
          "type": "string"
        }
      ],
      "name": "creaLaboratorio",
      "outputs": [
        {
          "internalType": "uint256",
          "name": "",
          "type": "uint256"
        }
      ],
      "stateMutability": "nonpayable",
      "type": "function"
    },
    {
      "inputs": [
        {
          "internalType": "string",
          "name": "_nombreAsig",
          "type": "string"
        },
        {
          "internalType": "uint256",
          "name": "_indexLab",
          "type": "uint256"
        },
        {
          "internalType": "string",
          "name": "_Info",
          "type": "string"
        }
      ],
      "name": "creaAsignatura",
      "outputs": [
        {
          "internalType": "uint256",
          "name": "",
          "type": "uint256"
        }
      ],
      "stateMutability": "nonpayable",
      "type": "function"
    },
    {
      "inputs": [
        {
          "internalType": "string",
          "name": "_NombreP",
          "type": "string"
        },
        {
          "internalType": "uint256",
          "name": "_indexlab",
          "type": "uint256"
        }
      ],
      "name": "creaPuesto",
      "outputs": [
        {
          "internalType": "uint256",
          "name": "",
          "type": "uint256"
        }
      ],
      "stateMutability": "nonpayable",
      "type": "function"
    },
    {
      "inputs": [
        {
          "internalType": "string",
          "name": "_nombre",
          "type": "string"
        },
        {
          "internalType": "uint256",
          "name": "_fecha",
          "type": "uint256"
        }
      ],
      "name": "creaTurno",
      "outputs": [
        {
          "internalType": "uint256",
          "name": "",
          "type": "uint256"
        }
      ],
      "stateMutability": "nonpayable",
      "type": "function"
    },
    {
      "inputs": [],
      "name": "matriculasLength",
      "outputs": [
        {
          "internalType": "uint256",
          "name": "",
          "type": "uint256"
        }
      ],
      "stateMutability": "view",
      "type": "function",
      "constant": true
    },
    {
      "inputs": [],
      "name": "profesRegistradosLength",
      "outputs": [
        {
          "internalType": "uint256",
          "name": "",
          "type": "uint256"
        }
      ],
      "stateMutability": "view",
      "type": "function",
      "constant": true
    },
    {
      "inputs": [],
      "name": "asignaturasRegistradasLength",
      "outputs": [
        {
          "internalType": "uint256",
          "name": "",
          "type": "uint256"
        }
      ],
      "stateMutability": "view",
      "type": "function",
      "constant": true
    },
    {
      "inputs": [
        {
          "internalType": "string",
          "name": "_nombre",
          "type": "string"
        },
        {
          "internalType": "string",
          "name": "_email",
          "type": "string"
        }
      ],
      "name": "automatricula",
      "outputs": [],
      "stateMutability": "nonpayable",
      "type": "function"
    },
    {
      "inputs": [],
      "name": "autoregistroP",
      "outputs": [],
      "stateMutability": "nonpayable",
      "type": "function"
    },
    {
      "inputs": [
        {
          "internalType": "string",
          "name": "_nombreP",
          "type": "string"
        },
        {
          "internalType": "string",
          "name": "_emailP",
          "type": "string"
        },
        {
          "internalType": "string",
          "name": "_asignaturaP",
          "type": "string"
        },
        {
          "internalType": "string",
          "name": "_departamentoP",
          "type": "string"
        }
      ],
      "name": "autoRegistro",
      "outputs": [],
      "stateMutability": "nonpayable",
      "type": "function"
    },
    {
      "inputs": [],
      "name": "quienSoy",
      "outputs": [
        {
          "internalType": "string",
          "name": "_nombre",
          "type": "string"
        },
        {
          "internalType": "string",
          "name": "_email",
          "type": "string"
        }
      ],
      "stateMutability": "view",
      "type": "function",
      "constant": true
    },
    {
      "inputs": [
        {
          "internalType": "address",
          "name": "persona",
          "type": "address"
        }
      ],
      "name": "estaRegistradoP",
      "outputs": [
        {
          "internalType": "bool",
          "name": "",
          "type": "bool"
        }
      ],
      "stateMutability": "view",
      "type": "function",
      "constant": true
    }
  ],
  "bytecode": "0x608060405234801561001057600080fd5b50336000806101000a81548173ffffffffffffffffffffffffffffffffffffffff021916908373ffffffffffffffffffffffffffffffffffffffff1602179055506149d2806100606000396000f3fe6080604052600436106103035760003560e01c8063810e8c8011610190578063bcfe45d3116100dc578063cdea020911610095578063ede343cf1161006f578063ede343cf14610dd5578063ee0e7c4f14610dfe578063f0f066ef14610e3b578063f874785914610e7857610343565b8063cdea020914610d1e578063d2a2f7de14610d5b578063d5a3e75a14610d9857610343565b8063bcfe45d314610bbf578063be4a935b14610bfc578063c2c639b614610c27578063c791813914610c64578063c88da89e14610ca1578063cbf2328814610ce057610343565b80639e1d8f4b11610149578063b013bd2411610123578063b013bd2414610ad8578063b0b1273114610b15578063b4b4a51f14610b54578063b5daf62c14610b7f57610343565b80639e1d8f4b14610a47578063a9b2aeac14610a72578063aaadcd1f14610aaf57610343565b8063810e8c80146108eb57806387972906146109285780638b69735b146109655780638da5cb5b146109a25780638ee4003b146109cd5780638fa425e714610a0a57610343565b8063537668831161024f5780636ad8a0fb1161020857806370d714f2116101e257806370d714f21461081b57806379b51b6a146108465780637e09be7a146108715780637fa4574d146108ae57610343565b80636ad8a0fb146107765780636bf8aad6146107b45780636d9af3d1146107f257610343565b8063537668831461063c5780635fdf483f1461066857806361d4c6ad146106a5578063641945bf146106ce57806366668f3c1461070e5780636916662b1461074b57610343565b80632535f784116102bc578063320d077311610296578063320d07731461056e5780633bd205611461058557806344141cb9146105c257806344b9312e146105ff57610343565b80632535f784146104b6578063296d91db146104f3578063317dc2861461053057610343565b806307025942146103485780630c06bc02146103855780630c312661146103c257806312f89eac146103ff578063151b3f521461043c578063223ca7a21461047957610343565b36610343576040517f08c379a000000000000000000000000000000000000000000000000000000000815260040161033a906141c0565b60405180910390fd5b600080fd5b34801561035457600080fd5b5061036f600480360381019061036a91906135bf565b610eb5565b60405161037c9190613f5d565b60405180910390f35b34801561039157600080fd5b506103ac60048036038101906103a79190613a60565b610ef3565b6040516103b991906142c0565b60405180910390f35b3480156103ce57600080fd5b506103e960048036038101906103e491906135bf565b610f54565b6040516103f69190613f5d565b60405180910390f35b34801561040b57600080fd5b506104266004803603810190610421919061390a565b610fd7565b6040516104339190613f93565b60405180910390f35b34801561044857600080fd5b50610463600480360381019061045e9190613bcb565b6110a6565b6040516104709190613f5d565b60405180910390f35b34801561048557600080fd5b506104a0600480360381019061049b9190613ae3565b6110f1565b6040516104ad9190613f5d565b60405180910390f35b3480156104c257600080fd5b506104dd60048036038101906104d89190613c0b565b611130565b6040516104ea91906142c0565b60405180910390f35b3480156104ff57600080fd5b5061051a60048036038101906105159190613b10565b61116e565b60405161052791906142c0565b60405180910390f35b34801561053c57600080fd5b5061055760048036038101906105529190613c0b565b611315565b60405161056592919061404d565b60405180910390f35b34801561057a57600080fd5b506105836113eb565b005b34801561059157600080fd5b506105ac60048036038101906105a79190613ae3565b6115b7565b6040516105b991906142c0565b60405180910390f35b3480156105ce57600080fd5b506105e960048036038101906105e49190613ae3565b6115d7565b6040516105f691906142c0565b60405180910390f35b34801561060b57600080fd5b50610626600480360381019061062191906135ec565b6115ef565b60405161063391906142c0565b60405180910390f35b34801561064857600080fd5b50610651611630565b60405161065f929190613fb5565b60405180910390f35b34801561067457600080fd5b5061068f600480360381019061068a91906137e0565b611800565b60405161069c9190613f5d565b60405180910390f35b3480156106b157600080fd5b506106cc60048036038101906106c79190613691565b611887565b005b3480156106da57600080fd5b506106f560048036038101906106f091906135bf565b611a19565b6040516107059493929190613fec565b60405180910390f35b34801561071a57600080fd5b5061073560048036038101906107309190613691565b611c69565b60405161074291906142c0565b60405180910390f35b34801561075757600080fd5b50610760611cc4565b60405161076d91906142c0565b60405180910390f35b34801561078257600080fd5b5061079d60048036038101906107989190613ae3565b611cd1565b6040516107ab92919061404d565b60405180910390f35b3480156107c057600080fd5b506107db60048036038101906107d691906135bf565b611d8d565b6040516107e9929190613fb5565b60405180910390f35b3480156107fe57600080fd5b5061081960048036038101906108149190613c0b565b611ec1565b005b34801561082757600080fd5b50610830612044565b60405161083d91906142c0565b60405180910390f35b34801561085257600080fd5b5061085b612051565b60405161086891906142c0565b60405180910390f35b34801561087d57600080fd5b50610898600480360381019061089391906135bf565b61205e565b6040516108a59190613f78565b60405180910390f35b3480156108ba57600080fd5b506108d560048036038101906108d0919061390a565b6120ff565b6040516108e291906142c0565b60405180910390f35b3480156108f757600080fd5b50610912600480360381019061090d9190613966565b61225e565b60405161091f91906142c0565b60405180910390f35b34801561093457600080fd5b5061094f600480360381019061094a9190613c0b565b6123e1565b60405161095c9190613f5d565b60405180910390f35b34801561097157600080fd5b5061098c60048036038101906109879190613ae3565b612439565b60405161099991906142c0565b60405180910390f35b3480156109ae57600080fd5b506109b7612459565b6040516109c49190613f5d565b60405180910390f35b3480156109d957600080fd5b506109f460048036038101906109ef9190613648565b61247d565b604051610a0191906142c0565b60405180910390f35b348015610a1657600080fd5b50610a316004803603810190610a2c9190613c0b565b6124bb565b604051610a3e91906142c0565b60405180910390f35b348015610a5357600080fd5b50610a5c6124f8565b604051610a6991906142c0565b60405180910390f35b348015610a7e57600080fd5b50610a996004803603810190610a9491906139f1565b612505565b604051610aa691906142c0565b60405180910390f35b348015610abb57600080fd5b50610ad66004803603810190610ad19190613c0b565b612554565b005b348015610ae457600080fd5b50610aff6004803603810190610afa9190613bcb565b61268c565b604051610b0c91906142c0565b60405180910390f35b348015610b2157600080fd5b50610b3c6004803603810190610b3791906135bf565b6126bd565b604051610b4b939291906140c2565b60405180910390f35b348015610b6057600080fd5b50610b6961276f565b604051610b7691906142c0565b60405180910390f35b348015610b8b57600080fd5b50610ba66004803603810190610ba19190613ae3565b61277c565b604051610bb694939291906142db565b60405180910390f35b348015610bcb57600080fd5b50610be66004803603810190610be1919061390a565b612954565b604051610bf391906142c0565b60405180910390f35b348015610c0857600080fd5b50610c11612af3565b604051610c1e9190613f5d565b60405180910390f35b348015610c3357600080fd5b50610c4e6004803603810190610c499190613c5e565b612b19565b604051610c5b9190613f5d565b60405180910390f35b348015610c7057600080fd5b50610c8b6004803603810190610c869190613ae3565b612b7e565b604051610c989190613f5d565b60405180910390f35b348015610cad57600080fd5b50610cc86004803603810190610cc39190613ae3565b612bbd565b604051610cd79392919061407d565b60405180910390f35b348015610cec57600080fd5b50610d076004803603810190610d029190613ae3565b612d07565b604051610d1592919061404d565b60405180910390f35b348015610d2a57600080fd5b50610d456004803603810190610d409190613bcb565b612dc3565b604051610d5291906142c0565b60405180910390f35b348015610d6757600080fd5b50610d826004803603810190610d7d9190613ae3565b612df4565b604051610d8f9190613f5d565b60405180910390f35b348015610da457600080fd5b50610dbf6004803603810190610dba919061386b565b612e33565b604051610dcc9190613f5d565b60405180910390f35b348015610de157600080fd5b50610dfc6004803603810190610df79190613709565b612ec7565b005b348015610e0a57600080fd5b50610e256004803603810190610e209190613ae3565b6130a1565b604051610e329190613f5d565b60405180910390f35b348015610e4757600080fd5b50610e626004803603810190610e5d9190613ae3565b6130e0565b604051610e6f91906142c0565b60405180910390f35b348015610e8457600080fd5b50610e9f6004803603810190610e9a91906137e0565b613100565b604051610eac9190613f5d565b60405180910390f35b60026020528060005260406000206000915090508060000160009054906101000a900473ffffffffffffffffffffffffffffffffffffffff16905081565b6016848051602081018201805184825260208301602085012081835280955050505050506020528260005260406000206020528160005260406000208181548110610f3d57600080fd5b906000526020600020016000935093505050505481565b6000610f5f826131d6565b610f6c5760009050610fd2565b600260008373ffffffffffffffffffffffffffffffffffffffff1673ffffffffffffffffffffffffffffffffffffffff16815260200190815260200160002060000160009054906101000a900473ffffffffffffffffffffffffffffffffffffffff1690505b919050565b601482805160208101820180518482526020830160208501208183528095505050505050818154811061100957600080fd5b9060005260206000200160009150915050805461102590614470565b80601f016020809104026020016040519081016040528092919081815260200182805461105190614470565b801561109e5780601f106110735761010080835404028352916020019161109e565b820191906000526020600020905b81548152906001019060200180831161108157829003601f168201915b505050505081565b6017602052816000526040600020602052806000526040600020600091509150508060000160009054906101000a900473ffffffffffffffffffffffffffffffffffffffff16905081565b600a818154811061110157600080fd5b906000526020600020016000915054906101000a900473ffffffffffffffffffffffffffffffffffffffff1681565b601c602052826000526040600020602052816000526040600020818154811061115857600080fd5b9060005260206000200160009250925050505481565b60008060009054906101000a900473ffffffffffffffffffffffffffffffffffffffff1673ffffffffffffffffffffffffffffffffffffffff163373ffffffffffffffffffffffffffffffffffffffff16146111ff576040517f08c379a00000000000000000000000000000000000000000000000000000000081526004016111f6906142a0565b60405180910390fd5b6000849050600081511415611249576040517f08c379a000000000000000000000000000000000000000000000000000000000815260040161124090614200565b60405180910390fd5b600d60405180608001604052808881526020018781526020018681526020018581525090806001815401808255809150506001900390600052602060002090600402016000909190919091506000820151816000015560208201518160010190805190602001906112bb929190613482565b5060408201518160020190805190602001906112d8929190613482565b5060608201518160030190805190602001906112f5929190613482565b5050506001600d8054905061130a91906143b2565b915050949350505050565b601e602052826000526040600020602052816000526040600020818154811061133d57600080fd5b9060005260206000209060020201600092509250505080600001805461136290614470565b80601f016020809104026020016040519081016040528092919081815260200182805461138e90614470565b80156113db5780601f106113b0576101008083540402835291602001916113db565b820191906000526020600020905b8154815290600101906020018083116113be57829003601f168201915b5050505050908060010154905082565b6113f43361205e565b15611434576040517f08c379a000000000000000000000000000000000000000000000000000000000815260040161142b90614240565b60405180910390fd5b600073ffffffffffffffffffffffffffffffffffffffff163373ffffffffffffffffffffffffffffffffffffffff1614156114a4576040517f08c379a000000000000000000000000000000000000000000000000000000000815260040161149b90614100565b60405180910390fd5b60405180602001604052803373ffffffffffffffffffffffffffffffffffffffff16815250600260003373ffffffffffffffffffffffffffffffffffffffff1673ffffffffffffffffffffffffffffffffffffffff16815260200190815260200160002060008201518160000160006101000a81548173ffffffffffffffffffffffffffffffffffffffff021916908373ffffffffffffffffffffffffffffffffffffffff160217905550905050600a339080600181540180825580915050600190039060005260206000200160009091909190916101000a81548173ffffffffffffffffffffffffffffffffffffffff021916908373ffffffffffffffffffffffffffffffffffffffff160217905550565b600060156000838152602001908152602001600020805490509050919050565b601d6020528060005260406000206000915090505481565b601a60205281600052604060002081805160208101820180518482526020830160208501208183528095505050505050600091509150508060000154905081565b60608061163c336132ba565b61167b576040517f08c379a000000000000000000000000000000000000000000000000000000000815260040161167290614160565b60405180910390fd5b6000600360003373ffffffffffffffffffffffffffffffffffffffff1673ffffffffffffffffffffffffffffffffffffffff1681526020019081526020016000206040518060400160405290816000820180546116d790614470565b80601f016020809104026020016040519081016040528092919081815260200182805461170390614470565b80156117505780601f1061172557610100808354040283529160200191611750565b820191906000526020600020905b81548152906001019060200180831161173357829003601f168201915b5050505050815260200160018201805461176990614470565b80601f016020809104026020016040519081016040528092919081815260200182805461179590614470565b80156117e25780601f106117b7576101008083540402835291602001916117e2565b820191906000526020600020905b8154815290600101906020018083116117c557829003601f168201915b50505050508152505090508060000151925080602001519150509091565b60138380516020810182018051848252602083016020850120818352809550505050505082805160208101820180518482526020830160208501208183528095505050505050818154811061185457600080fd5b90600052602060002001600092509250509054906101000a900473ffffffffffffffffffffffffffffffffffffffff1681565b611890336132ba565b156118d0576040517f08c379a00000000000000000000000000000000000000000000000000000000081526004016118c790614120565b60405180910390fd5b600082905060008151141561191a576040517f08c379a000000000000000000000000000000000000000000000000000000000815260040161191190614140565b60405180910390fd5b6000604051806040016040528085815260200184815250905080600360003373ffffffffffffffffffffffffffffffffffffffff1673ffffffffffffffffffffffffffffffffffffffff168152602001908152602001600020600082015181600001908051906020019061198f929190613482565b5060208201518160010190805190602001906119ac929190613482565b509050506008339080600181540180825580915050600190039060005260206000200160009091909190916101000a81548173ffffffffffffffffffffffffffffffffffffffff021916908373ffffffffffffffffffffffffffffffffffffffff16021790555050505050565b6004602052806000526040600020600091509050806000018054611a3c90614470565b80601f0160208091040260200160405190810160405280929190818152602001828054611a6890614470565b8015611ab55780601f10611a8a57610100808354040283529160200191611ab5565b820191906000526020600020905b815481529060010190602001808311611a9857829003601f168201915b505050505090806001018054611aca90614470565b80601f0160208091040260200160405190810160405280929190818152602001828054611af690614470565b8015611b435780601f10611b1857610100808354040283529160200191611b43565b820191906000526020600020905b815481529060010190602001808311611b2657829003601f168201915b505050505090806002018054611b5890614470565b80601f0160208091040260200160405190810160405280929190818152602001828054611b8490614470565b8015611bd15780601f10611ba657610100808354040283529160200191611bd1565b820191906000526020600020905b815481529060010190602001808311611bb457829003601f168201915b505050505090806003018054611be690614470565b80601f0160208091040260200160405190810160405280929190818152602001828054611c1290614470565b8015611c5f5780601f10611c3457610100808354040283529160200191611c5f565b820191906000526020600020905b815481529060010190602001808311611c4257829003601f168201915b5050505050905084565b600080601383604051611c7c9190613f46565b908152602001604051809103902084604051611c989190613f46565b90815260200160405180910390208054905090506000811415611cba57600190505b8091505092915050565b6000600f80549050905090565b600f8181548110611ce157600080fd5b9060005260206000209060020201600091509050806000018054611d0490614470565b80601f0160208091040260200160405190810160405280929190818152602001828054611d3090614470565b8015611d7d5780601f10611d5257610100808354040283529160200191611d7d565b820191906000526020600020905b815481529060010190602001808311611d6057829003601f168201915b5050505050908060010154905082565b6003602052806000526040600020600091509050806000018054611db090614470565b80601f0160208091040260200160405190810160405280929190818152602001828054611ddc90614470565b8015611e295780601f10611dfe57610100808354040283529160200191611e29565b820191906000526020600020905b815481529060010190602001808311611e0c57829003601f168201915b505050505090806001018054611e3e90614470565b80601f0160208091040260200160405190810160405280929190818152602001828054611e6a90614470565b8015611eb75780601f10611e8c57610100808354040283529160200191611eb7565b820191906000526020600020905b815481529060010190602001808311611e9a57829003601f168201915b5050505050905082565b611eca336132ba565b611f09576040517f08c379a0000000000000000000000000000000000000000000000000000000008152600401611f0090614120565b60405180910390fd5b60188110611f4c576040517f08c379a0000000000000000000000000000000000000000000000000000000008152600401611f4390614260565b60405180910390fd5b611f553361339e565b15611f95576040517f08c379a0000000000000000000000000000000000000000000000000000000008152600401611f8c90614220565b60405180910390fd5b600060405180602001604052803373ffffffffffffffffffffffffffffffffffffffff16815250905080601960008681526020019081526020016000206000858152602001908152602001600020600084815260200190815260200160002060008201518160000160006101000a81548173ffffffffffffffffffffffffffffffffffffffff021916908373ffffffffffffffffffffffffffffffffffffffff16021790555090505050505050565b6000600c80549050905090565b6000600980549050905090565b600080600260008473ffffffffffffffffffffffffffffffffffffffff1673ffffffffffffffffffffffffffffffffffffffff16815260200190815260200160002060000160009054906101000a900473ffffffffffffffffffffffffffffffffffffffff169050600073ffffffffffffffffffffffffffffffffffffffff168173ffffffffffffffffffffffffffffffffffffffff161415915050919050565b60008060009054906101000a900473ffffffffffffffffffffffffffffffffffffffff1673ffffffffffffffffffffffffffffffffffffffff163373ffffffffffffffffffffffffffffffffffffffff1614612190576040517f08c379a0000000000000000000000000000000000000000000000000000000008152600401612187906142a0565b60405180910390fd5b60008390506000815114156121da576040517f08c379a00000000000000000000000000000000000000000000000000000000081526004016121d190614280565b60405180910390fd5b600f60405180604001604052808681526020018581525090806001815401808255809150506001900390600052602060002090600202016000909190919091506000820151816000019080519060200190612236929190613482565b506020820151816001015550506001600f8054905061225591906143b2565b91505092915050565b60008060009054906101000a900473ffffffffffffffffffffffffffffffffffffffff1673ffffffffffffffffffffffffffffffffffffffff163373ffffffffffffffffffffffffffffffffffffffff16146122ef576040517f08c379a00000000000000000000000000000000000000000000000000000000081526004016122e6906142a0565b60405180910390fd5b6000849050600081511415612339576040517f08c379a000000000000000000000000000000000000000000000000000000000815260040161233090614180565b60405180910390fd5b600c6040518060600160405280878152602001868152602001858152509080600181540180825580915050600190039060005260206000209060030201600090919091909150600082015181600001908051906020019061239b929190613482565b506020820151816001015560408201518160020190805190602001906123c2929190613482565b5050506001600c805490506123d791906143b2565b9150509392505050565b601960205282600052604060002060205281600052604060002060205280600052604060002060009250925050508060000160009054906101000a900473ffffffffffffffffffffffffffffffffffffffff16905081565b6000601b6000838152602001908152602001600020805490509050919050565b60008054906101000a900473ffffffffffffffffffffffffffffffffffffffff1681565b6000806014836040516124909190613f46565b908152602001604051809103902080549050905060008114156124b257600190505b80915050919050565b6020805282600052604060002060205281600052604060002081815481106124e257600080fd5b9060005260206000200160009250925050505481565b6000600880549050905090565b60006016846040516125179190613f46565b9081526020016040518091039020600084815260200190815260200160002060008381526020019081526020016000208054905090509392505050565b61255d336132ba565b1561259d576040517f08c379a000000000000000000000000000000000000000000000000000000000815260040161259490614120565b60405180910390fd5b601881106125e0576040517f08c379a00000000000000000000000000000000000000000000000000000000081526004016125d790614260565b60405180910390fd5b6125e93361339e565b612628576040517f08c379a000000000000000000000000000000000000000000000000000000000815260040161261f906141a0565b60405180910390fd5b6019600084815260200190815260200160002060008381526020019081526020016000206000828152602001908152602001600020600080820160006101000a81549073ffffffffffffffffffffffffffffffffffffffff02191690555050505050565b601b60205281600052604060002081815481106126a857600080fd5b90600052602060002001600091509150505481565b60106020528060005260406000206000915090508060000180546126e090614470565b80601f016020809104026020016040519081016040528092919081815260200182805461270c90614470565b80156127595780601f1061272e57610100808354040283529160200191612759565b820191906000526020600020905b81548152906001019060200180831161273c57829003601f168201915b5050505050908060010154908060020154905083565b6000600d80549050905090565b600d818154811061278c57600080fd5b90600052602060002090600402016000915090508060000154908060010180546127b590614470565b80601f01602080910402602001604051908101604052809291908181526020018280546127e190614470565b801561282e5780601f106128035761010080835404028352916020019161282e565b820191906000526020600020905b81548152906001019060200180831161281157829003601f168201915b50505050509080600201805461284390614470565b80601f016020809104026020016040519081016040528092919081815260200182805461286f90614470565b80156128bc5780601f10612891576101008083540402835291602001916128bc565b820191906000526020600020905b81548152906001019060200180831161289f57829003601f168201915b5050505050908060030180546128d190614470565b80601f01602080910402602001604051908101604052809291908181526020018280546128fd90614470565b801561294a5780601f1061291f5761010080835404028352916020019161294a565b820191906000526020600020905b81548152906001019060200180831161292d57829003601f168201915b5050505050905084565b60008060009054906101000a900473ffffffffffffffffffffffffffffffffffffffff1673ffffffffffffffffffffffffffffffffffffffff163373ffffffffffffffffffffffffffffffffffffffff16146129e5576040517f08c379a00000000000000000000000000000000000000000000000000000000081526004016129dc906142a0565b60405180910390fd5b6000839050600081511415612a2f576040517f08c379a0000000000000000000000000000000000000000000000000000000008152600401612a2690614200565b60405180910390fd5b600e60405180604001604052808681526020018581525090806001815401808255809150506001900390600052602060002090600202016000909190919091506000820151816000019080519060200190612a8b929190613482565b5060208201518160010155505060006001600e80549050612aac91906143b2565b9050601b6000858152602001908152602001600020819080600181540180825580915050600190039060005260206000200160009091909190915055809250505092915050565b600160009054906101000a900473ffffffffffffffffffffffffffffffffffffffff1681565b60186020528360005260406000206020528260005260406000206020528160005260406000206020528060005260406000206000935093505050508060000160009054906101000a900473ffffffffffffffffffffffffffffffffffffffff16905081565b60088181548110612b8e57600080fd5b906000526020600020016000915054906101000a900473ffffffffffffffffffffffffffffffffffffffff1681565b600c8181548110612bcd57600080fd5b9060005260206000209060030201600091509050806000018054612bf090614470565b80601f0160208091040260200160405190810160405280929190818152602001828054612c1c90614470565b8015612c695780601f10612c3e57610100808354040283529160200191612c69565b820191906000526020600020905b815481529060010190602001808311612c4c57829003601f168201915b505050505090806001015490806002018054612c8490614470565b80601f0160208091040260200160405190810160405280929190818152602001828054612cb090614470565b8015612cfd5780601f10612cd257610100808354040283529160200191612cfd565b820191906000526020600020905b815481529060010190602001808311612ce057829003601f168201915b5050505050905083565b600e8181548110612d1757600080fd5b9060005260206000209060020201600091509050806000018054612d3a90614470565b80601f0160208091040260200160405190810160405280929190818152602001828054612d6690614470565b8015612db35780601f10612d8857610100808354040283529160200191612db3565b820191906000526020600020905b815481529060010190602001808311612d9657829003601f168201915b5050505050908060010154905082565b60156020528160005260406000208181548110612ddf57600080fd5b90600052602060002001600091509150505481565b600b8181548110612e0457600080fd5b906000526020600020016000915054906101000a900473ffffffffffffffffffffffffffffffffffffffff1681565b601284805160208101820180518482526020830160208501208183528095505050505050838051602081018201805184825260208301602085012081835280955050505050506020528160005260406000208181548110612e9357600080fd5b9060005260206000200160009350935050509054906101000a900473ffffffffffffffffffffffffffffffffffffffff1681565b612ed0336131d6565b15612f10576040517f08c379a0000000000000000000000000000000000000000000000000000000008152600401612f07906141e0565b60405180910390fd5b6000849050600081511415612f5a576040517f08c379a0000000000000000000000000000000000000000000000000000000008152600401612f5190614140565b60405180910390fd5b6000604051806080016040528087815260200186815260200185815260200184815250905080600460003373ffffffffffffffffffffffffffffffffffffffff1673ffffffffffffffffffffffffffffffffffffffff1681526020019081526020016000206000820151816000019080519060200190612fdb929190613482565b506020820151816001019080519060200190612ff8929190613482565b506040820151816002019080519060200190613015929190613482565b506060820151816003019080519060200190613032929190613482565b509050506009339080600181540180825580915050600190039060005260206000200160009091909190916101000a81548173ffffffffffffffffffffffffffffffffffffffff021916908373ffffffffffffffffffffffffffffffffffffffff160217905550505050505050565b600981815481106130b157600080fd5b906000526020600020016000915054906101000a900473ffffffffffffffffffffffffffffffffffffffff1681565b600060156000838152602001908152602001600020805490509050919050565b6000806013846040516131139190613f46565b90815260200160405180910390208560405161312f9190613f46565b90815260200160405180910390208054905011156131cb5760006013846040516131599190613f46565b9081526020016040518091039020856040516131759190613f46565b9081526020016040518091039020838154811061319557613194614531565b5b9060005260206000200160009054906101000a900473ffffffffffffffffffffffffffffffffffffffff169050809150506131cf565b3390505b9392505050565b600080600460008473ffffffffffffffffffffffffffffffffffffffff1673ffffffffffffffffffffffffffffffffffffffff168152602001908152602001600020600001805461322690614470565b80601f016020809104026020016040519081016040528092919081815260200182805461325290614470565b801561329f5780601f106132745761010080835404028352916020019161329f565b820191906000526020600020905b81548152906001019060200180831161328257829003601f168201915b50505050509050600081905060008151141592505050919050565b600080600360008473ffffffffffffffffffffffffffffffffffffffff1673ffffffffffffffffffffffffffffffffffffffff168152602001908152602001600020600001805461330a90614470565b80601f016020809104026020016040519081016040528092919081815260200182805461333690614470565b80156133835780601f1061335857610100808354040283529160200191613383565b820191906000526020600020905b81548152906001019060200180831161336657829003601f168201915b50505050509050600081905060008151141592505050919050565b600080600760008473ffffffffffffffffffffffffffffffffffffffff1673ffffffffffffffffffffffffffffffffffffffff16815260200190815260200160002060000180546133ee90614470565b80601f016020809104026020016040519081016040528092919081815260200182805461341a90614470565b80156134675780601f1061343c57610100808354040283529160200191613467565b820191906000526020600020905b81548152906001019060200180831161344a57829003601f168201915b50505050509050600081905060008151141592505050919050565b82805461348e90614470565b90600052602060002090601f0160209004810192826134b057600085556134f7565b82601f106134c957805160ff19168380011785556134f7565b828001600101855582156134f7579182015b828111156134f65782518255916020019190600101906134db565b5b5090506135049190613508565b5090565b5b80821115613521576000816000905550600101613509565b5090565b60006135386135338461435a565b614335565b90508281526020810184848401111561355457613553614594565b5b61355f84828561442e565b509392505050565b6000813590506135768161496e565b92915050565b600082601f8301126135915761359061458f565b5b81356135a1848260208601613525565b91505092915050565b6000813590506135b981614985565b92915050565b6000602082840312156135d5576135d461459e565b5b60006135e384828501613567565b91505092915050565b600080604083850312156136035761360261459e565b5b600061361185828601613567565b925050602083013567ffffffffffffffff81111561363257613631614599565b5b61363e8582860161357c565b9150509250929050565b60006020828403121561365e5761365d61459e565b5b600082013567ffffffffffffffff81111561367c5761367b614599565b5b6136888482850161357c565b91505092915050565b600080604083850312156136a8576136a761459e565b5b600083013567ffffffffffffffff8111156136c6576136c5614599565b5b6136d28582860161357c565b925050602083013567ffffffffffffffff8111156136f3576136f2614599565b5b6136ff8582860161357c565b9150509250929050565b600080600080608085870312156137235761372261459e565b5b600085013567ffffffffffffffff81111561374157613740614599565b5b61374d8782880161357c565b945050602085013567ffffffffffffffff81111561376e5761376d614599565b5b61377a8782880161357c565b935050604085013567ffffffffffffffff81111561379b5761379a614599565b5b6137a78782880161357c565b925050606085013567ffffffffffffffff8111156137c8576137c7614599565b5b6137d48782880161357c565b91505092959194509250565b6000806000606084860312156137f9576137f861459e565b5b600084013567ffffffffffffffff81111561381757613816614599565b5b6138238682870161357c565b935050602084013567ffffffffffffffff81111561384457613843614599565b5b6138508682870161357c565b9250506040613861868287016135aa565b9150509250925092565b600080600080608085870312156138855761388461459e565b5b600085013567ffffffffffffffff8111156138a3576138a2614599565b5b6138af8782880161357c565b945050602085013567ffffffffffffffff8111156138d0576138cf614599565b5b6138dc8782880161357c565b93505060406138ed878288016135aa565b92505060606138fe878288016135aa565b91505092959194509250565b600080604083850312156139215761392061459e565b5b600083013567ffffffffffffffff81111561393f5761393e614599565b5b61394b8582860161357c565b925050602061395c858286016135aa565b9150509250929050565b60008060006060848603121561397f5761397e61459e565b5b600084013567ffffffffffffffff81111561399d5761399c614599565b5b6139a98682870161357c565b93505060206139ba868287016135aa565b925050604084013567ffffffffffffffff8111156139db576139da614599565b5b6139e78682870161357c565b9150509250925092565b600080600060608486031215613a0a57613a0961459e565b5b600084013567ffffffffffffffff811115613a2857613a27614599565b5b613a348682870161357c565b9350506020613a45868287016135aa565b9250506040613a56868287016135aa565b9150509250925092565b60008060008060808587031215613a7a57613a7961459e565b5b600085013567ffffffffffffffff811115613a9857613a97614599565b5b613aa48782880161357c565b9450506020613ab5878288016135aa565b9350506040613ac6878288016135aa565b9250506060613ad7878288016135aa565b91505092959194509250565b600060208284031215613af957613af861459e565b5b6000613b07848285016135aa565b91505092915050565b60008060008060808587031215613b2a57613b2961459e565b5b6000613b38878288016135aa565b945050602085013567ffffffffffffffff811115613b5957613b58614599565b5b613b658782880161357c565b935050604085013567ffffffffffffffff811115613b8657613b85614599565b5b613b928782880161357c565b925050606085013567ffffffffffffffff811115613bb357613bb2614599565b5b613bbf8782880161357c565b91505092959194509250565b60008060408385031215613be257613be161459e565b5b6000613bf0858286016135aa565b9250506020613c01858286016135aa565b9150509250929050565b600080600060608486031215613c2457613c2361459e565b5b6000613c32868287016135aa565b9350506020613c43868287016135aa565b9250506040613c54868287016135aa565b9150509250925092565b60008060008060808587031215613c7857613c7761459e565b5b6000613c86878288016135aa565b9450506020613c97878288016135aa565b9350506040613ca8878288016135aa565b9250506060613cb9878288016135aa565b91505092959194509250565b613cce816143e6565b82525050565b613cdd816143f8565b82525050565b6000613cee8261438b565b613cf88185614396565b9350613d0881856020860161443d565b613d11816145a3565b840191505092915050565b6000613d278261438b565b613d3181856143a7565b9350613d4181856020860161443d565b80840191505092915050565b6000613d5a601f83614396565b9150613d65826145b4565b602082019050919050565b6000613d7d602883614396565b9150613d88826145dd565b604082019050919050565b6000613da0601c83614396565b9150613dab8261462c565b602082019050919050565b6000613dc3602583614396565b9150613dce82614655565b604082019050919050565b6000613de6602783614396565b9150613df1826146a4565b604082019050919050565b6000613e09602d83614396565b9150613e14826146f3565b604082019050919050565b6000613e2c602583614396565b9150613e3782614742565b604082019050919050565b6000613e4f602683614396565b9150613e5a82614791565b604082019050919050565b6000613e72602483614396565b9150613e7d826147e0565b604082019050919050565b6000613e95602f83614396565b9150613ea08261482f565b604082019050919050565b6000613eb8602883614396565b9150613ec38261487e565b604082019050919050565b6000613edb600e83614396565b9150613ee6826148cd565b602082019050919050565b6000613efe602a83614396565b9150613f09826148f6565b604082019050919050565b6000613f21601783614396565b9150613f2c82614945565b602082019050919050565b613f4081614424565b82525050565b6000613f528284613d1c565b915081905092915050565b6000602082019050613f726000830184613cc5565b92915050565b6000602082019050613f8d6000830184613cd4565b92915050565b60006020820190508181036000830152613fad8184613ce3565b905092915050565b60006040820190508181036000830152613fcf8185613ce3565b90508181036020830152613fe38184613ce3565b90509392505050565b600060808201905081810360008301526140068187613ce3565b9050818103602083015261401a8186613ce3565b9050818103604083015261402e8185613ce3565b905081810360608301526140428184613ce3565b905095945050505050565b600060408201905081810360008301526140678185613ce3565b90506140766020830184613f37565b9392505050565b600060608201905081810360008301526140978186613ce3565b90506140a66020830185613f37565b81810360408301526140b88184613ce3565b9050949350505050565b600060608201905081810360008301526140dc8186613ce3565b90506140eb6020830185613f37565b6140f86040830184613f37565b949350505050565b6000602082019050818103600083015261411981613d4d565b9050919050565b6000602082019050818103600083015261413981613d70565b9050919050565b6000602082019050818103600083015261415981613d93565b9050919050565b6000602082019050818103600083015261417981613db6565b9050919050565b6000602082019050818103600083015261419981613dd9565b9050919050565b600060208201905081810360008301526141b981613dfc565b9050919050565b600060208201905081810360008301526141d981613e1f565b9050919050565b600060208201905081810360008301526141f981613e42565b9050919050565b6000602082019050818103600083015261421981613e65565b9050919050565b6000602082019050818103600083015261423981613e88565b9050919050565b6000602082019050818103600083015261425981613eab565b9050919050565b6000602082019050818103600083015261427981613ece565b9050919050565b6000602082019050818103600083015261429981613ef1565b9050919050565b600060208201905081810360008301526142b981613f14565b9050919050565b60006020820190506142d56000830184613f37565b92915050565b60006080820190506142f06000830187613f37565b81810360208301526143028186613ce3565b905081810360408301526143168185613ce3565b9050818103606083015261432a8184613ce3565b905095945050505050565b600061433f614350565b905061434b82826144a2565b919050565b6000604051905090565b600067ffffffffffffffff82111561437557614374614560565b5b61437e826145a3565b9050602081019050919050565b600081519050919050565b600082825260208201905092915050565b600081905092915050565b60006143bd82614424565b91506143c883614424565b9250828210156143db576143da6144d3565b5b828203905092915050565b60006143f182614404565b9050919050565b60008115159050919050565b600073ffffffffffffffffffffffffffffffffffffffff82169050919050565b6000819050919050565b82818337600083830152505050565b60005b8381101561445b578082015181840152602081019050614440565b8381111561446a576000848401525b50505050565b6000600282049050600182168061448857607f821691505b6020821081141561449c5761449b614502565b5b50919050565b6144ab826145a3565b810181811067ffffffffffffffff821117156144ca576144c9614560565b5b80604052505050565b7f4e487b7100000000000000000000000000000000000000000000000000000000600052601160045260246000fd5b7f4e487b7100000000000000000000000000000000000000000000000000000000600052602260045260246000fd5b7f4e487b7100000000000000000000000000000000000000000000000000000000600052603260045260246000fd5b7f4e487b7100000000000000000000000000000000000000000000000000000000600052604160045260246000fd5b600080fd5b600080fd5b600080fd5b600080fd5b6000601f19601f8301169050919050565b7f456c2061646472657373206e6f20707565646520657374617220766163696f00600082015250565b7f536f6c6f207065726d697469646f206120616c756d6e6f73206e6f206d61747260008201527f6963756c61646f73000000000000000000000000000000000000000000000000602082015250565b7f456c206e6f6d627265206e6f2070756564652073657220766163696f00000000600082015250565b7f536f6c6f207065726d697469646f206120616c756d6e6f73206d61747269637560008201527f6c61646f73000000000000000000000000000000000000000000000000000000602082015250565b7f456c206e6f6d627265206465206c612061736967206e6f20707565646520736560008201527f7220766163696f00000000000000000000000000000000000000000000000000602082015250565b7f536f6c6f207065726d697469646f2061207475726e6f7320717565202065737460008201527f656e2072657365727661646f7300000000000000000000000000000000000000602082015250565b7f4e6f207365207065726d697465206c6120726563657063696f6e20646520646960008201527f6e65726f2e000000000000000000000000000000000000000000000000000000602082015250565b7f536f6c6f207065726d697469646f20612070726f666573206e6f20726567697360008201527f747261646f730000000000000000000000000000000000000000000000000000602082015250565b7f456c206e6f6d6272652064656c206c6162206e6f20707565646520736572207660008201527f6163696f00000000000000000000000000000000000000000000000000000000602082015250565b7f536f6c6f207065726d697469646f2061207475726e6f7320717565206e6f206560008201527f7374656e2072657365727661646f730000000000000000000000000000000000602082015250565b7f536f6c6f207065726d697469646f206120706572736f6e6173206e6f2072656760008201527f6973747261646f73000000000000000000000000000000000000000000000000602082015250565b7f5475726e6f20696e76616c69646f000000000000000000000000000000000000600082015250565b7f456c206e6f6d627265206465206c61207475726e6f206e6f207075656465206560008201527f7374617220766163696f00000000000000000000000000000000000000000000602082015250565b7f536f6c6f207065726d697469646f20616c206f776e6572000000000000000000600082015250565b614977816143e6565b811461498257600080fd5b50565b61498e81614424565b811461499957600080fd5b5056fea264697066735822122032cca17281db37226c3936110b6c4ade786bb79acf64e8c980c925854837b10364736f6c63430008070033",
  "immutableReferences": {},
  "source": "pragma solidity ^0.8.7;\r\n//pragma experimental ABIEncoderV2;//enabled when passing an array of string(struct) as a function paramete\r\n\r\n\r\n/*\r\n*falta : \r\n*crear lo de las asignaturas con los laborarios y puestos a los que perteneces y las caracteristicas que desepean cada puesto \r\n*crear las reservas , se va a reservar por semana un puesto de un determinado laboratorio \r\n*/\r\n\r\n\r\ncontract ReslabEtsit {\r\n    \r\n   \r\n    /**\r\n     * address del profesor que ha desplegado el contrato.\r\n     * El contrato lo despliega el profesor.\r\n     */\r\n    address public owner;\r\n    address public profesorP;\r\n     \r\n    \r\n    /// Nombre de la asignatura\r\n    //string public nombre;\r\n    \r\n   \r\n    \r\n    /**\r\n     * Datos de un puesto\r\n     */\r\n     \r\n     \r\n     \r\n    enum TipoSO {windows, macos , linux}\r\n    \r\n    enum TipoConexionesRed { cable, inalambrico} // array de strings \r\n\r\n    \r\n    \r\n   \r\n   // enum Horario { turnom ,turnot}//poenr horas y turnos en enum???? array de horas \r\n    \r\n    struct DatosPuesto {\r\n\r\n\r\n    \r\n\tstring nombre;\r\n\t\r\n\tuint indexlab;\r\n\r\n       \r\n    }\r\n    \r\n    \r\n    struct DatosTurno{\r\n        string nombre;\r\n        uint fecha;\r\n      \r\n    }\r\n    \r\n    \r\n   \r\n   \r\n   \r\n    /**\r\n    * datos de todos los labs con sus parametro en la pantalla de inicio\r\n    * DUDA -> QUIERO PONERARRAY DE STRING DE ASIGNATURA!!\r\n    **/\r\n    struct DatosLaboratorio {\r\n        uint laboratorioindex;\r\n        \r\n        string nombreL;\r\n        string asignaura;\r\n        string info;\r\n        \r\n        //string[] asignaturaL;\r\n       \r\n    }\r\n\r\n\r\n\r\n\r\n    \r\n    \r\n    /**\r\n    * datos del alumno que se registra \r\n    **/\r\n   // datos persona \r\n    struct DatosPersona {\r\n\taddress dir;\r\n    }\r\n\r\n    /// Datos de un alumno.\r\n    struct DatosAlumno {\r\n        string nombre;\r\n        string email;\r\n        \r\n    }\r\n    \r\n    /**\r\n     * Datos profe que se registra \r\n     * */\r\n     \r\n    \r\n    struct DatosProfesor{\r\n        string nombreP;\r\n        string emailP;\r\n        string asignaturaP;\r\n        string departamentoP;\r\n    }\r\n    \r\n    \r\n\r\n\r\n\r\n\r\n\r\n    \r\n    struct DatosAsignatura{\r\n        string nombre;\r\n       \r\n        uint indexLab;\r\n        string info;\r\n        \r\n        \r\n    }\r\n    \r\n    \r\n\r\n    struct CreditoSemanal {\r\n        uint creditoSemanal;\r\n    }\r\n    \r\n    \r\n    /**\r\n     * \r\n     si esta reservado por un alumno\r\n     * */\r\n     \r\n     struct DatosReserva{\r\n         address dirAlumno;\r\n      \r\n     }\r\n     \r\n     /**\r\n      * Datos de mireserva //FALTA PUESTO\r\n      * */\r\n      \r\n      struct ReservaAlumno{\r\n          string lab;\r\n          uint fecha;\r\n          uint estado;\r\n          //string puesto;\r\n\r\n      }\r\n      \r\n      // acceder a los datos de una persona dada su direccion\r\n    mapping (address => DatosPersona) public datosPersona;\r\n    \r\n    /// Acceder a los datos de un alumno dada su direccion.\r\n    mapping (address => DatosAlumno) public datosAlumno;\r\n    \r\n      /// Acceder a los datos de un profe dada su direccion.\r\n    mapping (address => DatosProfesor) public datosProfesor;\r\n    \r\n    mapping (address => DatosAsignatura)  datosAsignatura;\r\n    \r\n    \r\n    mapping (address => DatosLaboratorio)  datosLaboratorio;\r\n\r\n    mapping (address => DatosTurno)  datosTurno;\r\n\r\n    //mapping(uint => Laboratorio) public labPuestos; //acceder a los puestos del lab dada la info del lab\r\n  \r\n   // mapping (address => DatosPuesto)  datosPuesto;\r\n    \r\n    // Array con las direcciones de los alumnos matriculados.\r\n    address[] public matriculas;\r\n    \r\n    \r\n    //array con las direcciones de los profes registrados \r\n    address[] public profesRegistrados;\r\n    \r\n        // Array con las direcciones de las personas registradas.\r\n    address[] public registradosP;\r\n\r\n    \r\n    //Array credito semanal \r\n    //address [] public creditosemanal;\r\n    \r\n   //array con las direcciones de las asignaturas registradas \r\n   address[] public asignaturasRegistradasdir;\r\n\r\n    DatosAsignatura[] public asignaturasRegistradas;\r\n    \r\n    \r\n    // labs en la escuela\r\n    DatosLaboratorio[] public laboratoriosRegistrados;\r\n    //reservas de la escuela\r\n\r\n    // puestos en la escuela\r\n    DatosPuesto[] public puestosRegistrados;\r\n    \r\n \r\n\r\n    // array turnos de los puestos\r\n\r\n    DatosTurno[] public turnosRegistrados;\r\n        \r\n   \r\n\r\n     //reserva para un usuario \r\n  \r\n    mapping (address => ReservaAlumno) public reservasAlumno;\r\n    \r\n    \r\n    //turno de la escuela\r\n\r\n    //mapping (string => mapping (string  => uint[] )) public turnos;\r\n    \r\n    // Mapping para evitar duplicados de turnos devuelve un bool\r\n    //dado un puesto y una fecha  y un (turno) te devuelve un booleano \r\n    mapping (uint => mapping  ( uint => mapping ( uint => bool )))  turnos_existentes;\r\n    \r\n    /// Devuelve las direcciones de las personas que han asistido a algun lab en alguna de las fechas y en algun turno.\r\n    mapping (string => mapping (string => mapping (uint => address[] ))) public personas;\r\n   \r\n    /// Devuelve las Direcciones de las personas que han asistido a algun lab y en alguna de las fechas.\r\n    mapping (string => mapping (string => address[] )) public personasTotales;\r\n\r\n    // devuelve los puestos totales qu tienes los labs???????????????como lo hago  lo que quiero es haya los puestos totales que tiene cada laboratorio??????\r\n\r\n    mapping(string => string[]) public puestosTotales;\r\n    \r\n\r\n\r\n\r\n\r\n    //IMPORTANTEEEEEEEEEEEE!\r\n    // devuelve array con los indices de los puestos y la clave es un array de enteros laboratorio \r\n    mapping (uint=> uint[]) public puestos;\r\n\r\n\r\n\r\n    //dado la fecha, entrada turno y el el indice de laboratorio quiero que devuelva un array con el numero de puestos\r\n    mapping (string => mapping (uint => mapping (uint => uint[]))) public puestosBuscados;\r\n\r\n    \r\n    //dado el numero lab, fecha (numero de milisegundos) , dado turno ( todos los turnos que hay en un puesto en un dia), te devuelva la reserva\r\n  //  mapping( uint =>mapping (uint=> mapping (uint=> DatosReserva ))) public puestosReservados;\r\n\r\n\r\n    \r\n    //dado el numero puesto, turno (numero de milisegundos) ,  te devuelva la reserva\r\n   mapping( uint =>mapping (uint=> DatosReserva )) public datosReserva;\r\n\r\n\r\n   //\r\n    //dado el numero lab, de un puesto, fecha (numero de milisegundos) ,  y turno te devuelva la reserva\r\n\r\n     mapping( uint =>mapping (uint=> mapping (uint=> mapping (uint=> DatosReserva )))) public datosReservaPorLabPuestoFechaTurno;\r\n\r\n     //dado el numero lab, de un puesto,  y turno te devuelva la reserva\r\n\r\n     mapping( uint =>mapping (uint=>  mapping (uint=> DatosReserva ))) public datosReservaPorLabPuestoTurno;\r\n\r\n\r\n\r\n     // dado la direcion de un alumno y una asignatura te da el credito semanal perteneciente que le queda\r\n\r\n     mapping(address=>mapping (string=> CreditoSemanal))  public CreditoSemanalPorAlumnoAsignatura;\r\n\r\n\r\n\r\n     \r\n\r\n\r\n\r\n    //te devuelve array de puestos reservados tal lab y tal fecha \r\n    //mapping( uint =>mapping (uint=> DatosPuesto[] )) public puestosReservadosLab;\r\n\r\n    //dado el indice de laboratorio un array de los indices de los puestos que estan en ese laboratorio \r\n    mapping(uint=> uint[]) public puestosDelLaboratorio;\r\n\r\n\r\n    //dado el indice de laboratorio y la fecha te devuelva los indices de los puestos que estan en ese laboratorio \r\n    mapping(uint=> mapping( uint => uint[])) public puestosDelLaboratorioFecha;\r\n\r\n\r\n    //dado el indice de una asignatura te devuelve el indice de un lab \r\n    mapping(uint => uint) public indiceLabPorAsignatura;\r\n\r\n    //dado una fecha y un lab cree una rray de puestos \r\n\r\n    mapping(uint=> mapping( uint => DatosPuesto[])) public arrayPuestosDelLab;\r\n\r\n\r\n    //dado el index de un puesto registrado \r\n    //dada la fecha ( string en formaro YYYYYMMD??????\r\n    // dado la hora del turno (de 0 a 23) \r\n    //devuelve el address del alumnos que ha reservado el turno\r\n    mapping(uint => mapping(uint => mapping (uint=> address))) reservasDelAlumno;\r\n\r\n\r\n       /// Dado el index de un puesto y una fecha te devuelve los turnos de un lab .\r\n    mapping (uint => mapping (uint  => uint[] )) public turnosPorPuesto;\r\n\r\n    \r\n    \r\n    \r\n    \r\n    /*\r\n     * Constructor.\r\n     * \r\n     * @param _nombre Nombre de la asignatura.\r\n     * //habria qu eponer nombre puesto /lab /alumno etc \r\n    \r\n     */\r\n    /*constructor(string memory _nombre) {\r\n        \r\n        bytes memory bn = bytes(_nombre);\r\n        require(bn.length != 0, \"El nombre de la asignatura no puede ser vacio\");\r\n       \r\n       \r\n      \r\n        owner = msg.sender;\r\n        nombre = _nombre;\r\n        \r\n        \r\n     \r\n        \r\n    }*/\r\n    \r\n    constructor()  {\r\n        owner = msg.sender;\r\n    } //?????????????????????????????????\r\n\r\n    \r\n    \r\n    \r\n    \r\n    \r\n/**\r\n     * Te devuelve el numero de puestos registrados\r\n     *\r\n     * @return El numero de puestos creadas.\r\n     */\r\n    /*function puestosLength() public view returns(uint) {\r\n        return puestosReservadosLab.length;\r\n    }\r\n    \r\n*/\r\n\r\n    // te devuelve la longitud de los puestos que hay en un laboratorio \r\n\r\n    function puestosDelLaboratorioLength(uint _indexlab) public view returns(uint) {\r\n        return puestosDelLaboratorio[_indexlab].length;\r\n\r\n\r\n    }\r\n\r\n\r\n\r\n  /**\r\n     * Te devuelve el numero de turnos\r\n     *\r\n     * @return El numero de turnos creadas.\r\n     */\r\n\r\n    function turnosLength() public view returns(uint) {\r\n        return turnosRegistrados.length;\r\n    }\r\n    \r\n\r\n    //devuelve la longitud del array de los puestos de un laboratorio \r\n    function puestosLaboratorioLength(uint _laboratorioindex) public view returns(uint) {\r\n        return puestos[_laboratorioindex].length;\r\n    }\r\n    \r\n    \r\n     /**\r\n     * El numero de labs  registrados\r\n     *\r\n     * @return El numero de labs creadas.\r\n     */\r\n    function laboratoriosLength() public view returns(uint) {\r\n        return laboratoriosRegistrados.length;\r\n    }\r\n    \r\n    \r\n    \r\n\r\n\r\n    /**\r\n     * Permite obtener la longitud del array de personasTotales.\r\n     * \r\n     */\r\n    function personasLength(string memory _nombre, string memory _fecha) public view returns(uint) {\r\n\r\n        uint longitud = personasTotales[_fecha][_nombre].length;\r\n\r\n        if(longitud == 0){\r\n        longitud = 1;\r\n\t    }\r\n\r\n  \t    return longitud;\r\n\r\n    }\r\n\r\n\r\n\r\n      /**\r\n     * Permite obtener la longitud del array de puestosTotale del lab\r\n     * \r\n     */\r\n    function puestosLength2(string memory _nombre) public view returns(uint) {\r\n\r\n        uint longitud2 = puestosTotales[_nombre].length;\r\n\r\n        if(longitud2 == 0){\r\n        longitud2 = 1;\r\n\t    }\r\n\r\n  \t    return longitud2;\r\n\r\n    }\r\n\r\n\r\n\r\n    /**\r\n     * Permite obtener un address del array de personas.\r\n     * \r\n     */\r\n    function dirPersonas(string memory _nombre, string memory _fecha, uint _indice) public view returns(address) {\r\n\r\n        if(personasTotales[_fecha][_nombre].length > 0){\r\n\r\n        address _dirUno = personasTotales[_fecha][_nombre][_indice];\r\n        return _dirUno;\r\n\r\n        }else{\r\n        return msg.sender;\r\n\t    }\t\t\t\r\n\t\r\n    }\r\n    \r\n    /**\r\n     * Obtiene los datos de una persona registrada.\r\n     * \r\n     * @param persona La direccion de una persona.\r\n     * \r\n     * @return los datos de una persona registrada.\r\n     */\r\n    function obtenerDatosPersona(address persona)  public view returns(address) {\r\n\t\r\n        \r\n        if(!estaRegistrado(persona)){\r\n        return address(0);\r\n        } else{\t\r\n        return datosPersona[persona].dir;\r\n\t}\r\n\t\r\n        \r\n        \r\n    } \r\n\r\n\r\n    //puestos que hay en un lab. Coger el array que te da el mapping de puestos y devolver su .length\r\n\r\n    function puestosdeLaboratorio(uint _laboratorioindex) public view returns(uint) {\r\n\r\n        return puestos[_laboratorioindex].length;\r\n    }\r\n    \r\n\r\n\r\n     // puestos que hay en un lab segun la fecha, la entrada \r\n    function BuscaPuestoLab( string  memory _fecha, uint _entradaTurno,uint _laboratorioindex) public view returns(uint) {\r\n\r\n        return puestosBuscados[_fecha][_entradaTurno][_laboratorioindex].length;\r\n    }\r\n\r\n\r\n\r\n\r\n \r\n\r\n\r\n\r\n    /** Un alumno crea una reserva \r\n    */\r\n\r\n    \r\n    \r\n    \r\n\r\n        function guardarReserva(uint  _puestoId, uint  _fecha,  uint _turno)  public {\r\n        \r\n\t\r\n       \r\n            require(estaMatriculado(msg.sender),\"Solo permitido a alumnos no matriculados\");\r\n            require(_turno<24, \"Turno invalido\");\r\n            require(!estaReservado(msg.sender),\"Solo permitido a turnos que no esten reservados\");\r\n\r\n            DatosReserva memory reserva = DatosReserva(msg.sender);\r\n\r\n            datosReservaPorLabPuestoTurno[_puestoId][_fecha][_turno]= reserva;\r\n\r\n\r\n        }\r\n\r\n        \r\n\r\n       \r\n\r\n\r\n\r\n\r\n        \r\n    /** Un alumno quita su reserva - ( solo profe , owner y el propio alumnos \r\n    */\r\n    \r\n\r\n\r\n\r\n       function quitarReserva(uint  _puestoId, uint  _fecha,  uint _turno) public {\r\n        \r\n\t\r\n       \r\n\r\n            require(!estaMatriculado(msg.sender),\"Solo permitido a alumnos no matriculados\");\r\n            require(_turno<24, \"Turno invalido\");\r\n            require(estaReservado(msg.sender),\"Solo permitido a turnos que  esten reservados\");\r\n\r\n            delete datosReservaPorLabPuestoTurno[_puestoId][_fecha][_turno];\r\n\r\n        }\r\n     \r\n  \r\n    \r\n\r\n\r\n\r\n\r\n\r\n\r\n\r\n\r\n\r\n\r\n\r\n\r\n\r\n    \r\n    \r\n\r\n    \r\n    \r\n    \r\n    \r\n        \r\n     //te crea un laboratorio \r\n\r\n    function creaLaboratorio( uint  _laboratorioindex,string memory _nombreL,string memory _asignaura,string memory _Info) soloOwner public returns (uint) {\r\n        \r\n        bytes memory bn = bytes(_nombreL);\r\n        require(bn.length != 0, \"El nombre del lab no puede ser vacio\");\r\n        \r\n        laboratoriosRegistrados.push(DatosLaboratorio(_laboratorioindex,_nombreL,_asignaura,_Info));\r\n        return laboratoriosRegistrados.length - 1;\r\n    }\r\n    \r\n     // te rea una asignatura \r\n\r\n    function creaAsignatura( string memory _nombreAsig, uint _indexLab,string memory _Info)  soloOwner public returns (uint) {\r\n        \r\n        bytes memory bn = bytes(_nombreAsig);\r\n        require(bn.length != 0, \"El nombre de la asig no puede ser vacio\");\r\n        \r\n       asignaturasRegistradas.push(DatosAsignatura(_nombreAsig,_indexLab,_Info));\r\n        return asignaturasRegistradas.length - 1;\r\n    }\r\n    \r\n    \r\n    \r\n    \r\n    //te crea un puesto \r\n\r\n    function creaPuesto(string memory _NombreP,uint  _indexlab) soloOwner public returns (uint) {\r\n        \r\n        bytes memory bn = bytes(_NombreP);\r\n        require(bn.length != 0, \"El nombre del lab no puede ser vacio\");\r\n        \r\n        puestosRegistrados.push(DatosPuesto(_NombreP,_indexlab));\r\n        uint id = puestosRegistrados.length -1;\r\n\r\n        puestosDelLaboratorio[_indexlab].push(id);\r\n\r\n        return id;\r\n    \r\n    }   \r\n\r\n\r\n    //te crea un turno de laboratorio \r\n\r\n    function creaTurno(string memory _nombre, uint _fecha) soloOwner public returns (uint) {\r\n    \r\n    bytes memory bn = bytes(_nombre);\r\n    require(bn.length != 0, \"El nombre de la turno no puede estar vacio\");\r\n    \r\n    turnosRegistrados.push(DatosTurno(_nombre, _fecha));\r\n    return turnosRegistrados.length - 1;\r\n} \r\n    \r\n \r\n     /**\r\n     * El numero de alumnos matriculados.\r\n     *\r\n     * @return El numero de alumnos matriculados.\r\n     */\r\n    function matriculasLength() public view returns(uint) {\r\n        return matriculas.length;\r\n    }\r\n    \r\n    \r\n    \r\n      /**\r\n     * El numero de profes registrados.\r\n     *\r\n     * .\r\n     */\r\n    function profesRegistradosLength() public view returns(uint) {\r\n        return profesRegistrados.length;\r\n    }\r\n    \r\n    \r\n       /**\r\n     * El numero de asignaturas registrados.\r\n     *\r\n     * .\r\n     */\r\n    function asignaturasRegistradasLength() public view returns(uint) {\r\n        return asignaturasRegistradas.length;\r\n    }\r\n    \r\n    \r\n    \r\n    \r\n    \r\n      /**\r\n     * numero de credito semanal \r\n     *\r\n     * @return El numero de credito semanal \r\n     * \r\n     */\r\n     /*function creditosemanalLength() public view returns(uint) {\r\n        return creditosemanal.length;\r\n    }???????????????????????????*/\r\n     \r\n    \r\n    \r\n    \r\n    \r\n    /**\r\n     * Los alumnos pueden automatricularse con el metodo automatricula.\r\n     * \r\n     * Impedir que se pueda meter un nombre vacio.\r\n     *\r\n     * @param _nombre El nombre del alumno. \r\n     * @param _email  El email del alumno.\r\n     */\r\n    function automatricula(string memory _nombre, string memory _email) noMatriculados public {\r\n        //revert(\"siempre falla\");\r\n        bytes memory b = bytes(_nombre);\r\n        require(b.length != 0, \"El nombre no puede ser vacio\");\r\n        \r\n        DatosAlumno memory datos = DatosAlumno(_nombre, _email);\r\n        \r\n        datosAlumno[msg.sender] = datos;\r\n        \r\n        matriculas.push(msg.sender);\r\n        \r\n    }\r\n    \r\n    \r\n    function autoregistroP() noRegistradosP public {\r\n    \r\n        require(msg.sender!=address(0), \"El address no puede estar vacio\");\r\n        \r\n        datosPersona[msg.sender] = DatosPersona(msg.sender);\r\n        \r\n        registradosP.push(msg.sender);\r\n    \r\n    }\r\n    \r\n    \r\n  \r\n    function autoRegistro(string memory _nombreP, string memory _emailP,string memory _asignaturaP,string memory _departamentoP ) noRegistrados public {\r\n        \r\n        bytes memory b = bytes(_nombreP);\r\n        require(b.length != 0, \"El nombre no puede ser vacio\");\r\n        \r\n        DatosProfesor memory datosP = DatosProfesor(_nombreP, _emailP,_asignaturaP,_departamentoP);\r\n        \r\n        datosProfesor[msg.sender] = datosP;\r\n        \r\n       profesRegistrados.push(msg.sender);\r\n        \r\n    }\r\n    \r\n\r\n\r\n\r\n    \r\n    \r\n    \r\n    \r\n    \r\n    \r\n    \r\n    \r\n    \r\n    \r\n    /**\r\n     * Permite a un alumno obtener sus propios datos.\r\n     * \r\n     * @return _nombre El nombre del alumno que invoca el metodo.\r\n     * @return _email  El email del alumno que invoca el metodo.\r\n     */\r\n    function quienSoy() soloMatriculados public view returns (string memory _nombre, string memory _email) {\r\n        DatosAlumno memory datos = datosAlumno[msg.sender];\r\n        _nombre = datos.nombre;\r\n        _email = datos.email;\r\n    }\r\n    \r\n\r\n    /**\r\n     * Permite a un profe obtener sus propios datos.\r\n     * \r\n     * \r\n    \r\n    function quienSoyP() soloRegistrados public view returns (string memory _nombreP, string memory _emailP,string memory _asignaturaP,string memory _departamentoP) {\r\n        DatosProfesor memory datosP = datosProfesor[msg.sender];\r\n        _nombreP = datosP.nombreP;\r\n        _emailP = datosP.emailP;\r\n        _departamentoP = datosP.departamentoP;\r\n        _asignaturaP = datosP.asignaturaP;\r\n    }\r\n    \r\n    \r\n    \r\n    \r\n    \r\n    /**\r\n     * Consulta si una direccion pertenece a un alumno matriculado.\r\n     * \r\n     * @param alumno La direccion de un alumno.\r\n     * \r\n     * @return true si es una alumno matriculado.\r\n     */\r\n    function estaMatriculado(address alumno) private view returns (bool) {\r\n      \r\n        string memory _nombre = datosAlumno[alumno].nombre;\r\n        \r\n        bytes memory b = bytes(_nombre);\r\n        \r\n        return b.length != 0;\r\n    } \r\n\r\n       /**\r\n     * Consulta si un turno pertenece a un alumno matriculado.\r\n     * \r\n     * @param alumno La direccion de un alumno.\r\n     * \r\n     * @return true si es una alumno matriculado.\r\n     */\r\n\r\n\r\n       function estaReservado(address alumno) private view returns (bool) {\r\n      \r\n        string memory _nombre = datosTurno[alumno].nombre;\r\n        \r\n        bytes memory b = bytes(_nombre);\r\n        \r\n        return b.length != 0;\r\n    }\r\n    \r\n\r\n\r\n     /**\r\n     * Consulta si una direccion pertenece a un profe registrado.\r\n     * \r\n     * \r\n     */\r\n    \r\n       function estaRegistrado(address profesor) private view returns (bool) {\r\n      \r\n        string memory _nombreP = datosProfesor[profesor].nombreP;\r\n        \r\n        bytes memory b = bytes(_nombreP);\r\n        \r\n        return b.length != 0;\r\n    }\r\n\r\n\r\n    \r\n    function estaRegistradoP(address persona) public view returns (bool) {\r\n\r\n\taddress _dir = datosPersona[persona].dir;\r\n        return _dir!=address(0);\r\n    } \r\n    \r\n    \r\n\r\n   \r\n\r\n\r\n\r\n\r\n           /**\r\n     * Modificador para que una funcion solo la pueda ejecutar el profesor.\r\n     * \r\n     *\r\n     */\r\n\r\n    modifier soloOwner() {\r\n        \r\n        require(msg.sender == owner, \"Solo permitido al owner\");\r\n        _;\r\n    }\r\n    \r\n    \r\n    /**\r\n     * Modificador para que una funcion solo la pueda ejecutar el profesor.\r\n     * \r\n     *\r\n     */\r\n    modifier soloProfesor() {\r\n        \r\n        require(msg.sender == profesorP, \"Solo permitido al profesor\");\r\n        _;\r\n    }\r\n    \r\n    \r\n    /**\r\n     * Modificador para que una funcion solo la pueda ejecutar un alumno matriculado.\r\n     */\r\n    modifier soloMatriculados() {\r\n        \r\n        require(estaMatriculado(msg.sender), \"Solo permitido a alumnos matriculados\");\r\n        _;\r\n    }\r\n    \r\n    \r\n      modifier soloRegistrados() {\r\n        \r\n        require(estaRegistrado(msg.sender), \"Solo permitido a profes registrados\");\r\n        _;\r\n    }\r\n    \r\n    \r\n \r\n    /**\r\n     * Modificador para que una funcion solo la pueda ejecutar un alumno no matriculado aun.\r\n     */\r\n    modifier noMatriculados() {\r\n        \r\n        require(!estaMatriculado(msg.sender), \"Solo permitido a alumnos no matriculados\");\r\n        _;\r\n    }\r\n    \r\n    \r\n    \r\n      modifier noRegistrados() {\r\n        \r\n        require(!estaRegistrado(msg.sender), \"Solo permitido a profes no registrados\");\r\n        _;\r\n    }\r\n    \r\n        \r\n      modifier noRegistradosP() {\r\n        \r\n        require(!estaRegistradoP(msg.sender), \"Solo permitido a personas no registrados\");\r\n        _;\r\n    }\r\n    \r\n    \r\n       receive() external payable {\r\n        revert(\"No se permite la recepcion de dinero.\");\r\n    }\r\n}",
  "sourcePath": "C:\\Users\\Paula Huertas\\reslabetsit\\contracts\\ReslabEtsit.sol",
  "compiler": {
    "name": "solc",
    "version": "0.8.7+commit.e28d00a7.Emscripten.clang"
  },
  "schemaVersion": "3.4.7",
  "updatedAt": "2022-11-03T08:38:41.187Z",
  "networkType": "ethereum",
  "devdoc": {
    "kind": "dev",
    "methods": {
      "automatricula(string,string)": {
        "params": {
          "_email": "El email del alumno.",
          "_nombre": "El nombre del alumno. "
        }
      },
      "laboratoriosLength()": {
        "returns": {
          "_0": "El numero de labs creadas."
        }
      },
      "matriculasLength()": {
        "returns": {
          "_0": "El numero de alumnos matriculados."
        }
      },
      "obtenerDatosPersona(address)": {
        "params": {
          "persona": "La direccion de una persona. "
        },
        "returns": {
          "_0": "los datos de una persona registrada."
        }
      },
      "puestosDelLaboratorioLength(uint256)": {
        "returns": {
          "_0": "El numero de puestos creadas."
        }
      },
      "quienSoy()": {
        "returns": {
          "_email": " El email del alumno que invoca el metodo.",
          "_nombre": "El nombre del alumno que invoca el metodo."
        }
      },
      "turnosLength()": {
        "returns": {
          "_0": "El numero de turnos creadas."
        }
      }
    },
    "version": 1
  },
  "userdoc": {
    "kind": "user",
    "methods": {
      "asignaturasRegistradasLength()": {
        "notice": "El numero de asignaturas registrados. ."
      },
      "automatricula(string,string)": {
        "notice": "Los alumnos pueden automatricularse con el metodo automatricula.  Impedir que se pueda meter un nombre vacio."
      },
      "datosAlumno(address)": {
        "notice": "Acceder a los datos de un alumno dada su direccion."
      },
      "datosProfesor(address)": {
        "notice": "Acceder a los datos de un profe dada su direccion."
      },
      "dirPersonas(string,string,uint256)": {
        "notice": "Permite obtener un address del array de personas. "
      },
      "guardarReserva(uint256,uint256,uint256)": {
        "notice": "Un alumno crea una reserva "
      },
      "laboratoriosLength()": {
        "notice": "El numero de labs  registrados"
      },
      "matriculasLength()": {
        "notice": "El numero de alumnos matriculados."
      },
      "obtenerDatosPersona(address)": {
        "notice": "Obtiene los datos de una persona registrada. "
      },
      "owner()": {
        "notice": "address del profesor que ha desplegado el contrato. El contrato lo despliega el profesor."
      },
      "personas(string,string,uint256,uint256)": {
        "notice": "Devuelve las direcciones de las personas que han asistido a algun lab en alguna de las fechas y en algun turno."
      },
      "personasLength(string,string)": {
        "notice": "Permite obtener la longitud del array de personasTotales. "
      },
      "personasTotales(string,string,uint256)": {
        "notice": "Devuelve las Direcciones de las personas que han asistido a algun lab y en alguna de las fechas."
      },
      "profesRegistradosLength()": {
        "notice": "El numero de profes registrados. ."
      },
      "puestosDelLaboratorioLength(uint256)": {
        "notice": "Te devuelve el numero de puestos registrados"
      },
      "puestosLength2(string)": {
        "notice": "Permite obtener la longitud del array de puestosTotale del lab "
      },
      "quienSoy()": {
        "notice": "Permite a un alumno obtener sus propios datos. "
      },
      "quitarReserva(uint256,uint256,uint256)": {
        "notice": "Un alumno quita su reserva - ( solo profe , owner y el propio alumnos "
      },
      "turnosLength()": {
        "notice": "Te devuelve el numero de turnos"
      },
      "turnosPorPuesto(uint256,uint256,uint256)": {
        "notice": "Dado el index de un puesto y una fecha te devuelve los turnos de un lab ."
      }
    },
    "version": 1
  }
}