{
  "contractName": "ReslabEtsit",
  "abi": [
    {
      "inputs": [],
      "stateMutability": "nonpayable",
      "type": "constructor"
    },
    {
      "inputs": [
        {
          "internalType": "uint256",
          "name": "",
          "type": "uint256"
        }
      ],
      "name": "creditosemanal",
      "outputs": [
        {
          "internalType": "address",
          "name": "",
          "type": "address"
        }
      ],
      "stateMutability": "view",
      "type": "function",
      "constant": true
    },
    {
      "inputs": [
        {
          "internalType": "address",
          "name": "",
          "type": "address"
        }
      ],
      "name": "datosAlumno",
      "outputs": [
        {
          "internalType": "string",
          "name": "nombre",
          "type": "string"
        },
        {
          "internalType": "string",
          "name": "email",
          "type": "string"
        }
      ],
      "stateMutability": "view",
      "type": "function",
      "constant": true
    },
    {
      "inputs": [
        {
          "internalType": "string",
          "name": "",
          "type": "string"
        },
        {
          "internalType": "string",
          "name": "",
          "type": "string"
        },
        {
          "internalType": "uint256",
          "name": "",
          "type": "uint256"
        },
        {
          "internalType": "address",
          "name": "",
          "type": "address"
        }
      ],
      "name": "datosLab",
      "outputs": [
        {
          "internalType": "address",
          "name": "dir",
          "type": "address"
        },
        {
          "internalType": "string",
          "name": "fecha",
          "type": "string"
        },
        {
          "internalType": "string",
          "name": "entradaTurno",
          "type": "string"
        },
        {
          "internalType": "string",
          "name": "salidaTurno",
          "type": "string"
        },
        {
          "internalType": "string",
          "name": "puesto",
          "type": "string"
        },
        {
          "internalType": "string",
          "name": "estado",
          "type": "string"
        },
        {
          "internalType": "string",
          "name": "asignatura",
          "type": "string"
        },
        {
          "internalType": "string",
          "name": "info",
          "type": "string"
        }
      ],
      "stateMutability": "view",
      "type": "function",
      "constant": true
    },
    {
      "inputs": [
        {
          "internalType": "address",
          "name": "",
          "type": "address"
        }
      ],
      "name": "datosPersona",
      "outputs": [
        {
          "internalType": "address",
          "name": "dir",
          "type": "address"
        }
      ],
      "stateMutability": "view",
      "type": "function",
      "constant": true
    },
    {
      "inputs": [
        {
          "internalType": "address",
          "name": "",
          "type": "address"
        }
      ],
      "name": "datosProfesor",
      "outputs": [
        {
          "internalType": "string",
          "name": "nombreP",
          "type": "string"
        },
        {
          "internalType": "string",
          "name": "emailP",
          "type": "string"
        },
        {
          "internalType": "string",
          "name": "asignaturaP",
          "type": "string"
        },
        {
          "internalType": "string",
          "name": "departamentoP",
          "type": "string"
        }
      ],
      "stateMutability": "view",
      "type": "function",
      "constant": true
    },
    {
      "inputs": [
        {
          "internalType": "uint256",
          "name": "",
          "type": "uint256"
        }
      ],
      "name": "laboratoriosRegistrados",
      "outputs": [
        {
          "internalType": "uint256",
          "name": "labId",
          "type": "uint256"
        },
        {
          "internalType": "string",
          "name": "nombreL",
          "type": "string"
        }
      ],
      "stateMutability": "view",
      "type": "function",
      "constant": true
    },
    {
      "inputs": [
        {
          "internalType": "uint256",
          "name": "",
          "type": "uint256"
        }
      ],
      "name": "matriculas",
      "outputs": [
        {
          "internalType": "address",
          "name": "",
          "type": "address"
        }
      ],
      "stateMutability": "view",
      "type": "function",
      "constant": true
    },
    {
      "inputs": [],
      "name": "owner",
      "outputs": [
        {
          "internalType": "address",
          "name": "",
          "type": "address"
        }
      ],
      "stateMutability": "view",
      "type": "function",
      "constant": true
    },
    {
      "inputs": [
        {
          "internalType": "string",
          "name": "",
          "type": "string"
        },
        {
          "internalType": "string",
          "name": "",
          "type": "string"
        },
        {
          "internalType": "uint256",
          "name": "",
          "type": "uint256"
        },
        {
          "internalType": "uint256",
          "name": "",
          "type": "uint256"
        }
      ],
      "name": "personas",
      "outputs": [
        {
          "internalType": "address",
          "name": "",
          "type": "address"
        }
      ],
      "stateMutability": "view",
      "type": "function",
      "constant": true
    },
    {
      "inputs": [
        {
          "internalType": "string",
          "name": "",
          "type": "string"
        },
        {
          "internalType": "string",
          "name": "",
          "type": "string"
        },
        {
          "internalType": "uint256",
          "name": "",
          "type": "uint256"
        }
      ],
      "name": "personasTotales",
      "outputs": [
        {
          "internalType": "address",
          "name": "",
          "type": "address"
        }
      ],
      "stateMutability": "view",
      "type": "function",
      "constant": true
    },
    {
      "inputs": [
        {
          "internalType": "uint256",
          "name": "",
          "type": "uint256"
        }
      ],
      "name": "profesRegistrados",
      "outputs": [
        {
          "internalType": "address",
          "name": "",
          "type": "address"
        }
      ],
      "stateMutability": "view",
      "type": "function",
      "constant": true
    },
    {
      "inputs": [],
      "name": "profesorP",
      "outputs": [
        {
          "internalType": "address",
          "name": "",
          "type": "address"
        }
      ],
      "stateMutability": "view",
      "type": "function",
      "constant": true
    },
    {
      "inputs": [
        {
          "internalType": "uint256",
          "name": "",
          "type": "uint256"
        }
      ],
      "name": "registradosP",
      "outputs": [
        {
          "internalType": "address",
          "name": "",
          "type": "address"
        }
      ],
      "stateMutability": "view",
      "type": "function",
      "constant": true
    },
    {
      "inputs": [
        {
          "internalType": "address",
          "name": "",
          "type": "address"
        }
      ],
      "name": "reservasAlumno",
      "outputs": [
        {
          "internalType": "string",
          "name": "lab",
          "type": "string"
        },
        {
          "internalType": "string",
          "name": "fecha",
          "type": "string"
        },
        {
          "internalType": "uint256",
          "name": "estado",
          "type": "uint256"
        }
      ],
      "stateMutability": "view",
      "type": "function",
      "constant": true
    },
    {
      "inputs": [
        {
          "internalType": "uint256",
          "name": "",
          "type": "uint256"
        }
      ],
      "name": "reservasLab",
      "outputs": [
        {
          "internalType": "string",
          "name": "lab",
          "type": "string"
        },
        {
          "internalType": "uint256",
          "name": "turno",
          "type": "uint256"
        },
        {
          "internalType": "string",
          "name": "fecha",
          "type": "string"
        }
      ],
      "stateMutability": "view",
      "type": "function",
      "constant": true
    },
    {
      "inputs": [
        {
          "internalType": "string",
          "name": "",
          "type": "string"
        },
        {
          "internalType": "string",
          "name": "",
          "type": "string"
        },
        {
          "internalType": "uint256",
          "name": "",
          "type": "uint256"
        }
      ],
      "name": "turnos",
      "outputs": [
        {
          "internalType": "uint256",
          "name": "",
          "type": "uint256"
        }
      ],
      "stateMutability": "view",
      "type": "function",
      "constant": true
    },
    {
      "inputs": [
        {
          "internalType": "string",
          "name": "",
          "type": "string"
        },
        {
          "internalType": "string",
          "name": "",
          "type": "string"
        },
        {
          "internalType": "uint256",
          "name": "",
          "type": "uint256"
        }
      ],
      "name": "turnos_existentes",
      "outputs": [
        {
          "internalType": "bool",
          "name": "",
          "type": "bool"
        }
      ],
      "stateMutability": "view",
      "type": "function",
      "constant": true
    },
    {
      "inputs": [
        {
          "internalType": "address",
          "name": "",
          "type": "address"
        },
        {
          "internalType": "uint256",
          "name": "",
          "type": "uint256"
        }
      ],
      "name": "ultimosRegistros",
      "outputs": [
        {
          "internalType": "string",
          "name": "lab",
          "type": "string"
        },
        {
          "internalType": "uint256",
          "name": "turno",
          "type": "uint256"
        },
        {
          "internalType": "string",
          "name": "fecha",
          "type": "string"
        }
      ],
      "stateMutability": "view",
      "type": "function",
      "constant": true
    },
    {
      "stateMutability": "payable",
      "type": "receive",
      "payable": true
    },
    {
      "inputs": [],
      "name": "laboratoriosLength",
      "outputs": [
        {
          "internalType": "uint256",
          "name": "",
          "type": "uint256"
        }
      ],
      "stateMutability": "view",
      "type": "function",
      "constant": true
    },
    {
      "inputs": [],
      "name": "reservasLength",
      "outputs": [
        {
          "internalType": "uint256",
          "name": "",
          "type": "uint256"
        }
      ],
      "stateMutability": "view",
      "type": "function",
      "constant": true
    },
    {
      "inputs": [
        {
          "internalType": "address",
          "name": "dir",
          "type": "address"
        }
      ],
      "name": "ultimosRegistrosLength",
      "outputs": [
        {
          "internalType": "uint256",
          "name": "",
          "type": "uint256"
        }
      ],
      "stateMutability": "view",
      "type": "function",
      "constant": true
    },
    {
      "inputs": [
        {
          "internalType": "string",
          "name": "_nombre",
          "type": "string"
        },
        {
          "internalType": "string",
          "name": "_fecha",
          "type": "string"
        }
      ],
      "name": "personasLength",
      "outputs": [
        {
          "internalType": "uint256",
          "name": "",
          "type": "uint256"
        }
      ],
      "stateMutability": "view",
      "type": "function",
      "constant": true
    },
    {
      "inputs": [
        {
          "internalType": "string",
          "name": "_nombre",
          "type": "string"
        },
        {
          "internalType": "string",
          "name": "_fecha",
          "type": "string"
        },
        {
          "internalType": "uint256",
          "name": "_indice",
          "type": "uint256"
        }
      ],
      "name": "dirPersonas",
      "outputs": [
        {
          "internalType": "address",
          "name": "",
          "type": "address"
        }
      ],
      "stateMutability": "view",
      "type": "function",
      "constant": true
    },
    {
      "inputs": [
        {
          "internalType": "address",
          "name": "persona",
          "type": "address"
        }
      ],
      "name": "obtenerDatosPersona",
      "outputs": [
        {
          "internalType": "address",
          "name": "",
          "type": "address"
        }
      ],
      "stateMutability": "view",
      "type": "function",
      "constant": true
    },
    {
      "inputs": [
        {
          "internalType": "address",
          "name": "_dir",
          "type": "address"
        }
      ],
      "name": "reservas",
      "outputs": [
        {
          "components": [
            {
              "internalType": "string",
              "name": "lab",
              "type": "string"
            },
            {
              "internalType": "string",
              "name": "fecha",
              "type": "string"
            },
            {
              "internalType": "uint256",
              "name": "estado",
              "type": "uint256"
            }
          ],
          "internalType": "struct ReslabEtsit.ReservaAlumno",
          "name": "",
          "type": "tuple"
        }
      ],
      "stateMutability": "view",
      "type": "function",
      "constant": true
    },
    {
      "inputs": [],
      "name": "reiniciarReserva",
      "outputs": [],
      "stateMutability": "nonpayable",
      "type": "function"
    },
    {
      "inputs": [
        {
          "internalType": "uint256",
          "name": "x",
          "type": "uint256"
        }
      ],
      "name": "LabPulsado",
      "outputs": [
        {
          "internalType": "string",
          "name": "",
          "type": "string"
        }
      ],
      "stateMutability": "view",
      "type": "function",
      "constant": true
    },
    {
      "inputs": [
        {
          "internalType": "string",
          "name": "_nombre",
          "type": "string"
        },
        {
          "internalType": "string",
          "name": "_entradaTurno",
          "type": "string"
        },
        {
          "internalType": "string",
          "name": "_fecha",
          "type": "string"
        },
        {
          "internalType": "string",
          "name": "_puesto",
          "type": "string"
        },
        {
          "internalType": "uint256",
          "name": "_turno",
          "type": "uint256"
        }
      ],
      "name": "guardarReserva",
      "outputs": [],
      "stateMutability": "nonpayable",
      "type": "function"
    },
    {
      "inputs": [
        {
          "internalType": "string",
          "name": "_nombre",
          "type": "string"
        },
        {
          "internalType": "string",
          "name": "_salidaTurno",
          "type": "string"
        },
        {
          "internalType": "string",
          "name": "_fecha",
          "type": "string"
        },
        {
          "internalType": "uint256",
          "name": "_turno",
          "type": "uint256"
        }
      ],
      "name": "guardarSalida",
      "outputs": [],
      "stateMutability": "nonpayable",
      "type": "function"
    },
    {
      "inputs": [
        {
          "internalType": "uint256",
          "name": "_labId",
          "type": "uint256"
        },
        {
          "internalType": "string",
          "name": "_nombreL",
          "type": "string"
        }
      ],
      "name": "creaLaboratorio",
      "outputs": [
        {
          "internalType": "uint256",
          "name": "",
          "type": "uint256"
        }
      ],
      "stateMutability": "nonpayable",
      "type": "function"
    },
    {
      "inputs": [],
      "name": "matriculasLength",
      "outputs": [
        {
          "internalType": "uint256",
          "name": "",
          "type": "uint256"
        }
      ],
      "stateMutability": "view",
      "type": "function",
      "constant": true
    },
    {
      "inputs": [],
      "name": "profesRegistradosLength",
      "outputs": [
        {
          "internalType": "uint256",
          "name": "",
          "type": "uint256"
        }
      ],
      "stateMutability": "view",
      "type": "function",
      "constant": true
    },
    {
      "inputs": [
        {
          "internalType": "string",
          "name": "_nombre",
          "type": "string"
        },
        {
          "internalType": "string",
          "name": "_email",
          "type": "string"
        }
      ],
      "name": "automatricula",
      "outputs": [],
      "stateMutability": "nonpayable",
      "type": "function"
    },
    {
      "inputs": [],
      "name": "autoregistroP",
      "outputs": [],
      "stateMutability": "nonpayable",
      "type": "function"
    },
    {
      "inputs": [
        {
          "internalType": "string",
          "name": "_nombreP",
          "type": "string"
        },
        {
          "internalType": "string",
          "name": "_emailP",
          "type": "string"
        },
        {
          "internalType": "string",
          "name": "_asignaturaP",
          "type": "string"
        },
        {
          "internalType": "string",
          "name": "_departamentoP",
          "type": "string"
        }
      ],
      "name": "autoRegistro",
      "outputs": [],
      "stateMutability": "nonpayable",
      "type": "function"
    },
    {
      "inputs": [],
      "name": "quienSoy",
      "outputs": [
        {
          "internalType": "string",
          "name": "_nombre",
          "type": "string"
        },
        {
          "internalType": "string",
          "name": "_email",
          "type": "string"
        }
      ],
      "stateMutability": "view",
      "type": "function",
      "constant": true
    },
    {
      "inputs": [],
      "name": "quienSoyP",
      "outputs": [
        {
          "internalType": "string",
          "name": "_nombreP",
          "type": "string"
        },
        {
          "internalType": "string",
          "name": "_emailP",
          "type": "string"
        },
        {
          "internalType": "string",
          "name": "_asignaturaP",
          "type": "string"
        },
        {
          "internalType": "string",
          "name": "_departamentoP",
          "type": "string"
        }
      ],
      "stateMutability": "view",
      "type": "function",
      "constant": true
    },
    {
      "inputs": [
        {
          "internalType": "address",
          "name": "persona",
          "type": "address"
        }
      ],
      "name": "estaRegistradoP",
      "outputs": [
        {
          "internalType": "bool",
          "name": "",
          "type": "bool"
        }
      ],
      "stateMutability": "view",
      "type": "function",
      "constant": true
    }
  ],
  "bytecode": "0x608060405234801561001057600080fd5b50336000806101000a81548173ffffffffffffffffffffffffffffffffffffffff021916908373ffffffffffffffffffffffffffffffffffffffff160217905550614d46806100606000396000f3fe6080604052600436106102295760003560e01c80639376d0ae11610123578063c7918139116100ab578063e8933c6e1161006f578063e8933c6e14610983578063ede343cf146109ac578063ee0e7c4f146109d5578063f874785914610a12578063fc1f72d814610a4f57610269565b8063c791813914610861578063d4cf859d1461089e578063d5a3e75a146108cc578063d64545d814610909578063d66371031461094657610269565b8063b24a6399116100f2578063b24a639914610760578063b4b4a51f14610789578063b5daf62c146107b4578063b79f2176146107f2578063be4a935b1461083657610269565b80639376d0ae1461067c5780639e1d8f4b146106b9578063a724952f146106e4578063b0b127311461072157610269565b806361d4c6ad116101b157806379b51b6a1161017557806379b51b6a1461056d5780637e09be7a146105985780637e4d6c70146105d55780638da5cb5b146106125780638f4739361461063d57610269565b806361d4c6ad1461044a578063641945bf1461047357806366668f3c146104b357806368ef207e146104f05780636bf8aad61461052f57610269565b8063320d0773116101f8578063320d077314610362578063365d92e21461037957806353766883146103b6578063554f27cc146103e25780635fdf483f1461040d57610269565b8063035c9a701461026e57806307025942146102ab5780630c312661146102e8578063223ca7a21461032557610269565b36610269576040517f08c379a000000000000000000000000000000000000000000000000000000000815260040161026090614a7f565b60405180910390fd5b600080fd5b34801561027a57600080fd5b5061029560048036038101906102909190614165565b610a66565b6040516102a29190614b61565b60405180910390f35b3480156102b757600080fd5b506102d260048036038101906102cd9190613c81565b610bc1565b6040516102df9190614776565b60405180910390f35b3480156102f457600080fd5b5061030f600480360381019061030a9190613c81565b610bff565b60405161031c9190614776565b60405180910390f35b34801561033157600080fd5b5061034c6004803603810190610347919061413c565b610c82565b6040516103599190614776565b60405180910390f35b34801561036e57600080fd5b50610377610cc1565b005b34801561038557600080fd5b506103a0600480360381019061039b919061413c565b610e8d565b6040516103ad9190614776565b60405180910390f35b3480156103c257600080fd5b506103cb610ecc565b6040516103d992919061487d565b60405180910390f35b3480156103ee57600080fd5b506103f76110c2565b6040516104049190614b61565b60405180910390f35b34801561041957600080fd5b50610434600480360381019061042f9190613f97565b6110cf565b6040516104419190614776565b60405180910390f35b34801561045657600080fd5b50610471600480360381019061046c9190613ce6565b611156565b005b34801561047f57600080fd5b5061049a60048036038101906104959190613c81565b6112ee565b6040516104aa94939291906148b4565b60405180910390f35b3480156104bf57600080fd5b506104da60048036038101906104d59190613ce6565b61157e565b6040516104e79190614b61565b60405180910390f35b3480156104fc57600080fd5b506105176004803603810190610512919061413c565b6115d9565b6040516105269392919061495a565b60405180910390f35b34801561053b57600080fd5b5061055660048036038101906105519190613c81565b611743565b60405161056492919061487d565b60405180910390f35b34801561057957600080fd5b50610582611897565b60405161058f9190614b61565b60405180910390f35b3480156105a457600080fd5b506105bf60048036038101906105ba9190613c81565b6118a4565b6040516105cc9190614840565b60405180910390f35b3480156105e157600080fd5b506105fc60048036038101906105f79190613c81565b611945565b6040516106099190614b3f565b60405180910390f35b34801561061e57600080fd5b50610627611aec565b6040516106349190614776565b60405180910390f35b34801561064957600080fd5b50610664600480360381019061065f9190613caa565b611b10565b6040516106739392919061495a565b60405180910390f35b34801561068857600080fd5b506106a3600480360381019061069e9190613f97565b611c87565b6040516106b09190614840565b60405180910390f35b3480156106c557600080fd5b506106ce611cef565b6040516106db9190614b61565b60405180910390f35b3480156106f057600080fd5b5061070b60048036038101906107069190613f97565b611cfc565b6040516107189190614b61565b60405180910390f35b34801561072d57600080fd5b5061074860048036038101906107439190613c81565b611d66565b60405161075793929190614915565b60405180910390f35b34801561076c57600080fd5b5061078760048036038101906107829190613e15565b611ec0565b005b34801561079557600080fd5b5061079e612a1f565b6040516107ab9190614b61565b60405180910390f35b3480156107c057600080fd5b506107db60048036038101906107d6919061413c565b612a2c565b6040516107e9929190614b7c565b60405180910390f35b3480156107fe57600080fd5b5061081960048036038101906108149190614016565b612af8565b60405161082d989796959493929190614791565b60405180910390f35b34801561084257600080fd5b5061084b612fdb565b6040516108589190614776565b60405180910390f35b34801561086d57600080fd5b506108886004803603810190610883919061413c565b613001565b6040516108959190614776565b60405180910390f35b3480156108aa57600080fd5b506108b3613040565b6040516108c394939291906148b4565b60405180910390f35b3480156108d857600080fd5b506108f360048036038101906108ee91906140a9565b61338d565b6040516109009190614776565b60405180910390f35b34801561091557600080fd5b50610930600480360381019061092b9190613c81565b613421565b60405161093d9190614b61565b60405180910390f35b34801561095257600080fd5b5061096d6004803603810190610968919061413c565b61346d565b60405161097a919061485b565b60405180910390f35b34801561098f57600080fd5b506109aa60048036038101906109a59190613eec565b61352d565b005b3480156109b857600080fd5b506109d360048036038101906109ce9190613d52565b6135d3565b005b3480156109e157600080fd5b506109fc60048036038101906109f7919061413c565b6137b3565b604051610a099190614776565b60405180910390f35b348015610a1e57600080fd5b50610a396004803603810190610a349190613f97565b6137f2565b604051610a469190614776565b60405180910390f35b348015610a5b57600080fd5b50610a646138c1565b005b60008060009054906101000a900473ffffffffffffffffffffffffffffffffffffffff1673ffffffffffffffffffffffffffffffffffffffff163373ffffffffffffffffffffffffffffffffffffffff1614610af7576040517f08c379a0000000000000000000000000000000000000000000000000000000008152600401610aee90614b1f565b60405180910390fd5b6060829050600081511415610b41576040517f08c379a0000000000000000000000000000000000000000000000000000000008152600401610b3890614abf565b60405180910390fd5b600a6040518060400160405280600a805490508152602001858152509080600181540180825580915050600190039060005260206000209060020201600090919091909150600082015181600001556020820151816001019080519060200190610bac929190613af5565b5050506001600a805490500391505092915050565b60026020528060005260406000206000915090508060000160009054906101000a900473ffffffffffffffffffffffffffffffffffffffff16905081565b6000610c0a8261390b565b610c175760009050610c7d565b600260008373ffffffffffffffffffffffffffffffffffffffff1673ffffffffffffffffffffffffffffffffffffffff16815260200190815260200160002060000160009054906101000a900473ffffffffffffffffffffffffffffffffffffffff1690505b919050565b60088181548110610c9257600080fd5b906000526020600020016000915054906101000a900473ffffffffffffffffffffffffffffffffffffffff1681565b610cca336118a4565b15610d0a576040517f08c379a0000000000000000000000000000000000000000000000000000000008152600401610d0190614adf565b60405180910390fd5b600073ffffffffffffffffffffffffffffffffffffffff163373ffffffffffffffffffffffffffffffffffffffff161415610d7a576040517f08c379a0000000000000000000000000000000000000000000000000000000008152600401610d71906149bf565b60405180910390fd5b60405180602001604052803373ffffffffffffffffffffffffffffffffffffffff16815250600260003373ffffffffffffffffffffffffffffffffffffffff1673ffffffffffffffffffffffffffffffffffffffff16815260200190815260200160002060008201518160000160006101000a81548173ffffffffffffffffffffffffffffffffffffffff021916908373ffffffffffffffffffffffffffffffffffffffff1602179055509050506008339080600181540180825580915050600190039060005260206000200160009091909190916101000a81548173ffffffffffffffffffffffffffffffffffffffff021916908373ffffffffffffffffffffffffffffffffffffffff160217905550565b60098181548110610e9d57600080fd5b906000526020600020016000915054906101000a900473ffffffffffffffffffffffffffffffffffffffff1681565b606080610ed833613a00565b610f17576040517f08c379a0000000000000000000000000000000000000000000000000000000008152600401610f0e90614a3f565b60405180910390fd5b610f1f613b83565b600360003373ffffffffffffffffffffffffffffffffffffffff1673ffffffffffffffffffffffffffffffffffffffff168152602001908152602001600020604051806040016040529081600082018054600181600116156101000203166002900480601f0160208091040260200160405190810160405280929190818152602001828054600181600116156101000203166002900480156110025780601f10610fd757610100808354040283529160200191611002565b820191906000526020600020905b815481529060010190602001808311610fe557829003601f168201915b50505050508152602001600182018054600181600116156101000203166002900480601f0160208091040260200160405190810160405280929190818152602001828054600181600116156101000203166002900480156110a45780601f10611079576101008083540402835291602001916110a4565b820191906000526020600020905b81548152906001019060200180831161108757829003601f168201915b50505050508152505090508060000151925080602001519150509091565b6000600b80549050905090565b60108380516020810182018051848252602083016020850120818352809550505050505082805160208101820180518482526020830160208501208183528095505050505050818154811061112357600080fd5b90600052602060002001600092509250509054906101000a900473ffffffffffffffffffffffffffffffffffffffff1681565b61115f33613a00565b1561119f576040517f08c379a0000000000000000000000000000000000000000000000000000000008152600401611196906149ff565b60405180910390fd5b60608290506000815114156111e9576040517f08c379a00000000000000000000000000000000000000000000000000000000081526004016111e090614a1f565b60405180910390fd5b6111f1613b83565b604051806040016040528085815260200184815250905080600360003373ffffffffffffffffffffffffffffffffffffffff1673ffffffffffffffffffffffffffffffffffffffff1681526020019081526020016000206000820151816000019080519060200190611264929190613af5565b506020820151816001019080519060200190611281929190613af5565b509050506006339080600181540180825580915050600190039060005260206000200160009091909190916101000a81548173ffffffffffffffffffffffffffffffffffffffff021916908373ffffffffffffffffffffffffffffffffffffffff16021790555050505050565b6004602052806000526040600020600091509050806000018054600181600116156101000203166002900480601f01602080910402602001604051908101604052809291908181526020018280546001816001161561010002031660029004801561139a5780601f1061136f5761010080835404028352916020019161139a565b820191906000526020600020905b81548152906001019060200180831161137d57829003601f168201915b505050505090806001018054600181600116156101000203166002900480601f0160208091040260200160405190810160405280929190818152602001828054600181600116156101000203166002900480156114385780601f1061140d57610100808354040283529160200191611438565b820191906000526020600020905b81548152906001019060200180831161141b57829003601f168201915b505050505090806002018054600181600116156101000203166002900480601f0160208091040260200160405190810160405280929190818152602001828054600181600116156101000203166002900480156114d65780601f106114ab576101008083540402835291602001916114d6565b820191906000526020600020905b8154815290600101906020018083116114b957829003601f168201915b505050505090806003018054600181600116156101000203166002900480601f0160208091040260200160405190810160405280929190818152602001828054600181600116156101000203166002900480156115745780601f1061154957610100808354040283529160200191611574565b820191906000526020600020905b81548152906001019060200180831161155757829003601f168201915b5050505050905084565b600080601083604051611591919061475f565b9081526020016040518091039020846040516115ad919061475f565b908152602001604051809103902080549050905060008114156115cf57600190505b8091505092915050565b600b81815481106115e957600080fd5b9060005260206000209060030201600091509050806000018054600181600116156101000203166002900480601f0160208091040260200160405190810160405280929190818152602001828054600181600116156101000203166002900480156116955780601f1061166a57610100808354040283529160200191611695565b820191906000526020600020905b81548152906001019060200180831161167857829003601f168201915b505050505090806001015490806002018054600181600116156101000203166002900480601f0160208091040260200160405190810160405280929190818152602001828054600181600116156101000203166002900480156117395780601f1061170e57610100808354040283529160200191611739565b820191906000526020600020905b81548152906001019060200180831161171c57829003601f168201915b5050505050905083565b6003602052806000526040600020600091509050806000018054600181600116156101000203166002900480601f0160208091040260200160405190810160405280929190818152602001828054600181600116156101000203166002900480156117ef5780601f106117c4576101008083540402835291602001916117ef565b820191906000526020600020905b8154815290600101906020018083116117d257829003601f168201915b505050505090806001018054600181600116156101000203166002900480601f01602080910402602001604051908101604052809291908181526020018280546001816001161561010002031660029004801561188d5780601f106118625761010080835404028352916020019161188d565b820191906000526020600020905b81548152906001019060200180831161187057829003601f168201915b5050505050905082565b6000600780549050905090565b600080600260008473ffffffffffffffffffffffffffffffffffffffff1673ffffffffffffffffffffffffffffffffffffffff16815260200190815260200160002060000160009054906101000a900473ffffffffffffffffffffffffffffffffffffffff169050600073ffffffffffffffffffffffffffffffffffffffff168173ffffffffffffffffffffffffffffffffffffffff161415915050919050565b61194d613b9d565b600c60008373ffffffffffffffffffffffffffffffffffffffff1673ffffffffffffffffffffffffffffffffffffffff168152602001908152602001600020604051806060016040529081600082018054600181600116156101000203166002900480601f016020809104026020016040519081016040528092919081815260200182805460018160011615610100020316600290048015611a305780601f10611a0557610100808354040283529160200191611a30565b820191906000526020600020905b815481529060010190602001808311611a1357829003601f168201915b50505050508152602001600182018054600181600116156101000203166002900480601f016020809104026020016040519081016040528092919081815260200182805460018160011615610100020316600290048015611ad25780601f10611aa757610100808354040283529160200191611ad2565b820191906000526020600020905b815481529060010190602001808311611ab557829003601f168201915b505050505081526020016002820154815250509050919050565b60008054906101000a900473ffffffffffffffffffffffffffffffffffffffff1681565b60126020528160005260406000208181548110611b2c57600080fd5b906000526020600020906003020160009150915050806000018054600181600116156101000203166002900480601f016020809104026020016040519081016040528092919081815260200182805460018160011615610100020316600290048015611bd95780601f10611bae57610100808354040283529160200191611bd9565b820191906000526020600020905b815481529060010190602001808311611bbc57829003601f168201915b505050505090806001015490806002018054600181600116156101000203166002900480601f016020809104026020016040519081016040528092919081815260200182805460018160011615610100020316600290048015611c7d5780601f10611c5257610100808354040283529160200191611c7d565b820191906000526020600020905b815481529060010190602001808311611c6057829003601f168201915b5050505050905083565b600e8380516020810182018051848252602083016020850120818352809550505050505082805160208101820180518482526020830160208501208183528095505050505050602052806000526040600020600092509250509054906101000a900460ff1681565b6000600680549050905090565b600d83805160208101820180518482526020830160208501208183528095505050505050828051602081018201805184825260208301602085012081835280955050505050508181548110611d5057600080fd5b9060005260206000200160009250925050505481565b600c602052806000526040600020600091509050806000018054600181600116156101000203166002900480601f016020809104026020016040519081016040528092919081815260200182805460018160011615610100020316600290048015611e125780601f10611de757610100808354040283529160200191611e12565b820191906000526020600020905b815481529060010190602001808311611df557829003601f168201915b505050505090806001018054600181600116156101000203166002900480601f016020809104026020016040519081016040528092919081815260200182805460018160011615610100020316600290048015611eb05780601f10611e8557610100808354040283529160200191611eb0565b820191906000526020600020905b815481529060010190602001808311611e9357829003601f168201915b5050505050908060020154905083565b6060859050600081511415611f0a576040517f08c379a0000000000000000000000000000000000000000000000000000000008152600401611f0190614a1f565b60405180910390fd5b6060859050600081511415611f54576040517f08c379a0000000000000000000000000000000000000000000000000000000008152600401611f4b906149df565b60405180910390fd5b6060859050600081511415611f9e576040517f08c379a0000000000000000000000000000000000000000000000000000000008152600401611f9590614aff565b60405180910390fd5b6060859050600081511415611fe8576040517f08c379a0000000000000000000000000000000000000000000000000000000008152600401611fdf9061499f565b60405180910390fd5b33601188604051611ff9919061475f565b90815260200160405180910390208a604051612015919061475f565b9081526020016040518091039020600087815260200190815260200160002060003373ffffffffffffffffffffffffffffffffffffffff1673ffffffffffffffffffffffffffffffffffffffff16815260200190815260200160002060000160006101000a81548173ffffffffffffffffffffffffffffffffffffffff021916908373ffffffffffffffffffffffffffffffffffffffff160217905550866011886040516120c3919061475f565b90815260200160405180910390208a6040516120df919061475f565b9081526020016040518091039020600087815260200190815260200160002060003373ffffffffffffffffffffffffffffffffffffffff1673ffffffffffffffffffffffffffffffffffffffff1681526020019081526020016000206001019080519060200190612151929190613af5565b5087601188604051612163919061475f565b90815260200160405180910390208a60405161217f919061475f565b9081526020016040518091039020600087815260200190815260200160002060003373ffffffffffffffffffffffffffffffffffffffff1673ffffffffffffffffffffffffffffffffffffffff16815260200190815260200160002060020190805190602001906121f1929190613af5565b5085601188604051612203919061475f565b90815260200160405180910390208a60405161221f919061475f565b9081526020016040518091039020600087815260200190815260200160002060003373ffffffffffffffffffffffffffffffffffffffff1673ffffffffffffffffffffffffffffffffffffffff1681526020019081526020016000206004019080519060200190612291929190613af5565b506000600c60003373ffffffffffffffffffffffffffffffffffffffff1673ffffffffffffffffffffffffffffffffffffffff1681526020019081526020016000206002015414156123b7576040518060400160405280600781526020017f496e696369616c00000000000000000000000000000000000000000000000000815250601188604051612323919061475f565b90815260200160405180910390208a60405161233f919061475f565b9081526020016040518091039020600087815260200190815260200160002060003373ffffffffffffffffffffffffffffffffffffffff1673ffffffffffffffffffffffffffffffffffffffff16815260200190815260200160002060050190805190602001906123b1929190613af5565b506126d9565b6001600c60003373ffffffffffffffffffffffffffffffffffffffff1673ffffffffffffffffffffffffffffffffffffffff1681526020019081526020016000206002015414156124dc576040518060400160405280600a81526020017f536f73706563686f736f00000000000000000000000000000000000000000000815250601188604051612448919061475f565b90815260200160405180910390208a604051612464919061475f565b9081526020016040518091039020600087815260200190815260200160002060003373ffffffffffffffffffffffffffffffffffffffff1673ffffffffffffffffffffffffffffffffffffffff16815260200190815260200160002060050190805190602001906124d6929190613af5565b506126d8565b6002600c60003373ffffffffffffffffffffffffffffffffffffffff1673ffffffffffffffffffffffffffffffffffffffff168152602001908152602001600020600201541415612601576040518060400160405280600881526020017f506f73697469766f00000000000000000000000000000000000000000000000081525060118860405161256d919061475f565b90815260200160405180910390208a604051612589919061475f565b9081526020016040518091039020600087815260200190815260200160002060003373ffffffffffffffffffffffffffffffffffffffff1673ffffffffffffffffffffffffffffffffffffffff16815260200190815260200160002060050190805190602001906125fb929190613af5565b506126d7565b6040518060400160405280600881526020017f4e6567617469766f000000000000000000000000000000000000000000000000815250601188604051612647919061475f565b90815260200160405180910390208a604051612663919061475f565b9081526020016040518091039020600087815260200190815260200160002060003373ffffffffffffffffffffffffffffffffffffffff1673ffffffffffffffffffffffffffffffffffffffff16815260200190815260200160002060050190805190602001906126d5929190613af5565b505b5b5b600f876040516126e9919061475f565b908152602001604051809103902089604051612705919061475f565b90815260200160405180910390206000868152602001908152602001600020339080600181540180825580915050600190039060005260206000200160009091909190916101000a81548173ffffffffffffffffffffffffffffffffffffffff021916908373ffffffffffffffffffffffffffffffffffffffff160217905550601087604051612795919061475f565b9081526020016040518091039020896040516127b1919061475f565b9081526020016040518091039020339080600181540180825580915050600190039060005260206000200160009091909190916101000a81548173ffffffffffffffffffffffffffffffffffffffff021916908373ffffffffffffffffffffffffffffffffffffffff160217905550601260003373ffffffffffffffffffffffffffffffffffffffff1673ffffffffffffffffffffffffffffffffffffffff16815260200190815260200160002060405180606001604052808b815260200187815260200189815250908060018154018082558091505060019003906000526020600020906003020160009091909190915060008201518160000190805190602001906128bf929190613af5565b506020820151816001015560408201518160020190805190602001906128e6929190613af5565b50505060001515600e886040516128fd919061475f565b90815260200160405180910390208a604051612919919061475f565b9081526020016040518091039020600087815260200190815260200160002060009054906101000a900460ff1615151415612a1457600d8760405161295e919061475f565b90815260200160405180910390208960405161297a919061475f565b90815260200160405180910390208590806001815401808255809150506001900390600052602060002001600090919091909150556001600e886040516129c1919061475f565b90815260200160405180910390208a6040516129dd919061475f565b9081526020016040518091039020600087815260200190815260200160002060006101000a81548160ff0219169083151502179055505b505050505050505050565b6000600a80549050905090565b600a8181548110612a3c57600080fd5b9060005260206000209060020201600091509050806000015490806001018054600181600116156101000203166002900480601f016020809104026020016040519081016040528092919081815260200182805460018160011615610100020316600290048015612aee5780601f10612ac357610100808354040283529160200191612aee565b820191906000526020600020905b815481529060010190602001808311612ad157829003601f168201915b5050505050905082565b601184805160208101820180518482526020830160208501208183528095505050505050838051602081018201805184825260208301602085012081835280955050505050506020528160005260406000206020528060005260406000206000935093505050508060000160009054906101000a900473ffffffffffffffffffffffffffffffffffffffff1690806001018054600181600116156101000203166002900480601f016020809104026020016040519081016040528092919081815260200182805460018160011615610100020316600290048015612c1d5780601f10612bf257610100808354040283529160200191612c1d565b820191906000526020600020905b815481529060010190602001808311612c0057829003601f168201915b505050505090806002018054600181600116156101000203166002900480601f016020809104026020016040519081016040528092919081815260200182805460018160011615610100020316600290048015612cbb5780601f10612c9057610100808354040283529160200191612cbb565b820191906000526020600020905b815481529060010190602001808311612c9e57829003601f168201915b505050505090806003018054600181600116156101000203166002900480601f016020809104026020016040519081016040528092919081815260200182805460018160011615610100020316600290048015612d595780601f10612d2e57610100808354040283529160200191612d59565b820191906000526020600020905b815481529060010190602001808311612d3c57829003601f168201915b505050505090806004018054600181600116156101000203166002900480601f016020809104026020016040519081016040528092919081815260200182805460018160011615610100020316600290048015612df75780601f10612dcc57610100808354040283529160200191612df7565b820191906000526020600020905b815481529060010190602001808311612dda57829003601f168201915b505050505090806005018054600181600116156101000203166002900480601f016020809104026020016040519081016040528092919081815260200182805460018160011615610100020316600290048015612e955780601f10612e6a57610100808354040283529160200191612e95565b820191906000526020600020905b815481529060010190602001808311612e7857829003601f168201915b505050505090806006018054600181600116156101000203166002900480601f016020809104026020016040519081016040528092919081815260200182805460018160011615610100020316600290048015612f335780601f10612f0857610100808354040283529160200191612f33565b820191906000526020600020905b815481529060010190602001808311612f1657829003601f168201915b505050505090806007018054600181600116156101000203166002900480601f016020809104026020016040519081016040528092919081815260200182805460018160011615610100020316600290048015612fd15780601f10612fa657610100808354040283529160200191612fd1565b820191906000526020600020905b815481529060010190602001808311612fb457829003601f168201915b5050505050905088565b600160009054906101000a900473ffffffffffffffffffffffffffffffffffffffff1681565b6006818154811061301157600080fd5b906000526020600020016000915054906101000a900473ffffffffffffffffffffffffffffffffffffffff1681565b60608060608061304f3361390b565b61308e576040517f08c379a000000000000000000000000000000000000000000000000000000000815260040161308590614a5f565b60405180910390fd5b613096613bbe565b600460003373ffffffffffffffffffffffffffffffffffffffff1673ffffffffffffffffffffffffffffffffffffffff168152602001908152602001600020604051806080016040529081600082018054600181600116156101000203166002900480601f0160208091040260200160405190810160405280929190818152602001828054600181600116156101000203166002900480156131795780601f1061314e57610100808354040283529160200191613179565b820191906000526020600020905b81548152906001019060200180831161315c57829003601f168201915b50505050508152602001600182018054600181600116156101000203166002900480601f01602080910402602001604051908101604052809291908181526020018280546001816001161561010002031660029004801561321b5780601f106131f05761010080835404028352916020019161321b565b820191906000526020600020905b8154815290600101906020018083116131fe57829003601f168201915b50505050508152602001600282018054600181600116156101000203166002900480601f0160208091040260200160405190810160405280929190818152602001828054600181600116156101000203166002900480156132bd5780601f10613292576101008083540402835291602001916132bd565b820191906000526020600020905b8154815290600101906020018083116132a057829003601f168201915b50505050508152602001600382018054600181600116156101000203166002900480601f01602080910402602001604051908101604052809291908181526020018280546001816001161561010002031660029004801561335f5780601f106133345761010080835404028352916020019161335f565b820191906000526020600020905b81548152906001019060200180831161334257829003601f168201915b5050505050815250509050806000015194508060200151935080606001519150806040015192505090919293565b600f848051602081018201805184825260208301602085012081835280955050505050508380516020810182018051848252602083016020850120818352809550505050505060205281600052604060002081815481106133ed57600080fd5b9060005260206000200160009350935050509054906101000a900473ffffffffffffffffffffffffffffffffffffffff1681565b6000601260008373ffffffffffffffffffffffffffffffffffffffff1673ffffffffffffffffffffffffffffffffffffffff168152602001908152602001600020805490509050919050565b6060600a828154811061347c57fe5b90600052602060002090600202016001018054600181600116156101000203166002900480601f0160208091040260200160405190810160405280929190818152602001828054600181600116156101000203166002900480156135215780601f106134f657610100808354040283529160200191613521565b820191906000526020600020905b81548152906001019060200180831161350457829003601f168201915b50505050509050919050565b8260118360405161353e919061475f565b90815260200160405180910390208560405161355a919061475f565b9081526020016040518091039020600083815260200190815260200160002060003373ffffffffffffffffffffffffffffffffffffffff1673ffffffffffffffffffffffffffffffffffffffff16815260200190815260200160002060030190805190602001906135cc929190613af5565b5050505050565b6135dc3361390b565b1561361c576040517f08c379a000000000000000000000000000000000000000000000000000000000815260040161361390614a9f565b60405180910390fd5b6060849050600081511415613666576040517f08c379a000000000000000000000000000000000000000000000000000000000815260040161365d90614a1f565b60405180910390fd5b61366e613bbe565b604051806080016040528087815260200186815260200185815260200184815250905080600460003373ffffffffffffffffffffffffffffffffffffffff1673ffffffffffffffffffffffffffffffffffffffff16815260200190815260200160002060008201518160000190805190602001906136ed929190613af5565b50602082015181600101908051906020019061370a929190613af5565b506040820151816002019080519060200190613727929190613af5565b506060820151816003019080519060200190613744929190613af5565b509050506007339080600181540180825580915050600190039060005260206000200160009091909190916101000a81548173ffffffffffffffffffffffffffffffffffffffff021916908373ffffffffffffffffffffffffffffffffffffffff160217905550505050505050565b600781815481106137c357600080fd5b906000526020600020016000915054906101000a900473ffffffffffffffffffffffffffffffffffffffff1681565b600080601084604051613805919061475f565b908152602001604051809103902085604051613821919061475f565b90815260200160405180910390208054905011156138b657600060108460405161384b919061475f565b908152602001604051809103902085604051613867919061475f565b9081526020016040518091039020838154811061388057fe5b9060005260206000200160009054906101000a900473ffffffffffffffffffffffffffffffffffffffff169050809150506138ba565b3390505b9392505050565b6000600c60003373ffffffffffffffffffffffffffffffffffffffff1673ffffffffffffffffffffffffffffffffffffffff16815260200190815260200160002060020181905550565b60006060600460008473ffffffffffffffffffffffffffffffffffffffff1673ffffffffffffffffffffffffffffffffffffffff1681526020019081526020016000206000018054600181600116156101000203166002900480601f0160208091040260200160405190810160405280929190818152602001828054600181600116156101000203166002900480156139e55780601f106139ba576101008083540402835291602001916139e5565b820191906000526020600020905b8154815290600101906020018083116139c857829003601f168201915b50505050509050606081905060008151141592505050919050565b60006060600360008473ffffffffffffffffffffffffffffffffffffffff1673ffffffffffffffffffffffffffffffffffffffff1681526020019081526020016000206000018054600181600116156101000203166002900480601f016020809104026020016040519081016040528092919081815260200182805460018160011615610100020316600290048015613ada5780601f10613aaf57610100808354040283529160200191613ada565b820191906000526020600020905b815481529060010190602001808311613abd57829003601f168201915b50505050509050606081905060008151141592505050919050565b828054600181600116156101000203166002900490600052602060002090601f016020900481019282613b2b5760008555613b72565b82601f10613b4457805160ff1916838001178555613b72565b82800160010185558215613b72579182015b82811115613b71578251825591602001919060010190613b56565b5b509050613b7f9190613be6565b5090565b604051806040016040528060608152602001606081525090565b60405180606001604052806060815260200160608152602001600081525090565b6040518060800160405280606081526020016060815260200160608152602001606081525090565b5b80821115613bff576000816000905550600101613be7565b5090565b600081359050613c1281614ce2565b92915050565b600082601f830112613c2957600080fd5b8135613c3c613c3782614bdd565b614bac565b91508082526020830160208301858383011115613c5857600080fd5b613c63838284614c8d565b50505092915050565b600081359050613c7b81614cf9565b92915050565b600060208284031215613c9357600080fd5b6000613ca184828501613c03565b91505092915050565b60008060408385031215613cbd57600080fd5b6000613ccb85828601613c03565b9250506020613cdc85828601613c6c565b9150509250929050565b60008060408385031215613cf957600080fd5b600083013567ffffffffffffffff811115613d1357600080fd5b613d1f85828601613c18565b925050602083013567ffffffffffffffff811115613d3c57600080fd5b613d4885828601613c18565b9150509250929050565b60008060008060808587031215613d6857600080fd5b600085013567ffffffffffffffff811115613d8257600080fd5b613d8e87828801613c18565b945050602085013567ffffffffffffffff811115613dab57600080fd5b613db787828801613c18565b935050604085013567ffffffffffffffff811115613dd457600080fd5b613de087828801613c18565b925050606085013567ffffffffffffffff811115613dfd57600080fd5b613e0987828801613c18565b91505092959194509250565b600080600080600060a08688031215613e2d57600080fd5b600086013567ffffffffffffffff811115613e4757600080fd5b613e5388828901613c18565b955050602086013567ffffffffffffffff811115613e7057600080fd5b613e7c88828901613c18565b945050604086013567ffffffffffffffff811115613e9957600080fd5b613ea588828901613c18565b935050606086013567ffffffffffffffff811115613ec257600080fd5b613ece88828901613c18565b9250506080613edf88828901613c6c565b9150509295509295909350565b60008060008060808587031215613f0257600080fd5b600085013567ffffffffffffffff811115613f1c57600080fd5b613f2887828801613c18565b945050602085013567ffffffffffffffff811115613f4557600080fd5b613f5187828801613c18565b935050604085013567ffffffffffffffff811115613f6e57600080fd5b613f7a87828801613c18565b9250506060613f8b87828801613c6c565b91505092959194509250565b600080600060608486031215613fac57600080fd5b600084013567ffffffffffffffff811115613fc657600080fd5b613fd286828701613c18565b935050602084013567ffffffffffffffff811115613fef57600080fd5b613ffb86828701613c18565b925050604061400c86828701613c6c565b9150509250925092565b6000806000806080858703121561402c57600080fd5b600085013567ffffffffffffffff81111561404657600080fd5b61405287828801613c18565b945050602085013567ffffffffffffffff81111561406f57600080fd5b61407b87828801613c18565b935050604061408c87828801613c6c565b925050606061409d87828801613c03565b91505092959194509250565b600080600080608085870312156140bf57600080fd5b600085013567ffffffffffffffff8111156140d957600080fd5b6140e587828801613c18565b945050602085013567ffffffffffffffff81111561410257600080fd5b61410e87828801613c18565b935050604061411f87828801613c6c565b925050606061413087828801613c6c565b91505092959194509250565b60006020828403121561414e57600080fd5b600061415c84828501613c6c565b91505092915050565b6000806040838503121561417857600080fd5b600061418685828601613c6c565b925050602083013567ffffffffffffffff8111156141a357600080fd5b6141af85828601613c18565b9150509250929050565b6141c281614c45565b82525050565b6141d181614c57565b82525050565b60006141e282614c0d565b6141ec8185614c18565b93506141fc818560208601614c9c565b61420581614cd1565b840191505092915050565b600061421b82614c0d565b6142258185614c29565b9350614235818560208601614c9c565b61423e81614cd1565b840191505092915050565b600061425482614c0d565b61425e8185614c3a565b935061426e818560208601614c9c565b80840191505092915050565b6000614287601c83614c29565b91507f456c2070756573746f206e6f2070756564652073657220766163696f000000006000830152602082019050919050565b60006142c7601f83614c29565b91507f456c2061646472657373206e6f20707565646520657374617220766163696f006000830152602082019050919050565b6000614307602583614c29565b91507f4c6120686f726120646520656e7472616461206e6f207075656465207365722060008301527f766163696f0000000000000000000000000000000000000000000000000000006020830152604082019050919050565b600061436d602883614c29565b91507f536f6c6f207065726d697469646f206120616c756d6e6f73206e6f206d61747260008301527f6963756c61646f730000000000000000000000000000000000000000000000006020830152604082019050919050565b60006143d3601c83614c29565b91507f456c206e6f6d627265206e6f2070756564652073657220766163696f000000006000830152602082019050919050565b6000614413602583614c29565b91507f536f6c6f207065726d697469646f206120616c756d6e6f73206d61747269637560008301527f6c61646f730000000000000000000000000000000000000000000000000000006020830152604082019050919050565b6000614479602383614c29565b91507f536f6c6f207065726d697469646f20612070726f66657320726567697374726160008301527f646f7300000000000000000000000000000000000000000000000000000000006020830152604082019050919050565b60006144df602583614c29565b91507f4e6f207365207065726d697465206c6120726563657063696f6e20646520646960008301527f6e65726f2e0000000000000000000000000000000000000000000000000000006020830152604082019050919050565b6000614545602683614c29565b91507f536f6c6f207065726d697469646f20612070726f666573206e6f20726567697360008301527f747261646f7300000000000000000000000000000000000000000000000000006020830152604082019050919050565b60006145ab602483614c29565b91507f456c206e6f6d6272652064656c206c6162206e6f20707565646520736572207660008301527f6163696f000000000000000000000000000000000000000000000000000000006020830152604082019050919050565b6000614611602883614c29565b91507f536f6c6f207065726d697469646f206120706572736f6e6173206e6f2072656760008301527f6973747261646f730000000000000000000000000000000000000000000000006020830152604082019050919050565b6000614677601b83614c29565b91507f4c61206665636861206e6f2070756564652073657220766163696f00000000006000830152602082019050919050565b60006146b7601783614c29565b91507f536f6c6f207065726d697469646f20616c206f776e65720000000000000000006000830152602082019050919050565b6000606083016000830151848203600086015261470782826141d7565b9150506020830151848203602086015261472182826141d7565b91505060408301516147366040860182614741565b508091505092915050565b61474a81614c83565b82525050565b61475981614c83565b82525050565b600061476b8284614249565b915081905092915050565b600060208201905061478b60008301846141b9565b92915050565b6000610100820190506147a7600083018b6141b9565b81810360208301526147b9818a614210565b905081810360408301526147cd8189614210565b905081810360608301526147e18188614210565b905081810360808301526147f58187614210565b905081810360a08301526148098186614210565b905081810360c083015261481d8185614210565b905081810360e08301526148318184614210565b90509998505050505050505050565b600060208201905061485560008301846141c8565b92915050565b600060208201905081810360008301526148758184614210565b905092915050565b600060408201905081810360008301526148978185614210565b905081810360208301526148ab8184614210565b90509392505050565b600060808201905081810360008301526148ce8187614210565b905081810360208301526148e28186614210565b905081810360408301526148f68185614210565b9050818103606083015261490a8184614210565b905095945050505050565b6000606082019050818103600083015261492f8186614210565b905081810360208301526149438185614210565b90506149526040830184614750565b949350505050565b600060608201905081810360008301526149748186614210565b90506149836020830185614750565b81810360408301526149958184614210565b9050949350505050565b600060208201905081810360008301526149b88161427a565b9050919050565b600060208201905081810360008301526149d8816142ba565b9050919050565b600060208201905081810360008301526149f8816142fa565b9050919050565b60006020820190508181036000830152614a1881614360565b9050919050565b60006020820190508181036000830152614a38816143c6565b9050919050565b60006020820190508181036000830152614a5881614406565b9050919050565b60006020820190508181036000830152614a788161446c565b9050919050565b60006020820190508181036000830152614a98816144d2565b9050919050565b60006020820190508181036000830152614ab881614538565b9050919050565b60006020820190508181036000830152614ad88161459e565b9050919050565b60006020820190508181036000830152614af881614604565b9050919050565b60006020820190508181036000830152614b188161466a565b9050919050565b60006020820190508181036000830152614b38816146aa565b9050919050565b60006020820190508181036000830152614b5981846146ea565b905092915050565b6000602082019050614b766000830184614750565b92915050565b6000604082019050614b916000830185614750565b8181036020830152614ba38184614210565b90509392505050565b6000604051905081810181811067ffffffffffffffff82111715614bd357614bd2614ccf565b5b8060405250919050565b600067ffffffffffffffff821115614bf857614bf7614ccf565b5b601f19601f8301169050602081019050919050565b600081519050919050565b600082825260208201905092915050565b600082825260208201905092915050565b600081905092915050565b6000614c5082614c63565b9050919050565b60008115159050919050565b600073ffffffffffffffffffffffffffffffffffffffff82169050919050565b6000819050919050565b82818337600083830152505050565b60005b83811015614cba578082015181840152602081019050614c9f565b83811115614cc9576000848401525b50505050565bfe5b6000601f19601f8301169050919050565b614ceb81614c45565b8114614cf657600080fd5b50565b614d0281614c83565b8114614d0d57600080fd5b5056fea26469706673582212205521efc7caef9b4e6f65092e903e17ecdc6ea6af96d22a3ecc9f98cf3d72ba4e64736f6c63430007040033",
  "immutableReferences": {},
  "source": "pragma solidity ^0.7.4;\r\npragma experimental ABIEncoderV2;//enabled when passing an array of string(struct) as a function paramete\r\n\r\n\r\n/*\r\n*falta : \r\n*crear lo de las asignaturas con los laborarios y puestos a los que perteneces y las caracteristicas que desepean cada puesto \r\n*crear las reservas , se va a reservar por semana un puesto de un determinado laboratorio \r\n*/\r\n\r\n\r\ncontract ReslabEtsit {\r\n    \r\n   \r\n    /**\r\n     * address del profesor que ha desplegado el contrato.\r\n     * El contrato lo despliega el profesor.\r\n     */\r\n    address public owner;\r\n    address public profesorP;\r\n     \r\n    \r\n    /// Nombre de la asignatura\r\n    //string public nombre;\r\n    \r\n   \r\n    \r\n    /**\r\n     * Datos de un puesto\r\n     */\r\n     \r\n     \r\n     \r\n    enum TipoSO {windows, macos , linux}\r\n    \r\n    enum TipoConexionesRed { cable, inalambrico} // array de strings \r\n    \r\n   \r\n   // enum Horario { turnom ,turnot}//poenr horas y turnos en enum???? array de horas \r\n    \r\n    struct Puesto {\r\n        string nombre;\r\n        //caracteristicas\r\n        TipoConexionesRed tipoConexionesRed;\r\n        TipoSO tipoSO;\r\n       // Laboratorio laboratorio;\r\n       \r\n    }\r\n    \r\n    \r\n    \r\n    \r\n    \r\n    /// puestos de la asignatura.\r\n   // Puesto[] public puestos;\r\n    \r\n    //labs de la asignatura\r\n    \r\n   // Laboratorio[] public laboratorios;\r\n   \r\n   \r\n    /**\r\n    * datos de todos los labs con sus parametro en la pantalla de inicio\r\n    * DUDA -> QUIERO PONERARRAY DE STRING DE ASIGNATURA!!\r\n    **/\r\n     struct DatosLaboratorio {\r\n        uint labId;\r\n        string nombreL;\r\n        //string[] asignaturaL;\r\n       \r\n    }\r\n    \r\n    /**\r\n    * datos del alumno que se registra \r\n    **/\r\n   // datos persona \r\n    struct DatosPersona {\r\n\taddress dir;\r\n    }\r\n\r\n    /// Datos de un alumno.\r\n    struct DatosAlumno {\r\n        string nombre;\r\n        string email;\r\n        \r\n    }\r\n    \r\n    /**\r\n     * Datos profe que se registra \r\n     * */\r\n     \r\n    \r\n    struct DatosProfesor{\r\n        string nombreP;\r\n        string emailP;\r\n        string asignaturaP;\r\n        string departamentoP;\r\n    }\r\n    \r\n    \r\n    \r\n    /**\r\n     * Datos de lasegunda pantalla donde te aparcene el estado de reserva, puestos etc del lab)\r\n     * */\r\n    struct PinchaLab {\r\n        \r\n\taddress dir;\r\n\t\r\n\tstring fecha;\r\n\tstring entradaTurno;\r\n\tstring salidaTurno;\r\n\tstring puesto;\r\n        \r\n\tstring estado;\r\n\tstring asignatura;\r\n\tstring info; //enumerado del sistema operativo!!!!!!!!!!!\r\n    }\r\n    \r\n   /* struct DatosAsignatura{\r\n        string nombre;\r\n        Laboratorio[] laboratorio;\r\n        Puesto[] puesto;\r\n        //credito semanal\r\n        //Matriculas matriculados;\r\n    }\r\n    */\r\n    \r\n    \r\n    \r\n    /**\r\n     * Datos de los datos de las ultimas reservas registradas // FALTAN PUESTO\r\n     * */\r\n     \r\n     struct UltimaReserva{\r\n         string lab;\r\n         uint turno;\r\n         string fecha;\r\n         \r\n         \r\n     }\r\n     \r\n     /**\r\n      * Datos de mireserva //FALTA PUESTO\r\n      * */\r\n      \r\n      struct ReservaAlumno{\r\n          string lab;\r\n          string fecha;\r\n          uint estado;\r\n          //string puesto;\r\n\r\n      }\r\n      \r\n      // acceder a los datos de una persona dada su direccion\r\n      mapping (address => DatosPersona) public datosPersona;\r\n    \r\n    /// Acceder a los datos de un alumno dada su direccion.\r\n    mapping (address => DatosAlumno) public datosAlumno;\r\n    \r\n      /// Acceder a los datos de un profe dada su direccion.\r\n    mapping (address => DatosProfesor) public datosProfesor;\r\n    \r\n    //mapping (address => DatosAsignatura)  datosAsignatura;\r\n    \r\n    \r\n    mapping (address => DatosLaboratorio)  datosLaboratorio;\r\n\r\n    //mapping(uint => Laboratorio) public labPuestos; //acceder a los puestos del lab dada la info del lab\r\n  \r\n\r\n    \r\n    // Array con las direcciones de los alumnos matriculados.\r\n    address[] public matriculas;\r\n    \r\n    \r\n    //array con las direcciones de los profes registrados \r\n    address[] public profesRegistrados;\r\n    \r\n        // Array con las direcciones de las personas registradas.\r\n    address[] public registradosP;\r\n\r\n    \r\n    //Array credito semanal \r\n    address [] public creditosemanal;\r\n    \r\n    //address[] public asignaturasRegistradas;\r\n    \r\n    \r\n    // labs en la escuela\r\n    DatosLaboratorio[] public laboratoriosRegistrados;\r\n    //reservas de la escuela\r\n    \r\n    UltimaReserva[] public reservasLab;\r\n        \r\n   \r\n\r\n     //reserva para un usuario \r\n  \r\n    mapping (address => ReservaAlumno) public reservasAlumno;\r\n    \r\n    \r\n    //turno de la escuela\r\n\r\n    mapping (string => mapping (string  => uint[] )) public turnos;\r\n    \r\n        /// Mapping para evitar duplicados de turnos.\r\n    mapping (string => mapping (string  => mapping ( uint => bool ))) public turnos_existentes;\r\n    \r\n    /// Direcciones de las personas que han asistido a algun aula en alguna de las fechas y en algun turno.\r\n    mapping (string => mapping (string => mapping (uint => address[] ))) public personas;\r\n   \r\n    /// Direcciones de las personas que han asistido a algun aula en alguna de las fechas.\r\n    mapping (string => mapping (string => address[] )) public personasTotales;\r\n    \r\n    // Dada la fecha actual, el nombre del aula, el turno y la direccin de la persona, devuelve\r\n    // la entrada correspondiente a dicha persona.\r\n    mapping (string => mapping (string => mapping (uint => mapping (address => PinchaLab)))) public datosLab;\r\n\r\n    \r\n    /// Ultimas entradas de cada persona.\r\n    mapping (address => UltimaReserva[] ) public ultimosRegistros;\r\n\r\n  // mapping(uint => bool) public registeredLaboratorios; //saberr si un lab esta registrado\r\n   // mapping(uint => Laboratorio) public labPuestos; //acceder a los puestos del lab dada la info del lab \r\n    // labId -> mes ->semana-> hora -> waitingList[]\r\n /*   mapping(uint => mapping(uint => mapping(uint => mapping(uint => address[])))) public reservations;\r\n    // labId -> mes ->semana-> hora -> waitingListLength\r\n    mapping(uint => mapping(uint => mapping(uint => mapping(uint => uint)))) public reservationLengths;\r\n    // address -> _labID -> mes ->semana-> hora -> bool*/\r\n /*   mapping(address => mapping(uint => mapping(uint => mapping(uint => mapping(uint => bool))))) public isLabReserved;\r\n    event Reservation(\r\n        address indexed _from,\r\n        uint _labID,\r\n        uint _mes,\r\n        uint _semana,\r\n        uint _hora\r\n    );\r\n    event Cancellation(\r\n        address indexed _from,\r\n        uint _labID,\r\n        uint _mes,\r\n        uint _semana,\r\n        uint _hora\r\n    );\r\n    \r\n    \r\n  */\r\n    \r\n    \r\n    \r\n    \r\n    /*\r\n     * Constructor.\r\n     * \r\n     * @param _nombre Nombre de la asignatura.\r\n     * //habria qu eponer nombre puesto /lab /alumno etc \r\n    \r\n     */\r\n    /*constructor(string memory _nombre) {\r\n        \r\n        bytes memory bn = bytes(_nombre);\r\n        require(bn.length != 0, \"El nombre de la asignatura no puede ser vacio\");\r\n       \r\n       \r\n      \r\n        owner = msg.sender;\r\n        nombre = _nombre;\r\n        \r\n        \r\n     \r\n        \r\n    }*/\r\n    \r\n    constructor()  {\r\n        owner = msg.sender;\r\n    } //?????????????????????????????????\r\n\r\n    \r\n    \r\n    \r\n    \r\n    \r\n    /**\r\n     * El numero depuestos creadas.\r\n     *\r\n     * @return El numero de puestos creadas.\r\n     */\r\n   /* function puestosLength() public view returns(uint) {\r\n        return puestos.length;\r\n    }\r\n    \r\n    \r\n    \r\n     /**\r\n     * El numero de labs  creadas.\r\n     *\r\n     * @return El numero de labs creadas.\r\n     */\r\n    function laboratoriosLength() public view returns(uint) {\r\n        return laboratoriosRegistrados.length;\r\n    }\r\n    \r\n    \r\n    \r\n        /**\r\n     * El numero de reservas existentes.\r\n     *\r\n     * @return El numero de alertas existentes.\r\n     */\r\n    function reservasLength() public view returns(uint) {\r\n        return reservasLab.length;\r\n\r\n    }\r\n\r\n\t  /**\r\n     * El numero de ultimosRegistros existentes.\r\n     *\r\n     * @return El numero de ultimosRegistros existentes.\r\n     */\r\n    function ultimosRegistrosLength(address dir) public view returns(uint) {\r\n\treturn ultimosRegistros[dir].length;\r\n    }\r\n        \r\n    /**\r\n     * Permite obtener la longitud del array de personasTotales.\r\n     * \r\n     */\r\n    function personasLength(string memory _nombre, string memory _fecha) public view returns(uint) {\r\n\r\n\tuint longitud = personasTotales[_fecha][_nombre].length;\r\n\r\n\tif(longitud == 0){\r\n\t  longitud = 1;\r\n\t}\r\n\r\n  \treturn longitud;\r\n\r\n    }\r\n\r\n\r\n\r\n    /**\r\n     * Permite obtener un address del array de personas.\r\n     * \r\n     */\r\n    function dirPersonas(string memory _nombre, string memory _fecha, uint _indice) public view returns(address) {\r\n\r\n\tif(personasTotales[_fecha][_nombre].length > 0){\r\n\taddress _dirUno = personasTotales[_fecha][_nombre][_indice];\r\n\treturn _dirUno;\r\n\r\n\t}else{\r\n\treturn msg.sender;\r\n\t}\t\t\t\r\n\t\r\n    }\r\n    \r\n        /**\r\n     * Obtiene los datos de una persona registrada.\r\n     * \r\n     * @param persona La direccion de una persona.\r\n     * \r\n     * @return los datos de una persona registrada.\r\n     */\r\n    function obtenerDatosPersona(address persona)  public view returns(address) {\r\n\t\r\n\t\r\n\tif(!estaRegistrado(persona)){\r\n\treturn address(0);\r\n\t} else{\t\r\n\treturn datosPersona[persona].dir;\r\n\t}\r\n\t\r\n        \r\n        \r\n    } \r\n    \r\n\r\n\r\n        /**\r\n     * La alerta (si la hay) de un alumno.\r\n     *\r\n     */\r\n    function reservas(address _dir) public view returns (ReservaAlumno memory) {\r\n\r\n\treturn reservasAlumno[_dir]; \r\n    }\r\n\r\n\r\n\r\n    /**\r\n     * Eliminar la alerta de un usuario\r\n     *\r\n     */\r\n    function reiniciarReserva() public {\r\n\r\n\treservasAlumno[msg.sender].estado = 0 ;\r\n\r\n\r\n    }\r\n\r\n        /**\r\n     * El aula del que se desea ver el historial.\r\n     *\r\n     */\r\n    function LabPulsado(uint x) public view returns (string memory) {\r\n\r\n\treturn laboratoriosRegistrados[x].nombreL; \r\n    }\r\n\r\n    \r\n    /**\r\n     * Crear un lab. \r\n     *\r\n     * Las labss se meteran en el array labss, y nos referiremos a ellas por su posicion en el array.\r\n     * \r\n     * @param _nombre El nombre del aula.\r\n     * \r\n     * @return La posicion en el array aulas,\r\n     */\r\n    \r\n     /**\r\n     * Las personas pueden registrar su asistencia a un lab con el metodo guardarReserva.\r\n     * \r\n     * Impedir que se pueda meter un nombre vacio.\r\n     *\r\n     *  _nombre El nombre del aula. \r\n     * _ent Hora de entrada al aula.\r\n     *  _fecha Fecha de entrada al aula.\r\n     *  _puesto Puesto en el aula.\r\n     */\r\n    function guardarReserva(string memory _nombre, string memory _entradaTurno, string memory _fecha, string memory _puesto, uint _turno) public {\r\n        \r\n\t\r\n    bytes memory a = bytes(_nombre);\r\n    require(a.length != 0, \"El nombre no puede ser vacio\");\r\n\r\n\tbytes memory b = bytes(_entradaTurno);\r\n\trequire(b.length != 0, \"La hora de entrada no puede ser vacio\");\r\n\r\n\tbytes memory c = bytes(_fecha);\r\n\trequire(c.length != 0, \"La fecha no puede ser vacio\");\r\n\r\n\tbytes memory d = bytes(_puesto);\r\n        require(d.length != 0, \"El puesto no puede ser vacio\");\r\n\r\n\tdatosLab[_fecha][_nombre][_turno][msg.sender].dir = msg.sender;\r\n\tdatosLab[_fecha][_nombre][_turno][msg.sender].fecha = _fecha;\r\n\tdatosLab[_fecha][_nombre][_turno][msg.sender].entradaTurno = _entradaTurno; \r\n\tdatosLab[_fecha][_nombre][_turno][msg.sender].puesto = _puesto;\r\n \t\r\n\tif (reservasAlumno[msg.sender].estado==0) {\r\n   \tdatosLab[_fecha][_nombre][_turno][msg.sender].estado = \"Inicial\";\r\n\t} else if (reservasAlumno[msg.sender].estado==1) {\r\n   \tdatosLab[_fecha][_nombre][_turno][msg.sender].estado = \"Sospechoso\";\r\n\t} else if (reservasAlumno[msg.sender].estado==2) {\r\n   \tdatosLab[_fecha][_nombre][_turno][msg.sender].estado = \"Positivo\";\r\n\t} else {\r\n   \tdatosLab[_fecha][_nombre][_turno][msg.sender].estado = \"Negativo\";\r\n\t}\r\n\r\n        personas[_fecha][_nombre][_turno].push(msg.sender);\r\n\tpersonasTotales[_fecha][_nombre].push(msg.sender);\r\n\tultimosRegistros[msg.sender].push(UltimaReserva(_nombre,_turno,_fecha));\r\n\t\r\n\tif (turnos_existentes[_fecha][_nombre][_turno] == false){\r\n\t   turnos[_fecha][_nombre].push(_turno);\r\n\t   turnos_existentes[_fecha][_nombre][_turno] = true;\r\n\t}\r\n\r\n        \r\n    }\r\n    \r\n\r\n    /**\r\n     * Las personas pueden registrar su salida del aula con el metodo guardarSalida.\r\n     * \r\n     * Impedir que se pueda meter un nombre vacio.\r\n     *\r\n     * _nombre El nombre del aula. \r\n     *  _sal Hora de salida al aula.\r\n     *  _fecha Fecha de entrada al aula.\r\n     */\r\n    function guardarSalida(string memory _nombre, string memory _salidaTurno, string memory _fecha, uint _turno) public {\r\n\r\n\tdatosLab[_fecha][_nombre][_turno][msg.sender].salidaTurno = _salidaTurno;\r\n        \r\n    }\r\n\r\n\r\n\r\n    /**\r\n     * El administrador puede eliminar un aula con el metodo eliminarAula.\r\n     * \r\n     * Impedir que se pueda meter un indice vacio.\r\n     *\r\n     *  _indice El nombre del aula. \r\n     */\r\n    \r\n    \r\n    \r\n    /*\r\n     * Crear un puesto\r\n     *\r\n     * Llos puestos se meteran en el array de puestos y nos refereimos por su posicion en el array\r\n     *  _nombre El nombre de puesto \r\n     \r\n   \r\n     * \r\n     * La posicion en el array lab\r\n     */\r\n     \r\n     \r\n     //poner lo del laboratorio pero me dice lo de use pragma experimental ABIENCODERV2\r\n    //function creaPuesto(string memory _nombre,TipoConexionesRed  _tipoConexionesRed,TipoSO  _TipoSO/*Laboratorio _laboratorio*/) soloProfesor public returns (uint) {\r\n        \r\n     //  bytes memory bn = bytes(_nombre);\r\n       // require(bn.length != 0, \"El nombre de la puesto no puede ser vacio\");\r\n        \r\n        //puestos.push(Puesto(_nombre,_tipoConexionesRed,_TipoSO/*_laboratorio*/));\r\n        //return puestos.length - 1;\r\n  //  }\r\n    \r\n    \r\n    \r\n    \r\n        \r\n     //poner lo del laboratorio pero me dice lo de use pragma experimental ABIENCODERV2\r\n    function creaLaboratorio(uint _labId, string memory _nombreL)  soloOwner public returns (uint) {\r\n        \r\n        bytes memory bn = bytes(_nombreL);\r\n        require(bn.length != 0, \"El nombre del lab no puede ser vacio\");\r\n        \r\n        laboratoriosRegistrados.push(DatosLaboratorio(laboratoriosRegistrados.length,_nombreL));\r\n        return laboratoriosRegistrados.length - 1;\r\n    }\r\n    \r\n    \r\n    \r\n    \r\n    \r\n        \r\n    \r\n \r\n     /**\r\n     * El numero de alumnos matriculados.\r\n     *\r\n     * @return El numero de alumnos matriculados.\r\n     */\r\n    function matriculasLength() public view returns(uint) {\r\n        return matriculas.length;\r\n    }\r\n    \r\n    \r\n    \r\n      /**\r\n     * El numero de profes registrados.\r\n     *\r\n     * .\r\n     */\r\n    function profesRegistradosLength() public view returns(uint) {\r\n        return profesRegistrados.length;\r\n    }\r\n    \r\n    \r\n       /**\r\n     * El numero de asignaturas registrados.\r\n     *\r\n     * .\r\n     */\r\n    /*function asignaturasRegistradasLength() public view returns(uint) {\r\n        return asignaturasRegistradas.length;\r\n    }\r\n    */\r\n    \r\n    \r\n    \r\n    \r\n      /**\r\n     * numero de credito semanal \r\n     *\r\n     * @return El numero de credito semanal \r\n     * \r\n     */\r\n     /*function creditosemanalLength() public view returns(uint) {\r\n        return creditosemanal.length;\r\n    }???????????????????????????*/\r\n     \r\n    \r\n    \r\n    \r\n    \r\n    /**\r\n     * Los alumnos pueden automatricularse con el metodo automatricula.\r\n     * \r\n     * Impedir que se pueda meter un nombre vacio.\r\n     *\r\n     * @param _nombre El nombre del alumno. \r\n     * @param _email  El email del alumno.\r\n     */\r\n    function automatricula(string memory _nombre, string memory _email) noMatriculados public {\r\n        //revert(\"siempre falla\");\r\n        bytes memory b = bytes(_nombre);\r\n        require(b.length != 0, \"El nombre no puede ser vacio\");\r\n        \r\n        DatosAlumno memory datos = DatosAlumno(_nombre, _email);\r\n        \r\n        datosAlumno[msg.sender] = datos;\r\n        \r\n        matriculas.push(msg.sender);\r\n        \r\n    }\r\n    \r\n    \r\n        function autoregistroP() noRegistradosP public {\r\n        \r\n        require(msg.sender!=address(0), \"El address no puede estar vacio\");\r\n        \r\n        datosPersona[msg.sender] = DatosPersona(msg.sender);\r\n        \r\n        registradosP.push(msg.sender);\r\n        \r\n    }\r\n    \r\n    \r\n  \r\n    function autoRegistro(string memory _nombreP, string memory _emailP,string memory _asignaturaP,string memory _departamentoP ) noRegistrados public {\r\n        \r\n        bytes memory b = bytes(_nombreP);\r\n        require(b.length != 0, \"El nombre no puede ser vacio\");\r\n        \r\n        DatosProfesor memory datosP = DatosProfesor(_nombreP, _emailP,_asignaturaP,_departamentoP);\r\n        \r\n        datosProfesor[msg.sender] = datosP;\r\n        \r\n       profesRegistrados.push(msg.sender);\r\n        \r\n    }\r\n    \r\n    \r\n    \r\n    \r\n    \r\n    \r\n    \r\n    \r\n    \r\n    \r\n    \r\n    \r\n    /**\r\n     * Permite a un alumno obtener sus propios datos.\r\n     * \r\n     * @return _nombre El nombre del alumno que invoca el metodo.\r\n     * @return _email  El email del alumno que invoca el metodo.\r\n     */\r\n    function quienSoy() soloMatriculados public view returns (string memory _nombre, string memory _email) {\r\n        DatosAlumno memory datos = datosAlumno[msg.sender];\r\n        _nombre = datos.nombre;\r\n        _email = datos.email;\r\n    }\r\n    \r\n    \r\n      function quienSoyP() soloRegistrados public view returns (string memory _nombreP, string memory _emailP,string memory _asignaturaP,string memory _departamentoP) {\r\n        DatosProfesor memory datosP = datosProfesor[msg.sender];\r\n        _nombreP = datosP.nombreP;\r\n        _emailP = datosP.emailP;\r\n        _departamentoP = datosP.departamentoP;\r\n        _asignaturaP = datosP.asignaturaP;\r\n    }\r\n    \r\n    \r\n    \r\n\r\n    \r\n    \r\n    /**\r\n     * Consulta si una direccion pertenece a un alumno matriculado.\r\n     * \r\n     * @param alumno La direccion de un alumno.\r\n     * \r\n     * @return true si es una alumno matriculado.\r\n     */\r\n    function estaMatriculado(address alumno) private view returns (bool) {\r\n      \r\n        string memory _nombre = datosAlumno[alumno].nombre;\r\n        \r\n        bytes memory b = bytes(_nombre);\r\n        \r\n        return b.length != 0;\r\n    } \r\n    \r\n    \r\n       function estaRegistrado(address profesor) private view returns (bool) {\r\n      \r\n        string memory _nombreP = datosProfesor[profesor].nombreP;\r\n        \r\n        bytes memory b = bytes(_nombreP);\r\n        \r\n        return b.length != 0;\r\n    } \r\n    \r\n    function estaRegistradoP(address persona) public view returns (bool) {\r\n\r\n\taddress _dir = datosPersona[persona].dir;\r\n        return _dir!=address(0);\r\n    } \r\n    \r\n    \r\n    //como hacer para que te devuelva los puestos segun asignatura \r\n    \r\n    /*function getPuestos (string asignatura) soloMatriculados public view returns (\r\n        string nombre, TipoConexionesRed tipoConexionesRed,TipoSO tipoSO)\r\n         \r\n         require (asignatura.length!=0,\"no vacio\");\r\n         \r\n         Puesto memory puesto= tipoConexionesRed[msg.sender][asignatura];\r\n         //meter tb tipoSO\r\n         tipoConexionesRed=Puesto.tipoConexionesRed\r\n         tipoSO=Puesto.tipoSO;\r\n         \r\n    // con laboratorios tb ! */\r\n   \r\n    \r\n   //RESERVASSSSSSSSSSSSSSSSSS\r\n   \r\n   \r\n   \r\n   \r\n   /*function addLab(uint labId, uint maxPuestos) public {\r\n        require(registeredLaboratorios[labId] == false, \"lab has already been registered\");\r\n        require(msg.sender == owner, \"You are not the owner\");\r\n        labPuestos[labId] = Laboratorio({\r\n            labId: labId,\r\n            maxPuestos: maxPuestos\r\n        });\r\n        registeredLaboratorios[labId] = true;\r\n    }\r\n    */\r\n   /* function addReservation(uint   _labID, uint mes,uint semana, uint hora) public {\r\n        require(registeredLaboratorios[_labID] == true, \"lab does not exist\");\r\n        //require(puestoId < labPuestos[labId].maxPuestos, \"Puesto does not exist\");\r\n        require(\r\n            isLabReserved[msg.sender][_labID][mes][semana][hora] == false, \r\n            \"You already have a reservation for this lab at this time\"\r\n        );\r\n        reservations[_labID][mes][semana][hora] .push(msg.sender);\r\n        reservationLengths[_labID][mes][semana][hora]  += 1;\r\n        isLabReserved[msg.sender][_labID][mes][semana][hora] = true;\r\n        emit Reservation(msg.sender, _labID, mes, semana,hora);\r\n    }\r\n    function cancelReservation(uint _labID, uint mes,uint semana, uint hora) public {\r\n        require(registeredLaboratorios[_labID] == true, \"lab does not exist\");\r\n       // require(puestoId < labPuestos[_labID].maxPuestos, \"Puesto does not exist\");\r\n        require(\r\n            isLabReserved[msg.sender][_labID][mes][semana][hora] == true, \r\n            \"You don't have a reservation for this Lab\"\r\n        );\r\n        for (uint i = 0; i < reservations[_labID][mes][semana][hora].length; i++) {\r\n            if (reservations[_labID][mes][semana][hora][i] == msg.sender) {\r\n                delete reservations[_labID][mes][semana][hora][i];\r\n                break;\r\n            }\r\n        }\r\n        reservationLengths[_labID][mes][semana][hora] -= 1;\r\n        isLabReserved[msg.sender][_labID][mes][semana][hora] = false;\r\n        emit Cancellation(msg.sender, _labID, mes, semana,hora);\r\n    } */\r\n\r\n\r\n\r\n\r\n           /**\r\n     * Modificador para que una funcion solo la pueda ejecutar el profesor.\r\n     * \r\n     *\r\n     */\r\n    modifier soloOwner() {\r\n        \r\n        require(msg.sender == owner, \"Solo permitido al owner\");\r\n        _;\r\n    }\r\n    \r\n    \r\n    /**\r\n     * Modificador para que una funcion solo la pueda ejecutar el profesor.\r\n     * \r\n     *\r\n     */\r\n    modifier soloProfesor() {\r\n        \r\n        require(msg.sender == profesorP, \"Solo permitido al profesor\");\r\n        _;\r\n    }\r\n    \r\n    \r\n    /**\r\n     * Modificador para que una funcion solo la pueda ejecutar un alumno matriculado.\r\n     */\r\n    modifier soloMatriculados() {\r\n        \r\n        require(estaMatriculado(msg.sender), \"Solo permitido a alumnos matriculados\");\r\n        _;\r\n    }\r\n    \r\n    \r\n      modifier soloRegistrados() {\r\n        \r\n        require(estaRegistrado(msg.sender), \"Solo permitido a profes registrados\");\r\n        _;\r\n    }\r\n    \r\n    \r\n \r\n    /**\r\n     * Modificador para que una funcion solo la pueda ejecutar un alumno no matriculado aun.\r\n     */\r\n    modifier noMatriculados() {\r\n        \r\n        require(!estaMatriculado(msg.sender), \"Solo permitido a alumnos no matriculados\");\r\n        _;\r\n    }\r\n    \r\n    \r\n    \r\n      modifier noRegistrados() {\r\n        \r\n        require(!estaRegistrado(msg.sender), \"Solo permitido a profes no registrados\");\r\n        _;\r\n    }\r\n    \r\n        \r\n      modifier noRegistradosP() {\r\n        \r\n        require(!estaRegistradoP(msg.sender), \"Solo permitido a personas no registrados\");\r\n        _;\r\n    }\r\n    \r\n    \r\n       receive() external payable {\r\n        revert(\"No se permite la recepcion de dinero.\");\r\n    }\r\n}",
  "sourcePath": "C:/Users/Paula Huertas/reslabetsit/contracts/ReslabEtsit.sol",
  "compiler": {
    "name": "solc",
    "version": "0.7.4+commit.3f05b770.Emscripten.clang"
  },
  "schemaVersion": "3.3.4",
  "updatedAt": "2021-11-22T00:11:51.535Z",
  "networkType": "ethereum",
  "devdoc": {
    "kind": "dev",
    "methods": {
      "automatricula(string,string)": {
        "params": {
          "_email": "El email del alumno.",
          "_nombre": "El nombre del alumno. "
        }
      },
      "laboratoriosLength()": {
        "returns": {
          "_0": "El numero de puestos creadas."
        }
      },
      "matriculasLength()": {
        "returns": {
          "_0": "El numero de alumnos matriculados."
        }
      },
      "obtenerDatosPersona(address)": {
        "params": {
          "persona": "La direccion de una persona. "
        },
        "returns": {
          "_0": "los datos de una persona registrada."
        }
      },
      "quienSoy()": {
        "returns": {
          "_email": " El email del alumno que invoca el metodo.",
          "_nombre": "El nombre del alumno que invoca el metodo."
        }
      },
      "reservasLength()": {
        "returns": {
          "_0": "El numero de alertas existentes."
        }
      },
      "ultimosRegistrosLength(address)": {
        "returns": {
          "_0": "El numero de ultimosRegistros existentes."
        }
      }
    },
    "version": 1
  },
  "userdoc": {
    "kind": "user",
    "methods": {
      "LabPulsado(uint256)": {
        "notice": "El aula del que se desea ver el historial."
      },
      "automatricula(string,string)": {
        "notice": "Los alumnos pueden automatricularse con el metodo automatricula.  Impedir que se pueda meter un nombre vacio."
      },
      "creaLaboratorio(uint256,string)": {
        "notice": "El administrador puede eliminar un aula con el metodo eliminarAula.  Impedir que se pueda meter un indice vacio.  _indice El nombre del aula. "
      },
      "datosAlumno(address)": {
        "notice": "Acceder a los datos de un alumno dada su direccion."
      },
      "datosProfesor(address)": {
        "notice": "Acceder a los datos de un profe dada su direccion."
      },
      "dirPersonas(string,string,uint256)": {
        "notice": "Permite obtener un address del array de personas. "
      },
      "guardarReserva(string,string,string,string,uint256)": {
        "notice": "Las personas pueden registrar su asistencia a un lab con el metodo guardarReserva.  Impedir que se pueda meter un nombre vacio.  _nombre El nombre del aula.  _ent Hora de entrada al aula.  _fecha Fecha de entrada al aula.  _puesto Puesto en el aula."
      },
      "guardarSalida(string,string,string,uint256)": {
        "notice": "Las personas pueden registrar su salida del aula con el metodo guardarSalida.  Impedir que se pueda meter un nombre vacio. _nombre El nombre del aula.   _sal Hora de salida al aula.  _fecha Fecha de entrada al aula."
      },
      "laboratoriosLength()": {
        "notice": "El numero depuestos creadas."
      },
      "matriculasLength()": {
        "notice": "El numero de alumnos matriculados."
      },
      "obtenerDatosPersona(address)": {
        "notice": "Obtiene los datos de una persona registrada. "
      },
      "owner()": {
        "notice": "address del profesor que ha desplegado el contrato. El contrato lo despliega el profesor."
      },
      "personas(string,string,uint256,uint256)": {
        "notice": "Direcciones de las personas que han asistido a algun aula en alguna de las fechas y en algun turno."
      },
      "personasLength(string,string)": {
        "notice": "Permite obtener la longitud del array de personasTotales. "
      },
      "personasTotales(string,string,uint256)": {
        "notice": "Direcciones de las personas que han asistido a algun aula en alguna de las fechas."
      },
      "profesRegistradosLength()": {
        "notice": "El numero de profes registrados. ."
      },
      "quienSoy()": {
        "notice": "Permite a un alumno obtener sus propios datos. "
      },
      "reiniciarReserva()": {
        "notice": "Eliminar la alerta de un usuario"
      },
      "reservas(address)": {
        "notice": "La alerta (si la hay) de un alumno."
      },
      "reservasLength()": {
        "notice": "El numero de reservas existentes."
      },
      "turnos_existentes(string,string,uint256)": {
        "notice": "Mapping para evitar duplicados de turnos."
      },
      "ultimosRegistros(address,uint256)": {
        "notice": "Ultimas entradas de cada persona."
      },
      "ultimosRegistrosLength(address)": {
        "notice": "El numero de ultimosRegistros existentes."
      }
    },
    "version": 1
  }
}