{
  "contractName": "ReslabEtsit",
  "abi": [
    {
      "inputs": [],
      "stateMutability": "nonpayable",
      "type": "constructor"
    },
    {
      "inputs": [
        {
          "internalType": "uint256",
          "name": "",
          "type": "uint256"
        },
        {
          "internalType": "uint256",
          "name": "",
          "type": "uint256"
        },
        {
          "internalType": "uint256",
          "name": "",
          "type": "uint256"
        }
      ],
      "name": "arrayPuestosDelLab",
      "outputs": [
        {
          "internalType": "string",
          "name": "nombre",
          "type": "string"
        },
        {
          "internalType": "uint256",
          "name": "indexlab",
          "type": "uint256"
        }
      ],
      "stateMutability": "view",
      "type": "function",
      "constant": true
    },
    {
      "inputs": [
        {
          "internalType": "uint256",
          "name": "",
          "type": "uint256"
        }
      ],
      "name": "asignaturasRegistradas",
      "outputs": [
        {
          "internalType": "string",
          "name": "nombre",
          "type": "string"
        },
        {
          "internalType": "uint256",
          "name": "indexLab",
          "type": "uint256"
        },
        {
          "internalType": "string",
          "name": "info",
          "type": "string"
        }
      ],
      "stateMutability": "view",
      "type": "function",
      "constant": true
    },
    {
      "inputs": [
        {
          "internalType": "uint256",
          "name": "",
          "type": "uint256"
        }
      ],
      "name": "asignaturasRegistradasdir",
      "outputs": [
        {
          "internalType": "address",
          "name": "",
          "type": "address"
        }
      ],
      "stateMutability": "view",
      "type": "function",
      "constant": true
    },
    {
      "inputs": [
        {
          "internalType": "address",
          "name": "",
          "type": "address"
        },
        {
          "internalType": "string",
          "name": "",
          "type": "string"
        },
        {
          "internalType": "uint256",
          "name": "",
          "type": "uint256"
        }
      ],
      "name": "contadorCredito",
      "outputs": [
        {
          "internalType": "uint256",
          "name": "",
          "type": "uint256"
        }
      ],
      "stateMutability": "view",
      "type": "function",
      "constant": true
    },
    {
      "inputs": [
        {
          "internalType": "address",
          "name": "",
          "type": "address"
        }
      ],
      "name": "datosAlumno",
      "outputs": [
        {
          "internalType": "string",
          "name": "nombre",
          "type": "string"
        },
        {
          "internalType": "string",
          "name": "email",
          "type": "string"
        }
      ],
      "stateMutability": "view",
      "type": "function",
      "constant": true
    },
    {
      "inputs": [
        {
          "internalType": "address",
          "name": "",
          "type": "address"
        }
      ],
      "name": "datosPersona",
      "outputs": [
        {
          "internalType": "address",
          "name": "dir",
          "type": "address"
        }
      ],
      "stateMutability": "view",
      "type": "function",
      "constant": true
    },
    {
      "inputs": [
        {
          "internalType": "address",
          "name": "",
          "type": "address"
        }
      ],
      "name": "datosProfesor",
      "outputs": [
        {
          "internalType": "string",
          "name": "nombreP",
          "type": "string"
        },
        {
          "internalType": "string",
          "name": "emailP",
          "type": "string"
        },
        {
          "internalType": "string",
          "name": "asignaturaP",
          "type": "string"
        },
        {
          "internalType": "string",
          "name": "departamentoP",
          "type": "string"
        }
      ],
      "stateMutability": "view",
      "type": "function",
      "constant": true
    },
    {
      "inputs": [
        {
          "internalType": "uint256",
          "name": "",
          "type": "uint256"
        },
        {
          "internalType": "uint256",
          "name": "",
          "type": "uint256"
        }
      ],
      "name": "datosReserva",
      "outputs": [
        {
          "internalType": "address",
          "name": "dirAlumno",
          "type": "address"
        }
      ],
      "stateMutability": "view",
      "type": "function",
      "constant": true
    },
    {
      "inputs": [
        {
          "internalType": "uint256",
          "name": "",
          "type": "uint256"
        },
        {
          "internalType": "uint256",
          "name": "",
          "type": "uint256"
        },
        {
          "internalType": "uint256",
          "name": "",
          "type": "uint256"
        },
        {
          "internalType": "uint256",
          "name": "",
          "type": "uint256"
        }
      ],
      "name": "datosReservaPorLabPuestoFechaTurno",
      "outputs": [
        {
          "internalType": "address",
          "name": "dirAlumno",
          "type": "address"
        }
      ],
      "stateMutability": "view",
      "type": "function",
      "constant": true
    },
    {
      "inputs": [
        {
          "internalType": "uint256",
          "name": "",
          "type": "uint256"
        },
        {
          "internalType": "uint256",
          "name": "",
          "type": "uint256"
        },
        {
          "internalType": "uint256",
          "name": "",
          "type": "uint256"
        }
      ],
      "name": "datosReservaPorLabPuestoTurno",
      "outputs": [
        {
          "internalType": "address",
          "name": "dirAlumno",
          "type": "address"
        }
      ],
      "stateMutability": "view",
      "type": "function",
      "constant": true
    },
    {
      "inputs": [
        {
          "internalType": "uint256",
          "name": "",
          "type": "uint256"
        }
      ],
      "name": "indiceLabPorAsignatura",
      "outputs": [
        {
          "internalType": "uint256",
          "name": "",
          "type": "uint256"
        }
      ],
      "stateMutability": "view",
      "type": "function",
      "constant": true
    },
    {
      "inputs": [
        {
          "internalType": "uint256",
          "name": "",
          "type": "uint256"
        }
      ],
      "name": "laboratoriosRegistrados",
      "outputs": [
        {
          "internalType": "uint256",
          "name": "laboratorioindex",
          "type": "uint256"
        },
        {
          "internalType": "string",
          "name": "nombreL",
          "type": "string"
        },
        {
          "internalType": "string",
          "name": "asignaura",
          "type": "string"
        },
        {
          "internalType": "string",
          "name": "info",
          "type": "string"
        }
      ],
      "stateMutability": "view",
      "type": "function",
      "constant": true
    },
    {
      "inputs": [
        {
          "internalType": "uint256",
          "name": "",
          "type": "uint256"
        }
      ],
      "name": "matriculas",
      "outputs": [
        {
          "internalType": "address",
          "name": "",
          "type": "address"
        }
      ],
      "stateMutability": "view",
      "type": "function",
      "constant": true
    },
    {
      "inputs": [],
      "name": "owner",
      "outputs": [
        {
          "internalType": "address",
          "name": "",
          "type": "address"
        }
      ],
      "stateMutability": "view",
      "type": "function",
      "constant": true
    },
    {
      "inputs": [
        {
          "internalType": "string",
          "name": "",
          "type": "string"
        },
        {
          "internalType": "string",
          "name": "",
          "type": "string"
        },
        {
          "internalType": "uint256",
          "name": "",
          "type": "uint256"
        },
        {
          "internalType": "uint256",
          "name": "",
          "type": "uint256"
        }
      ],
      "name": "personas",
      "outputs": [
        {
          "internalType": "address",
          "name": "",
          "type": "address"
        }
      ],
      "stateMutability": "view",
      "type": "function",
      "constant": true
    },
    {
      "inputs": [
        {
          "internalType": "string",
          "name": "",
          "type": "string"
        },
        {
          "internalType": "string",
          "name": "",
          "type": "string"
        },
        {
          "internalType": "uint256",
          "name": "",
          "type": "uint256"
        }
      ],
      "name": "personasTotales",
      "outputs": [
        {
          "internalType": "address",
          "name": "",
          "type": "address"
        }
      ],
      "stateMutability": "view",
      "type": "function",
      "constant": true
    },
    {
      "inputs": [
        {
          "internalType": "uint256",
          "name": "",
          "type": "uint256"
        }
      ],
      "name": "profesRegistrados",
      "outputs": [
        {
          "internalType": "address",
          "name": "",
          "type": "address"
        }
      ],
      "stateMutability": "view",
      "type": "function",
      "constant": true
    },
    {
      "inputs": [],
      "name": "profesorP",
      "outputs": [
        {
          "internalType": "address",
          "name": "",
          "type": "address"
        }
      ],
      "stateMutability": "view",
      "type": "function",
      "constant": true
    },
    {
      "inputs": [
        {
          "internalType": "uint256",
          "name": "",
          "type": "uint256"
        },
        {
          "internalType": "uint256",
          "name": "",
          "type": "uint256"
        }
      ],
      "name": "puestos",
      "outputs": [
        {
          "internalType": "uint256",
          "name": "",
          "type": "uint256"
        }
      ],
      "stateMutability": "view",
      "type": "function",
      "constant": true
    },
    {
      "inputs": [
        {
          "internalType": "string",
          "name": "",
          "type": "string"
        },
        {
          "internalType": "uint256",
          "name": "",
          "type": "uint256"
        },
        {
          "internalType": "uint256",
          "name": "",
          "type": "uint256"
        },
        {
          "internalType": "uint256",
          "name": "",
          "type": "uint256"
        }
      ],
      "name": "puestosBuscados",
      "outputs": [
        {
          "internalType": "uint256",
          "name": "",
          "type": "uint256"
        }
      ],
      "stateMutability": "view",
      "type": "function",
      "constant": true
    },
    {
      "inputs": [
        {
          "internalType": "uint256",
          "name": "",
          "type": "uint256"
        },
        {
          "internalType": "uint256",
          "name": "",
          "type": "uint256"
        }
      ],
      "name": "puestosDelLaboratorio",
      "outputs": [
        {
          "internalType": "uint256",
          "name": "",
          "type": "uint256"
        }
      ],
      "stateMutability": "view",
      "type": "function",
      "constant": true
    },
    {
      "inputs": [
        {
          "internalType": "uint256",
          "name": "",
          "type": "uint256"
        },
        {
          "internalType": "uint256",
          "name": "",
          "type": "uint256"
        },
        {
          "internalType": "uint256",
          "name": "",
          "type": "uint256"
        }
      ],
      "name": "puestosDelLaboratorioFecha",
      "outputs": [
        {
          "internalType": "uint256",
          "name": "",
          "type": "uint256"
        }
      ],
      "stateMutability": "view",
      "type": "function",
      "constant": true
    },
    {
      "inputs": [
        {
          "internalType": "uint256",
          "name": "",
          "type": "uint256"
        }
      ],
      "name": "puestosRegistrados",
      "outputs": [
        {
          "internalType": "string",
          "name": "nombre",
          "type": "string"
        },
        {
          "internalType": "uint256",
          "name": "indexlab",
          "type": "uint256"
        }
      ],
      "stateMutability": "view",
      "type": "function",
      "constant": true
    },
    {
      "inputs": [
        {
          "internalType": "string",
          "name": "",
          "type": "string"
        },
        {
          "internalType": "uint256",
          "name": "",
          "type": "uint256"
        }
      ],
      "name": "puestosTotales",
      "outputs": [
        {
          "internalType": "string",
          "name": "",
          "type": "string"
        }
      ],
      "stateMutability": "view",
      "type": "function",
      "constant": true
    },
    {
      "inputs": [
        {
          "internalType": "uint256",
          "name": "",
          "type": "uint256"
        }
      ],
      "name": "registradosP",
      "outputs": [
        {
          "internalType": "address",
          "name": "",
          "type": "address"
        }
      ],
      "stateMutability": "view",
      "type": "function",
      "constant": true
    },
    {
      "inputs": [
        {
          "internalType": "address",
          "name": "",
          "type": "address"
        }
      ],
      "name": "reservasAlumno",
      "outputs": [
        {
          "internalType": "string",
          "name": "lab",
          "type": "string"
        },
        {
          "internalType": "uint256",
          "name": "fecha",
          "type": "uint256"
        },
        {
          "internalType": "uint256",
          "name": "estado",
          "type": "uint256"
        }
      ],
      "stateMutability": "view",
      "type": "function",
      "constant": true
    },
    {
      "inputs": [
        {
          "internalType": "uint256",
          "name": "",
          "type": "uint256"
        },
        {
          "internalType": "uint256",
          "name": "",
          "type": "uint256"
        },
        {
          "internalType": "uint256",
          "name": "",
          "type": "uint256"
        }
      ],
      "name": "turnosPorPuesto",
      "outputs": [
        {
          "internalType": "uint256",
          "name": "",
          "type": "uint256"
        }
      ],
      "stateMutability": "view",
      "type": "function",
      "constant": true
    },
    {
      "inputs": [
        {
          "internalType": "uint256",
          "name": "",
          "type": "uint256"
        }
      ],
      "name": "turnosRegistrados",
      "outputs": [
        {
          "internalType": "string",
          "name": "nombre",
          "type": "string"
        },
        {
          "internalType": "uint256",
          "name": "fecha",
          "type": "uint256"
        }
      ],
      "stateMutability": "view",
      "type": "function",
      "constant": true
    },
    {
      "stateMutability": "payable",
      "type": "receive",
      "payable": true
    },
    {
      "inputs": [
        {
          "internalType": "uint256",
          "name": "_indexlab",
          "type": "uint256"
        }
      ],
      "name": "puestosDelLaboratorioLength",
      "outputs": [
        {
          "internalType": "uint256",
          "name": "",
          "type": "uint256"
        }
      ],
      "stateMutability": "view",
      "type": "function",
      "constant": true
    },
    {
      "inputs": [],
      "name": "turnosLength",
      "outputs": [
        {
          "internalType": "uint256",
          "name": "",
          "type": "uint256"
        }
      ],
      "stateMutability": "view",
      "type": "function",
      "constant": true
    },
    {
      "inputs": [
        {
          "internalType": "uint256",
          "name": "_laboratorioindex",
          "type": "uint256"
        }
      ],
      "name": "puestosLaboratorioLength",
      "outputs": [
        {
          "internalType": "uint256",
          "name": "",
          "type": "uint256"
        }
      ],
      "stateMutability": "view",
      "type": "function",
      "constant": true
    },
    {
      "inputs": [],
      "name": "laboratoriosLength",
      "outputs": [
        {
          "internalType": "uint256",
          "name": "",
          "type": "uint256"
        }
      ],
      "stateMutability": "view",
      "type": "function",
      "constant": true
    },
    {
      "inputs": [
        {
          "internalType": "string",
          "name": "_nombre",
          "type": "string"
        },
        {
          "internalType": "string",
          "name": "_fecha",
          "type": "string"
        }
      ],
      "name": "personasLength",
      "outputs": [
        {
          "internalType": "uint256",
          "name": "",
          "type": "uint256"
        }
      ],
      "stateMutability": "view",
      "type": "function",
      "constant": true
    },
    {
      "inputs": [
        {
          "internalType": "string",
          "name": "_nombre",
          "type": "string"
        }
      ],
      "name": "puestosLength2",
      "outputs": [
        {
          "internalType": "uint256",
          "name": "",
          "type": "uint256"
        }
      ],
      "stateMutability": "view",
      "type": "function",
      "constant": true
    },
    {
      "inputs": [
        {
          "internalType": "string",
          "name": "_nombre",
          "type": "string"
        },
        {
          "internalType": "string",
          "name": "_fecha",
          "type": "string"
        },
        {
          "internalType": "uint256",
          "name": "_indice",
          "type": "uint256"
        }
      ],
      "name": "dirPersonas",
      "outputs": [
        {
          "internalType": "address",
          "name": "",
          "type": "address"
        }
      ],
      "stateMutability": "view",
      "type": "function",
      "constant": true
    },
    {
      "inputs": [
        {
          "internalType": "address",
          "name": "persona",
          "type": "address"
        }
      ],
      "name": "obtenerDatosPersona",
      "outputs": [
        {
          "internalType": "address",
          "name": "",
          "type": "address"
        }
      ],
      "stateMutability": "view",
      "type": "function",
      "constant": true
    },
    {
      "inputs": [
        {
          "internalType": "uint256",
          "name": "_laboratorioindex",
          "type": "uint256"
        }
      ],
      "name": "puestosdeLaboratorio",
      "outputs": [
        {
          "internalType": "uint256",
          "name": "",
          "type": "uint256"
        }
      ],
      "stateMutability": "view",
      "type": "function",
      "constant": true
    },
    {
      "inputs": [
        {
          "internalType": "string",
          "name": "_fecha",
          "type": "string"
        },
        {
          "internalType": "uint256",
          "name": "_entradaTurno",
          "type": "uint256"
        },
        {
          "internalType": "uint256",
          "name": "_laboratorioindex",
          "type": "uint256"
        }
      ],
      "name": "BuscaPuestoLab",
      "outputs": [
        {
          "internalType": "uint256",
          "name": "",
          "type": "uint256"
        }
      ],
      "stateMutability": "view",
      "type": "function",
      "constant": true
    },
    {
      "inputs": [
        {
          "internalType": "uint256",
          "name": "_puestoId",
          "type": "uint256"
        },
        {
          "internalType": "uint256",
          "name": "_fecha",
          "type": "uint256"
        },
        {
          "internalType": "uint256",
          "name": "_turno",
          "type": "uint256"
        },
        {
          "internalType": "string",
          "name": "_asignatura",
          "type": "string"
        }
      ],
      "name": "guardarReserva",
      "outputs": [],
      "stateMutability": "nonpayable",
      "type": "function"
    },
    {
      "inputs": [
        {
          "internalType": "uint256",
          "name": "_puestoId",
          "type": "uint256"
        },
        {
          "internalType": "uint256",
          "name": "_fecha",
          "type": "uint256"
        },
        {
          "internalType": "uint256",
          "name": "_turno",
          "type": "uint256"
        },
        {
          "internalType": "string",
          "name": "_asignatura",
          "type": "string"
        }
      ],
      "name": "quitarReserva",
      "outputs": [],
      "stateMutability": "nonpayable",
      "type": "function"
    },
    {
      "inputs": [
        {
          "internalType": "uint256",
          "name": "_laboratorioindex",
          "type": "uint256"
        },
        {
          "internalType": "string",
          "name": "_nombreL",
          "type": "string"
        },
        {
          "internalType": "string",
          "name": "_asignaura",
          "type": "string"
        },
        {
          "internalType": "string",
          "name": "_Info",
          "type": "string"
        }
      ],
      "name": "creaLaboratorio",
      "outputs": [
        {
          "internalType": "uint256",
          "name": "",
          "type": "uint256"
        }
      ],
      "stateMutability": "nonpayable",
      "type": "function"
    },
    {
      "inputs": [
        {
          "internalType": "string",
          "name": "_nombreAsig",
          "type": "string"
        },
        {
          "internalType": "uint256",
          "name": "_indexLab",
          "type": "uint256"
        },
        {
          "internalType": "string",
          "name": "_Info",
          "type": "string"
        }
      ],
      "name": "creaAsignatura",
      "outputs": [
        {
          "internalType": "uint256",
          "name": "",
          "type": "uint256"
        }
      ],
      "stateMutability": "nonpayable",
      "type": "function"
    },
    {
      "inputs": [
        {
          "internalType": "string",
          "name": "_NombreP",
          "type": "string"
        },
        {
          "internalType": "uint256",
          "name": "_indexlab",
          "type": "uint256"
        }
      ],
      "name": "creaPuesto",
      "outputs": [
        {
          "internalType": "uint256",
          "name": "",
          "type": "uint256"
        }
      ],
      "stateMutability": "nonpayable",
      "type": "function"
    },
    {
      "inputs": [
        {
          "internalType": "string",
          "name": "_nombre",
          "type": "string"
        },
        {
          "internalType": "uint256",
          "name": "_fecha",
          "type": "uint256"
        }
      ],
      "name": "creaTurno",
      "outputs": [
        {
          "internalType": "uint256",
          "name": "",
          "type": "uint256"
        }
      ],
      "stateMutability": "nonpayable",
      "type": "function"
    },
    {
      "inputs": [],
      "name": "matriculasLength",
      "outputs": [
        {
          "internalType": "uint256",
          "name": "",
          "type": "uint256"
        }
      ],
      "stateMutability": "view",
      "type": "function",
      "constant": true
    },
    {
      "inputs": [],
      "name": "profesRegistradosLength",
      "outputs": [
        {
          "internalType": "uint256",
          "name": "",
          "type": "uint256"
        }
      ],
      "stateMutability": "view",
      "type": "function",
      "constant": true
    },
    {
      "inputs": [],
      "name": "asignaturasRegistradasLength",
      "outputs": [
        {
          "internalType": "uint256",
          "name": "",
          "type": "uint256"
        }
      ],
      "stateMutability": "view",
      "type": "function",
      "constant": true
    },
    {
      "inputs": [
        {
          "internalType": "string",
          "name": "_nombre",
          "type": "string"
        },
        {
          "internalType": "string",
          "name": "_email",
          "type": "string"
        }
      ],
      "name": "automatricula",
      "outputs": [],
      "stateMutability": "nonpayable",
      "type": "function"
    },
    {
      "inputs": [],
      "name": "autoregistroP",
      "outputs": [],
      "stateMutability": "nonpayable",
      "type": "function"
    },
    {
      "inputs": [
        {
          "internalType": "string",
          "name": "_nombreP",
          "type": "string"
        },
        {
          "internalType": "string",
          "name": "_emailP",
          "type": "string"
        },
        {
          "internalType": "string",
          "name": "_asignaturaP",
          "type": "string"
        },
        {
          "internalType": "string",
          "name": "_departamentoP",
          "type": "string"
        }
      ],
      "name": "autoRegistro",
      "outputs": [],
      "stateMutability": "nonpayable",
      "type": "function"
    },
    {
      "inputs": [],
      "name": "quienSoy",
      "outputs": [
        {
          "internalType": "string",
          "name": "_nombre",
          "type": "string"
        },
        {
          "internalType": "string",
          "name": "_email",
          "type": "string"
        }
      ],
      "stateMutability": "view",
      "type": "function",
      "constant": true
    },
    {
      "inputs": [
        {
          "internalType": "address",
          "name": "persona",
          "type": "address"
        }
      ],
      "name": "estaRegistradoP",
      "outputs": [
        {
          "internalType": "bool",
          "name": "",
          "type": "bool"
        }
      ],
      "stateMutability": "view",
      "type": "function",
      "constant": true
    }
  ],
  "bytecode": "0x608060405234801561001057600080fd5b50336000806101000a81548173ffffffffffffffffffffffffffffffffffffffff021916908373ffffffffffffffffffffffffffffffffffffffff160217905550614dc6806100606000396000f3fe6080604052600436106103035760003560e01c80638797290611610190578063c2c639b6116100dc578063d5a3e75a11610095578063f0f066ef1161006f578063f0f066ef14610dd5578063f83dfff214610e12578063f85c7aeb14610e3b578063f874785914610e7857610343565b8063d5a3e75a14610d32578063ede343cf14610d6f578063ee0e7c4f14610d9857610343565b8063c2c639b614610bc1578063c791813914610bfe578063c88da89e14610c3b578063cbf2328814610c7a578063cdea020914610cb8578063d2a2f7de14610cf557610343565b8063a9b2aeac11610149578063b4b4a51f11610123578063b4b4a51f14610aee578063b5daf62c14610b19578063bcfe45d314610b59578063be4a935b14610b9657610343565b8063a9b2aeac14610a35578063b013bd2414610a72578063b0b1273114610aaf57610343565b806387972906146108eb5780638b69735b146109285780638da5cb5b146109655780638ee4003b146109905780638fa425e7146109cd5780639e1d8f4b14610a0a57610343565b8063589afa221161024f5780636ad8a0fb1161020857806379b51b6a116101e257806379b51b6a146108095780637e09be7a146108345780637fa4574d14610871578063810e8c80146108ae57610343565b80636ad8a0fb146107625780636bf8aad6146107a057806370d714f2146107de57610343565b8063589afa221461062b5780635fdf483f1461065457806361d4c6ad14610691578063641945bf146106ba57806366668f3c146106fa5780636916662b1461073757610343565b80632535f784116102bc578063320d077311610296578063320d07731461056e5780633bd205611461058557806344141cb9146105c257806353766883146105ff57610343565b80632535f784146104b6578063296d91db146104f3578063317dc2861461053057610343565b806307025942146103485780630c06bc02146103855780630c312661146103c257806312f89eac146103ff578063151b3f521461043c578063223ca7a21461047957610343565b36610343576040517f08c379a000000000000000000000000000000000000000000000000000000000815260040161033a90614518565b60405180910390fd5b600080fd5b34801561035457600080fd5b5061036f600480360381019061036a919061383e565b610eb5565b60405161037c9190614295565b60405180910390f35b34801561039157600080fd5b506103ac60048036038101906103a79190613cf2565b610ef3565b6040516103b99190614618565b60405180910390f35b3480156103ce57600080fd5b506103e960048036038101906103e4919061383e565b610f54565b6040516103f69190614295565b60405180910390f35b34801561040b57600080fd5b5061042660048036038101906104219190613b9c565b610fd7565b60405161043391906142cb565b60405180910390f35b34801561044857600080fd5b50610463600480360381019061045e9190613e5d565b6110a6565b6040516104709190614295565b60405180910390f35b34801561048557600080fd5b506104a0600480360381019061049b9190613d75565b6110f1565b6040516104ad9190614295565b60405180910390f35b3480156104c257600080fd5b506104dd60048036038101906104d89190613e9d565b611130565b6040516104ea9190614618565b60405180910390f35b3480156104ff57600080fd5b5061051a60048036038101906105159190613da2565b61116e565b6040516105279190614618565b60405180910390f35b34801561053c57600080fd5b5061055760048036038101906105529190613e9d565b611315565b604051610565929190614385565b60405180910390f35b34801561057a57600080fd5b506105836113eb565b005b34801561059157600080fd5b506105ac60048036038101906105a79190613d75565b6115b7565b6040516105b99190614618565b60405180910390f35b3480156105ce57600080fd5b506105e960048036038101906105e49190613d75565b6115d7565b6040516105f69190614618565b60405180910390f35b34801561060b57600080fd5b506106146115ef565b6040516106229291906142ed565b60405180910390f35b34801561063757600080fd5b50610652600480360381019061064d9190613ef0565b6117bf565b005b34801561066057600080fd5b5061067b60048036038101906106769190613a72565b611a3d565b6040516106889190614295565b60405180910390f35b34801561069d57600080fd5b506106b860048036038101906106b39190613923565b611ac4565b005b3480156106c657600080fd5b506106e160048036038101906106dc919061383e565b611c56565b6040516106f19493929190614324565b60405180910390f35b34801561070657600080fd5b50610721600480360381019061071c9190613923565b611ea6565b60405161072e9190614618565b60405180910390f35b34801561074357600080fd5b5061074c611f01565b6040516107599190614618565b60405180910390f35b34801561076e57600080fd5b5061078960048036038101906107849190613d75565b611f0e565b604051610797929190614385565b60405180910390f35b3480156107ac57600080fd5b506107c760048036038101906107c2919061383e565b611fca565b6040516107d59291906142ed565b60405180910390f35b3480156107ea57600080fd5b506107f36120fe565b6040516108009190614618565b60405180910390f35b34801561081557600080fd5b5061081e61210b565b60405161082b9190614618565b60405180910390f35b34801561084057600080fd5b5061085b6004803603810190610856919061383e565b612118565b60405161086891906142b0565b60405180910390f35b34801561087d57600080fd5b5061089860048036038101906108939190613b9c565b6121b9565b6040516108a59190614618565b60405180910390f35b3480156108ba57600080fd5b506108d560048036038101906108d09190613bf8565b612318565b6040516108e29190614618565b60405180910390f35b3480156108f757600080fd5b50610912600480360381019061090d9190613e9d565b61249b565b60405161091f9190614295565b60405180910390f35b34801561093457600080fd5b5061094f600480360381019061094a9190613d75565b6124f3565b60405161095c9190614618565b60405180910390f35b34801561097157600080fd5b5061097a612513565b6040516109879190614295565b60405180910390f35b34801561099c57600080fd5b506109b760048036038101906109b291906138da565b612537565b6040516109c49190614618565b60405180910390f35b3480156109d957600080fd5b506109f460048036038101906109ef9190613e9d565b612575565b604051610a019190614618565b60405180910390f35b348015610a1657600080fd5b50610a1f6125b2565b604051610a2c9190614618565b60405180910390f35b348015610a4157600080fd5b50610a5c6004803603810190610a579190613c83565b6125bf565b604051610a699190614618565b60405180910390f35b348015610a7e57600080fd5b50610a996004803603810190610a949190613e5d565b61260e565b604051610aa69190614618565b60405180910390f35b348015610abb57600080fd5b50610ad66004803603810190610ad1919061383e565b61263f565b604051610ae5939291906143fa565b60405180910390f35b348015610afa57600080fd5b50610b036126f1565b604051610b109190614618565b60405180910390f35b348015610b2557600080fd5b50610b406004803603810190610b3b9190613d75565b6126fe565b604051610b509493929190614633565b60405180910390f35b348015610b6557600080fd5b50610b806004803603810190610b7b9190613b9c565b6128d6565b604051610b8d9190614618565b60405180910390f35b348015610ba257600080fd5b50610bab612a75565b604051610bb89190614295565b60405180910390f35b348015610bcd57600080fd5b50610be86004803603810190610be39190613f73565b612a9b565b604051610bf59190614295565b60405180910390f35b348015610c0a57600080fd5b50610c256004803603810190610c209190613d75565b612b00565b604051610c329190614295565b60405180910390f35b348015610c4757600080fd5b50610c626004803603810190610c5d9190613d75565b612b3f565b604051610c71939291906143b5565b60405180910390f35b348015610c8657600080fd5b50610ca16004803603810190610c9c9190613d75565b612c89565b604051610caf929190614385565b60405180910390f35b348015610cc457600080fd5b50610cdf6004803603810190610cda9190613e5d565b612d45565b604051610cec9190614618565b60405180910390f35b348015610d0157600080fd5b50610d1c6004803603810190610d179190613d75565b612d76565b604051610d299190614295565b60405180910390f35b348015610d3e57600080fd5b50610d596004803603810190610d549190613afd565b612db5565b604051610d669190614295565b60405180910390f35b348015610d7b57600080fd5b50610d966004803603810190610d91919061399b565b612e49565b005b348015610da457600080fd5b50610dbf6004803603810190610dba9190613d75565b613023565b604051610dcc9190614295565b60405180910390f35b348015610de157600080fd5b50610dfc6004803603810190610df79190613d75565b613062565b604051610e099190614618565b60405180910390f35b348015610e1e57600080fd5b50610e396004803603810190610e349190613ef0565b613082565b005b348015610e4757600080fd5b50610e626004803603810190610e5d919061386b565b613337565b604051610e6f9190614618565b60405180910390f35b348015610e8457600080fd5b50610e9f6004803603810190610e9a9190613a72565b61337f565b604051610eac9190614295565b60405180910390f35b60026020528060005260406000206000915090508060000160009054906101000a900473ffffffffffffffffffffffffffffffffffffffff16905081565b6016848051602081018201805184825260208301602085012081835280955050505050506020528260005260406000206020528160005260406000208181548110610f3d57600080fd5b906000526020600020016000935093505050505481565b6000610f5f82613455565b610f6c5760009050610fd2565b600260008373ffffffffffffffffffffffffffffffffffffffff1673ffffffffffffffffffffffffffffffffffffffff16815260200190815260200160002060000160009054906101000a900473ffffffffffffffffffffffffffffffffffffffff1690505b919050565b601482805160208101820180518482526020830160208501208183528095505050505050818154811061100957600080fd5b90600052602060002001600091509150508054611025906147f2565b80601f0160208091040260200160405190810160405280929190818152602001828054611051906147f2565b801561109e5780601f106110735761010080835404028352916020019161109e565b820191906000526020600020905b81548152906001019060200180831161108157829003601f168201915b505050505081565b6017602052816000526040600020602052806000526040600020600091509150508060000160009054906101000a900473ffffffffffffffffffffffffffffffffffffffff16905081565b600a818154811061110157600080fd5b906000526020600020016000915054906101000a900473ffffffffffffffffffffffffffffffffffffffff1681565b601c602052826000526040600020602052816000526040600020818154811061115857600080fd5b9060005260206000200160009250925050505481565b60008060009054906101000a900473ffffffffffffffffffffffffffffffffffffffff1673ffffffffffffffffffffffffffffffffffffffff163373ffffffffffffffffffffffffffffffffffffffff16146111ff576040517f08c379a00000000000000000000000000000000000000000000000000000000081526004016111f6906145f8565b60405180910390fd5b6000849050600081511415611249576040517f08c379a000000000000000000000000000000000000000000000000000000000815260040161124090614558565b60405180910390fd5b600d60405180608001604052808881526020018781526020018681526020018581525090806001815401808255809150506001900390600052602060002090600402016000909190919091506000820151816000015560208201518160010190805190602001906112bb929190613701565b5060408201518160020190805190602001906112d8929190613701565b5060608201518160030190805190602001906112f5929190613701565b5050506001600d8054905061130a919061470a565b915050949350505050565b601e602052826000526040600020602052816000526040600020818154811061133d57600080fd5b90600052602060002090600202016000925092505050806000018054611362906147f2565b80601f016020809104026020016040519081016040528092919081815260200182805461138e906147f2565b80156113db5780601f106113b0576101008083540402835291602001916113db565b820191906000526020600020905b8154815290600101906020018083116113be57829003601f168201915b5050505050908060010154905082565b6113f433612118565b15611434576040517f08c379a000000000000000000000000000000000000000000000000000000000815260040161142b90614598565b60405180910390fd5b600073ffffffffffffffffffffffffffffffffffffffff163373ffffffffffffffffffffffffffffffffffffffff1614156114a4576040517f08c379a000000000000000000000000000000000000000000000000000000000815260040161149b90614458565b60405180910390fd5b60405180602001604052803373ffffffffffffffffffffffffffffffffffffffff16815250600260003373ffffffffffffffffffffffffffffffffffffffff1673ffffffffffffffffffffffffffffffffffffffff16815260200190815260200160002060008201518160000160006101000a81548173ffffffffffffffffffffffffffffffffffffffff021916908373ffffffffffffffffffffffffffffffffffffffff160217905550905050600a339080600181540180825580915050600190039060005260206000200160009091909190916101000a81548173ffffffffffffffffffffffffffffffffffffffff021916908373ffffffffffffffffffffffffffffffffffffffff160217905550565b600060156000838152602001908152602001600020805490509050919050565b601d6020528060005260406000206000915090505481565b6060806115fb33613539565b61163a576040517f08c379a0000000000000000000000000000000000000000000000000000000008152600401611631906144b8565b60405180910390fd5b6000600360003373ffffffffffffffffffffffffffffffffffffffff1673ffffffffffffffffffffffffffffffffffffffff168152602001908152602001600020604051806040016040529081600082018054611696906147f2565b80601f01602080910402602001604051908101604052809291908181526020018280546116c2906147f2565b801561170f5780601f106116e45761010080835404028352916020019161170f565b820191906000526020600020905b8154815290600101906020018083116116f257829003601f168201915b50505050508152602001600182018054611728906147f2565b80601f0160208091040260200160405190810160405280929190818152602001828054611754906147f2565b80156117a15780601f10611776576101008083540402835291602001916117a1565b820191906000526020600020905b81548152906001019060200180831161178457829003601f168201915b50505050508152505090508060000151925080602001519150509091565b6117c833613539565b611807576040517f08c379a00000000000000000000000000000000000000000000000000000000081526004016117fe90614478565b60405180910390fd5b6018821061184a576040517f08c379a0000000000000000000000000000000000000000000000000000000008152600401611841906145b8565b60405180910390fd5b3373ffffffffffffffffffffffffffffffffffffffff16601960008681526020019081526020016000206000858152602001908152602001600020600084815260200190815260200160002060000160009054906101000a900473ffffffffffffffffffffffffffffffffffffffff1673ffffffffffffffffffffffffffffffffffffffff1614611910576040517f08c379a0000000000000000000000000000000000000000000000000000000008152600401611907906144d8565b60405180910390fd5b6040518060200160405280600073ffffffffffffffffffffffffffffffffffffffff16815250601960008681526020019081526020016000206000858152602001908152602001600020600084815260200190815260200160002060008201518160000160006101000a81548173ffffffffffffffffffffffffffffffffffffffff021916908373ffffffffffffffffffffffffffffffffffffffff160217905550905050601a60003373ffffffffffffffffffffffffffffffffffffffff1673ffffffffffffffffffffffffffffffffffffffff16815260200190815260200160002081604051611a02919061427e565b908152602001604051809103902060008481526020019081526020016000206000815480929190611a32906147c8565b919050555050505050565b601383805160208101820180518482526020830160208501208183528095505050505050828051602081018201805184825260208301602085012081835280955050505050508181548110611a9157600080fd5b90600052602060002001600092509250509054906101000a900473ffffffffffffffffffffffffffffffffffffffff1681565b611acd33613539565b15611b0d576040517f08c379a0000000000000000000000000000000000000000000000000000000008152600401611b0490614478565b60405180910390fd5b6000829050600081511415611b57576040517f08c379a0000000000000000000000000000000000000000000000000000000008152600401611b4e90614498565b60405180910390fd5b6000604051806040016040528085815260200184815250905080600360003373ffffffffffffffffffffffffffffffffffffffff1673ffffffffffffffffffffffffffffffffffffffff1681526020019081526020016000206000820151816000019080519060200190611bcc929190613701565b506020820151816001019080519060200190611be9929190613701565b509050506008339080600181540180825580915050600190039060005260206000200160009091909190916101000a81548173ffffffffffffffffffffffffffffffffffffffff021916908373ffffffffffffffffffffffffffffffffffffffff16021790555050505050565b6004602052806000526040600020600091509050806000018054611c79906147f2565b80601f0160208091040260200160405190810160405280929190818152602001828054611ca5906147f2565b8015611cf25780601f10611cc757610100808354040283529160200191611cf2565b820191906000526020600020905b815481529060010190602001808311611cd557829003601f168201915b505050505090806001018054611d07906147f2565b80601f0160208091040260200160405190810160405280929190818152602001828054611d33906147f2565b8015611d805780601f10611d5557610100808354040283529160200191611d80565b820191906000526020600020905b815481529060010190602001808311611d6357829003601f168201915b505050505090806002018054611d95906147f2565b80601f0160208091040260200160405190810160405280929190818152602001828054611dc1906147f2565b8015611e0e5780601f10611de357610100808354040283529160200191611e0e565b820191906000526020600020905b815481529060010190602001808311611df157829003601f168201915b505050505090806003018054611e23906147f2565b80601f0160208091040260200160405190810160405280929190818152602001828054611e4f906147f2565b8015611e9c5780601f10611e7157610100808354040283529160200191611e9c565b820191906000526020600020905b815481529060010190602001808311611e7f57829003601f168201915b5050505050905084565b600080601383604051611eb9919061427e565b908152602001604051809103902084604051611ed5919061427e565b90815260200160405180910390208054905090506000811415611ef757600190505b8091505092915050565b6000600f80549050905090565b600f8181548110611f1e57600080fd5b9060005260206000209060020201600091509050806000018054611f41906147f2565b80601f0160208091040260200160405190810160405280929190818152602001828054611f6d906147f2565b8015611fba5780601f10611f8f57610100808354040283529160200191611fba565b820191906000526020600020905b815481529060010190602001808311611f9d57829003601f168201915b5050505050908060010154905082565b6003602052806000526040600020600091509050806000018054611fed906147f2565b80601f0160208091040260200160405190810160405280929190818152602001828054612019906147f2565b80156120665780601f1061203b57610100808354040283529160200191612066565b820191906000526020600020905b81548152906001019060200180831161204957829003601f168201915b50505050509080600101805461207b906147f2565b80601f01602080910402602001604051908101604052809291908181526020018280546120a7906147f2565b80156120f45780601f106120c9576101008083540402835291602001916120f4565b820191906000526020600020905b8154815290600101906020018083116120d757829003601f168201915b5050505050905082565b6000600c80549050905090565b6000600980549050905090565b600080600260008473ffffffffffffffffffffffffffffffffffffffff1673ffffffffffffffffffffffffffffffffffffffff16815260200190815260200160002060000160009054906101000a900473ffffffffffffffffffffffffffffffffffffffff169050600073ffffffffffffffffffffffffffffffffffffffff168173ffffffffffffffffffffffffffffffffffffffff161415915050919050565b60008060009054906101000a900473ffffffffffffffffffffffffffffffffffffffff1673ffffffffffffffffffffffffffffffffffffffff163373ffffffffffffffffffffffffffffffffffffffff161461224a576040517f08c379a0000000000000000000000000000000000000000000000000000000008152600401612241906145f8565b60405180910390fd5b6000839050600081511415612294576040517f08c379a000000000000000000000000000000000000000000000000000000000815260040161228b906145d8565b60405180910390fd5b600f604051806040016040528086815260200185815250908060018154018082558091505060019003906000526020600020906002020160009091909190915060008201518160000190805190602001906122f0929190613701565b506020820151816001015550506001600f8054905061230f919061470a565b91505092915050565b60008060009054906101000a900473ffffffffffffffffffffffffffffffffffffffff1673ffffffffffffffffffffffffffffffffffffffff163373ffffffffffffffffffffffffffffffffffffffff16146123a9576040517f08c379a00000000000000000000000000000000000000000000000000000000081526004016123a0906145f8565b60405180910390fd5b60008490506000815114156123f3576040517f08c379a00000000000000000000000000000000000000000000000000000000081526004016123ea906144f8565b60405180910390fd5b600c60405180606001604052808781526020018681526020018581525090806001815401808255809150506001900390600052602060002090600302016000909190919091506000820151816000019080519060200190612455929190613701565b5060208201518160010155604082015181600201908051906020019061247c929190613701565b5050506001600c80549050612491919061470a565b9150509392505050565b601960205282600052604060002060205281600052604060002060205280600052604060002060009250925050508060000160009054906101000a900473ffffffffffffffffffffffffffffffffffffffff16905081565b6000601b6000838152602001908152602001600020805490509050919050565b60008054906101000a900473ffffffffffffffffffffffffffffffffffffffff1681565b60008060148360405161254a919061427e565b9081526020016040518091039020805490509050600081141561256c57600190505b80915050919050565b60208052826000526040600020602052816000526040600020818154811061259c57600080fd5b9060005260206000200160009250925050505481565b6000600880549050905090565b60006016846040516125d1919061427e565b9081526020016040518091039020600084815260200190815260200160002060008381526020019081526020016000208054905090509392505050565b601b602052816000526040600020818154811061262a57600080fd5b90600052602060002001600091509150505481565b6010602052806000526040600020600091509050806000018054612662906147f2565b80601f016020809104026020016040519081016040528092919081815260200182805461268e906147f2565b80156126db5780601f106126b0576101008083540402835291602001916126db565b820191906000526020600020905b8154815290600101906020018083116126be57829003601f168201915b5050505050908060010154908060020154905083565b6000600d80549050905090565b600d818154811061270e57600080fd5b9060005260206000209060040201600091509050806000015490806001018054612737906147f2565b80601f0160208091040260200160405190810160405280929190818152602001828054612763906147f2565b80156127b05780601f10612785576101008083540402835291602001916127b0565b820191906000526020600020905b81548152906001019060200180831161279357829003601f168201915b5050505050908060020180546127c5906147f2565b80601f01602080910402602001604051908101604052809291908181526020018280546127f1906147f2565b801561283e5780601f106128135761010080835404028352916020019161283e565b820191906000526020600020905b81548152906001019060200180831161282157829003601f168201915b505050505090806003018054612853906147f2565b80601f016020809104026020016040519081016040528092919081815260200182805461287f906147f2565b80156128cc5780601f106128a1576101008083540402835291602001916128cc565b820191906000526020600020905b8154815290600101906020018083116128af57829003601f168201915b5050505050905084565b60008060009054906101000a900473ffffffffffffffffffffffffffffffffffffffff1673ffffffffffffffffffffffffffffffffffffffff163373ffffffffffffffffffffffffffffffffffffffff1614612967576040517f08c379a000000000000000000000000000000000000000000000000000000000815260040161295e906145f8565b60405180910390fd5b60008390506000815114156129b1576040517f08c379a00000000000000000000000000000000000000000000000000000000081526004016129a890614558565b60405180910390fd5b600e60405180604001604052808681526020018581525090806001815401808255809150506001900390600052602060002090600202016000909190919091506000820151816000019080519060200190612a0d929190613701565b5060208201518160010155505060006001600e80549050612a2e919061470a565b9050601b6000858152602001908152602001600020819080600181540180825580915050600190039060005260206000200160009091909190915055809250505092915050565b600160009054906101000a900473ffffffffffffffffffffffffffffffffffffffff1681565b60186020528360005260406000206020528260005260406000206020528160005260406000206020528060005260406000206000935093505050508060000160009054906101000a900473ffffffffffffffffffffffffffffffffffffffff16905081565b60088181548110612b1057600080fd5b906000526020600020016000915054906101000a900473ffffffffffffffffffffffffffffffffffffffff1681565b600c8181548110612b4f57600080fd5b9060005260206000209060030201600091509050806000018054612b72906147f2565b80601f0160208091040260200160405190810160405280929190818152602001828054612b9e906147f2565b8015612beb5780601f10612bc057610100808354040283529160200191612beb565b820191906000526020600020905b815481529060010190602001808311612bce57829003601f168201915b505050505090806001015490806002018054612c06906147f2565b80601f0160208091040260200160405190810160405280929190818152602001828054612c32906147f2565b8015612c7f5780601f10612c5457610100808354040283529160200191612c7f565b820191906000526020600020905b815481529060010190602001808311612c6257829003601f168201915b5050505050905083565b600e8181548110612c9957600080fd5b9060005260206000209060020201600091509050806000018054612cbc906147f2565b80601f0160208091040260200160405190810160405280929190818152602001828054612ce8906147f2565b8015612d355780601f10612d0a57610100808354040283529160200191612d35565b820191906000526020600020905b815481529060010190602001808311612d1857829003601f168201915b5050505050908060010154905082565b60156020528160005260406000208181548110612d6157600080fd5b90600052602060002001600091509150505481565b600b8181548110612d8657600080fd5b906000526020600020016000915054906101000a900473ffffffffffffffffffffffffffffffffffffffff1681565b601284805160208101820180518482526020830160208501208183528095505050505050838051602081018201805184825260208301602085012081835280955050505050506020528160005260406000208181548110612e1557600080fd5b9060005260206000200160009350935050509054906101000a900473ffffffffffffffffffffffffffffffffffffffff1681565b612e5233613455565b15612e92576040517f08c379a0000000000000000000000000000000000000000000000000000000008152600401612e8990614538565b60405180910390fd5b6000849050600081511415612edc576040517f08c379a0000000000000000000000000000000000000000000000000000000008152600401612ed390614498565b60405180910390fd5b6000604051806080016040528087815260200186815260200185815260200184815250905080600460003373ffffffffffffffffffffffffffffffffffffffff1673ffffffffffffffffffffffffffffffffffffffff1681526020019081526020016000206000820151816000019080519060200190612f5d929190613701565b506020820151816001019080519060200190612f7a929190613701565b506040820151816002019080519060200190612f97929190613701565b506060820151816003019080519060200190612fb4929190613701565b509050506009339080600181540180825580915050600190039060005260206000200160009091909190916101000a81548173ffffffffffffffffffffffffffffffffffffffff021916908373ffffffffffffffffffffffffffffffffffffffff160217905550505050505050565b6009818154811061303357600080fd5b906000526020600020016000915054906101000a900473ffffffffffffffffffffffffffffffffffffffff1681565b600060156000838152602001908152602001600020805490509050919050565b61308b33613539565b6130ca576040517f08c379a00000000000000000000000000000000000000000000000000000000081526004016130c190614478565b60405180910390fd5b6018821061310d576040517f08c379a0000000000000000000000000000000000000000000000000000000008152600401613104906145b8565b60405180910390fd5b6131163361361d565b15613156576040517f08c379a000000000000000000000000000000000000000000000000000000000815260040161314d90614578565b60405180910390fd5b6003601a60003373ffffffffffffffffffffffffffffffffffffffff1673ffffffffffffffffffffffffffffffffffffffff168152602001908152602001600020826040516131a5919061427e565b908152602001604051809103902060008581526020019081526020016000205410613205576040517f08c379a00000000000000000000000000000000000000000000000000000000081526004016131fc90614438565b60405180910390fd5b600060405180602001604052803373ffffffffffffffffffffffffffffffffffffffff16815250905080601960008781526020019081526020016000206000868152602001908152602001600020600085815260200190815260200160002060008201518160000160006101000a81548173ffffffffffffffffffffffffffffffffffffffff021916908373ffffffffffffffffffffffffffffffffffffffff160217905550905050601a60003373ffffffffffffffffffffffffffffffffffffffff1673ffffffffffffffffffffffffffffffffffffffff168152602001908152602001600020826040516132fb919061427e565b90815260200160405180910390206000858152602001908152602001600020600081548092919061332b90614855565b91905055505050505050565b601a6020528260005260406000208280516020810182018051848252602083016020850120818352809550505050505060205280600052604060002060009250925050505481565b600080601384604051613392919061427e565b9081526020016040518091039020856040516133ae919061427e565b908152602001604051809103902080549050111561344a5760006013846040516133d8919061427e565b9081526020016040518091039020856040516133f4919061427e565b90815260200160405180910390208381548110613414576134136148fc565b5b9060005260206000200160009054906101000a900473ffffffffffffffffffffffffffffffffffffffff1690508091505061344e565b3390505b9392505050565b600080600460008473ffffffffffffffffffffffffffffffffffffffff1673ffffffffffffffffffffffffffffffffffffffff16815260200190815260200160002060000180546134a5906147f2565b80601f01602080910402602001604051908101604052809291908181526020018280546134d1906147f2565b801561351e5780601f106134f35761010080835404028352916020019161351e565b820191906000526020600020905b81548152906001019060200180831161350157829003601f168201915b50505050509050600081905060008151141592505050919050565b600080600360008473ffffffffffffffffffffffffffffffffffffffff1673ffffffffffffffffffffffffffffffffffffffff1681526020019081526020016000206000018054613589906147f2565b80601f01602080910402602001604051908101604052809291908181526020018280546135b5906147f2565b80156136025780601f106135d757610100808354040283529160200191613602565b820191906000526020600020905b8154815290600101906020018083116135e557829003601f168201915b50505050509050600081905060008151141592505050919050565b600080600760008473ffffffffffffffffffffffffffffffffffffffff1673ffffffffffffffffffffffffffffffffffffffff168152602001908152602001600020600001805461366d906147f2565b80601f0160208091040260200160405190810160405280929190818152602001828054613699906147f2565b80156136e65780601f106136bb576101008083540402835291602001916136e6565b820191906000526020600020905b8154815290600101906020018083116136c957829003601f168201915b50505050509050600081905060008151141592505050919050565b82805461370d906147f2565b90600052602060002090601f01602090048101928261372f5760008555613776565b82601f1061374857805160ff1916838001178555613776565b82800160010185558215613776579182015b8281111561377557825182559160200191906001019061375a565b5b5090506137839190613787565b5090565b5b808211156137a0576000816000905550600101613788565b5090565b60006137b76137b2846146b2565b61468d565b9050828152602081018484840111156137d3576137d261495f565b5b6137de848285614786565b509392505050565b6000813590506137f581614d62565b92915050565b600082601f8301126138105761380f61495a565b5b81356138208482602086016137a4565b91505092915050565b60008135905061383881614d79565b92915050565b60006020828403121561385457613853614969565b5b6000613862848285016137e6565b91505092915050565b60008060006060848603121561388457613883614969565b5b6000613892868287016137e6565b935050602084013567ffffffffffffffff8111156138b3576138b2614964565b5b6138bf868287016137fb565b92505060406138d086828701613829565b9150509250925092565b6000602082840312156138f0576138ef614969565b5b600082013567ffffffffffffffff81111561390e5761390d614964565b5b61391a848285016137fb565b91505092915050565b6000806040838503121561393a57613939614969565b5b600083013567ffffffffffffffff81111561395857613957614964565b5b613964858286016137fb565b925050602083013567ffffffffffffffff81111561398557613984614964565b5b613991858286016137fb565b9150509250929050565b600080600080608085870312156139b5576139b4614969565b5b600085013567ffffffffffffffff8111156139d3576139d2614964565b5b6139df878288016137fb565b945050602085013567ffffffffffffffff811115613a00576139ff614964565b5b613a0c878288016137fb565b935050604085013567ffffffffffffffff811115613a2d57613a2c614964565b5b613a39878288016137fb565b925050606085013567ffffffffffffffff811115613a5a57613a59614964565b5b613a66878288016137fb565b91505092959194509250565b600080600060608486031215613a8b57613a8a614969565b5b600084013567ffffffffffffffff811115613aa957613aa8614964565b5b613ab5868287016137fb565b935050602084013567ffffffffffffffff811115613ad657613ad5614964565b5b613ae2868287016137fb565b9250506040613af386828701613829565b9150509250925092565b60008060008060808587031215613b1757613b16614969565b5b600085013567ffffffffffffffff811115613b3557613b34614964565b5b613b41878288016137fb565b945050602085013567ffffffffffffffff811115613b6257613b61614964565b5b613b6e878288016137fb565b9350506040613b7f87828801613829565b9250506060613b9087828801613829565b91505092959194509250565b60008060408385031215613bb357613bb2614969565b5b600083013567ffffffffffffffff811115613bd157613bd0614964565b5b613bdd858286016137fb565b9250506020613bee85828601613829565b9150509250929050565b600080600060608486031215613c1157613c10614969565b5b600084013567ffffffffffffffff811115613c2f57613c2e614964565b5b613c3b868287016137fb565b9350506020613c4c86828701613829565b925050604084013567ffffffffffffffff811115613c6d57613c6c614964565b5b613c79868287016137fb565b9150509250925092565b600080600060608486031215613c9c57613c9b614969565b5b600084013567ffffffffffffffff811115613cba57613cb9614964565b5b613cc6868287016137fb565b9350506020613cd786828701613829565b9250506040613ce886828701613829565b9150509250925092565b60008060008060808587031215613d0c57613d0b614969565b5b600085013567ffffffffffffffff811115613d2a57613d29614964565b5b613d36878288016137fb565b9450506020613d4787828801613829565b9350506040613d5887828801613829565b9250506060613d6987828801613829565b91505092959194509250565b600060208284031215613d8b57613d8a614969565b5b6000613d9984828501613829565b91505092915050565b60008060008060808587031215613dbc57613dbb614969565b5b6000613dca87828801613829565b945050602085013567ffffffffffffffff811115613deb57613dea614964565b5b613df7878288016137fb565b935050604085013567ffffffffffffffff811115613e1857613e17614964565b5b613e24878288016137fb565b925050606085013567ffffffffffffffff811115613e4557613e44614964565b5b613e51878288016137fb565b91505092959194509250565b60008060408385031215613e7457613e73614969565b5b6000613e8285828601613829565b9250506020613e9385828601613829565b9150509250929050565b600080600060608486031215613eb657613eb5614969565b5b6000613ec486828701613829565b9350506020613ed586828701613829565b9250506040613ee686828701613829565b9150509250925092565b60008060008060808587031215613f0a57613f09614969565b5b6000613f1887828801613829565b9450506020613f2987828801613829565b9350506040613f3a87828801613829565b925050606085013567ffffffffffffffff811115613f5b57613f5a614964565b5b613f67878288016137fb565b91505092959194509250565b60008060008060808587031215613f8d57613f8c614969565b5b6000613f9b87828801613829565b9450506020613fac87828801613829565b9350506040613fbd87828801613829565b9250506060613fce87828801613829565b91505092959194509250565b613fe38161473e565b82525050565b613ff281614750565b82525050565b6000614003826146e3565b61400d81856146ee565b935061401d818560208601614795565b6140268161496e565b840191505092915050565b600061403c826146e3565b61404681856146ff565b9350614056818560208601614795565b80840191505092915050565b600061406f602a836146ee565b915061407a8261497f565b604082019050919050565b6000614092601f836146ee565b915061409d826149ce565b602082019050919050565b60006140b56028836146ee565b91506140c0826149f7565b604082019050919050565b60006140d8601c836146ee565b91506140e382614a46565b602082019050919050565b60006140fb6025836146ee565b915061410682614a6f565b604082019050919050565b600061411e601c836146ee565b915061412982614abe565b602082019050919050565b60006141416027836146ee565b915061414c82614ae7565b604082019050919050565b60006141646025836146ee565b915061416f82614b36565b604082019050919050565b60006141876026836146ee565b915061419282614b85565b604082019050919050565b60006141aa6024836146ee565b91506141b582614bd4565b604082019050919050565b60006141cd602f836146ee565b91506141d882614c23565b604082019050919050565b60006141f06028836146ee565b91506141fb82614c72565b604082019050919050565b6000614213600e836146ee565b915061421e82614cc1565b602082019050919050565b6000614236602a836146ee565b915061424182614cea565b604082019050919050565b60006142596017836146ee565b915061426482614d39565b602082019050919050565b6142788161477c565b82525050565b600061428a8284614031565b915081905092915050565b60006020820190506142aa6000830184613fda565b92915050565b60006020820190506142c56000830184613fe9565b92915050565b600060208201905081810360008301526142e58184613ff8565b905092915050565b600060408201905081810360008301526143078185613ff8565b9050818103602083015261431b8184613ff8565b90509392505050565b6000608082019050818103600083015261433e8187613ff8565b905081810360208301526143528186613ff8565b905081810360408301526143668185613ff8565b9050818103606083015261437a8184613ff8565b905095945050505050565b6000604082019050818103600083015261439f8185613ff8565b90506143ae602083018461426f565b9392505050565b600060608201905081810360008301526143cf8186613ff8565b90506143de602083018561426f565b81810360408301526143f08184613ff8565b9050949350505050565b600060608201905081810360008301526144148186613ff8565b9050614423602083018561426f565b614430604083018461426f565b949350505050565b6000602082019050818103600083015261445181614062565b9050919050565b6000602082019050818103600083015261447181614085565b9050919050565b60006020820190508181036000830152614491816140a8565b9050919050565b600060208201905081810360008301526144b1816140cb565b9050919050565b600060208201905081810360008301526144d1816140ee565b9050919050565b600060208201905081810360008301526144f181614111565b9050919050565b6000602082019050818103600083015261451181614134565b9050919050565b6000602082019050818103600083015261453181614157565b9050919050565b600060208201905081810360008301526145518161417a565b9050919050565b600060208201905081810360008301526145718161419d565b9050919050565b60006020820190508181036000830152614591816141c0565b9050919050565b600060208201905081810360008301526145b1816141e3565b9050919050565b600060208201905081810360008301526145d181614206565b9050919050565b600060208201905081810360008301526145f181614229565b9050919050565b600060208201905081810360008301526146118161424c565b9050919050565b600060208201905061462d600083018461426f565b92915050565b6000608082019050614648600083018761426f565b818103602083015261465a8186613ff8565b9050818103604083015261466e8185613ff8565b905081810360608301526146828184613ff8565b905095945050505050565b60006146976146a8565b90506146a38282614824565b919050565b6000604051905090565b600067ffffffffffffffff8211156146cd576146cc61492b565b5b6146d68261496e565b9050602081019050919050565b600081519050919050565b600082825260208201905092915050565b600081905092915050565b60006147158261477c565b91506147208361477c565b9250828210156147335761473261489e565b5b828203905092915050565b60006147498261475c565b9050919050565b60008115159050919050565b600073ffffffffffffffffffffffffffffffffffffffff82169050919050565b6000819050919050565b82818337600083830152505050565b60005b838110156147b3578082015181840152602081019050614798565b838111156147c2576000848401525b50505050565b60006147d38261477c565b915060008214156147e7576147e661489e565b5b600182039050919050565b6000600282049050600182168061480a57607f821691505b6020821081141561481e5761481d6148cd565b5b50919050565b61482d8261496e565b810181811067ffffffffffffffff8211171561484c5761484b61492b565b5b80604052505050565b60006148608261477c565b91507fffffffffffffffffffffffffffffffffffffffffffffffffffffffffffffffff8214156148935761489261489e565b5b600182019050919050565b7f4e487b7100000000000000000000000000000000000000000000000000000000600052601160045260246000fd5b7f4e487b7100000000000000000000000000000000000000000000000000000000600052602260045260246000fd5b7f4e487b7100000000000000000000000000000000000000000000000000000000600052603260045260246000fd5b7f4e487b7100000000000000000000000000000000000000000000000000000000600052604160045260246000fd5b600080fd5b600080fd5b600080fd5b600080fd5b6000601f19601f8301169050919050565b7f736520686120657863656469646f20656c206e756d65726f206d6178696d6f2060008201527f6465206372656469746f00000000000000000000000000000000000000000000602082015250565b7f456c2061646472657373206e6f20707565646520657374617220766163696f00600082015250565b7f536f6c6f207065726d697469646f206120616c756d6e6f73206e6f206d61747260008201527f6963756c61646f73000000000000000000000000000000000000000000000000602082015250565b7f456c206e6f6d627265206e6f2070756564652073657220766163696f00000000600082015250565b7f536f6c6f207065726d697469646f206120616c756d6e6f73206d61747269637560008201527f6c61646f73000000000000000000000000000000000000000000000000000000602082015250565b7f6c612072657365727661206573206465206f74726f20616c756d6e6f00000000600082015250565b7f456c206e6f6d627265206465206c612061736967206e6f20707565646520736560008201527f7220766163696f00000000000000000000000000000000000000000000000000602082015250565b7f4e6f207365207065726d697465206c6120726563657063696f6e20646520646960008201527f6e65726f2e000000000000000000000000000000000000000000000000000000602082015250565b7f536f6c6f207065726d697469646f20612070726f666573206e6f20726567697360008201527f747261646f730000000000000000000000000000000000000000000000000000602082015250565b7f456c206e6f6d6272652064656c206c6162206e6f20707565646520736572207660008201527f6163696f00000000000000000000000000000000000000000000000000000000602082015250565b7f536f6c6f207065726d697469646f2061207475726e6f7320717565206e6f206560008201527f7374656e2072657365727661646f730000000000000000000000000000000000602082015250565b7f536f6c6f207065726d697469646f206120706572736f6e6173206e6f2072656760008201527f6973747261646f73000000000000000000000000000000000000000000000000602082015250565b7f5475726e6f20696e76616c69646f000000000000000000000000000000000000600082015250565b7f456c206e6f6d627265206465206c61207475726e6f206e6f207075656465206560008201527f7374617220766163696f00000000000000000000000000000000000000000000602082015250565b7f536f6c6f207065726d697469646f20616c206f776e6572000000000000000000600082015250565b614d6b8161473e565b8114614d7657600080fd5b50565b614d828161477c565b8114614d8d57600080fd5b5056fea2646970667358221220085f26f3c6d7deed9fed85536f9b0222c95ceab8490d715f8ab0612f21cc3ce764736f6c63430008070033",
  "immutableReferences": {},
  "source": "pragma solidity ^0.8.7;\r\n//pragma experimental ABIEncoderV2;//enabled when passing an array of string(struct) as a function paramete\r\n\r\n\r\n/*\r\n*falta : \r\n*crear lo de las asignaturas con los laborarios y puestos a los que perteneces y las caracteristicas que desepean cada puesto \r\n*crear las reservas , se va a reservar por semana un puesto de un determinado laboratorio \r\n*/\r\n\r\n\r\ncontract ReslabEtsit {\r\n    \r\n   \r\n    /**\r\n     * address del profesor que ha desplegado el contrato.\r\n     * El contrato lo despliega el profesor.\r\n     */\r\n    address public owner;\r\n    address public profesorP;\r\n     \r\n    \r\n \r\n\r\n    \r\n    \r\n   \r\n   // enum Horario { turnom ,turnot}//poenr horas y turnos en enum???? array de horas \r\n    \r\n    struct DatosPuesto {\r\n\r\n\r\n    \r\n\tstring nombre;\r\n\t\r\n\tuint indexlab;\r\n\r\n       \r\n    }\r\n    \r\n    \r\n    struct DatosTurno{\r\n        string nombre;\r\n        uint fecha;\r\n      \r\n    }\r\n    \r\n    \r\n   \r\n   \r\n   \r\n    /**\r\n    * datos de todos los labs con sus parametro en la pantalla de inicio\r\n    * DUDA -> QUIERO PONERARRAY DE STRING DE ASIGNATURA!!\r\n    **/\r\n    struct DatosLaboratorio {\r\n        uint laboratorioindex;\r\n        \r\n        string nombreL;\r\n        string asignaura;\r\n        string info;\r\n        \r\n        //string[] asignaturaL;\r\n       \r\n    }\r\n\r\n\r\n\r\n\r\n    \r\n    \r\n    /**\r\n    * datos del alumno que se registra \r\n    **/\r\n   // datos persona \r\n    struct DatosPersona {\r\n\taddress dir;\r\n    }\r\n\r\n    /// Datos de un alumno.\r\n    struct DatosAlumno {\r\n        string nombre;\r\n        string email;\r\n        \r\n    }\r\n    \r\n    /**\r\n     * Datos profe que se registra \r\n     * */\r\n     \r\n    \r\n    struct DatosProfesor{\r\n        string nombreP;\r\n        string emailP;\r\n        string asignaturaP;\r\n        string departamentoP;\r\n    }\r\n    \r\n    \r\n\r\n\r\n\r\n\r\n\r\n    \r\n    struct DatosAsignatura{\r\n        string nombre;\r\n       \r\n        uint indexLab;\r\n        string info;\r\n        \r\n        \r\n    }\r\n    \r\n    \r\n\r\n    struct CreditoDiario {\r\n        uint creditoDiario;\r\n    }\r\n    \r\n    \r\n    /**\r\n     * \r\n\r\n     si esta reservado por un alumno\r\n     * */\r\n     \r\n     struct DatosReserva{\r\n         address dirAlumno;\r\n      \r\n     }\r\n     \r\n     /**\r\n      * Datos de mireserva //FALTA PUESTO\r\n      * */\r\n      \r\n      struct ReservaAlumno{\r\n          string lab;\r\n          uint fecha;\r\n          uint estado;\r\n          //string puesto;\r\n\r\n      }\r\n      \r\n      // acceder a los datos de una persona dada su direccion\r\n    mapping (address => DatosPersona) public datosPersona;\r\n    \r\n    /// Acceder a los datos de un alumno dada su direccion.\r\n    mapping (address => DatosAlumno) public datosAlumno;\r\n    \r\n      /// Acceder a los datos de un profe dada su direccion.\r\n    mapping (address => DatosProfesor) public datosProfesor;\r\n    \r\n    mapping (address => DatosAsignatura)  datosAsignatura;\r\n    \r\n    \r\n    mapping (address => DatosLaboratorio)  datosLaboratorio;\r\n\r\n    mapping (address => DatosTurno)  datosTurno;\r\n\r\n    //mapping(uint => Laboratorio) public labPuestos; //acceder a los puestos del lab dada la info del lab\r\n  \r\n   // mapping (address => DatosPuesto)  datosPuesto;\r\n    \r\n    // Array con las direcciones de los alumnos matriculados.\r\n    address[] public matriculas;\r\n    \r\n    \r\n    //array con las direcciones de los profes registrados \r\n    address[] public profesRegistrados;\r\n    \r\n        // Array con las direcciones de las personas registradas.\r\n    address[] public registradosP;\r\n\r\n    \r\n    //Array credito semanal \r\n    //address [] public creditosemanal;\r\n    \r\n   //array con las direcciones de las asignaturas registradas \r\n   address[] public asignaturasRegistradasdir;\r\n\r\n    DatosAsignatura[] public asignaturasRegistradas;\r\n    \r\n    \r\n    // labs en la escuela\r\n    DatosLaboratorio[] public laboratoriosRegistrados;\r\n    //reservas de la escuela\r\n\r\n    // puestos en la escuela\r\n    DatosPuesto[] public puestosRegistrados;\r\n    \r\n \r\n\r\n    // array turnos de los puestos\r\n\r\n    DatosTurno[] public turnosRegistrados;\r\n        \r\n   \r\n\r\n     //reserva para un usuario \r\n  \r\n    mapping (address => ReservaAlumno) public reservasAlumno;\r\n    \r\n    \r\n    //turno de la escuela\r\n\r\n    //mapping (string => mapping (string  => uint[] )) public turnos;\r\n    \r\n    // Mapping para evitar duplicados de turnos devuelve un bool\r\n    //dado un puesto y una fecha  y un (turno) te devuelve un booleano \r\n    mapping (uint => mapping  ( uint => mapping ( uint => bool )))  turnos_existentes;\r\n    \r\n    /// Devuelve las direcciones de las personas que han asistido a algun lab en alguna de las fechas y en algun turno.\r\n    mapping (string => mapping (string => mapping (uint => address[] ))) public personas;\r\n   \r\n    /// Devuelve las Direcciones de las personas que han asistido a algun lab y en alguna de las fechas.\r\n    mapping (string => mapping (string => address[] )) public personasTotales;\r\n\r\n    // devuelve los puestos totales qu tienes los labs???????????????como lo hago  lo que quiero es haya los puestos totales que tiene cada laboratorio??????\r\n\r\n    mapping(string => string[]) public puestosTotales;\r\n    \r\n\r\n\r\n\r\n\r\n    //IMPORTANTEEEEEEEEEEEE!\r\n    // devuelve array con los indices de los puestos y la clave es un array de enteros laboratorio \r\n    mapping (uint=> uint[]) public puestos;\r\n\r\n\r\n\r\n    //dado la fecha, entrada turno y el el indice de laboratorio quiero que devuelva un array con el numero de puestos\r\n    mapping (string => mapping (uint => mapping (uint => uint[]))) public puestosBuscados;\r\n\r\n    \r\n    //dado el numero lab, fecha (numero de milisegundos) , dado turno ( todos los turnos que hay en un puesto en un dia), te devuelva la reserva\r\n  //  mapping( uint =>mapping (uint=> mapping (uint=> DatosReserva ))) public puestosReservados;\r\n\r\n\r\n    \r\n    //dado el numero puesto, turno (numero de milisegundos) ,  te devuelva la reserva\r\n   mapping( uint =>mapping (uint=> DatosReserva )) public datosReserva;\r\n\r\n\r\n   //\r\n    //dado el numero lab, de un puesto, fecha (numero de milisegundos) ,  y turno te devuelva la reserva\r\n\r\n     mapping( uint =>mapping (uint=> mapping (uint=> mapping (uint=> DatosReserva )))) public datosReservaPorLabPuestoFechaTurno;\r\n\r\n     //dado el numero lab, de un puesto,  y turno te devuelva la reserva\r\n\r\n     mapping( uint =>mapping (uint=>  mapping (uint=> DatosReserva ))) public datosReservaPorLabPuestoTurno;\r\n\r\n\r\n\r\n     // dado la direcion de un alumno , una asignatura y un dia  te da un contador de reservas que lleva\r\n\r\n     mapping( address=>mapping (string=>mapping (uint => uint)))  public contadorCredito;\r\n\r\n\r\n\r\n     \r\n\r\n\r\n\r\n    //te devuelve array de puestos reservados tal lab y tal fecha \r\n    //mapping( uint =>mapping (uint=> DatosPuesto[] )) public puestosReservadosLab;\r\n\r\n    //dado el indice de laboratorio un array de los indices de los puestos que estan en ese laboratorio \r\n    mapping(uint=> uint[]) public puestosDelLaboratorio;\r\n\r\n\r\n    //dado el indice de laboratorio y la fecha te devuelva los indices de los puestos que estan en ese laboratorio \r\n    mapping(uint=> mapping( uint => uint[])) public puestosDelLaboratorioFecha;\r\n\r\n\r\n    //dado el indice de una asignatura te devuelve el indice de un lab \r\n    mapping(uint => uint) public indiceLabPorAsignatura;\r\n\r\n    //dado una fecha y un lab cree una rray de puestos \r\n\r\n    mapping(uint=> mapping( uint => DatosPuesto[])) public arrayPuestosDelLab;\r\n\r\n\r\n    //dado el index de un puesto registrado \r\n    //dada la fecha ( string en formaro YYYYYMMD??????\r\n    // dado la hora del turno (de 0 a 23) \r\n    //devuelve el address del alumnos que ha reservado el turno\r\n    mapping(uint => mapping(uint => mapping (uint=> address))) reservasDelAlumno;\r\n\r\n\r\n       /// Dado el index de un puesto y una fecha te devuelve los turnos de un lab .\r\n    mapping (uint => mapping (uint  => uint[] )) public turnosPorPuesto;\r\n\r\n    \r\n    \r\n    \r\n    \r\n    /*\r\n     * Constructor.\r\n     * \r\n     * @param _nombre Nombre de la asignatura.\r\n     * //habria qu eponer nombre puesto /lab /alumno etc \r\n    \r\n     */\r\n    /*constructor(string memory _nombre) {\r\n        \r\n        bytes memory bn = bytes(_nombre);\r\n        require(bn.length != 0, \"El nombre de la asignatura no puede ser vacio\");\r\n       \r\n       \r\n      \r\n        owner = msg.sender;\r\n        nombre = _nombre;\r\n        \r\n        \r\n     \r\n        \r\n    }*/\r\n    \r\n    constructor()  {\r\n        owner = msg.sender;\r\n    } //?????????????????????????????????\r\n\r\n    \r\n    \r\n    \r\n    \r\n    \r\n/**\r\n     * Te devuelve el numero de puestos registrados\r\n     *\r\n     * @return El numero de puestos creadas.\r\n     */\r\n    /*function puestosLength() public view returns(uint) {\r\n        return puestosReservadosLab.length;\r\n    }\r\n    \r\n*/\r\n\r\n    // te devuelve la longitud de los puestos que hay en un laboratorio \r\n\r\n    function puestosDelLaboratorioLength(uint _indexlab) public view returns(uint) {\r\n        return puestosDelLaboratorio[_indexlab].length;\r\n\r\n\r\n    }\r\n\r\n\r\n\r\n  /**\r\n     * Te devuelve el numero de turnos\r\n     *\r\n     * @return El numero de turnos creadas.\r\n     */\r\n\r\n    function turnosLength() public view returns(uint) {\r\n        return turnosRegistrados.length;\r\n    }\r\n    \r\n\r\n    //devuelve la longitud del array de los puestos de un laboratorio \r\n    function puestosLaboratorioLength(uint _laboratorioindex) public view returns(uint) {\r\n        return puestos[_laboratorioindex].length;\r\n    }\r\n    \r\n    \r\n     /**\r\n     * El numero de labs  registrados\r\n     *\r\n     * @return El numero de labs creadas.\r\n     */\r\n    function laboratoriosLength() public view returns(uint) {\r\n        return laboratoriosRegistrados.length;\r\n    }\r\n    \r\n    \r\n    \r\n\r\n\r\n    /**\r\n     * Permite obtener la longitud del array de personasTotales.\r\n     * \r\n     */\r\n    function personasLength(string memory _nombre, string memory _fecha) public view returns(uint) {\r\n\r\n        uint longitud = personasTotales[_fecha][_nombre].length;\r\n\r\n        if(longitud == 0){\r\n        longitud = 1;\r\n\t    }\r\n\r\n  \t    return longitud;\r\n\r\n    }\r\n\r\n\r\n\r\n      /**\r\n     * Permite obtener la longitud del array de puestosTotale del lab\r\n     * \r\n     */\r\n    function puestosLength2(string memory _nombre) public view returns(uint) {\r\n\r\n        uint longitud2 = puestosTotales[_nombre].length;\r\n\r\n        if(longitud2 == 0){\r\n        longitud2 = 1;\r\n\t    }\r\n\r\n  \t    return longitud2;\r\n\r\n    }\r\n\r\n\r\n\r\n    /**\r\n     * Permite obtener un address del array de personas.\r\n     * \r\n     */\r\n    function dirPersonas(string memory _nombre, string memory _fecha, uint _indice) public view returns(address) {\r\n\r\n        if(personasTotales[_fecha][_nombre].length > 0){\r\n\r\n        address _dirUno = personasTotales[_fecha][_nombre][_indice];\r\n        return _dirUno;\r\n\r\n        }else{\r\n        return msg.sender;\r\n\t    }\t\t\t\r\n\t\r\n    }\r\n    \r\n    /**\r\n     * Obtiene los datos de una persona registrada.\r\n     * \r\n     * @param persona La direccion de una persona.\r\n     * \r\n     * @return los datos de una persona registrada.\r\n     */\r\n    function obtenerDatosPersona(address persona)  public view returns(address) {\r\n\t\r\n        \r\n        if(!estaRegistrado(persona)){\r\n        return address(0);\r\n        } else{\t\r\n        return datosPersona[persona].dir;\r\n\t}\r\n\t\r\n        \r\n        \r\n    } \r\n\r\n\r\n    //puestos que hay en un lab. Coger el array que te da el mapping de puestos y devolver su .length\r\n\r\n    function puestosdeLaboratorio(uint _laboratorioindex) public view returns(uint) {\r\n\r\n        return puestos[_laboratorioindex].length;\r\n    }\r\n    \r\n\r\n\r\n     // puestos que hay en un lab segun la fecha, la entrada \r\n    function BuscaPuestoLab( string  memory _fecha, uint _entradaTurno,uint _laboratorioindex) public view returns(uint) {\r\n\r\n        return puestosBuscados[_fecha][_entradaTurno][_laboratorioindex].length;\r\n    }\r\n\r\n\r\n\r\n\r\n \r\n\r\n\r\n\r\n    /** Un alumno crea una reserva \r\n    */\r\n\r\n    \r\n    \r\n    \r\n\r\n        function guardarReserva(uint  _puestoId, uint  _fecha,  uint _turno, string memory _asignatura)  public {\r\n        \r\n\t\r\n       \r\n            require(estaMatriculado(msg.sender),\"Solo permitido a alumnos no matriculados\");\r\n            require(_turno<24, \"Turno invalido\");\r\n            require(!estaReservado(msg.sender),\"Solo permitido a turnos que no esten reservados\");\r\n            require(contadorCredito[msg.sender][_asignatura][_fecha]<3, \"se ha excedido el numero maximo de credito\");\r\n\r\n     \r\n           // contadorCredito[msg.sender][_asignatura][_fecha]=0;\r\n\r\n            DatosReserva memory reserva = DatosReserva(msg.sender);\r\n            \r\n\r\n            datosReservaPorLabPuestoTurno[_puestoId][_fecha][_turno]= reserva;\r\n            contadorCredito[msg.sender][_asignatura][_fecha]++;\r\n            \r\n\r\n\r\n        }\r\n\r\n        \r\n    /** Un alumno quita su reserva - ( solo profe , owner y el propio alumnos \r\n    */\r\n\r\n\r\n       function quitarReserva(uint  _puestoId, uint  _fecha,  uint _turno,  string memory _asignatura) public {\r\n        \r\n\t\r\n       \r\n\r\n            require(estaMatriculado(msg.sender),\"Solo permitido a alumnos no matriculados\");\r\n            require(_turno<24, \"Turno invalido\");\r\n           // require(estaReservado(msg.sender),\"Solo permitido a turnos que  esten reservados\");\r\n            require(datosReservaPorLabPuestoTurno[_puestoId][_fecha][_turno].dirAlumno==msg.sender, \"la reserva es de otro alumno\");\r\n            \r\n\r\n         datosReservaPorLabPuestoTurno[_puestoId][_fecha][_turno]= DatosReserva(address(0x0));\r\n            contadorCredito[msg.sender][_asignatura][_fecha]--;\r\n\r\n        }\r\n     \r\n  \r\n    \r\n\r\n\r\n\r\n\r\n\r\n\r\n\r\n\r\n\r\n\r\n\r\n\r\n\r\n    \r\n    \r\n\r\n    \r\n    \r\n    \r\n    \r\n        \r\n     //te crea un laboratorio \r\n\r\n    function creaLaboratorio( uint  _laboratorioindex,string memory _nombreL,string memory _asignaura,string memory _Info) soloOwner public returns (uint) {\r\n        \r\n        bytes memory bn = bytes(_nombreL);\r\n        require(bn.length != 0, \"El nombre del lab no puede ser vacio\");\r\n        \r\n        laboratoriosRegistrados.push(DatosLaboratorio(_laboratorioindex,_nombreL,_asignaura,_Info));\r\n        return laboratoriosRegistrados.length - 1;\r\n    }\r\n    \r\n     // te rea una asignatura \r\n\r\n    function creaAsignatura( string memory _nombreAsig, uint _indexLab,string memory _Info)  soloOwner public returns (uint) {\r\n        \r\n        bytes memory bn = bytes(_nombreAsig);\r\n        require(bn.length != 0, \"El nombre de la asig no puede ser vacio\");\r\n        \r\n       asignaturasRegistradas.push(DatosAsignatura(_nombreAsig,_indexLab,_Info));\r\n        return asignaturasRegistradas.length - 1;\r\n    }\r\n    \r\n    \r\n    \r\n    \r\n    //te crea un puesto \r\n\r\n    function creaPuesto(string memory _NombreP,uint  _indexlab) soloOwner public returns (uint) {\r\n        \r\n        bytes memory bn = bytes(_NombreP);\r\n        require(bn.length != 0, \"El nombre del lab no puede ser vacio\");\r\n        \r\n        puestosRegistrados.push(DatosPuesto(_NombreP,_indexlab));\r\n        uint id = puestosRegistrados.length -1;\r\n\r\n        puestosDelLaboratorio[_indexlab].push(id);\r\n\r\n        return id;\r\n    \r\n    }   \r\n\r\n\r\n    //te crea un turno de laboratorio \r\n\r\n    function creaTurno(string memory _nombre, uint _fecha) soloOwner public returns (uint) {\r\n    \r\n    bytes memory bn = bytes(_nombre);\r\n    require(bn.length != 0, \"El nombre de la turno no puede estar vacio\");\r\n    \r\n    turnosRegistrados.push(DatosTurno(_nombre, _fecha));\r\n    return turnosRegistrados.length - 1;\r\n} \r\n    \r\n \r\n     /**\r\n     * El numero de alumnos matriculados.\r\n     *\r\n     * @return El numero de alumnos matriculados.\r\n     */\r\n    function matriculasLength() public view returns(uint) {\r\n        return matriculas.length;\r\n    }\r\n    \r\n    \r\n    \r\n      /**\r\n     * El numero de profes registrados.\r\n     *\r\n     * .\r\n     */\r\n    function profesRegistradosLength() public view returns(uint) {\r\n        return profesRegistrados.length;\r\n    }\r\n    \r\n    \r\n       /**\r\n     * El numero de asignaturas registrados.\r\n     *\r\n     * .\r\n     */\r\n    function asignaturasRegistradasLength() public view returns(uint) {\r\n        return asignaturasRegistradas.length;\r\n    }\r\n    \r\n    \r\n    \r\n    \r\n    \r\n      /**\r\n     * numero de credito semanal \r\n     *\r\n     * @return El numero de credito semanal \r\n     * \r\n     */\r\n     /*function creditosemanalLength() public view returns(uint) {\r\n        return creditosemanal.length;\r\n    }???????????????????????????*/\r\n     \r\n    \r\n    \r\n    \r\n    \r\n    /**\r\n     * Los alumnos pueden automatricularse con el metodo automatricula.\r\n     * \r\n     * Impedir que se pueda meter un nombre vacio.\r\n     *\r\n     * @param _nombre El nombre del alumno. \r\n     * @param _email  El email del alumno.\r\n     */\r\n    function automatricula(string memory _nombre, string memory _email) noMatriculados public {\r\n        //revert(\"siempre falla\");\r\n        bytes memory b = bytes(_nombre);\r\n        require(b.length != 0, \"El nombre no puede ser vacio\");\r\n        \r\n        DatosAlumno memory datos = DatosAlumno(_nombre, _email);\r\n        \r\n        datosAlumno[msg.sender] = datos;\r\n        \r\n        matriculas.push(msg.sender);\r\n        \r\n    }\r\n    \r\n    \r\n    function autoregistroP() noRegistradosP public {\r\n    \r\n        require(msg.sender!=address(0), \"El address no puede estar vacio\");\r\n        \r\n        datosPersona[msg.sender] = DatosPersona(msg.sender);\r\n        \r\n        registradosP.push(msg.sender);\r\n    \r\n    }\r\n    \r\n    \r\n  \r\n    function autoRegistro(string memory _nombreP, string memory _emailP,string memory _asignaturaP,string memory _departamentoP ) noRegistrados public {\r\n        \r\n        bytes memory b = bytes(_nombreP);\r\n        require(b.length != 0, \"El nombre no puede ser vacio\");\r\n        \r\n        DatosProfesor memory datosP = DatosProfesor(_nombreP, _emailP,_asignaturaP,_departamentoP);\r\n        \r\n        datosProfesor[msg.sender] = datosP;\r\n        \r\n       profesRegistrados.push(msg.sender);\r\n        \r\n    }\r\n    \r\n\r\n\r\n\r\n    \r\n    \r\n    \r\n    \r\n    \r\n    \r\n    \r\n    \r\n    \r\n    \r\n    /**\r\n     * Permite a un alumno obtener sus propios datos.\r\n     * \r\n     * @return _nombre El nombre del alumno que invoca el metodo.\r\n     * @return _email  El email del alumno que invoca el metodo.\r\n     */\r\n    function quienSoy() soloMatriculados public view returns (string memory _nombre, string memory _email) {\r\n        DatosAlumno memory datos = datosAlumno[msg.sender];\r\n        _nombre = datos.nombre;\r\n        _email = datos.email;\r\n    }\r\n    \r\n\r\n    /**\r\n     * Permite a un profe obtener sus propios datos.\r\n     * \r\n     * \r\n    \r\n    function quienSoyP() soloRegistrados public view returns (string memory _nombreP, string memory _emailP,string memory _asignaturaP,string memory _departamentoP) {\r\n        DatosProfesor memory datosP = datosProfesor[msg.sender];\r\n        _nombreP = datosP.nombreP;\r\n        _emailP = datosP.emailP;\r\n        _departamentoP = datosP.departamentoP;\r\n        _asignaturaP = datosP.asignaturaP;\r\n    }\r\n    \r\n    \r\n    \r\n\r\n    \r\n    \r\n    /**\r\n     * Consulta si una direccion pertenece a un alumno matriculado.\r\n     * \r\n     * @param alumno La direccion de un alumno.\r\n     * \r\n     * @return true si es una alumno matriculado.\r\n     */\r\n    function estaMatriculado(address alumno) private view returns (bool) {\r\n      \r\n        string memory _nombre = datosAlumno[alumno].nombre;\r\n        \r\n        bytes memory b = bytes(_nombre);\r\n        \r\n        return b.length != 0;\r\n    } \r\n\r\n       /**\r\n     * Consulta si un turno pertenece a un alumno matriculado.\r\n     * \r\n     * @param alumno La direccion de un alumno.\r\n     * \r\n     * @return true si es una alumno matriculado.\r\n     */\r\n\r\n\r\n       function estaReservado(address alumno) private view returns (bool) {\r\n      \r\n        string memory _nombre = datosTurno[alumno].nombre;\r\n        \r\n        bytes memory b = bytes(_nombre);\r\n        \r\n        return b.length != 0;\r\n    }\r\n    \r\n\r\n\r\n     /**\r\n     * Consulta si una direccion pertenece a un profe registrado.\r\n     * \r\n     * \r\n     */\r\n    \r\n       function estaRegistrado(address profesor) private view returns (bool) {\r\n      \r\n        string memory _nombreP = datosProfesor[profesor].nombreP;\r\n        \r\n        bytes memory b = bytes(_nombreP);\r\n        \r\n        return b.length != 0;\r\n    }\r\n\r\n\r\n    \r\n    function estaRegistradoP(address persona) public view returns (bool) {\r\n\r\n\taddress _dir = datosPersona[persona].dir;\r\n        return _dir!=address(0);\r\n    } \r\n    \r\n    \r\n\r\n   \r\n\r\n\r\n\r\n\r\n           /**\r\n     * Modificador para que una funcion solo la pueda ejecutar el profesor.\r\n     * \r\n     *\r\n     */\r\n\r\n    modifier soloOwner() {\r\n        \r\n        require(msg.sender == owner, \"Solo permitido al owner\");\r\n        _;\r\n    }\r\n    \r\n    \r\n    /**\r\n     * Modificador para que una funcion solo la pueda ejecutar el profesor.\r\n     * \r\n     *\r\n     */\r\n    modifier soloProfesor() {\r\n        \r\n        require(msg.sender == profesorP, \"Solo permitido al profesor\");\r\n        _;\r\n    }\r\n    \r\n    \r\n    /**\r\n     * Modificador para que una funcion solo la pueda ejecutar un alumno matriculado.\r\n     */\r\n    modifier soloMatriculados() {\r\n        \r\n        require(estaMatriculado(msg.sender), \"Solo permitido a alumnos matriculados\");\r\n        _;\r\n    }\r\n    \r\n    \r\n      modifier soloRegistrados() {\r\n        \r\n        require(estaRegistrado(msg.sender), \"Solo permitido a profes registrados\");\r\n        _;\r\n    }\r\n    \r\n    \r\n \r\n    /**\r\n     * Modificador para que una funcion solo la pueda ejecutar un alumno no matriculado aun.\r\n     */\r\n    modifier noMatriculados() {\r\n        \r\n        require(!estaMatriculado(msg.sender), \"Solo permitido a alumnos no matriculados\");\r\n        _;\r\n    }\r\n    \r\n    \r\n    \r\n      modifier noRegistrados() {\r\n        \r\n        require(!estaRegistrado(msg.sender), \"Solo permitido a profes no registrados\");\r\n        _;\r\n    }\r\n    \r\n        \r\n      modifier noRegistradosP() {\r\n        \r\n        require(!estaRegistradoP(msg.sender), \"Solo permitido a personas no registrados\");\r\n        _;\r\n    }\r\n    \r\n    \r\n       receive() external payable {\r\n        revert(\"No se permite la recepcion de dinero.\");\r\n    }\r\n}\r\n",
  "sourcePath": "C:\\Users\\Paula Huertas\\reslabetsit\\contracts\\ReslabEtsit.sol",
  "compiler": {
    "name": "solc",
    "version": "0.8.7+commit.e28d00a7.Emscripten.clang"
  },
  "schemaVersion": "3.4.7",
  "updatedAt": "2022-11-10T20:12:24.981Z",
  "networkType": "ethereum",
  "devdoc": {
    "kind": "dev",
    "methods": {
      "automatricula(string,string)": {
        "params": {
          "_email": "El email del alumno.",
          "_nombre": "El nombre del alumno. "
        }
      },
      "laboratoriosLength()": {
        "returns": {
          "_0": "El numero de labs creadas."
        }
      },
      "matriculasLength()": {
        "returns": {
          "_0": "El numero de alumnos matriculados."
        }
      },
      "obtenerDatosPersona(address)": {
        "params": {
          "persona": "La direccion de una persona. "
        },
        "returns": {
          "_0": "los datos de una persona registrada."
        }
      },
      "puestosDelLaboratorioLength(uint256)": {
        "returns": {
          "_0": "El numero de puestos creadas."
        }
      },
      "quienSoy()": {
        "returns": {
          "_email": " El email del alumno que invoca el metodo.",
          "_nombre": "El nombre del alumno que invoca el metodo."
        }
      },
      "turnosLength()": {
        "returns": {
          "_0": "El numero de turnos creadas."
        }
      }
    },
    "version": 1
  },
  "userdoc": {
    "kind": "user",
    "methods": {
      "asignaturasRegistradasLength()": {
        "notice": "El numero de asignaturas registrados. ."
      },
      "automatricula(string,string)": {
        "notice": "Los alumnos pueden automatricularse con el metodo automatricula.  Impedir que se pueda meter un nombre vacio."
      },
      "datosAlumno(address)": {
        "notice": "Acceder a los datos de un alumno dada su direccion."
      },
      "datosProfesor(address)": {
        "notice": "Acceder a los datos de un profe dada su direccion."
      },
      "dirPersonas(string,string,uint256)": {
        "notice": "Permite obtener un address del array de personas. "
      },
      "guardarReserva(uint256,uint256,uint256,string)": {
        "notice": "Un alumno crea una reserva "
      },
      "laboratoriosLength()": {
        "notice": "El numero de labs  registrados"
      },
      "matriculasLength()": {
        "notice": "El numero de alumnos matriculados."
      },
      "obtenerDatosPersona(address)": {
        "notice": "Obtiene los datos de una persona registrada. "
      },
      "owner()": {
        "notice": "address del profesor que ha desplegado el contrato. El contrato lo despliega el profesor."
      },
      "personas(string,string,uint256,uint256)": {
        "notice": "Devuelve las direcciones de las personas que han asistido a algun lab en alguna de las fechas y en algun turno."
      },
      "personasLength(string,string)": {
        "notice": "Permite obtener la longitud del array de personasTotales. "
      },
      "personasTotales(string,string,uint256)": {
        "notice": "Devuelve las Direcciones de las personas que han asistido a algun lab y en alguna de las fechas."
      },
      "profesRegistradosLength()": {
        "notice": "El numero de profes registrados. ."
      },
      "puestosDelLaboratorioLength(uint256)": {
        "notice": "Te devuelve el numero de puestos registrados"
      },
      "puestosLength2(string)": {
        "notice": "Permite obtener la longitud del array de puestosTotale del lab "
      },
      "quienSoy()": {
        "notice": "Permite a un alumno obtener sus propios datos. "
      },
      "quitarReserva(uint256,uint256,uint256,string)": {
        "notice": "Un alumno quita su reserva - ( solo profe , owner y el propio alumnos "
      },
      "turnosLength()": {
        "notice": "Te devuelve el numero de turnos"
      },
      "turnosPorPuesto(uint256,uint256,uint256)": {
        "notice": "Dado el index de un puesto y una fecha te devuelve los turnos de un lab ."
      }
    },
    "version": 1
  }
}