{
  "contractName": "ReslabEtsit",
  "abi": [
    {
      "inputs": [],
      "stateMutability": "nonpayable",
      "type": "constructor"
    },
    {
      "inputs": [
        {
          "internalType": "uint256",
          "name": "",
          "type": "uint256"
        }
      ],
      "name": "creditosemanal",
      "outputs": [
        {
          "internalType": "address",
          "name": "",
          "type": "address"
        }
      ],
      "stateMutability": "view",
      "type": "function",
      "constant": true
    },
    {
      "inputs": [
        {
          "internalType": "address",
          "name": "",
          "type": "address"
        }
      ],
      "name": "datosAlumno",
      "outputs": [
        {
          "internalType": "string",
          "name": "nombre",
          "type": "string"
        },
        {
          "internalType": "string",
          "name": "email",
          "type": "string"
        }
      ],
      "stateMutability": "view",
      "type": "function",
      "constant": true
    },
    {
      "inputs": [
        {
          "internalType": "string",
          "name": "",
          "type": "string"
        },
        {
          "internalType": "string",
          "name": "",
          "type": "string"
        },
        {
          "internalType": "uint256",
          "name": "",
          "type": "uint256"
        },
        {
          "internalType": "address",
          "name": "",
          "type": "address"
        }
      ],
      "name": "datosLab",
      "outputs": [
        {
          "internalType": "address",
          "name": "dir",
          "type": "address"
        },
        {
          "internalType": "string",
          "name": "fecha",
          "type": "string"
        },
        {
          "internalType": "string",
          "name": "entradaTurno",
          "type": "string"
        },
        {
          "internalType": "string",
          "name": "salidaTurno",
          "type": "string"
        },
        {
          "internalType": "string",
          "name": "puesto",
          "type": "string"
        },
        {
          "internalType": "string",
          "name": "estado",
          "type": "string"
        },
        {
          "internalType": "string",
          "name": "asignatura",
          "type": "string"
        },
        {
          "internalType": "string",
          "name": "info",
          "type": "string"
        }
      ],
      "stateMutability": "view",
      "type": "function",
      "constant": true
    },
    {
      "inputs": [
        {
          "internalType": "address",
          "name": "",
          "type": "address"
        }
      ],
      "name": "datosPersona",
      "outputs": [
        {
          "internalType": "address",
          "name": "dir",
          "type": "address"
        }
      ],
      "stateMutability": "view",
      "type": "function",
      "constant": true
    },
    {
      "inputs": [
        {
          "internalType": "address",
          "name": "",
          "type": "address"
        }
      ],
      "name": "datosProfesor",
      "outputs": [
        {
          "internalType": "string",
          "name": "nombreP",
          "type": "string"
        },
        {
          "internalType": "string",
          "name": "emailP",
          "type": "string"
        },
        {
          "internalType": "string",
          "name": "asignaturaP",
          "type": "string"
        },
        {
          "internalType": "string",
          "name": "departamentoP",
          "type": "string"
        }
      ],
      "stateMutability": "view",
      "type": "function",
      "constant": true
    },
    {
      "inputs": [
        {
          "internalType": "uint256",
          "name": "",
          "type": "uint256"
        }
      ],
      "name": "laboratoriosRegistrados",
      "outputs": [
        {
          "internalType": "uint256",
          "name": "labId",
          "type": "uint256"
        },
        {
          "internalType": "string",
          "name": "nombreL",
          "type": "string"
        }
      ],
      "stateMutability": "view",
      "type": "function",
      "constant": true
    },
    {
      "inputs": [
        {
          "internalType": "uint256",
          "name": "",
          "type": "uint256"
        }
      ],
      "name": "matriculas",
      "outputs": [
        {
          "internalType": "address",
          "name": "",
          "type": "address"
        }
      ],
      "stateMutability": "view",
      "type": "function",
      "constant": true
    },
    {
      "inputs": [],
      "name": "owner",
      "outputs": [
        {
          "internalType": "address",
          "name": "",
          "type": "address"
        }
      ],
      "stateMutability": "view",
      "type": "function",
      "constant": true
    },
    {
      "inputs": [
        {
          "internalType": "string",
          "name": "",
          "type": "string"
        },
        {
          "internalType": "string",
          "name": "",
          "type": "string"
        },
        {
          "internalType": "uint256",
          "name": "",
          "type": "uint256"
        },
        {
          "internalType": "uint256",
          "name": "",
          "type": "uint256"
        }
      ],
      "name": "personas",
      "outputs": [
        {
          "internalType": "address",
          "name": "",
          "type": "address"
        }
      ],
      "stateMutability": "view",
      "type": "function",
      "constant": true
    },
    {
      "inputs": [
        {
          "internalType": "string",
          "name": "",
          "type": "string"
        },
        {
          "internalType": "string",
          "name": "",
          "type": "string"
        },
        {
          "internalType": "uint256",
          "name": "",
          "type": "uint256"
        }
      ],
      "name": "personasTotales",
      "outputs": [
        {
          "internalType": "address",
          "name": "",
          "type": "address"
        }
      ],
      "stateMutability": "view",
      "type": "function",
      "constant": true
    },
    {
      "inputs": [
        {
          "internalType": "uint256",
          "name": "",
          "type": "uint256"
        }
      ],
      "name": "profesRegistrados",
      "outputs": [
        {
          "internalType": "address",
          "name": "",
          "type": "address"
        }
      ],
      "stateMutability": "view",
      "type": "function",
      "constant": true
    },
    {
      "inputs": [],
      "name": "profesorP",
      "outputs": [
        {
          "internalType": "address",
          "name": "",
          "type": "address"
        }
      ],
      "stateMutability": "view",
      "type": "function",
      "constant": true
    },
    {
      "inputs": [
        {
          "internalType": "uint256",
          "name": "",
          "type": "uint256"
        }
      ],
      "name": "registradosP",
      "outputs": [
        {
          "internalType": "address",
          "name": "",
          "type": "address"
        }
      ],
      "stateMutability": "view",
      "type": "function",
      "constant": true
    },
    {
      "inputs": [
        {
          "internalType": "address",
          "name": "",
          "type": "address"
        }
      ],
      "name": "reservasAlumno",
      "outputs": [
        {
          "internalType": "string",
          "name": "lab",
          "type": "string"
        },
        {
          "internalType": "string",
          "name": "fecha",
          "type": "string"
        },
        {
          "internalType": "uint256",
          "name": "estado",
          "type": "uint256"
        }
      ],
      "stateMutability": "view",
      "type": "function",
      "constant": true
    },
    {
      "inputs": [
        {
          "internalType": "uint256",
          "name": "",
          "type": "uint256"
        }
      ],
      "name": "reservasLab",
      "outputs": [
        {
          "internalType": "string",
          "name": "lab",
          "type": "string"
        },
        {
          "internalType": "uint256",
          "name": "turno",
          "type": "uint256"
        },
        {
          "internalType": "string",
          "name": "fecha",
          "type": "string"
        }
      ],
      "stateMutability": "view",
      "type": "function",
      "constant": true
    },
    {
      "inputs": [
        {
          "internalType": "string",
          "name": "",
          "type": "string"
        },
        {
          "internalType": "string",
          "name": "",
          "type": "string"
        },
        {
          "internalType": "uint256",
          "name": "",
          "type": "uint256"
        }
      ],
      "name": "turnos",
      "outputs": [
        {
          "internalType": "uint256",
          "name": "",
          "type": "uint256"
        }
      ],
      "stateMutability": "view",
      "type": "function",
      "constant": true
    },
    {
      "inputs": [
        {
          "internalType": "string",
          "name": "",
          "type": "string"
        },
        {
          "internalType": "string",
          "name": "",
          "type": "string"
        },
        {
          "internalType": "uint256",
          "name": "",
          "type": "uint256"
        }
      ],
      "name": "turnos_existentes",
      "outputs": [
        {
          "internalType": "bool",
          "name": "",
          "type": "bool"
        }
      ],
      "stateMutability": "view",
      "type": "function",
      "constant": true
    },
    {
      "inputs": [
        {
          "internalType": "address",
          "name": "",
          "type": "address"
        },
        {
          "internalType": "uint256",
          "name": "",
          "type": "uint256"
        }
      ],
      "name": "ultimosRegistros",
      "outputs": [
        {
          "internalType": "string",
          "name": "lab",
          "type": "string"
        },
        {
          "internalType": "uint256",
          "name": "turno",
          "type": "uint256"
        },
        {
          "internalType": "string",
          "name": "fecha",
          "type": "string"
        }
      ],
      "stateMutability": "view",
      "type": "function",
      "constant": true
    },
    {
      "stateMutability": "payable",
      "type": "receive",
      "payable": true
    },
    {
      "inputs": [],
      "name": "laboratoriosLength",
      "outputs": [
        {
          "internalType": "uint256",
          "name": "",
          "type": "uint256"
        }
      ],
      "stateMutability": "view",
      "type": "function",
      "constant": true
    },
    {
      "inputs": [],
      "name": "reservasLength",
      "outputs": [
        {
          "internalType": "uint256",
          "name": "",
          "type": "uint256"
        }
      ],
      "stateMutability": "view",
      "type": "function",
      "constant": true
    },
    {
      "inputs": [
        {
          "internalType": "address",
          "name": "dir",
          "type": "address"
        }
      ],
      "name": "ultimosRegistrosLength",
      "outputs": [
        {
          "internalType": "uint256",
          "name": "",
          "type": "uint256"
        }
      ],
      "stateMutability": "view",
      "type": "function",
      "constant": true
    },
    {
      "inputs": [
        {
          "internalType": "string",
          "name": "_nombre",
          "type": "string"
        },
        {
          "internalType": "string",
          "name": "_fecha",
          "type": "string"
        }
      ],
      "name": "personasLength",
      "outputs": [
        {
          "internalType": "uint256",
          "name": "",
          "type": "uint256"
        }
      ],
      "stateMutability": "view",
      "type": "function",
      "constant": true
    },
    {
      "inputs": [
        {
          "internalType": "string",
          "name": "_nombre",
          "type": "string"
        },
        {
          "internalType": "string",
          "name": "_fecha",
          "type": "string"
        },
        {
          "internalType": "uint256",
          "name": "_indice",
          "type": "uint256"
        }
      ],
      "name": "dirPersonas",
      "outputs": [
        {
          "internalType": "address",
          "name": "",
          "type": "address"
        }
      ],
      "stateMutability": "view",
      "type": "function",
      "constant": true
    },
    {
      "inputs": [
        {
          "internalType": "address",
          "name": "persona",
          "type": "address"
        }
      ],
      "name": "obtenerDatosPersona",
      "outputs": [
        {
          "internalType": "address",
          "name": "",
          "type": "address"
        }
      ],
      "stateMutability": "view",
      "type": "function",
      "constant": true
    },
    {
      "inputs": [
        {
          "internalType": "address",
          "name": "_dir",
          "type": "address"
        }
      ],
      "name": "reservas",
      "outputs": [
        {
          "components": [
            {
              "internalType": "string",
              "name": "lab",
              "type": "string"
            },
            {
              "internalType": "string",
              "name": "fecha",
              "type": "string"
            },
            {
              "internalType": "uint256",
              "name": "estado",
              "type": "uint256"
            }
          ],
          "internalType": "struct ReslabEtsit.ReservaAlumno",
          "name": "",
          "type": "tuple"
        }
      ],
      "stateMutability": "view",
      "type": "function",
      "constant": true
    },
    {
      "inputs": [],
      "name": "reiniciarReserva",
      "outputs": [],
      "stateMutability": "nonpayable",
      "type": "function"
    },
    {
      "inputs": [
        {
          "internalType": "uint256",
          "name": "x",
          "type": "uint256"
        }
      ],
      "name": "LabPulsado",
      "outputs": [
        {
          "internalType": "string",
          "name": "",
          "type": "string"
        }
      ],
      "stateMutability": "view",
      "type": "function",
      "constant": true
    },
    {
      "inputs": [
        {
          "internalType": "string",
          "name": "_nombre",
          "type": "string"
        },
        {
          "internalType": "string",
          "name": "_entradaTurno",
          "type": "string"
        },
        {
          "internalType": "string",
          "name": "_fecha",
          "type": "string"
        },
        {
          "internalType": "string",
          "name": "_puesto",
          "type": "string"
        },
        {
          "internalType": "uint256",
          "name": "_turno",
          "type": "uint256"
        }
      ],
      "name": "guardarReserva",
      "outputs": [],
      "stateMutability": "nonpayable",
      "type": "function"
    },
    {
      "inputs": [
        {
          "internalType": "string",
          "name": "_nombre",
          "type": "string"
        },
        {
          "internalType": "string",
          "name": "_salidaTurno",
          "type": "string"
        },
        {
          "internalType": "string",
          "name": "_fecha",
          "type": "string"
        },
        {
          "internalType": "uint256",
          "name": "_turno",
          "type": "uint256"
        }
      ],
      "name": "guardarSalida",
      "outputs": [],
      "stateMutability": "nonpayable",
      "type": "function"
    },
    {
      "inputs": [
        {
          "internalType": "string",
          "name": "_nombre",
          "type": "string"
        },
        {
          "internalType": "string",
          "name": "_fecha",
          "type": "string"
        }
      ],
      "name": "guardarEntradasLaboratorio",
      "outputs": [
        {
          "components": [
            {
              "internalType": "address",
              "name": "dir",
              "type": "address"
            },
            {
              "internalType": "string",
              "name": "fecha",
              "type": "string"
            },
            {
              "internalType": "string",
              "name": "entradaTurno",
              "type": "string"
            },
            {
              "internalType": "string",
              "name": "salidaTurno",
              "type": "string"
            },
            {
              "internalType": "string",
              "name": "puesto",
              "type": "string"
            },
            {
              "internalType": "string",
              "name": "estado",
              "type": "string"
            },
            {
              "internalType": "string",
              "name": "asignatura",
              "type": "string"
            },
            {
              "internalType": "string",
              "name": "info",
              "type": "string"
            }
          ],
          "internalType": "struct ReslabEtsit.PinchaLab[]",
          "name": "",
          "type": "tuple[]"
        }
      ],
      "stateMutability": "view",
      "type": "function",
      "constant": true
    },
    {
      "inputs": [
        {
          "internalType": "string",
          "name": "_nombreL",
          "type": "string"
        }
      ],
      "name": "creaLaboratorio",
      "outputs": [
        {
          "internalType": "uint256",
          "name": "",
          "type": "uint256"
        }
      ],
      "stateMutability": "nonpayable",
      "type": "function"
    },
    {
      "inputs": [],
      "name": "matriculasLength",
      "outputs": [
        {
          "internalType": "uint256",
          "name": "",
          "type": "uint256"
        }
      ],
      "stateMutability": "view",
      "type": "function",
      "constant": true
    },
    {
      "inputs": [],
      "name": "profesRegistradosLength",
      "outputs": [
        {
          "internalType": "uint256",
          "name": "",
          "type": "uint256"
        }
      ],
      "stateMutability": "view",
      "type": "function",
      "constant": true
    },
    {
      "inputs": [
        {
          "internalType": "string",
          "name": "_nombre",
          "type": "string"
        },
        {
          "internalType": "string",
          "name": "_email",
          "type": "string"
        }
      ],
      "name": "automatricula",
      "outputs": [],
      "stateMutability": "nonpayable",
      "type": "function"
    },
    {
      "inputs": [],
      "name": "autoregistroP",
      "outputs": [],
      "stateMutability": "nonpayable",
      "type": "function"
    },
    {
      "inputs": [
        {
          "internalType": "string",
          "name": "_nombreP",
          "type": "string"
        },
        {
          "internalType": "string",
          "name": "_emailP",
          "type": "string"
        },
        {
          "internalType": "string",
          "name": "_asignaturaP",
          "type": "string"
        },
        {
          "internalType": "string",
          "name": "_departamentoP",
          "type": "string"
        }
      ],
      "name": "autoRegistro",
      "outputs": [],
      "stateMutability": "nonpayable",
      "type": "function"
    },
    {
      "inputs": [],
      "name": "quienSoy",
      "outputs": [
        {
          "internalType": "string",
          "name": "_nombre",
          "type": "string"
        },
        {
          "internalType": "string",
          "name": "_email",
          "type": "string"
        }
      ],
      "stateMutability": "view",
      "type": "function",
      "constant": true
    },
    {
      "inputs": [],
      "name": "quienSoyP",
      "outputs": [
        {
          "internalType": "string",
          "name": "_nombreP",
          "type": "string"
        },
        {
          "internalType": "string",
          "name": "_emailP",
          "type": "string"
        },
        {
          "internalType": "string",
          "name": "_asignaturaP",
          "type": "string"
        },
        {
          "internalType": "string",
          "name": "_departamentoP",
          "type": "string"
        }
      ],
      "stateMutability": "view",
      "type": "function",
      "constant": true
    },
    {
      "inputs": [
        {
          "internalType": "address",
          "name": "persona",
          "type": "address"
        }
      ],
      "name": "estaRegistradoP",
      "outputs": [
        {
          "internalType": "bool",
          "name": "",
          "type": "bool"
        }
      ],
      "stateMutability": "view",
      "type": "function",
      "constant": true
    }
  ],
  "bytecode": "0x608060405234801561001057600080fd5b50336000806101000a81548173ffffffffffffffffffffffffffffffffffffffff021916908373ffffffffffffffffffffffffffffffffffffffff160217905550615da680620000616000396000f3fe6080604052600436106102345760003560e01c806394bd53d61161012e578063c7918139116100ab578063e8933c6e1161006f578063e8933c6e146109cb578063ede343cf146109f4578063ee0e7c4f14610a1d578063f874785914610a5a578063fc1f72d814610a9757610274565b8063c7918139146108a9578063d4cf859d146108e6578063d5a3e75a14610914578063d64545d814610951578063d66371031461098e57610274565b8063b24a6399116100f2578063b24a6399146107a8578063b4b4a51f146107d1578063b5daf62c146107fc578063b79f21761461083a578063be4a935b1461087e57610274565b806394bd53d61461068757806397055f29146106c45780639e1d8f4b14610701578063a724952f1461072c578063b0b127311461076957610274565b8063641945bf116101bc5780637e09be7a116101805780637e09be7a146105665780637e4d6c70146105a35780638da5cb5b146105e05780638f4739361461060b5780639376d0ae1461064a57610274565b8063641945bf1461044157806366668f3c1461048157806368ef207e146104be5780636bf8aad6146104fd57806379b51b6a1461053b57610274565b8063365d92e211610203578063365d92e2146103475780635376688314610384578063554f27cc146103b05780635fdf483f146103db57806361d4c6ad1461041857610274565b806307025942146102795780630c312661146102b6578063223ca7a2146102f3578063320d07731461033057610274565b36610274576040517f08c379a000000000000000000000000000000000000000000000000000000000815260040161026b90615aa6565b60405180910390fd5b600080fd5b34801561028557600080fd5b506102a0600480360381019061029b9190614b27565b610aae565b6040516102ad919061577b565b60405180910390f35b3480156102c257600080fd5b506102dd60048036038101906102d89190614b27565b610aec565b6040516102ea919061577b565b60405180910390f35b3480156102ff57600080fd5b5061031a60048036038101906103159190615023565b610b6f565b604051610327919061577b565b60405180910390f35b34801561033c57600080fd5b50610345610bae565b005b34801561035357600080fd5b5061036e60048036038101906103699190615023565b610d7a565b60405161037b919061577b565b60405180910390f35b34801561039057600080fd5b50610399610db9565b6040516103a79291906158a4565b60405180910390f35b3480156103bc57600080fd5b506103c5610faf565b6040516103d29190615b88565b60405180910390f35b3480156103e757600080fd5b5061040260048036038101906103fd9190614e7e565b610fbc565b60405161040f919061577b565b60405180910390f35b34801561042457600080fd5b5061043f600480360381019061043a9190614bcd565b611043565b005b34801561044d57600080fd5b5061046860048036038101906104639190614b27565b6111db565b60405161047894939291906158db565b60405180910390f35b34801561048d57600080fd5b506104a860048036038101906104a39190614bcd565b61146b565b6040516104b59190615b88565b60405180910390f35b3480156104ca57600080fd5b506104e560048036038101906104e09190615023565b6114c6565b6040516104f493929190615981565b60405180910390f35b34801561050957600080fd5b50610524600480360381019061051f9190614b27565b611630565b6040516105329291906158a4565b60405180910390f35b34801561054757600080fd5b50610550611784565b60405161055d9190615b88565b60405180910390f35b34801561057257600080fd5b5061058d60048036038101906105889190614b27565b611791565b60405161059a9190615867565b60405180910390f35b3480156105af57600080fd5b506105ca60048036038101906105c59190614b27565b611832565b6040516105d79190615b66565b60405180910390f35b3480156105ec57600080fd5b506105f56119d9565b604051610602919061577b565b60405180910390f35b34801561061757600080fd5b50610632600480360381019061062d9190614b50565b6119fd565b60405161064193929190615981565b60405180910390f35b34801561065657600080fd5b50610671600480360381019061066c9190614e7e565b611b74565b60405161067e9190615867565b60405180910390f35b34801561069357600080fd5b506106ae60048036038101906106a99190614b8c565b611bdc565b6040516106bb9190615b88565b60405180910390f35b3480156106d057600080fd5b506106eb60048036038101906106e69190614bcd565b611d36565b6040516106f89190615845565b60405180910390f35b34801561070d57600080fd5b50610716612f81565b6040516107239190615b88565b60405180910390f35b34801561073857600080fd5b50610753600480360381019061074e9190614e7e565b612f8e565b6040516107609190615b88565b60405180910390f35b34801561077557600080fd5b50610790600480360381019061078b9190614b27565b612ff8565b60405161079f9392919061593c565b60405180910390f35b3480156107b457600080fd5b506107cf60048036038101906107ca9190614cfc565b613152565b005b3480156107dd57600080fd5b506107e661386a565b6040516107f39190615b88565b60405180910390f35b34801561080857600080fd5b50610823600480360381019061081e9190615023565b613877565b604051610831929190615ba3565b60405180910390f35b34801561084657600080fd5b50610861600480360381019061085c9190614efd565b613943565b604051610875989796959493929190615796565b60405180910390f35b34801561088a57600080fd5b50610893613e26565b6040516108a0919061577b565b60405180910390f35b3480156108b557600080fd5b506108d060048036038101906108cb9190615023565b613e4c565b6040516108dd919061577b565b60405180910390f35b3480156108f257600080fd5b506108fb613e8b565b60405161090b94939291906158db565b60405180910390f35b34801561092057600080fd5b5061093b60048036038101906109369190614f90565b6141d8565b604051610948919061577b565b60405180910390f35b34801561095d57600080fd5b5061097860048036038101906109739190614b27565b61426c565b6040516109859190615b88565b60405180910390f35b34801561099a57600080fd5b506109b560048036038101906109b09190615023565b6142b8565b6040516109c29190615882565b60405180910390f35b3480156109d757600080fd5b506109f260048036038101906109ed9190614dd3565b614378565b005b348015610a0057600080fd5b50610a1b6004803603810190610a169190614c39565b61441e565b005b348015610a2957600080fd5b50610a446004803603810190610a3f9190615023565b6145fe565b604051610a51919061577b565b60405180910390f35b348015610a6657600080fd5b50610a816004803603810190610a7c9190614e7e565b61463d565b604051610a8e919061577b565b60405180910390f35b348015610aa357600080fd5b50610aac61470c565b005b60026020528060005260406000206000915090508060000160009054906101000a900473ffffffffffffffffffffffffffffffffffffffff16905081565b6000610af782614756565b610b045760009050610b6a565b600260008373ffffffffffffffffffffffffffffffffffffffff1673ffffffffffffffffffffffffffffffffffffffff16815260200190815260200160002060000160009054906101000a900473ffffffffffffffffffffffffffffffffffffffff1690505b919050565b60088181548110610b7f57600080fd5b906000526020600020016000915054906101000a900473ffffffffffffffffffffffffffffffffffffffff1681565b610bb733611791565b15610bf7576040517f08c379a0000000000000000000000000000000000000000000000000000000008152600401610bee90615b06565b60405180910390fd5b600073ffffffffffffffffffffffffffffffffffffffff163373ffffffffffffffffffffffffffffffffffffffff161415610c67576040517f08c379a0000000000000000000000000000000000000000000000000000000008152600401610c5e906159e6565b60405180910390fd5b60405180602001604052803373ffffffffffffffffffffffffffffffffffffffff16815250600260003373ffffffffffffffffffffffffffffffffffffffff1673ffffffffffffffffffffffffffffffffffffffff16815260200190815260200160002060008201518160000160006101000a81548173ffffffffffffffffffffffffffffffffffffffff021916908373ffffffffffffffffffffffffffffffffffffffff1602179055509050506008339080600181540180825580915050600190039060005260206000200160009091909190916101000a81548173ffffffffffffffffffffffffffffffffffffffff021916908373ffffffffffffffffffffffffffffffffffffffff160217905550565b60098181548110610d8a57600080fd5b906000526020600020016000915054906101000a900473ffffffffffffffffffffffffffffffffffffffff1681565b606080610dc53361484b565b610e04576040517f08c379a0000000000000000000000000000000000000000000000000000000008152600401610dfb90615a66565b60405180910390fd5b610e0c614940565b600360003373ffffffffffffffffffffffffffffffffffffffff1673ffffffffffffffffffffffffffffffffffffffff168152602001908152602001600020604051806040016040529081600082018054600181600116156101000203166002900480601f016020809104026020016040519081016040528092919081815260200182805460018160011615610100020316600290048015610eef5780601f10610ec457610100808354040283529160200191610eef565b820191906000526020600020905b815481529060010190602001808311610ed257829003601f168201915b50505050508152602001600182018054600181600116156101000203166002900480601f016020809104026020016040519081016040528092919081815260200182805460018160011615610100020316600290048015610f915780601f10610f6657610100808354040283529160200191610f91565b820191906000526020600020905b815481529060010190602001808311610f7457829003601f168201915b50505050508152505090508060000151925080602001519150509091565b6000600b80549050905090565b60108380516020810182018051848252602083016020850120818352809550505050505082805160208101820180518482526020830160208501208183528095505050505050818154811061101057600080fd5b90600052602060002001600092509250509054906101000a900473ffffffffffffffffffffffffffffffffffffffff1681565b61104c3361484b565b1561108c576040517f08c379a000000000000000000000000000000000000000000000000000000000815260040161108390615a26565b60405180910390fd5b60608290506000815114156110d6576040517f08c379a00000000000000000000000000000000000000000000000000000000081526004016110cd90615a46565b60405180910390fd5b6110de614940565b604051806040016040528085815260200184815250905080600360003373ffffffffffffffffffffffffffffffffffffffff1673ffffffffffffffffffffffffffffffffffffffff168152602001908152602001600020600082015181600001908051906020019061115192919061495a565b50602082015181600101908051906020019061116e92919061495a565b509050506006339080600181540180825580915050600190039060005260206000200160009091909190916101000a81548173ffffffffffffffffffffffffffffffffffffffff021916908373ffffffffffffffffffffffffffffffffffffffff16021790555050505050565b6004602052806000526040600020600091509050806000018054600181600116156101000203166002900480601f0160208091040260200160405190810160405280929190818152602001828054600181600116156101000203166002900480156112875780601f1061125c57610100808354040283529160200191611287565b820191906000526020600020905b81548152906001019060200180831161126a57829003601f168201915b505050505090806001018054600181600116156101000203166002900480601f0160208091040260200160405190810160405280929190818152602001828054600181600116156101000203166002900480156113255780601f106112fa57610100808354040283529160200191611325565b820191906000526020600020905b81548152906001019060200180831161130857829003601f168201915b505050505090806002018054600181600116156101000203166002900480601f0160208091040260200160405190810160405280929190818152602001828054600181600116156101000203166002900480156113c35780601f10611398576101008083540402835291602001916113c3565b820191906000526020600020905b8154815290600101906020018083116113a657829003601f168201915b505050505090806003018054600181600116156101000203166002900480601f0160208091040260200160405190810160405280929190818152602001828054600181600116156101000203166002900480156114615780601f1061143657610100808354040283529160200191611461565b820191906000526020600020905b81548152906001019060200180831161144457829003601f168201915b5050505050905084565b60008060108360405161147e9190615764565b90815260200160405180910390208460405161149a9190615764565b908152602001604051809103902080549050905060008114156114bc57600190505b8091505092915050565b600b81815481106114d657600080fd5b9060005260206000209060030201600091509050806000018054600181600116156101000203166002900480601f0160208091040260200160405190810160405280929190818152602001828054600181600116156101000203166002900480156115825780601f1061155757610100808354040283529160200191611582565b820191906000526020600020905b81548152906001019060200180831161156557829003601f168201915b505050505090806001015490806002018054600181600116156101000203166002900480601f0160208091040260200160405190810160405280929190818152602001828054600181600116156101000203166002900480156116265780601f106115fb57610100808354040283529160200191611626565b820191906000526020600020905b81548152906001019060200180831161160957829003601f168201915b5050505050905083565b6003602052806000526040600020600091509050806000018054600181600116156101000203166002900480601f0160208091040260200160405190810160405280929190818152602001828054600181600116156101000203166002900480156116dc5780601f106116b1576101008083540402835291602001916116dc565b820191906000526020600020905b8154815290600101906020018083116116bf57829003601f168201915b505050505090806001018054600181600116156101000203166002900480601f01602080910402602001604051908101604052809291908181526020018280546001816001161561010002031660029004801561177a5780601f1061174f5761010080835404028352916020019161177a565b820191906000526020600020905b81548152906001019060200180831161175d57829003601f168201915b5050505050905082565b6000600780549050905090565b600080600260008473ffffffffffffffffffffffffffffffffffffffff1673ffffffffffffffffffffffffffffffffffffffff16815260200190815260200160002060000160009054906101000a900473ffffffffffffffffffffffffffffffffffffffff169050600073ffffffffffffffffffffffffffffffffffffffff168173ffffffffffffffffffffffffffffffffffffffff161415915050919050565b61183a6149e8565b600c60008373ffffffffffffffffffffffffffffffffffffffff1673ffffffffffffffffffffffffffffffffffffffff168152602001908152602001600020604051806060016040529081600082018054600181600116156101000203166002900480601f01602080910402602001604051908101604052809291908181526020018280546001816001161561010002031660029004801561191d5780601f106118f25761010080835404028352916020019161191d565b820191906000526020600020905b81548152906001019060200180831161190057829003601f168201915b50505050508152602001600182018054600181600116156101000203166002900480601f0160208091040260200160405190810160405280929190818152602001828054600181600116156101000203166002900480156119bf5780601f10611994576101008083540402835291602001916119bf565b820191906000526020600020905b8154815290600101906020018083116119a257829003601f168201915b505050505081526020016002820154815250509050919050565b60008054906101000a900473ffffffffffffffffffffffffffffffffffffffff1681565b60126020528160005260406000208181548110611a1957600080fd5b906000526020600020906003020160009150915050806000018054600181600116156101000203166002900480601f016020809104026020016040519081016040528092919081815260200182805460018160011615610100020316600290048015611ac65780601f10611a9b57610100808354040283529160200191611ac6565b820191906000526020600020905b815481529060010190602001808311611aa957829003601f168201915b505050505090806001015490806002018054600181600116156101000203166002900480601f016020809104026020016040519081016040528092919081815260200182805460018160011615610100020316600290048015611b6a5780601f10611b3f57610100808354040283529160200191611b6a565b820191906000526020600020905b815481529060010190602001808311611b4d57829003601f168201915b5050505050905083565b600e8380516020810182018051848252602083016020850120818352809550505050505082805160208101820180518482526020830160208501208183528095505050505050602052806000526040600020600092509250509054906101000a900460ff1681565b60008060009054906101000a900473ffffffffffffffffffffffffffffffffffffffff1673ffffffffffffffffffffffffffffffffffffffff163373ffffffffffffffffffffffffffffffffffffffff1614611c6d576040517f08c379a0000000000000000000000000000000000000000000000000000000008152600401611c6490615b46565b60405180910390fd5b6060829050600081511415611cb7576040517f08c379a0000000000000000000000000000000000000000000000000000000008152600401611cae90615ae6565b60405180910390fd5b600a6040518060400160405280600a805490508152602001858152509080600181540180825580915050600190039060005260206000209060020201600090919091909150600082015181600001556020820151816001019080519060200190611d2292919061495a565b5050506001600a8054905003915050919050565b60606000806000600d85604051611d4d9190615764565b908152602001604051809103902086604051611d699190615764565b908152602001604051809103902080549050905060005b81811015611e3757600f86604051611d989190615764565b908152602001604051809103902087604051611db49190615764565b90815260200160405180910390206000600d88604051611dd49190615764565b908152602001604051809103902089604051611df09190615764565b90815260200160405180910390208381548110611e0957fe5b9060005260206000200154815260200190815260200160002080549050840193508080600101915050611d80565b506000811115612cd05760608367ffffffffffffffff81118015611e5a57600080fd5b50604051908082528060200260200182016040528015611e9457816020015b611e81614a09565b815260200190600190039081611e795790505b50905060005b82811015612cb7576060600f88604051611eb49190615764565b908152602001604051809103902089604051611ed09190615764565b90815260200160405180910390206000600d8a604051611ef09190615764565b90815260200160405180910390208b604051611f0c9190615764565b90815260200160405180910390208481548110611f2557fe5b90600052602060002001548152602001908152602001600020805480602002602001604051908101604052809291908181526020018280548015611fbe57602002820191906000526020600020905b8160009054906101000a900473ffffffffffffffffffffffffffffffffffffffff1673ffffffffffffffffffffffffffffffffffffffff1681526020019060010190808311611f74575b5050505050905060008590505b85825101811015612ca257601189604051611fe69190615764565b90815260200160405180910390208a6040516120029190615764565b90815260200160405180910390206000600d8b6040516120229190615764565b90815260200160405180910390208c60405161203e9190615764565b9081526020016040518091039020858154811061205757fe5b90600052602060002001548152602001908152602001600020600083838151811061207e57fe5b602002602001015173ffffffffffffffffffffffffffffffffffffffff1673ffffffffffffffffffffffffffffffffffffffff16815260200190815260200160002060000160009054906101000a900473ffffffffffffffffffffffffffffffffffffffff168482815181106120f057fe5b60200260200101516000019073ffffffffffffffffffffffffffffffffffffffff16908173ffffffffffffffffffffffffffffffffffffffff168152505060118960405161213e9190615764565b90815260200160405180910390208a60405161215a9190615764565b90815260200160405180910390206000600d8b60405161217a9190615764565b90815260200160405180910390208c6040516121969190615764565b908152602001604051809103902085815481106121af57fe5b9060005260206000200154815260200190815260200160002060008383815181106121d657fe5b602002602001015173ffffffffffffffffffffffffffffffffffffffff1673ffffffffffffffffffffffffffffffffffffffff1681526020019081526020016000206001018054600181600116156101000203166002900480601f0160208091040260200160405190810160405280929190818152602001828054600181600116156101000203166002900480156122af5780601f10612284576101008083540402835291602001916122af565b820191906000526020600020905b81548152906001019060200180831161229257829003601f168201915b50505050508482815181106122c057fe5b6020026020010151602001819052506011896040516122df9190615764565b90815260200160405180910390208a6040516122fb9190615764565b90815260200160405180910390206000600d8b60405161231b9190615764565b90815260200160405180910390208c6040516123379190615764565b9081526020016040518091039020858154811061235057fe5b90600052602060002001548152602001908152602001600020600083838151811061237757fe5b602002602001015173ffffffffffffffffffffffffffffffffffffffff1673ffffffffffffffffffffffffffffffffffffffff1681526020019081526020016000206002018054600181600116156101000203166002900480601f0160208091040260200160405190810160405280929190818152602001828054600181600116156101000203166002900480156124505780601f1061242557610100808354040283529160200191612450565b820191906000526020600020905b81548152906001019060200180831161243357829003601f168201915b505050505084828151811061246157fe5b6020026020010151604001819052506011896040516124809190615764565b90815260200160405180910390208a60405161249c9190615764565b90815260200160405180910390206000600d8b6040516124bc9190615764565b90815260200160405180910390208c6040516124d89190615764565b908152602001604051809103902085815481106124f157fe5b90600052602060002001548152602001908152602001600020600083838151811061251857fe5b602002602001015173ffffffffffffffffffffffffffffffffffffffff1673ffffffffffffffffffffffffffffffffffffffff1681526020019081526020016000206003018054600181600116156101000203166002900480601f0160208091040260200160405190810160405280929190818152602001828054600181600116156101000203166002900480156125f15780601f106125c6576101008083540402835291602001916125f1565b820191906000526020600020905b8154815290600101906020018083116125d457829003601f168201915b505050505084828151811061260257fe5b6020026020010151606001819052506011896040516126219190615764565b90815260200160405180910390208a60405161263d9190615764565b90815260200160405180910390206000600d8b60405161265d9190615764565b90815260200160405180910390208c6040516126799190615764565b9081526020016040518091039020858154811061269257fe5b9060005260206000200154815260200190815260200160002060008383815181106126b957fe5b602002602001015173ffffffffffffffffffffffffffffffffffffffff1673ffffffffffffffffffffffffffffffffffffffff1681526020019081526020016000206004018054600181600116156101000203166002900480601f0160208091040260200160405190810160405280929190818152602001828054600181600116156101000203166002900480156127925780601f1061276757610100808354040283529160200191612792565b820191906000526020600020905b81548152906001019060200180831161277557829003601f168201915b50505050508482815181106127a357fe5b6020026020010151608001819052506011896040516127c29190615764565b90815260200160405180910390208a6040516127de9190615764565b90815260200160405180910390206000600d8b6040516127fe9190615764565b90815260200160405180910390208c60405161281a9190615764565b9081526020016040518091039020858154811061283357fe5b90600052602060002001548152602001908152602001600020600083838151811061285a57fe5b602002602001015173ffffffffffffffffffffffffffffffffffffffff1673ffffffffffffffffffffffffffffffffffffffff1681526020019081526020016000206005018054600181600116156101000203166002900480601f0160208091040260200160405190810160405280929190818152602001828054600181600116156101000203166002900480156129335780601f1061290857610100808354040283529160200191612933565b820191906000526020600020905b81548152906001019060200180831161291657829003601f168201915b505050505084828151811061294457fe5b602002602001015160a001819052506011896040516129639190615764565b90815260200160405180910390208a60405161297f9190615764565b90815260200160405180910390206000600d8b60405161299f9190615764565b90815260200160405180910390208c6040516129bb9190615764565b908152602001604051809103902085815481106129d457fe5b9060005260206000200154815260200190815260200160002060008383815181106129fb57fe5b602002602001015173ffffffffffffffffffffffffffffffffffffffff1673ffffffffffffffffffffffffffffffffffffffff1681526020019081526020016000206006018054600181600116156101000203166002900480601f016020809104026020016040519081016040528092919081815260200182805460018160011615610100020316600290048015612ad45780601f10612aa957610100808354040283529160200191612ad4565b820191906000526020600020905b815481529060010190602001808311612ab757829003601f168201915b5050505050848281518110612ae557fe5b602002602001015160c00181905250601189604051612b049190615764565b90815260200160405180910390208a604051612b209190615764565b90815260200160405180910390206000600d8b604051612b409190615764565b90815260200160405180910390208c604051612b5c9190615764565b90815260200160405180910390208581548110612b7557fe5b906000526020600020015481526020019081526020016000206000838381518110612b9c57fe5b602002602001015173ffffffffffffffffffffffffffffffffffffffff1673ffffffffffffffffffffffffffffffffffffffff1681526020019081526020016000206007018054600181600116156101000203166002900480601f016020809104026020016040519081016040528092919081815260200182805460018160011615610100020316600290048015612c755780601f10612c4a57610100808354040283529160200191612c75565b820191906000526020600020905b815481529060010190602001808311612c5857829003601f168201915b5050505050848281518110612c8657fe5b602002602001015160e001819052508080600101915050611fcb565b50805185019450508080600101915050611e9a565b5060009250600093506000915080945050505050612f7b565b6060600167ffffffffffffffff81118015612cea57600080fd5b50604051908082528060200260200182016040528015612d2457816020015b612d11614a09565b815260200190600190039081612d095790505b5090507369068964eb1d8f0caf8af7481bfdb2fa015e4c5681600081518110612d4957fe5b60200260200101516000019073ffffffffffffffffffffffffffffffffffffffff16908173ffffffffffffffffffffffffffffffffffffffff16815250506040518060400160405280600b81526020017f444953504f4e49424c455300000000000000000000000000000000000000000081525081600081518110612dca57fe5b6020026020010151602001819052506040518060400160405280600b81526020017f454e204c4120464543484100000000000000000000000000000000000000000081525081600081518110612e1c57fe5b6020026020010151604001819052506040518060400160405280600181526020017f590000000000000000000000000000000000000000000000000000000000000081525081600081518110612e6e57fe5b6020026020010151606001819052506040518060400160405280600481526020017f455354410000000000000000000000000000000000000000000000000000000081525081600081518110612ec057fe5b6020026020010151608001819052506040518060400160405280600481526020017f636f72650000000000000000000000000000000000000000000000000000000081525081600081518110612f1257fe5b602002602001015160c001819052506040518060400160405280600481526020017f41554c410000000000000000000000000000000000000000000000000000000081525081600081518110612f6457fe5b602002602001015160a00181905250809450505050505b92915050565b6000600680549050905090565b600d83805160208101820180518482526020830160208501208183528095505050505050828051602081018201805184825260208301602085012081835280955050505050508181548110612fe257600080fd5b9060005260206000200160009250925050505481565b600c602052806000526040600020600091509050806000018054600181600116156101000203166002900480601f0160208091040260200160405190810160405280929190818152602001828054600181600116156101000203166002900480156130a45780601f10613079576101008083540402835291602001916130a4565b820191906000526020600020905b81548152906001019060200180831161308757829003601f168201915b505050505090806001018054600181600116156101000203166002900480601f0160208091040260200160405190810160405280929190818152602001828054600181600116156101000203166002900480156131425780601f1061311757610100808354040283529160200191613142565b820191906000526020600020905b81548152906001019060200180831161312557829003601f168201915b5050505050908060020154905083565b606085905060008151141561319c576040517f08c379a000000000000000000000000000000000000000000000000000000000815260040161319390615a46565b60405180910390fd5b60608590506000815114156131e6576040517f08c379a00000000000000000000000000000000000000000000000000000000081526004016131dd90615a06565b60405180910390fd5b6060859050600081511415613230576040517f08c379a000000000000000000000000000000000000000000000000000000000815260040161322790615b26565b60405180910390fd5b606085905060008151141561327a576040517f08c379a0000000000000000000000000000000000000000000000000000000008152600401613271906159c6565b60405180910390fd5b3360118860405161328b9190615764565b90815260200160405180910390208a6040516132a79190615764565b9081526020016040518091039020600087815260200190815260200160002060003373ffffffffffffffffffffffffffffffffffffffff1673ffffffffffffffffffffffffffffffffffffffff16815260200190815260200160002060000160006101000a81548173ffffffffffffffffffffffffffffffffffffffff021916908373ffffffffffffffffffffffffffffffffffffffff160217905550866011886040516133559190615764565b90815260200160405180910390208a6040516133719190615764565b9081526020016040518091039020600087815260200190815260200160002060003373ffffffffffffffffffffffffffffffffffffffff1673ffffffffffffffffffffffffffffffffffffffff16815260200190815260200160002060010190805190602001906133e392919061495a565b50876011886040516133f59190615764565b90815260200160405180910390208a6040516134119190615764565b9081526020016040518091039020600087815260200190815260200160002060003373ffffffffffffffffffffffffffffffffffffffff1673ffffffffffffffffffffffffffffffffffffffff168152602001908152602001600020600201908051906020019061348392919061495a565b50856011886040516134959190615764565b90815260200160405180910390208a6040516134b19190615764565b9081526020016040518091039020600087815260200190815260200160002060003373ffffffffffffffffffffffffffffffffffffffff1673ffffffffffffffffffffffffffffffffffffffff168152602001908152602001600020600401908051906020019061352392919061495a565b50600f876040516135349190615764565b9081526020016040518091039020896040516135509190615764565b90815260200160405180910390206000868152602001908152602001600020339080600181540180825580915050600190039060005260206000200160009091909190916101000a81548173ffffffffffffffffffffffffffffffffffffffff021916908373ffffffffffffffffffffffffffffffffffffffff1602179055506010876040516135e09190615764565b9081526020016040518091039020896040516135fc9190615764565b9081526020016040518091039020339080600181540180825580915050600190039060005260206000200160009091909190916101000a81548173ffffffffffffffffffffffffffffffffffffffff021916908373ffffffffffffffffffffffffffffffffffffffff160217905550601260003373ffffffffffffffffffffffffffffffffffffffff1673ffffffffffffffffffffffffffffffffffffffff16815260200190815260200160002060405180606001604052808b8152602001878152602001898152509080600181540180825580915050600190039060005260206000209060030201600090919091909150600082015181600001908051906020019061370a92919061495a565b5060208201518160010155604082015181600201908051906020019061373192919061495a565b50505060001515600e886040516137489190615764565b90815260200160405180910390208a6040516137649190615764565b9081526020016040518091039020600087815260200190815260200160002060009054906101000a900460ff161515141561385f57600d876040516137a99190615764565b9081526020016040518091039020896040516137c59190615764565b90815260200160405180910390208590806001815401808255809150506001900390600052602060002001600090919091909150556001600e8860405161380c9190615764565b90815260200160405180910390208a6040516138289190615764565b9081526020016040518091039020600087815260200190815260200160002060006101000a81548160ff0219169083151502179055505b505050505050505050565b6000600a80549050905090565b600a818154811061388757600080fd5b9060005260206000209060020201600091509050806000015490806001018054600181600116156101000203166002900480601f0160208091040260200160405190810160405280929190818152602001828054600181600116156101000203166002900480156139395780601f1061390e57610100808354040283529160200191613939565b820191906000526020600020905b81548152906001019060200180831161391c57829003601f168201915b5050505050905082565b601184805160208101820180518482526020830160208501208183528095505050505050838051602081018201805184825260208301602085012081835280955050505050506020528160005260406000206020528060005260406000206000935093505050508060000160009054906101000a900473ffffffffffffffffffffffffffffffffffffffff1690806001018054600181600116156101000203166002900480601f016020809104026020016040519081016040528092919081815260200182805460018160011615610100020316600290048015613a685780601f10613a3d57610100808354040283529160200191613a68565b820191906000526020600020905b815481529060010190602001808311613a4b57829003601f168201915b505050505090806002018054600181600116156101000203166002900480601f016020809104026020016040519081016040528092919081815260200182805460018160011615610100020316600290048015613b065780601f10613adb57610100808354040283529160200191613b06565b820191906000526020600020905b815481529060010190602001808311613ae957829003601f168201915b505050505090806003018054600181600116156101000203166002900480601f016020809104026020016040519081016040528092919081815260200182805460018160011615610100020316600290048015613ba45780601f10613b7957610100808354040283529160200191613ba4565b820191906000526020600020905b815481529060010190602001808311613b8757829003601f168201915b505050505090806004018054600181600116156101000203166002900480601f016020809104026020016040519081016040528092919081815260200182805460018160011615610100020316600290048015613c425780601f10613c1757610100808354040283529160200191613c42565b820191906000526020600020905b815481529060010190602001808311613c2557829003601f168201915b505050505090806005018054600181600116156101000203166002900480601f016020809104026020016040519081016040528092919081815260200182805460018160011615610100020316600290048015613ce05780601f10613cb557610100808354040283529160200191613ce0565b820191906000526020600020905b815481529060010190602001808311613cc357829003601f168201915b505050505090806006018054600181600116156101000203166002900480601f016020809104026020016040519081016040528092919081815260200182805460018160011615610100020316600290048015613d7e5780601f10613d5357610100808354040283529160200191613d7e565b820191906000526020600020905b815481529060010190602001808311613d6157829003601f168201915b505050505090806007018054600181600116156101000203166002900480601f016020809104026020016040519081016040528092919081815260200182805460018160011615610100020316600290048015613e1c5780601f10613df157610100808354040283529160200191613e1c565b820191906000526020600020905b815481529060010190602001808311613dff57829003601f168201915b5050505050905088565b600160009054906101000a900473ffffffffffffffffffffffffffffffffffffffff1681565b60068181548110613e5c57600080fd5b906000526020600020016000915054906101000a900473ffffffffffffffffffffffffffffffffffffffff1681565b606080606080613e9a33614756565b613ed9576040517f08c379a0000000000000000000000000000000000000000000000000000000008152600401613ed090615a86565b60405180910390fd5b613ee1614a64565b600460003373ffffffffffffffffffffffffffffffffffffffff1673ffffffffffffffffffffffffffffffffffffffff168152602001908152602001600020604051806080016040529081600082018054600181600116156101000203166002900480601f016020809104026020016040519081016040528092919081815260200182805460018160011615610100020316600290048015613fc45780601f10613f9957610100808354040283529160200191613fc4565b820191906000526020600020905b815481529060010190602001808311613fa757829003601f168201915b50505050508152602001600182018054600181600116156101000203166002900480601f0160208091040260200160405190810160405280929190818152602001828054600181600116156101000203166002900480156140665780601f1061403b57610100808354040283529160200191614066565b820191906000526020600020905b81548152906001019060200180831161404957829003601f168201915b50505050508152602001600282018054600181600116156101000203166002900480601f0160208091040260200160405190810160405280929190818152602001828054600181600116156101000203166002900480156141085780601f106140dd57610100808354040283529160200191614108565b820191906000526020600020905b8154815290600101906020018083116140eb57829003601f168201915b50505050508152602001600382018054600181600116156101000203166002900480601f0160208091040260200160405190810160405280929190818152602001828054600181600116156101000203166002900480156141aa5780601f1061417f576101008083540402835291602001916141aa565b820191906000526020600020905b81548152906001019060200180831161418d57829003601f168201915b5050505050815250509050806000015194508060200151935080606001519150806040015192505090919293565b600f8480516020810182018051848252602083016020850120818352809550505050505083805160208101820180518482526020830160208501208183528095505050505050602052816000526040600020818154811061423857600080fd5b9060005260206000200160009350935050509054906101000a900473ffffffffffffffffffffffffffffffffffffffff1681565b6000601260008373ffffffffffffffffffffffffffffffffffffffff1673ffffffffffffffffffffffffffffffffffffffff168152602001908152602001600020805490509050919050565b6060600a82815481106142c757fe5b90600052602060002090600202016001018054600181600116156101000203166002900480601f01602080910402602001604051908101604052809291908181526020018280546001816001161561010002031660029004801561436c5780601f106143415761010080835404028352916020019161436c565b820191906000526020600020905b81548152906001019060200180831161434f57829003601f168201915b50505050509050919050565b826011836040516143899190615764565b9081526020016040518091039020856040516143a59190615764565b9081526020016040518091039020600083815260200190815260200160002060003373ffffffffffffffffffffffffffffffffffffffff1673ffffffffffffffffffffffffffffffffffffffff168152602001908152602001600020600301908051906020019061441792919061495a565b5050505050565b61442733614756565b15614467576040517f08c379a000000000000000000000000000000000000000000000000000000000815260040161445e90615ac6565b60405180910390fd5b60608490506000815114156144b1576040517f08c379a00000000000000000000000000000000000000000000000000000000081526004016144a890615a46565b60405180910390fd5b6144b9614a64565b604051806080016040528087815260200186815260200185815260200184815250905080600460003373ffffffffffffffffffffffffffffffffffffffff1673ffffffffffffffffffffffffffffffffffffffff168152602001908152602001600020600082015181600001908051906020019061453892919061495a565b50602082015181600101908051906020019061455592919061495a565b50604082015181600201908051906020019061457292919061495a565b50606082015181600301908051906020019061458f92919061495a565b509050506007339080600181540180825580915050600190039060005260206000200160009091909190916101000a81548173ffffffffffffffffffffffffffffffffffffffff021916908373ffffffffffffffffffffffffffffffffffffffff160217905550505050505050565b6007818154811061460e57600080fd5b906000526020600020016000915054906101000a900473ffffffffffffffffffffffffffffffffffffffff1681565b6000806010846040516146509190615764565b90815260200160405180910390208560405161466c9190615764565b90815260200160405180910390208054905011156147015760006010846040516146969190615764565b9081526020016040518091039020856040516146b29190615764565b908152602001604051809103902083815481106146cb57fe5b9060005260206000200160009054906101000a900473ffffffffffffffffffffffffffffffffffffffff16905080915050614705565b3390505b9392505050565b6000600c60003373ffffffffffffffffffffffffffffffffffffffff1673ffffffffffffffffffffffffffffffffffffffff16815260200190815260200160002060020181905550565b60006060600460008473ffffffffffffffffffffffffffffffffffffffff1673ffffffffffffffffffffffffffffffffffffffff1681526020019081526020016000206000018054600181600116156101000203166002900480601f0160208091040260200160405190810160405280929190818152602001828054600181600116156101000203166002900480156148305780601f1061480557610100808354040283529160200191614830565b820191906000526020600020905b81548152906001019060200180831161481357829003601f168201915b50505050509050606081905060008151141592505050919050565b60006060600360008473ffffffffffffffffffffffffffffffffffffffff1673ffffffffffffffffffffffffffffffffffffffff1681526020019081526020016000206000018054600181600116156101000203166002900480601f0160208091040260200160405190810160405280929190818152602001828054600181600116156101000203166002900480156149255780601f106148fa57610100808354040283529160200191614925565b820191906000526020600020905b81548152906001019060200180831161490857829003601f168201915b50505050509050606081905060008151141592505050919050565b604051806040016040528060608152602001606081525090565b828054600181600116156101000203166002900490600052602060002090601f01602090048101928261499057600085556149d7565b82601f106149a957805160ff19168380011785556149d7565b828001600101855582156149d7579182015b828111156149d65782518255916020019190600101906149bb565b5b5090506149e49190614a8c565b5090565b60405180606001604052806060815260200160608152602001600081525090565b604051806101000160405280600073ffffffffffffffffffffffffffffffffffffffff168152602001606081526020016060815260200160608152602001606081526020016060815260200160608152602001606081525090565b6040518060800160405280606081526020016060815260200160608152602001606081525090565b5b80821115614aa5576000816000905550600101614a8d565b5090565b600081359050614ab881615d42565b92915050565b600082601f830112614acf57600080fd5b8135614ae2614add82615c04565b615bd3565b91508082526020830160208301858383011115614afe57600080fd5b614b09838284615ced565b50505092915050565b600081359050614b2181615d59565b92915050565b600060208284031215614b3957600080fd5b6000614b4784828501614aa9565b91505092915050565b60008060408385031215614b6357600080fd5b6000614b7185828601614aa9565b9250506020614b8285828601614b12565b9150509250929050565b600060208284031215614b9e57600080fd5b600082013567ffffffffffffffff811115614bb857600080fd5b614bc484828501614abe565b91505092915050565b60008060408385031215614be057600080fd5b600083013567ffffffffffffffff811115614bfa57600080fd5b614c0685828601614abe565b925050602083013567ffffffffffffffff811115614c2357600080fd5b614c2f85828601614abe565b9150509250929050565b60008060008060808587031215614c4f57600080fd5b600085013567ffffffffffffffff811115614c6957600080fd5b614c7587828801614abe565b945050602085013567ffffffffffffffff811115614c9257600080fd5b614c9e87828801614abe565b935050604085013567ffffffffffffffff811115614cbb57600080fd5b614cc787828801614abe565b925050606085013567ffffffffffffffff811115614ce457600080fd5b614cf087828801614abe565b91505092959194509250565b600080600080600060a08688031215614d1457600080fd5b600086013567ffffffffffffffff811115614d2e57600080fd5b614d3a88828901614abe565b955050602086013567ffffffffffffffff811115614d5757600080fd5b614d6388828901614abe565b945050604086013567ffffffffffffffff811115614d8057600080fd5b614d8c88828901614abe565b935050606086013567ffffffffffffffff811115614da957600080fd5b614db588828901614abe565b9250506080614dc688828901614b12565b9150509295509295909350565b60008060008060808587031215614de957600080fd5b600085013567ffffffffffffffff811115614e0357600080fd5b614e0f87828801614abe565b945050602085013567ffffffffffffffff811115614e2c57600080fd5b614e3887828801614abe565b935050604085013567ffffffffffffffff811115614e5557600080fd5b614e6187828801614abe565b9250506060614e7287828801614b12565b91505092959194509250565b600080600060608486031215614e9357600080fd5b600084013567ffffffffffffffff811115614ead57600080fd5b614eb986828701614abe565b935050602084013567ffffffffffffffff811115614ed657600080fd5b614ee286828701614abe565b9250506040614ef386828701614b12565b9150509250925092565b60008060008060808587031215614f1357600080fd5b600085013567ffffffffffffffff811115614f2d57600080fd5b614f3987828801614abe565b945050602085013567ffffffffffffffff811115614f5657600080fd5b614f6287828801614abe565b9350506040614f7387828801614b12565b9250506060614f8487828801614aa9565b91505092959194509250565b60008060008060808587031215614fa657600080fd5b600085013567ffffffffffffffff811115614fc057600080fd5b614fcc87828801614abe565b945050602085013567ffffffffffffffff811115614fe957600080fd5b614ff587828801614abe565b935050604061500687828801614b12565b925050606061501787828801614b12565b91505092959194509250565b60006020828403121561503557600080fd5b600061504384828501614b12565b91505092915050565b60006150588383615615565b905092915050565b61506981615ca5565b82525050565b61507881615ca5565b82525050565b600061508982615c44565b6150938185615c67565b9350836020820285016150a585615c34565b8060005b858110156150e157848403895281516150c2858261504c565b94506150cd83615c5a565b925060208a019950506001810190506150a9565b50829750879550505050505092915050565b6150fc81615cb7565b82525050565b600061510d82615c4f565b6151178185615c78565b9350615127818560208601615cfc565b61513081615d31565b840191505092915050565b600061514682615c4f565b6151508185615c89565b9350615160818560208601615cfc565b61516981615d31565b840191505092915050565b600061517f82615c4f565b6151898185615c9a565b9350615199818560208601615cfc565b80840191505092915050565b60006151b2601c83615c89565b91507f456c2070756573746f206e6f2070756564652073657220766163696f000000006000830152602082019050919050565b60006151f2601f83615c89565b91507f456c2061646472657373206e6f20707565646520657374617220766163696f006000830152602082019050919050565b6000615232602583615c89565b91507f4c6120686f726120646520656e7472616461206e6f207075656465207365722060008301527f766163696f0000000000000000000000000000000000000000000000000000006020830152604082019050919050565b6000615298602883615c89565b91507f536f6c6f207065726d697469646f206120616c756d6e6f73206e6f206d61747260008301527f6963756c61646f730000000000000000000000000000000000000000000000006020830152604082019050919050565b60006152fe601c83615c89565b91507f456c206e6f6d627265206e6f2070756564652073657220766163696f000000006000830152602082019050919050565b600061533e602583615c89565b91507f536f6c6f207065726d697469646f206120616c756d6e6f73206d61747269637560008301527f6c61646f730000000000000000000000000000000000000000000000000000006020830152604082019050919050565b60006153a4602383615c89565b91507f536f6c6f207065726d697469646f20612070726f66657320726567697374726160008301527f646f7300000000000000000000000000000000000000000000000000000000006020830152604082019050919050565b600061540a602583615c89565b91507f4e6f207365207065726d697465206c6120726563657063696f6e20646520646960008301527f6e65726f2e0000000000000000000000000000000000000000000000000000006020830152604082019050919050565b6000615470602683615c89565b91507f536f6c6f207065726d697469646f20612070726f666573206e6f20726567697360008301527f747261646f7300000000000000000000000000000000000000000000000000006020830152604082019050919050565b60006154d6602483615c89565b91507f456c206e6f6d6272652064656c206c6162206e6f20707565646520736572207660008301527f6163696f000000000000000000000000000000000000000000000000000000006020830152604082019050919050565b600061553c602883615c89565b91507f536f6c6f207065726d697469646f206120706572736f6e6173206e6f2072656760008301527f6973747261646f730000000000000000000000000000000000000000000000006020830152604082019050919050565b60006155a2601b83615c89565b91507f4c61206665636861206e6f2070756564652073657220766163696f00000000006000830152602082019050919050565b60006155e2601783615c89565b91507f536f6c6f207065726d697469646f20616c206f776e65720000000000000000006000830152602082019050919050565b60006101008301600083015161562e6000860182615060565b50602083015184820360208601526156468282615102565b915050604083015184820360408601526156608282615102565b9150506060830151848203606086015261567a8282615102565b915050608083015184820360808601526156948282615102565b91505060a083015184820360a08601526156ae8282615102565b91505060c083015184820360c08601526156c88282615102565b91505060e083015184820360e08601526156e28282615102565b9150508091505092915050565b6000606083016000830151848203600086015261570c8282615102565b915050602083015184820360208601526157268282615102565b915050604083015161573b6040860182615746565b508091505092915050565b61574f81615ce3565b82525050565b61575e81615ce3565b82525050565b60006157708284615174565b915081905092915050565b6000602082019050615790600083018461506f565b92915050565b6000610100820190506157ac600083018b61506f565b81810360208301526157be818a61513b565b905081810360408301526157d2818961513b565b905081810360608301526157e6818861513b565b905081810360808301526157fa818761513b565b905081810360a083015261580e818661513b565b905081810360c0830152615822818561513b565b905081810360e0830152615836818461513b565b90509998505050505050505050565b6000602082019050818103600083015261585f818461507e565b905092915050565b600060208201905061587c60008301846150f3565b92915050565b6000602082019050818103600083015261589c818461513b565b905092915050565b600060408201905081810360008301526158be818561513b565b905081810360208301526158d2818461513b565b90509392505050565b600060808201905081810360008301526158f5818761513b565b90508181036020830152615909818661513b565b9050818103604083015261591d818561513b565b90508181036060830152615931818461513b565b905095945050505050565b60006060820190508181036000830152615956818661513b565b9050818103602083015261596a818561513b565b90506159796040830184615755565b949350505050565b6000606082019050818103600083015261599b818661513b565b90506159aa6020830185615755565b81810360408301526159bc818461513b565b9050949350505050565b600060208201905081810360008301526159df816151a5565b9050919050565b600060208201905081810360008301526159ff816151e5565b9050919050565b60006020820190508181036000830152615a1f81615225565b9050919050565b60006020820190508181036000830152615a3f8161528b565b9050919050565b60006020820190508181036000830152615a5f816152f1565b9050919050565b60006020820190508181036000830152615a7f81615331565b9050919050565b60006020820190508181036000830152615a9f81615397565b9050919050565b60006020820190508181036000830152615abf816153fd565b9050919050565b60006020820190508181036000830152615adf81615463565b9050919050565b60006020820190508181036000830152615aff816154c9565b9050919050565b60006020820190508181036000830152615b1f8161552f565b9050919050565b60006020820190508181036000830152615b3f81615595565b9050919050565b60006020820190508181036000830152615b5f816155d5565b9050919050565b60006020820190508181036000830152615b8081846156ef565b905092915050565b6000602082019050615b9d6000830184615755565b92915050565b6000604082019050615bb86000830185615755565b8181036020830152615bca818461513b565b90509392505050565b6000604051905081810181811067ffffffffffffffff82111715615bfa57615bf9615d2f565b5b8060405250919050565b600067ffffffffffffffff821115615c1f57615c1e615d2f565b5b601f19601f8301169050602081019050919050565b6000819050602082019050919050565b600081519050919050565b600081519050919050565b6000602082019050919050565b600082825260208201905092915050565b600082825260208201905092915050565b600082825260208201905092915050565b600081905092915050565b6000615cb082615cc3565b9050919050565b60008115159050919050565b600073ffffffffffffffffffffffffffffffffffffffff82169050919050565b6000819050919050565b82818337600083830152505050565b60005b83811015615d1a578082015181840152602081019050615cff565b83811115615d29576000848401525b50505050565bfe5b6000601f19601f8301169050919050565b615d4b81615ca5565b8114615d5657600080fd5b50565b615d6281615ce3565b8114615d6d57600080fd5b5056fea26469706673582212205d3f9fe219835d55c428a43f2b89a2344d6e8f0176bbc4a80cda9e31bfa71f8664736f6c63430007040033",
  "immutableReferences": {},
  "source": "pragma solidity ^0.7.4;\r\npragma experimental ABIEncoderV2;//enabled when passing an array of string(struct) as a function paramete\r\n\r\n\r\n/*\r\n*falta : \r\n*crear lo de las asignaturas con los laborarios y puestos a los que perteneces y las caracteristicas que desepean cada puesto \r\n*crear las reservas , se va a reservar por semana un puesto de un determinado laboratorio \r\n*/\r\n\r\n\r\ncontract ReslabEtsit {\r\n    \r\n   \r\n    /**\r\n     * address del profesor que ha desplegado el contrato.\r\n     * El contrato lo despliega el profesor.\r\n     */\r\n    address public owner;\r\n    address public profesorP;\r\n     \r\n    \r\n    /// Nombre de la asignatura\r\n    //string public nombre;\r\n    \r\n   \r\n    \r\n    /**\r\n     * Datos de un puesto\r\n     */\r\n     \r\n     \r\n     \r\n    enum TipoSO {windows, macos , linux}\r\n    \r\n    enum TipoConexionesRed { cable, inalambrico} // array de strings \r\n    \r\n   \r\n   // enum Horario { turnom ,turnot}//poenr horas y turnos en enum???? array de horas \r\n    \r\n    struct Puesto {\r\n        string nombre;\r\n        //caracteristicas\r\n        TipoConexionesRed tipoConexionesRed;\r\n        TipoSO tipoSO;\r\n       // Laboratorio laboratorio;\r\n       \r\n    }\r\n    \r\n    \r\n    \r\n    \r\n    \r\n    /// puestos de la asignatura.\r\n   // Puesto[] public puestos;\r\n    \r\n    //labs de la asignatura\r\n    \r\n   // Laboratorio[] public laboratorios;\r\n   \r\n   \r\n    /**\r\n    * datos de todos los labs con sus parametro en la pantalla de inicio\r\n    * DUDA -> QUIERO PONERARRAY DE STRING DE ASIGNATURA!!\r\n    **/\r\n     struct DatosLaboratorio {\r\n        uint labId;\r\n        string nombreL;\r\n        //string[] asignaturaL;\r\n       \r\n    }\r\n    \r\n    /**\r\n    * datos del alumno que se registra \r\n    **/\r\n   // datos persona \r\n    struct DatosPersona {\r\n\taddress dir;\r\n    }\r\n\r\n    /// Datos de un alumno.\r\n    struct DatosAlumno {\r\n        string nombre;\r\n        string email;\r\n        \r\n    }\r\n    \r\n    /**\r\n     * Datos profe que se registra \r\n     * */\r\n     \r\n    \r\n    struct DatosProfesor{\r\n        string nombreP;\r\n        string emailP;\r\n        string asignaturaP;\r\n        string departamentoP;\r\n    }\r\n    \r\n    \r\n    \r\n    /**\r\n     * Datos de lasegunda pantalla donde te aparcene el estado de reserva, puestos etc del lab)\r\n     * */\r\n    struct PinchaLab {\r\n        \r\n\taddress dir;\r\n\t\r\n\tstring fecha;\r\n\tstring entradaTurno;\r\n\tstring salidaTurno;\r\n\tstring puesto;\r\n        \r\n\tstring estado;\r\n\tstring asignatura;\r\n\tstring info; //enumerado del sistema operativo!!!!!!!!!!!\r\n    }\r\n    \r\n   /* struct DatosAsignatura{\r\n        string nombre;\r\n        Laboratorio[] laboratorio;\r\n        Puesto[] puesto;\r\n        //credito semanal\r\n        //Matriculas matriculados;\r\n    }\r\n    */\r\n    \r\n    \r\n    \r\n    /**\r\n     * Datos de los datos de las ultimas reservas registradas // FALTAN PUESTO\r\n     * */\r\n     \r\n     struct UltimaReserva{\r\n         string lab;\r\n         uint turno;\r\n         string fecha;\r\n         \r\n         \r\n     }\r\n     \r\n     /**\r\n      * Datos de mireserva //FALTA PUESTO\r\n      * */\r\n      \r\n      struct ReservaAlumno{\r\n          string lab;\r\n          string fecha;\r\n          uint estado;\r\n          //string puesto;\r\n\r\n      }\r\n      \r\n      // acceder a los datos de una persona dada su direccion\r\n      mapping (address => DatosPersona) public datosPersona;\r\n    \r\n    /// Acceder a los datos de un alumno dada su direccion.\r\n    mapping (address => DatosAlumno) public datosAlumno;\r\n    \r\n      /// Acceder a los datos de un profe dada su direccion.\r\n    mapping (address => DatosProfesor) public datosProfesor;\r\n    \r\n    //mapping (address => DatosAsignatura)  datosAsignatura;\r\n    \r\n    \r\n    mapping (address => DatosLaboratorio)  datosLaboratorio;\r\n\r\n    //mapping(uint => Laboratorio) public labPuestos; //acceder a los puestos del lab dada la info del lab\r\n  \r\n\r\n    \r\n    // Array con las direcciones de los alumnos matriculados.\r\n    address[] public matriculas;\r\n    \r\n    \r\n    //array con las direcciones de los profes registrados \r\n    address[] public profesRegistrados;\r\n    \r\n        // Array con las direcciones de las personas registradas.\r\n    address[] public registradosP;\r\n\r\n    \r\n    //Array credito semanal \r\n    address [] public creditosemanal;\r\n    \r\n    //address[] public asignaturasRegistradas;\r\n    \r\n    \r\n    // labs en la escuela\r\n    DatosLaboratorio[] public laboratoriosRegistrados;\r\n    //reservas de la escuela\r\n    \r\n    UltimaReserva[] public reservasLab;\r\n        \r\n   \r\n\r\n     //reserva para un usuario \r\n  \r\n    mapping (address => ReservaAlumno) public reservasAlumno;\r\n    \r\n    \r\n    //turno de la escuela\r\n\r\n    mapping (string => mapping (string  => uint[] )) public turnos;\r\n    \r\n        /// Mapping para evitar duplicados de turnos.\r\n    mapping (string => mapping (string  => mapping ( uint => bool ))) public turnos_existentes;\r\n    \r\n    /// Direcciones de las personas que han asistido a algun aula en alguna de las fechas y en algun turno.\r\n    mapping (string => mapping (string => mapping (uint => address[] ))) public personas;\r\n   \r\n    /// Direcciones de las personas que han asistido a algun aula en alguna de las fechas.\r\n    mapping (string => mapping (string => address[] )) public personasTotales;\r\n    \r\n    // Dada la fecha actual, el nombre del aula, el turno y la direccin de la persona, devuelve\r\n    // la entrada correspondiente a dicha persona.\r\n    mapping (string => mapping (string => mapping (uint => mapping (address => PinchaLab)))) public datosLab;\r\n\r\n    \r\n    /// Ultimas entradas de cada persona.\r\n    mapping (address => UltimaReserva[] ) public ultimosRegistros;\r\n\r\n  // mapping(uint => bool) public registeredLaboratorios; //saberr si un lab esta registrado\r\n   // mapping(uint => Laboratorio) public labPuestos; //acceder a los puestos del lab dada la info del lab \r\n    // labId -> mes ->semana-> hora -> waitingList[]\r\n /*   mapping(uint => mapping(uint => mapping(uint => mapping(uint => address[])))) public reservations;\r\n    // labId -> mes ->semana-> hora -> waitingListLength\r\n    mapping(uint => mapping(uint => mapping(uint => mapping(uint => uint)))) public reservationLengths;\r\n    // address -> _labID -> mes ->semana-> hora -> bool*/\r\n /*   mapping(address => mapping(uint => mapping(uint => mapping(uint => mapping(uint => bool))))) public isLabReserved;\r\n    event Reservation(\r\n        address indexed _from,\r\n        uint _labID,\r\n        uint _mes,\r\n        uint _semana,\r\n        uint _hora\r\n    );\r\n    event Cancellation(\r\n        address indexed _from,\r\n        uint _labID,\r\n        uint _mes,\r\n        uint _semana,\r\n        uint _hora\r\n    );\r\n    \r\n    \r\n  */\r\n    \r\n    \r\n    \r\n    \r\n    /*\r\n     * Constructor.\r\n     * \r\n     * @param _nombre Nombre de la asignatura.\r\n     * //habria qu eponer nombre puesto /lab /alumno etc \r\n    \r\n     */\r\n    /*constructor(string memory _nombre) {\r\n        \r\n        bytes memory bn = bytes(_nombre);\r\n        require(bn.length != 0, \"El nombre de la asignatura no puede ser vacio\");\r\n       \r\n       \r\n      \r\n        owner = msg.sender;\r\n        nombre = _nombre;\r\n        \r\n        \r\n     \r\n        \r\n    }*/\r\n    \r\n    constructor()  {\r\n        owner = msg.sender;\r\n    } //?????????????????????????????????\r\n\r\n    \r\n    \r\n    \r\n    \r\n    \r\n    /**\r\n     * El numero depuestos creadas.\r\n     *\r\n     * @return El numero de puestos creadas.\r\n     */\r\n   /* function puestosLength() public view returns(uint) {\r\n        return puestos.length;\r\n    }\r\n    \r\n    \r\n    \r\n     /**\r\n     * El numero de labs  creadas.\r\n     *\r\n     * @return El numero de labs creadas.\r\n     */\r\n    function laboratoriosLength() public view returns(uint) {\r\n        return laboratoriosRegistrados.length;\r\n    }\r\n    \r\n    \r\n    \r\n        /**\r\n     * El numero de reservas existentes.\r\n     *\r\n     * @return El numero de alertas existentes.\r\n     */\r\n    function reservasLength() public view returns(uint) {\r\n        return reservasLab.length;\r\n\r\n    }\r\n\r\n\t  /**\r\n     * El numero de ultimosRegistros existentes.\r\n     *\r\n     * @return El numero de ultimosRegistros existentes.\r\n     */\r\n    function ultimosRegistrosLength(address dir) public view returns(uint) {\r\n\treturn ultimosRegistros[dir].length;\r\n    }\r\n        \r\n    /**\r\n     * Permite obtener la longitud del array de personasTotales.\r\n     * \r\n     */\r\n    function personasLength(string memory _nombre, string memory _fecha) public view returns(uint) {\r\n\r\n\tuint longitud = personasTotales[_fecha][_nombre].length;\r\n\r\n\tif(longitud == 0){\r\n\t  longitud = 1;\r\n\t}\r\n\r\n  \treturn longitud;\r\n\r\n    }\r\n\r\n\r\n\r\n    /**\r\n     * Permite obtener un address del array de personas.\r\n     * \r\n     */\r\n    function dirPersonas(string memory _nombre, string memory _fecha, uint _indice) public view returns(address) {\r\n\r\n\tif(personasTotales[_fecha][_nombre].length > 0){\r\n\taddress _dirUno = personasTotales[_fecha][_nombre][_indice];\r\n\treturn _dirUno;\r\n\r\n\t}else{\r\n\treturn msg.sender;\r\n\t}\t\t\t\r\n\t\r\n    }\r\n    \r\n        /**\r\n     * Obtiene los datos de una persona registrada.\r\n     * \r\n     * @param persona La direccion de una persona.\r\n     * \r\n     * @return los datos de una persona registrada.\r\n     */\r\n    function obtenerDatosPersona(address persona)  public view returns(address) {\r\n\t\r\n\t\r\n\tif(!estaRegistrado(persona)){\r\n\treturn address(0);\r\n\t} else{\t\r\n\treturn datosPersona[persona].dir;\r\n\t}\r\n\t\r\n        \r\n        \r\n    } \r\n    \r\n\r\n\r\n        /**\r\n     * La alerta (si la hay) de un alumno.\r\n     *\r\n     */\r\n    function reservas(address _dir) public view returns (ReservaAlumno memory) {\r\n\r\n\treturn reservasAlumno[_dir]; \r\n    }\r\n\r\n\r\n\r\n    /**\r\n     * Eliminar la alerta de un usuario\r\n     *\r\n     */\r\n    function reiniciarReserva() public {\r\n\r\n\treservasAlumno[msg.sender].estado = 0 ;\r\n\r\n\r\n    }\r\n\r\n        /**\r\n     * El lab del que se desea ver el historial.\r\n     *\r\n     */\r\n    function LabPulsado(uint x) public view returns (string memory) {\r\n\r\n\treturn laboratoriosRegistrados[x].nombreL; \r\n    }\r\n\r\n    \r\n    /**\r\n     * Crear un lab. \r\n     *\r\n     * Las labss se meteran en el array labss, y nos referiremos a ellas por su posicion en el array.\r\n     * \r\n     * @param _nombre El nombre del aula.\r\n     * \r\n     * @return La posicion en el array aulas,\r\n     */\r\n    \r\n     /**\r\n     * Las personas pueden registrar su asistencia a un lab con el metodo guardarReserva.\r\n     * \r\n     * Impedir que se pueda meter un nombre vacio.\r\n     *\r\n     *  _nombre El nombre del aula. \r\n     * _ent Hora de entrada al aula.\r\n     *  _fecha Fecha de entrada al aula.\r\n     *  _puesto Puesto en el aula.\r\n     */\r\n    function guardarReserva(string memory _nombre, string memory _entradaTurno, string memory _fecha, string memory _puesto, uint _turno) public {\r\n        \r\n\t\r\n    bytes memory a = bytes(_nombre);\r\n    require(a.length != 0, \"El nombre no puede ser vacio\");\r\n\r\n\tbytes memory b = bytes(_entradaTurno);\r\n\trequire(b.length != 0, \"La hora de entrada no puede ser vacio\");\r\n\r\n\tbytes memory c = bytes(_fecha);\r\n\trequire(c.length != 0, \"La fecha no puede ser vacio\");\r\n\r\n\tbytes memory d = bytes(_puesto);\r\n        require(d.length != 0, \"El puesto no puede ser vacio\");\r\n\r\n\tdatosLab[_fecha][_nombre][_turno][msg.sender].dir = msg.sender;\r\n\tdatosLab[_fecha][_nombre][_turno][msg.sender].fecha = _fecha;\r\n\tdatosLab[_fecha][_nombre][_turno][msg.sender].entradaTurno = _entradaTurno; \r\n\tdatosLab[_fecha][_nombre][_turno][msg.sender].puesto = _puesto;\r\n \t\r\n\t/*if (reservasAlumno[msg.sender].estado==0) {\r\n   \tdatosLab[_fecha][_nombre][_turno][msg.sender].estado = \"Inicial\";\r\n\t} else if (reservasAlumno[msg.sender].estado==1) {\r\n   \tdatosLab[_fecha][_nombre][_turno][msg.sender].estado = \"Sospechoso\";\r\n\t} else if (reservasAlumno[msg.sender].estado==2) {\r\n   \tdatosLab[_fecha][_nombre][_turno][msg.sender].estado = \"Positivo\";\r\n\t} else {\r\n   \tdatosLab[_fecha][_nombre][_turno][msg.sender].estado = \"Negativo\";\r\n\t}*/\r\n\r\n        personas[_fecha][_nombre][_turno].push(msg.sender);\r\n\tpersonasTotales[_fecha][_nombre].push(msg.sender);\r\n\tultimosRegistros[msg.sender].push(UltimaReserva(_nombre,_turno,_fecha));\r\n\t\r\n\tif (turnos_existentes[_fecha][_nombre][_turno] == false){\r\n\t   turnos[_fecha][_nombre].push(_turno);\r\n\t   turnos_existentes[_fecha][_nombre][_turno] = true;\r\n\t}\r\n\r\n        \r\n    }\r\n    \r\n\r\n    /**\r\n     * Las personas pueden registrar su salida del aula con el metodo guardarSalida.\r\n     * \r\n     * Impedir que se pueda meter un nombre vacio.\r\n     *\r\n     * _nombre El nombre del aula. \r\n     *  _sal Hora de salida al aula.\r\n     *  _fecha Fecha de entrada al aula.\r\n     */\r\n    function guardarSalida(string memory _nombre, string memory _salidaTurno, string memory _fecha, uint _turno) public {\r\n\r\n\tdatosLab[_fecha][_nombre][_turno][msg.sender].salidaTurno = _salidaTurno;\r\n        \r\n    }\r\n\r\n\r\n\r\n\r\n      /**\r\n     * Permite al administrador obtener los datos de un aula para que sean visualizados.\r\n     * \r\n     */\r\n    function guardarEntradasLaboratorio(string memory _nombre, string memory _fecha) public view returns(PinchaLab[] memory) {\r\n\r\n\tuint cont = 0;\r\n\tuint iterador = 0;\r\n\r\n\tuint num_turnos = turnos[_fecha][_nombre].length;\r\n\t\r\n\tfor(uint j = 0; j < num_turnos ; j++){\r\n\r\n\tcont = cont + personas[_fecha][_nombre][turnos[_fecha][_nombre][j]].length;\r\n\r\n\t}\t\r\n\r\n\r\n\tif(num_turnos > 0){\r\n\r\n\tPinchaLab[] memory entradas = new PinchaLab[](cont);\r\n\r\n\tfor(uint j = 0; j < num_turnos ; j++){\r\n\r\n\taddress[] memory _dir = personas[_fecha][_nombre][turnos[_fecha][_nombre][j]];\t\r\n\r\n\tfor(uint i = iterador; i < _dir.length + iterador ; i++){\r\n\r\n\tentradas[i].dir = datosLab[_fecha][_nombre][turnos[_fecha][_nombre][j]][_dir[i]].dir;\r\n\tentradas[i].fecha = datosLab[_fecha][_nombre][turnos[_fecha][_nombre][j]][_dir[i]].fecha;\r\n\tentradas[i].entradaTurno = datosLab[_fecha][_nombre][turnos[_fecha][_nombre][j]][_dir[i]].entradaTurno;\r\n\tentradas[i].salidaTurno = datosLab[_fecha][_nombre][turnos[_fecha][_nombre][j]][_dir[i]].salidaTurno;\r\n\tentradas[i].puesto = datosLab[_fecha][_nombre][turnos[_fecha][_nombre][j]][_dir[i]].puesto;\r\n\tentradas[i].estado = datosLab[_fecha][_nombre][turnos[_fecha][_nombre][j]][_dir[i]].estado;\r\n\tentradas[i].asignatura = datosLab[_fecha][_nombre][turnos[_fecha][_nombre][j]][_dir[i]].asignatura;\r\n    entradas[i].info = datosLab[_fecha][_nombre][turnos[_fecha][_nombre][j]][_dir[i]].info;\r\n\t\r\n\t}\r\n\titerador = iterador + _dir.length;\r\n\t}\r\n\titerador = 0;\r\n\tcont = 0;\r\n\tnum_turnos = 0;\r\n\treturn entradas;\r\n\r\n\t}\r\n\telse{\r\n\t\r\n\tPinchaLab[] memory entradas_dos = new PinchaLab[](1);\r\n\tentradas_dos[0].dir = address(0x69068964Eb1d8F0cAF8Af7481bFDb2FA015E4C56);\r\n  \tentradas_dos[0].fecha = \"DISPONIBLES\";\r\n\tentradas_dos[0].entradaTurno = \"EN LA FECHA\";\r\n\tentradas_dos[0].salidaTurno = \"Y\";\r\n\tentradas_dos[0].puesto = \"ESTA\";\r\n    entradas_dos[0].asignatura = \"core\";\r\n\tentradas_dos[0].estado = \"AULA\";\r\n\r\n\treturn entradas_dos;\r\n\r\n\t}\t\r\n\r\n    }\r\n\r\n\r\n\r\n\r\n\r\n\r\n\r\n\r\n\r\n\r\n    /**\r\n     * El administrador puede eliminar un aula con el metodo eliminarAula.\r\n     * \r\n     * Impedir que se pueda meter un indice vacio.\r\n     *\r\n     *  _indice El nombre del aula. \r\n     */\r\n    \r\n    \r\n    \r\n    /*\r\n     * Crear un puesto\r\n     *\r\n     * Llos puestos se meteran en el array de puestos y nos refereimos por su posicion en el array\r\n     *  _nombre El nombre de puesto \r\n     \r\n   \r\n     * \r\n     * La posicion en el array lab\r\n     */\r\n     \r\n     \r\n     //poner lo del laboratorio pero me dice lo de use pragma experimental ABIENCODERV2\r\n    //function creaPuesto(string memory _nombre,TipoConexionesRed  _tipoConexionesRed,TipoSO  _TipoSO/*Laboratorio _laboratorio*/) soloProfesor public returns (uint) {\r\n        \r\n     //  bytes memory bn = bytes(_nombre);\r\n       // require(bn.length != 0, \"El nombre de la puesto no puede ser vacio\");\r\n        \r\n        //puestos.push(Puesto(_nombre,_tipoConexionesRed,_TipoSO/*_laboratorio*/));\r\n        //return puestos.length - 1;\r\n  //  }\r\n    \r\n    \r\n    \r\n    \r\n        \r\n     //poner lo del laboratorio pero me dice lo de use pragma experimental ABIENCODERV2\r\n    function creaLaboratorio( string memory _nombreL)  soloOwner public returns (uint) {\r\n        \r\n        bytes memory bn = bytes(_nombreL);\r\n        require(bn.length != 0, \"El nombre del lab no puede ser vacio\");\r\n        \r\n        laboratoriosRegistrados.push(DatosLaboratorio(laboratoriosRegistrados.length,_nombreL));\r\n        return laboratoriosRegistrados.length - 1;\r\n    }\r\n    \r\n    \r\n    \r\n    \r\n    \r\n        \r\n    \r\n \r\n     /**\r\n     * El numero de alumnos matriculados.\r\n     *\r\n     * @return El numero de alumnos matriculados.\r\n     */\r\n    function matriculasLength() public view returns(uint) {\r\n        return matriculas.length;\r\n    }\r\n    \r\n    \r\n    \r\n      /**\r\n     * El numero de profes registrados.\r\n     *\r\n     * .\r\n     */\r\n    function profesRegistradosLength() public view returns(uint) {\r\n        return profesRegistrados.length;\r\n    }\r\n    \r\n    \r\n       /**\r\n     * El numero de asignaturas registrados.\r\n     *\r\n     * .\r\n     */\r\n    /*function asignaturasRegistradasLength() public view returns(uint) {\r\n        return asignaturasRegistradas.length;\r\n    }\r\n    */\r\n    \r\n    \r\n    \r\n    \r\n      /**\r\n     * numero de credito semanal \r\n     *\r\n     * @return El numero de credito semanal \r\n     * \r\n     */\r\n     /*function creditosemanalLength() public view returns(uint) {\r\n        return creditosemanal.length;\r\n    }???????????????????????????*/\r\n     \r\n    \r\n    \r\n    \r\n    \r\n    /**\r\n     * Los alumnos pueden automatricularse con el metodo automatricula.\r\n     * \r\n     * Impedir que se pueda meter un nombre vacio.\r\n     *\r\n     * @param _nombre El nombre del alumno. \r\n     * @param _email  El email del alumno.\r\n     */\r\n    function automatricula(string memory _nombre, string memory _email) noMatriculados public {\r\n        //revert(\"siempre falla\");\r\n        bytes memory b = bytes(_nombre);\r\n        require(b.length != 0, \"El nombre no puede ser vacio\");\r\n        \r\n        DatosAlumno memory datos = DatosAlumno(_nombre, _email);\r\n        \r\n        datosAlumno[msg.sender] = datos;\r\n        \r\n        matriculas.push(msg.sender);\r\n        \r\n    }\r\n    \r\n    \r\n        function autoregistroP() noRegistradosP public {\r\n        \r\n        require(msg.sender!=address(0), \"El address no puede estar vacio\");\r\n        \r\n        datosPersona[msg.sender] = DatosPersona(msg.sender);\r\n        \r\n        registradosP.push(msg.sender);\r\n        \r\n    }\r\n    \r\n    \r\n  \r\n    function autoRegistro(string memory _nombreP, string memory _emailP,string memory _asignaturaP,string memory _departamentoP ) noRegistrados public {\r\n        \r\n        bytes memory b = bytes(_nombreP);\r\n        require(b.length != 0, \"El nombre no puede ser vacio\");\r\n        \r\n        DatosProfesor memory datosP = DatosProfesor(_nombreP, _emailP,_asignaturaP,_departamentoP);\r\n        \r\n        datosProfesor[msg.sender] = datosP;\r\n        \r\n       profesRegistrados.push(msg.sender);\r\n        \r\n    }\r\n    \r\n    \r\n    \r\n    \r\n    \r\n    \r\n    \r\n    \r\n    \r\n    \r\n    \r\n    \r\n    /**\r\n     * Permite a un alumno obtener sus propios datos.\r\n     * \r\n     * @return _nombre El nombre del alumno que invoca el metodo.\r\n     * @return _email  El email del alumno que invoca el metodo.\r\n     */\r\n    function quienSoy() soloMatriculados public view returns (string memory _nombre, string memory _email) {\r\n        DatosAlumno memory datos = datosAlumno[msg.sender];\r\n        _nombre = datos.nombre;\r\n        _email = datos.email;\r\n    }\r\n    \r\n    \r\n      function quienSoyP() soloRegistrados public view returns (string memory _nombreP, string memory _emailP,string memory _asignaturaP,string memory _departamentoP) {\r\n        DatosProfesor memory datosP = datosProfesor[msg.sender];\r\n        _nombreP = datosP.nombreP;\r\n        _emailP = datosP.emailP;\r\n        _departamentoP = datosP.departamentoP;\r\n        _asignaturaP = datosP.asignaturaP;\r\n    }\r\n    \r\n    \r\n    \r\n\r\n    \r\n    \r\n    /**\r\n     * Consulta si una direccion pertenece a un alumno matriculado.\r\n     * \r\n     * @param alumno La direccion de un alumno.\r\n     * \r\n     * @return true si es una alumno matriculado.\r\n     */\r\n    function estaMatriculado(address alumno) private view returns (bool) {\r\n      \r\n        string memory _nombre = datosAlumno[alumno].nombre;\r\n        \r\n        bytes memory b = bytes(_nombre);\r\n        \r\n        return b.length != 0;\r\n    } \r\n    \r\n    \r\n       function estaRegistrado(address profesor) private view returns (bool) {\r\n      \r\n        string memory _nombreP = datosProfesor[profesor].nombreP;\r\n        \r\n        bytes memory b = bytes(_nombreP);\r\n        \r\n        return b.length != 0;\r\n    } \r\n    \r\n    function estaRegistradoP(address persona) public view returns (bool) {\r\n\r\n\taddress _dir = datosPersona[persona].dir;\r\n        return _dir!=address(0);\r\n    } \r\n    \r\n    \r\n    //como hacer para que te devuelva los puestos segun asignatura \r\n    \r\n    /*function getPuestos (string asignatura) soloMatriculados public view returns (\r\n        string nombre, TipoConexionesRed tipoConexionesRed,TipoSO tipoSO)\r\n         \r\n         require (asignatura.length!=0,\"no vacio\");\r\n         \r\n         Puesto memory puesto= tipoConexionesRed[msg.sender][asignatura];\r\n         //meter tb tipoSO\r\n         tipoConexionesRed=Puesto.tipoConexionesRed\r\n         tipoSO=Puesto.tipoSO;\r\n         \r\n    // con laboratorios tb ! */\r\n   \r\n    \r\n   //RESERVASSSSSSSSSSSSSSSSSS\r\n   \r\n   \r\n   \r\n   \r\n   /*function addLab(uint labId, uint maxPuestos) public {\r\n        require(registeredLaboratorios[labId] == false, \"lab has already been registered\");\r\n        require(msg.sender == owner, \"You are not the owner\");\r\n        labPuestos[labId] = Laboratorio({\r\n            labId: labId,\r\n            maxPuestos: maxPuestos\r\n        });\r\n        registeredLaboratorios[labId] = true;\r\n    }\r\n    */\r\n   /* function addReservation(uint   _labID, uint mes,uint semana, uint hora) public {\r\n        require(registeredLaboratorios[_labID] == true, \"lab does not exist\");\r\n        //require(puestoId < labPuestos[labId].maxPuestos, \"Puesto does not exist\");\r\n        require(\r\n            isLabReserved[msg.sender][_labID][mes][semana][hora] == false, \r\n            \"You already have a reservation for this lab at this time\"\r\n        );\r\n        reservations[_labID][mes][semana][hora] .push(msg.sender);\r\n        reservationLengths[_labID][mes][semana][hora]  += 1;\r\n        isLabReserved[msg.sender][_labID][mes][semana][hora] = true;\r\n        emit Reservation(msg.sender, _labID, mes, semana,hora);\r\n    }\r\n    function cancelReservation(uint _labID, uint mes,uint semana, uint hora) public {\r\n        require(registeredLaboratorios[_labID] == true, \"lab does not exist\");\r\n       // require(puestoId < labPuestos[_labID].maxPuestos, \"Puesto does not exist\");\r\n        require(\r\n            isLabReserved[msg.sender][_labID][mes][semana][hora] == true, \r\n            \"You don't have a reservation for this Lab\"\r\n        );\r\n        for (uint i = 0; i < reservations[_labID][mes][semana][hora].length; i++) {\r\n            if (reservations[_labID][mes][semana][hora][i] == msg.sender) {\r\n                delete reservations[_labID][mes][semana][hora][i];\r\n                break;\r\n            }\r\n        }\r\n        reservationLengths[_labID][mes][semana][hora] -= 1;\r\n        isLabReserved[msg.sender][_labID][mes][semana][hora] = false;\r\n        emit Cancellation(msg.sender, _labID, mes, semana,hora);\r\n    } */\r\n\r\n\r\n\r\n\r\n           /**\r\n     * Modificador para que una funcion solo la pueda ejecutar el profesor.\r\n     * \r\n     *\r\n     */\r\n    modifier soloOwner() {\r\n        \r\n        require(msg.sender == owner, \"Solo permitido al owner\");\r\n        _;\r\n    }\r\n    \r\n    \r\n    /**\r\n     * Modificador para que una funcion solo la pueda ejecutar el profesor.\r\n     * \r\n     *\r\n     */\r\n    modifier soloProfesor() {\r\n        \r\n        require(msg.sender == profesorP, \"Solo permitido al profesor\");\r\n        _;\r\n    }\r\n    \r\n    \r\n    /**\r\n     * Modificador para que una funcion solo la pueda ejecutar un alumno matriculado.\r\n     */\r\n    modifier soloMatriculados() {\r\n        \r\n        require(estaMatriculado(msg.sender), \"Solo permitido a alumnos matriculados\");\r\n        _;\r\n    }\r\n    \r\n    \r\n      modifier soloRegistrados() {\r\n        \r\n        require(estaRegistrado(msg.sender), \"Solo permitido a profes registrados\");\r\n        _;\r\n    }\r\n    \r\n    \r\n \r\n    /**\r\n     * Modificador para que una funcion solo la pueda ejecutar un alumno no matriculado aun.\r\n     */\r\n    modifier noMatriculados() {\r\n        \r\n        require(!estaMatriculado(msg.sender), \"Solo permitido a alumnos no matriculados\");\r\n        _;\r\n    }\r\n    \r\n    \r\n    \r\n      modifier noRegistrados() {\r\n        \r\n        require(!estaRegistrado(msg.sender), \"Solo permitido a profes no registrados\");\r\n        _;\r\n    }\r\n    \r\n        \r\n      modifier noRegistradosP() {\r\n        \r\n        require(!estaRegistradoP(msg.sender), \"Solo permitido a personas no registrados\");\r\n        _;\r\n    }\r\n    \r\n    \r\n       receive() external payable {\r\n        revert(\"No se permite la recepcion de dinero.\");\r\n    }\r\n}",
  "sourcePath": "C:/Users/Paula Huertas/reslabetsit/contracts/ReslabEtsit.sol",
  "compiler": {
    "name": "solc",
    "version": "0.7.4+commit.3f05b770.Emscripten.clang"
  },
  "schemaVersion": "3.3.4",
  "updatedAt": "2021-12-05T19:05:52.493Z",
  "networkType": "ethereum",
  "devdoc": {
    "kind": "dev",
    "methods": {
      "automatricula(string,string)": {
        "params": {
          "_email": "El email del alumno.",
          "_nombre": "El nombre del alumno. "
        }
      },
      "laboratoriosLength()": {
        "returns": {
          "_0": "El numero de puestos creadas."
        }
      },
      "matriculasLength()": {
        "returns": {
          "_0": "El numero de alumnos matriculados."
        }
      },
      "obtenerDatosPersona(address)": {
        "params": {
          "persona": "La direccion de una persona. "
        },
        "returns": {
          "_0": "los datos de una persona registrada."
        }
      },
      "quienSoy()": {
        "returns": {
          "_email": " El email del alumno que invoca el metodo.",
          "_nombre": "El nombre del alumno que invoca el metodo."
        }
      },
      "reservasLength()": {
        "returns": {
          "_0": "El numero de alertas existentes."
        }
      },
      "ultimosRegistrosLength(address)": {
        "returns": {
          "_0": "El numero de ultimosRegistros existentes."
        }
      }
    },
    "version": 1
  },
  "userdoc": {
    "kind": "user",
    "methods": {
      "LabPulsado(uint256)": {
        "notice": "El lab del que se desea ver el historial."
      },
      "automatricula(string,string)": {
        "notice": "Los alumnos pueden automatricularse con el metodo automatricula.  Impedir que se pueda meter un nombre vacio."
      },
      "creaLaboratorio(string)": {
        "notice": "El administrador puede eliminar un aula con el metodo eliminarAula.  Impedir que se pueda meter un indice vacio.  _indice El nombre del aula. "
      },
      "datosAlumno(address)": {
        "notice": "Acceder a los datos de un alumno dada su direccion."
      },
      "datosProfesor(address)": {
        "notice": "Acceder a los datos de un profe dada su direccion."
      },
      "dirPersonas(string,string,uint256)": {
        "notice": "Permite obtener un address del array de personas. "
      },
      "guardarEntradasLaboratorio(string,string)": {
        "notice": "Permite al administrador obtener los datos de un aula para que sean visualizados. "
      },
      "guardarReserva(string,string,string,string,uint256)": {
        "notice": "Las personas pueden registrar su asistencia a un lab con el metodo guardarReserva.  Impedir que se pueda meter un nombre vacio.  _nombre El nombre del aula.  _ent Hora de entrada al aula.  _fecha Fecha de entrada al aula.  _puesto Puesto en el aula."
      },
      "guardarSalida(string,string,string,uint256)": {
        "notice": "Las personas pueden registrar su salida del aula con el metodo guardarSalida.  Impedir que se pueda meter un nombre vacio. _nombre El nombre del aula.   _sal Hora de salida al aula.  _fecha Fecha de entrada al aula."
      },
      "laboratoriosLength()": {
        "notice": "El numero depuestos creadas."
      },
      "matriculasLength()": {
        "notice": "El numero de alumnos matriculados."
      },
      "obtenerDatosPersona(address)": {
        "notice": "Obtiene los datos de una persona registrada. "
      },
      "owner()": {
        "notice": "address del profesor que ha desplegado el contrato. El contrato lo despliega el profesor."
      },
      "personas(string,string,uint256,uint256)": {
        "notice": "Direcciones de las personas que han asistido a algun aula en alguna de las fechas y en algun turno."
      },
      "personasLength(string,string)": {
        "notice": "Permite obtener la longitud del array de personasTotales. "
      },
      "personasTotales(string,string,uint256)": {
        "notice": "Direcciones de las personas que han asistido a algun aula en alguna de las fechas."
      },
      "profesRegistradosLength()": {
        "notice": "El numero de profes registrados. ."
      },
      "quienSoy()": {
        "notice": "Permite a un alumno obtener sus propios datos. "
      },
      "reiniciarReserva()": {
        "notice": "Eliminar la alerta de un usuario"
      },
      "reservas(address)": {
        "notice": "La alerta (si la hay) de un alumno."
      },
      "reservasLength()": {
        "notice": "El numero de reservas existentes."
      },
      "turnos_existentes(string,string,uint256)": {
        "notice": "Mapping para evitar duplicados de turnos."
      },
      "ultimosRegistros(address,uint256)": {
        "notice": "Ultimas entradas de cada persona."
      },
      "ultimosRegistrosLength(address)": {
        "notice": "El numero de ultimosRegistros existentes."
      }
    },
    "version": 1
  }
}